{
  "_format": "hh-sol-artifact-1",
  "contractName": "TouristConTract",
  "sourceName": "contracts/Tourism.sol",
  "abi": [
    {
      "inputs": [],
      "stateMutability": "nonpayable",
      "type": "constructor"
    },
    {
      "anonymous": false,
      "inputs": [
        {
          "indexed": false,
          "internalType": "string",
          "name": "AlbumName",
          "type": "string"
        },
        {
          "components": [
            {
              "internalType": "uint256",
              "name": "placeId",
              "type": "uint256"
            },
            {
              "internalType": "uint256",
              "name": "arrivalDate",
              "type": "uint256"
            },
            {
              "internalType": "string",
              "name": "review",
              "type": "string"
            },
            {
              "internalType": "uint256",
              "name": "rate",
              "type": "uint256"
            },
            {
              "internalType": "bool",
              "name": "isReview",
              "type": "bool"
            },
            {
              "internalType": "string",
              "name": "title",
              "type": "string"
            }
          ],
          "indexed": false,
          "internalType": "struct TouristConTract.Journey",
          "name": "journey",
          "type": "tuple"
        }
      ],
      "name": "AddJourneyInAlbum",
      "type": "event"
    },
    {
      "anonymous": false,
      "inputs": [
        {
          "indexed": false,
          "internalType": "string",
          "name": "name",
          "type": "string"
        },
        {
          "indexed": false,
          "internalType": "uint256",
          "name": "age",
          "type": "uint256"
        }
      ],
      "name": "AddTourist",
      "type": "event"
    },
    {
      "anonymous": false,
      "inputs": [
        {
          "indexed": true,
          "internalType": "address",
          "name": "owner",
          "type": "address"
        },
        {
          "indexed": true,
          "internalType": "address",
          "name": "spender",
          "type": "address"
        },
        {
          "indexed": false,
          "internalType": "uint256",
          "name": "value",
          "type": "uint256"
        }
      ],
      "name": "Approval",
      "type": "event"
    },
    {
      "anonymous": false,
      "inputs": [
        {
          "indexed": false,
          "internalType": "uint256",
          "name": "ticketId",
          "type": "uint256"
        },
        {
          "indexed": false,
          "internalType": "uint256",
          "name": "placeId",
          "type": "uint256"
        }
      ],
      "name": "CheckIn",
      "type": "event"
    },
    {
      "anonymous": false,
      "inputs": [
        {
          "indexed": false,
          "internalType": "uint256",
          "name": "_id",
          "type": "uint256"
        },
        {
          "indexed": false,
          "internalType": "string",
          "name": "_name",
          "type": "string"
        }
      ],
      "name": "CreateAlbum",
      "type": "event"
    },
    {
      "anonymous": false,
      "inputs": [
        {
          "indexed": true,
          "internalType": "address",
          "name": "from",
          "type": "address"
        },
        {
          "indexed": true,
          "internalType": "address",
          "name": "to",
          "type": "address"
        },
        {
          "indexed": false,
          "internalType": "uint256",
          "name": "value",
          "type": "uint256"
        }
      ],
      "name": "Transfer",
      "type": "event"
    },
    {
      "inputs": [
        {
          "internalType": "address",
          "name": "_signer",
          "type": "address"
        },
        {
          "internalType": "address",
          "name": "_to",
          "type": "address"
        },
        {
          "internalType": "uint256",
          "name": "_amount",
          "type": "uint256"
        },
        {
          "internalType": "string",
          "name": "_message",
          "type": "string"
        },
        {
          "internalType": "uint256",
          "name": "_nonce",
          "type": "uint256"
        },
        {
          "internalType": "bytes",
          "name": "signature",
          "type": "bytes"
        }
      ],
      "name": "_mintMinerReward",
      "outputs": [],
      "stateMutability": "nonpayable",
      "type": "function"
    },
    {
      "inputs": [
        {
          "internalType": "uint256",
          "name": "placeId",
          "type": "uint256"
        },
        {
          "internalType": "uint256",
          "name": "albumId",
          "type": "uint256"
        },
        {
          "internalType": "uint256",
          "name": "date",
          "type": "uint256"
        }
      ],
      "name": "addAlbumJourney",
      "outputs": [],
      "stateMutability": "nonpayable",
      "type": "function"
    },
    {
      "inputs": [
        {
          "internalType": "uint256",
          "name": "id",
          "type": "uint256"
        }
      ],
      "name": "addTicket",
      "outputs": [],
      "stateMutability": "nonpayable",
      "type": "function"
    },
    {
      "inputs": [
        {
          "internalType": "address",
          "name": "",
          "type": "address"
        },
        {
          "internalType": "uint256",
          "name": "",
          "type": "uint256"
        },
        {
          "internalType": "uint256",
          "name": "",
          "type": "uint256"
        }
      ],
      "name": "albumJourneys",
      "outputs": [
        {
          "internalType": "uint256",
          "name": "placeId",
          "type": "uint256"
        },
        {
          "internalType": "uint256",
          "name": "arrivalDate",
          "type": "uint256"
        },
        {
          "internalType": "string",
          "name": "review",
          "type": "string"
        },
        {
          "internalType": "uint256",
          "name": "rate",
          "type": "uint256"
        },
        {
          "internalType": "bool",
          "name": "isReview",
          "type": "bool"
        },
        {
          "internalType": "string",
          "name": "title",
          "type": "string"
        }
      ],
      "stateMutability": "view",
      "type": "function"
    },
    {
      "inputs": [
        {
          "internalType": "address",
          "name": "owner",
          "type": "address"
        },
        {
          "internalType": "address",
          "name": "spender",
          "type": "address"
        }
      ],
      "name": "allowance",
      "outputs": [
        {
          "internalType": "uint256",
          "name": "",
          "type": "uint256"
        }
      ],
      "stateMutability": "view",
      "type": "function"
    },
    {
      "inputs": [
        {
          "internalType": "address",
          "name": "spender",
          "type": "address"
        },
        {
          "internalType": "uint256",
          "name": "amount",
          "type": "uint256"
        }
      ],
      "name": "approve",
      "outputs": [
        {
          "internalType": "bool",
          "name": "",
          "type": "bool"
        }
      ],
      "stateMutability": "nonpayable",
      "type": "function"
    },
    {
      "inputs": [
        {
          "internalType": "address",
          "name": "account",
          "type": "address"
        }
      ],
      "name": "balanceOf",
      "outputs": [
        {
          "internalType": "uint256",
          "name": "",
          "type": "uint256"
        }
      ],
      "stateMutability": "view",
      "type": "function"
    },
    {
      "inputs": [
        {
          "internalType": "uint256",
          "name": "ticketID",
          "type": "uint256"
        },
        {
          "internalType": "uint256",
          "name": "placeID",
          "type": "uint256"
        }
      ],
      "name": "checkIn",
      "outputs": [],
      "stateMutability": "nonpayable",
      "type": "function"
    },
    {
      "inputs": [
        {
          "internalType": "uint256",
          "name": "ticketID",
          "type": "uint256"
        }
      ],
      "name": "checkValidTicket",
      "outputs": [
        {
          "internalType": "bool",
          "name": "",
          "type": "bool"
        }
      ],
      "stateMutability": "view",
      "type": "function"
    },
    {
      "inputs": [
        {
          "internalType": "bytes32",
          "name": "_hashedMessage",
          "type": "bytes32"
        },
        {
          "internalType": "uint8",
          "name": "_v",
          "type": "uint8"
        },
        {
          "internalType": "bytes32",
          "name": "_r",
          "type": "bytes32"
        },
        {
          "internalType": "bytes32",
          "name": "_s",
          "type": "bytes32"
        }
      ],
      "name": "claimPrize",
      "outputs": [
        {
          "internalType": "bool",
          "name": "",
          "type": "bool"
        }
      ],
      "stateMutability": "view",
      "type": "function"
    },
    {
      "inputs": [
        {
          "internalType": "uint256",
          "name": "_id",
          "type": "uint256"
        },
        {
          "internalType": "string",
          "name": "_name",
          "type": "string"
        }
      ],
      "name": "createAlbum",
      "outputs": [],
      "stateMutability": "nonpayable",
      "type": "function"
    },
    {
      "inputs": [],
      "name": "decimals",
      "outputs": [
        {
          "internalType": "uint8",
          "name": "",
          "type": "uint8"
        }
      ],
      "stateMutability": "view",
      "type": "function"
    },
    {
      "inputs": [
        {
          "internalType": "address",
          "name": "spender",
          "type": "address"
        },
        {
          "internalType": "uint256",
          "name": "subtractedValue",
          "type": "uint256"
        }
      ],
      "name": "decreaseAllowance",
      "outputs": [
        {
          "internalType": "bool",
          "name": "",
          "type": "bool"
        }
      ],
      "stateMutability": "nonpayable",
      "type": "function"
    },
    {
      "inputs": [
        {
          "internalType": "uint256",
          "name": "",
          "type": "uint256"
        },
        {
          "internalType": "uint256",
          "name": "",
          "type": "uint256"
        }
      ],
      "name": "destinationRates",
      "outputs": [
        {
          "internalType": "uint256",
          "name": "",
          "type": "uint256"
        }
      ],
      "stateMutability": "view",
      "type": "function"
    },
    {
      "inputs": [
        {
          "internalType": "uint256",
          "name": "id",
          "type": "uint256"
        }
      ],
      "name": "getAlbumCheckIn",
      "outputs": [
        {
          "components": [
            {
              "internalType": "uint256",
              "name": "placeId",
              "type": "uint256"
            },
            {
              "internalType": "uint256",
              "name": "arrivalDate",
              "type": "uint256"
            },
            {
              "internalType": "string",
              "name": "review",
              "type": "string"
            },
            {
              "internalType": "uint256",
              "name": "rate",
              "type": "uint256"
            },
            {
              "internalType": "bool",
              "name": "isReview",
              "type": "bool"
            },
            {
              "internalType": "string",
              "name": "title",
              "type": "string"
            }
          ],
          "internalType": "struct TouristConTract.Journey[]",
          "name": "",
          "type": "tuple[]"
        }
      ],
      "stateMutability": "view",
      "type": "function"
    },
    {
      "inputs": [],
      "name": "getAllJourney",
      "outputs": [
        {
          "components": [
            {
              "internalType": "uint256",
              "name": "placeId",
              "type": "uint256"
            },
            {
              "internalType": "uint256",
              "name": "arrivalDate",
              "type": "uint256"
            },
            {
              "internalType": "string",
              "name": "review",
              "type": "string"
            },
            {
              "internalType": "uint256",
              "name": "rate",
              "type": "uint256"
            },
            {
              "internalType": "bool",
              "name": "isReview",
              "type": "bool"
            },
            {
              "internalType": "string",
              "name": "title",
              "type": "string"
            }
          ],
          "internalType": "struct TouristConTract.Journey[]",
          "name": "",
          "type": "tuple[]"
        }
      ],
      "stateMutability": "view",
      "type": "function"
    },
    {
      "inputs": [
        {
          "internalType": "uint256",
          "name": "placeid",
          "type": "uint256"
        }
      ],
      "name": "getAllRates",
      "outputs": [
        {
          "internalType": "uint256[]",
          "name": "",
          "type": "uint256[]"
        }
      ],
      "stateMutability": "view",
      "type": "function"
    },
    {
      "inputs": [
        {
          "internalType": "address",
          "name": "add",
          "type": "address"
        }
      ],
      "name": "getBalance",
      "outputs": [
        {
          "internalType": "uint256",
          "name": "",
          "type": "uint256"
        }
      ],
      "stateMutability": "view",
      "type": "function"
    },
    {
      "inputs": [
        {
          "internalType": "bytes32",
          "name": "_messageHash",
          "type": "bytes32"
        }
      ],
      "name": "getEthSignedMessageHash",
      "outputs": [
        {
          "internalType": "bytes32",
          "name": "",
          "type": "bytes32"
        }
      ],
      "stateMutability": "pure",
      "type": "function"
    },
    {
      "inputs": [
        {
          "internalType": "uint256[]",
          "name": "timestamp",
          "type": "uint256[]"
        }
      ],
      "name": "getJourneyWithTime",
      "outputs": [
        {
          "components": [
            {
              "internalType": "uint256",
              "name": "placeId",
              "type": "uint256"
            },
            {
              "internalType": "uint256",
              "name": "arrivalDate",
              "type": "uint256"
            },
            {
              "internalType": "string",
              "name": "review",
              "type": "string"
            },
            {
              "internalType": "uint256",
              "name": "rate",
              "type": "uint256"
            },
            {
              "internalType": "bool",
              "name": "isReview",
              "type": "bool"
            },
            {
              "internalType": "string",
              "name": "title",
              "type": "string"
            }
          ],
          "internalType": "struct TouristConTract.Journey[]",
          "name": "",
          "type": "tuple[]"
        }
      ],
      "stateMutability": "view",
      "type": "function"
    },
    {
      "inputs": [
        {
          "internalType": "address",
          "name": "_to",
          "type": "address"
        },
        {
          "internalType": "uint256",
          "name": "_amount",
          "type": "uint256"
        },
        {
          "internalType": "string",
          "name": "_message",
          "type": "string"
        },
        {
          "internalType": "uint256",
          "name": "_nonce",
          "type": "uint256"
        }
      ],
      "name": "getMessageHash",
      "outputs": [
        {
          "internalType": "bytes32",
          "name": "",
          "type": "bytes32"
        }
      ],
      "stateMutability": "pure",
      "type": "function"
    },
    {
      "inputs": [
        {
          "internalType": "uint256",
          "name": "placeid",
          "type": "uint256"
        }
      ],
      "name": "getReviewsInPlace",
      "outputs": [
        {
          "components": [
            {
              "internalType": "uint256",
              "name": "placeId",
              "type": "uint256"
            },
            {
              "internalType": "uint256",
              "name": "arrivalDate",
              "type": "uint256"
            },
            {
              "internalType": "string",
              "name": "review",
              "type": "string"
            },
            {
              "internalType": "uint256",
              "name": "rate",
              "type": "uint256"
            },
            {
              "internalType": "bool",
              "name": "isReview",
              "type": "bool"
            },
            {
              "internalType": "string",
              "name": "title",
              "type": "string"
            }
          ],
          "internalType": "struct TouristConTract.Journey[]",
          "name": "",
          "type": "tuple[]"
        }
      ],
      "stateMutability": "view",
      "type": "function"
    },
    {
      "inputs": [
        {
          "internalType": "address",
          "name": "userAddress",
          "type": "address"
        },
        {
          "internalType": "uint256",
          "name": "role",
          "type": "uint256"
        }
      ],
      "name": "grantRole",
      "outputs": [],
      "stateMutability": "nonpayable",
      "type": "function"
    },
    {
      "inputs": [
        {
          "internalType": "address",
          "name": "spender",
          "type": "address"
        },
        {
          "internalType": "uint256",
          "name": "addedValue",
          "type": "uint256"
        }
      ],
      "name": "increaseAllowance",
      "outputs": [
        {
          "internalType": "bool",
          "name": "",
          "type": "bool"
        }
      ],
      "stateMutability": "nonpayable",
      "type": "function"
    },
    {
      "inputs": [],
      "name": "name",
      "outputs": [
        {
          "internalType": "string",
          "name": "",
          "type": "string"
        }
      ],
      "stateMutability": "view",
      "type": "function"
    },
    {
      "inputs": [
        {
          "internalType": "uint256",
          "name": "",
          "type": "uint256"
        }
      ],
      "name": "noPeopleCheckIn",
      "outputs": [
        {
          "internalType": "uint256",
          "name": "",
          "type": "uint256"
        }
      ],
      "stateMutability": "view",
      "type": "function"
    },
    {
      "inputs": [
        {
          "internalType": "uint256",
          "name": "",
          "type": "uint256"
        }
      ],
      "name": "noPeopleRate",
      "outputs": [
        {
          "internalType": "uint256",
          "name": "",
          "type": "uint256"
        }
      ],
      "stateMutability": "view",
      "type": "function"
    },
    {
      "inputs": [
        {
          "internalType": "bytes32",
          "name": "_ethSignedMessageHash",
          "type": "bytes32"
        },
        {
          "internalType": "bytes",
          "name": "_signature",
          "type": "bytes"
        }
      ],
      "name": "recoverSigner",
      "outputs": [
        {
          "internalType": "address",
          "name": "",
          "type": "address"
        }
      ],
      "stateMutability": "pure",
      "type": "function"
    },
    {
      "inputs": [
        {
          "internalType": "string",
          "name": "name",
          "type": "string"
        },
        {
          "internalType": "uint256",
          "name": "age",
          "type": "uint256"
        }
      ],
      "name": "register",
      "outputs": [],
      "stateMutability": "nonpayable",
      "type": "function"
    },
    {
      "inputs": [
        {
          "internalType": "uint256",
          "name": "placeId",
          "type": "uint256"
        },
        {
          "internalType": "uint256",
          "name": "arrDate",
          "type": "uint256"
        },
        {
          "internalType": "string",
          "name": "comment",
          "type": "string"
        },
        {
          "internalType": "uint256",
          "name": "rate",
          "type": "uint256"
        },
        {
          "internalType": "string",
          "name": "title",
          "type": "string"
        }
      ],
      "name": "review",
      "outputs": [],
      "stateMutability": "nonpayable",
      "type": "function"
    },
    {
      "inputs": [
        {
          "internalType": "bytes",
          "name": "sig",
          "type": "bytes"
        }
      ],
      "name": "splitSignature",
      "outputs": [
        {
          "internalType": "bytes32",
          "name": "r",
          "type": "bytes32"
        },
        {
          "internalType": "bytes32",
          "name": "s",
          "type": "bytes32"
        },
        {
          "internalType": "uint8",
          "name": "v",
          "type": "uint8"
        }
      ],
      "stateMutability": "pure",
      "type": "function"
    },
    {
      "inputs": [],
      "name": "symbol",
      "outputs": [
        {
          "internalType": "string",
          "name": "",
          "type": "string"
        }
      ],
      "stateMutability": "view",
      "type": "function"
    },
    {
      "inputs": [],
      "name": "totalSupply",
      "outputs": [
        {
          "internalType": "uint256",
          "name": "",
          "type": "uint256"
        }
      ],
      "stateMutability": "view",
      "type": "function"
    },
    {
      "inputs": [
        {
          "internalType": "address",
          "name": "",
          "type": "address"
        },
        {
          "internalType": "uint256",
          "name": "",
          "type": "uint256"
        }
      ],
      "name": "touristAlbums",
      "outputs": [
        {
          "internalType": "uint256",
          "name": "id",
          "type": "uint256"
        },
        {
          "internalType": "string",
          "name": "name",
          "type": "string"
        }
      ],
      "stateMutability": "view",
      "type": "function"
    },
    {
      "inputs": [
        {
          "internalType": "address",
          "name": "",
          "type": "address"
        }
      ],
      "name": "touristIdentify",
      "outputs": [
        {
          "internalType": "string",
          "name": "name",
          "type": "string"
        },
        {
          "internalType": "uint256",
          "name": "age",
          "type": "uint256"
        },
        {
          "internalType": "bool",
          "name": "signup",
          "type": "bool"
        },
        {
          "internalType": "address",
          "name": "touristAddress",
          "type": "address"
        }
      ],
      "stateMutability": "view",
      "type": "function"
    },
    {
      "inputs": [
        {
          "internalType": "address",
          "name": "",
          "type": "address"
        },
        {
          "internalType": "uint256",
          "name": "",
          "type": "uint256"
        }
      ],
      "name": "touristJourneys",
      "outputs": [
        {
          "internalType": "uint256",
          "name": "placeId",
          "type": "uint256"
        },
        {
          "internalType": "uint256",
          "name": "arrivalDate",
          "type": "uint256"
        },
        {
          "internalType": "string",
          "name": "review",
          "type": "string"
        },
        {
          "internalType": "uint256",
          "name": "rate",
          "type": "uint256"
        },
        {
          "internalType": "bool",
          "name": "isReview",
          "type": "bool"
        },
        {
          "internalType": "string",
          "name": "title",
          "type": "string"
        }
      ],
      "stateMutability": "view",
      "type": "function"
    },
    {
      "inputs": [
        {
          "internalType": "address",
          "name": "to",
          "type": "address"
        },
        {
          "internalType": "uint256",
          "name": "amount",
          "type": "uint256"
        }
      ],
      "name": "transfer",
      "outputs": [
        {
          "internalType": "bool",
          "name": "",
          "type": "bool"
        }
      ],
      "stateMutability": "nonpayable",
      "type": "function"
    },
    {
      "inputs": [
        {
          "internalType": "address",
          "name": "from",
          "type": "address"
        },
        {
          "internalType": "address",
          "name": "to",
          "type": "address"
        },
        {
          "internalType": "uint256",
          "name": "amount",
          "type": "uint256"
        }
      ],
      "name": "transferFrom",
      "outputs": [
        {
          "internalType": "bool",
          "name": "",
          "type": "bool"
        }
      ],
      "stateMutability": "nonpayable",
      "type": "function"
    },
    {
      "inputs": [
        {
          "internalType": "uint256",
          "name": "id",
          "type": "uint256"
        }
      ],
      "name": "validAddIDTicket",
      "outputs": [
        {
          "internalType": "bool",
          "name": "",
          "type": "bool"
        }
      ],
      "stateMutability": "view",
      "type": "function"
    },
    {
      "inputs": [
        {
          "internalType": "address",
          "name": "_signer",
          "type": "address"
        },
        {
          "internalType": "address",
          "name": "_to",
          "type": "address"
        },
        {
          "internalType": "uint256",
          "name": "_amount",
          "type": "uint256"
        },
        {
          "internalType": "string",
          "name": "_message",
          "type": "string"
        },
        {
          "internalType": "uint256",
          "name": "_nonce",
          "type": "uint256"
        },
        {
          "internalType": "bytes",
          "name": "signature",
          "type": "bytes"
        }
      ],
      "name": "verify",
      "outputs": [
        {
          "internalType": "bool",
          "name": "",
          "type": "bool"
        }
      ],
      "stateMutability": "pure",
      "type": "function"
    }
  ],
  "bytecode": "0x60806040523480156200001157600080fd5b506040518060400160405280600781526020017f4443546f6b656e000000000000000000000000000000000000000000000000008152506040518060400160405280600281526020017f587500000000000000000000000000000000000000000000000000000000000081525081600390816200008f919062000c88565b508060049081620000a1919062000c88565b50505060096040518060400160405280600181526020016000151581525090806001815401808255809150506001900390600052602060002090600202016000909190919091506000820151816000015560208201518160010160006101000a81548160ff021916908315150217905550505060096040518060400160405280600281526020016000151581525090806001815401808255809150506001900390600052602060002090600202016000909190919091506000820151816000015560208201518160010160006101000a81548160ff021916908315150217905550505060096040518060400160405280600381526020016000151581525090806001815401808255809150506001900390600052602060002090600202016000909190919091506000820151816000015560208201518160010160006101000a81548160ff021916908315150217905550505060096040518060400160405280600481526020016000151581525090806001815401808255809150506001900390600052602060002090600202016000909190919091506000820151816000015560208201518160010160006101000a81548160ff021916908315150217905550505060096040518060400160405280600581526020016000151581525090806001815401808255809150506001900390600052602060002090600202016000909190919091506000820151816000015560208201518160010160006101000a81548160ff021916908315150217905550505060096040518060400160405280600681526020016000151581525090806001815401808255809150506001900390600052602060002090600202016000909190919091506000820151816000015560208201518160010160006101000a81548160ff021916908315150217905550505060096040518060400160405280600781526020016000151581525090806001815401808255809150506001900390600052602060002090600202016000909190919091506000820151816000015560208201518160010160006101000a81548160ff021916908315150217905550505060096040518060400160405280600881526020016000151581525090806001815401808255809150506001900390600052602060002090600202016000909190919091506000820151816000015560208201518160010160006101000a81548160ff021916908315150217905550505060096040518060400160405280600981526020016000151581525090806001815401808255809150506001900390600052602060002090600202016000909190919091506000820151816000015560208201518160010160006101000a81548160ff021916908315150217905550505060096040518060400160405280600a81526020016000151581525090806001815401808255809150506001900390600052602060002090600202016000909190919091506000820151816000015560208201518160010160006101000a81548160ff021916908315150217905550505060096040518060400160405280600b81526020016000151581525090806001815401808255809150506001900390600052602060002090600202016000909190919091506000820151816000015560208201518160010160006101000a81548160ff021916908315150217905550505060096040518060400160405280600c81526020016000151581525090806001815401808255809150506001900390600052602060002090600202016000909190919091506000820151816000015560208201518160010160006101000a81548160ff021916908315150217905550505060096040518060400160405280600d81526020016000151581525090806001815401808255809150506001900390600052602060002090600202016000909190919091506000820151816000015560208201518160010160006101000a81548160ff021916908315150217905550505060096040518060400160405280600e81526020016000151581525090806001815401808255809150506001900390600052602060002090600202016000909190919091506000820151816000015560208201518160010160006101000a81548160ff021916908315150217905550505060096040518060400160405280600f81526020016000151581525090806001815401808255809150506001900390600052602060002090600202016000909190919091506000820151816000015560208201518160010160006101000a81548160ff021916908315150217905550505060096040518060400160405280601081526020016000151581525090806001815401808255809150506001900390600052602060002090600202016000909190919091506000820151816000015560208201518160010160006101000a81548160ff021916908315150217905550505060096040518060400160405280601181526020016000151581525090806001815401808255809150506001900390600052602060002090600202016000909190919091506000820151816000015560208201518160010160006101000a81548160ff021916908315150217905550505060096040518060400160405280601281526020016000151581525090806001815401808255809150506001900390600052602060002090600202016000909190919091506000820151816000015560208201518160010160006101000a81548160ff021916908315150217905550505060096040518060400160405280601381526020016000151581525090806001815401808255809150506001900390600052602060002090600202016000909190919091506000820151816000015560208201518160010160006101000a81548160ff021916908315150217905550505060096040518060400160405280601481526020016000151581525090806001815401808255809150506001900390600052602060002090600202016000909190919091506000820151816000015560208201518160010160006101000a81548160ff02191690831515021790555050506006339080600181540180825580915050600190039060005260206000200160009091909190916101000a81548173ffffffffffffffffffffffffffffffffffffffff021916908373ffffffffffffffffffffffffffffffffffffffff16021790555033600560006101000a81548173ffffffffffffffffffffffffffffffffffffffff021916908373ffffffffffffffffffffffffffffffffffffffff16021790555062000d6f565b600081519050919050565b7f4e487b7100000000000000000000000000000000000000000000000000000000600052604160045260246000fd5b7f4e487b7100000000000000000000000000000000000000000000000000000000600052602260045260246000fd5b6000600282049050600182168062000a9057607f821691505b60208210810362000aa65762000aa562000a48565b5b50919050565b60008190508160005260206000209050919050565b60006020601f8301049050919050565b600082821b905092915050565b60006008830262000b107fffffffffffffffffffffffffffffffffffffffffffffffffffffffffffffffff8262000ad1565b62000b1c868362000ad1565b95508019841693508086168417925050509392505050565b6000819050919050565b6000819050919050565b600062000b6962000b6362000b5d8462000b34565b62000b3e565b62000b34565b9050919050565b6000819050919050565b62000b858362000b48565b62000b9d62000b948262000b70565b84845462000ade565b825550505050565b600090565b62000bb462000ba5565b62000bc181848462000b7a565b505050565b5b8181101562000be95762000bdd60008262000baa565b60018101905062000bc7565b5050565b601f82111562000c385762000c028162000aac565b62000c0d8462000ac1565b8101602085101562000c1d578190505b62000c3562000c2c8562000ac1565b83018262000bc6565b50505b505050565b600082821c905092915050565b600062000c5d6000198460080262000c3d565b1980831691505092915050565b600062000c78838362000c4a565b9150826002028217905092915050565b62000c938262000a0e565b67ffffffffffffffff81111562000caf5762000cae62000a19565b5b62000cbb825462000a77565b62000cc882828562000bed565b600060209050601f83116001811462000d00576000841562000ceb578287015190505b62000cf7858262000c6a565b86555062000d67565b601f19841662000d108662000aac565b60005b8281101562000d3a5784890151825560018201915060208501945060208101905062000d13565b8683101562000d5a578489015162000d56601f89168262000c4a565b8355505b6001600288020188555050505b505050505050565b61599e8062000d7f6000396000f3fe608060405234801561001057600080fd5b50600436106102485760003560e01c806397aba7f91161013b578063b9c3b1b9116100b8578063f2fa49b41161007c578063f2fa49b414610802578063f516f88e14610837578063f8b2cb4f14610853578063fa54080114610883578063fc0587f8146108b357610248565b8063b9c3b1b91461073a578063dd62ed3e1461076a578063ddb0225e1461079a578063ea87152b146107b6578063ebfbdec9146107d257610248565b8063a7bb5803116100ff578063a7bb580314610670578063a9059cbb146106a2578063abe5026a146106d2578063b216241514610702578063b42913191461071e57610248565b806397aba7f9146105805780639e26c494146105b05780639f7bdca1146105e0578063a35f8a4014610610578063a457c2d71461064057610248565b80633c09e2fd116101c957806370a082311161018d57806370a08231146104b6578063732a7c25146104e6578063789024221461050257806393f405211461053257806395d89b411461056257610248565b80633c09e2fd146103ea5780635cab0d00146104065780636012f3be146104365780636253366514610467578063701a0e0d1461049a57610248565b806323b872dd1161021057806323b872dd14610307578063285f293b14610337578063313ce56714610367578063374936821461038557806339509351146103ba57610248565b80630614dace1461024d57806306fdde031461027d578063095ea7b31461029b5780630f13090e146102cb57806318160ddd146102e9575b600080fd5b61026760048036038101906102629190613c1f565b6108e3565b6040516102749190613e63565b60405180910390f35b610285610c41565b6040516102929190613ecf565b60405180910390f35b6102b560048036038101906102b09190613f4f565b610cd3565b6040516102c29190613f9e565b60405180910390f35b6102d3610cf6565b6040516102e09190613e63565b60405180910390f35b6102f1610eef565b6040516102fe9190613fc8565b60405180910390f35b610321600480360381019061031c9190613fe3565b610ef9565b60405161032e9190613f9e565b60405180910390f35b610351600480360381019061034c9190614036565b610f28565b60405161035e9190613e63565b60405180910390f35b61036f611134565b60405161037c919061407f565b60405180910390f35b61039f600480360381019061039a9190613f4f565b61113d565b6040516103b19695949392919061409a565b60405180910390f35b6103d460048036038101906103cf9190613f4f565b6112b3565b6040516103e19190613f9e565b60405180910390f35b61040460048036038101906103ff9190613f4f565b6112ea565b005b610420600480360381019061041b9190614036565b6114f9565b60405161042d9190613fc8565b60405180910390f35b610450600480360381019061044b9190613f4f565b611511565b60405161045e929190614109565b60405180910390f35b610481600480360381019061047c9190614139565b6115da565b6040516104919493929190614175565b60405180910390f35b6104b460048036038101906104af91906141c1565b6116bf565b005b6104d060048036038101906104cb9190614139565b611b73565b6040516104dd9190613fc8565b60405180910390f35b61050060048036038101906104fb91906142c9565b611bbb565b005b61051c60048036038101906105179190614036565b611c97565b60405161052991906143d4565b60405180910390f35b61054c60048036038101906105479190614036565b611d02565b6040516105599190613f9e565b60405180910390f35b61056a611daa565b6040516105779190613ecf565b60405180910390f35b61059a600480360381019061059591906144cd565b611e3c565b6040516105a79190614529565b60405180910390f35b6105ca60048036038101906105c59190614036565b611eab565b6040516105d79190613f9e565b60405180910390f35b6105fa60048036038101906105f59190614036565b611f14565b6040516106079190613fc8565b60405180910390f35b61062a60048036038101906106259190614544565b611f2c565b60405161063791906145d6565b60405180910390f35b61065a60048036038101906106559190613f4f565b611f65565b6040516106679190613f9e565b60405180910390f35b61068a600480360381019061068591906145f1565b611fdc565b6040516106999392919061463a565b60405180910390f35b6106bc60048036038101906106b79190613f4f565b612044565b6040516106c99190613f9e565b60405180910390f35b6106ec60048036038101906106e79190614671565b612067565b6040516106f99190613f9e565b60405180910390f35b61071c60048036038101906107179190614736565b6120cb565b005b61073860048036038101906107339190614036565b61258e565b005b610754600480360381019061074f9190614815565b61272d565b6040516107619190613f9e565b60405180910390f35b610784600480360381019061077f919061487c565b612859565b6040516107919190613fc8565b60405180910390f35b6107b460048036038101906107af9190614671565b6128e0565b005b6107d060048036038101906107cb91906148bc565b612908565b005b6107ec60048036038101906107e79190614918565b612c01565b6040516107f99190613fc8565b60405180910390f35b61081c60048036038101906108179190614958565b612c32565b60405161082e9695949392919061409a565b60405180910390f35b610851600480360381019061084c9190614918565b612db5565b005b61086d60048036038101906108689190614139565b613046565b60405161087a9190613fc8565b60405180910390f35b61089d600480360381019061089891906149ab565b61304d565b6040516108aa91906145d6565b60405180910390f35b6108cd60048036038101906108c89190614036565b61307d565b6040516108da9190613e63565b60405180910390f35b60606000825167ffffffffffffffff81111561090257610901613aa6565b5b60405190808252806020026020018201604052801561093b57816020015b610928613a44565b8152602001906001900390816109205790505b5090506000805b8451811015610c365760005b600c60003373ffffffffffffffffffffffffffffffffffffffff1673ffffffffffffffffffffffffffffffffffffffff16815260200190815260200160002080549050811015610c2257600c60003373ffffffffffffffffffffffffffffffffffffffff1673ffffffffffffffffffffffffffffffffffffffff16815260200190815260200160002081815481106109e9576109e86149d8565b5b906000526020600020906006020160010154868381518110610a0e57610a0d6149d8565b5b602002602001015103610c0f57600c60003373ffffffffffffffffffffffffffffffffffffffff1673ffffffffffffffffffffffffffffffffffffffff1681526020019081526020016000208181548110610a6c57610a6b6149d8565b5b90600052602060002090600602016040518060c00160405290816000820154815260200160018201548152602001600282018054610aa990614a36565b80601f0160208091040260200160405190810160405280929190818152602001828054610ad590614a36565b8015610b225780601f10610af757610100808354040283529160200191610b22565b820191906000526020600020905b815481529060010190602001808311610b0557829003601f168201915b50505050508152602001600382015481526020016004820160009054906101000a900460ff16151515158152602001600582018054610b6090614a36565b80601f0160208091040260200160405190810160405280929190818152602001828054610b8c90614a36565b8015610bd95780601f10610bae57610100808354040283529160200191610bd9565b820191906000526020600020905b815481529060010190602001808311610bbc57829003601f168201915b505050505081525050848481518110610bf557610bf46149d8565b5b60200260200101819052508280610c0b90614a96565b9350505b8080610c1a90614a96565b91505061094e565b508080610c2e90614a96565b915050610942565b508192505050919050565b606060038054610c5090614a36565b80601f0160208091040260200160405190810160405280929190818152602001828054610c7c90614a36565b8015610cc95780601f10610c9e57610100808354040283529160200191610cc9565b820191906000526020600020905b815481529060010190602001808311610cac57829003601f168201915b5050505050905090565b600080610cde61324c565b9050610ceb818585613254565b600191505092915050565b6060600c60003373ffffffffffffffffffffffffffffffffffffffff1673ffffffffffffffffffffffffffffffffffffffff168152602001908152602001600020805480602002602001604051908101604052809291908181526020016000905b82821015610ee657838290600052602060002090600602016040518060c00160405290816000820154815260200160018201548152602001600282018054610d9e90614a36565b80601f0160208091040260200160405190810160405280929190818152602001828054610dca90614a36565b8015610e175780601f10610dec57610100808354040283529160200191610e17565b820191906000526020600020905b815481529060010190602001808311610dfa57829003601f168201915b50505050508152602001600382015481526020016004820160009054906101000a900460ff16151515158152602001600582018054610e5590614a36565b80601f0160208091040260200160405190810160405280929190818152602001828054610e8190614a36565b8015610ece5780601f10610ea357610100808354040283529160200191610ece565b820191906000526020600020905b815481529060010190602001808311610eb157829003601f168201915b50505050508152505081526020019060010190610d57565b50505050905090565b6000600254905090565b600080610f0461324c565b9050610f1185828561341d565b610f1c8585856134a9565b60019150509392505050565b6060600f60003373ffffffffffffffffffffffffffffffffffffffff1673ffffffffffffffffffffffffffffffffffffffff1681526020019081526020016000206000838152602001908152602001600020805480602002602001604051908101604052809291908181526020016000905b8282101561112957838290600052602060002090600602016040518060c00160405290816000820154815260200160018201548152602001600282018054610fe190614a36565b80601f016020809104026020016040519081016040528092919081815260200182805461100d90614a36565b801561105a5780601f1061102f5761010080835404028352916020019161105a565b820191906000526020600020905b81548152906001019060200180831161103d57829003601f168201915b50505050508152602001600382015481526020016004820160009054906101000a900460ff1615151515815260200160058201805461109890614a36565b80601f01602080910402602001604051908101604052809291908181526020018280546110c490614a36565b80156111115780601f106110e657610100808354040283529160200191611111565b820191906000526020600020905b8154815290600101906020018083116110f457829003601f168201915b50505050508152505081526020019060010190610f9a565b505050509050919050565b60006012905090565b600c602052816000526040600020818154811061115957600080fd5b90600052602060002090600602016000915091505080600001549080600101549080600201805461118990614a36565b80601f01602080910402602001604051908101604052809291908181526020018280546111b590614a36565b80156112025780601f106111d757610100808354040283529160200191611202565b820191906000526020600020905b8154815290600101906020018083116111e557829003601f168201915b5050505050908060030154908060040160009054906101000a900460ff169080600501805461123090614a36565b80601f016020809104026020016040519081016040528092919081815260200182805461125c90614a36565b80156112a95780601f1061127e576101008083540402835291602001916112a9565b820191906000526020600020905b81548152906001019060200180831161128c57829003601f168201915b5050505050905086565b6000806112be61324c565b90506112df8185856112d08589612859565b6112da9190614ade565b613254565b600191505092915050565b6000805b600680549050811015611386576006818154811061130f5761130e6149d8565b5b9060005260206000200160009054906101000a900473ffffffffffffffffffffffffffffffffffffffff1673ffffffffffffffffffffffffffffffffffffffff163373ffffffffffffffffffffffffffffffffffffffff16036113755760019150611386565b8061137f90614a96565b90506112ee565b5060011515811515146113ce576040517f08c379a00000000000000000000000000000000000000000000000000000000081526004016113c590614b84565b60405180910390fd5b60018214806113dd5750600282145b61141c576040517f08c379a000000000000000000000000000000000000000000000000000000000815260040161141390614c16565b60405180910390fd5b60018203611488576006839080600181540180825580915050600190039060005260206000200160009091909190916101000a81548173ffffffffffffffffffffffffffffffffffffffff021916908373ffffffffffffffffffffffffffffffffffffffff1602179055505b600282036114f4576007839080600181540180825580915050600190039060005260206000200160009091909190916101000a81548173ffffffffffffffffffffffffffffffffffffffff021916908373ffffffffffffffffffffffffffffffffffffffff1602179055505b505050565b60106020528060005260406000206000915090505481565b600e602052816000526040600020818154811061152d57600080fd5b90600052602060002090600202016000915091505080600001549080600101805461155790614a36565b80601f016020809104026020016040519081016040528092919081815260200182805461158390614a36565b80156115d05780601f106115a5576101008083540402835291602001916115d0565b820191906000526020600020905b8154815290600101906020018083116115b357829003601f168201915b5050505050905082565b600b6020528060005260406000206000915090508060000180546115fd90614a36565b80601f016020809104026020016040519081016040528092919081815260200182805461162990614a36565b80156116765780601f1061164b57610100808354040283529160200191611676565b820191906000526020600020905b81548152906001019060200180831161165957829003601f168201915b5050505050908060010154908060020160009054906101000a900460ff16908060020160019054906101000a900473ffffffffffffffffffffffffffffffffffffffff16905084565b60006116c9613a44565b60005b600c60003373ffffffffffffffffffffffffffffffffffffffff1673ffffffffffffffffffffffffffffffffffffffff16815260200190815260200160002080549050811015611aea57600c60003373ffffffffffffffffffffffffffffffffffffffff1673ffffffffffffffffffffffffffffffffffffffff1681526020019081526020016000208181548110611767576117666149d8565b5b906000526020600020906006020160000154861480156117e8575083600c60003373ffffffffffffffffffffffffffffffffffffffff1673ffffffffffffffffffffffffffffffffffffffff16815260200190815260200160002082815481106117d4576117d36149d8565b5b906000526020600020906006020160010154145b15611ad7576040518060c00160405280878152602001858152602001600c60003373ffffffffffffffffffffffffffffffffffffffff1673ffffffffffffffffffffffffffffffffffffffff1681526020019081526020016000208381548110611855576118546149d8565b5b9060005260206000209060060201600201805461187190614a36565b80601f016020809104026020016040519081016040528092919081815260200182805461189d90614a36565b80156118ea5780601f106118bf576101008083540402835291602001916118ea565b820191906000526020600020905b8154815290600101906020018083116118cd57829003601f168201915b50505050508152602001600c60003373ffffffffffffffffffffffffffffffffffffffff1673ffffffffffffffffffffffffffffffffffffffff1681526020019081526020016000208381548110611945576119446149d8565b5b9060005260206000209060060201600301548152602001600c60003373ffffffffffffffffffffffffffffffffffffffff1673ffffffffffffffffffffffffffffffffffffffff16815260200190815260200160002083815481106119ad576119ac6149d8565b5b906000526020600020906006020160040160009054906101000a900460ff1615158152602001604051806020016040528060008152508152509150600f60003373ffffffffffffffffffffffffffffffffffffffff1673ffffffffffffffffffffffffffffffffffffffff168152602001908152602001600020600086815260200190815260200160002082908060018154018082558091505060019003906000526020600020906006020160009091909190915060008201518160000155602082015181600101556040820151816002019081611a8b9190614de2565b506060820151816003015560808201518160040160006101000a81548160ff02191690831515021790555060a0820151816005019081611acb9190614de2565b50505060019250611aea565b8080611ae290614a96565b9150506116cc565b5081611b2b576040517f08c379a0000000000000000000000000000000000000000000000000000000008152600401611b2290614f00565b60405180910390fd5b7f6d832360504eb9202946c19cf927d8fd388a9e567a3f7d4bae3077f56ab6c1a1611b558561371f565b82604051611b64929190614fb0565b60405180910390a15050505050565b60008060008373ffffffffffffffffffffffffffffffffffffffff1673ffffffffffffffffffffffffffffffffffffffff168152602001908152602001600020549050919050565b600e60003373ffffffffffffffffffffffffffffffffffffffff1673ffffffffffffffffffffffffffffffffffffffff1681526020019081526020016000206040518060400160405280848152602001838152509080600181540180825580915050600190039060005260206000209060020201600090919091909150600082015181600001556020820151816001019081611c579190614de2565b5050507ff538047aa51f8b732c1850d69564ec0d033aca661921dba9871bf8feff7a435f8282604051611c8b929190614109565b60405180910390a15050565b606060126000838152602001908152602001600020805480602002602001604051908101604052809291908181526020018280548015611cf657602002820191906000526020600020905b815481526020019060010190808311611ce2575b50505050509050919050565b600080600090505b600980549050811015611d9f5760098181548110611d2b57611d2a6149d8565b5b9060005260206000209060020201600001548303611d8c576001151560098281548110611d5b57611d5a6149d8565b5b906000526020600020906002020160010160009054906101000a900460ff16151503611d8b576000915050611da5565b5b8080611d9790614a96565b915050611d0a565b50600190505b919050565b606060048054611db990614a36565b80601f0160208091040260200160405190810160405280929190818152602001828054611de590614a36565b8015611e325780601f10611e0757610100808354040283529160200191611e32565b820191906000526020600020905b815481529060010190602001808311611e1557829003601f168201915b5050505050905090565b600080600080611e4b85611fdc565b92509250925060018682858560405160008152602001604052604051611e749493929190614fe7565b6020604051602081039080840390855afa158015611e96573d6000803e3d6000fd5b50505060206040510351935050505092915050565b600080600090505b600980549050811015611f095760098181548110611ed457611ed36149d8565b5b9060005260206000209060020201600001548303611ef6576000915050611f0f565b8080611f0190614a96565b915050611eb3565b50600190505b919050565b60116020528060005260406000206000915090505481565b600084848484604051602001611f4594939291906150d1565b604051602081830303815290604052805190602001209050949350505050565b600080611f7061324c565b90506000611f7e8286612859565b905083811015611fc3576040517f08c379a0000000000000000000000000000000000000000000000000000000008152600401611fba9061518d565b60405180910390fd5b611fd08286868403613254565b60019250505092915050565b60008060006041845114612025576040517f08c379a000000000000000000000000000000000000000000000000000000000815260040161201c906151f9565b60405180910390fd5b6020840151925060408401519150606084015160001a90509193909250565b60008061204f61324c565b905061205c8185856134a9565b600191505092915050565b60008061207687878787611f2c565b905060006120838261304d565b90508873ffffffffffffffffffffffffffffffffffffffff166120a68286611e3c565b73ffffffffffffffffffffffffffffffffffffffff1614925050509695505050505050565b60005b600c60003373ffffffffffffffffffffffffffffffffffffffff1673ffffffffffffffffffffffffffffffffffffffff1681526020019081526020016000208054905081101561252357600c60003373ffffffffffffffffffffffffffffffffffffffff1673ffffffffffffffffffffffffffffffffffffffff1681526020019081526020016000208181548110612169576121686149d8565b5b90600052602060002090600602016001015485036125105760001515600c60003373ffffffffffffffffffffffffffffffffffffffff1673ffffffffffffffffffffffffffffffffffffffff16815260200190815260200160002082815481106121d6576121d56149d8565b5b906000526020600020906006020160040160009054906101000a900460ff16151514612237576040517f08c379a000000000000000000000000000000000000000000000000000000000815260040161222e90615265565b60405180910390fd5b83600c60003373ffffffffffffffffffffffffffffffffffffffff1673ffffffffffffffffffffffffffffffffffffffff1681526020019081526020016000208281548110612289576122886149d8565b5b906000526020600020906006020160020190816122a69190614de2565b5082600c60003373ffffffffffffffffffffffffffffffffffffffff1673ffffffffffffffffffffffffffffffffffffffff16815260200190815260200160002082815481106122f9576122f86149d8565b5b9060005260206000209060060201600301819055506001600c60003373ffffffffffffffffffffffffffffffffffffffff1673ffffffffffffffffffffffffffffffffffffffff1681526020019081526020016000208281548110612361576123606149d8565b5b906000526020600020906006020160040160006101000a81548160ff02191690831515021790555081600c60003373ffffffffffffffffffffffffffffffffffffffff1673ffffffffffffffffffffffffffffffffffffffff16815260200190815260200160002082815481106123db576123da6149d8565b5b906000526020600020906006020160050190816123f89190614de2565b5060136000878152602001908152602001600020600c60003373ffffffffffffffffffffffffffffffffffffffff1673ffffffffffffffffffffffffffffffffffffffff168152602001908152602001600020828154811061245d5761245c6149d8565b5b906000526020600020906006020190806001815401808255809150506001900390600052602060002090600602016000909190919091506000820154816000015560018201548160010155600282018160020190816124bc919061529b565b50600382015481600301556004820160009054906101000a900460ff168160040160006101000a81548160ff02191690831515021790555060058201816005019081612508919061529b565b505050612523565b808061251b90614a96565b9150506120ce565b506012600086815260200190815260200160002082908060018154018082558091505060019003906000526020600020016000909190919091505560116000868152602001908152602001600020600081548092919061258290614a96565b91905055505050505050565b6000805b60068054905081101561262a57600681815481106125b3576125b26149d8565b5b9060005260206000200160009054906101000a900473ffffffffffffffffffffffffffffffffffffffff1673ffffffffffffffffffffffffffffffffffffffff163373ffffffffffffffffffffffffffffffffffffffff1603612619576001915061262a565b8061262390614a96565b9050612592565b506001151581151514612672576040517f08c379a000000000000000000000000000000000000000000000000000000000815260040161266990614b84565b60405180910390fd5b61267b82611eab565b6126ba576040517f08c379a00000000000000000000000000000000000000000000000000000000081526004016126b1906153cf565b60405180910390fd5b600960405180604001604052808481526020016000151581525090806001815401808255809150506001900390600052602060002090600202016000909190919091506000820151816000015560208201518160010160006101000a81548160ff02191690831515021790555050505050565b6000806040518060400160405280601c81526020017f19457468657265756d205369676e6564204d6573736167653a0a33320000000081525090506000818760405160200161277d929190615457565b6040516020818303038152906040528051906020012090506000600182888888604051600081526020016040526040516127ba9493929190614fe7565b6020604051602081039080840390855afa1580156127dc573d6000803e3d6000fd5b505050602060405103519050600560009054906101000a900473ffffffffffffffffffffffffffffffffffffffff1673ffffffffffffffffffffffffffffffffffffffff168173ffffffffffffffffffffffffffffffffffffffff16036128495760019350505050612851565b600093505050505b949350505050565b6000600160008473ffffffffffffffffffffffffffffffffffffffff1673ffffffffffffffffffffffffffffffffffffffff16815260200190815260200160002060008373ffffffffffffffffffffffffffffffffffffffff1673ffffffffffffffffffffffffffffffffffffffff16815260200190815260200160002054905092915050565b6128ee868686868686612067565b15612900576128ff856103e86138e4565b5b505050505050565b600060405180608001604052808481526020018381526020016001151581526020013373ffffffffffffffffffffffffffffffffffffffff16815250905082600b60003373ffffffffffffffffffffffffffffffffffffffff1673ffffffffffffffffffffffffffffffffffffffff16815260200190815260200160002060000190816129959190614de2565b5081600b60003373ffffffffffffffffffffffffffffffffffffffff1673ffffffffffffffffffffffffffffffffffffffff1681526020019081526020016000206001018190555033600b60003373ffffffffffffffffffffffffffffffffffffffff1673ffffffffffffffffffffffffffffffffffffffff16815260200190815260200160002060020160016101000a81548173ffffffffffffffffffffffffffffffffffffffff021916908373ffffffffffffffffffffffffffffffffffffffff160217905550600b60003373ffffffffffffffffffffffffffffffffffffffff1673ffffffffffffffffffffffffffffffffffffffff16815260200190815260200160002060020160009054906101000a900460ff16612bc357600a8190806001815401808255809150506001900390600052602060002090600302016000909190919091506000820151816000019081612af39190614de2565b506020820151816001015560408201518160020160006101000a81548160ff02191690831515021790555060608201518160020160016101000a81548173ffffffffffffffffffffffffffffffffffffffff021916908373ffffffffffffffffffffffffffffffffffffffff16021790555050506001600b60003373ffffffffffffffffffffffffffffffffffffffff1673ffffffffffffffffffffffffffffffffffffffff16815260200190815260200160002060020160006101000a81548160ff0219169083151502179055505b7ff9aabaa28b0c7b9b6a80283c8b8fd6983df8e2c5703e65ee433dbbd7373062688383604051612bf492919061547f565b60405180910390a1505050565b60126020528160005260406000208181548110612c1d57600080fd5b90600052602060002001600091509150505481565b600f6020528260005260406000206020528160005260406000208181548110612c5a57600080fd5b90600052602060002090600602016000925092505050806000015490806001015490806002018054612c8b90614a36565b80601f0160208091040260200160405190810160405280929190818152602001828054612cb790614a36565b8015612d045780601f10612cd957610100808354040283529160200191612d04565b820191906000526020600020905b815481529060010190602001808311612ce757829003601f168201915b5050505050908060030154908060040160009054906101000a900460ff1690806005018054612d3290614a36565b80601f0160208091040260200160405190810160405280929190818152602001828054612d5e90614a36565b8015612dab5780601f10612d8057610100808354040283529160200191612dab565b820191906000526020600020905b815481529060010190602001808311612d8e57829003601f168201915b5050505050905086565b6000805b600980549050811015612ebb5760098181548110612dda57612dd96149d8565b5b9060005260206000209060020201600001548403612ea85760098181548110612e0657612e056149d8565b5b906000526020600020906002020160010160009054906101000a900460ff1615612e65576040517f08c379a0000000000000000000000000000000000000000000000000000000008152600401612e5c906154fb565b60405180910390fd5b60019150600160098281548110612e7f57612e7e6149d8565b5b906000526020600020906002020160010160006101000a81548160ff0219169083151502179055505b8080612eb390614a96565b915050612db9565b50601060008381526020019081526020016000206000815480929190612ee090614a96565b9190505550600c60003373ffffffffffffffffffffffffffffffffffffffff1673ffffffffffffffffffffffffffffffffffffffff1681526020019081526020016000206040518060c001604052808481526020014281526020016040518060200160405280600081525081526020016000815260200160001515815260200160405180602001604052806000815250815250908060018154018082558091505060019003906000526020600020906006020160009091909190915060008201518160000155602082015181600101556040820151816002019081612fc59190614de2565b506060820151816003015560808201518160040160006101000a81548160ff02191690831515021790555060a08201518160050190816130059190614de2565b5050507ff165997b5f1d2b5ae2f43279fc978111209309fd44e04343b1ffd71915e62ab5838360405161303992919061551b565b60405180910390a1505050565b6000919050565b6000816040516020016130609190615590565b604051602081830303815290604052805190602001209050919050565b606060136000838152602001908152602001600020805480602002602001604051908101604052809291908181526020016000905b8282101561324157838290600052602060002090600602016040518060c001604052908160008201548152602001600182015481526020016002820180546130f990614a36565b80601f016020809104026020016040519081016040528092919081815260200182805461312590614a36565b80156131725780601f1061314757610100808354040283529160200191613172565b820191906000526020600020905b81548152906001019060200180831161315557829003601f168201915b50505050508152602001600382015481526020016004820160009054906101000a900460ff161515151581526020016005820180546131b090614a36565b80601f01602080910402602001604051908101604052809291908181526020018280546131dc90614a36565b80156132295780601f106131fe57610100808354040283529160200191613229565b820191906000526020600020905b81548152906001019060200180831161320c57829003601f168201915b505050505081525050815260200190600101906130b2565b505050509050919050565b600033905090565b600073ffffffffffffffffffffffffffffffffffffffff168373ffffffffffffffffffffffffffffffffffffffff16036132c3576040517f08c379a00000000000000000000000000000000000000000000000000000000081526004016132ba90615628565b60405180910390fd5b600073ffffffffffffffffffffffffffffffffffffffff168273ffffffffffffffffffffffffffffffffffffffff1603613332576040517f08c379a0000000000000000000000000000000000000000000000000000000008152600401613329906156ba565b60405180910390fd5b80600160008573ffffffffffffffffffffffffffffffffffffffff1673ffffffffffffffffffffffffffffffffffffffff16815260200190815260200160002060008473ffffffffffffffffffffffffffffffffffffffff1673ffffffffffffffffffffffffffffffffffffffff168152602001908152602001600020819055508173ffffffffffffffffffffffffffffffffffffffff168373ffffffffffffffffffffffffffffffffffffffff167f8c5be1e5ebec7d5bd14f71427d1e84f3dd0314c0f7b2291e5b200ac8c7c3b925836040516134109190613fc8565b60405180910390a3505050565b60006134298484612859565b90507fffffffffffffffffffffffffffffffffffffffffffffffffffffffffffffffff81146134a35781811015613495576040517f08c379a000000000000000000000000000000000000000000000000000000000815260040161348c90615726565b60405180910390fd5b6134a28484848403613254565b5b50505050565b600073ffffffffffffffffffffffffffffffffffffffff168373ffffffffffffffffffffffffffffffffffffffff1603613518576040517f08c379a000000000000000000000000000000000000000000000000000000000815260040161350f906157b8565b60405180910390fd5b600073ffffffffffffffffffffffffffffffffffffffff168273ffffffffffffffffffffffffffffffffffffffff1603613587576040517f08c379a000000000000000000000000000000000000000000000000000000000815260040161357e9061584a565b60405180910390fd5b613592838383613a3a565b60008060008573ffffffffffffffffffffffffffffffffffffffff1673ffffffffffffffffffffffffffffffffffffffff16815260200190815260200160002054905081811015613618576040517f08c379a000000000000000000000000000000000000000000000000000000000815260040161360f906158dc565b60405180910390fd5b8181036000808673ffffffffffffffffffffffffffffffffffffffff1673ffffffffffffffffffffffffffffffffffffffff16815260200190815260200160002081905550816000808573ffffffffffffffffffffffffffffffffffffffff1673ffffffffffffffffffffffffffffffffffffffff168152602001908152602001600020600082825401925050819055508273ffffffffffffffffffffffffffffffffffffffff168473ffffffffffffffffffffffffffffffffffffffff167fddf252ad1be2c89b69c2b068fc378daa952ba7f163c4a11628f55a4df523b3ef846040516137069190613fc8565b60405180910390a3613719848484613a3f565b50505050565b606060005b600e60003373ffffffffffffffffffffffffffffffffffffffff1673ffffffffffffffffffffffffffffffffffffffff168152602001908152602001600020805490508110156138dd57600e60003373ffffffffffffffffffffffffffffffffffffffff1673ffffffffffffffffffffffffffffffffffffffff16815260200190815260200160002081815481106137bf576137be6149d8565b5b90600052602060002090600202016000015483036138ca57600e60003373ffffffffffffffffffffffffffffffffffffffff1673ffffffffffffffffffffffffffffffffffffffff1681526020019081526020016000208181548110613828576138276149d8565b5b9060005260206000209060020201600101805461384490614a36565b80601f016020809104026020016040519081016040528092919081815260200182805461387090614a36565b80156138bd5780601f10613892576101008083540402835291602001916138bd565b820191906000526020600020905b8154815290600101906020018083116138a057829003601f168201915b50505050509150506138df565b80806138d590614a96565b915050613724565b505b919050565b600073ffffffffffffffffffffffffffffffffffffffff168273ffffffffffffffffffffffffffffffffffffffff1603613953576040517f08c379a000000000000000000000000000000000000000000000000000000000815260040161394a90615948565b60405180910390fd5b61395f60008383613a3a565b80600260008282546139719190614ade565b92505081905550806000808473ffffffffffffffffffffffffffffffffffffffff1673ffffffffffffffffffffffffffffffffffffffff168152602001908152602001600020600082825401925050819055508173ffffffffffffffffffffffffffffffffffffffff16600073ffffffffffffffffffffffffffffffffffffffff167fddf252ad1be2c89b69c2b068fc378daa952ba7f163c4a11628f55a4df523b3ef83604051613a229190613fc8565b60405180910390a3613a3660008383613a3f565b5050565b505050565b505050565b6040518060c0016040528060008152602001600081526020016060815260200160008152602001600015158152602001606081525090565b6000604051905090565b600080fd5b600080fd5b600080fd5b6000601f19601f8301169050919050565b7f4e487b7100000000000000000000000000000000000000000000000000000000600052604160045260246000fd5b613ade82613a95565b810181811067ffffffffffffffff82111715613afd57613afc613aa6565b5b80604052505050565b6000613b10613a7c565b9050613b1c8282613ad5565b919050565b600067ffffffffffffffff821115613b3c57613b3b613aa6565b5b602082029050602081019050919050565b600080fd5b6000819050919050565b613b6581613b52565b8114613b7057600080fd5b50565b600081359050613b8281613b5c565b92915050565b6000613b9b613b9684613b21565b613b06565b90508083825260208201905060208402830185811115613bbe57613bbd613b4d565b5b835b81811015613be75780613bd38882613b73565b845260208401935050602081019050613bc0565b5050509392505050565b600082601f830112613c0657613c05613a90565b5b8135613c16848260208601613b88565b91505092915050565b600060208284031215613c3557613c34613a86565b5b600082013567ffffffffffffffff811115613c5357613c52613a8b565b5b613c5f84828501613bf1565b91505092915050565b600081519050919050565b600082825260208201905092915050565b6000819050602082019050919050565b613c9d81613b52565b82525050565b600081519050919050565b600082825260208201905092915050565b60005b83811015613cdd578082015181840152602081019050613cc2565b60008484015250505050565b6000613cf482613ca3565b613cfe8185613cae565b9350613d0e818560208601613cbf565b613d1781613a95565b840191505092915050565b60008115159050919050565b613d3781613d22565b82525050565b600060c083016000830151613d556000860182613c94565b506020830151613d686020860182613c94565b5060408301518482036040860152613d808282613ce9565b9150506060830151613d956060860182613c94565b506080830151613da86080860182613d2e565b5060a083015184820360a0860152613dc08282613ce9565b9150508091505092915050565b6000613dd98383613d3d565b905092915050565b6000602082019050919050565b6000613df982613c68565b613e038185613c73565b935083602082028501613e1585613c84565b8060005b85811015613e515784840389528151613e328582613dcd565b9450613e3d83613de1565b925060208a01995050600181019050613e19565b50829750879550505050505092915050565b60006020820190508181036000830152613e7d8184613dee565b905092915050565b600082825260208201905092915050565b6000613ea182613ca3565b613eab8185613e85565b9350613ebb818560208601613cbf565b613ec481613a95565b840191505092915050565b60006020820190508181036000830152613ee98184613e96565b905092915050565b600073ffffffffffffffffffffffffffffffffffffffff82169050919050565b6000613f1c82613ef1565b9050919050565b613f2c81613f11565b8114613f3757600080fd5b50565b600081359050613f4981613f23565b92915050565b60008060408385031215613f6657613f65613a86565b5b6000613f7485828601613f3a565b9250506020613f8585828601613b73565b9150509250929050565b613f9881613d22565b82525050565b6000602082019050613fb36000830184613f8f565b92915050565b613fc281613b52565b82525050565b6000602082019050613fdd6000830184613fb9565b92915050565b600080600060608486031215613ffc57613ffb613a86565b5b600061400a86828701613f3a565b935050602061401b86828701613f3a565b925050604061402c86828701613b73565b9150509250925092565b60006020828403121561404c5761404b613a86565b5b600061405a84828501613b73565b91505092915050565b600060ff82169050919050565b61407981614063565b82525050565b60006020820190506140946000830184614070565b92915050565b600060c0820190506140af6000830189613fb9565b6140bc6020830188613fb9565b81810360408301526140ce8187613e96565b90506140dd6060830186613fb9565b6140ea6080830185613f8f565b81810360a08301526140fc8184613e96565b9050979650505050505050565b600060408201905061411e6000830185613fb9565b81810360208301526141308184613e96565b90509392505050565b60006020828403121561414f5761414e613a86565b5b600061415d84828501613f3a565b91505092915050565b61416f81613f11565b82525050565b6000608082019050818103600083015261418f8187613e96565b905061419e6020830186613fb9565b6141ab6040830185613f8f565b6141b86060830184614166565b95945050505050565b6000806000606084860312156141da576141d9613a86565b5b60006141e886828701613b73565b93505060206141f986828701613b73565b925050604061420a86828701613b73565b9150509250925092565b600080fd5b600067ffffffffffffffff82111561423457614233613aa6565b5b61423d82613a95565b9050602081019050919050565b82818337600083830152505050565b600061426c61426784614219565b613b06565b90508281526020810184848401111561428857614287614214565b5b61429384828561424a565b509392505050565b600082601f8301126142b0576142af613a90565b5b81356142c0848260208601614259565b91505092915050565b600080604083850312156142e0576142df613a86565b5b60006142ee85828601613b73565b925050602083013567ffffffffffffffff81111561430f5761430e613a8b565b5b61431b8582860161429b565b9150509250929050565b600081519050919050565b600082825260208201905092915050565b6000819050602082019050919050565b600061435d8383613c94565b60208301905092915050565b6000602082019050919050565b600061438182614325565b61438b8185614330565b935061439683614341565b8060005b838110156143c75781516143ae8882614351565b97506143b983614369565b92505060018101905061439a565b5085935050505092915050565b600060208201905081810360008301526143ee8184614376565b905092915050565b6000819050919050565b614409816143f6565b811461441457600080fd5b50565b60008135905061442681614400565b92915050565b600067ffffffffffffffff82111561444757614446613aa6565b5b61445082613a95565b9050602081019050919050565b600061447061446b8461442c565b613b06565b90508281526020810184848401111561448c5761448b614214565b5b61449784828561424a565b509392505050565b600082601f8301126144b4576144b3613a90565b5b81356144c484826020860161445d565b91505092915050565b600080604083850312156144e4576144e3613a86565b5b60006144f285828601614417565b925050602083013567ffffffffffffffff81111561451357614512613a8b565b5b61451f8582860161449f565b9150509250929050565b600060208201905061453e6000830184614166565b92915050565b6000806000806080858703121561455e5761455d613a86565b5b600061456c87828801613f3a565b945050602061457d87828801613b73565b935050604085013567ffffffffffffffff81111561459e5761459d613a8b565b5b6145aa8782880161429b565b92505060606145bb87828801613b73565b91505092959194509250565b6145d0816143f6565b82525050565b60006020820190506145eb60008301846145c7565b92915050565b60006020828403121561460757614606613a86565b5b600082013567ffffffffffffffff81111561462557614624613a8b565b5b6146318482850161449f565b91505092915050565b600060608201905061464f60008301866145c7565b61465c60208301856145c7565b6146696040830184614070565b949350505050565b60008060008060008060c0878903121561468e5761468d613a86565b5b600061469c89828a01613f3a565b96505060206146ad89828a01613f3a565b95505060406146be89828a01613b73565b945050606087013567ffffffffffffffff8111156146df576146de613a8b565b5b6146eb89828a0161429b565b93505060806146fc89828a01613b73565b92505060a087013567ffffffffffffffff81111561471d5761471c613a8b565b5b61472989828a0161449f565b9150509295509295509295565b600080600080600060a0868803121561475257614751613a86565b5b600061476088828901613b73565b955050602061477188828901613b73565b945050604086013567ffffffffffffffff81111561479257614791613a8b565b5b61479e8882890161429b565b93505060606147af88828901613b73565b925050608086013567ffffffffffffffff8111156147d0576147cf613a8b565b5b6147dc8882890161429b565b9150509295509295909350565b6147f281614063565b81146147fd57600080fd5b50565b60008135905061480f816147e9565b92915050565b6000806000806080858703121561482f5761482e613a86565b5b600061483d87828801614417565b945050602061484e87828801614800565b935050604061485f87828801614417565b925050606061487087828801614417565b91505092959194509250565b6000806040838503121561489357614892613a86565b5b60006148a185828601613f3a565b92505060206148b285828601613f3a565b9150509250929050565b600080604083850312156148d3576148d2613a86565b5b600083013567ffffffffffffffff8111156148f1576148f0613a8b565b5b6148fd8582860161429b565b925050602061490e85828601613b73565b9150509250929050565b6000806040838503121561492f5761492e613a86565b5b600061493d85828601613b73565b925050602061494e85828601613b73565b9150509250929050565b60008060006060848603121561497157614970613a86565b5b600061497f86828701613f3a565b935050602061499086828701613b73565b92505060406149a186828701613b73565b9150509250925092565b6000602082840312156149c1576149c0613a86565b5b60006149cf84828501614417565b91505092915050565b7f4e487b7100000000000000000000000000000000000000000000000000000000600052603260045260246000fd5b7f4e487b7100000000000000000000000000000000000000000000000000000000600052602260045260246000fd5b60006002820490506001821680614a4e57607f821691505b602082108103614a6157614a60614a07565b5b50919050565b7f4e487b7100000000000000000000000000000000000000000000000000000000600052601160045260246000fd5b6000614aa182613b52565b91507fffffffffffffffffffffffffffffffffffffffffffffffffffffffffffffffff8203614ad357614ad2614a67565b5b600182019050919050565b6000614ae982613b52565b9150614af483613b52565b9250828201905080821115614b0c57614b0b614a67565b5b92915050565b7f4f6e6c792061646d696e2063616e2063616c6c20746869732066756e6374696f60008201527f6e00000000000000000000000000000000000000000000000000000000000000602082015250565b6000614b6e602183613e85565b9150614b7982614b12565b604082019050919050565b60006020820190508181036000830152614b9d81614b61565b9050919050565b7f496e76616c696420726f6c652c206f6e6c792061646d696e206f72207365727660008201527f696365207375697461626c652e00000000000000000000000000000000000000602082015250565b6000614c00602d83613e85565b9150614c0b82614ba4565b604082019050919050565b60006020820190508181036000830152614c2f81614bf3565b9050919050565b60008190508160005260206000209050919050565b60006020601f8301049050919050565b600082821b905092915050565b600060088302614c987fffffffffffffffffffffffffffffffffffffffffffffffffffffffffffffffff82614c5b565b614ca28683614c5b565b95508019841693508086168417925050509392505050565b6000819050919050565b6000614cdf614cda614cd584613b52565b614cba565b613b52565b9050919050565b6000819050919050565b614cf983614cc4565b614d0d614d0582614ce6565b848454614c68565b825550505050565b600090565b614d22614d15565b614d2d818484614cf0565b505050565b5b81811015614d5157614d46600082614d1a565b600181019050614d33565b5050565b601f821115614d9657614d6781614c36565b614d7084614c4b565b81016020851015614d7f578190505b614d93614d8b85614c4b565b830182614d32565b50505b505050565b600082821c905092915050565b6000614db960001984600802614d9b565b1980831691505092915050565b6000614dd28383614da8565b9150826002028217905092915050565b614deb82613ca3565b67ffffffffffffffff811115614e0457614e03613aa6565b5b614e0e8254614a36565b614e19828285614d55565b600060209050601f831160018114614e4c5760008415614e3a578287015190505b614e448582614dc6565b865550614eac565b601f198416614e5a86614c36565b60005b82811015614e8257848901518255600182019150602085019450602081019050614e5d565b86831015614e9f5784890151614e9b601f891682614da8565b8355505b6001600288020188555050505b505050505050565b7f546869732044657374696e6174696f6e20776173206e6f7420636865636b696e600082015250565b6000614eea602083613e85565b9150614ef582614eb4565b602082019050919050565b60006020820190508181036000830152614f1981614edd565b9050919050565b600060c083016000830151614f386000860182613c94565b506020830151614f4b6020860182613c94565b5060408301518482036040860152614f638282613ce9565b9150506060830151614f786060860182613c94565b506080830151614f8b6080860182613d2e565b5060a083015184820360a0860152614fa38282613ce9565b9150508091505092915050565b60006040820190508181036000830152614fca8185613e96565b90508181036020830152614fde8184614f20565b90509392505050565b6000608082019050614ffc60008301876145c7565b6150096020830186614070565b61501660408301856145c7565b61502360608301846145c7565b95945050505050565b60008160601b9050919050565b60006150448261502c565b9050919050565b600061505682615039565b9050919050565b61506e61506982613f11565b61504b565b82525050565b6000819050919050565b61508f61508a82613b52565b615074565b82525050565b600081905092915050565b60006150ab82613ca3565b6150b58185615095565b93506150c5818560208601613cbf565b80840191505092915050565b60006150dd828761505d565b6014820191506150ed828661507e565b6020820191506150fd82856150a0565b9150615109828461507e565b60208201915081905095945050505050565b7f45524332303a2064656372656173656420616c6c6f77616e63652062656c6f7760008201527f207a65726f000000000000000000000000000000000000000000000000000000602082015250565b6000615177602583613e85565b91506151828261511b565b604082019050919050565b600060208201905081810360008301526151a68161516a565b9050919050565b7f696e76616c6964207369676e6174757265206c656e6774680000000000000000600082015250565b60006151e3601883613e85565b91506151ee826151ad565b602082019050919050565b60006020820190508181036000830152615212816151d6565b9050919050565b7f596f7520686164206265656e2072657669657765642074686973207472697000600082015250565b600061524f601f83613e85565b915061525a82615219565b602082019050919050565b6000602082019050818103600083015261527e81615242565b9050919050565b60008154905061529481614a36565b9050919050565b8181036152a9575050615381565b6152b282615285565b67ffffffffffffffff8111156152cb576152ca613aa6565b5b6152d58254614a36565b6152e0828285614d55565b6000601f83116001811461530f57600084156152fd578287015490505b6153078582614dc6565b86555061537a565b601f19841661531d87614c36565b965061532886614c36565b60005b828110156153505784890154825560018201915060018501945060208101905061532b565b8683101561536d5784890154615369601f891682614da8565b8355505b6001600288020188555050505b5050505050505b565b7f5468697320494420616c72656164792065786973746564000000000000000000600082015250565b60006153b9601783613e85565b91506153c482615383565b602082019050919050565b600060208201905081810360008301526153e8816153ac565b9050919050565b600081519050919050565b600081905092915050565b6000615410826153ef565b61541a81856153fa565b935061542a818560208601613cbf565b80840191505092915050565b6000819050919050565b61545161544c826143f6565b615436565b82525050565b60006154638285615405565b915061546f8284615440565b6020820191508190509392505050565b600060408201905081810360008301526154998185613e96565b90506154a86020830184613fb9565b9392505050565b7f5469636b65742068617320757365640000000000000000000000000000000000600082015250565b60006154e5600f83613e85565b91506154f0826154af565b602082019050919050565b60006020820190508181036000830152615514816154d8565b9050919050565b60006040820190506155306000830185613fb9565b61553d6020830184613fb9565b9392505050565b7f19457468657265756d205369676e6564204d6573736167653a0a333200000000600082015250565b600061557a601c83615095565b915061558582615544565b601c82019050919050565b600061559b8261556d565b91506155a78284615440565b60208201915081905092915050565b7f45524332303a20617070726f76652066726f6d20746865207a65726f2061646460008201527f7265737300000000000000000000000000000000000000000000000000000000602082015250565b6000615612602483613e85565b915061561d826155b6565b604082019050919050565b6000602082019050818103600083015261564181615605565b9050919050565b7f45524332303a20617070726f766520746f20746865207a65726f20616464726560008201527f7373000000000000000000000000000000000000000000000000000000000000602082015250565b60006156a4602283613e85565b91506156af82615648565b604082019050919050565b600060208201905081810360008301526156d381615697565b9050919050565b7f45524332303a20696e73756666696369656e7420616c6c6f77616e6365000000600082015250565b6000615710601d83613e85565b915061571b826156da565b602082019050919050565b6000602082019050818103600083015261573f81615703565b9050919050565b7f45524332303a207472616e736665722066726f6d20746865207a65726f20616460008201527f6472657373000000000000000000000000000000000000000000000000000000602082015250565b60006157a2602583613e85565b91506157ad82615746565b604082019050919050565b600060208201905081810360008301526157d181615795565b9050919050565b7f45524332303a207472616e7366657220746f20746865207a65726f206164647260008201527f6573730000000000000000000000000000000000000000000000000000000000602082015250565b6000615834602383613e85565b915061583f826157d8565b604082019050919050565b6000602082019050818103600083015261586381615827565b9050919050565b7f45524332303a207472616e7366657220616d6f756e742065786365656473206260008201527f616c616e63650000000000000000000000000000000000000000000000000000602082015250565b60006158c6602683613e85565b91506158d18261586a565b604082019050919050565b600060208201905081810360008301526158f5816158b9565b9050919050565b7f45524332303a206d696e7420746f20746865207a65726f206164647265737300600082015250565b6000615932601f83613e85565b915061593d826158fc565b602082019050919050565b6000602082019050818103600083015261596181615925565b905091905056fea264697066735822122044b4de5983417ffd300bfcabd50a45652fa9c6f3a294ec9900e1b1e1384453d764736f6c63430008130033",
  "linkReferences": {},
  "deployedLinkReferences": {}
}