{
  "_format": "hh-sol-artifact-1",
  "contractName": "TouristConTract",
  "sourceName": "contracts/Tourism.sol",
  "abi": [
    {
      "inputs": [],
      "stateMutability": "nonpayable",
      "type": "constructor"
    },
    {
      "anonymous": false,
      "inputs": [
        {
          "indexed": false,
          "internalType": "string",
          "name": "AlbumName",
          "type": "string"
        },
        {
          "components": [
            {
              "internalType": "uint256",
              "name": "tripId",
              "type": "uint256"
            },
            {
              "internalType": "uint256",
              "name": "placeId",
              "type": "uint256"
            },
            {
              "internalType": "uint256",
              "name": "arrivalDate",
              "type": "uint256"
            },
            {
              "internalType": "string",
              "name": "review",
              "type": "string"
            },
            {
              "internalType": "uint256",
              "name": "rate",
              "type": "uint256"
            },
            {
              "internalType": "bool",
              "name": "isReview",
              "type": "bool"
            },
            {
              "internalType": "string",
              "name": "title",
              "type": "string"
            }
          ],
          "indexed": false,
          "internalType": "struct TouristConTract.Journey",
          "name": "journey",
          "type": "tuple"
        }
      ],
      "name": "AddJourneyInAlbum",
      "type": "event"
    },
    {
      "anonymous": false,
      "inputs": [
        {
          "indexed": false,
          "internalType": "string",
          "name": "name",
          "type": "string"
        },
        {
          "indexed": false,
          "internalType": "uint256",
          "name": "age",
          "type": "uint256"
        }
      ],
      "name": "AddTourist",
      "type": "event"
    },
    {
      "anonymous": false,
      "inputs": [
        {
          "indexed": true,
          "internalType": "address",
          "name": "owner",
          "type": "address"
        },
        {
          "indexed": true,
          "internalType": "address",
          "name": "spender",
          "type": "address"
        },
        {
          "indexed": false,
          "internalType": "uint256",
          "name": "value",
          "type": "uint256"
        }
      ],
      "name": "Approval",
      "type": "event"
    },
    {
      "anonymous": false,
      "inputs": [
        {
          "indexed": false,
          "internalType": "uint256",
          "name": "ticketId",
          "type": "uint256"
        },
        {
          "indexed": false,
          "internalType": "uint256",
          "name": "placeId",
          "type": "uint256"
        }
      ],
      "name": "CheckIn",
      "type": "event"
    },
    {
      "anonymous": false,
      "inputs": [
        {
          "indexed": false,
          "internalType": "uint256",
          "name": "_id",
          "type": "uint256"
        },
        {
          "indexed": false,
          "internalType": "string",
          "name": "_name",
          "type": "string"
        }
      ],
      "name": "CreateAlbum",
      "type": "event"
    },
    {
      "anonymous": false,
      "inputs": [
        {
          "indexed": true,
          "internalType": "address",
          "name": "from",
          "type": "address"
        },
        {
          "indexed": true,
          "internalType": "address",
          "name": "to",
          "type": "address"
        },
        {
          "indexed": false,
          "internalType": "uint256",
          "name": "value",
          "type": "uint256"
        }
      ],
      "name": "Transfer",
      "type": "event"
    },
    {
      "inputs": [
        {
          "internalType": "address",
          "name": "_signer",
          "type": "address"
        },
        {
          "internalType": "address",
          "name": "_to",
          "type": "address"
        },
        {
          "internalType": "uint256",
          "name": "_amount",
          "type": "uint256"
        },
        {
          "internalType": "string",
          "name": "_message",
          "type": "string"
        },
        {
          "internalType": "uint256",
          "name": "_nonce",
          "type": "uint256"
        },
        {
          "internalType": "bytes",
          "name": "signature",
          "type": "bytes"
        }
      ],
      "name": "_mintMinerReward",
      "outputs": [],
      "stateMutability": "nonpayable",
      "type": "function"
    },
    {
      "inputs": [
        {
          "internalType": "uint256",
          "name": "placeId",
          "type": "uint256"
        },
        {
          "internalType": "uint256",
          "name": "albumId",
          "type": "uint256"
        },
        {
          "internalType": "uint256",
          "name": "date",
          "type": "uint256"
        }
      ],
      "name": "addAlbumJourney",
      "outputs": [],
      "stateMutability": "nonpayable",
      "type": "function"
    },
    {
      "inputs": [
        {
          "internalType": "uint256",
          "name": "id",
          "type": "uint256"
        }
      ],
      "name": "addTicket",
      "outputs": [],
      "stateMutability": "nonpayable",
      "type": "function"
    },
    {
      "inputs": [
        {
          "internalType": "address",
          "name": "",
          "type": "address"
        },
        {
          "internalType": "uint256",
          "name": "",
          "type": "uint256"
        },
        {
          "internalType": "uint256",
          "name": "",
          "type": "uint256"
        }
      ],
      "name": "albumJourneys",
      "outputs": [
        {
          "internalType": "uint256",
          "name": "tripId",
          "type": "uint256"
        },
        {
          "internalType": "uint256",
          "name": "placeId",
          "type": "uint256"
        },
        {
          "internalType": "uint256",
          "name": "arrivalDate",
          "type": "uint256"
        },
        {
          "internalType": "string",
          "name": "review",
          "type": "string"
        },
        {
          "internalType": "uint256",
          "name": "rate",
          "type": "uint256"
        },
        {
          "internalType": "bool",
          "name": "isReview",
          "type": "bool"
        },
        {
          "internalType": "string",
          "name": "title",
          "type": "string"
        }
      ],
      "stateMutability": "view",
      "type": "function"
    },
    {
      "inputs": [
        {
          "internalType": "address",
          "name": "owner",
          "type": "address"
        },
        {
          "internalType": "address",
          "name": "spender",
          "type": "address"
        }
      ],
      "name": "allowance",
      "outputs": [
        {
          "internalType": "uint256",
          "name": "",
          "type": "uint256"
        }
      ],
      "stateMutability": "view",
      "type": "function"
    },
    {
      "inputs": [
        {
          "internalType": "address",
          "name": "spender",
          "type": "address"
        },
        {
          "internalType": "uint256",
          "name": "amount",
          "type": "uint256"
        }
      ],
      "name": "approve",
      "outputs": [
        {
          "internalType": "bool",
          "name": "",
          "type": "bool"
        }
      ],
      "stateMutability": "nonpayable",
      "type": "function"
    },
    {
      "inputs": [
        {
          "internalType": "address",
          "name": "account",
          "type": "address"
        }
      ],
      "name": "balanceOf",
      "outputs": [
        {
          "internalType": "uint256",
          "name": "",
          "type": "uint256"
        }
      ],
      "stateMutability": "view",
      "type": "function"
    },
    {
      "inputs": [
        {
          "internalType": "uint256",
          "name": "ticketID",
          "type": "uint256"
        },
        {
          "internalType": "uint256",
          "name": "placeID",
          "type": "uint256"
        }
      ],
      "name": "checkIn",
      "outputs": [],
      "stateMutability": "nonpayable",
      "type": "function"
    },
    {
      "inputs": [
        {
          "internalType": "uint256",
          "name": "ticketID",
          "type": "uint256"
        }
      ],
      "name": "checkValidTicket",
      "outputs": [
        {
          "internalType": "bool",
          "name": "",
          "type": "bool"
        }
      ],
      "stateMutability": "view",
      "type": "function"
    },
    {
      "inputs": [
        {
          "internalType": "bytes32",
          "name": "_hashedMessage",
          "type": "bytes32"
        },
        {
          "internalType": "uint8",
          "name": "_v",
          "type": "uint8"
        },
        {
          "internalType": "bytes32",
          "name": "_r",
          "type": "bytes32"
        },
        {
          "internalType": "bytes32",
          "name": "_s",
          "type": "bytes32"
        }
      ],
      "name": "claimPrize",
      "outputs": [
        {
          "internalType": "bool",
          "name": "",
          "type": "bool"
        }
      ],
      "stateMutability": "view",
      "type": "function"
    },
    {
      "inputs": [
        {
          "internalType": "uint256",
          "name": "_id",
          "type": "uint256"
        },
        {
          "internalType": "string",
          "name": "_name",
          "type": "string"
        }
      ],
      "name": "createAlbum",
      "outputs": [],
      "stateMutability": "nonpayable",
      "type": "function"
    },
    {
      "inputs": [],
      "name": "decimals",
      "outputs": [
        {
          "internalType": "uint8",
          "name": "",
          "type": "uint8"
        }
      ],
      "stateMutability": "view",
      "type": "function"
    },
    {
      "inputs": [
        {
          "internalType": "address",
          "name": "spender",
          "type": "address"
        },
        {
          "internalType": "uint256",
          "name": "subtractedValue",
          "type": "uint256"
        }
      ],
      "name": "decreaseAllowance",
      "outputs": [
        {
          "internalType": "bool",
          "name": "",
          "type": "bool"
        }
      ],
      "stateMutability": "nonpayable",
      "type": "function"
    },
    {
      "inputs": [
        {
          "internalType": "uint256",
          "name": "",
          "type": "uint256"
        },
        {
          "internalType": "uint256",
          "name": "",
          "type": "uint256"
        }
      ],
      "name": "destinationRates",
      "outputs": [
        {
          "internalType": "uint256",
          "name": "",
          "type": "uint256"
        }
      ],
      "stateMutability": "view",
      "type": "function"
    },
    {
      "inputs": [
        {
          "internalType": "uint256",
          "name": "id",
          "type": "uint256"
        }
      ],
      "name": "getAlbumCheckIn",
      "outputs": [
        {
          "components": [
            {
              "internalType": "uint256",
              "name": "tripId",
              "type": "uint256"
            },
            {
              "internalType": "uint256",
              "name": "placeId",
              "type": "uint256"
            },
            {
              "internalType": "uint256",
              "name": "arrivalDate",
              "type": "uint256"
            },
            {
              "internalType": "string",
              "name": "review",
              "type": "string"
            },
            {
              "internalType": "uint256",
              "name": "rate",
              "type": "uint256"
            },
            {
              "internalType": "bool",
              "name": "isReview",
              "type": "bool"
            },
            {
              "internalType": "string",
              "name": "title",
              "type": "string"
            }
          ],
          "internalType": "struct TouristConTract.Journey[]",
          "name": "",
          "type": "tuple[]"
        }
      ],
      "stateMutability": "view",
      "type": "function"
    },
    {
      "inputs": [],
      "name": "getAllJourney",
      "outputs": [
        {
          "components": [
            {
              "internalType": "uint256",
              "name": "tripId",
              "type": "uint256"
            },
            {
              "internalType": "uint256",
              "name": "placeId",
              "type": "uint256"
            },
            {
              "internalType": "uint256",
              "name": "arrivalDate",
              "type": "uint256"
            },
            {
              "internalType": "string",
              "name": "review",
              "type": "string"
            },
            {
              "internalType": "uint256",
              "name": "rate",
              "type": "uint256"
            },
            {
              "internalType": "bool",
              "name": "isReview",
              "type": "bool"
            },
            {
              "internalType": "string",
              "name": "title",
              "type": "string"
            }
          ],
          "internalType": "struct TouristConTract.Journey[]",
          "name": "",
          "type": "tuple[]"
        }
      ],
      "stateMutability": "view",
      "type": "function"
    },
    {
      "inputs": [
        {
          "internalType": "uint256",
          "name": "placeid",
          "type": "uint256"
        }
      ],
      "name": "getAllRates",
      "outputs": [
        {
          "internalType": "uint256[]",
          "name": "",
          "type": "uint256[]"
        }
      ],
      "stateMutability": "view",
      "type": "function"
    },
    {
      "inputs": [
        {
          "internalType": "address",
          "name": "add",
          "type": "address"
        }
      ],
      "name": "getBalance",
      "outputs": [
        {
          "internalType": "uint256",
          "name": "",
          "type": "uint256"
        }
      ],
      "stateMutability": "view",
      "type": "function"
    },
    {
      "inputs": [
        {
          "internalType": "bytes32",
          "name": "_messageHash",
          "type": "bytes32"
        }
      ],
      "name": "getEthSignedMessageHash",
      "outputs": [
        {
          "internalType": "bytes32",
          "name": "",
          "type": "bytes32"
        }
      ],
      "stateMutability": "pure",
      "type": "function"
    },
    {
      "inputs": [
        {
          "internalType": "uint256[]",
          "name": "idTrip",
          "type": "uint256[]"
        }
      ],
      "name": "getJourneyWithID",
      "outputs": [
        {
          "components": [
            {
              "internalType": "uint256",
              "name": "tripId",
              "type": "uint256"
            },
            {
              "internalType": "uint256",
              "name": "placeId",
              "type": "uint256"
            },
            {
              "internalType": "uint256",
              "name": "arrivalDate",
              "type": "uint256"
            },
            {
              "internalType": "string",
              "name": "review",
              "type": "string"
            },
            {
              "internalType": "uint256",
              "name": "rate",
              "type": "uint256"
            },
            {
              "internalType": "bool",
              "name": "isReview",
              "type": "bool"
            },
            {
              "internalType": "string",
              "name": "title",
              "type": "string"
            }
          ],
          "internalType": "struct TouristConTract.Journey[]",
          "name": "",
          "type": "tuple[]"
        }
      ],
      "stateMutability": "view",
      "type": "function"
    },
    {
      "inputs": [
        {
          "internalType": "address",
          "name": "_to",
          "type": "address"
        },
        {
          "internalType": "uint256",
          "name": "_amount",
          "type": "uint256"
        },
        {
          "internalType": "string",
          "name": "_message",
          "type": "string"
        },
        {
          "internalType": "uint256",
          "name": "_nonce",
          "type": "uint256"
        }
      ],
      "name": "getMessageHash",
      "outputs": [
        {
          "internalType": "bytes32",
          "name": "",
          "type": "bytes32"
        }
      ],
      "stateMutability": "pure",
      "type": "function"
    },
    {
      "inputs": [
        {
          "internalType": "uint256",
          "name": "placeid",
          "type": "uint256"
        }
      ],
      "name": "getReviewsInPlace",
      "outputs": [
        {
          "components": [
            {
              "internalType": "uint256",
              "name": "tripId",
              "type": "uint256"
            },
            {
              "internalType": "uint256",
              "name": "placeId",
              "type": "uint256"
            },
            {
              "internalType": "uint256",
              "name": "arrivalDate",
              "type": "uint256"
            },
            {
              "internalType": "string",
              "name": "review",
              "type": "string"
            },
            {
              "internalType": "uint256",
              "name": "rate",
              "type": "uint256"
            },
            {
              "internalType": "bool",
              "name": "isReview",
              "type": "bool"
            },
            {
              "internalType": "string",
              "name": "title",
              "type": "string"
            }
          ],
          "internalType": "struct TouristConTract.Journey[]",
          "name": "",
          "type": "tuple[]"
        }
      ],
      "stateMutability": "view",
      "type": "function"
    },
    {
      "inputs": [
        {
          "internalType": "address",
          "name": "userAddress",
          "type": "address"
        },
        {
          "internalType": "uint256",
          "name": "role",
          "type": "uint256"
        }
      ],
      "name": "grantRole",
      "outputs": [],
      "stateMutability": "nonpayable",
      "type": "function"
    },
    {
      "inputs": [
        {
          "internalType": "address",
          "name": "spender",
          "type": "address"
        },
        {
          "internalType": "uint256",
          "name": "addedValue",
          "type": "uint256"
        }
      ],
      "name": "increaseAllowance",
      "outputs": [
        {
          "internalType": "bool",
          "name": "",
          "type": "bool"
        }
      ],
      "stateMutability": "nonpayable",
      "type": "function"
    },
    {
      "inputs": [],
      "name": "name",
      "outputs": [
        {
          "internalType": "string",
          "name": "",
          "type": "string"
        }
      ],
      "stateMutability": "view",
      "type": "function"
    },
    {
      "inputs": [
        {
          "internalType": "uint256",
          "name": "",
          "type": "uint256"
        }
      ],
      "name": "noPeopleCheckIn",
      "outputs": [
        {
          "internalType": "uint256",
          "name": "",
          "type": "uint256"
        }
      ],
      "stateMutability": "view",
      "type": "function"
    },
    {
      "inputs": [
        {
          "internalType": "uint256",
          "name": "",
          "type": "uint256"
        }
      ],
      "name": "noPeopleRate",
      "outputs": [
        {
          "internalType": "uint256",
          "name": "",
          "type": "uint256"
        }
      ],
      "stateMutability": "view",
      "type": "function"
    },
    {
      "inputs": [
        {
          "internalType": "bytes32",
          "name": "_ethSignedMessageHash",
          "type": "bytes32"
        },
        {
          "internalType": "bytes",
          "name": "_signature",
          "type": "bytes"
        }
      ],
      "name": "recoverSigner",
      "outputs": [
        {
          "internalType": "address",
          "name": "",
          "type": "address"
        }
      ],
      "stateMutability": "pure",
      "type": "function"
    },
    {
      "inputs": [
        {
          "internalType": "string",
          "name": "name",
          "type": "string"
        },
        {
          "internalType": "uint256",
          "name": "age",
          "type": "uint256"
        }
      ],
      "name": "register",
      "outputs": [],
      "stateMutability": "nonpayable",
      "type": "function"
    },
    {
      "inputs": [
        {
          "internalType": "uint256",
          "name": "placeId",
          "type": "uint256"
        },
        {
          "internalType": "uint256",
          "name": "idTrip",
          "type": "uint256"
        },
        {
          "internalType": "string",
          "name": "comment",
          "type": "string"
        },
        {
          "internalType": "uint256",
          "name": "rate",
          "type": "uint256"
        },
        {
          "internalType": "string",
          "name": "title",
          "type": "string"
        }
      ],
      "name": "review",
      "outputs": [],
      "stateMutability": "nonpayable",
      "type": "function"
    },
    {
      "inputs": [
        {
          "internalType": "bytes",
          "name": "sig",
          "type": "bytes"
        }
      ],
      "name": "splitSignature",
      "outputs": [
        {
          "internalType": "bytes32",
          "name": "r",
          "type": "bytes32"
        },
        {
          "internalType": "bytes32",
          "name": "s",
          "type": "bytes32"
        },
        {
          "internalType": "uint8",
          "name": "v",
          "type": "uint8"
        }
      ],
      "stateMutability": "pure",
      "type": "function"
    },
    {
      "inputs": [],
      "name": "symbol",
      "outputs": [
        {
          "internalType": "string",
          "name": "",
          "type": "string"
        }
      ],
      "stateMutability": "view",
      "type": "function"
    },
    {
      "inputs": [],
      "name": "totalSupply",
      "outputs": [
        {
          "internalType": "uint256",
          "name": "",
          "type": "uint256"
        }
      ],
      "stateMutability": "view",
      "type": "function"
    },
    {
      "inputs": [
        {
          "internalType": "address",
          "name": "",
          "type": "address"
        },
        {
          "internalType": "uint256",
          "name": "",
          "type": "uint256"
        }
      ],
      "name": "touristAlbums",
      "outputs": [
        {
          "internalType": "uint256",
          "name": "id",
          "type": "uint256"
        },
        {
          "internalType": "string",
          "name": "name",
          "type": "string"
        }
      ],
      "stateMutability": "view",
      "type": "function"
    },
    {
      "inputs": [
        {
          "internalType": "address",
          "name": "",
          "type": "address"
        }
      ],
      "name": "touristIdentify",
      "outputs": [
        {
          "internalType": "string",
          "name": "name",
          "type": "string"
        },
        {
          "internalType": "uint256",
          "name": "age",
          "type": "uint256"
        },
        {
          "internalType": "bool",
          "name": "signup",
          "type": "bool"
        },
        {
          "internalType": "address",
          "name": "touristAddress",
          "type": "address"
        }
      ],
      "stateMutability": "view",
      "type": "function"
    },
    {
      "inputs": [
        {
          "internalType": "address",
          "name": "",
          "type": "address"
        },
        {
          "internalType": "uint256",
          "name": "",
          "type": "uint256"
        }
      ],
      "name": "touristJourneys",
      "outputs": [
        {
          "internalType": "uint256",
          "name": "tripId",
          "type": "uint256"
        },
        {
          "internalType": "uint256",
          "name": "placeId",
          "type": "uint256"
        },
        {
          "internalType": "uint256",
          "name": "arrivalDate",
          "type": "uint256"
        },
        {
          "internalType": "string",
          "name": "review",
          "type": "string"
        },
        {
          "internalType": "uint256",
          "name": "rate",
          "type": "uint256"
        },
        {
          "internalType": "bool",
          "name": "isReview",
          "type": "bool"
        },
        {
          "internalType": "string",
          "name": "title",
          "type": "string"
        }
      ],
      "stateMutability": "view",
      "type": "function"
    },
    {
      "inputs": [
        {
          "internalType": "address",
          "name": "to",
          "type": "address"
        },
        {
          "internalType": "uint256",
          "name": "amount",
          "type": "uint256"
        }
      ],
      "name": "transfer",
      "outputs": [
        {
          "internalType": "bool",
          "name": "",
          "type": "bool"
        }
      ],
      "stateMutability": "nonpayable",
      "type": "function"
    },
    {
      "inputs": [
        {
          "internalType": "address",
          "name": "from",
          "type": "address"
        },
        {
          "internalType": "address",
          "name": "to",
          "type": "address"
        },
        {
          "internalType": "uint256",
          "name": "amount",
          "type": "uint256"
        }
      ],
      "name": "transferFrom",
      "outputs": [
        {
          "internalType": "bool",
          "name": "",
          "type": "bool"
        }
      ],
      "stateMutability": "nonpayable",
      "type": "function"
    },
    {
      "inputs": [
        {
          "internalType": "uint256",
          "name": "id",
          "type": "uint256"
        }
      ],
      "name": "validAddIDTicket",
      "outputs": [
        {
          "internalType": "bool",
          "name": "",
          "type": "bool"
        }
      ],
      "stateMutability": "view",
      "type": "function"
    },
    {
      "inputs": [
        {
          "internalType": "address",
          "name": "_signer",
          "type": "address"
        },
        {
          "internalType": "address",
          "name": "_to",
          "type": "address"
        },
        {
          "internalType": "uint256",
          "name": "_amount",
          "type": "uint256"
        },
        {
          "internalType": "string",
          "name": "_message",
          "type": "string"
        },
        {
          "internalType": "uint256",
          "name": "_nonce",
          "type": "uint256"
        },
        {
          "internalType": "bytes",
          "name": "signature",
          "type": "bytes"
        }
      ],
      "name": "verify",
      "outputs": [
        {
          "internalType": "bool",
          "name": "",
          "type": "bool"
        }
      ],
      "stateMutability": "pure",
      "type": "function"
    }
  ],
  "bytecode": "0x60806040523480156200001157600080fd5b506040518060400160405280600781526020017f4443546f6b656e000000000000000000000000000000000000000000000000008152506040518060400160405280600281526020017f587500000000000000000000000000000000000000000000000000000000000081525081600390816200008f919062000c88565b508060049081620000a1919062000c88565b50505060096040518060400160405280600181526020016000151581525090806001815401808255809150506001900390600052602060002090600202016000909190919091506000820151816000015560208201518160010160006101000a81548160ff021916908315150217905550505060096040518060400160405280600281526020016000151581525090806001815401808255809150506001900390600052602060002090600202016000909190919091506000820151816000015560208201518160010160006101000a81548160ff021916908315150217905550505060096040518060400160405280600381526020016000151581525090806001815401808255809150506001900390600052602060002090600202016000909190919091506000820151816000015560208201518160010160006101000a81548160ff021916908315150217905550505060096040518060400160405280600481526020016000151581525090806001815401808255809150506001900390600052602060002090600202016000909190919091506000820151816000015560208201518160010160006101000a81548160ff021916908315150217905550505060096040518060400160405280600581526020016000151581525090806001815401808255809150506001900390600052602060002090600202016000909190919091506000820151816000015560208201518160010160006101000a81548160ff021916908315150217905550505060096040518060400160405280600681526020016000151581525090806001815401808255809150506001900390600052602060002090600202016000909190919091506000820151816000015560208201518160010160006101000a81548160ff021916908315150217905550505060096040518060400160405280600781526020016000151581525090806001815401808255809150506001900390600052602060002090600202016000909190919091506000820151816000015560208201518160010160006101000a81548160ff021916908315150217905550505060096040518060400160405280600881526020016000151581525090806001815401808255809150506001900390600052602060002090600202016000909190919091506000820151816000015560208201518160010160006101000a81548160ff021916908315150217905550505060096040518060400160405280600981526020016000151581525090806001815401808255809150506001900390600052602060002090600202016000909190919091506000820151816000015560208201518160010160006101000a81548160ff021916908315150217905550505060096040518060400160405280600a81526020016000151581525090806001815401808255809150506001900390600052602060002090600202016000909190919091506000820151816000015560208201518160010160006101000a81548160ff021916908315150217905550505060096040518060400160405280600b81526020016000151581525090806001815401808255809150506001900390600052602060002090600202016000909190919091506000820151816000015560208201518160010160006101000a81548160ff021916908315150217905550505060096040518060400160405280600c81526020016000151581525090806001815401808255809150506001900390600052602060002090600202016000909190919091506000820151816000015560208201518160010160006101000a81548160ff021916908315150217905550505060096040518060400160405280600d81526020016000151581525090806001815401808255809150506001900390600052602060002090600202016000909190919091506000820151816000015560208201518160010160006101000a81548160ff021916908315150217905550505060096040518060400160405280600e81526020016000151581525090806001815401808255809150506001900390600052602060002090600202016000909190919091506000820151816000015560208201518160010160006101000a81548160ff021916908315150217905550505060096040518060400160405280600f81526020016000151581525090806001815401808255809150506001900390600052602060002090600202016000909190919091506000820151816000015560208201518160010160006101000a81548160ff021916908315150217905550505060096040518060400160405280601081526020016000151581525090806001815401808255809150506001900390600052602060002090600202016000909190919091506000820151816000015560208201518160010160006101000a81548160ff021916908315150217905550505060096040518060400160405280601181526020016000151581525090806001815401808255809150506001900390600052602060002090600202016000909190919091506000820151816000015560208201518160010160006101000a81548160ff021916908315150217905550505060096040518060400160405280601281526020016000151581525090806001815401808255809150506001900390600052602060002090600202016000909190919091506000820151816000015560208201518160010160006101000a81548160ff021916908315150217905550505060096040518060400160405280601381526020016000151581525090806001815401808255809150506001900390600052602060002090600202016000909190919091506000820151816000015560208201518160010160006101000a81548160ff021916908315150217905550505060096040518060400160405280601481526020016000151581525090806001815401808255809150506001900390600052602060002090600202016000909190919091506000820151816000015560208201518160010160006101000a81548160ff02191690831515021790555050506006339080600181540180825580915050600190039060005260206000200160009091909190916101000a81548173ffffffffffffffffffffffffffffffffffffffff021916908373ffffffffffffffffffffffffffffffffffffffff16021790555033600560006101000a81548173ffffffffffffffffffffffffffffffffffffffff021916908373ffffffffffffffffffffffffffffffffffffffff16021790555062000d6f565b600081519050919050565b7f4e487b7100000000000000000000000000000000000000000000000000000000600052604160045260246000fd5b7f4e487b7100000000000000000000000000000000000000000000000000000000600052602260045260246000fd5b6000600282049050600182168062000a9057607f821691505b60208210810362000aa65762000aa562000a48565b5b50919050565b60008190508160005260206000209050919050565b60006020601f8301049050919050565b600082821b905092915050565b60006008830262000b107fffffffffffffffffffffffffffffffffffffffffffffffffffffffffffffffff8262000ad1565b62000b1c868362000ad1565b95508019841693508086168417925050509392505050565b6000819050919050565b6000819050919050565b600062000b6962000b6362000b5d8462000b34565b62000b3e565b62000b34565b9050919050565b6000819050919050565b62000b858362000b48565b62000b9d62000b948262000b70565b84845462000ade565b825550505050565b600090565b62000bb462000ba5565b62000bc181848462000b7a565b505050565b5b8181101562000be95762000bdd60008262000baa565b60018101905062000bc7565b5050565b601f82111562000c385762000c028162000aac565b62000c0d8462000ac1565b8101602085101562000c1d578190505b62000c3562000c2c8562000ac1565b83018262000bc6565b50505b505050565b600082821c905092915050565b600062000c5d6000198460080262000c3d565b1980831691505092915050565b600062000c78838362000c4a565b9150826002028217905092915050565b62000c938262000a0e565b67ffffffffffffffff81111562000caf5762000cae62000a19565b5b62000cbb825462000a77565b62000cc882828562000bed565b600060209050601f83116001811462000d00576000841562000ceb578287015190505b62000cf7858262000c6a565b86555062000d67565b601f19841662000d108662000aac565b60005b8281101562000d3a5784890151825560018201915060208501945060208101905062000d13565b8683101562000d5a578489015162000d56601f89168262000c4a565b8355505b6001600288020188555050505b505050505050565b615b338062000d7f6000396000f3fe608060405234801561001057600080fd5b50600436106102485760003560e01c806397aba7f91161013b578063b9c3b1b9116100b8578063f2fa49b41161007c578063f2fa49b414610803578063f516f88e14610839578063f8b2cb4f14610855578063fa54080114610885578063fc0587f8146108b557610248565b8063b9c3b1b91461073b578063dd62ed3e1461076b578063ddb0225e1461079b578063ea87152b146107b7578063ebfbdec9146107d357610248565b8063a7bb5803116100ff578063a7bb580314610671578063a9059cbb146106a3578063abe5026a146106d3578063b216241514610703578063b42913191461071f57610248565b806397aba7f9146105815780639e26c494146105b15780639f7bdca1146105e1578063a35f8a4014610611578063a457c2d71461064157610248565b80635cab0d00116101c9578063732a7c251161018d578063732a7c25146104b757806378902422146104d35780638fab3caa1461050357806393f405211461053357806395d89b411461056357610248565b80635cab0d00146103d75780636012f3be146104075780636253366514610438578063701a0e0d1461046b57806370a082311461048757610248565b8063285f293b11610210578063285f293b14610307578063313ce567146103375780633749368214610355578063395093511461038b5780633c09e2fd146103bb57610248565b806306fdde031461024d578063095ea7b31461026b5780630f13090e1461029b57806318160ddd146102b957806323b872dd146102d7575b600080fd5b6102556108e5565b6040516102629190613c6d565b60405180910390f35b61028560048036038101906102809190613d37565b610977565b6040516102929190613d92565b60405180910390f35b6102a361099a565b6040516102b09190613f7a565b60405180910390f35b6102c1610b9d565b6040516102ce9190613fab565b60405180910390f35b6102f160048036038101906102ec9190613fc6565b610ba7565b6040516102fe9190613d92565b60405180910390f35b610321600480360381019061031c9190614019565b610bd6565b60405161032e9190613f7a565b60405180910390f35b61033f610dec565b60405161034c9190614062565b60405180910390f35b61036f600480360381019061036a9190613d37565b610df5565b604051610382979695949392919061407d565b60405180910390f35b6103a560048036038101906103a09190613d37565b610f71565b6040516103b29190613d92565b60405180910390f35b6103d560048036038101906103d09190613d37565b610fa8565b005b6103f160048036038101906103ec9190614019565b6111b7565b6040516103fe9190613fab565b60405180910390f35b610421600480360381019061041c9190613d37565b6111cf565b60405161042f9291906140fa565b60405180910390f35b610452600480360381019061044d919061412a565b611298565b6040516104629493929190614166565b60405180910390f35b610485600480360381019061048091906141b2565b61137d565b005b6104a1600480360381019061049c919061412a565b6118a3565b6040516104ae9190613fab565b60405180910390f35b6104d160048036038101906104cc919061433a565b6118eb565b005b6104ed60048036038101906104e89190614019565b6119c7565b6040516104fa9190614445565b60405180910390f35b61051d6004803603810190610518919061452f565b611a32565b60405161052a9190613f7a565b60405180910390f35b61054d60048036038101906105489190614019565b611d9e565b60405161055a9190613d92565b60405180910390f35b61056b611e46565b6040516105789190613c6d565b60405180910390f35b61059b6004803603810190610596919061464f565b611ed8565b6040516105a891906146ab565b60405180910390f35b6105cb60048036038101906105c69190614019565b611f47565b6040516105d89190613d92565b60405180910390f35b6105fb60048036038101906105f69190614019565b611fb0565b6040516106089190613fab565b60405180910390f35b61062b600480360381019061062691906146c6565b611fc8565b6040516106389190614758565b60405180910390f35b61065b60048036038101906106569190613d37565b612001565b6040516106689190613d92565b60405180910390f35b61068b60048036038101906106869190614773565b612078565b60405161069a939291906147bc565b60405180910390f35b6106bd60048036038101906106b89190613d37565b6120e0565b6040516106ca9190613d92565b60405180910390f35b6106ed60048036038101906106e891906147f3565b612103565b6040516106fa9190613d92565b60405180910390f35b61071d600480360381019061071891906148b8565b612167565b005b61073960048036038101906107349190614019565b612634565b005b61075560048036038101906107509190614997565b6127d3565b6040516107629190613d92565b60405180910390f35b610785600480360381019061078091906149fe565b6128ff565b6040516107929190613fab565b60405180910390f35b6107b560048036038101906107b091906147f3565b612986565b005b6107d160048036038101906107cc9190614a3e565b6129ae565b005b6107ed60048036038101906107e89190614a9a565b612ca7565b6040516107fa9190613fab565b60405180910390f35b61081d60048036038101906108189190614ada565b612cd8565b604051610830979695949392919061407d565b60405180910390f35b610853600480360381019061084e9190614a9a565b612e61565b005b61086f600480360381019061086a919061412a565b613196565b60405161087c9190613fab565b60405180910390f35b61089f600480360381019061089a9190614b2d565b61319d565b6040516108ac9190614758565b60405180910390f35b6108cf60048036038101906108ca9190614019565b6131cd565b6040516108dc9190613f7a565b60405180910390f35b6060600380546108f490614b89565b80601f016020809104026020016040519081016040528092919081815260200182805461092090614b89565b801561096d5780601f106109425761010080835404028352916020019161096d565b820191906000526020600020905b81548152906001019060200180831161095057829003601f168201915b5050505050905090565b6000806109826133a6565b905061098f8185856133ae565b600191505092915050565b6060600d60003373ffffffffffffffffffffffffffffffffffffffff1673ffffffffffffffffffffffffffffffffffffffff168152602001908152602001600020805480602002602001604051908101604052809291908181526020016000905b82821015610b9457838290600052602060002090600702016040518060e0016040529081600082015481526020016001820154815260200160028201548152602001600382018054610a4c90614b89565b80601f0160208091040260200160405190810160405280929190818152602001828054610a7890614b89565b8015610ac55780601f10610a9a57610100808354040283529160200191610ac5565b820191906000526020600020905b815481529060010190602001808311610aa857829003601f168201915b50505050508152602001600482015481526020016005820160009054906101000a900460ff16151515158152602001600682018054610b0390614b89565b80601f0160208091040260200160405190810160405280929190818152602001828054610b2f90614b89565b8015610b7c5780601f10610b5157610100808354040283529160200191610b7c565b820191906000526020600020905b815481529060010190602001808311610b5f57829003601f168201915b505050505081525050815260200190600101906109fb565b50505050905090565b6000600254905090565b600080610bb26133a6565b9050610bbf858285613577565b610bca858585613603565b60019150509392505050565b6060601060003373ffffffffffffffffffffffffffffffffffffffff1673ffffffffffffffffffffffffffffffffffffffff1681526020019081526020016000206000838152602001908152602001600020805480602002602001604051908101604052809291908181526020016000905b82821015610de157838290600052602060002090600702016040518060e0016040529081600082015481526020016001820154815260200160028201548152602001600382018054610c9990614b89565b80601f0160208091040260200160405190810160405280929190818152602001828054610cc590614b89565b8015610d125780601f10610ce757610100808354040283529160200191610d12565b820191906000526020600020905b815481529060010190602001808311610cf557829003601f168201915b50505050508152602001600482015481526020016005820160009054906101000a900460ff16151515158152602001600682018054610d5090614b89565b80601f0160208091040260200160405190810160405280929190818152602001828054610d7c90614b89565b8015610dc95780601f10610d9e57610100808354040283529160200191610dc9565b820191906000526020600020905b815481529060010190602001808311610dac57829003601f168201915b50505050508152505081526020019060010190610c48565b505050509050919050565b60006012905090565b600d6020528160005260406000208181548110610e1157600080fd5b906000526020600020906007020160009150915050806000015490806001015490806002015490806003018054610e4790614b89565b80601f0160208091040260200160405190810160405280929190818152602001828054610e7390614b89565b8015610ec05780601f10610e9557610100808354040283529160200191610ec0565b820191906000526020600020905b815481529060010190602001808311610ea357829003601f168201915b5050505050908060040154908060050160009054906101000a900460ff1690806006018054610eee90614b89565b80601f0160208091040260200160405190810160405280929190818152602001828054610f1a90614b89565b8015610f675780601f10610f3c57610100808354040283529160200191610f67565b820191906000526020600020905b815481529060010190602001808311610f4a57829003601f168201915b5050505050905087565b600080610f7c6133a6565b9050610f9d818585610f8e85896128ff565b610f989190614be9565b6133ae565b600191505092915050565b6000805b6006805490508110156110445760068181548110610fcd57610fcc614c1d565b5b9060005260206000200160009054906101000a900473ffffffffffffffffffffffffffffffffffffffff1673ffffffffffffffffffffffffffffffffffffffff163373ffffffffffffffffffffffffffffffffffffffff16036110335760019150611044565b8061103d90614c4c565b9050610fac565b50600115158115151461108c576040517f08c379a000000000000000000000000000000000000000000000000000000000815260040161108390614d06565b60405180910390fd5b600182148061109b5750600282145b6110da576040517f08c379a00000000000000000000000000000000000000000000000000000000081526004016110d190614d98565b60405180910390fd5b60018203611146576006839080600181540180825580915050600190039060005260206000200160009091909190916101000a81548173ffffffffffffffffffffffffffffffffffffffff021916908373ffffffffffffffffffffffffffffffffffffffff1602179055505b600282036111b2576007839080600181540180825580915050600190039060005260206000200160009091909190916101000a81548173ffffffffffffffffffffffffffffffffffffffff021916908373ffffffffffffffffffffffffffffffffffffffff1602179055505b505050565b60116020528060005260406000206000915090505481565b600f60205281600052604060002081815481106111eb57600080fd5b90600052602060002090600202016000915091505080600001549080600101805461121590614b89565b80601f016020809104026020016040519081016040528092919081815260200182805461124190614b89565b801561128e5780601f106112635761010080835404028352916020019161128e565b820191906000526020600020905b81548152906001019060200180831161127157829003601f168201915b5050505050905082565b600c6020528060005260406000206000915090508060000180546112bb90614b89565b80601f01602080910402602001604051908101604052809291908181526020018280546112e790614b89565b80156113345780601f1061130957610100808354040283529160200191611334565b820191906000526020600020905b81548152906001019060200180831161131757829003601f168201915b5050505050908060010154908060020160009054906101000a900460ff16908060020160019054906101000a900473ffffffffffffffffffffffffffffffffffffffff16905084565b6000611387613b9e565b60005b600d60003373ffffffffffffffffffffffffffffffffffffffff1673ffffffffffffffffffffffffffffffffffffffff1681526020019081526020016000208054905081101561181a57600d60003373ffffffffffffffffffffffffffffffffffffffff1673ffffffffffffffffffffffffffffffffffffffff168152602001908152602001600020818154811061142557611424614c1d565b5b906000526020600020906007020160010154861480156114a6575083600d60003373ffffffffffffffffffffffffffffffffffffffff1673ffffffffffffffffffffffffffffffffffffffff168152602001908152602001600020828154811061149257611491614c1d565b5b906000526020600020906007020160020154145b15611807576040518060e00160405280600d60003373ffffffffffffffffffffffffffffffffffffffff1673ffffffffffffffffffffffffffffffffffffffff168152602001908152602001600020838154811061150757611506614c1d565b5b9060005260206000209060070201600001548152602001878152602001858152602001600d60003373ffffffffffffffffffffffffffffffffffffffff1673ffffffffffffffffffffffffffffffffffffffff168152602001908152602001600020838154811061157b5761157a614c1d565b5b9060005260206000209060070201600301805461159790614b89565b80601f01602080910402602001604051908101604052809291908181526020018280546115c390614b89565b80156116105780601f106115e557610100808354040283529160200191611610565b820191906000526020600020905b8154815290600101906020018083116115f357829003601f168201915b50505050508152602001600d60003373ffffffffffffffffffffffffffffffffffffffff1673ffffffffffffffffffffffffffffffffffffffff168152602001908152602001600020838154811061166b5761166a614c1d565b5b9060005260206000209060070201600401548152602001600d60003373ffffffffffffffffffffffffffffffffffffffff1673ffffffffffffffffffffffffffffffffffffffff16815260200190815260200160002083815481106116d3576116d2614c1d565b5b906000526020600020906007020160050160009054906101000a900460ff1615158152602001604051806020016040528060008152508152509150601060003373ffffffffffffffffffffffffffffffffffffffff1673ffffffffffffffffffffffffffffffffffffffff168152602001908152602001600020600086815260200190815260200160002082908060018154018082558091505060019003906000526020600020906007020160009091909190915060008201518160000155602082015181600101556040820151816002015560608201518160030190816117bb9190614f64565b506080820151816004015560a08201518160050160006101000a81548160ff02191690831515021790555060c08201518160060190816117fb9190614f64565b5050506001925061181a565b808061181290614c4c565b91505061138a565b508161185b576040517f08c379a000000000000000000000000000000000000000000000000000000000815260040161185290615082565b60405180910390fd5b7f4c5175a13509e65592a5ddf9fa5c69a99ad3bd3ade62b85c4027673e6f64ec8261188585613879565b82604051611894929190615145565b60405180910390a15050505050565b60008060008373ffffffffffffffffffffffffffffffffffffffff1673ffffffffffffffffffffffffffffffffffffffff168152602001908152602001600020549050919050565b600f60003373ffffffffffffffffffffffffffffffffffffffff1673ffffffffffffffffffffffffffffffffffffffff16815260200190815260200160002060405180604001604052808481526020018381525090806001815401808255809150506001900390600052602060002090600202016000909190919091506000820151816000015560208201518160010190816119879190614f64565b5050507ff538047aa51f8b732c1850d69564ec0d033aca661921dba9871bf8feff7a435f82826040516119bb9291906140fa565b60405180910390a15050565b606060136000838152602001908152602001600020805480602002602001604051908101604052809291908181526020018280548015611a2657602002820191906000526020600020905b815481526020019060010190808311611a12575b50505050509050919050565b60606000825167ffffffffffffffff811115611a5157611a5061420f565b5b604051908082528060200260200182016040528015611a8a57816020015b611a77613b9e565b815260200190600190039081611a6f5790505b5090506000805b8451811015611d935760005b600d60003373ffffffffffffffffffffffffffffffffffffffff1673ffffffffffffffffffffffffffffffffffffffff16815260200190815260200160002080549050811015611d7f57600d60003373ffffffffffffffffffffffffffffffffffffffff1673ffffffffffffffffffffffffffffffffffffffff1681526020019081526020016000208181548110611b3857611b37614c1d565b5b906000526020600020906007020160000154868381518110611b5d57611b5c614c1d565b5b602002602001015103611d6c57600d60003373ffffffffffffffffffffffffffffffffffffffff1673ffffffffffffffffffffffffffffffffffffffff1681526020019081526020016000208181548110611bbb57611bba614c1d565b5b90600052602060002090600702016040518060e0016040529081600082015481526020016001820154815260200160028201548152602001600382018054611c0290614b89565b80601f0160208091040260200160405190810160405280929190818152602001828054611c2e90614b89565b8015611c7b5780601f10611c5057610100808354040283529160200191611c7b565b820191906000526020600020905b815481529060010190602001808311611c5e57829003601f168201915b50505050508152602001600482015481526020016005820160009054906101000a900460ff16151515158152602001600682018054611cb990614b89565b80601f0160208091040260200160405190810160405280929190818152602001828054611ce590614b89565b8015611d325780601f10611d0757610100808354040283529160200191611d32565b820191906000526020600020905b815481529060010190602001808311611d1557829003601f168201915b505050505081525050848481518110611d4e57611d4d614c1d565b5b60200260200101819052508280611d6490614c4c565b935050611d7f565b8080611d7790614c4c565b915050611a9d565b508080611d8b90614c4c565b915050611a91565b508192505050919050565b600080600090505b600980549050811015611e3b5760098181548110611dc757611dc6614c1d565b5b9060005260206000209060020201600001548303611e28576001151560098281548110611df757611df6614c1d565b5b906000526020600020906002020160010160009054906101000a900460ff16151503611e27576000915050611e41565b5b8080611e3390614c4c565b915050611da6565b50600190505b919050565b606060048054611e5590614b89565b80601f0160208091040260200160405190810160405280929190818152602001828054611e8190614b89565b8015611ece5780601f10611ea357610100808354040283529160200191611ece565b820191906000526020600020905b815481529060010190602001808311611eb157829003601f168201915b5050505050905090565b600080600080611ee785612078565b92509250925060018682858560405160008152602001604052604051611f10949392919061517c565b6020604051602081039080840390855afa158015611f32573d6000803e3d6000fd5b50505060206040510351935050505092915050565b600080600090505b600980549050811015611fa55760098181548110611f7057611f6f614c1d565b5b9060005260206000209060020201600001548303611f92576000915050611fab565b8080611f9d90614c4c565b915050611f4f565b50600190505b919050565b60126020528060005260406000206000915090505481565b600084848484604051602001611fe19493929190615266565b604051602081830303815290604052805190602001209050949350505050565b60008061200c6133a6565b9050600061201a82866128ff565b90508381101561205f576040517f08c379a000000000000000000000000000000000000000000000000000000000815260040161205690615322565b60405180910390fd5b61206c82868684036133ae565b60019250505092915050565b600080600060418451146120c1576040517f08c379a00000000000000000000000000000000000000000000000000000000081526004016120b89061538e565b60405180910390fd5b6020840151925060408401519150606084015160001a90509193909250565b6000806120eb6133a6565b90506120f8818585613603565b600191505092915050565b60008061211287878787611fc8565b9050600061211f8261319d565b90508873ffffffffffffffffffffffffffffffffffffffff166121428286611ed8565b73ffffffffffffffffffffffffffffffffffffffff1614925050509695505050505050565b60005b600d60003373ffffffffffffffffffffffffffffffffffffffff1673ffffffffffffffffffffffffffffffffffffffff168152602001908152602001600020805490508110156125c957600d60003373ffffffffffffffffffffffffffffffffffffffff1673ffffffffffffffffffffffffffffffffffffffff168152602001908152602001600020818154811061220557612204614c1d565b5b90600052602060002090600702016000015485036125b65760001515600d60003373ffffffffffffffffffffffffffffffffffffffff1673ffffffffffffffffffffffffffffffffffffffff168152602001908152602001600020828154811061227257612271614c1d565b5b906000526020600020906007020160050160009054906101000a900460ff161515146122d3576040517f08c379a00000000000000000000000000000000000000000000000000000000081526004016122ca906153fa565b60405180910390fd5b83600d60003373ffffffffffffffffffffffffffffffffffffffff1673ffffffffffffffffffffffffffffffffffffffff168152602001908152602001600020828154811061232557612324614c1d565b5b906000526020600020906007020160030190816123429190614f64565b5082600d60003373ffffffffffffffffffffffffffffffffffffffff1673ffffffffffffffffffffffffffffffffffffffff168152602001908152602001600020828154811061239557612394614c1d565b5b9060005260206000209060070201600401819055506001600d60003373ffffffffffffffffffffffffffffffffffffffff1673ffffffffffffffffffffffffffffffffffffffff16815260200190815260200160002082815481106123fd576123fc614c1d565b5b906000526020600020906007020160050160006101000a81548160ff02191690831515021790555081600d60003373ffffffffffffffffffffffffffffffffffffffff1673ffffffffffffffffffffffffffffffffffffffff168152602001908152602001600020828154811061247757612476614c1d565b5b906000526020600020906007020160060190816124949190614f64565b5060146000878152602001908152602001600020600d60003373ffffffffffffffffffffffffffffffffffffffff1673ffffffffffffffffffffffffffffffffffffffff16815260200190815260200160002082815481106124f9576124f8614c1d565b5b90600052602060002090600702019080600181540180825580915050600190039060005260206000209060070201600090919091909150600082015481600001556001820154816001015560028201548160020155600382018160030190816125629190615430565b50600482015481600401556005820160009054906101000a900460ff168160050160006101000a81548160ff021916908315150217905550600682018160060190816125ae9190615430565b5050506125c9565b80806125c190614c4c565b91505061216a565b506013600086815260200190815260200160002082908060018154018082558091505060019003906000526020600020016000909190919091505560126000868152602001908152602001600020600081548092919061262890614c4c565b91905055505050505050565b6000805b6006805490508110156126d0576006818154811061265957612658614c1d565b5b9060005260206000200160009054906101000a900473ffffffffffffffffffffffffffffffffffffffff1673ffffffffffffffffffffffffffffffffffffffff163373ffffffffffffffffffffffffffffffffffffffff16036126bf57600191506126d0565b806126c990614c4c565b9050612638565b506001151581151514612718576040517f08c379a000000000000000000000000000000000000000000000000000000000815260040161270f90614d06565b60405180910390fd5b61272182611f47565b612760576040517f08c379a000000000000000000000000000000000000000000000000000000000815260040161275790615564565b60405180910390fd5b600960405180604001604052808481526020016000151581525090806001815401808255809150506001900390600052602060002090600202016000909190919091506000820151816000015560208201518160010160006101000a81548160ff02191690831515021790555050505050565b6000806040518060400160405280601c81526020017f19457468657265756d205369676e6564204d6573736167653a0a3332000000008152509050600081876040516020016128239291906155ec565b604051602081830303815290604052805190602001209050600060018288888860405160008152602001604052604051612860949392919061517c565b6020604051602081039080840390855afa158015612882573d6000803e3d6000fd5b505050602060405103519050600560009054906101000a900473ffffffffffffffffffffffffffffffffffffffff1673ffffffffffffffffffffffffffffffffffffffff168173ffffffffffffffffffffffffffffffffffffffff16036128ef57600193505050506128f7565b600093505050505b949350505050565b6000600160008473ffffffffffffffffffffffffffffffffffffffff1673ffffffffffffffffffffffffffffffffffffffff16815260200190815260200160002060008373ffffffffffffffffffffffffffffffffffffffff1673ffffffffffffffffffffffffffffffffffffffff16815260200190815260200160002054905092915050565b612994868686868686612103565b156129a6576129a5856103e8613a3e565b5b505050505050565b600060405180608001604052808481526020018381526020016001151581526020013373ffffffffffffffffffffffffffffffffffffffff16815250905082600c60003373ffffffffffffffffffffffffffffffffffffffff1673ffffffffffffffffffffffffffffffffffffffff1681526020019081526020016000206000019081612a3b9190614f64565b5081600c60003373ffffffffffffffffffffffffffffffffffffffff1673ffffffffffffffffffffffffffffffffffffffff1681526020019081526020016000206001018190555033600c60003373ffffffffffffffffffffffffffffffffffffffff1673ffffffffffffffffffffffffffffffffffffffff16815260200190815260200160002060020160016101000a81548173ffffffffffffffffffffffffffffffffffffffff021916908373ffffffffffffffffffffffffffffffffffffffff160217905550600c60003373ffffffffffffffffffffffffffffffffffffffff1673ffffffffffffffffffffffffffffffffffffffff16815260200190815260200160002060020160009054906101000a900460ff16612c6957600a8190806001815401808255809150506001900390600052602060002090600302016000909190919091506000820151816000019081612b999190614f64565b506020820151816001015560408201518160020160006101000a81548160ff02191690831515021790555060608201518160020160016101000a81548173ffffffffffffffffffffffffffffffffffffffff021916908373ffffffffffffffffffffffffffffffffffffffff16021790555050506001600c60003373ffffffffffffffffffffffffffffffffffffffff1673ffffffffffffffffffffffffffffffffffffffff16815260200190815260200160002060020160006101000a81548160ff0219169083151502179055505b7ff9aabaa28b0c7b9b6a80283c8b8fd6983df8e2c5703e65ee433dbbd7373062688383604051612c9a929190615614565b60405180910390a1505050565b60136020528160005260406000208181548110612cc357600080fd5b90600052602060002001600091509150505481565b60106020528260005260406000206020528160005260406000208181548110612d0057600080fd5b90600052602060002090600702016000925092505050806000015490806001015490806002015490806003018054612d3790614b89565b80601f0160208091040260200160405190810160405280929190818152602001828054612d6390614b89565b8015612db05780601f10612d8557610100808354040283529160200191612db0565b820191906000526020600020905b815481529060010190602001808311612d9357829003601f168201915b5050505050908060040154908060050160009054906101000a900460ff1690806006018054612dde90614b89565b80601f0160208091040260200160405190810160405280929190818152602001828054612e0a90614b89565b8015612e575780601f10612e2c57610100808354040283529160200191612e57565b820191906000526020600020905b815481529060010190602001808311612e3a57829003601f168201915b5050505050905087565b6000805b600980549050811015612f675760098181548110612e8657612e85614c1d565b5b9060005260206000209060020201600001548403612f545760098181548110612eb257612eb1614c1d565b5b906000526020600020906002020160010160009054906101000a900460ff1615612f11576040517f08c379a0000000000000000000000000000000000000000000000000000000008152600401612f0890615690565b60405180910390fd5b60019150600160098281548110612f2b57612f2a614c1d565b5b906000526020600020906002020160010160006101000a81548160ff0219169083151502179055505b8080612f5f90614c4c565b915050612e65565b50601160008381526020019081526020016000206000815480929190612f8c90614c4c565b9190505550600b60003373ffffffffffffffffffffffffffffffffffffffff1673ffffffffffffffffffffffffffffffffffffffff1681526020019081526020016000206000815480929190612fe190614c4c565b9190505550600d60003373ffffffffffffffffffffffffffffffffffffffff1673ffffffffffffffffffffffffffffffffffffffff1681526020019081526020016000206040518060e00160405280600b60003373ffffffffffffffffffffffffffffffffffffffff1673ffffffffffffffffffffffffffffffffffffffff1681526020019081526020016000205481526020018481526020014281526020016040518060200160405280600081525081526020016000815260200160001515815260200160405180602001604052806000815250815250908060018154018082558091505060019003906000526020600020906007020160009091909190915060008201518160000155602082015181600101556040820151816002015560608201518160030190816131159190614f64565b506080820151816004015560a08201518160050160006101000a81548160ff02191690831515021790555060c08201518160060190816131559190614f64565b5050507ff165997b5f1d2b5ae2f43279fc978111209309fd44e04343b1ffd71915e62ab583836040516131899291906156b0565b60405180910390a1505050565b6000919050565b6000816040516020016131b09190615725565b604051602081830303815290604052805190602001209050919050565b606060146000838152602001908152602001600020805480602002602001604051908101604052809291908181526020016000905b8282101561339b57838290600052602060002090600702016040518060e001604052908160008201548152602001600182015481526020016002820154815260200160038201805461325390614b89565b80601f016020809104026020016040519081016040528092919081815260200182805461327f90614b89565b80156132cc5780601f106132a1576101008083540402835291602001916132cc565b820191906000526020600020905b8154815290600101906020018083116132af57829003601f168201915b50505050508152602001600482015481526020016005820160009054906101000a900460ff1615151515815260200160068201805461330a90614b89565b80601f016020809104026020016040519081016040528092919081815260200182805461333690614b89565b80156133835780601f1061335857610100808354040283529160200191613383565b820191906000526020600020905b81548152906001019060200180831161336657829003601f168201915b50505050508152505081526020019060010190613202565b505050509050919050565b600033905090565b600073ffffffffffffffffffffffffffffffffffffffff168373ffffffffffffffffffffffffffffffffffffffff160361341d576040517f08c379a0000000000000000000000000000000000000000000000000000000008152600401613414906157bd565b60405180910390fd5b600073ffffffffffffffffffffffffffffffffffffffff168273ffffffffffffffffffffffffffffffffffffffff160361348c576040517f08c379a00000000000000000000000000000000000000000000000000000000081526004016134839061584f565b60405180910390fd5b80600160008573ffffffffffffffffffffffffffffffffffffffff1673ffffffffffffffffffffffffffffffffffffffff16815260200190815260200160002060008473ffffffffffffffffffffffffffffffffffffffff1673ffffffffffffffffffffffffffffffffffffffff168152602001908152602001600020819055508173ffffffffffffffffffffffffffffffffffffffff168373ffffffffffffffffffffffffffffffffffffffff167f8c5be1e5ebec7d5bd14f71427d1e84f3dd0314c0f7b2291e5b200ac8c7c3b9258360405161356a9190613fab565b60405180910390a3505050565b600061358384846128ff565b90507fffffffffffffffffffffffffffffffffffffffffffffffffffffffffffffffff81146135fd57818110156135ef576040517f08c379a00000000000000000000000000000000000000000000000000000000081526004016135e6906158bb565b60405180910390fd5b6135fc84848484036133ae565b5b50505050565b600073ffffffffffffffffffffffffffffffffffffffff168373ffffffffffffffffffffffffffffffffffffffff1603613672576040517f08c379a00000000000000000000000000000000000000000000000000000000081526004016136699061594d565b60405180910390fd5b600073ffffffffffffffffffffffffffffffffffffffff168273ffffffffffffffffffffffffffffffffffffffff16036136e1576040517f08c379a00000000000000000000000000000000000000000000000000000000081526004016136d8906159df565b60405180910390fd5b6136ec838383613b94565b60008060008573ffffffffffffffffffffffffffffffffffffffff1673ffffffffffffffffffffffffffffffffffffffff16815260200190815260200160002054905081811015613772576040517f08c379a000000000000000000000000000000000000000000000000000000000815260040161376990615a71565b60405180910390fd5b8181036000808673ffffffffffffffffffffffffffffffffffffffff1673ffffffffffffffffffffffffffffffffffffffff16815260200190815260200160002081905550816000808573ffffffffffffffffffffffffffffffffffffffff1673ffffffffffffffffffffffffffffffffffffffff168152602001908152602001600020600082825401925050819055508273ffffffffffffffffffffffffffffffffffffffff168473ffffffffffffffffffffffffffffffffffffffff167fddf252ad1be2c89b69c2b068fc378daa952ba7f163c4a11628f55a4df523b3ef846040516138609190613fab565b60405180910390a3613873848484613b99565b50505050565b606060005b600f60003373ffffffffffffffffffffffffffffffffffffffff1673ffffffffffffffffffffffffffffffffffffffff16815260200190815260200160002080549050811015613a3757600f60003373ffffffffffffffffffffffffffffffffffffffff1673ffffffffffffffffffffffffffffffffffffffff168152602001908152602001600020818154811061391957613918614c1d565b5b9060005260206000209060020201600001548303613a2457600f60003373ffffffffffffffffffffffffffffffffffffffff1673ffffffffffffffffffffffffffffffffffffffff168152602001908152602001600020818154811061398257613981614c1d565b5b9060005260206000209060020201600101805461399e90614b89565b80601f01602080910402602001604051908101604052809291908181526020018280546139ca90614b89565b8015613a175780601f106139ec57610100808354040283529160200191613a17565b820191906000526020600020905b8154815290600101906020018083116139fa57829003601f168201915b5050505050915050613a39565b8080613a2f90614c4c565b91505061387e565b505b919050565b600073ffffffffffffffffffffffffffffffffffffffff168273ffffffffffffffffffffffffffffffffffffffff1603613aad576040517f08c379a0000000000000000000000000000000000000000000000000000000008152600401613aa490615add565b60405180910390fd5b613ab960008383613b94565b8060026000828254613acb9190614be9565b92505081905550806000808473ffffffffffffffffffffffffffffffffffffffff1673ffffffffffffffffffffffffffffffffffffffff168152602001908152602001600020600082825401925050819055508173ffffffffffffffffffffffffffffffffffffffff16600073ffffffffffffffffffffffffffffffffffffffff167fddf252ad1be2c89b69c2b068fc378daa952ba7f163c4a11628f55a4df523b3ef83604051613b7c9190613fab565b60405180910390a3613b9060008383613b99565b5050565b505050565b505050565b6040518060e001604052806000815260200160008152602001600081526020016060815260200160008152602001600015158152602001606081525090565b600081519050919050565b600082825260208201905092915050565b60005b83811015613c17578082015181840152602081019050613bfc565b60008484015250505050565b6000601f19601f8301169050919050565b6000613c3f82613bdd565b613c498185613be8565b9350613c59818560208601613bf9565b613c6281613c23565b840191505092915050565b60006020820190508181036000830152613c878184613c34565b905092915050565b6000604051905090565b600080fd5b600080fd5b600073ffffffffffffffffffffffffffffffffffffffff82169050919050565b6000613cce82613ca3565b9050919050565b613cde81613cc3565b8114613ce957600080fd5b50565b600081359050613cfb81613cd5565b92915050565b6000819050919050565b613d1481613d01565b8114613d1f57600080fd5b50565b600081359050613d3181613d0b565b92915050565b60008060408385031215613d4e57613d4d613c99565b5b6000613d5c85828601613cec565b9250506020613d6d85828601613d22565b9150509250929050565b60008115159050919050565b613d8c81613d77565b82525050565b6000602082019050613da76000830184613d83565b92915050565b600081519050919050565b600082825260208201905092915050565b6000819050602082019050919050565b613de281613d01565b82525050565b600082825260208201905092915050565b6000613e0482613bdd565b613e0e8185613de8565b9350613e1e818560208601613bf9565b613e2781613c23565b840191505092915050565b613e3b81613d77565b82525050565b600060e083016000830151613e596000860182613dd9565b506020830151613e6c6020860182613dd9565b506040830151613e7f6040860182613dd9565b5060608301518482036060860152613e978282613df9565b9150506080830151613eac6080860182613dd9565b5060a0830151613ebf60a0860182613e32565b5060c083015184820360c0860152613ed78282613df9565b9150508091505092915050565b6000613ef08383613e41565b905092915050565b6000602082019050919050565b6000613f1082613dad565b613f1a8185613db8565b935083602082028501613f2c85613dc9565b8060005b85811015613f685784840389528151613f498582613ee4565b9450613f5483613ef8565b925060208a01995050600181019050613f30565b50829750879550505050505092915050565b60006020820190508181036000830152613f948184613f05565b905092915050565b613fa581613d01565b82525050565b6000602082019050613fc06000830184613f9c565b92915050565b600080600060608486031215613fdf57613fde613c99565b5b6000613fed86828701613cec565b9350506020613ffe86828701613cec565b925050604061400f86828701613d22565b9150509250925092565b60006020828403121561402f5761402e613c99565b5b600061403d84828501613d22565b91505092915050565b600060ff82169050919050565b61405c81614046565b82525050565b60006020820190506140776000830184614053565b92915050565b600060e082019050614092600083018a613f9c565b61409f6020830189613f9c565b6140ac6040830188613f9c565b81810360608301526140be8187613c34565b90506140cd6080830186613f9c565b6140da60a0830185613d83565b81810360c08301526140ec8184613c34565b905098975050505050505050565b600060408201905061410f6000830185613f9c565b81810360208301526141218184613c34565b90509392505050565b6000602082840312156141405761413f613c99565b5b600061414e84828501613cec565b91505092915050565b61416081613cc3565b82525050565b600060808201905081810360008301526141808187613c34565b905061418f6020830186613f9c565b61419c6040830185613d83565b6141a96060830184614157565b95945050505050565b6000806000606084860312156141cb576141ca613c99565b5b60006141d986828701613d22565b93505060206141ea86828701613d22565b92505060406141fb86828701613d22565b9150509250925092565b600080fd5b600080fd5b7f4e487b7100000000000000000000000000000000000000000000000000000000600052604160045260246000fd5b61424782613c23565b810181811067ffffffffffffffff821117156142665761426561420f565b5b80604052505050565b6000614279613c8f565b9050614285828261423e565b919050565b600067ffffffffffffffff8211156142a5576142a461420f565b5b6142ae82613c23565b9050602081019050919050565b82818337600083830152505050565b60006142dd6142d88461428a565b61426f565b9050828152602081018484840111156142f9576142f861420a565b5b6143048482856142bb565b509392505050565b600082601f83011261432157614320614205565b5b81356143318482602086016142ca565b91505092915050565b6000806040838503121561435157614350613c99565b5b600061435f85828601613d22565b925050602083013567ffffffffffffffff8111156143805761437f613c9e565b5b61438c8582860161430c565b9150509250929050565b600081519050919050565b600082825260208201905092915050565b6000819050602082019050919050565b60006143ce8383613dd9565b60208301905092915050565b6000602082019050919050565b60006143f282614396565b6143fc81856143a1565b9350614407836143b2565b8060005b8381101561443857815161441f88826143c2565b975061442a836143da565b92505060018101905061440b565b5085935050505092915050565b6000602082019050818103600083015261445f81846143e7565b905092915050565b600067ffffffffffffffff8211156144825761448161420f565b5b602082029050602081019050919050565b600080fd5b60006144ab6144a684614467565b61426f565b905080838252602082019050602084028301858111156144ce576144cd614493565b5b835b818110156144f757806144e38882613d22565b8452602084019350506020810190506144d0565b5050509392505050565b600082601f83011261451657614515614205565b5b8135614526848260208601614498565b91505092915050565b60006020828403121561454557614544613c99565b5b600082013567ffffffffffffffff81111561456357614562613c9e565b5b61456f84828501614501565b91505092915050565b6000819050919050565b61458b81614578565b811461459657600080fd5b50565b6000813590506145a881614582565b92915050565b600067ffffffffffffffff8211156145c9576145c861420f565b5b6145d282613c23565b9050602081019050919050565b60006145f26145ed846145ae565b61426f565b90508281526020810184848401111561460e5761460d61420a565b5b6146198482856142bb565b509392505050565b600082601f83011261463657614635614205565b5b81356146468482602086016145df565b91505092915050565b6000806040838503121561466657614665613c99565b5b600061467485828601614599565b925050602083013567ffffffffffffffff81111561469557614694613c9e565b5b6146a185828601614621565b9150509250929050565b60006020820190506146c06000830184614157565b92915050565b600080600080608085870312156146e0576146df613c99565b5b60006146ee87828801613cec565b94505060206146ff87828801613d22565b935050604085013567ffffffffffffffff8111156147205761471f613c9e565b5b61472c8782880161430c565b925050606061473d87828801613d22565b91505092959194509250565b61475281614578565b82525050565b600060208201905061476d6000830184614749565b92915050565b60006020828403121561478957614788613c99565b5b600082013567ffffffffffffffff8111156147a7576147a6613c9e565b5b6147b384828501614621565b91505092915050565b60006060820190506147d16000830186614749565b6147de6020830185614749565b6147eb6040830184614053565b949350505050565b60008060008060008060c087890312156148105761480f613c99565b5b600061481e89828a01613cec565b965050602061482f89828a01613cec565b955050604061484089828a01613d22565b945050606087013567ffffffffffffffff81111561486157614860613c9e565b5b61486d89828a0161430c565b935050608061487e89828a01613d22565b92505060a087013567ffffffffffffffff81111561489f5761489e613c9e565b5b6148ab89828a01614621565b9150509295509295509295565b600080600080600060a086880312156148d4576148d3613c99565b5b60006148e288828901613d22565b95505060206148f388828901613d22565b945050604086013567ffffffffffffffff81111561491457614913613c9e565b5b6149208882890161430c565b935050606061493188828901613d22565b925050608086013567ffffffffffffffff81111561495257614951613c9e565b5b61495e8882890161430c565b9150509295509295909350565b61497481614046565b811461497f57600080fd5b50565b6000813590506149918161496b565b92915050565b600080600080608085870312156149b1576149b0613c99565b5b60006149bf87828801614599565b94505060206149d087828801614982565b93505060406149e187828801614599565b92505060606149f287828801614599565b91505092959194509250565b60008060408385031215614a1557614a14613c99565b5b6000614a2385828601613cec565b9250506020614a3485828601613cec565b9150509250929050565b60008060408385031215614a5557614a54613c99565b5b600083013567ffffffffffffffff811115614a7357614a72613c9e565b5b614a7f8582860161430c565b9250506020614a9085828601613d22565b9150509250929050565b60008060408385031215614ab157614ab0613c99565b5b6000614abf85828601613d22565b9250506020614ad085828601613d22565b9150509250929050565b600080600060608486031215614af357614af2613c99565b5b6000614b0186828701613cec565b9350506020614b1286828701613d22565b9250506040614b2386828701613d22565b9150509250925092565b600060208284031215614b4357614b42613c99565b5b6000614b5184828501614599565b91505092915050565b7f4e487b7100000000000000000000000000000000000000000000000000000000600052602260045260246000fd5b60006002820490506001821680614ba157607f821691505b602082108103614bb457614bb3614b5a565b5b50919050565b7f4e487b7100000000000000000000000000000000000000000000000000000000600052601160045260246000fd5b6000614bf482613d01565b9150614bff83613d01565b9250828201905080821115614c1757614c16614bba565b5b92915050565b7f4e487b7100000000000000000000000000000000000000000000000000000000600052603260045260246000fd5b6000614c5782613d01565b91507fffffffffffffffffffffffffffffffffffffffffffffffffffffffffffffffff8203614c8957614c88614bba565b5b600182019050919050565b7f4f6e6c792061646d696e2063616e2063616c6c20746869732066756e6374696f60008201527f6e00000000000000000000000000000000000000000000000000000000000000602082015250565b6000614cf0602183613be8565b9150614cfb82614c94565b604082019050919050565b60006020820190508181036000830152614d1f81614ce3565b9050919050565b7f496e76616c696420726f6c652c206f6e6c792061646d696e206f72207365727660008201527f696365207375697461626c652e00000000000000000000000000000000000000602082015250565b6000614d82602d83613be8565b9150614d8d82614d26565b604082019050919050565b60006020820190508181036000830152614db181614d75565b9050919050565b60008190508160005260206000209050919050565b60006020601f8301049050919050565b600082821b905092915050565b600060088302614e1a7fffffffffffffffffffffffffffffffffffffffffffffffffffffffffffffffff82614ddd565b614e248683614ddd565b95508019841693508086168417925050509392505050565b6000819050919050565b6000614e61614e5c614e5784613d01565b614e3c565b613d01565b9050919050565b6000819050919050565b614e7b83614e46565b614e8f614e8782614e68565b848454614dea565b825550505050565b600090565b614ea4614e97565b614eaf818484614e72565b505050565b5b81811015614ed357614ec8600082614e9c565b600181019050614eb5565b5050565b601f821115614f1857614ee981614db8565b614ef284614dcd565b81016020851015614f01578190505b614f15614f0d85614dcd565b830182614eb4565b50505b505050565b600082821c905092915050565b6000614f3b60001984600802614f1d565b1980831691505092915050565b6000614f548383614f2a565b9150826002028217905092915050565b614f6d82613bdd565b67ffffffffffffffff811115614f8657614f8561420f565b5b614f908254614b89565b614f9b828285614ed7565b600060209050601f831160018114614fce5760008415614fbc578287015190505b614fc68582614f48565b86555061502e565b601f198416614fdc86614db8565b60005b8281101561500457848901518255600182019150602085019450602081019050614fdf565b86831015615021578489015161501d601f891682614f2a565b8355505b6001600288020188555050505b505050505050565b7f546869732044657374696e6174696f6e20776173206e6f7420636865636b696e600082015250565b600061506c602083613be8565b915061507782615036565b602082019050919050565b6000602082019050818103600083015261509b8161505f565b9050919050565b600060e0830160008301516150ba6000860182613dd9565b5060208301516150cd6020860182613dd9565b5060408301516150e06040860182613dd9565b50606083015184820360608601526150f88282613df9565b915050608083015161510d6080860182613dd9565b5060a083015161512060a0860182613e32565b5060c083015184820360c08601526151388282613df9565b9150508091505092915050565b6000604082019050818103600083015261515f8185613c34565b9050818103602083015261517381846150a2565b90509392505050565b60006080820190506151916000830187614749565b61519e6020830186614053565b6151ab6040830185614749565b6151b86060830184614749565b95945050505050565b60008160601b9050919050565b60006151d9826151c1565b9050919050565b60006151eb826151ce565b9050919050565b6152036151fe82613cc3565b6151e0565b82525050565b6000819050919050565b61522461521f82613d01565b615209565b82525050565b600081905092915050565b600061524082613bdd565b61524a818561522a565b935061525a818560208601613bf9565b80840191505092915050565b600061527282876151f2565b6014820191506152828286615213565b6020820191506152928285615235565b915061529e8284615213565b60208201915081905095945050505050565b7f45524332303a2064656372656173656420616c6c6f77616e63652062656c6f7760008201527f207a65726f000000000000000000000000000000000000000000000000000000602082015250565b600061530c602583613be8565b9150615317826152b0565b604082019050919050565b6000602082019050818103600083015261533b816152ff565b9050919050565b7f696e76616c6964207369676e6174757265206c656e6774680000000000000000600082015250565b6000615378601883613be8565b915061538382615342565b602082019050919050565b600060208201905081810360008301526153a78161536b565b9050919050565b7f596f7520686164206265656e2072657669657765642074686973207472697000600082015250565b60006153e4601f83613be8565b91506153ef826153ae565b602082019050919050565b60006020820190508181036000830152615413816153d7565b9050919050565b60008154905061542981614b89565b9050919050565b81810361543e575050615516565b6154478261541a565b67ffffffffffffffff8111156154605761545f61420f565b5b61546a8254614b89565b615475828285614ed7565b6000601f8311600181146154a45760008415615492578287015490505b61549c8582614f48565b86555061550f565b601f1984166154b287614db8565b96506154bd86614db8565b60005b828110156154e5578489015482556001820191506001850194506020810190506154c0565b8683101561550257848901546154fe601f891682614f2a565b8355505b6001600288020188555050505b5050505050505b565b7f5468697320494420616c72656164792065786973746564000000000000000000600082015250565b600061554e601783613be8565b915061555982615518565b602082019050919050565b6000602082019050818103600083015261557d81615541565b9050919050565b600081519050919050565b600081905092915050565b60006155a582615584565b6155af818561558f565b93506155bf818560208601613bf9565b80840191505092915050565b6000819050919050565b6155e66155e182614578565b6155cb565b82525050565b60006155f8828561559a565b915061560482846155d5565b6020820191508190509392505050565b6000604082019050818103600083015261562e8185613c34565b905061563d6020830184613f9c565b9392505050565b7f5469636b65742068617320757365640000000000000000000000000000000000600082015250565b600061567a600f83613be8565b915061568582615644565b602082019050919050565b600060208201905081810360008301526156a98161566d565b9050919050565b60006040820190506156c56000830185613f9c565b6156d26020830184613f9c565b9392505050565b7f19457468657265756d205369676e6564204d6573736167653a0a333200000000600082015250565b600061570f601c8361522a565b915061571a826156d9565b601c82019050919050565b600061573082615702565b915061573c82846155d5565b60208201915081905092915050565b7f45524332303a20617070726f76652066726f6d20746865207a65726f2061646460008201527f7265737300000000000000000000000000000000000000000000000000000000602082015250565b60006157a7602483613be8565b91506157b28261574b565b604082019050919050565b600060208201905081810360008301526157d68161579a565b9050919050565b7f45524332303a20617070726f766520746f20746865207a65726f20616464726560008201527f7373000000000000000000000000000000000000000000000000000000000000602082015250565b6000615839602283613be8565b9150615844826157dd565b604082019050919050565b600060208201905081810360008301526158688161582c565b9050919050565b7f45524332303a20696e73756666696369656e7420616c6c6f77616e6365000000600082015250565b60006158a5601d83613be8565b91506158b08261586f565b602082019050919050565b600060208201905081810360008301526158d481615898565b9050919050565b7f45524332303a207472616e736665722066726f6d20746865207a65726f20616460008201527f6472657373000000000000000000000000000000000000000000000000000000602082015250565b6000615937602583613be8565b9150615942826158db565b604082019050919050565b600060208201905081810360008301526159668161592a565b9050919050565b7f45524332303a207472616e7366657220746f20746865207a65726f206164647260008201527f6573730000000000000000000000000000000000000000000000000000000000602082015250565b60006159c9602383613be8565b91506159d48261596d565b604082019050919050565b600060208201905081810360008301526159f8816159bc565b9050919050565b7f45524332303a207472616e7366657220616d6f756e742065786365656473206260008201527f616c616e63650000000000000000000000000000000000000000000000000000602082015250565b6000615a5b602683613be8565b9150615a66826159ff565b604082019050919050565b60006020820190508181036000830152615a8a81615a4e565b9050919050565b7f45524332303a206d696e7420746f20746865207a65726f206164647265737300600082015250565b6000615ac7601f83613be8565b9150615ad282615a91565b602082019050919050565b60006020820190508181036000830152615af681615aba565b905091905056fea264697066735822122053882a1310a183fd106baf39abd0945413dfb7279b4c627f10794cd5dbf4d0de64736f6c63430008130033",
  "linkReferences": {},
  "deployedLinkReferences": {}
}