{
  "_format": "hh-sol-artifact-1",
  "contractName": "TouristConTract",
  "sourceName": "contracts/Tourism.sol",
  "abi": [
    {
      "inputs": [],
      "stateMutability": "nonpayable",
      "type": "constructor"
    },
    {
      "anonymous": false,
      "inputs": [
        {
          "indexed": false,
          "internalType": "string",
          "name": "nameDestination",
          "type": "string"
        },
        {
          "indexed": false,
          "internalType": "string",
          "name": "nameAlbum",
          "type": "string"
        }
      ],
      "name": "AddDestinationInAlbum",
      "type": "event"
    },
    {
      "anonymous": false,
      "inputs": [
        {
          "indexed": false,
          "internalType": "string",
          "name": "AlbumName",
          "type": "string"
        },
        {
          "components": [
            {
              "internalType": "uint256",
              "name": "placeId",
              "type": "uint256"
            },
            {
              "internalType": "uint256",
              "name": "arrivalDate",
              "type": "uint256"
            },
            {
              "internalType": "string",
              "name": "review",
              "type": "string"
            },
            {
              "internalType": "uint256",
              "name": "rate",
              "type": "uint256"
            },
            {
              "internalType": "bool",
              "name": "isReview",
              "type": "bool"
            },
            {
              "internalType": "string",
              "name": "title",
              "type": "string"
            }
          ],
          "indexed": false,
          "internalType": "struct TouristConTract.Journey",
          "name": "journey",
          "type": "tuple"
        }
      ],
      "name": "AddJourneyInAlbum",
      "type": "event"
    },
    {
      "anonymous": false,
      "inputs": [
        {
          "indexed": false,
          "internalType": "string",
          "name": "name",
          "type": "string"
        },
        {
          "indexed": false,
          "internalType": "uint256",
          "name": "age",
          "type": "uint256"
        }
      ],
      "name": "AddTourist",
      "type": "event"
    },
    {
      "anonymous": false,
      "inputs": [
        {
          "indexed": true,
          "internalType": "address",
          "name": "owner",
          "type": "address"
        },
        {
          "indexed": true,
          "internalType": "address",
          "name": "spender",
          "type": "address"
        },
        {
          "indexed": false,
          "internalType": "uint256",
          "name": "value",
          "type": "uint256"
        }
      ],
      "name": "Approval",
      "type": "event"
    },
    {
      "anonymous": false,
      "inputs": [
        {
          "indexed": false,
          "internalType": "uint256",
          "name": "ticketId",
          "type": "uint256"
        },
        {
          "indexed": false,
          "internalType": "uint256",
          "name": "placeId",
          "type": "uint256"
        }
      ],
      "name": "CheckIn",
      "type": "event"
    },
    {
      "anonymous": false,
      "inputs": [
        {
          "indexed": false,
          "internalType": "uint256",
          "name": "_id",
          "type": "uint256"
        },
        {
          "indexed": false,
          "internalType": "string",
          "name": "_name",
          "type": "string"
        }
      ],
      "name": "CreateAlbum",
      "type": "event"
    },
    {
      "anonymous": false,
      "inputs": [
        {
          "indexed": true,
          "internalType": "address",
          "name": "from",
          "type": "address"
        },
        {
          "indexed": true,
          "internalType": "address",
          "name": "to",
          "type": "address"
        },
        {
          "indexed": false,
          "internalType": "uint256",
          "name": "value",
          "type": "uint256"
        }
      ],
      "name": "Transfer",
      "type": "event"
    },
    {
      "inputs": [
        {
          "internalType": "address",
          "name": "_signer",
          "type": "address"
        },
        {
          "internalType": "address",
          "name": "_to",
          "type": "address"
        },
        {
          "internalType": "uint256",
          "name": "_amount",
          "type": "uint256"
        },
        {
          "internalType": "string",
          "name": "_message",
          "type": "string"
        },
        {
          "internalType": "uint256",
          "name": "_nonce",
          "type": "uint256"
        },
        {
          "internalType": "bytes",
          "name": "signature",
          "type": "bytes"
        }
      ],
      "name": "_mintMinerReward",
      "outputs": [],
      "stateMutability": "nonpayable",
      "type": "function"
    },
    {
      "inputs": [
        {
          "internalType": "uint256",
          "name": "placeId",
          "type": "uint256"
        },
        {
          "internalType": "uint256",
          "name": "albumId",
          "type": "uint256"
        },
        {
          "internalType": "uint256",
          "name": "date",
          "type": "uint256"
        }
      ],
      "name": "addAlbumJourney",
      "outputs": [],
      "stateMutability": "nonpayable",
      "type": "function"
    },
    {
      "inputs": [
        {
          "internalType": "uint256",
          "name": "index",
          "type": "uint256"
        },
        {
          "internalType": "string",
          "name": "name",
          "type": "string"
        }
      ],
      "name": "addDestination",
      "outputs": [],
      "stateMutability": "nonpayable",
      "type": "function"
    },
    {
      "inputs": [
        {
          "internalType": "uint256",
          "name": "desIndex",
          "type": "uint256"
        },
        {
          "internalType": "uint256",
          "name": "albumId",
          "type": "uint256"
        }
      ],
      "name": "addDestinationInAlbum",
      "outputs": [],
      "stateMutability": "nonpayable",
      "type": "function"
    },
    {
      "inputs": [
        {
          "internalType": "uint256",
          "name": "id",
          "type": "uint256"
        }
      ],
      "name": "addTicket",
      "outputs": [],
      "stateMutability": "nonpayable",
      "type": "function"
    },
    {
      "inputs": [
        {
          "internalType": "address",
          "name": "",
          "type": "address"
        },
        {
          "internalType": "uint256",
          "name": "",
          "type": "uint256"
        },
        {
          "internalType": "uint256",
          "name": "",
          "type": "uint256"
        }
      ],
      "name": "albumDestination",
      "outputs": [
        {
          "internalType": "uint256",
          "name": "index",
          "type": "uint256"
        },
        {
          "internalType": "string",
          "name": "desName",
          "type": "string"
        }
      ],
      "stateMutability": "view",
      "type": "function"
    },
    {
      "inputs": [
        {
          "internalType": "address",
          "name": "",
          "type": "address"
        },
        {
          "internalType": "uint256",
          "name": "",
          "type": "uint256"
        },
        {
          "internalType": "uint256",
          "name": "",
          "type": "uint256"
        }
      ],
      "name": "albumJourneys",
      "outputs": [
        {
          "internalType": "uint256",
          "name": "placeId",
          "type": "uint256"
        },
        {
          "internalType": "uint256",
          "name": "arrivalDate",
          "type": "uint256"
        },
        {
          "internalType": "string",
          "name": "review",
          "type": "string"
        },
        {
          "internalType": "uint256",
          "name": "rate",
          "type": "uint256"
        },
        {
          "internalType": "bool",
          "name": "isReview",
          "type": "bool"
        },
        {
          "internalType": "string",
          "name": "title",
          "type": "string"
        }
      ],
      "stateMutability": "view",
      "type": "function"
    },
    {
      "inputs": [
        {
          "internalType": "address",
          "name": "owner",
          "type": "address"
        },
        {
          "internalType": "address",
          "name": "spender",
          "type": "address"
        }
      ],
      "name": "allowance",
      "outputs": [
        {
          "internalType": "uint256",
          "name": "",
          "type": "uint256"
        }
      ],
      "stateMutability": "view",
      "type": "function"
    },
    {
      "inputs": [
        {
          "internalType": "address",
          "name": "spender",
          "type": "address"
        },
        {
          "internalType": "uint256",
          "name": "amount",
          "type": "uint256"
        }
      ],
      "name": "approve",
      "outputs": [
        {
          "internalType": "bool",
          "name": "",
          "type": "bool"
        }
      ],
      "stateMutability": "nonpayable",
      "type": "function"
    },
    {
      "inputs": [
        {
          "internalType": "address",
          "name": "account",
          "type": "address"
        }
      ],
      "name": "balanceOf",
      "outputs": [
        {
          "internalType": "uint256",
          "name": "",
          "type": "uint256"
        }
      ],
      "stateMutability": "view",
      "type": "function"
    },
    {
      "inputs": [
        {
          "internalType": "uint256",
          "name": "ticketID",
          "type": "uint256"
        },
        {
          "internalType": "uint256",
          "name": "placeID",
          "type": "uint256"
        }
      ],
      "name": "checkIn",
      "outputs": [],
      "stateMutability": "nonpayable",
      "type": "function"
    },
    {
      "inputs": [
        {
          "internalType": "uint256",
          "name": "ticketID",
          "type": "uint256"
        }
      ],
      "name": "checkValidTicket",
      "outputs": [
        {
          "internalType": "bool",
          "name": "",
          "type": "bool"
        }
      ],
      "stateMutability": "view",
      "type": "function"
    },
    {
      "inputs": [
        {
          "internalType": "bytes32",
          "name": "_hashedMessage",
          "type": "bytes32"
        },
        {
          "internalType": "uint8",
          "name": "_v",
          "type": "uint8"
        },
        {
          "internalType": "bytes32",
          "name": "_r",
          "type": "bytes32"
        },
        {
          "internalType": "bytes32",
          "name": "_s",
          "type": "bytes32"
        }
      ],
      "name": "claimPrize",
      "outputs": [
        {
          "internalType": "bool",
          "name": "",
          "type": "bool"
        }
      ],
      "stateMutability": "view",
      "type": "function"
    },
    {
      "inputs": [
        {
          "internalType": "uint256",
          "name": "_id",
          "type": "uint256"
        },
        {
          "internalType": "string",
          "name": "_name",
          "type": "string"
        }
      ],
      "name": "createAlbum",
      "outputs": [],
      "stateMutability": "nonpayable",
      "type": "function"
    },
    {
      "inputs": [],
      "name": "decimals",
      "outputs": [
        {
          "internalType": "uint8",
          "name": "",
          "type": "uint8"
        }
      ],
      "stateMutability": "view",
      "type": "function"
    },
    {
      "inputs": [
        {
          "internalType": "address",
          "name": "spender",
          "type": "address"
        },
        {
          "internalType": "uint256",
          "name": "subtractedValue",
          "type": "uint256"
        }
      ],
      "name": "decreaseAllowance",
      "outputs": [
        {
          "internalType": "bool",
          "name": "",
          "type": "bool"
        }
      ],
      "stateMutability": "nonpayable",
      "type": "function"
    },
    {
      "inputs": [
        {
          "internalType": "uint256",
          "name": "",
          "type": "uint256"
        },
        {
          "internalType": "uint256",
          "name": "",
          "type": "uint256"
        }
      ],
      "name": "destinationRates",
      "outputs": [
        {
          "internalType": "uint256",
          "name": "",
          "type": "uint256"
        }
      ],
      "stateMutability": "view",
      "type": "function"
    },
    {
      "inputs": [
        {
          "internalType": "uint256",
          "name": "",
          "type": "uint256"
        },
        {
          "internalType": "uint256",
          "name": "",
          "type": "uint256"
        }
      ],
      "name": "destinationReviews",
      "outputs": [
        {
          "internalType": "string",
          "name": "",
          "type": "string"
        }
      ],
      "stateMutability": "view",
      "type": "function"
    },
    {
      "inputs": [
        {
          "internalType": "uint256",
          "name": "id",
          "type": "uint256"
        }
      ],
      "name": "getAlbumCheckIn",
      "outputs": [
        {
          "components": [
            {
              "internalType": "uint256",
              "name": "placeId",
              "type": "uint256"
            },
            {
              "internalType": "uint256",
              "name": "arrivalDate",
              "type": "uint256"
            },
            {
              "internalType": "string",
              "name": "review",
              "type": "string"
            },
            {
              "internalType": "uint256",
              "name": "rate",
              "type": "uint256"
            },
            {
              "internalType": "bool",
              "name": "isReview",
              "type": "bool"
            },
            {
              "internalType": "string",
              "name": "title",
              "type": "string"
            }
          ],
          "internalType": "struct TouristConTract.Journey[]",
          "name": "",
          "type": "tuple[]"
        }
      ],
      "stateMutability": "view",
      "type": "function"
    },
    {
      "inputs": [
        {
          "internalType": "uint256",
          "name": "id",
          "type": "uint256"
        }
      ],
      "name": "getAlbumNotCheckIn",
      "outputs": [
        {
          "components": [
            {
              "internalType": "uint256",
              "name": "index",
              "type": "uint256"
            },
            {
              "internalType": "string",
              "name": "desName",
              "type": "string"
            }
          ],
          "internalType": "struct TouristConTract.Destination[]",
          "name": "",
          "type": "tuple[]"
        }
      ],
      "stateMutability": "view",
      "type": "function"
    },
    {
      "inputs": [],
      "name": "getAllDestination",
      "outputs": [
        {
          "components": [
            {
              "internalType": "uint256",
              "name": "index",
              "type": "uint256"
            },
            {
              "internalType": "string",
              "name": "desName",
              "type": "string"
            }
          ],
          "internalType": "struct TouristConTract.Destination[]",
          "name": "",
          "type": "tuple[]"
        }
      ],
      "stateMutability": "view",
      "type": "function"
    },
    {
      "inputs": [],
      "name": "getAllJourney",
      "outputs": [
        {
          "components": [
            {
              "internalType": "uint256",
              "name": "placeId",
              "type": "uint256"
            },
            {
              "internalType": "uint256",
              "name": "arrivalDate",
              "type": "uint256"
            },
            {
              "internalType": "string",
              "name": "review",
              "type": "string"
            },
            {
              "internalType": "uint256",
              "name": "rate",
              "type": "uint256"
            },
            {
              "internalType": "bool",
              "name": "isReview",
              "type": "bool"
            },
            {
              "internalType": "string",
              "name": "title",
              "type": "string"
            }
          ],
          "internalType": "struct TouristConTract.Journey[]",
          "name": "",
          "type": "tuple[]"
        }
      ],
      "stateMutability": "view",
      "type": "function"
    },
    {
      "inputs": [
        {
          "internalType": "uint256",
          "name": "placeid",
          "type": "uint256"
        }
      ],
      "name": "getAllRates",
      "outputs": [
        {
          "internalType": "uint256[]",
          "name": "",
          "type": "uint256[]"
        }
      ],
      "stateMutability": "view",
      "type": "function"
    },
    {
      "inputs": [
        {
          "internalType": "uint256",
          "name": "placeid",
          "type": "uint256"
        }
      ],
      "name": "getAllReviews",
      "outputs": [
        {
          "internalType": "string[]",
          "name": "",
          "type": "string[]"
        }
      ],
      "stateMutability": "view",
      "type": "function"
    },
    {
      "inputs": [
        {
          "internalType": "address",
          "name": "add",
          "type": "address"
        }
      ],
      "name": "getBalance",
      "outputs": [
        {
          "internalType": "uint256",
          "name": "",
          "type": "uint256"
        }
      ],
      "stateMutability": "view",
      "type": "function"
    },
    {
      "inputs": [
        {
          "internalType": "bytes32",
          "name": "_messageHash",
          "type": "bytes32"
        }
      ],
      "name": "getEthSignedMessageHash",
      "outputs": [
        {
          "internalType": "bytes32",
          "name": "",
          "type": "bytes32"
        }
      ],
      "stateMutability": "pure",
      "type": "function"
    },
    {
      "inputs": [
        {
          "internalType": "address",
          "name": "_to",
          "type": "address"
        },
        {
          "internalType": "uint256",
          "name": "_amount",
          "type": "uint256"
        },
        {
          "internalType": "string",
          "name": "_message",
          "type": "string"
        },
        {
          "internalType": "uint256",
          "name": "_nonce",
          "type": "uint256"
        }
      ],
      "name": "getMessageHash",
      "outputs": [
        {
          "internalType": "bytes32",
          "name": "",
          "type": "bytes32"
        }
      ],
      "stateMutability": "pure",
      "type": "function"
    },
    {
      "inputs": [
        {
          "internalType": "address",
          "name": "userAddress",
          "type": "address"
        },
        {
          "internalType": "uint256",
          "name": "role",
          "type": "uint256"
        }
      ],
      "name": "grantRole",
      "outputs": [],
      "stateMutability": "nonpayable",
      "type": "function"
    },
    {
      "inputs": [
        {
          "internalType": "address",
          "name": "spender",
          "type": "address"
        },
        {
          "internalType": "uint256",
          "name": "addedValue",
          "type": "uint256"
        }
      ],
      "name": "increaseAllowance",
      "outputs": [
        {
          "internalType": "bool",
          "name": "",
          "type": "bool"
        }
      ],
      "stateMutability": "nonpayable",
      "type": "function"
    },
    {
      "inputs": [],
      "name": "name",
      "outputs": [
        {
          "internalType": "string",
          "name": "",
          "type": "string"
        }
      ],
      "stateMutability": "view",
      "type": "function"
    },
    {
      "inputs": [
        {
          "internalType": "uint256",
          "name": "",
          "type": "uint256"
        }
      ],
      "name": "noPeopleCheckIn",
      "outputs": [
        {
          "internalType": "uint256",
          "name": "",
          "type": "uint256"
        }
      ],
      "stateMutability": "view",
      "type": "function"
    },
    {
      "inputs": [
        {
          "internalType": "uint256",
          "name": "",
          "type": "uint256"
        }
      ],
      "name": "noPeopleRate",
      "outputs": [
        {
          "internalType": "uint256",
          "name": "",
          "type": "uint256"
        }
      ],
      "stateMutability": "view",
      "type": "function"
    },
    {
      "inputs": [
        {
          "internalType": "bytes32",
          "name": "_ethSignedMessageHash",
          "type": "bytes32"
        },
        {
          "internalType": "bytes",
          "name": "_signature",
          "type": "bytes"
        }
      ],
      "name": "recoverSigner",
      "outputs": [
        {
          "internalType": "address",
          "name": "",
          "type": "address"
        }
      ],
      "stateMutability": "pure",
      "type": "function"
    },
    {
      "inputs": [
        {
          "internalType": "string",
          "name": "name",
          "type": "string"
        },
        {
          "internalType": "uint256",
          "name": "age",
          "type": "uint256"
        }
      ],
      "name": "register",
      "outputs": [],
      "stateMutability": "nonpayable",
      "type": "function"
    },
    {
      "inputs": [
        {
          "internalType": "uint256",
          "name": "placeId",
          "type": "uint256"
        },
        {
          "internalType": "uint256",
          "name": "arrDate",
          "type": "uint256"
        },
        {
          "internalType": "string",
          "name": "comment",
          "type": "string"
        },
        {
          "internalType": "uint256",
          "name": "rate",
          "type": "uint256"
        },
        {
          "internalType": "string",
          "name": "title",
          "type": "string"
        }
      ],
      "name": "review",
      "outputs": [],
      "stateMutability": "nonpayable",
      "type": "function"
    },
    {
      "inputs": [
        {
          "internalType": "bytes",
          "name": "sig",
          "type": "bytes"
        }
      ],
      "name": "splitSignature",
      "outputs": [
        {
          "internalType": "bytes32",
          "name": "r",
          "type": "bytes32"
        },
        {
          "internalType": "bytes32",
          "name": "s",
          "type": "bytes32"
        },
        {
          "internalType": "uint8",
          "name": "v",
          "type": "uint8"
        }
      ],
      "stateMutability": "pure",
      "type": "function"
    },
    {
      "inputs": [],
      "name": "symbol",
      "outputs": [
        {
          "internalType": "string",
          "name": "",
          "type": "string"
        }
      ],
      "stateMutability": "view",
      "type": "function"
    },
    {
      "inputs": [],
      "name": "totalSupply",
      "outputs": [
        {
          "internalType": "uint256",
          "name": "",
          "type": "uint256"
        }
      ],
      "stateMutability": "view",
      "type": "function"
    },
    {
      "inputs": [
        {
          "internalType": "address",
          "name": "",
          "type": "address"
        },
        {
          "internalType": "uint256",
          "name": "",
          "type": "uint256"
        }
      ],
      "name": "touristAlbums",
      "outputs": [
        {
          "internalType": "uint256",
          "name": "id",
          "type": "uint256"
        },
        {
          "internalType": "string",
          "name": "name",
          "type": "string"
        }
      ],
      "stateMutability": "view",
      "type": "function"
    },
    {
      "inputs": [
        {
          "internalType": "address",
          "name": "",
          "type": "address"
        }
      ],
      "name": "touristIdentify",
      "outputs": [
        {
          "internalType": "string",
          "name": "name",
          "type": "string"
        },
        {
          "internalType": "uint256",
          "name": "age",
          "type": "uint256"
        },
        {
          "internalType": "bool",
          "name": "signup",
          "type": "bool"
        },
        {
          "internalType": "address",
          "name": "touristAddress",
          "type": "address"
        }
      ],
      "stateMutability": "view",
      "type": "function"
    },
    {
      "inputs": [
        {
          "internalType": "address",
          "name": "",
          "type": "address"
        },
        {
          "internalType": "uint256",
          "name": "",
          "type": "uint256"
        }
      ],
      "name": "touristJourneys",
      "outputs": [
        {
          "internalType": "uint256",
          "name": "placeId",
          "type": "uint256"
        },
        {
          "internalType": "uint256",
          "name": "arrivalDate",
          "type": "uint256"
        },
        {
          "internalType": "string",
          "name": "review",
          "type": "string"
        },
        {
          "internalType": "uint256",
          "name": "rate",
          "type": "uint256"
        },
        {
          "internalType": "bool",
          "name": "isReview",
          "type": "bool"
        },
        {
          "internalType": "string",
          "name": "title",
          "type": "string"
        }
      ],
      "stateMutability": "view",
      "type": "function"
    },
    {
      "inputs": [
        {
          "internalType": "address",
          "name": "to",
          "type": "address"
        },
        {
          "internalType": "uint256",
          "name": "amount",
          "type": "uint256"
        }
      ],
      "name": "transfer",
      "outputs": [
        {
          "internalType": "bool",
          "name": "",
          "type": "bool"
        }
      ],
      "stateMutability": "nonpayable",
      "type": "function"
    },
    {
      "inputs": [
        {
          "internalType": "address",
          "name": "from",
          "type": "address"
        },
        {
          "internalType": "address",
          "name": "to",
          "type": "address"
        },
        {
          "internalType": "uint256",
          "name": "amount",
          "type": "uint256"
        }
      ],
      "name": "transferFrom",
      "outputs": [
        {
          "internalType": "bool",
          "name": "",
          "type": "bool"
        }
      ],
      "stateMutability": "nonpayable",
      "type": "function"
    },
    {
      "inputs": [
        {
          "internalType": "uint256",
          "name": "id",
          "type": "uint256"
        }
      ],
      "name": "validAddIDTicket",
      "outputs": [
        {
          "internalType": "bool",
          "name": "",
          "type": "bool"
        }
      ],
      "stateMutability": "view",
      "type": "function"
    },
    {
      "inputs": [
        {
          "internalType": "address",
          "name": "_signer",
          "type": "address"
        },
        {
          "internalType": "address",
          "name": "_to",
          "type": "address"
        },
        {
          "internalType": "uint256",
          "name": "_amount",
          "type": "uint256"
        },
        {
          "internalType": "string",
          "name": "_message",
          "type": "string"
        },
        {
          "internalType": "uint256",
          "name": "_nonce",
          "type": "uint256"
        },
        {
          "internalType": "bytes",
          "name": "signature",
          "type": "bytes"
        }
      ],
      "name": "verify",
      "outputs": [
        {
          "internalType": "bool",
          "name": "",
          "type": "bool"
        }
      ],
      "stateMutability": "pure",
      "type": "function"
    }
  ],
  "bytecode": "0x60806040523480156200001157600080fd5b506040518060400160405280600781526020017f4443546f6b656e000000000000000000000000000000000000000000000000008152506040518060400160405280600281526020017f587500000000000000000000000000000000000000000000000000000000000081525081600390816200008f9190620017cc565b508060049081620000a19190620017cc565b505050600a6040518060400160405280600181526020016040518060400160405280601581526020017f52e1bbab6e67205472c3a06d205472c3a02053c6b0000000000000000000000081525081525090806001815401808255809150506001900390600052602060002090600202016000909190919091506000820151816000015560208201518160010190816200013b9190620017cc565b505050600a6040518060400160405280600281526020016040518060400160405280601581526020017f48e1bb932026204368c3b9612054c3a02050e1baa100000000000000000000008152508152509080600181540180825580915050600190039060005260206000209060020201600090919091909150600082015181600001556020820151816001019081620001d59190620017cc565b505050600a6040518060400160405280600381526020016040518060400160405280600b81526020017f48e1bb93204c6174696e6100000000000000000000000000000000000000000081525081525090806001815401808255809150506001900390600052602060002090600202016000909190919091506000820151816000015560208201518160010190816200026f9190620017cc565b505050600a6040518060400160405280600481526020016040518060400160405280600d81526020017f4368c3b961204b6f68204b6173000000000000000000000000000000000000008152508152509080600181540180825580915050600190039060005260206000209060020201600090919091909150600082015181600001556020820151816001019081620003099190620017cc565b505050600a6040518060400160405280600681526020016040518060400160405280601781526020017f42c3ba6e2063c3a1204869e1babf7520546875e1baad6e0000000000000000008152508152509080600181540180825580915050600190039060005260206000209060020201600090919091909150600082015181600001556020820151816001019081620003a39190620017cc565b505050600a6040518060400160405280600581526020016040518060400160405280601e81526020017f4d69e1babf752042c3a0204368c3ba612058e1bba9204ec3ba692053616d000081525081525090806001815401808255809150506001900390600052602060002090600202016000909190919091506000820151816000015560208201518160010190816200043d9190620017cc565b505050600a6040518060400160405280600781526020016040518060600160405280602d8152602001620077f2602d91398152509080600181540180825580915050600190039060005260206000209060020201600090919091909150600082015181600001556020820151816001019081620004bb9190620017cc565b505050600a60405180604001604052806008815260200160405180606001604052806034815260200162007872603491398152509080600181540180825580915050600190039060005260206000209060020201600090919091909150600082015181600001556020820151816001019081620005399190620017cc565b505050600a604051806040016040528060098152602001604051806060016040528060318152602001620078c9603191398152509080600181540180825580915050600190039060005260206000209060020201600090919091909150600082015181600001556020820151816001019081620005b79190620017cc565b505050600a6040518060400160405280600a81526020016040518060600160405280602581526020016200781f602591398152509080600181540180825580915050600190039060005260206000209060020201600090919091909150600082015181600001556020820151816001019081620006359190620017cc565b505050600a6040518060400160405280600b81526020016040518060600160405280602e815260200162007844602e91398152509080600181540180825580915050600190039060005260206000209060020201600090919091909150600082015181600001556020820151816001019081620006b39190620017cc565b505050600a6040518060400160405280600c81526020016040518060400160405280601481526020017f53414e47204e4855204e474f43205245534f525400000000000000000000000081525081525090806001815401808255809150506001900390600052602060002090600202016000909190919091506000820151816000015560208201518160010190816200074d9190620017cc565b505050600a6040518060400160405280600d81526020016040518060400160405280601981526020017f4b68c3a163682073e1baa16e206368c3a275207469e1babf6e000000000000008152508152509080600181540180825580915050600190039060005260206000209060020201600090919091909150600082015181600001556020820151816001019081620007e79190620017cc565b505050600a6040518060400160405280600e81526020016040518060600160405280603c8152602001620077b6603c91398152509080600181540180825580915050600190039060005260206000209060020201600090919091909150600082015181600001556020820151816001019081620008659190620017cc565b505050600a6040518060400160405280600f81526020016040518060400160405280601781526020017f446f6e672042616f20486f74656c20416e204769616e670000000000000000008152508152509080600181540180825580915050600190039060005260206000209060020201600090919091909150600082015181600001556020820151816001019081620008ff9190620017cc565b505050600a6040518060400160405280601081526020016040518060400160405280601c81526020017f5472e1baa1692043c3a12053e1baa575204c6f6e6720587579c3aa6e000000008152508152509080600181540180825580915050600190039060005260206000209060020201600090919091909150600082015181600001556020820151816001019081620009999190620017cc565b505050600a6040518060400160405280601181526020016040518060400160405280601f81526020017f466c7968696768205472616d706f6c696e65205061726b20566965746e616d00815250815250908060018154018082558091505060019003906000526020600020906002020160009091909190915060008201518160000155602082015181600101908162000a339190620017cc565b505050600a6040518060400160405280601281526020016040518060400160405280601581526020017f5468616e68204c6f6e67205761746572205061726b0000000000000000000000815250815250908060018154018082558091505060019003906000526020600020906002020160009091909190915060008201518160000155602082015181600101908162000acd9190620017cc565b505050600a604051806040016040528060138152602001604051806060016040528060238152602001620078a660239139815250908060018154018082558091505060019003906000526020600020906002020160009091909190915060008201518160000155602082015181600101908162000b4b9190620017cc565b505050600a6040518060400160405280601481526020016040518060400160405280601781526020017f43c3b46e67207669c3aa6e204de1bbb9205468e1bb9b69000000000000000000815250815250908060018154018082558091505060019003906000526020600020906002020160009091909190915060008201518160000155602082015181600101908162000be59190620017cc565b50505060096040518060400160405280600181526020016000151581525090806001815401808255809150506001900390600052602060002090600202016000909190919091506000820151816000015560208201518160010160006101000a81548160ff021916908315150217905550505060096040518060400160405280600281526020016000151581525090806001815401808255809150506001900390600052602060002090600202016000909190919091506000820151816000015560208201518160010160006101000a81548160ff021916908315150217905550505060096040518060400160405280600381526020016000151581525090806001815401808255809150506001900390600052602060002090600202016000909190919091506000820151816000015560208201518160010160006101000a81548160ff021916908315150217905550505060096040518060400160405280600481526020016000151581525090806001815401808255809150506001900390600052602060002090600202016000909190919091506000820151816000015560208201518160010160006101000a81548160ff021916908315150217905550505060096040518060400160405280600581526020016000151581525090806001815401808255809150506001900390600052602060002090600202016000909190919091506000820151816000015560208201518160010160006101000a81548160ff021916908315150217905550505060096040518060400160405280600681526020016000151581525090806001815401808255809150506001900390600052602060002090600202016000909190919091506000820151816000015560208201518160010160006101000a81548160ff021916908315150217905550505060096040518060400160405280600781526020016000151581525090806001815401808255809150506001900390600052602060002090600202016000909190919091506000820151816000015560208201518160010160006101000a81548160ff021916908315150217905550505060096040518060400160405280600881526020016000151581525090806001815401808255809150506001900390600052602060002090600202016000909190919091506000820151816000015560208201518160010160006101000a81548160ff021916908315150217905550505060096040518060400160405280600981526020016000151581525090806001815401808255809150506001900390600052602060002090600202016000909190919091506000820151816000015560208201518160010160006101000a81548160ff021916908315150217905550505060096040518060400160405280600a81526020016000151581525090806001815401808255809150506001900390600052602060002090600202016000909190919091506000820151816000015560208201518160010160006101000a81548160ff021916908315150217905550505060096040518060400160405280600b81526020016000151581525090806001815401808255809150506001900390600052602060002090600202016000909190919091506000820151816000015560208201518160010160006101000a81548160ff021916908315150217905550505060096040518060400160405280600c81526020016000151581525090806001815401808255809150506001900390600052602060002090600202016000909190919091506000820151816000015560208201518160010160006101000a81548160ff021916908315150217905550505060096040518060400160405280600d81526020016000151581525090806001815401808255809150506001900390600052602060002090600202016000909190919091506000820151816000015560208201518160010160006101000a81548160ff021916908315150217905550505060096040518060400160405280600e81526020016000151581525090806001815401808255809150506001900390600052602060002090600202016000909190919091506000820151816000015560208201518160010160006101000a81548160ff021916908315150217905550505060096040518060400160405280600f81526020016000151581525090806001815401808255809150506001900390600052602060002090600202016000909190919091506000820151816000015560208201518160010160006101000a81548160ff021916908315150217905550505060096040518060400160405280601081526020016000151581525090806001815401808255809150506001900390600052602060002090600202016000909190919091506000820151816000015560208201518160010160006101000a81548160ff021916908315150217905550505060096040518060400160405280601181526020016000151581525090806001815401808255809150506001900390600052602060002090600202016000909190919091506000820151816000015560208201518160010160006101000a81548160ff021916908315150217905550505060096040518060400160405280601281526020016000151581525090806001815401808255809150506001900390600052602060002090600202016000909190919091506000820151816000015560208201518160010160006101000a81548160ff021916908315150217905550505060096040518060400160405280601381526020016000151581525090806001815401808255809150506001900390600052602060002090600202016000909190919091506000820151816000015560208201518160010160006101000a81548160ff021916908315150217905550505060096040518060400160405280601481526020016000151581525090806001815401808255809150506001900390600052602060002090600202016000909190919091506000820151816000015560208201518160010160006101000a81548160ff02191690831515021790555050506006339080600181540180825580915050600190039060005260206000200160009091909190916101000a81548173ffffffffffffffffffffffffffffffffffffffff021916908373ffffffffffffffffffffffffffffffffffffffff16021790555033600560006101000a81548173ffffffffffffffffffffffffffffffffffffffff021916908373ffffffffffffffffffffffffffffffffffffffff160217905550620018b3565b600081519050919050565b7f4e487b7100000000000000000000000000000000000000000000000000000000600052604160045260246000fd5b7f4e487b7100000000000000000000000000000000000000000000000000000000600052602260045260246000fd5b60006002820490506001821680620015d457607f821691505b602082108103620015ea57620015e96200158c565b5b50919050565b60008190508160005260206000209050919050565b60006020601f8301049050919050565b600082821b905092915050565b600060088302620016547fffffffffffffffffffffffffffffffffffffffffffffffffffffffffffffffff8262001615565b62001660868362001615565b95508019841693508086168417925050509392505050565b6000819050919050565b6000819050919050565b6000620016ad620016a7620016a18462001678565b62001682565b62001678565b9050919050565b6000819050919050565b620016c9836200168c565b620016e1620016d882620016b4565b84845462001622565b825550505050565b600090565b620016f8620016e9565b62001705818484620016be565b505050565b5b818110156200172d5762001721600082620016ee565b6001810190506200170b565b5050565b601f8211156200177c576200174681620015f0565b620017518462001605565b8101602085101562001761578190505b62001779620017708562001605565b8301826200170a565b50505b505050565b600082821c905092915050565b6000620017a16000198460080262001781565b1980831691505092915050565b6000620017bc83836200178e565b9150826002028217905092915050565b620017d78262001552565b67ffffffffffffffff811115620017f357620017f26200155d565b5b620017ff8254620015bb565b6200180c82828562001731565b600060209050601f8311600181146200184457600084156200182f578287015190505b6200183b8582620017ae565b865550620018ab565b601f1984166200185486620015f0565b60005b828110156200187e5784890151825560018201915060208501945060208101905062001857565b868310156200189e57848901516200189a601f8916826200178e565b8355505b6001600288020188555050505b505050505050565b615ef380620018c36000396000f3fe608060405234801561001057600080fd5b506004361061027f5760003560e01c806393f405211161015c578063b2745930116100ce578063ea87152b11610087578063ea87152b146108d4578063ebfbdec9146108f0578063f2fa49b414610920578063f516f88e14610955578063f8b2cb4f14610971578063fa540801146109a15761027f565b8063b2745930146107dc578063b42913191461080c578063b9c3b1b914610828578063be4755a114610858578063dd62ed3e14610888578063ddb0225e146108b85761027f565b8063a35f8a4011610120578063a35f8a40146106ce578063a457c2d7146106fe578063a7bb58031461072e578063a9059cbb14610760578063abe5026a14610790578063b2162415146107c05761027f565b806393f40521146105f057806395d89b411461062057806397aba7f91461063e5780639e26c4941461066e5780639f7bdca11461069e5761027f565b80636012f3be116101f557806370a08231116101b957806370a0823114610509578063732a7c25146105395780637885215914610555578063789024221461058657806388fbd65b146105b657806390db6a20146105d25761027f565b80636012f3be1461043d578063625336651461046e57806363f8f213146104a15780636787d244146104bd578063701a0e0d146104ed5761027f565b8063285f293b11610247578063285f293b1461033e578063313ce5671461036e578063374936821461038c57806339509351146103c15780633c09e2fd146103f15780635cab0d001461040d5761027f565b806306fdde0314610284578063095ea7b3146102a25780630f13090e146102d257806318160ddd146102f057806323b872dd1461030e575b600080fd5b61028c6109d1565b6040516102999190613eca565b60405180910390f35b6102bc60048036038101906102b79190613f94565b610a63565b6040516102c99190613fef565b60405180910390f35b6102da610a86565b6040516102e791906141c4565b60405180910390f35b6102f8610c7f565b60405161030591906141f5565b60405180910390f35b61032860048036038101906103239190614210565b610c89565b6040516103359190613fef565b60405180910390f35b61035860048036038101906103539190614263565b610cb8565b60405161036591906141c4565b60405180910390f35b610376610ec4565b60405161038391906142ac565b60405180910390f35b6103a660048036038101906103a19190613f94565b610ecd565b6040516103b8969594939291906142c7565b60405180910390f35b6103db60048036038101906103d69190613f94565b611043565b6040516103e89190613fef565b60405180910390f35b61040b60048036038101906104069190613f94565b61107a565b005b61042760048036038101906104229190614263565b611289565b60405161043491906141f5565b60405180910390f35b61045760048036038101906104529190613f94565b6112a1565b604051610465929190614336565b60405180910390f35b61048860048036038101906104839190614366565b61136a565b60405161049894939291906143a2565b60405180910390f35b6104bb60048036038101906104b69190614523565b61144f565b005b6104d760048036038101906104d2919061457f565b6115e9565b6040516104e49190613eca565b60405180910390f35b610507600480360381019061050291906145bf565b6116a2565b005b610523600480360381019061051e9190614366565b611b56565b60405161053091906141f5565b60405180910390f35b610553600480360381019061054e9190614523565b611b9e565b005b61056f600480360381019061056a9190614612565b611c7a565b60405161057d929190614336565b60405180910390f35b6105a0600480360381019061059b9190614263565b611d50565b6040516105ad9190614714565b60405180910390f35b6105d060048036038101906105cb919061457f565b611dbb565b005b6105da611fc2565b6040516105e79190614835565b60405180910390f35b61060a60048036038101906106059190614263565b6120bd565b6040516106179190613fef565b60405180910390f35b610628612165565b6040516106359190613eca565b60405180910390f35b6106586004803603810190610653919061492e565b6121f7565b604051610665919061498a565b60405180910390f35b61068860048036038101906106839190614263565b612266565b6040516106959190613fef565b60405180910390f35b6106b860048036038101906106b39190614263565b6122cf565b6040516106c591906141f5565b60405180910390f35b6106e860048036038101906106e391906149a5565b6122e7565b6040516106f59190614a37565b60405180910390f35b61071860048036038101906107139190613f94565b612320565b6040516107259190613fef565b60405180910390f35b61074860048036038101906107439190614a52565b612397565b60405161075793929190614a9b565b60405180910390f35b61077a60048036038101906107759190613f94565b6123ff565b6040516107879190613fef565b60405180910390f35b6107aa60048036038101906107a59190614ad2565b612422565b6040516107b79190613fef565b60405180910390f35b6107da60048036038101906107d59190614b97565b612486565b005b6107f660048036038101906107f19190614263565b61287d565b6040516108039190614d0c565b60405180910390f35b61082660048036038101906108219190614263565b612969565b005b610842600480360381019061083d9190614d5a565b612b08565b60405161084f9190613fef565b60405180910390f35b610872600480360381019061086d9190614263565b612c34565b60405161087f9190614835565b60405180910390f35b6108a2600480360381019061089d9190614dc1565b612d7f565b6040516108af91906141f5565b60405180910390f35b6108d260048036038101906108cd9190614ad2565b612e06565b005b6108ee60048036038101906108e99190614e01565b612e2e565b005b61090a6004803603810190610905919061457f565b613127565b60405161091791906141f5565b60405180910390f35b61093a60048036038101906109359190614612565b613158565b60405161094c969594939291906142c7565b60405180910390f35b61096f600480360381019061096a919061457f565b6132db565b005b61098b60048036038101906109869190614366565b61356c565b60405161099891906141f5565b60405180910390f35b6109bb60048036038101906109b69190614e5d565b613573565b6040516109c89190614a37565b60405180910390f35b6060600380546109e090614eb9565b80601f0160208091040260200160405190810160405280929190818152602001828054610a0c90614eb9565b8015610a595780601f10610a2e57610100808354040283529160200191610a59565b820191906000526020600020905b815481529060010190602001808311610a3c57829003601f168201915b5050505050905090565b600080610a6e6135a3565b9050610a7b8185856135ab565b600191505092915050565b6060600d60003373ffffffffffffffffffffffffffffffffffffffff1673ffffffffffffffffffffffffffffffffffffffff168152602001908152602001600020805480602002602001604051908101604052809291908181526020016000905b82821015610c7657838290600052602060002090600602016040518060c00160405290816000820154815260200160018201548152602001600282018054610b2e90614eb9565b80601f0160208091040260200160405190810160405280929190818152602001828054610b5a90614eb9565b8015610ba75780601f10610b7c57610100808354040283529160200191610ba7565b820191906000526020600020905b815481529060010190602001808311610b8a57829003601f168201915b50505050508152602001600382015481526020016004820160009054906101000a900460ff16151515158152602001600582018054610be590614eb9565b80601f0160208091040260200160405190810160405280929190818152602001828054610c1190614eb9565b8015610c5e5780601f10610c3357610100808354040283529160200191610c5e565b820191906000526020600020905b815481529060010190602001808311610c4157829003601f168201915b50505050508152505081526020019060010190610ae7565b50505050905090565b6000600254905090565b600080610c946135a3565b9050610ca1858285613774565b610cac858585613800565b60019150509392505050565b6060601060003373ffffffffffffffffffffffffffffffffffffffff1673ffffffffffffffffffffffffffffffffffffffff1681526020019081526020016000206000838152602001908152602001600020805480602002602001604051908101604052809291908181526020016000905b82821015610eb957838290600052602060002090600602016040518060c00160405290816000820154815260200160018201548152602001600282018054610d7190614eb9565b80601f0160208091040260200160405190810160405280929190818152602001828054610d9d90614eb9565b8015610dea5780601f10610dbf57610100808354040283529160200191610dea565b820191906000526020600020905b815481529060010190602001808311610dcd57829003601f168201915b50505050508152602001600382015481526020016004820160009054906101000a900460ff16151515158152602001600582018054610e2890614eb9565b80601f0160208091040260200160405190810160405280929190818152602001828054610e5490614eb9565b8015610ea15780601f10610e7657610100808354040283529160200191610ea1565b820191906000526020600020905b815481529060010190602001808311610e8457829003601f168201915b50505050508152505081526020019060010190610d2a565b505050509050919050565b60006012905090565b600d6020528160005260406000208181548110610ee957600080fd5b906000526020600020906006020160009150915050806000015490806001015490806002018054610f1990614eb9565b80601f0160208091040260200160405190810160405280929190818152602001828054610f4590614eb9565b8015610f925780601f10610f6757610100808354040283529160200191610f92565b820191906000526020600020905b815481529060010190602001808311610f7557829003601f168201915b5050505050908060030154908060040160009054906101000a900460ff1690806005018054610fc090614eb9565b80601f0160208091040260200160405190810160405280929190818152602001828054610fec90614eb9565b80156110395780601f1061100e57610100808354040283529160200191611039565b820191906000526020600020905b81548152906001019060200180831161101c57829003601f168201915b5050505050905086565b60008061104e6135a3565b905061106f8185856110608589612d7f565b61106a9190614f19565b6135ab565b600191505092915050565b6000805b600680549050811015611116576006818154811061109f5761109e614f4d565b5b9060005260206000200160009054906101000a900473ffffffffffffffffffffffffffffffffffffffff1673ffffffffffffffffffffffffffffffffffffffff163373ffffffffffffffffffffffffffffffffffffffff16036111055760019150611116565b8061110f90614f7c565b905061107e565b50600115158115151461115e576040517f08c379a000000000000000000000000000000000000000000000000000000000815260040161115590615036565b60405180910390fd5b600182148061116d5750600282145b6111ac576040517f08c379a00000000000000000000000000000000000000000000000000000000081526004016111a3906150c8565b60405180910390fd5b60018203611218576006839080600181540180825580915050600190039060005260206000200160009091909190916101000a81548173ffffffffffffffffffffffffffffffffffffffff021916908373ffffffffffffffffffffffffffffffffffffffff1602179055505b60028203611284576007839080600181540180825580915050600190039060005260206000200160009091909190916101000a81548173ffffffffffffffffffffffffffffffffffffffff021916908373ffffffffffffffffffffffffffffffffffffffff1602179055505b505050565b60126020528060005260406000206000915090505481565b600f60205281600052604060002081815481106112bd57600080fd5b9060005260206000209060020201600091509150508060000154908060010180546112e790614eb9565b80601f016020809104026020016040519081016040528092919081815260200182805461131390614eb9565b80156113605780601f1061133557610100808354040283529160200191611360565b820191906000526020600020905b81548152906001019060200180831161134357829003601f168201915b5050505050905082565b600c60205280600052604060002060009150905080600001805461138d90614eb9565b80601f01602080910402602001604051908101604052809291908181526020018280546113b990614eb9565b80156114065780601f106113db57610100808354040283529160200191611406565b820191906000526020600020905b8154815290600101906020018083116113e957829003601f168201915b5050505050908060010154908060020160009054906101000a900460ff16908060020160019054906101000a900473ffffffffffffffffffffffffffffffffffffffff16905084565b6000805b6006805490508110156114eb576006818154811061147457611473614f4d565b5b9060005260206000200160009054906101000a900473ffffffffffffffffffffffffffffffffffffffff1673ffffffffffffffffffffffffffffffffffffffff163373ffffffffffffffffffffffffffffffffffffffff16036114da57600191506114eb565b806114e490614f7c565b9050611453565b506001151581151514611533576040517f08c379a000000000000000000000000000000000000000000000000000000000815260040161152a90615036565b60405180910390fd5b6001151561154084613a76565b151514611582576040517f08c379a000000000000000000000000000000000000000000000000000000000815260040161157990615134565b60405180910390fd5b600a60405180604001604052808581526020018481525090806001815401808255809150506001900390600052602060002090600202016000909190919091506000820151816000015560208201518160010190816115e19190615300565b505050505050565b6015602052816000526040600020818154811061160557600080fd5b9060005260206000200160009150915050805461162190614eb9565b80601f016020809104026020016040519081016040528092919081815260200182805461164d90614eb9565b801561169a5780601f1061166f5761010080835404028352916020019161169a565b820191906000526020600020905b81548152906001019060200180831161167d57829003601f168201915b505050505081565b60006116ac613e02565b60005b600d60003373ffffffffffffffffffffffffffffffffffffffff1673ffffffffffffffffffffffffffffffffffffffff16815260200190815260200160002080549050811015611acd57600d60003373ffffffffffffffffffffffffffffffffffffffff1673ffffffffffffffffffffffffffffffffffffffff168152602001908152602001600020818154811061174a57611749614f4d565b5b906000526020600020906006020160000154861480156117cb575083600d60003373ffffffffffffffffffffffffffffffffffffffff1673ffffffffffffffffffffffffffffffffffffffff16815260200190815260200160002082815481106117b7576117b6614f4d565b5b906000526020600020906006020160010154145b15611aba576040518060c00160405280878152602001858152602001600d60003373ffffffffffffffffffffffffffffffffffffffff1673ffffffffffffffffffffffffffffffffffffffff168152602001908152602001600020838154811061183857611837614f4d565b5b9060005260206000209060060201600201805461185490614eb9565b80601f016020809104026020016040519081016040528092919081815260200182805461188090614eb9565b80156118cd5780601f106118a2576101008083540402835291602001916118cd565b820191906000526020600020905b8154815290600101906020018083116118b057829003601f168201915b50505050508152602001600d60003373ffffffffffffffffffffffffffffffffffffffff1673ffffffffffffffffffffffffffffffffffffffff168152602001908152602001600020838154811061192857611927614f4d565b5b9060005260206000209060060201600301548152602001600d60003373ffffffffffffffffffffffffffffffffffffffff1673ffffffffffffffffffffffffffffffffffffffff16815260200190815260200160002083815481106119905761198f614f4d565b5b906000526020600020906006020160040160009054906101000a900460ff1615158152602001604051806020016040528060008152508152509150601060003373ffffffffffffffffffffffffffffffffffffffff1673ffffffffffffffffffffffffffffffffffffffff168152602001908152602001600020600086815260200190815260200160002082908060018154018082558091505060019003906000526020600020906006020160009091909190915060008201518160000155602082015181600101556040820151816002019081611a6e9190615300565b506060820151816003015560808201518160040160006101000a81548160ff02191690831515021790555060a0820151816005019081611aae9190615300565b50505060019250611acd565b8080611ac590614f7c565b9150506116af565b5081611b0e576040517f08c379a0000000000000000000000000000000000000000000000000000000008152600401611b059061541e565b60405180910390fd5b7f6d832360504eb9202946c19cf927d8fd388a9e567a3f7d4bae3077f56ab6c1a1611b3885613add565b82604051611b479291906154ce565b60405180910390a15050505050565b60008060008373ffffffffffffffffffffffffffffffffffffffff1673ffffffffffffffffffffffffffffffffffffffff168152602001908152602001600020549050919050565b600f60003373ffffffffffffffffffffffffffffffffffffffff1673ffffffffffffffffffffffffffffffffffffffff1681526020019081526020016000206040518060400160405280848152602001838152509080600181540180825580915050600190039060005260206000209060020201600090919091909150600082015181600001556020820151816001019081611c3a9190615300565b5050507ff538047aa51f8b732c1850d69564ec0d033aca661921dba9871bf8feff7a435f8282604051611c6e929190614336565b60405180910390a15050565b60116020528260005260406000206020528160005260406000208181548110611ca257600080fd5b90600052602060002090600202016000925092505050806000015490806001018054611ccd90614eb9565b80601f0160208091040260200160405190810160405280929190818152602001828054611cf990614eb9565b8015611d465780601f10611d1b57610100808354040283529160200191611d46565b820191906000526020600020905b815481529060010190602001808311611d2957829003601f168201915b5050505050905082565b606060146000838152602001908152602001600020805480602002602001604051908101604052809291908181526020018280548015611daf57602002820191906000526020600020905b815481526020019060010190808311611d9b575b50505050509050919050565b606060005b600a80549050811015611f7b57600a8181548110611de157611de0614f4d565b5b9060005260206000209060020201600001548403611f6a57600a8181548110611e0d57611e0c614f4d565b5b90600052602060002090600202016001018054611e2990614eb9565b80601f0160208091040260200160405190810160405280929190818152602001828054611e5590614eb9565b8015611ea25780601f10611e7757610100808354040283529160200191611ea2565b820191906000526020600020905b815481529060010190602001808311611e8557829003601f168201915b50505050509150601160003373ffffffffffffffffffffffffffffffffffffffff1673ffffffffffffffffffffffffffffffffffffffff1681526020019081526020016000206000848152602001908152602001600020600a8281548110611f0d57611f0c614f4d565b5b906000526020600020906002020190806001815401808255809150506001900390600052602060002090600202016000909190919091506000820154816000015560018201816001019081611f62919061551b565b505050611f7b565b80611f7490614f7c565b9050611dc0565b507fd7946cbb0489e47c8c2faf56dc8b80b813314d02e6b57537c75f27e3706b76c481611fa785613add565b604051611fb5929190615603565b60405180910390a1505050565b6060600a805480602002602001604051908101604052809291908181526020016000905b828210156120b457838290600052602060002090600202016040518060400160405290816000820154815260200160018201805461202390614eb9565b80601f016020809104026020016040519081016040528092919081815260200182805461204f90614eb9565b801561209c5780601f106120715761010080835404028352916020019161209c565b820191906000526020600020905b81548152906001019060200180831161207f57829003601f168201915b50505050508152505081526020019060010190611fe6565b50505050905090565b600080600090505b60098054905081101561215a57600981815481106120e6576120e5614f4d565b5b906000526020600020906002020160000154830361214757600115156009828154811061211657612115614f4d565b5b906000526020600020906002020160010160009054906101000a900460ff16151503612146576000915050612160565b5b808061215290614f7c565b9150506120c5565b50600190505b919050565b60606004805461217490614eb9565b80601f01602080910402602001604051908101604052809291908181526020018280546121a090614eb9565b80156121ed5780601f106121c2576101008083540402835291602001916121ed565b820191906000526020600020905b8154815290600101906020018083116121d057829003601f168201915b5050505050905090565b60008060008061220685612397565b9250925092506001868285856040516000815260200160405260405161222f949392919061563a565b6020604051602081039080840390855afa158015612251573d6000803e3d6000fd5b50505060206040510351935050505092915050565b600080600090505b6009805490508110156122c4576009818154811061228f5761228e614f4d565b5b90600052602060002090600202016000015483036122b15760009150506122ca565b80806122bc90614f7c565b91505061226e565b50600190505b919050565b60136020528060005260406000206000915090505481565b6000848484846040516020016123009493929190615724565b604051602081830303815290604052805190602001209050949350505050565b60008061232b6135a3565b905060006123398286612d7f565b90508381101561237e576040517f08c379a0000000000000000000000000000000000000000000000000000000008152600401612375906157e0565b60405180910390fd5b61238b82868684036135ab565b60019250505092915050565b600080600060418451146123e0576040517f08c379a00000000000000000000000000000000000000000000000000000000081526004016123d79061584c565b60405180910390fd5b6020840151925060408401519150606084015160001a90509193909250565b60008061240a6135a3565b9050612417818585613800565b600191505092915050565b600080612431878787876122e7565b9050600061243e82613573565b90508873ffffffffffffffffffffffffffffffffffffffff1661246182866121f7565b73ffffffffffffffffffffffffffffffffffffffff1614925050509695505050505050565b60005b600d60003373ffffffffffffffffffffffffffffffffffffffff1673ffffffffffffffffffffffffffffffffffffffff168152602001908152602001600020805490508110156127cc57600d60003373ffffffffffffffffffffffffffffffffffffffff1673ffffffffffffffffffffffffffffffffffffffff168152602001908152602001600020818154811061252457612523614f4d565b5b90600052602060002090600602016001015485036127b95760001515600d60003373ffffffffffffffffffffffffffffffffffffffff1673ffffffffffffffffffffffffffffffffffffffff168152602001908152602001600020828154811061259157612590614f4d565b5b906000526020600020906006020160040160009054906101000a900460ff161515146125f2576040517f08c379a00000000000000000000000000000000000000000000000000000000081526004016125e9906158b8565b60405180910390fd5b83600d60003373ffffffffffffffffffffffffffffffffffffffff1673ffffffffffffffffffffffffffffffffffffffff168152602001908152602001600020828154811061264457612643614f4d565b5b906000526020600020906006020160020190816126619190615300565b5082600d60003373ffffffffffffffffffffffffffffffffffffffff1673ffffffffffffffffffffffffffffffffffffffff16815260200190815260200160002082815481106126b4576126b3614f4d565b5b9060005260206000209060060201600301819055506001600d60003373ffffffffffffffffffffffffffffffffffffffff1673ffffffffffffffffffffffffffffffffffffffff168152602001908152602001600020828154811061271c5761271b614f4d565b5b906000526020600020906006020160040160006101000a81548160ff02191690831515021790555081600d60003373ffffffffffffffffffffffffffffffffffffffff1673ffffffffffffffffffffffffffffffffffffffff168152602001908152602001600020828154811061279657612795614f4d565b5b906000526020600020906006020160050190816127b39190615300565b506127cc565b80806127c490614f7c565b915050612489565b5060156000868152602001908152602001600020839080600181540180825580915050600190039060005260206000200160009091909190915090816128129190615300565b506014600086815260200190815260200160002082908060018154018082558091505060019003906000526020600020016000909190919091505560136000868152602001908152602001600020600081548092919061287190614f7c565b91905055505050505050565b606060156000838152602001908152602001600020805480602002602001604051908101604052809291908181526020016000905b8282101561295e5783829060005260206000200180546128d190614eb9565b80601f01602080910402602001604051908101604052809291908181526020018280546128fd90614eb9565b801561294a5780601f1061291f5761010080835404028352916020019161294a565b820191906000526020600020905b81548152906001019060200180831161292d57829003601f168201915b5050505050815260200190600101906128b2565b505050509050919050565b6000805b600680549050811015612a05576006818154811061298e5761298d614f4d565b5b9060005260206000200160009054906101000a900473ffffffffffffffffffffffffffffffffffffffff1673ffffffffffffffffffffffffffffffffffffffff163373ffffffffffffffffffffffffffffffffffffffff16036129f45760019150612a05565b806129fe90614f7c565b905061296d565b506001151581151514612a4d576040517f08c379a0000000000000000000000000000000000000000000000000000000008152600401612a4490615036565b60405180910390fd5b612a5682612266565b612a95576040517f08c379a0000000000000000000000000000000000000000000000000000000008152600401612a8c90615924565b60405180910390fd5b600960405180604001604052808481526020016000151581525090806001815401808255809150506001900390600052602060002090600202016000909190919091506000820151816000015560208201518160010160006101000a81548160ff02191690831515021790555050505050565b6000806040518060400160405280601c81526020017f19457468657265756d205369676e6564204d6573736167653a0a333200000000815250905060008187604051602001612b589291906159ac565b604051602081830303815290604052805190602001209050600060018288888860405160008152602001604052604051612b95949392919061563a565b6020604051602081039080840390855afa158015612bb7573d6000803e3d6000fd5b505050602060405103519050600560009054906101000a900473ffffffffffffffffffffffffffffffffffffffff1673ffffffffffffffffffffffffffffffffffffffff168173ffffffffffffffffffffffffffffffffffffffff1603612c245760019350505050612c2c565b600093505050505b949350505050565b6060601160003373ffffffffffffffffffffffffffffffffffffffff1673ffffffffffffffffffffffffffffffffffffffff1681526020019081526020016000206000838152602001908152602001600020805480602002602001604051908101604052809291908181526020016000905b82821015612d74578382906000526020600020906002020160405180604001604052908160008201548152602001600182018054612ce390614eb9565b80601f0160208091040260200160405190810160405280929190818152602001828054612d0f90614eb9565b8015612d5c5780601f10612d3157610100808354040283529160200191612d5c565b820191906000526020600020905b815481529060010190602001808311612d3f57829003601f168201915b50505050508152505081526020019060010190612ca6565b505050509050919050565b6000600160008473ffffffffffffffffffffffffffffffffffffffff1673ffffffffffffffffffffffffffffffffffffffff16815260200190815260200160002060008373ffffffffffffffffffffffffffffffffffffffff1673ffffffffffffffffffffffffffffffffffffffff16815260200190815260200160002054905092915050565b612e14868686868686612422565b15612e2657612e25856103e8613ca2565b5b505050505050565b600060405180608001604052808481526020018381526020016001151581526020013373ffffffffffffffffffffffffffffffffffffffff16815250905082600c60003373ffffffffffffffffffffffffffffffffffffffff1673ffffffffffffffffffffffffffffffffffffffff1681526020019081526020016000206000019081612ebb9190615300565b5081600c60003373ffffffffffffffffffffffffffffffffffffffff1673ffffffffffffffffffffffffffffffffffffffff1681526020019081526020016000206001018190555033600c60003373ffffffffffffffffffffffffffffffffffffffff1673ffffffffffffffffffffffffffffffffffffffff16815260200190815260200160002060020160016101000a81548173ffffffffffffffffffffffffffffffffffffffff021916908373ffffffffffffffffffffffffffffffffffffffff160217905550600c60003373ffffffffffffffffffffffffffffffffffffffff1673ffffffffffffffffffffffffffffffffffffffff16815260200190815260200160002060020160009054906101000a900460ff166130e957600b81908060018154018082558091505060019003906000526020600020906003020160009091909190915060008201518160000190816130199190615300565b506020820151816001015560408201518160020160006101000a81548160ff02191690831515021790555060608201518160020160016101000a81548173ffffffffffffffffffffffffffffffffffffffff021916908373ffffffffffffffffffffffffffffffffffffffff16021790555050506001600c60003373ffffffffffffffffffffffffffffffffffffffff1673ffffffffffffffffffffffffffffffffffffffff16815260200190815260200160002060020160006101000a81548160ff0219169083151502179055505b7ff9aabaa28b0c7b9b6a80283c8b8fd6983df8e2c5703e65ee433dbbd737306268838360405161311a9291906159d4565b60405180910390a1505050565b6014602052816000526040600020818154811061314357600080fd5b90600052602060002001600091509150505481565b6010602052826000526040600020602052816000526040600020818154811061318057600080fd5b906000526020600020906006020160009250925050508060000154908060010154908060020180546131b190614eb9565b80601f01602080910402602001604051908101604052809291908181526020018280546131dd90614eb9565b801561322a5780601f106131ff5761010080835404028352916020019161322a565b820191906000526020600020905b81548152906001019060200180831161320d57829003601f168201915b5050505050908060030154908060040160009054906101000a900460ff169080600501805461325890614eb9565b80601f016020809104026020016040519081016040528092919081815260200182805461328490614eb9565b80156132d15780601f106132a6576101008083540402835291602001916132d1565b820191906000526020600020905b8154815290600101906020018083116132b457829003601f168201915b5050505050905086565b6000805b6009805490508110156133e15760098181548110613300576132ff614f4d565b5b90600052602060002090600202016000015484036133ce576009818154811061332c5761332b614f4d565b5b906000526020600020906002020160010160009054906101000a900460ff161561338b576040517f08c379a000000000000000000000000000000000000000000000000000000000815260040161338290615a50565b60405180910390fd5b600191506001600982815481106133a5576133a4614f4d565b5b906000526020600020906002020160010160006101000a81548160ff0219169083151502179055505b80806133d990614f7c565b9150506132df565b5060126000838152602001908152602001600020600081548092919061340690614f7c565b9190505550600d60003373ffffffffffffffffffffffffffffffffffffffff1673ffffffffffffffffffffffffffffffffffffffff1681526020019081526020016000206040518060c0016040528084815260200142815260200160405180602001604052806000815250815260200160008152602001600015158152602001604051806020016040528060008152508152509080600181540180825580915050600190039060005260206000209060060201600090919091909150600082015181600001556020820151816001015560408201518160020190816134eb9190615300565b506060820151816003015560808201518160040160006101000a81548160ff02191690831515021790555060a082015181600501908161352b9190615300565b5050507ff165997b5f1d2b5ae2f43279fc978111209309fd44e04343b1ffd71915e62ab5838360405161355f929190615a70565b60405180910390a1505050565b6000919050565b6000816040516020016135869190615ae5565b604051602081830303815290604052805190602001209050919050565b600033905090565b600073ffffffffffffffffffffffffffffffffffffffff168373ffffffffffffffffffffffffffffffffffffffff160361361a576040517f08c379a000000000000000000000000000000000000000000000000000000000815260040161361190615b7d565b60405180910390fd5b600073ffffffffffffffffffffffffffffffffffffffff168273ffffffffffffffffffffffffffffffffffffffff1603613689576040517f08c379a000000000000000000000000000000000000000000000000000000000815260040161368090615c0f565b60405180910390fd5b80600160008573ffffffffffffffffffffffffffffffffffffffff1673ffffffffffffffffffffffffffffffffffffffff16815260200190815260200160002060008473ffffffffffffffffffffffffffffffffffffffff1673ffffffffffffffffffffffffffffffffffffffff168152602001908152602001600020819055508173ffffffffffffffffffffffffffffffffffffffff168373ffffffffffffffffffffffffffffffffffffffff167f8c5be1e5ebec7d5bd14f71427d1e84f3dd0314c0f7b2291e5b200ac8c7c3b9258360405161376791906141f5565b60405180910390a3505050565b60006137808484612d7f565b90507fffffffffffffffffffffffffffffffffffffffffffffffffffffffffffffffff81146137fa57818110156137ec576040517f08c379a00000000000000000000000000000000000000000000000000000000081526004016137e390615c7b565b60405180910390fd5b6137f984848484036135ab565b5b50505050565b600073ffffffffffffffffffffffffffffffffffffffff168373ffffffffffffffffffffffffffffffffffffffff160361386f576040517f08c379a000000000000000000000000000000000000000000000000000000000815260040161386690615d0d565b60405180910390fd5b600073ffffffffffffffffffffffffffffffffffffffff168273ffffffffffffffffffffffffffffffffffffffff16036138de576040517f08c379a00000000000000000000000000000000000000000000000000000000081526004016138d590615d9f565b60405180910390fd5b6138e9838383613df8565b60008060008573ffffffffffffffffffffffffffffffffffffffff1673ffffffffffffffffffffffffffffffffffffffff1681526020019081526020016000205490508181101561396f576040517f08c379a000000000000000000000000000000000000000000000000000000000815260040161396690615e31565b60405180910390fd5b8181036000808673ffffffffffffffffffffffffffffffffffffffff1673ffffffffffffffffffffffffffffffffffffffff16815260200190815260200160002081905550816000808573ffffffffffffffffffffffffffffffffffffffff1673ffffffffffffffffffffffffffffffffffffffff168152602001908152602001600020600082825401925050819055508273ffffffffffffffffffffffffffffffffffffffff168473ffffffffffffffffffffffffffffffffffffffff167fddf252ad1be2c89b69c2b068fc378daa952ba7f163c4a11628f55a4df523b3ef84604051613a5d91906141f5565b60405180910390a3613a70848484613dfd565b50505050565b600080600090505b600a80549050811015613ad257600a8181548110613a9f57613a9e614f4d565b5b9060005260206000209060020201600001548303613ac1576000915050613ad8565b80613acb90614f7c565b9050613a7e565b50600190505b919050565b606060005b600f60003373ffffffffffffffffffffffffffffffffffffffff1673ffffffffffffffffffffffffffffffffffffffff16815260200190815260200160002080549050811015613c9b57600f60003373ffffffffffffffffffffffffffffffffffffffff1673ffffffffffffffffffffffffffffffffffffffff1681526020019081526020016000208181548110613b7d57613b7c614f4d565b5b9060005260206000209060020201600001548303613c8857600f60003373ffffffffffffffffffffffffffffffffffffffff1673ffffffffffffffffffffffffffffffffffffffff1681526020019081526020016000208181548110613be657613be5614f4d565b5b90600052602060002090600202016001018054613c0290614eb9565b80601f0160208091040260200160405190810160405280929190818152602001828054613c2e90614eb9565b8015613c7b5780601f10613c5057610100808354040283529160200191613c7b565b820191906000526020600020905b815481529060010190602001808311613c5e57829003601f168201915b5050505050915050613c9d565b8080613c9390614f7c565b915050613ae2565b505b919050565b600073ffffffffffffffffffffffffffffffffffffffff168273ffffffffffffffffffffffffffffffffffffffff1603613d11576040517f08c379a0000000000000000000000000000000000000000000000000000000008152600401613d0890615e9d565b60405180910390fd5b613d1d60008383613df8565b8060026000828254613d2f9190614f19565b92505081905550806000808473ffffffffffffffffffffffffffffffffffffffff1673ffffffffffffffffffffffffffffffffffffffff168152602001908152602001600020600082825401925050819055508173ffffffffffffffffffffffffffffffffffffffff16600073ffffffffffffffffffffffffffffffffffffffff167fddf252ad1be2c89b69c2b068fc378daa952ba7f163c4a11628f55a4df523b3ef83604051613de091906141f5565b60405180910390a3613df460008383613dfd565b5050565b505050565b505050565b6040518060c0016040528060008152602001600081526020016060815260200160008152602001600015158152602001606081525090565b600081519050919050565b600082825260208201905092915050565b60005b83811015613e74578082015181840152602081019050613e59565b60008484015250505050565b6000601f19601f8301169050919050565b6000613e9c82613e3a565b613ea68185613e45565b9350613eb6818560208601613e56565b613ebf81613e80565b840191505092915050565b60006020820190508181036000830152613ee48184613e91565b905092915050565b6000604051905090565b600080fd5b600080fd5b600073ffffffffffffffffffffffffffffffffffffffff82169050919050565b6000613f2b82613f00565b9050919050565b613f3b81613f20565b8114613f4657600080fd5b50565b600081359050613f5881613f32565b92915050565b6000819050919050565b613f7181613f5e565b8114613f7c57600080fd5b50565b600081359050613f8e81613f68565b92915050565b60008060408385031215613fab57613faa613ef6565b5b6000613fb985828601613f49565b9250506020613fca85828601613f7f565b9150509250929050565b60008115159050919050565b613fe981613fd4565b82525050565b60006020820190506140046000830184613fe0565b92915050565b600081519050919050565b600082825260208201905092915050565b6000819050602082019050919050565b61403f81613f5e565b82525050565b600082825260208201905092915050565b600061406182613e3a565b61406b8185614045565b935061407b818560208601613e56565b61408481613e80565b840191505092915050565b61409881613fd4565b82525050565b600060c0830160008301516140b66000860182614036565b5060208301516140c96020860182614036565b50604083015184820360408601526140e18282614056565b91505060608301516140f66060860182614036565b506080830151614109608086018261408f565b5060a083015184820360a08601526141218282614056565b9150508091505092915050565b600061413a838361409e565b905092915050565b6000602082019050919050565b600061415a8261400a565b6141648185614015565b93508360208202850161417685614026565b8060005b858110156141b25784840389528151614193858261412e565b945061419e83614142565b925060208a0199505060018101905061417a565b50829750879550505050505092915050565b600060208201905081810360008301526141de818461414f565b905092915050565b6141ef81613f5e565b82525050565b600060208201905061420a60008301846141e6565b92915050565b60008060006060848603121561422957614228613ef6565b5b600061423786828701613f49565b935050602061424886828701613f49565b925050604061425986828701613f7f565b9150509250925092565b60006020828403121561427957614278613ef6565b5b600061428784828501613f7f565b91505092915050565b600060ff82169050919050565b6142a681614290565b82525050565b60006020820190506142c1600083018461429d565b92915050565b600060c0820190506142dc60008301896141e6565b6142e960208301886141e6565b81810360408301526142fb8187613e91565b905061430a60608301866141e6565b6143176080830185613fe0565b81810360a08301526143298184613e91565b9050979650505050505050565b600060408201905061434b60008301856141e6565b818103602083015261435d8184613e91565b90509392505050565b60006020828403121561437c5761437b613ef6565b5b600061438a84828501613f49565b91505092915050565b61439c81613f20565b82525050565b600060808201905081810360008301526143bc8187613e91565b90506143cb60208301866141e6565b6143d86040830185613fe0565b6143e56060830184614393565b95945050505050565b600080fd5b600080fd5b7f4e487b7100000000000000000000000000000000000000000000000000000000600052604160045260246000fd5b61443082613e80565b810181811067ffffffffffffffff8211171561444f5761444e6143f8565b5b80604052505050565b6000614462613eec565b905061446e8282614427565b919050565b600067ffffffffffffffff82111561448e5761448d6143f8565b5b61449782613e80565b9050602081019050919050565b82818337600083830152505050565b60006144c66144c184614473565b614458565b9050828152602081018484840111156144e2576144e16143f3565b5b6144ed8482856144a4565b509392505050565b600082601f83011261450a576145096143ee565b5b813561451a8482602086016144b3565b91505092915050565b6000806040838503121561453a57614539613ef6565b5b600061454885828601613f7f565b925050602083013567ffffffffffffffff81111561456957614568613efb565b5b614575858286016144f5565b9150509250929050565b6000806040838503121561459657614595613ef6565b5b60006145a485828601613f7f565b92505060206145b585828601613f7f565b9150509250929050565b6000806000606084860312156145d8576145d7613ef6565b5b60006145e686828701613f7f565b93505060206145f786828701613f7f565b925050604061460886828701613f7f565b9150509250925092565b60008060006060848603121561462b5761462a613ef6565b5b600061463986828701613f49565b935050602061464a86828701613f7f565b925050604061465b86828701613f7f565b9150509250925092565b600081519050919050565b600082825260208201905092915050565b6000819050602082019050919050565b600061469d8383614036565b60208301905092915050565b6000602082019050919050565b60006146c182614665565b6146cb8185614670565b93506146d683614681565b8060005b838110156147075781516146ee8882614691565b97506146f9836146a9565b9250506001810190506146da565b5085935050505092915050565b6000602082019050818103600083015261472e81846146b6565b905092915050565b600081519050919050565b600082825260208201905092915050565b6000819050602082019050919050565b600060408301600083015161477a6000860182614036565b50602083015184820360208601526147928282614056565b9150508091505092915050565b60006147ab8383614762565b905092915050565b6000602082019050919050565b60006147cb82614736565b6147d58185614741565b9350836020820285016147e785614752565b8060005b858110156148235784840389528151614804858261479f565b945061480f836147b3565b925060208a019950506001810190506147eb565b50829750879550505050505092915050565b6000602082019050818103600083015261484f81846147c0565b905092915050565b6000819050919050565b61486a81614857565b811461487557600080fd5b50565b60008135905061488781614861565b92915050565b600067ffffffffffffffff8211156148a8576148a76143f8565b5b6148b182613e80565b9050602081019050919050565b60006148d16148cc8461488d565b614458565b9050828152602081018484840111156148ed576148ec6143f3565b5b6148f88482856144a4565b509392505050565b600082601f830112614915576149146143ee565b5b81356149258482602086016148be565b91505092915050565b6000806040838503121561494557614944613ef6565b5b600061495385828601614878565b925050602083013567ffffffffffffffff81111561497457614973613efb565b5b61498085828601614900565b9150509250929050565b600060208201905061499f6000830184614393565b92915050565b600080600080608085870312156149bf576149be613ef6565b5b60006149cd87828801613f49565b94505060206149de87828801613f7f565b935050604085013567ffffffffffffffff8111156149ff576149fe613efb565b5b614a0b878288016144f5565b9250506060614a1c87828801613f7f565b91505092959194509250565b614a3181614857565b82525050565b6000602082019050614a4c6000830184614a28565b92915050565b600060208284031215614a6857614a67613ef6565b5b600082013567ffffffffffffffff811115614a8657614a85613efb565b5b614a9284828501614900565b91505092915050565b6000606082019050614ab06000830186614a28565b614abd6020830185614a28565b614aca604083018461429d565b949350505050565b60008060008060008060c08789031215614aef57614aee613ef6565b5b6000614afd89828a01613f49565b9650506020614b0e89828a01613f49565b9550506040614b1f89828a01613f7f565b945050606087013567ffffffffffffffff811115614b4057614b3f613efb565b5b614b4c89828a016144f5565b9350506080614b5d89828a01613f7f565b92505060a087013567ffffffffffffffff811115614b7e57614b7d613efb565b5b614b8a89828a01614900565b9150509295509295509295565b600080600080600060a08688031215614bb357614bb2613ef6565b5b6000614bc188828901613f7f565b9550506020614bd288828901613f7f565b945050604086013567ffffffffffffffff811115614bf357614bf2613efb565b5b614bff888289016144f5565b9350506060614c1088828901613f7f565b925050608086013567ffffffffffffffff811115614c3157614c30613efb565b5b614c3d888289016144f5565b9150509295509295909350565b600081519050919050565b600082825260208201905092915050565b6000819050602082019050919050565b6000614c828383614056565b905092915050565b6000602082019050919050565b6000614ca282614c4a565b614cac8185614c55565b935083602082028501614cbe85614c66565b8060005b85811015614cfa5784840389528151614cdb8582614c76565b9450614ce683614c8a565b925060208a01995050600181019050614cc2565b50829750879550505050505092915050565b60006020820190508181036000830152614d268184614c97565b905092915050565b614d3781614290565b8114614d4257600080fd5b50565b600081359050614d5481614d2e565b92915050565b60008060008060808587031215614d7457614d73613ef6565b5b6000614d8287828801614878565b9450506020614d9387828801614d45565b9350506040614da487828801614878565b9250506060614db587828801614878565b91505092959194509250565b60008060408385031215614dd857614dd7613ef6565b5b6000614de685828601613f49565b9250506020614df785828601613f49565b9150509250929050565b60008060408385031215614e1857614e17613ef6565b5b600083013567ffffffffffffffff811115614e3657614e35613efb565b5b614e42858286016144f5565b9250506020614e5385828601613f7f565b9150509250929050565b600060208284031215614e7357614e72613ef6565b5b6000614e8184828501614878565b91505092915050565b7f4e487b7100000000000000000000000000000000000000000000000000000000600052602260045260246000fd5b60006002820490506001821680614ed157607f821691505b602082108103614ee457614ee3614e8a565b5b50919050565b7f4e487b7100000000000000000000000000000000000000000000000000000000600052601160045260246000fd5b6000614f2482613f5e565b9150614f2f83613f5e565b9250828201905080821115614f4757614f46614eea565b5b92915050565b7f4e487b7100000000000000000000000000000000000000000000000000000000600052603260045260246000fd5b6000614f8782613f5e565b91507fffffffffffffffffffffffffffffffffffffffffffffffffffffffffffffffff8203614fb957614fb8614eea565b5b600182019050919050565b7f4f6e6c792061646d696e2063616e2063616c6c20746869732066756e6374696f60008201527f6e00000000000000000000000000000000000000000000000000000000000000602082015250565b6000615020602183613e45565b915061502b82614fc4565b604082019050919050565b6000602082019050818103600083015261504f81615013565b9050919050565b7f496e76616c696420726f6c652c206f6e6c792061646d696e206f72207365727660008201527f696365207375697461626c652e00000000000000000000000000000000000000602082015250565b60006150b2602d83613e45565b91506150bd82615056565b604082019050919050565b600060208201905081810360008301526150e1816150a5565b9050919050565b7f496e64657820686173206265656e20616c726561647920657869737465640000600082015250565b600061511e601e83613e45565b9150615129826150e8565b602082019050919050565b6000602082019050818103600083015261514d81615111565b9050919050565b60008190508160005260206000209050919050565b60006020601f8301049050919050565b600082821b905092915050565b6000600883026151b67fffffffffffffffffffffffffffffffffffffffffffffffffffffffffffffffff82615179565b6151c08683615179565b95508019841693508086168417925050509392505050565b6000819050919050565b60006151fd6151f86151f384613f5e565b6151d8565b613f5e565b9050919050565b6000819050919050565b615217836151e2565b61522b61522382615204565b848454615186565b825550505050565b600090565b615240615233565b61524b81848461520e565b505050565b5b8181101561526f57615264600082615238565b600181019050615251565b5050565b601f8211156152b45761528581615154565b61528e84615169565b8101602085101561529d578190505b6152b16152a985615169565b830182615250565b50505b505050565b600082821c905092915050565b60006152d7600019846008026152b9565b1980831691505092915050565b60006152f083836152c6565b9150826002028217905092915050565b61530982613e3a565b67ffffffffffffffff811115615322576153216143f8565b5b61532c8254614eb9565b615337828285615273565b600060209050601f83116001811461536a5760008415615358578287015190505b61536285826152e4565b8655506153ca565b601f19841661537886615154565b60005b828110156153a05784890151825560018201915060208501945060208101905061537b565b868310156153bd57848901516153b9601f8916826152c6565b8355505b6001600288020188555050505b505050505050565b7f546869732044657374696e6174696f6e20776173206e6f7420636865636b696e600082015250565b6000615408602083613e45565b9150615413826153d2565b602082019050919050565b60006020820190508181036000830152615437816153fb565b9050919050565b600060c0830160008301516154566000860182614036565b5060208301516154696020860182614036565b50604083015184820360408601526154818282614056565b91505060608301516154966060860182614036565b5060808301516154a9608086018261408f565b5060a083015184820360a08601526154c18282614056565b9150508091505092915050565b600060408201905081810360008301526154e88185613e91565b905081810360208301526154fc818461543e565b90509392505050565b60008154905061551481614eb9565b9050919050565b818103615529575050615601565b61553282615505565b67ffffffffffffffff81111561554b5761554a6143f8565b5b6155558254614eb9565b615560828285615273565b6000601f83116001811461558f576000841561557d578287015490505b61558785826152e4565b8655506155fa565b601f19841661559d87615154565b96506155a886615154565b60005b828110156155d0578489015482556001820191506001850194506020810190506155ab565b868310156155ed57848901546155e9601f8916826152c6565b8355505b6001600288020188555050505b5050505050505b565b6000604082019050818103600083015261561d8185613e91565b905081810360208301526156318184613e91565b90509392505050565b600060808201905061564f6000830187614a28565b61565c602083018661429d565b6156696040830185614a28565b6156766060830184614a28565b95945050505050565b60008160601b9050919050565b60006156978261567f565b9050919050565b60006156a98261568c565b9050919050565b6156c16156bc82613f20565b61569e565b82525050565b6000819050919050565b6156e26156dd82613f5e565b6156c7565b82525050565b600081905092915050565b60006156fe82613e3a565b61570881856156e8565b9350615718818560208601613e56565b80840191505092915050565b600061573082876156b0565b60148201915061574082866156d1565b60208201915061575082856156f3565b915061575c82846156d1565b60208201915081905095945050505050565b7f45524332303a2064656372656173656420616c6c6f77616e63652062656c6f7760008201527f207a65726f000000000000000000000000000000000000000000000000000000602082015250565b60006157ca602583613e45565b91506157d58261576e565b604082019050919050565b600060208201905081810360008301526157f9816157bd565b9050919050565b7f696e76616c6964207369676e6174757265206c656e6774680000000000000000600082015250565b6000615836601883613e45565b915061584182615800565b602082019050919050565b6000602082019050818103600083015261586581615829565b9050919050565b7f596f7520686164206265656e2072657669657765642074686973207472697000600082015250565b60006158a2601f83613e45565b91506158ad8261586c565b602082019050919050565b600060208201905081810360008301526158d181615895565b9050919050565b7f5468697320494420616c72656164792065786973746564000000000000000000600082015250565b600061590e601783613e45565b9150615919826158d8565b602082019050919050565b6000602082019050818103600083015261593d81615901565b9050919050565b600081519050919050565b600081905092915050565b600061596582615944565b61596f818561594f565b935061597f818560208601613e56565b80840191505092915050565b6000819050919050565b6159a66159a182614857565b61598b565b82525050565b60006159b8828561595a565b91506159c48284615995565b6020820191508190509392505050565b600060408201905081810360008301526159ee8185613e91565b90506159fd60208301846141e6565b9392505050565b7f5469636b65742068617320757365640000000000000000000000000000000000600082015250565b6000615a3a600f83613e45565b9150615a4582615a04565b602082019050919050565b60006020820190508181036000830152615a6981615a2d565b9050919050565b6000604082019050615a8560008301856141e6565b615a9260208301846141e6565b9392505050565b7f19457468657265756d205369676e6564204d6573736167653a0a333200000000600082015250565b6000615acf601c836156e8565b9150615ada82615a99565b601c82019050919050565b6000615af082615ac2565b9150615afc8284615995565b60208201915081905092915050565b7f45524332303a20617070726f76652066726f6d20746865207a65726f2061646460008201527f7265737300000000000000000000000000000000000000000000000000000000602082015250565b6000615b67602483613e45565b9150615b7282615b0b565b604082019050919050565b60006020820190508181036000830152615b9681615b5a565b9050919050565b7f45524332303a20617070726f766520746f20746865207a65726f20616464726560008201527f7373000000000000000000000000000000000000000000000000000000000000602082015250565b6000615bf9602283613e45565b9150615c0482615b9d565b604082019050919050565b60006020820190508181036000830152615c2881615bec565b9050919050565b7f45524332303a20696e73756666696369656e7420616c6c6f77616e6365000000600082015250565b6000615c65601d83613e45565b9150615c7082615c2f565b602082019050919050565b60006020820190508181036000830152615c9481615c58565b9050919050565b7f45524332303a207472616e736665722066726f6d20746865207a65726f20616460008201527f6472657373000000000000000000000000000000000000000000000000000000602082015250565b6000615cf7602583613e45565b9150615d0282615c9b565b604082019050919050565b60006020820190508181036000830152615d2681615cea565b9050919050565b7f45524332303a207472616e7366657220746f20746865207a65726f206164647260008201527f6573730000000000000000000000000000000000000000000000000000000000602082015250565b6000615d89602383613e45565b9150615d9482615d2d565b604082019050919050565b60006020820190508181036000830152615db881615d7c565b9050919050565b7f45524332303a207472616e7366657220616d6f756e742065786365656473206260008201527f616c616e63650000000000000000000000000000000000000000000000000000602082015250565b6000615e1b602683613e45565b9150615e2682615dbf565b604082019050919050565b60006020820190508181036000830152615e4a81615e0e565b9050919050565b7f45524332303a206d696e7420746f20746865207a65726f206164647265737300600082015250565b6000615e87601f83613e45565b9150615e9282615e51565b602082019050919050565b60006020820190508181036000830152615eb681615e7a565b905091905056fea2646970667358221220a09b3d37a7c6ee94316d85d9560221a6bf8846e2430b5552cbc9249c3b766ae364736f6c634300081300334b68c3a163682053e1baa16e20546865204c757865204368c3a27520c490e1bb91632028546865204c75786520486f74656c204368617520446f63295175c3a16e206ec6b0e1bb9b6e672033363820285468c3a06e68207068e1bb91204c6f6e6720587579c3aa6e2942c3a16e682062c3b220c39a742044e1bba9742028487579e1bb876e20416e205068c3ba294c6974746c652053c3a0692047c3b26e20486f7374656c20284c6974746c6520536169676f6e20486f7374656c294ce1baa975206de1baaf6d204869e1babf75204d69c3aa6e6e20285468c3a06e68207068e1bb91204c6f6e6720587579c3aa6e294c6f7474652043696e656d61204de1bbb92042c3ac6e68204c6f6e6720587579c3aa6e5175c3a16e2062c3b22054c6b020546869c3aa6e6720285468c3a06e68207068e1bb91204368c3a27520c490e1bb916329",
  "linkReferences": {},
  "deployedLinkReferences": {}
}