{
  "_format": "hh-sol-artifact-1",
  "contractName": "TouristConTract",
  "sourceName": "contracts/Tourism.sol",
  "abi": [
    {
      "inputs": [],
      "stateMutability": "nonpayable",
      "type": "constructor"
    },
    {
      "anonymous": false,
      "inputs": [
        {
          "indexed": false,
          "internalType": "string",
          "name": "nameDestination",
          "type": "string"
        },
        {
          "indexed": false,
          "internalType": "string",
          "name": "nameAlbum",
          "type": "string"
        }
      ],
      "name": "AddDestinationInAlbum",
      "type": "event"
    },
    {
      "anonymous": false,
      "inputs": [
        {
          "indexed": false,
          "internalType": "string",
          "name": "AlbumName",
          "type": "string"
        },
        {
          "components": [
            {
              "internalType": "string",
              "name": "desName",
              "type": "string"
            },
            {
              "internalType": "uint256",
              "name": "arrivalDate",
              "type": "uint256"
            },
            {
              "internalType": "string",
              "name": "review",
              "type": "string"
            },
            {
              "internalType": "uint256",
              "name": "rate",
              "type": "uint256"
            },
            {
              "internalType": "bool",
              "name": "isReview",
              "type": "bool"
            }
          ],
          "indexed": false,
          "internalType": "struct TouristConTract.Journey",
          "name": "journey",
          "type": "tuple"
        }
      ],
      "name": "AddJourneyInAlbum",
      "type": "event"
    },
    {
      "anonymous": false,
      "inputs": [
        {
          "indexed": false,
          "internalType": "string",
          "name": "name",
          "type": "string"
        },
        {
          "indexed": false,
          "internalType": "uint256",
          "name": "age",
          "type": "uint256"
        }
      ],
      "name": "AddTourist",
      "type": "event"
    },
    {
      "anonymous": false,
      "inputs": [
        {
          "indexed": true,
          "internalType": "address",
          "name": "owner",
          "type": "address"
        },
        {
          "indexed": true,
          "internalType": "address",
          "name": "spender",
          "type": "address"
        },
        {
          "indexed": false,
          "internalType": "uint256",
          "name": "value",
          "type": "uint256"
        }
      ],
      "name": "Approval",
      "type": "event"
    },
    {
      "anonymous": false,
      "inputs": [
        {
          "indexed": false,
          "internalType": "uint256",
          "name": "ticketID",
          "type": "uint256"
        },
        {
          "indexed": false,
          "internalType": "string",
          "name": "placeName",
          "type": "string"
        }
      ],
      "name": "CheckIn",
      "type": "event"
    },
    {
      "anonymous": false,
      "inputs": [
        {
          "indexed": false,
          "internalType": "uint256",
          "name": "_id",
          "type": "uint256"
        },
        {
          "indexed": false,
          "internalType": "string",
          "name": "_name",
          "type": "string"
        }
      ],
      "name": "CreateAlbum",
      "type": "event"
    },
    {
      "anonymous": false,
      "inputs": [
        {
          "indexed": true,
          "internalType": "address",
          "name": "from",
          "type": "address"
        },
        {
          "indexed": true,
          "internalType": "address",
          "name": "to",
          "type": "address"
        },
        {
          "indexed": false,
          "internalType": "uint256",
          "name": "value",
          "type": "uint256"
        }
      ],
      "name": "Transfer",
      "type": "event"
    },
    {
      "inputs": [
        {
          "internalType": "address",
          "name": "_signer",
          "type": "address"
        },
        {
          "internalType": "address",
          "name": "_to",
          "type": "address"
        },
        {
          "internalType": "uint256",
          "name": "_amount",
          "type": "uint256"
        },
        {
          "internalType": "string",
          "name": "_message",
          "type": "string"
        },
        {
          "internalType": "uint256",
          "name": "_nonce",
          "type": "uint256"
        },
        {
          "internalType": "bytes",
          "name": "signature",
          "type": "bytes"
        }
      ],
      "name": "_mintMinerReward",
      "outputs": [],
      "stateMutability": "nonpayable",
      "type": "function"
    },
    {
      "inputs": [
        {
          "internalType": "uint256",
          "name": "index",
          "type": "uint256"
        },
        {
          "internalType": "uint256",
          "name": "albumId",
          "type": "uint256"
        },
        {
          "internalType": "uint256",
          "name": "date",
          "type": "uint256"
        }
      ],
      "name": "addAlbumJourney",
      "outputs": [],
      "stateMutability": "nonpayable",
      "type": "function"
    },
    {
      "inputs": [
        {
          "internalType": "uint256",
          "name": "index",
          "type": "uint256"
        },
        {
          "internalType": "string",
          "name": "name",
          "type": "string"
        }
      ],
      "name": "addDestination",
      "outputs": [],
      "stateMutability": "nonpayable",
      "type": "function"
    },
    {
      "inputs": [
        {
          "internalType": "uint256",
          "name": "desIndex",
          "type": "uint256"
        },
        {
          "internalType": "uint256",
          "name": "albumId",
          "type": "uint256"
        }
      ],
      "name": "addDestinationInAlbum",
      "outputs": [],
      "stateMutability": "nonpayable",
      "type": "function"
    },
    {
      "inputs": [
        {
          "internalType": "uint256",
          "name": "id",
          "type": "uint256"
        }
      ],
      "name": "addTicket",
      "outputs": [],
      "stateMutability": "nonpayable",
      "type": "function"
    },
    {
      "inputs": [
        {
          "internalType": "address",
          "name": "",
          "type": "address"
        },
        {
          "internalType": "uint256",
          "name": "",
          "type": "uint256"
        },
        {
          "internalType": "uint256",
          "name": "",
          "type": "uint256"
        }
      ],
      "name": "albumDestination",
      "outputs": [
        {
          "internalType": "uint256",
          "name": "index",
          "type": "uint256"
        },
        {
          "internalType": "string",
          "name": "desName",
          "type": "string"
        }
      ],
      "stateMutability": "view",
      "type": "function"
    },
    {
      "inputs": [
        {
          "internalType": "address",
          "name": "",
          "type": "address"
        },
        {
          "internalType": "uint256",
          "name": "",
          "type": "uint256"
        },
        {
          "internalType": "uint256",
          "name": "",
          "type": "uint256"
        }
      ],
      "name": "albumJourneys",
      "outputs": [
        {
          "internalType": "string",
          "name": "desName",
          "type": "string"
        },
        {
          "internalType": "uint256",
          "name": "arrivalDate",
          "type": "uint256"
        },
        {
          "internalType": "string",
          "name": "review",
          "type": "string"
        },
        {
          "internalType": "uint256",
          "name": "rate",
          "type": "uint256"
        },
        {
          "internalType": "bool",
          "name": "isReview",
          "type": "bool"
        }
      ],
      "stateMutability": "view",
      "type": "function"
    },
    {
      "inputs": [
        {
          "internalType": "address",
          "name": "owner",
          "type": "address"
        },
        {
          "internalType": "address",
          "name": "spender",
          "type": "address"
        }
      ],
      "name": "allowance",
      "outputs": [
        {
          "internalType": "uint256",
          "name": "",
          "type": "uint256"
        }
      ],
      "stateMutability": "view",
      "type": "function"
    },
    {
      "inputs": [
        {
          "internalType": "address",
          "name": "spender",
          "type": "address"
        },
        {
          "internalType": "uint256",
          "name": "amount",
          "type": "uint256"
        }
      ],
      "name": "approve",
      "outputs": [
        {
          "internalType": "bool",
          "name": "",
          "type": "bool"
        }
      ],
      "stateMutability": "nonpayable",
      "type": "function"
    },
    {
      "inputs": [
        {
          "internalType": "address",
          "name": "account",
          "type": "address"
        }
      ],
      "name": "balanceOf",
      "outputs": [
        {
          "internalType": "uint256",
          "name": "",
          "type": "uint256"
        }
      ],
      "stateMutability": "view",
      "type": "function"
    },
    {
      "inputs": [
        {
          "internalType": "uint256",
          "name": "ticketID",
          "type": "uint256"
        },
        {
          "internalType": "uint256",
          "name": "placeID",
          "type": "uint256"
        }
      ],
      "name": "checkIn",
      "outputs": [],
      "stateMutability": "nonpayable",
      "type": "function"
    },
    {
      "inputs": [
        {
          "internalType": "uint256",
          "name": "ticketID",
          "type": "uint256"
        }
      ],
      "name": "checkValidTicket",
      "outputs": [
        {
          "internalType": "bool",
          "name": "",
          "type": "bool"
        }
      ],
      "stateMutability": "view",
      "type": "function"
    },
    {
      "inputs": [
        {
          "internalType": "bytes32",
          "name": "_hashedMessage",
          "type": "bytes32"
        },
        {
          "internalType": "uint8",
          "name": "_v",
          "type": "uint8"
        },
        {
          "internalType": "bytes32",
          "name": "_r",
          "type": "bytes32"
        },
        {
          "internalType": "bytes32",
          "name": "_s",
          "type": "bytes32"
        }
      ],
      "name": "claimPrize",
      "outputs": [
        {
          "internalType": "bool",
          "name": "",
          "type": "bool"
        }
      ],
      "stateMutability": "view",
      "type": "function"
    },
    {
      "inputs": [
        {
          "internalType": "uint256",
          "name": "_id",
          "type": "uint256"
        },
        {
          "internalType": "string",
          "name": "_name",
          "type": "string"
        }
      ],
      "name": "createAlbum",
      "outputs": [],
      "stateMutability": "nonpayable",
      "type": "function"
    },
    {
      "inputs": [],
      "name": "decimals",
      "outputs": [
        {
          "internalType": "uint8",
          "name": "",
          "type": "uint8"
        }
      ],
      "stateMutability": "view",
      "type": "function"
    },
    {
      "inputs": [
        {
          "internalType": "address",
          "name": "spender",
          "type": "address"
        },
        {
          "internalType": "uint256",
          "name": "subtractedValue",
          "type": "uint256"
        }
      ],
      "name": "decreaseAllowance",
      "outputs": [
        {
          "internalType": "bool",
          "name": "",
          "type": "bool"
        }
      ],
      "stateMutability": "nonpayable",
      "type": "function"
    },
    {
      "inputs": [
        {
          "internalType": "uint256",
          "name": "",
          "type": "uint256"
        },
        {
          "internalType": "uint256",
          "name": "",
          "type": "uint256"
        }
      ],
      "name": "destinationRates",
      "outputs": [
        {
          "internalType": "uint256",
          "name": "",
          "type": "uint256"
        }
      ],
      "stateMutability": "view",
      "type": "function"
    },
    {
      "inputs": [
        {
          "internalType": "uint256",
          "name": "",
          "type": "uint256"
        },
        {
          "internalType": "uint256",
          "name": "",
          "type": "uint256"
        }
      ],
      "name": "destinationReviews",
      "outputs": [
        {
          "internalType": "string",
          "name": "",
          "type": "string"
        }
      ],
      "stateMutability": "view",
      "type": "function"
    },
    {
      "inputs": [
        {
          "internalType": "uint256",
          "name": "id",
          "type": "uint256"
        }
      ],
      "name": "getAlbumCheckIn",
      "outputs": [
        {
          "components": [
            {
              "internalType": "string",
              "name": "desName",
              "type": "string"
            },
            {
              "internalType": "uint256",
              "name": "arrivalDate",
              "type": "uint256"
            },
            {
              "internalType": "string",
              "name": "review",
              "type": "string"
            },
            {
              "internalType": "uint256",
              "name": "rate",
              "type": "uint256"
            },
            {
              "internalType": "bool",
              "name": "isReview",
              "type": "bool"
            }
          ],
          "internalType": "struct TouristConTract.Journey[]",
          "name": "",
          "type": "tuple[]"
        }
      ],
      "stateMutability": "view",
      "type": "function"
    },
    {
      "inputs": [
        {
          "internalType": "uint256",
          "name": "id",
          "type": "uint256"
        }
      ],
      "name": "getAlbumNotCheckIn",
      "outputs": [
        {
          "components": [
            {
              "internalType": "uint256",
              "name": "index",
              "type": "uint256"
            },
            {
              "internalType": "string",
              "name": "desName",
              "type": "string"
            }
          ],
          "internalType": "struct TouristConTract.Destination[]",
          "name": "",
          "type": "tuple[]"
        }
      ],
      "stateMutability": "view",
      "type": "function"
    },
    {
      "inputs": [],
      "name": "getAllDestination",
      "outputs": [
        {
          "components": [
            {
              "internalType": "uint256",
              "name": "index",
              "type": "uint256"
            },
            {
              "internalType": "string",
              "name": "desName",
              "type": "string"
            }
          ],
          "internalType": "struct TouristConTract.Destination[]",
          "name": "",
          "type": "tuple[]"
        }
      ],
      "stateMutability": "view",
      "type": "function"
    },
    {
      "inputs": [],
      "name": "getAllJourney",
      "outputs": [
        {
          "components": [
            {
              "internalType": "string",
              "name": "desName",
              "type": "string"
            },
            {
              "internalType": "uint256",
              "name": "arrivalDate",
              "type": "uint256"
            },
            {
              "internalType": "string",
              "name": "review",
              "type": "string"
            },
            {
              "internalType": "uint256",
              "name": "rate",
              "type": "uint256"
            },
            {
              "internalType": "bool",
              "name": "isReview",
              "type": "bool"
            }
          ],
          "internalType": "struct TouristConTract.Journey[]",
          "name": "",
          "type": "tuple[]"
        }
      ],
      "stateMutability": "view",
      "type": "function"
    },
    {
      "inputs": [
        {
          "internalType": "address",
          "name": "add",
          "type": "address"
        }
      ],
      "name": "getBalance",
      "outputs": [
        {
          "internalType": "uint256",
          "name": "",
          "type": "uint256"
        }
      ],
      "stateMutability": "view",
      "type": "function"
    },
    {
      "inputs": [
        {
          "internalType": "bytes32",
          "name": "_messageHash",
          "type": "bytes32"
        }
      ],
      "name": "getEthSignedMessageHash",
      "outputs": [
        {
          "internalType": "bytes32",
          "name": "",
          "type": "bytes32"
        }
      ],
      "stateMutability": "pure",
      "type": "function"
    },
    {
      "inputs": [
        {
          "internalType": "address",
          "name": "_to",
          "type": "address"
        },
        {
          "internalType": "uint256",
          "name": "_amount",
          "type": "uint256"
        },
        {
          "internalType": "string",
          "name": "_message",
          "type": "string"
        },
        {
          "internalType": "uint256",
          "name": "_nonce",
          "type": "uint256"
        }
      ],
      "name": "getMessageHash",
      "outputs": [
        {
          "internalType": "bytes32",
          "name": "",
          "type": "bytes32"
        }
      ],
      "stateMutability": "pure",
      "type": "function"
    },
    {
      "inputs": [
        {
          "internalType": "address",
          "name": "userAddress",
          "type": "address"
        },
        {
          "internalType": "uint256",
          "name": "role",
          "type": "uint256"
        }
      ],
      "name": "grantRole",
      "outputs": [],
      "stateMutability": "nonpayable",
      "type": "function"
    },
    {
      "inputs": [
        {
          "internalType": "address",
          "name": "spender",
          "type": "address"
        },
        {
          "internalType": "uint256",
          "name": "addedValue",
          "type": "uint256"
        }
      ],
      "name": "increaseAllowance",
      "outputs": [
        {
          "internalType": "bool",
          "name": "",
          "type": "bool"
        }
      ],
      "stateMutability": "nonpayable",
      "type": "function"
    },
    {
      "inputs": [],
      "name": "name",
      "outputs": [
        {
          "internalType": "string",
          "name": "",
          "type": "string"
        }
      ],
      "stateMutability": "view",
      "type": "function"
    },
    {
      "inputs": [
        {
          "internalType": "uint256",
          "name": "",
          "type": "uint256"
        }
      ],
      "name": "noPeopleCheckIn",
      "outputs": [
        {
          "internalType": "uint256",
          "name": "",
          "type": "uint256"
        }
      ],
      "stateMutability": "view",
      "type": "function"
    },
    {
      "inputs": [
        {
          "internalType": "uint256",
          "name": "",
          "type": "uint256"
        }
      ],
      "name": "noPeopleRate",
      "outputs": [
        {
          "internalType": "uint256",
          "name": "",
          "type": "uint256"
        }
      ],
      "stateMutability": "view",
      "type": "function"
    },
    {
      "inputs": [
        {
          "internalType": "bytes32",
          "name": "_ethSignedMessageHash",
          "type": "bytes32"
        },
        {
          "internalType": "bytes",
          "name": "_signature",
          "type": "bytes"
        }
      ],
      "name": "recoverSigner",
      "outputs": [
        {
          "internalType": "address",
          "name": "",
          "type": "address"
        }
      ],
      "stateMutability": "pure",
      "type": "function"
    },
    {
      "inputs": [
        {
          "internalType": "string",
          "name": "name",
          "type": "string"
        },
        {
          "internalType": "uint256",
          "name": "age",
          "type": "uint256"
        }
      ],
      "name": "register",
      "outputs": [],
      "stateMutability": "nonpayable",
      "type": "function"
    },
    {
      "inputs": [
        {
          "internalType": "uint256",
          "name": "arrDate",
          "type": "uint256"
        },
        {
          "internalType": "string",
          "name": "comment",
          "type": "string"
        },
        {
          "internalType": "uint256",
          "name": "rate",
          "type": "uint256"
        }
      ],
      "name": "review",
      "outputs": [],
      "stateMutability": "nonpayable",
      "type": "function"
    },
    {
      "inputs": [
        {
          "internalType": "bytes",
          "name": "sig",
          "type": "bytes"
        }
      ],
      "name": "splitSignature",
      "outputs": [
        {
          "internalType": "bytes32",
          "name": "r",
          "type": "bytes32"
        },
        {
          "internalType": "bytes32",
          "name": "s",
          "type": "bytes32"
        },
        {
          "internalType": "uint8",
          "name": "v",
          "type": "uint8"
        }
      ],
      "stateMutability": "pure",
      "type": "function"
    },
    {
      "inputs": [],
      "name": "symbol",
      "outputs": [
        {
          "internalType": "string",
          "name": "",
          "type": "string"
        }
      ],
      "stateMutability": "view",
      "type": "function"
    },
    {
      "inputs": [],
      "name": "totalSupply",
      "outputs": [
        {
          "internalType": "uint256",
          "name": "",
          "type": "uint256"
        }
      ],
      "stateMutability": "view",
      "type": "function"
    },
    {
      "inputs": [
        {
          "internalType": "address",
          "name": "",
          "type": "address"
        },
        {
          "internalType": "uint256",
          "name": "",
          "type": "uint256"
        }
      ],
      "name": "touristAlbums",
      "outputs": [
        {
          "internalType": "uint256",
          "name": "id",
          "type": "uint256"
        },
        {
          "internalType": "string",
          "name": "name",
          "type": "string"
        }
      ],
      "stateMutability": "view",
      "type": "function"
    },
    {
      "inputs": [
        {
          "internalType": "address",
          "name": "",
          "type": "address"
        }
      ],
      "name": "touristIdentify",
      "outputs": [
        {
          "internalType": "string",
          "name": "name",
          "type": "string"
        },
        {
          "internalType": "uint256",
          "name": "age",
          "type": "uint256"
        },
        {
          "internalType": "bool",
          "name": "signup",
          "type": "bool"
        },
        {
          "internalType": "address",
          "name": "touristAddress",
          "type": "address"
        }
      ],
      "stateMutability": "view",
      "type": "function"
    },
    {
      "inputs": [
        {
          "internalType": "address",
          "name": "",
          "type": "address"
        },
        {
          "internalType": "uint256",
          "name": "",
          "type": "uint256"
        }
      ],
      "name": "touristJourneys",
      "outputs": [
        {
          "internalType": "string",
          "name": "desName",
          "type": "string"
        },
        {
          "internalType": "uint256",
          "name": "arrivalDate",
          "type": "uint256"
        },
        {
          "internalType": "string",
          "name": "review",
          "type": "string"
        },
        {
          "internalType": "uint256",
          "name": "rate",
          "type": "uint256"
        },
        {
          "internalType": "bool",
          "name": "isReview",
          "type": "bool"
        }
      ],
      "stateMutability": "view",
      "type": "function"
    },
    {
      "inputs": [
        {
          "internalType": "address",
          "name": "to",
          "type": "address"
        },
        {
          "internalType": "uint256",
          "name": "amount",
          "type": "uint256"
        }
      ],
      "name": "transfer",
      "outputs": [
        {
          "internalType": "bool",
          "name": "",
          "type": "bool"
        }
      ],
      "stateMutability": "nonpayable",
      "type": "function"
    },
    {
      "inputs": [
        {
          "internalType": "address",
          "name": "from",
          "type": "address"
        },
        {
          "internalType": "address",
          "name": "to",
          "type": "address"
        },
        {
          "internalType": "uint256",
          "name": "amount",
          "type": "uint256"
        }
      ],
      "name": "transferFrom",
      "outputs": [
        {
          "internalType": "bool",
          "name": "",
          "type": "bool"
        }
      ],
      "stateMutability": "nonpayable",
      "type": "function"
    },
    {
      "inputs": [
        {
          "internalType": "uint256",
          "name": "id",
          "type": "uint256"
        }
      ],
      "name": "validAddIDTicket",
      "outputs": [
        {
          "internalType": "bool",
          "name": "",
          "type": "bool"
        }
      ],
      "stateMutability": "view",
      "type": "function"
    },
    {
      "inputs": [
        {
          "internalType": "address",
          "name": "_signer",
          "type": "address"
        },
        {
          "internalType": "address",
          "name": "_to",
          "type": "address"
        },
        {
          "internalType": "uint256",
          "name": "_amount",
          "type": "uint256"
        },
        {
          "internalType": "string",
          "name": "_message",
          "type": "string"
        },
        {
          "internalType": "uint256",
          "name": "_nonce",
          "type": "uint256"
        },
        {
          "internalType": "bytes",
          "name": "signature",
          "type": "bytes"
        }
      ],
      "name": "verify",
      "outputs": [
        {
          "internalType": "bool",
          "name": "",
          "type": "bool"
        }
      ],
      "stateMutability": "pure",
      "type": "function"
    }
  ],
  "bytecode": "0x60806040523480156200001157600080fd5b506040518060400160405280600781526020017f4443546f6b656e000000000000000000000000000000000000000000000000008152506040518060400160405280600281526020017f587500000000000000000000000000000000000000000000000000000000000081525081600390816200008f919062000bc4565b508060049081620000a1919062000bc4565b505050600a6040518060400160405280600181526020016040518060400160405280600581526020017f486f54617900000000000000000000000000000000000000000000000000000081525081525090806001815401808255809150506001900390600052602060002090600202016000909190919091506000820151816000015560208201518160010190816200013b919062000bc4565b505050600a6040518060400160405280600281526020016040518060400160405280600381526020017f48434d00000000000000000000000000000000000000000000000000000000008152508152509080600181540180825580915050600190039060005260206000209060020201600090919091909150600082015181600001556020820151816001019081620001d5919062000bc4565b505050600a6040518060400160405280600381526020016040518060400160405280600281526020017f484e00000000000000000000000000000000000000000000000000000000000081525081525090806001815401808255809150506001900390600052602060002090600202016000909190919091506000820151816000015560208201518160010190816200026f919062000bc4565b505050600a6040518060400160405280600481526020016040518060400160405280600781526020017f566965744e616d00000000000000000000000000000000000000000000000000815250815250908060018154018082558091505060019003906000526020600020906002020160009091909190915060008201518160000155602082015181600101908162000309919062000bc4565b505050600a6040518060400160405280600581526020016040518060400160405280600781526020017f42616e674b6f6b000000000000000000000000000000000000000000000000008152508152509080600181540180825580915050600190039060005260206000209060020201600090919091909150600082015181600001556020820151816001019081620003a3919062000bc4565b505050600a6040518060400160405280600681526020016040518060400160405280600681526020017f5068756b6574000000000000000000000000000000000000000000000000000081525081525090806001815401808255809150506001900390600052602060002090600202016000909190919091506000820151816000015560208201518160010190816200043d919062000bc4565b50505060096040518060400160405280600181526020016000151581525090806001815401808255809150506001900390600052602060002090600202016000909190919091506000820151816000015560208201518160010160006101000a81548160ff021916908315150217905550505060096040518060400160405280600281526020016000151581525090806001815401808255809150506001900390600052602060002090600202016000909190919091506000820151816000015560208201518160010160006101000a81548160ff021916908315150217905550505060096040518060400160405280600381526020016000151581525090806001815401808255809150506001900390600052602060002090600202016000909190919091506000820151816000015560208201518160010160006101000a81548160ff021916908315150217905550505060096040518060400160405280600481526020016000151581525090806001815401808255809150506001900390600052602060002090600202016000909190919091506000820151816000015560208201518160010160006101000a81548160ff021916908315150217905550505060096040518060400160405280600581526020016000151581525090806001815401808255809150506001900390600052602060002090600202016000909190919091506000820151816000015560208201518160010160006101000a81548160ff021916908315150217905550505060096040518060400160405280600681526020016000151581525090806001815401808255809150506001900390600052602060002090600202016000909190919091506000820151816000015560208201518160010160006101000a81548160ff021916908315150217905550505060096040518060400160405280600781526020016000151581525090806001815401808255809150506001900390600052602060002090600202016000909190919091506000820151816000015560208201518160010160006101000a81548160ff021916908315150217905550505060096040518060400160405280600881526020016000151581525090806001815401808255809150506001900390600052602060002090600202016000909190919091506000820151816000015560208201518160010160006101000a81548160ff021916908315150217905550505060096040518060400160405280600981526020016000151581525090806001815401808255809150506001900390600052602060002090600202016000909190919091506000820151816000015560208201518160010160006101000a81548160ff021916908315150217905550505060096040518060400160405280600a81526020016000151581525090806001815401808255809150506001900390600052602060002090600202016000909190919091506000820151816000015560208201518160010160006101000a81548160ff02191690831515021790555050506006339080600181540180825580915050600190039060005260206000200160009091909190916101000a81548173ffffffffffffffffffffffffffffffffffffffff021916908373ffffffffffffffffffffffffffffffffffffffff16021790555033600560006101000a81548173ffffffffffffffffffffffffffffffffffffffff021916908373ffffffffffffffffffffffffffffffffffffffff16021790555062000cab565b600081519050919050565b7f4e487b7100000000000000000000000000000000000000000000000000000000600052604160045260246000fd5b7f4e487b7100000000000000000000000000000000000000000000000000000000600052602260045260246000fd5b60006002820490506001821680620009cc57607f821691505b602082108103620009e257620009e162000984565b5b50919050565b60008190508160005260206000209050919050565b60006020601f8301049050919050565b600082821b905092915050565b60006008830262000a4c7fffffffffffffffffffffffffffffffffffffffffffffffffffffffffffffffff8262000a0d565b62000a58868362000a0d565b95508019841693508086168417925050509392505050565b6000819050919050565b6000819050919050565b600062000aa562000a9f62000a998462000a70565b62000a7a565b62000a70565b9050919050565b6000819050919050565b62000ac18362000a84565b62000ad962000ad08262000aac565b84845462000a1a565b825550505050565b600090565b62000af062000ae1565b62000afd81848462000ab6565b505050565b5b8181101562000b255762000b1960008262000ae6565b60018101905062000b03565b5050565b601f82111562000b745762000b3e81620009e8565b62000b4984620009fd565b8101602085101562000b59578190505b62000b7162000b6885620009fd565b83018262000b02565b50505b505050565b600082821c905092915050565b600062000b996000198460080262000b79565b1980831691505092915050565b600062000bb4838362000b86565b9150826002028217905092915050565b62000bcf826200094a565b67ffffffffffffffff81111562000beb5762000bea62000955565b5b62000bf78254620009b3565b62000c0482828562000b29565b600060209050601f83116001811462000c3c576000841562000c27578287015190505b62000c33858262000ba6565b86555062000ca3565b601f19841662000c4c86620009e8565b60005b8281101562000c765784890151825560018201915060208501945060208101905062000c4f565b8683101562000c96578489015162000c92601f89168262000b86565b8355505b6001600288020188555050505b505050505050565b615fa78062000cbb6000396000f3fe608060405234801561001057600080fd5b50600436106102695760003560e01c806393f4052111610151578063b4291319116100c3578063ea87152b11610087578063ea87152b1461085d578063ebfbdec914610879578063f2fa49b4146108a9578063f516f88e146108dd578063f8b2cb4f146108f9578063fa5408011461092957610269565b8063b429131914610795578063b9c3b1b9146107b1578063be4755a1146107e1578063dd62ed3e14610811578063ddb0225e1461084157610269565b8063a35f8a4011610115578063a35f8a4014610687578063a457c2d7146106b7578063a7bb5803146106e7578063a9059cbb14610719578063abe5026a14610749578063b2020eda1461077957610269565b806393f40521146105a957806395d89b41146105d957806397aba7f9146105f75780639e26c494146106275780639f7bdca11461065757610269565b80635cab0d00116101ea578063701a0e0d116101ae578063701a0e0d146104d657806370a08231146104f2578063732a7c2514610522578063788521591461053e57806388fbd65b1461056f57806390db6a201461058b57610269565b80635cab0d00146103f65780636012f3be14610426578063625336651461045757806363f8f2131461048a5780636787d244146104a657610269565b8063285f293b11610231578063285f293b14610328578063313ce56714610358578063374936821461037657806339509351146103aa5780633c09e2fd146103da57610269565b806306fdde031461026e578063095ea7b31461028c5780630f13090e146102bc57806318160ddd146102da57806323b872dd146102f8575b600080fd5b610276610959565b6040516102839190614123565b60405180910390f35b6102a660048036038101906102a191906141ed565b6109eb565b6040516102b39190614248565b60405180910390f35b6102c4610a0e565b6040516102d1919061440a565b60405180910390f35b6102e2610bfd565b6040516102ef919061443b565b60405180910390f35b610312600480360381019061030d9190614456565b610c07565b60405161031f9190614248565b60405180910390f35b610342600480360381019061033d91906144a9565b610c36565b60405161034f919061440a565b60405180910390f35b610360610e38565b60405161036d91906144f2565b60405180910390f35b610390600480360381019061038b91906141ed565b610e41565b6040516103a195949392919061450d565b60405180910390f35b6103c460048036038101906103bf91906141ed565b610fb1565b6040516103d19190614248565b60405180910390f35b6103f460048036038101906103ef91906141ed565b610fe8565b005b610410600480360381019061040b91906144a9565b6111f7565b60405161041d919061443b565b60405180910390f35b610440600480360381019061043b91906141ed565b61120f565b60405161044e92919061456e565b60405180910390f35b610471600480360381019061046c919061459e565b6112d8565b60405161048194939291906145da565b60405180910390f35b6104a4600480360381019061049f919061475b565b6113bd565b005b6104c060048036038101906104bb91906147b7565b611557565b6040516104cd9190614123565b60405180910390f35b6104f060048036038101906104eb91906147f7565b611610565b005b61050c6004803603810190610507919061459e565b611bf8565b604051610519919061443b565b60405180910390f35b61053c6004803603810190610537919061475b565b611c40565b005b6105586004803603810190610553919061484a565b611d1c565b60405161056692919061456e565b60405180910390f35b610589600480360381019061058491906147b7565b611df2565b005b610593611ff9565b6040516105a0919061499c565b60405180910390f35b6105c360048036038101906105be91906144a9565b6120f4565b6040516105d09190614248565b60405180910390f35b6105e161219c565b6040516105ee9190614123565b60405180910390f35b610611600480360381019061060c9190614a95565b61222e565b60405161061e9190614af1565b60405180910390f35b610641600480360381019061063c91906144a9565b61229d565b60405161064e9190614248565b60405180910390f35b610671600480360381019061066c91906144a9565b612306565b60405161067e919061443b565b60405180910390f35b6106a1600480360381019061069c9190614b0c565b61231e565b6040516106ae9190614b9e565b60405180910390f35b6106d160048036038101906106cc91906141ed565b612357565b6040516106de9190614248565b60405180910390f35b61070160048036038101906106fc9190614bb9565b6123ce565b60405161071093929190614c02565b60405180910390f35b610733600480360381019061072e91906141ed565b612436565b6040516107409190614248565b60405180910390f35b610763600480360381019061075e9190614c39565b612459565b6040516107709190614248565b60405180910390f35b610793600480360381019061078e9190614cfe565b6124bd565b005b6107af60048036038101906107aa91906144a9565b612a39565b005b6107cb60048036038101906107c69190614d99565b612bd8565b6040516107d89190614248565b60405180910390f35b6107fb60048036038101906107f691906144a9565b612d04565b604051610808919061499c565b60405180910390f35b61082b60048036038101906108269190614e00565b612e4f565b604051610838919061443b565b60405180910390f35b61085b60048036038101906108569190614c39565b612ed6565b005b61087760048036038101906108729190614e40565b612efe565b005b610893600480360381019061088e91906147b7565b6131f7565b6040516108a0919061443b565b60405180910390f35b6108c360048036038101906108be919061484a565b613228565b6040516108d495949392919061450d565b60405180910390f35b6108f760048036038101906108f291906147b7565b6133a5565b005b610913600480360381019061090e919061459e565b6137cc565b604051610920919061443b565b60405180910390f35b610943600480360381019061093e9190614e9c565b6137d3565b6040516109509190614b9e565b60405180910390f35b60606003805461096890614ef8565b80601f016020809104026020016040519081016040528092919081815260200182805461099490614ef8565b80156109e15780601f106109b6576101008083540402835291602001916109e1565b820191906000526020600020905b8154815290600101906020018083116109c457829003601f168201915b5050505050905090565b6000806109f6613803565b9050610a0381858561380b565b600191505092915050565b6060600d60003373ffffffffffffffffffffffffffffffffffffffff1673ffffffffffffffffffffffffffffffffffffffff168152602001908152602001600020805480602002602001604051908101604052809291908181526020016000905b82821015610bf457838290600052602060002090600502016040518060a0016040529081600082018054610aa290614ef8565b80601f0160208091040260200160405190810160405280929190818152602001828054610ace90614ef8565b8015610b1b5780601f10610af057610100808354040283529160200191610b1b565b820191906000526020600020905b815481529060010190602001808311610afe57829003601f168201915b5050505050815260200160018201548152602001600282018054610b3e90614ef8565b80601f0160208091040260200160405190810160405280929190818152602001828054610b6a90614ef8565b8015610bb75780601f10610b8c57610100808354040283529160200191610bb7565b820191906000526020600020905b815481529060010190602001808311610b9a57829003601f168201915b50505050508152602001600382015481526020016004820160009054906101000a900460ff16151515158152505081526020019060010190610a6f565b50505050905090565b6000600254905090565b600080610c12613803565b9050610c1f8582856139d4565b610c2a858585613a60565b60019150509392505050565b6060601060003373ffffffffffffffffffffffffffffffffffffffff1673ffffffffffffffffffffffffffffffffffffffff1681526020019081526020016000206000838152602001908152602001600020805480602002602001604051908101604052809291908181526020016000905b82821015610e2d57838290600052602060002090600502016040518060a0016040529081600082018054610cdb90614ef8565b80601f0160208091040260200160405190810160405280929190818152602001828054610d0790614ef8565b8015610d545780601f10610d2957610100808354040283529160200191610d54565b820191906000526020600020905b815481529060010190602001808311610d3757829003601f168201915b5050505050815260200160018201548152602001600282018054610d7790614ef8565b80601f0160208091040260200160405190810160405280929190818152602001828054610da390614ef8565b8015610df05780601f10610dc557610100808354040283529160200191610df0565b820191906000526020600020905b815481529060010190602001808311610dd357829003601f168201915b50505050508152602001600382015481526020016004820160009054906101000a900460ff16151515158152505081526020019060010190610ca8565b505050509050919050565b60006012905090565b600d6020528160005260406000208181548110610e5d57600080fd5b906000526020600020906005020160009150915050806000018054610e8190614ef8565b80601f0160208091040260200160405190810160405280929190818152602001828054610ead90614ef8565b8015610efa5780601f10610ecf57610100808354040283529160200191610efa565b820191906000526020600020905b815481529060010190602001808311610edd57829003601f168201915b505050505090806001015490806002018054610f1590614ef8565b80601f0160208091040260200160405190810160405280929190818152602001828054610f4190614ef8565b8015610f8e5780601f10610f6357610100808354040283529160200191610f8e565b820191906000526020600020905b815481529060010190602001808311610f7157829003601f168201915b5050505050908060030154908060040160009054906101000a900460ff16905085565b600080610fbc613803565b9050610fdd818585610fce8589612e4f565b610fd89190614f58565b61380b565b600191505092915050565b6000805b600680549050811015611084576006818154811061100d5761100c614f8c565b5b9060005260206000200160009054906101000a900473ffffffffffffffffffffffffffffffffffffffff1673ffffffffffffffffffffffffffffffffffffffff163373ffffffffffffffffffffffffffffffffffffffff16036110735760019150611084565b8061107d90614fbb565b9050610fec565b5060011515811515146110cc576040517f08c379a00000000000000000000000000000000000000000000000000000000081526004016110c390615075565b60405180910390fd5b60018214806110db5750600282145b61111a576040517f08c379a000000000000000000000000000000000000000000000000000000000815260040161111190615107565b60405180910390fd5b60018203611186576006839080600181540180825580915050600190039060005260206000200160009091909190916101000a81548173ffffffffffffffffffffffffffffffffffffffff021916908373ffffffffffffffffffffffffffffffffffffffff1602179055505b600282036111f2576007839080600181540180825580915050600190039060005260206000200160009091909190916101000a81548173ffffffffffffffffffffffffffffffffffffffff021916908373ffffffffffffffffffffffffffffffffffffffff1602179055505b505050565b60126020528060005260406000206000915090505481565b600f602052816000526040600020818154811061122b57600080fd5b90600052602060002090600202016000915091505080600001549080600101805461125590614ef8565b80601f016020809104026020016040519081016040528092919081815260200182805461128190614ef8565b80156112ce5780601f106112a3576101008083540402835291602001916112ce565b820191906000526020600020905b8154815290600101906020018083116112b157829003601f168201915b5050505050905082565b600c6020528060005260406000206000915090508060000180546112fb90614ef8565b80601f016020809104026020016040519081016040528092919081815260200182805461132790614ef8565b80156113745780601f1061134957610100808354040283529160200191611374565b820191906000526020600020905b81548152906001019060200180831161135757829003601f168201915b5050505050908060010154908060020160009054906101000a900460ff16908060020160019054906101000a900473ffffffffffffffffffffffffffffffffffffffff16905084565b6000805b60068054905081101561145957600681815481106113e2576113e1614f8c565b5b9060005260206000200160009054906101000a900473ffffffffffffffffffffffffffffffffffffffff1673ffffffffffffffffffffffffffffffffffffffff163373ffffffffffffffffffffffffffffffffffffffff16036114485760019150611459565b8061145290614fbb565b90506113c1565b5060011515811515146114a1576040517f08c379a000000000000000000000000000000000000000000000000000000000815260040161149890615075565b60405180910390fd5b600115156114ae84613cd6565b1515146114f0576040517f08c379a00000000000000000000000000000000000000000000000000000000081526004016114e790615173565b60405180910390fd5b600a604051806040016040528085815260200184815250908060018154018082558091505060019003906000526020600020906002020160009091909190915060008201518160000155602082015181600101908161154f919061533f565b505050505050565b6015602052816000526040600020818154811061157357600080fd5b9060005260206000200160009150915050805461158f90614ef8565b80601f01602080910402602001604051908101604052809291908181526020018280546115bb90614ef8565b80156116085780601f106115dd57610100808354040283529160200191611608565b820191906000526020600020905b8154815290600101906020018083116115eb57829003601f168201915b505050505081565b6000606061161c614062565b60005b600a8054905081101561172057600a81815481106116405761163f614f8c565b5b906000526020600020906002020160000154870361170d57600a818154811061166c5761166b614f8c565b5b9060005260206000209060020201600101805461168890614ef8565b80601f01602080910402602001604051908101604052809291908181526020018280546116b490614ef8565b80156117015780601f106116d657610100808354040283529160200191611701565b820191906000526020600020905b8154815290600101906020018083116116e457829003601f168201915b50505050509250611720565b808061171890614fbb565b91505061161f565b5060005b600d60003373ffffffffffffffffffffffffffffffffffffffff1673ffffffffffffffffffffffffffffffffffffffff16815260200190815260200160002080549050811015611b6e57600d60003373ffffffffffffffffffffffffffffffffffffffff1673ffffffffffffffffffffffffffffffffffffffff16815260200190815260200160002081815481106117bf576117be614f8c565b5b90600052602060002090600502016000016040516020016117e0919061549f565b604051602081830303815290604052805190602001208360405160200161180791906154e7565b6040516020818303038152906040528051906020012014801561188b575084600d60003373ffffffffffffffffffffffffffffffffffffffff1673ffffffffffffffffffffffffffffffffffffffff168152602001908152602001600020828154811061187757611876614f8c565b5b906000526020600020906005020160010154145b15611b5b576040518060a00160405280848152602001868152602001600d60003373ffffffffffffffffffffffffffffffffffffffff1673ffffffffffffffffffffffffffffffffffffffff16815260200190815260200160002083815481106118f8576118f7614f8c565b5b9060005260206000209060050201600201805461191490614ef8565b80601f016020809104026020016040519081016040528092919081815260200182805461194090614ef8565b801561198d5780601f106119625761010080835404028352916020019161198d565b820191906000526020600020905b81548152906001019060200180831161197057829003601f168201915b50505050508152602001600d60003373ffffffffffffffffffffffffffffffffffffffff1673ffffffffffffffffffffffffffffffffffffffff16815260200190815260200160002083815481106119e8576119e7614f8c565b5b9060005260206000209060050201600301548152602001600d60003373ffffffffffffffffffffffffffffffffffffffff1673ffffffffffffffffffffffffffffffffffffffff1681526020019081526020016000208381548110611a5057611a4f614f8c565b5b906000526020600020906005020160040160009054906101000a900460ff1615158152509150601060003373ffffffffffffffffffffffffffffffffffffffff1673ffffffffffffffffffffffffffffffffffffffff16815260200190815260200160002060008781526020019081526020016000208290806001815401808255809150506001900390600052602060002090600502016000909190919091506000820151816000019081611b05919061533f565b50602082015181600101556040820151816002019081611b25919061533f565b506060820151816003015560808201518160040160006101000a81548160ff021916908315150217905550505060019350611b6e565b8080611b6690614fbb565b915050611724565b5082611baf576040517f08c379a0000000000000000000000000000000000000000000000000000000008152600401611ba69061554a565b60405180910390fd5b7f8cfd32ca49e15f5d71d662ec110ffc94a0cc63b34453ceaa4c952aade13624fc611bd986613d3d565b82604051611be89291906155e7565b60405180910390a1505050505050565b60008060008373ffffffffffffffffffffffffffffffffffffffff1673ffffffffffffffffffffffffffffffffffffffff168152602001908152602001600020549050919050565b600f60003373ffffffffffffffffffffffffffffffffffffffff1673ffffffffffffffffffffffffffffffffffffffff1681526020019081526020016000206040518060400160405280848152602001838152509080600181540180825580915050600190039060005260206000209060020201600090919091909150600082015181600001556020820151816001019081611cdc919061533f565b5050507ff538047aa51f8b732c1850d69564ec0d033aca661921dba9871bf8feff7a435f8282604051611d1092919061456e565b60405180910390a15050565b60116020528260005260406000206020528160005260406000208181548110611d4457600080fd5b90600052602060002090600202016000925092505050806000015490806001018054611d6f90614ef8565b80601f0160208091040260200160405190810160405280929190818152602001828054611d9b90614ef8565b8015611de85780601f10611dbd57610100808354040283529160200191611de8565b820191906000526020600020905b815481529060010190602001808311611dcb57829003601f168201915b5050505050905082565b606060005b600a80549050811015611fb257600a8181548110611e1857611e17614f8c565b5b9060005260206000209060020201600001548403611fa157600a8181548110611e4457611e43614f8c565b5b90600052602060002090600202016001018054611e6090614ef8565b80601f0160208091040260200160405190810160405280929190818152602001828054611e8c90614ef8565b8015611ed95780601f10611eae57610100808354040283529160200191611ed9565b820191906000526020600020905b815481529060010190602001808311611ebc57829003601f168201915b50505050509150601160003373ffffffffffffffffffffffffffffffffffffffff1673ffffffffffffffffffffffffffffffffffffffff1681526020019081526020016000206000848152602001908152602001600020600a8281548110611f4457611f43614f8c565b5b906000526020600020906002020190806001815401808255809150506001900390600052602060002090600202016000909190919091506000820154816000015560018201816001019081611f999190615634565b505050611fb2565b80611fab90614fbb565b9050611df7565b507fd7946cbb0489e47c8c2faf56dc8b80b813314d02e6b57537c75f27e3706b76c481611fde85613d3d565b604051611fec92919061571c565b60405180910390a1505050565b6060600a805480602002602001604051908101604052809291908181526020016000905b828210156120eb57838290600052602060002090600202016040518060400160405290816000820154815260200160018201805461205a90614ef8565b80601f016020809104026020016040519081016040528092919081815260200182805461208690614ef8565b80156120d35780601f106120a8576101008083540402835291602001916120d3565b820191906000526020600020905b8154815290600101906020018083116120b657829003601f168201915b5050505050815250508152602001906001019061201d565b50505050905090565b600080600090505b600980549050811015612191576009818154811061211d5761211c614f8c565b5b906000526020600020906002020160000154830361217e57600115156009828154811061214d5761214c614f8c565b5b906000526020600020906002020160010160009054906101000a900460ff1615150361217d576000915050612197565b5b808061218990614fbb565b9150506120fc565b50600190505b919050565b6060600480546121ab90614ef8565b80601f01602080910402602001604051908101604052809291908181526020018280546121d790614ef8565b80156122245780601f106121f957610100808354040283529160200191612224565b820191906000526020600020905b81548152906001019060200180831161220757829003601f168201915b5050505050905090565b60008060008061223d856123ce565b925092509250600186828585604051600081526020016040526040516122669493929190615753565b6020604051602081039080840390855afa158015612288573d6000803e3d6000fd5b50505060206040510351935050505092915050565b600080600090505b6009805490508110156122fb57600981815481106122c6576122c5614f8c565b5b90600052602060002090600202016000015483036122e8576000915050612301565b80806122f390614fbb565b9150506122a5565b50600190505b919050565b60136020528060005260406000206000915090505481565b6000848484846040516020016123379493929190615801565b604051602081830303815290604052805190602001209050949350505050565b600080612362613803565b905060006123708286612e4f565b9050838110156123b5576040517f08c379a00000000000000000000000000000000000000000000000000000000081526004016123ac906158bd565b60405180910390fd5b6123c2828686840361380b565b60019250505092915050565b60008060006041845114612417576040517f08c379a000000000000000000000000000000000000000000000000000000000815260040161240e90615929565b60405180910390fd5b6020840151925060408401519150606084015160001a90509193909250565b600080612441613803565b905061244e818585613a60565b600191505092915050565b6000806124688787878761231e565b90506000612475826137d3565b90508873ffffffffffffffffffffffffffffffffffffffff16612498828661222e565b73ffffffffffffffffffffffffffffffffffffffff1614925050509695505050505050565b606060005b600d60003373ffffffffffffffffffffffffffffffffffffffff1673ffffffffffffffffffffffffffffffffffffffff1681526020019081526020016000208054905081101561287a57600d60003373ffffffffffffffffffffffffffffffffffffffff1673ffffffffffffffffffffffffffffffffffffffff168152602001908152602001600020818154811061255d5761255c614f8c565b5b90600052602060002090600502016001015485036128675760001515600d60003373ffffffffffffffffffffffffffffffffffffffff1673ffffffffffffffffffffffffffffffffffffffff16815260200190815260200160002082815481106125ca576125c9614f8c565b5b906000526020600020906005020160040160009054906101000a900460ff1615151461262b576040517f08c379a000000000000000000000000000000000000000000000000000000000815260040161262290615995565b60405180910390fd5b83600d60003373ffffffffffffffffffffffffffffffffffffffff1673ffffffffffffffffffffffffffffffffffffffff168152602001908152602001600020828154811061267d5761267c614f8c565b5b9060005260206000209060050201600201908161269a919061533f565b5082600d60003373ffffffffffffffffffffffffffffffffffffffff1673ffffffffffffffffffffffffffffffffffffffff16815260200190815260200160002082815481106126ed576126ec614f8c565b5b906000526020600020906005020160030181905550600d60003373ffffffffffffffffffffffffffffffffffffffff1673ffffffffffffffffffffffffffffffffffffffff168152602001908152602001600020818154811061275357612752614f8c565b5b9060005260206000209060050201600001805461276f90614ef8565b80601f016020809104026020016040519081016040528092919081815260200182805461279b90614ef8565b80156127e85780601f106127bd576101008083540402835291602001916127e8565b820191906000526020600020905b8154815290600101906020018083116127cb57829003601f168201915b5050505050915060011515600d60003373ffffffffffffffffffffffffffffffffffffffff1673ffffffffffffffffffffffffffffffffffffffff168152602001908152602001600020828154811061284457612843614f8c565b5b906000526020600020906005020160040160009054906101000a9050505061287a565b808061287290614fbb565b9150506124c2565b5060005b600a80549050811015612a3257600a818154811061289f5761289e614f8c565b5b90600052602060002090600202016001016040516020016128c0919061549f565b60405160208183030381529060405280519060200120826040516020016128e791906154e7565b6040516020818303038152906040528051906020012003612a1f5760156000600a838154811061291a57612919614f8c565b5b90600052602060002090600202016000015481526020019081526020016000208490806001815401808255809150506001900390600052602060002001600090919091909150908161296c919061533f565b5060146000600a838154811061298557612984614f8c565b5b906000526020600020906002020160000154815260200190815260200160002083908060018154018082558091505060019003906000526020600020016000909190919091505560136000600a83815481106129e4576129e3614f8c565b5b90600052602060002090600202016000015481526020019081526020016000206000815480929190612a1590614fbb565b9190505550612a32565b8080612a2a90614fbb565b91505061287e565b5050505050565b6000805b600680549050811015612ad55760068181548110612a5e57612a5d614f8c565b5b9060005260206000200160009054906101000a900473ffffffffffffffffffffffffffffffffffffffff1673ffffffffffffffffffffffffffffffffffffffff163373ffffffffffffffffffffffffffffffffffffffff1603612ac45760019150612ad5565b80612ace90614fbb565b9050612a3d565b506001151581151514612b1d576040517f08c379a0000000000000000000000000000000000000000000000000000000008152600401612b1490615075565b60405180910390fd5b612b268261229d565b612b65576040517f08c379a0000000000000000000000000000000000000000000000000000000008152600401612b5c90615a01565b60405180910390fd5b600960405180604001604052808481526020016000151581525090806001815401808255809150506001900390600052602060002090600202016000909190919091506000820151816000015560208201518160010160006101000a81548160ff02191690831515021790555050505050565b6000806040518060400160405280601c81526020017f19457468657265756d205369676e6564204d6573736167653a0a333200000000815250905060008187604051602001612c28929190615a89565b604051602081830303815290604052805190602001209050600060018288888860405160008152602001604052604051612c659493929190615753565b6020604051602081039080840390855afa158015612c87573d6000803e3d6000fd5b505050602060405103519050600560009054906101000a900473ffffffffffffffffffffffffffffffffffffffff1673ffffffffffffffffffffffffffffffffffffffff168173ffffffffffffffffffffffffffffffffffffffff1603612cf45760019350505050612cfc565b600093505050505b949350505050565b6060601160003373ffffffffffffffffffffffffffffffffffffffff1673ffffffffffffffffffffffffffffffffffffffff1681526020019081526020016000206000838152602001908152602001600020805480602002602001604051908101604052809291908181526020016000905b82821015612e44578382906000526020600020906002020160405180604001604052908160008201548152602001600182018054612db390614ef8565b80601f0160208091040260200160405190810160405280929190818152602001828054612ddf90614ef8565b8015612e2c5780601f10612e0157610100808354040283529160200191612e2c565b820191906000526020600020905b815481529060010190602001808311612e0f57829003601f168201915b50505050508152505081526020019060010190612d76565b505050509050919050565b6000600160008473ffffffffffffffffffffffffffffffffffffffff1673ffffffffffffffffffffffffffffffffffffffff16815260200190815260200160002060008373ffffffffffffffffffffffffffffffffffffffff1673ffffffffffffffffffffffffffffffffffffffff16815260200190815260200160002054905092915050565b612ee4868686868686612459565b15612ef657612ef5856103e8613f02565b5b505050505050565b600060405180608001604052808481526020018381526020016001151581526020013373ffffffffffffffffffffffffffffffffffffffff16815250905082600c60003373ffffffffffffffffffffffffffffffffffffffff1673ffffffffffffffffffffffffffffffffffffffff1681526020019081526020016000206000019081612f8b919061533f565b5081600c60003373ffffffffffffffffffffffffffffffffffffffff1673ffffffffffffffffffffffffffffffffffffffff1681526020019081526020016000206001018190555033600c60003373ffffffffffffffffffffffffffffffffffffffff1673ffffffffffffffffffffffffffffffffffffffff16815260200190815260200160002060020160016101000a81548173ffffffffffffffffffffffffffffffffffffffff021916908373ffffffffffffffffffffffffffffffffffffffff160217905550600c60003373ffffffffffffffffffffffffffffffffffffffff1673ffffffffffffffffffffffffffffffffffffffff16815260200190815260200160002060020160009054906101000a900460ff166131b957600b81908060018154018082558091505060019003906000526020600020906003020160009091909190915060008201518160000190816130e9919061533f565b506020820151816001015560408201518160020160006101000a81548160ff02191690831515021790555060608201518160020160016101000a81548173ffffffffffffffffffffffffffffffffffffffff021916908373ffffffffffffffffffffffffffffffffffffffff16021790555050506001600c60003373ffffffffffffffffffffffffffffffffffffffff1673ffffffffffffffffffffffffffffffffffffffff16815260200190815260200160002060020160006101000a81548160ff0219169083151502179055505b7ff9aabaa28b0c7b9b6a80283c8b8fd6983df8e2c5703e65ee433dbbd73730626883836040516131ea929190615ab1565b60405180910390a1505050565b6014602052816000526040600020818154811061321357600080fd5b90600052602060002001600091509150505481565b6010602052826000526040600020602052816000526040600020818154811061325057600080fd5b9060005260206000209060050201600092509250505080600001805461327590614ef8565b80601f01602080910402602001604051908101604052809291908181526020018280546132a190614ef8565b80156132ee5780601f106132c3576101008083540402835291602001916132ee565b820191906000526020600020905b8154815290600101906020018083116132d157829003601f168201915b50505050509080600101549080600201805461330990614ef8565b80601f016020809104026020016040519081016040528092919081815260200182805461333590614ef8565b80156133825780601f1061335757610100808354040283529160200191613382565b820191906000526020600020905b81548152906001019060200180831161336557829003601f168201915b5050505050908060030154908060040160009054906101000a900460ff16905085565b6000805b6009805490508110156134ab57600981815481106133ca576133c9614f8c565b5b906000526020600020906002020160000154840361349857600981815481106133f6576133f5614f8c565b5b906000526020600020906002020160010160009054906101000a900460ff1615613455576040517f08c379a000000000000000000000000000000000000000000000000000000000815260040161344c90615b2d565b60405180910390fd5b6001915060016009828154811061346f5761346e614f8c565b5b906000526020600020906002020160010160006101000a81548160ff0219169083151502179055505b80806134a390614fbb565b9150506133a9565b50606060005b600a8054905081101561378c57600a81815481106134d2576134d1614f8c565b5b906000526020600020906002020160000154840361377957600a81815481106134fe576134fd614f8c565b5b9060005260206000209060020201600101805461351a90614ef8565b80601f016020809104026020016040519081016040528092919081815260200182805461354690614ef8565b80156135935780601f1061356857610100808354040283529160200191613593565b820191906000526020600020905b81548152906001019060200180831161357657829003601f168201915b505050505091506012600085815260200190815260200160002060008154809291906135be90614fbb565b9190505550600d60003373ffffffffffffffffffffffffffffffffffffffff1673ffffffffffffffffffffffffffffffffffffffff1681526020019081526020016000206040518060a00160405280600a848154811061362157613620614f8c565b5b9060005260206000209060020201600101805461363d90614ef8565b80601f016020809104026020016040519081016040528092919081815260200182805461366990614ef8565b80156136b65780601f1061368b576101008083540402835291602001916136b6565b820191906000526020600020905b81548152906001019060200180831161369957829003601f168201915b50505050508152602001428152602001604051806020016040528060008152508152602001600081526020016000151581525090806001815401808255809150506001900390600052602060002090600502016000909190919091506000820151816000019081613727919061533f565b50602082015181600101556040820151816002019081613747919061533f565b506060820151816003015560808201518160040160006101000a81548160ff021916908315150217905550505061378c565b808061378490614fbb565b9150506134b1565b507fff5c2ee41d7e7ef2f86292afb2c1c8b7a326d2751cf3d3bb056bc2bbf1a3603b84826040516137be92919061456e565b60405180910390a150505050565b6000919050565b6000816040516020016137e69190615b99565b604051602081830303815290604052805190602001209050919050565b600033905090565b600073ffffffffffffffffffffffffffffffffffffffff168373ffffffffffffffffffffffffffffffffffffffff160361387a576040517f08c379a000000000000000000000000000000000000000000000000000000000815260040161387190615c31565b60405180910390fd5b600073ffffffffffffffffffffffffffffffffffffffff168273ffffffffffffffffffffffffffffffffffffffff16036138e9576040517f08c379a00000000000000000000000000000000000000000000000000000000081526004016138e090615cc3565b60405180910390fd5b80600160008573ffffffffffffffffffffffffffffffffffffffff1673ffffffffffffffffffffffffffffffffffffffff16815260200190815260200160002060008473ffffffffffffffffffffffffffffffffffffffff1673ffffffffffffffffffffffffffffffffffffffff168152602001908152602001600020819055508173ffffffffffffffffffffffffffffffffffffffff168373ffffffffffffffffffffffffffffffffffffffff167f8c5be1e5ebec7d5bd14f71427d1e84f3dd0314c0f7b2291e5b200ac8c7c3b925836040516139c7919061443b565b60405180910390a3505050565b60006139e08484612e4f565b90507fffffffffffffffffffffffffffffffffffffffffffffffffffffffffffffffff8114613a5a5781811015613a4c576040517f08c379a0000000000000000000000000000000000000000000000000000000008152600401613a4390615d2f565b60405180910390fd5b613a59848484840361380b565b5b50505050565b600073ffffffffffffffffffffffffffffffffffffffff168373ffffffffffffffffffffffffffffffffffffffff1603613acf576040517f08c379a0000000000000000000000000000000000000000000000000000000008152600401613ac690615dc1565b60405180910390fd5b600073ffffffffffffffffffffffffffffffffffffffff168273ffffffffffffffffffffffffffffffffffffffff1603613b3e576040517f08c379a0000000000000000000000000000000000000000000000000000000008152600401613b3590615e53565b60405180910390fd5b613b49838383614058565b60008060008573ffffffffffffffffffffffffffffffffffffffff1673ffffffffffffffffffffffffffffffffffffffff16815260200190815260200160002054905081811015613bcf576040517f08c379a0000000000000000000000000000000000000000000000000000000008152600401613bc690615ee5565b60405180910390fd5b8181036000808673ffffffffffffffffffffffffffffffffffffffff1673ffffffffffffffffffffffffffffffffffffffff16815260200190815260200160002081905550816000808573ffffffffffffffffffffffffffffffffffffffff1673ffffffffffffffffffffffffffffffffffffffff168152602001908152602001600020600082825401925050819055508273ffffffffffffffffffffffffffffffffffffffff168473ffffffffffffffffffffffffffffffffffffffff167fddf252ad1be2c89b69c2b068fc378daa952ba7f163c4a11628f55a4df523b3ef84604051613cbd919061443b565b60405180910390a3613cd084848461405d565b50505050565b600080600090505b600a80549050811015613d3257600a8181548110613cff57613cfe614f8c565b5b9060005260206000209060020201600001548303613d21576000915050613d38565b80613d2b90614fbb565b9050613cde565b50600190505b919050565b606060005b600f60003373ffffffffffffffffffffffffffffffffffffffff1673ffffffffffffffffffffffffffffffffffffffff16815260200190815260200160002080549050811015613efb57600f60003373ffffffffffffffffffffffffffffffffffffffff1673ffffffffffffffffffffffffffffffffffffffff1681526020019081526020016000208181548110613ddd57613ddc614f8c565b5b9060005260206000209060020201600001548303613ee857600f60003373ffffffffffffffffffffffffffffffffffffffff1673ffffffffffffffffffffffffffffffffffffffff1681526020019081526020016000208181548110613e4657613e45614f8c565b5b90600052602060002090600202016001018054613e6290614ef8565b80601f0160208091040260200160405190810160405280929190818152602001828054613e8e90614ef8565b8015613edb5780601f10613eb057610100808354040283529160200191613edb565b820191906000526020600020905b815481529060010190602001808311613ebe57829003601f168201915b5050505050915050613efd565b8080613ef390614fbb565b915050613d42565b505b919050565b600073ffffffffffffffffffffffffffffffffffffffff168273ffffffffffffffffffffffffffffffffffffffff1603613f71576040517f08c379a0000000000000000000000000000000000000000000000000000000008152600401613f6890615f51565b60405180910390fd5b613f7d60008383614058565b8060026000828254613f8f9190614f58565b92505081905550806000808473ffffffffffffffffffffffffffffffffffffffff1673ffffffffffffffffffffffffffffffffffffffff168152602001908152602001600020600082825401925050819055508173ffffffffffffffffffffffffffffffffffffffff16600073ffffffffffffffffffffffffffffffffffffffff167fddf252ad1be2c89b69c2b068fc378daa952ba7f163c4a11628f55a4df523b3ef83604051614040919061443b565b60405180910390a36140546000838361405d565b5050565b505050565b505050565b6040518060a00160405280606081526020016000815260200160608152602001600081526020016000151581525090565b600081519050919050565b600082825260208201905092915050565b60005b838110156140cd5780820151818401526020810190506140b2565b60008484015250505050565b6000601f19601f8301169050919050565b60006140f582614093565b6140ff818561409e565b935061410f8185602086016140af565b614118816140d9565b840191505092915050565b6000602082019050818103600083015261413d81846140ea565b905092915050565b6000604051905090565b600080fd5b600080fd5b600073ffffffffffffffffffffffffffffffffffffffff82169050919050565b600061418482614159565b9050919050565b61419481614179565b811461419f57600080fd5b50565b6000813590506141b18161418b565b92915050565b6000819050919050565b6141ca816141b7565b81146141d557600080fd5b50565b6000813590506141e7816141c1565b92915050565b600080604083850312156142045761420361414f565b5b6000614212858286016141a2565b9250506020614223858286016141d8565b9150509250929050565b60008115159050919050565b6142428161422d565b82525050565b600060208201905061425d6000830184614239565b92915050565b600081519050919050565b600082825260208201905092915050565b6000819050602082019050919050565b600082825260208201905092915050565b60006142ab82614093565b6142b5818561428f565b93506142c58185602086016140af565b6142ce816140d9565b840191505092915050565b6142e2816141b7565b82525050565b6142f18161422d565b82525050565b600060a083016000830151848203600086015261431482826142a0565b915050602083015161432960208601826142d9565b506040830151848203604086015261434182826142a0565b915050606083015161435660608601826142d9565b50608083015161436960808601826142e8565b508091505092915050565b600061438083836142f7565b905092915050565b6000602082019050919050565b60006143a082614263565b6143aa818561426e565b9350836020820285016143bc8561427f565b8060005b858110156143f857848403895281516143d98582614374565b94506143e483614388565b925060208a019950506001810190506143c0565b50829750879550505050505092915050565b600060208201905081810360008301526144248184614395565b905092915050565b614435816141b7565b82525050565b6000602082019050614450600083018461442c565b92915050565b60008060006060848603121561446f5761446e61414f565b5b600061447d868287016141a2565b935050602061448e868287016141a2565b925050604061449f868287016141d8565b9150509250925092565b6000602082840312156144bf576144be61414f565b5b60006144cd848285016141d8565b91505092915050565b600060ff82169050919050565b6144ec816144d6565b82525050565b600060208201905061450760008301846144e3565b92915050565b600060a082019050818103600083015261452781886140ea565b9050614536602083018761442c565b818103604083015261454881866140ea565b9050614557606083018561442c565b6145646080830184614239565b9695505050505050565b6000604082019050614583600083018561442c565b818103602083015261459581846140ea565b90509392505050565b6000602082840312156145b4576145b361414f565b5b60006145c2848285016141a2565b91505092915050565b6145d481614179565b82525050565b600060808201905081810360008301526145f481876140ea565b9050614603602083018661442c565b6146106040830185614239565b61461d60608301846145cb565b95945050505050565b600080fd5b600080fd5b7f4e487b7100000000000000000000000000000000000000000000000000000000600052604160045260246000fd5b614668826140d9565b810181811067ffffffffffffffff8211171561468757614686614630565b5b80604052505050565b600061469a614145565b90506146a6828261465f565b919050565b600067ffffffffffffffff8211156146c6576146c5614630565b5b6146cf826140d9565b9050602081019050919050565b82818337600083830152505050565b60006146fe6146f9846146ab565b614690565b90508281526020810184848401111561471a5761471961462b565b5b6147258482856146dc565b509392505050565b600082601f83011261474257614741614626565b5b81356147528482602086016146eb565b91505092915050565b600080604083850312156147725761477161414f565b5b6000614780858286016141d8565b925050602083013567ffffffffffffffff8111156147a1576147a0614154565b5b6147ad8582860161472d565b9150509250929050565b600080604083850312156147ce576147cd61414f565b5b60006147dc858286016141d8565b92505060206147ed858286016141d8565b9150509250929050565b6000806000606084860312156148105761480f61414f565b5b600061481e868287016141d8565b935050602061482f868287016141d8565b9250506040614840868287016141d8565b9150509250925092565b6000806000606084860312156148635761486261414f565b5b6000614871868287016141a2565b9350506020614882868287016141d8565b9250506040614893868287016141d8565b9150509250925092565b600081519050919050565b600082825260208201905092915050565b6000819050602082019050919050565b60006040830160008301516148e160008601826142d9565b50602083015184820360208601526148f982826142a0565b9150508091505092915050565b600061491283836148c9565b905092915050565b6000602082019050919050565b60006149328261489d565b61493c81856148a8565b93508360208202850161494e856148b9565b8060005b8581101561498a578484038952815161496b8582614906565b94506149768361491a565b925060208a01995050600181019050614952565b50829750879550505050505092915050565b600060208201905081810360008301526149b68184614927565b905092915050565b6000819050919050565b6149d1816149be565b81146149dc57600080fd5b50565b6000813590506149ee816149c8565b92915050565b600067ffffffffffffffff821115614a0f57614a0e614630565b5b614a18826140d9565b9050602081019050919050565b6000614a38614a33846149f4565b614690565b905082815260208101848484011115614a5457614a5361462b565b5b614a5f8482856146dc565b509392505050565b600082601f830112614a7c57614a7b614626565b5b8135614a8c848260208601614a25565b91505092915050565b60008060408385031215614aac57614aab61414f565b5b6000614aba858286016149df565b925050602083013567ffffffffffffffff811115614adb57614ada614154565b5b614ae785828601614a67565b9150509250929050565b6000602082019050614b0660008301846145cb565b92915050565b60008060008060808587031215614b2657614b2561414f565b5b6000614b34878288016141a2565b9450506020614b45878288016141d8565b935050604085013567ffffffffffffffff811115614b6657614b65614154565b5b614b728782880161472d565b9250506060614b83878288016141d8565b91505092959194509250565b614b98816149be565b82525050565b6000602082019050614bb36000830184614b8f565b92915050565b600060208284031215614bcf57614bce61414f565b5b600082013567ffffffffffffffff811115614bed57614bec614154565b5b614bf984828501614a67565b91505092915050565b6000606082019050614c176000830186614b8f565b614c246020830185614b8f565b614c3160408301846144e3565b949350505050565b60008060008060008060c08789031215614c5657614c5561414f565b5b6000614c6489828a016141a2565b9650506020614c7589828a016141a2565b9550506040614c8689828a016141d8565b945050606087013567ffffffffffffffff811115614ca757614ca6614154565b5b614cb389828a0161472d565b9350506080614cc489828a016141d8565b92505060a087013567ffffffffffffffff811115614ce557614ce4614154565b5b614cf189828a01614a67565b9150509295509295509295565b600080600060608486031215614d1757614d1661414f565b5b6000614d25868287016141d8565b935050602084013567ffffffffffffffff811115614d4657614d45614154565b5b614d528682870161472d565b9250506040614d63868287016141d8565b9150509250925092565b614d76816144d6565b8114614d8157600080fd5b50565b600081359050614d9381614d6d565b92915050565b60008060008060808587031215614db357614db261414f565b5b6000614dc1878288016149df565b9450506020614dd287828801614d84565b9350506040614de3878288016149df565b9250506060614df4878288016149df565b91505092959194509250565b60008060408385031215614e1757614e1661414f565b5b6000614e25858286016141a2565b9250506020614e36858286016141a2565b9150509250929050565b60008060408385031215614e5757614e5661414f565b5b600083013567ffffffffffffffff811115614e7557614e74614154565b5b614e818582860161472d565b9250506020614e92858286016141d8565b9150509250929050565b600060208284031215614eb257614eb161414f565b5b6000614ec0848285016149df565b91505092915050565b7f4e487b7100000000000000000000000000000000000000000000000000000000600052602260045260246000fd5b60006002820490506001821680614f1057607f821691505b602082108103614f2357614f22614ec9565b5b50919050565b7f4e487b7100000000000000000000000000000000000000000000000000000000600052601160045260246000fd5b6000614f63826141b7565b9150614f6e836141b7565b9250828201905080821115614f8657614f85614f29565b5b92915050565b7f4e487b7100000000000000000000000000000000000000000000000000000000600052603260045260246000fd5b6000614fc6826141b7565b91507fffffffffffffffffffffffffffffffffffffffffffffffffffffffffffffffff8203614ff857614ff7614f29565b5b600182019050919050565b7f4f6e6c792061646d696e2063616e2063616c6c20746869732066756e6374696f60008201527f6e00000000000000000000000000000000000000000000000000000000000000602082015250565b600061505f60218361409e565b915061506a82615003565b604082019050919050565b6000602082019050818103600083015261508e81615052565b9050919050565b7f496e76616c696420726f6c652c206f6e6c792061646d696e206f72207365727660008201527f696365207375697461626c652e00000000000000000000000000000000000000602082015250565b60006150f1602d8361409e565b91506150fc82615095565b604082019050919050565b60006020820190508181036000830152615120816150e4565b9050919050565b7f496e64657820686173206265656e20616c726561647920657869737465640000600082015250565b600061515d601e8361409e565b915061516882615127565b602082019050919050565b6000602082019050818103600083015261518c81615150565b9050919050565b60008190508160005260206000209050919050565b60006020601f8301049050919050565b600082821b905092915050565b6000600883026151f57fffffffffffffffffffffffffffffffffffffffffffffffffffffffffffffffff826151b8565b6151ff86836151b8565b95508019841693508086168417925050509392505050565b6000819050919050565b600061523c615237615232846141b7565b615217565b6141b7565b9050919050565b6000819050919050565b61525683615221565b61526a61526282615243565b8484546151c5565b825550505050565b600090565b61527f615272565b61528a81848461524d565b505050565b5b818110156152ae576152a3600082615277565b600181019050615290565b5050565b601f8211156152f3576152c481615193565b6152cd846151a8565b810160208510156152dc578190505b6152f06152e8856151a8565b83018261528f565b50505b505050565b600082821c905092915050565b6000615316600019846008026152f8565b1980831691505092915050565b600061532f8383615305565b9150826002028217905092915050565b61534882614093565b67ffffffffffffffff81111561536157615360614630565b5b61536b8254614ef8565b6153768282856152b2565b600060209050601f8311600181146153a95760008415615397578287015190505b6153a18582615323565b865550615409565b601f1984166153b786615193565b60005b828110156153df578489015182556001820191506020850194506020810190506153ba565b868310156153fc57848901516153f8601f891682615305565b8355505b6001600288020188555050505b505050505050565b600081905092915050565b6000815461542981614ef8565b6154338186615411565b9450600182166000811461544e576001811461546357615496565b60ff1983168652811515820286019350615496565b61546c85615193565b60005b8381101561548e5781548189015260018201915060208101905061546f565b838801955050505b50505092915050565b60006154ab828461541c565b915081905092915050565b60006154c182614093565b6154cb8185615411565b93506154db8185602086016140af565b80840191505092915050565b60006154f382846154b6565b915081905092915050565b7f546869732044657374696e6174696f6e20776173206e6f7420636865636b696e600082015250565b600061553460208361409e565b915061553f826154fe565b602082019050919050565b6000602082019050818103600083015261556381615527565b9050919050565b600060a083016000830151848203600086015261558782826142a0565b915050602083015161559c60208601826142d9565b50604083015184820360408601526155b482826142a0565b91505060608301516155c960608601826142d9565b5060808301516155dc60808601826142e8565b508091505092915050565b6000604082019050818103600083015261560181856140ea565b90508181036020830152615615818461556a565b90509392505050565b60008154905061562d81614ef8565b9050919050565b81810361564257505061571a565b61564b8261561e565b67ffffffffffffffff81111561566457615663614630565b5b61566e8254614ef8565b6156798282856152b2565b6000601f8311600181146156a85760008415615696578287015490505b6156a08582615323565b865550615713565b601f1984166156b687615193565b96506156c186615193565b60005b828110156156e9578489015482556001820191506001850194506020810190506156c4565b868310156157065784890154615702601f891682615305565b8355505b6001600288020188555050505b5050505050505b565b6000604082019050818103600083015261573681856140ea565b9050818103602083015261574a81846140ea565b90509392505050565b60006080820190506157686000830187614b8f565b61577560208301866144e3565b6157826040830185614b8f565b61578f6060830184614b8f565b95945050505050565b60008160601b9050919050565b60006157b082615798565b9050919050565b60006157c2826157a5565b9050919050565b6157da6157d582614179565b6157b7565b82525050565b6000819050919050565b6157fb6157f6826141b7565b6157e0565b82525050565b600061580d82876157c9565b60148201915061581d82866157ea565b60208201915061582d82856154b6565b915061583982846157ea565b60208201915081905095945050505050565b7f45524332303a2064656372656173656420616c6c6f77616e63652062656c6f7760008201527f207a65726f000000000000000000000000000000000000000000000000000000602082015250565b60006158a760258361409e565b91506158b28261584b565b604082019050919050565b600060208201905081810360008301526158d68161589a565b9050919050565b7f696e76616c6964207369676e6174757265206c656e6774680000000000000000600082015250565b600061591360188361409e565b915061591e826158dd565b602082019050919050565b6000602082019050818103600083015261594281615906565b9050919050565b7f596f7520686164206265656e2072657669657765642074686973207472697000600082015250565b600061597f601f8361409e565b915061598a82615949565b602082019050919050565b600060208201905081810360008301526159ae81615972565b9050919050565b7f5468697320494420616c72656164792065786973746564000000000000000000600082015250565b60006159eb60178361409e565b91506159f6826159b5565b602082019050919050565b60006020820190508181036000830152615a1a816159de565b9050919050565b600081519050919050565b600081905092915050565b6000615a4282615a21565b615a4c8185615a2c565b9350615a5c8185602086016140af565b80840191505092915050565b6000819050919050565b615a83615a7e826149be565b615a68565b82525050565b6000615a958285615a37565b9150615aa18284615a72565b6020820191508190509392505050565b60006040820190508181036000830152615acb81856140ea565b9050615ada602083018461442c565b9392505050565b7f5469636b65742068617320757365640000000000000000000000000000000000600082015250565b6000615b17600f8361409e565b9150615b2282615ae1565b602082019050919050565b60006020820190508181036000830152615b4681615b0a565b9050919050565b7f19457468657265756d205369676e6564204d6573736167653a0a333200000000600082015250565b6000615b83601c83615411565b9150615b8e82615b4d565b601c82019050919050565b6000615ba482615b76565b9150615bb08284615a72565b60208201915081905092915050565b7f45524332303a20617070726f76652066726f6d20746865207a65726f2061646460008201527f7265737300000000000000000000000000000000000000000000000000000000602082015250565b6000615c1b60248361409e565b9150615c2682615bbf565b604082019050919050565b60006020820190508181036000830152615c4a81615c0e565b9050919050565b7f45524332303a20617070726f766520746f20746865207a65726f20616464726560008201527f7373000000000000000000000000000000000000000000000000000000000000602082015250565b6000615cad60228361409e565b9150615cb882615c51565b604082019050919050565b60006020820190508181036000830152615cdc81615ca0565b9050919050565b7f45524332303a20696e73756666696369656e7420616c6c6f77616e6365000000600082015250565b6000615d19601d8361409e565b9150615d2482615ce3565b602082019050919050565b60006020820190508181036000830152615d4881615d0c565b9050919050565b7f45524332303a207472616e736665722066726f6d20746865207a65726f20616460008201527f6472657373000000000000000000000000000000000000000000000000000000602082015250565b6000615dab60258361409e565b9150615db682615d4f565b604082019050919050565b60006020820190508181036000830152615dda81615d9e565b9050919050565b7f45524332303a207472616e7366657220746f20746865207a65726f206164647260008201527f6573730000000000000000000000000000000000000000000000000000000000602082015250565b6000615e3d60238361409e565b9150615e4882615de1565b604082019050919050565b60006020820190508181036000830152615e6c81615e30565b9050919050565b7f45524332303a207472616e7366657220616d6f756e742065786365656473206260008201527f616c616e63650000000000000000000000000000000000000000000000000000602082015250565b6000615ecf60268361409e565b9150615eda82615e73565b604082019050919050565b60006020820190508181036000830152615efe81615ec2565b9050919050565b7f45524332303a206d696e7420746f20746865207a65726f206164647265737300600082015250565b6000615f3b601f8361409e565b9150615f4682615f05565b602082019050919050565b60006020820190508181036000830152615f6a81615f2e565b905091905056fea26469706673582212201a1e54afb6cef13fba81ab0db6e94d1a5e93367bf32deb3753c2fc4be2998e5864736f6c63430008130033",
  "linkReferences": {},
  "deployedLinkReferences": {}
}