{
  "_format": "hh-sol-artifact-1",
  "contractName": "TouristConTract",
  "sourceName": "contracts/Tourism.sol",
  "abi": [
    {
      "inputs": [],
      "stateMutability": "nonpayable",
      "type": "constructor"
    },
    {
      "anonymous": false,
      "inputs": [
        {
          "indexed": true,
          "internalType": "address",
          "name": "owner",
          "type": "address"
        },
        {
          "indexed": true,
          "internalType": "address",
          "name": "spender",
          "type": "address"
        },
        {
          "indexed": false,
          "internalType": "uint256",
          "name": "value",
          "type": "uint256"
        }
      ],
      "name": "Approval",
      "type": "event"
    },
    {
      "anonymous": false,
      "inputs": [
        {
          "indexed": false,
          "internalType": "uint256",
          "name": "ticketId",
          "type": "uint256"
        },
        {
          "indexed": false,
          "internalType": "uint256",
          "name": "placeId",
          "type": "uint256"
        }
      ],
      "name": "CheckIn",
      "type": "event"
    },
    {
      "anonymous": false,
      "inputs": [
        {
          "indexed": false,
          "internalType": "string",
          "name": "voucherID",
          "type": "string"
        },
        {
          "indexed": false,
          "internalType": "uint256",
          "name": "amount",
          "type": "uint256"
        }
      ],
      "name": "ExchangeVoucher",
      "type": "event"
    },
    {
      "anonymous": false,
      "inputs": [
        {
          "indexed": false,
          "internalType": "uint256",
          "name": "placeId",
          "type": "uint256"
        },
        {
          "indexed": false,
          "internalType": "uint256",
          "name": "idTrip",
          "type": "uint256"
        },
        {
          "indexed": false,
          "internalType": "string",
          "name": "comment",
          "type": "string"
        },
        {
          "indexed": false,
          "internalType": "uint256",
          "name": "rate",
          "type": "uint256"
        },
        {
          "indexed": false,
          "internalType": "string",
          "name": "title",
          "type": "string"
        }
      ],
      "name": "Review",
      "type": "event"
    },
    {
      "anonymous": false,
      "inputs": [
        {
          "indexed": true,
          "internalType": "address",
          "name": "from",
          "type": "address"
        },
        {
          "indexed": true,
          "internalType": "address",
          "name": "to",
          "type": "address"
        },
        {
          "indexed": false,
          "internalType": "uint256",
          "name": "value",
          "type": "uint256"
        }
      ],
      "name": "Transfer",
      "type": "event"
    },
    {
      "inputs": [
        {
          "internalType": "address",
          "name": "_signer",
          "type": "address"
        },
        {
          "internalType": "address",
          "name": "_to",
          "type": "address"
        },
        {
          "internalType": "uint8",
          "name": "_amount",
          "type": "uint8"
        },
        {
          "internalType": "string",
          "name": "_message",
          "type": "string"
        },
        {
          "internalType": "uint256",
          "name": "_nonce",
          "type": "uint256"
        },
        {
          "internalType": "bytes",
          "name": "signature",
          "type": "bytes"
        }
      ],
      "name": "_exchangeReward",
      "outputs": [],
      "stateMutability": "nonpayable",
      "type": "function"
    },
    {
      "inputs": [
        {
          "internalType": "address",
          "name": "_signer",
          "type": "address"
        },
        {
          "internalType": "address",
          "name": "_to",
          "type": "address"
        },
        {
          "internalType": "uint8",
          "name": "_amount",
          "type": "uint8"
        },
        {
          "internalType": "string",
          "name": "_message",
          "type": "string"
        },
        {
          "internalType": "uint256",
          "name": "_nonce",
          "type": "uint256"
        },
        {
          "internalType": "bytes",
          "name": "signature",
          "type": "bytes"
        }
      ],
      "name": "_mintMinerReward",
      "outputs": [],
      "stateMutability": "nonpayable",
      "type": "function"
    },
    {
      "inputs": [
        {
          "internalType": "uint256",
          "name": "id",
          "type": "uint256"
        }
      ],
      "name": "addTicket",
      "outputs": [],
      "stateMutability": "nonpayable",
      "type": "function"
    },
    {
      "inputs": [
        {
          "internalType": "address",
          "name": "",
          "type": "address"
        },
        {
          "internalType": "uint256",
          "name": "",
          "type": "uint256"
        },
        {
          "internalType": "uint256",
          "name": "",
          "type": "uint256"
        }
      ],
      "name": "albumJourneys",
      "outputs": [
        {
          "internalType": "uint256",
          "name": "tripId",
          "type": "uint256"
        },
        {
          "internalType": "uint256",
          "name": "placeId",
          "type": "uint256"
        },
        {
          "internalType": "uint256",
          "name": "arrivalDate",
          "type": "uint256"
        },
        {
          "internalType": "string",
          "name": "review",
          "type": "string"
        },
        {
          "internalType": "uint256",
          "name": "rate",
          "type": "uint256"
        },
        {
          "internalType": "bool",
          "name": "isReview",
          "type": "bool"
        },
        {
          "internalType": "string",
          "name": "title",
          "type": "string"
        }
      ],
      "stateMutability": "view",
      "type": "function"
    },
    {
      "inputs": [
        {
          "internalType": "address",
          "name": "owner",
          "type": "address"
        },
        {
          "internalType": "address",
          "name": "spender",
          "type": "address"
        }
      ],
      "name": "allowance",
      "outputs": [
        {
          "internalType": "uint256",
          "name": "",
          "type": "uint256"
        }
      ],
      "stateMutability": "view",
      "type": "function"
    },
    {
      "inputs": [
        {
          "internalType": "address",
          "name": "spender",
          "type": "address"
        },
        {
          "internalType": "uint256",
          "name": "amount",
          "type": "uint256"
        }
      ],
      "name": "approve",
      "outputs": [
        {
          "internalType": "bool",
          "name": "",
          "type": "bool"
        }
      ],
      "stateMutability": "nonpayable",
      "type": "function"
    },
    {
      "inputs": [
        {
          "internalType": "address",
          "name": "account",
          "type": "address"
        }
      ],
      "name": "balanceOf",
      "outputs": [
        {
          "internalType": "uint256",
          "name": "",
          "type": "uint256"
        }
      ],
      "stateMutability": "view",
      "type": "function"
    },
    {
      "inputs": [
        {
          "internalType": "uint256",
          "name": "ticketID",
          "type": "uint256"
        },
        {
          "internalType": "uint256",
          "name": "placeID",
          "type": "uint256"
        }
      ],
      "name": "checkIn",
      "outputs": [],
      "stateMutability": "nonpayable",
      "type": "function"
    },
    {
      "inputs": [
        {
          "internalType": "uint256",
          "name": "ticketID",
          "type": "uint256"
        }
      ],
      "name": "checkValidTicket",
      "outputs": [
        {
          "internalType": "bool",
          "name": "",
          "type": "bool"
        }
      ],
      "stateMutability": "view",
      "type": "function"
    },
    {
      "inputs": [
        {
          "internalType": "uint256",
          "name": "",
          "type": "uint256"
        }
      ],
      "name": "checkedIn",
      "outputs": [
        {
          "internalType": "uint256",
          "name": "",
          "type": "uint256"
        }
      ],
      "stateMutability": "view",
      "type": "function"
    },
    {
      "inputs": [],
      "name": "decimals",
      "outputs": [
        {
          "internalType": "uint8",
          "name": "",
          "type": "uint8"
        }
      ],
      "stateMutability": "view",
      "type": "function"
    },
    {
      "inputs": [
        {
          "internalType": "address",
          "name": "spender",
          "type": "address"
        },
        {
          "internalType": "uint256",
          "name": "subtractedValue",
          "type": "uint256"
        }
      ],
      "name": "decreaseAllowance",
      "outputs": [
        {
          "internalType": "bool",
          "name": "",
          "type": "bool"
        }
      ],
      "stateMutability": "nonpayable",
      "type": "function"
    },
    {
      "inputs": [
        {
          "internalType": "uint256",
          "name": "",
          "type": "uint256"
        },
        {
          "internalType": "uint256",
          "name": "",
          "type": "uint256"
        }
      ],
      "name": "destinationRates",
      "outputs": [
        {
          "internalType": "uint256",
          "name": "",
          "type": "uint256"
        }
      ],
      "stateMutability": "view",
      "type": "function"
    },
    {
      "inputs": [
        {
          "internalType": "string",
          "name": "voucherID",
          "type": "string"
        },
        {
          "internalType": "address",
          "name": "_signer",
          "type": "address"
        },
        {
          "internalType": "address",
          "name": "_to",
          "type": "address"
        },
        {
          "internalType": "uint8",
          "name": "_amount",
          "type": "uint8"
        },
        {
          "internalType": "string",
          "name": "_message",
          "type": "string"
        },
        {
          "internalType": "uint256",
          "name": "_nonce",
          "type": "uint256"
        },
        {
          "internalType": "bytes",
          "name": "signature",
          "type": "bytes"
        }
      ],
      "name": "exchangeVoucher",
      "outputs": [],
      "stateMutability": "nonpayable",
      "type": "function"
    },
    {
      "inputs": [],
      "name": "getAllJourney",
      "outputs": [
        {
          "components": [
            {
              "internalType": "uint256",
              "name": "tripId",
              "type": "uint256"
            },
            {
              "internalType": "uint256",
              "name": "placeId",
              "type": "uint256"
            },
            {
              "internalType": "uint256",
              "name": "arrivalDate",
              "type": "uint256"
            },
            {
              "internalType": "string",
              "name": "review",
              "type": "string"
            },
            {
              "internalType": "uint256",
              "name": "rate",
              "type": "uint256"
            },
            {
              "internalType": "bool",
              "name": "isReview",
              "type": "bool"
            },
            {
              "internalType": "string",
              "name": "title",
              "type": "string"
            }
          ],
          "internalType": "struct TouristConTract.Journey[]",
          "name": "",
          "type": "tuple[]"
        }
      ],
      "stateMutability": "view",
      "type": "function"
    },
    {
      "inputs": [
        {
          "internalType": "uint256",
          "name": "placeid",
          "type": "uint256"
        }
      ],
      "name": "getAllRates",
      "outputs": [
        {
          "internalType": "uint256[]",
          "name": "",
          "type": "uint256[]"
        }
      ],
      "stateMutability": "view",
      "type": "function"
    },
    {
      "inputs": [
        {
          "internalType": "bytes32",
          "name": "_messageHash",
          "type": "bytes32"
        }
      ],
      "name": "getEthSignedMessageHash",
      "outputs": [
        {
          "internalType": "bytes32",
          "name": "",
          "type": "bytes32"
        }
      ],
      "stateMutability": "pure",
      "type": "function"
    },
    {
      "inputs": [
        {
          "internalType": "uint256[]",
          "name": "idTrip",
          "type": "uint256[]"
        }
      ],
      "name": "getJourneyWithID",
      "outputs": [
        {
          "components": [
            {
              "internalType": "uint256",
              "name": "tripId",
              "type": "uint256"
            },
            {
              "internalType": "uint256",
              "name": "placeId",
              "type": "uint256"
            },
            {
              "internalType": "uint256",
              "name": "arrivalDate",
              "type": "uint256"
            },
            {
              "internalType": "string",
              "name": "review",
              "type": "string"
            },
            {
              "internalType": "uint256",
              "name": "rate",
              "type": "uint256"
            },
            {
              "internalType": "bool",
              "name": "isReview",
              "type": "bool"
            },
            {
              "internalType": "string",
              "name": "title",
              "type": "string"
            }
          ],
          "internalType": "struct TouristConTract.Journey[]",
          "name": "",
          "type": "tuple[]"
        }
      ],
      "stateMutability": "view",
      "type": "function"
    },
    {
      "inputs": [
        {
          "internalType": "address",
          "name": "_to",
          "type": "address"
        },
        {
          "internalType": "uint256",
          "name": "_amount",
          "type": "uint256"
        },
        {
          "internalType": "string",
          "name": "_message",
          "type": "string"
        },
        {
          "internalType": "uint256",
          "name": "_nonce",
          "type": "uint256"
        }
      ],
      "name": "getMessageHash",
      "outputs": [
        {
          "internalType": "bytes32",
          "name": "",
          "type": "bytes32"
        }
      ],
      "stateMutability": "pure",
      "type": "function"
    },
    {
      "inputs": [
        {
          "internalType": "uint256",
          "name": "placeid",
          "type": "uint256"
        }
      ],
      "name": "getReviewsInPlace",
      "outputs": [
        {
          "components": [
            {
              "internalType": "uint256",
              "name": "tripId",
              "type": "uint256"
            },
            {
              "internalType": "uint256",
              "name": "placeId",
              "type": "uint256"
            },
            {
              "internalType": "uint256",
              "name": "arrivalDate",
              "type": "uint256"
            },
            {
              "internalType": "string",
              "name": "review",
              "type": "string"
            },
            {
              "internalType": "uint256",
              "name": "rate",
              "type": "uint256"
            },
            {
              "internalType": "bool",
              "name": "isReview",
              "type": "bool"
            },
            {
              "internalType": "string",
              "name": "title",
              "type": "string"
            }
          ],
          "internalType": "struct TouristConTract.Journey[]",
          "name": "",
          "type": "tuple[]"
        }
      ],
      "stateMutability": "view",
      "type": "function"
    },
    {
      "inputs": [
        {
          "internalType": "address",
          "name": "userAddress",
          "type": "address"
        },
        {
          "internalType": "uint256",
          "name": "role",
          "type": "uint256"
        }
      ],
      "name": "grantRole",
      "outputs": [],
      "stateMutability": "nonpayable",
      "type": "function"
    },
    {
      "inputs": [
        {
          "internalType": "address",
          "name": "spender",
          "type": "address"
        },
        {
          "internalType": "uint256",
          "name": "addedValue",
          "type": "uint256"
        }
      ],
      "name": "increaseAllowance",
      "outputs": [
        {
          "internalType": "bool",
          "name": "",
          "type": "bool"
        }
      ],
      "stateMutability": "nonpayable",
      "type": "function"
    },
    {
      "inputs": [],
      "name": "name",
      "outputs": [
        {
          "internalType": "string",
          "name": "",
          "type": "string"
        }
      ],
      "stateMutability": "view",
      "type": "function"
    },
    {
      "inputs": [
        {
          "internalType": "uint256",
          "name": "",
          "type": "uint256"
        }
      ],
      "name": "ratePeople",
      "outputs": [
        {
          "internalType": "uint256",
          "name": "",
          "type": "uint256"
        }
      ],
      "stateMutability": "view",
      "type": "function"
    },
    {
      "inputs": [
        {
          "internalType": "bytes32",
          "name": "_ethSignedMessageHash",
          "type": "bytes32"
        },
        {
          "internalType": "bytes",
          "name": "_signature",
          "type": "bytes"
        }
      ],
      "name": "recoverSigner",
      "outputs": [
        {
          "internalType": "address",
          "name": "",
          "type": "address"
        }
      ],
      "stateMutability": "pure",
      "type": "function"
    },
    {
      "inputs": [
        {
          "internalType": "uint256",
          "name": "placeId",
          "type": "uint256"
        },
        {
          "internalType": "uint256",
          "name": "idTrip",
          "type": "uint256"
        },
        {
          "internalType": "string",
          "name": "comment",
          "type": "string"
        },
        {
          "internalType": "uint256",
          "name": "rate",
          "type": "uint256"
        },
        {
          "internalType": "string",
          "name": "title",
          "type": "string"
        },
        {
          "internalType": "address",
          "name": "_signer",
          "type": "address"
        },
        {
          "internalType": "address",
          "name": "_to",
          "type": "address"
        },
        {
          "internalType": "uint8",
          "name": "_amount",
          "type": "uint8"
        },
        {
          "internalType": "string",
          "name": "_message",
          "type": "string"
        },
        {
          "internalType": "uint256",
          "name": "_nonce",
          "type": "uint256"
        },
        {
          "internalType": "bytes",
          "name": "signature",
          "type": "bytes"
        }
      ],
      "name": "review",
      "outputs": [],
      "stateMutability": "nonpayable",
      "type": "function"
    },
    {
      "inputs": [
        {
          "internalType": "bytes",
          "name": "sig",
          "type": "bytes"
        }
      ],
      "name": "splitSignature",
      "outputs": [
        {
          "internalType": "bytes32",
          "name": "r",
          "type": "bytes32"
        },
        {
          "internalType": "bytes32",
          "name": "s",
          "type": "bytes32"
        },
        {
          "internalType": "uint8",
          "name": "v",
          "type": "uint8"
        }
      ],
      "stateMutability": "pure",
      "type": "function"
    },
    {
      "inputs": [],
      "name": "symbol",
      "outputs": [
        {
          "internalType": "string",
          "name": "",
          "type": "string"
        }
      ],
      "stateMutability": "view",
      "type": "function"
    },
    {
      "inputs": [],
      "name": "totalSupply",
      "outputs": [
        {
          "internalType": "uint256",
          "name": "",
          "type": "uint256"
        }
      ],
      "stateMutability": "view",
      "type": "function"
    },
    {
      "inputs": [
        {
          "internalType": "address",
          "name": "",
          "type": "address"
        }
      ],
      "name": "touristIdentify",
      "outputs": [
        {
          "internalType": "string",
          "name": "name",
          "type": "string"
        },
        {
          "internalType": "uint256",
          "name": "age",
          "type": "uint256"
        },
        {
          "internalType": "bool",
          "name": "signup",
          "type": "bool"
        },
        {
          "internalType": "address",
          "name": "touristAddress",
          "type": "address"
        }
      ],
      "stateMutability": "view",
      "type": "function"
    },
    {
      "inputs": [
        {
          "internalType": "address",
          "name": "",
          "type": "address"
        },
        {
          "internalType": "uint256",
          "name": "",
          "type": "uint256"
        }
      ],
      "name": "touristJourneys",
      "outputs": [
        {
          "internalType": "uint256",
          "name": "tripId",
          "type": "uint256"
        },
        {
          "internalType": "uint256",
          "name": "placeId",
          "type": "uint256"
        },
        {
          "internalType": "uint256",
          "name": "arrivalDate",
          "type": "uint256"
        },
        {
          "internalType": "string",
          "name": "review",
          "type": "string"
        },
        {
          "internalType": "uint256",
          "name": "rate",
          "type": "uint256"
        },
        {
          "internalType": "bool",
          "name": "isReview",
          "type": "bool"
        },
        {
          "internalType": "string",
          "name": "title",
          "type": "string"
        }
      ],
      "stateMutability": "view",
      "type": "function"
    },
    {
      "inputs": [
        {
          "internalType": "address",
          "name": "to",
          "type": "address"
        },
        {
          "internalType": "uint256",
          "name": "amount",
          "type": "uint256"
        }
      ],
      "name": "transfer",
      "outputs": [
        {
          "internalType": "bool",
          "name": "",
          "type": "bool"
        }
      ],
      "stateMutability": "nonpayable",
      "type": "function"
    },
    {
      "inputs": [
        {
          "internalType": "address",
          "name": "from",
          "type": "address"
        },
        {
          "internalType": "address",
          "name": "to",
          "type": "address"
        },
        {
          "internalType": "uint256",
          "name": "amount",
          "type": "uint256"
        }
      ],
      "name": "transferFrom",
      "outputs": [
        {
          "internalType": "bool",
          "name": "",
          "type": "bool"
        }
      ],
      "stateMutability": "nonpayable",
      "type": "function"
    },
    {
      "inputs": [
        {
          "internalType": "uint256",
          "name": "id",
          "type": "uint256"
        }
      ],
      "name": "validAddIDTicket",
      "outputs": [
        {
          "internalType": "bool",
          "name": "",
          "type": "bool"
        }
      ],
      "stateMutability": "view",
      "type": "function"
    },
    {
      "inputs": [
        {
          "internalType": "address",
          "name": "_signer",
          "type": "address"
        },
        {
          "internalType": "address",
          "name": "_to",
          "type": "address"
        },
        {
          "internalType": "uint256",
          "name": "_amount",
          "type": "uint256"
        },
        {
          "internalType": "string",
          "name": "_message",
          "type": "string"
        },
        {
          "internalType": "uint256",
          "name": "_nonce",
          "type": "uint256"
        },
        {
          "internalType": "bytes",
          "name": "signature",
          "type": "bytes"
        }
      ],
      "name": "verify",
      "outputs": [
        {
          "internalType": "bool",
          "name": "",
          "type": "bool"
        }
      ],
      "stateMutability": "pure",
      "type": "function"
    }
  ],
  "bytecode": "0x60806040523480156200001157600080fd5b506040518060400160405280600781526020017f4443546f6b656e000000000000000000000000000000000000000000000000008152506040518060400160405280600281526020017f587500000000000000000000000000000000000000000000000000000000000081525081600390816200008f9190620019a8565b508060049081620000a19190620019a8565b50505060096040518060400160405280600181526020016000151581525090806001815401808255809150506001900390600052602060002090600202016000909190919091506000820151816000015560208201518160010160006101000a81548160ff021916908315150217905550505060096040518060400160405280600281526020016000151581525090806001815401808255809150506001900390600052602060002090600202016000909190919091506000820151816000015560208201518160010160006101000a81548160ff021916908315150217905550505060096040518060400160405280600381526020016000151581525090806001815401808255809150506001900390600052602060002090600202016000909190919091506000820151816000015560208201518160010160006101000a81548160ff021916908315150217905550505060096040518060400160405280600481526020016000151581525090806001815401808255809150506001900390600052602060002090600202016000909190919091506000820151816000015560208201518160010160006101000a81548160ff021916908315150217905550505060096040518060400160405280600581526020016000151581525090806001815401808255809150506001900390600052602060002090600202016000909190919091506000820151816000015560208201518160010160006101000a81548160ff021916908315150217905550505060096040518060400160405280600681526020016000151581525090806001815401808255809150506001900390600052602060002090600202016000909190919091506000820151816000015560208201518160010160006101000a81548160ff021916908315150217905550505060096040518060400160405280600781526020016000151581525090806001815401808255809150506001900390600052602060002090600202016000909190919091506000820151816000015560208201518160010160006101000a81548160ff021916908315150217905550505060096040518060400160405280600881526020016000151581525090806001815401808255809150506001900390600052602060002090600202016000909190919091506000820151816000015560208201518160010160006101000a81548160ff021916908315150217905550505060096040518060400160405280600981526020016000151581525090806001815401808255809150506001900390600052602060002090600202016000909190919091506000820151816000015560208201518160010160006101000a81548160ff021916908315150217905550505060096040518060400160405280600a81526020016000151581525090806001815401808255809150506001900390600052602060002090600202016000909190919091506000820151816000015560208201518160010160006101000a81548160ff021916908315150217905550505060096040518060400160405280600b81526020016000151581525090806001815401808255809150506001900390600052602060002090600202016000909190919091506000820151816000015560208201518160010160006101000a81548160ff021916908315150217905550505060096040518060400160405280600c81526020016000151581525090806001815401808255809150506001900390600052602060002090600202016000909190919091506000820151816000015560208201518160010160006101000a81548160ff021916908315150217905550505060096040518060400160405280600d81526020016000151581525090806001815401808255809150506001900390600052602060002090600202016000909190919091506000820151816000015560208201518160010160006101000a81548160ff021916908315150217905550505060096040518060400160405280600e81526020016000151581525090806001815401808255809150506001900390600052602060002090600202016000909190919091506000820151816000015560208201518160010160006101000a81548160ff021916908315150217905550505060096040518060400160405280600f81526020016000151581525090806001815401808255809150506001900390600052602060002090600202016000909190919091506000820151816000015560208201518160010160006101000a81548160ff021916908315150217905550505060096040518060400160405280601081526020016000151581525090806001815401808255809150506001900390600052602060002090600202016000909190919091506000820151816000015560208201518160010160006101000a81548160ff021916908315150217905550505060096040518060400160405280601181526020016000151581525090806001815401808255809150506001900390600052602060002090600202016000909190919091506000820151816000015560208201518160010160006101000a81548160ff021916908315150217905550505060096040518060400160405280601281526020016000151581525090806001815401808255809150506001900390600052602060002090600202016000909190919091506000820151816000015560208201518160010160006101000a81548160ff021916908315150217905550505060096040518060400160405280601381526020016000151581525090806001815401808255809150506001900390600052602060002090600202016000909190919091506000820151816000015560208201518160010160006101000a81548160ff021916908315150217905550505060096040518060400160405280601481526020016000151581525090806001815401808255809150506001900390600052602060002090600202016000909190919091506000820151816000015560208201518160010160006101000a81548160ff021916908315150217905550505060096040518060400160405280601581526020016000151581525090806001815401808255809150506001900390600052602060002090600202016000909190919091506000820151816000015560208201518160010160006101000a81548160ff021916908315150217905550505060096040518060400160405280601681526020016000151581525090806001815401808255809150506001900390600052602060002090600202016000909190919091506000820151816000015560208201518160010160006101000a81548160ff021916908315150217905550505060096040518060400160405280601781526020016000151581525090806001815401808255809150506001900390600052602060002090600202016000909190919091506000820151816000015560208201518160010160006101000a81548160ff021916908315150217905550505060096040518060400160405280601881526020016000151581525090806001815401808255809150506001900390600052602060002090600202016000909190919091506000820151816000015560208201518160010160006101000a81548160ff021916908315150217905550505060096040518060400160405280601981526020016000151581525090806001815401808255809150506001900390600052602060002090600202016000909190919091506000820151816000015560208201518160010160006101000a81548160ff021916908315150217905550505060096040518060400160405280601a81526020016000151581525090806001815401808255809150506001900390600052602060002090600202016000909190919091506000820151816000015560208201518160010160006101000a81548160ff021916908315150217905550505060096040518060400160405280601b81526020016000151581525090806001815401808255809150506001900390600052602060002090600202016000909190919091506000820151816000015560208201518160010160006101000a81548160ff021916908315150217905550505060096040518060400160405280601c81526020016000151581525090806001815401808255809150506001900390600052602060002090600202016000909190919091506000820151816000015560208201518160010160006101000a81548160ff021916908315150217905550505060096040518060400160405280601d81526020016000151581525090806001815401808255809150506001900390600052602060002090600202016000909190919091506000820151816000015560208201518160010160006101000a81548160ff021916908315150217905550505060096040518060400160405280601e81526020016000151581525090806001815401808255809150506001900390600052602060002090600202016000909190919091506000820151816000015560208201518160010160006101000a81548160ff021916908315150217905550505060096040518060400160405280601f81526020016000151581525090806001815401808255809150506001900390600052602060002090600202016000909190919091506000820151816000015560208201518160010160006101000a81548160ff021916908315150217905550505060096040518060400160405280602081526020016000151581525090806001815401808255809150506001900390600052602060002090600202016000909190919091506000820151816000015560208201518160010160006101000a81548160ff021916908315150217905550505060096040518060400160405280602181526020016000151581525090806001815401808255809150506001900390600052602060002090600202016000909190919091506000820151816000015560208201518160010160006101000a81548160ff021916908315150217905550505060096040518060400160405280602281526020016000151581525090806001815401808255809150506001900390600052602060002090600202016000909190919091506000820151816000015560208201518160010160006101000a81548160ff021916908315150217905550505060096040518060400160405280602381526020016000151581525090806001815401808255809150506001900390600052602060002090600202016000909190919091506000820151816000015560208201518160010160006101000a81548160ff021916908315150217905550505060096040518060400160405280602481526020016000151581525090806001815401808255809150506001900390600052602060002090600202016000909190919091506000820151816000015560208201518160010160006101000a81548160ff021916908315150217905550505060096040518060400160405280602581526020016000151581525090806001815401808255809150506001900390600052602060002090600202016000909190919091506000820151816000015560208201518160010160006101000a81548160ff021916908315150217905550505060096040518060400160405280602681526020016000151581525090806001815401808255809150506001900390600052602060002090600202016000909190919091506000820151816000015560208201518160010160006101000a81548160ff021916908315150217905550505060096040518060400160405280602781526020016000151581525090806001815401808255809150506001900390600052602060002090600202016000909190919091506000820151816000015560208201518160010160006101000a81548160ff021916908315150217905550505060096040518060400160405280602881526020016000151581525090806001815401808255809150506001900390600052602060002090600202016000909190919091506000820151816000015560208201518160010160006101000a81548160ff021916908315150217905550505060096040518060400160405280602981526020016000151581525090806001815401808255809150506001900390600052602060002090600202016000909190919091506000820151816000015560208201518160010160006101000a81548160ff021916908315150217905550505060096040518060400160405280602a81526020016000151581525090806001815401808255809150506001900390600052602060002090600202016000909190919091506000820151816000015560208201518160010160006101000a81548160ff021916908315150217905550505060096040518060400160405280602b81526020016000151581525090806001815401808255809150506001900390600052602060002090600202016000909190919091506000820151816000015560208201518160010160006101000a81548160ff021916908315150217905550505060096040518060400160405280602c81526020016000151581525090806001815401808255809150506001900390600052602060002090600202016000909190919091506000820151816000015560208201518160010160006101000a81548160ff021916908315150217905550505060096040518060400160405280602d81526020016000151581525090806001815401808255809150506001900390600052602060002090600202016000909190919091506000820151816000015560208201518160010160006101000a81548160ff021916908315150217905550505060096040518060400160405280602e81526020016000151581525090806001815401808255809150506001900390600052602060002090600202016000909190919091506000820151816000015560208201518160010160006101000a81548160ff021916908315150217905550505060096040518060400160405280602f81526020016000151581525090806001815401808255809150506001900390600052602060002090600202016000909190919091506000820151816000015560208201518160010160006101000a81548160ff021916908315150217905550505060096040518060400160405280603081526020016000151581525090806001815401808255809150506001900390600052602060002090600202016000909190919091506000820151816000015560208201518160010160006101000a81548160ff021916908315150217905550505060096040518060400160405280603181526020016000151581525090806001815401808255809150506001900390600052602060002090600202016000909190919091506000820151816000015560208201518160010160006101000a81548160ff021916908315150217905550505060096040518060400160405280603281526020016000151581525090806001815401808255809150506001900390600052602060002090600202016000909190919091506000820151816000015560208201518160010160006101000a81548160ff02191690831515021790555050506006339080600181540180825580915050600190039060005260206000200160009091909190916101000a81548173ffffffffffffffffffffffffffffffffffffffff021916908373ffffffffffffffffffffffffffffffffffffffff16021790555033600560006101000a81548173ffffffffffffffffffffffffffffffffffffffff021916908373ffffffffffffffffffffffffffffffffffffffff16021790555062001a8f565b600081519050919050565b7f4e487b7100000000000000000000000000000000000000000000000000000000600052604160045260246000fd5b7f4e487b7100000000000000000000000000000000000000000000000000000000600052602260045260246000fd5b60006002820490506001821680620017b057607f821691505b602082108103620017c657620017c562001768565b5b50919050565b60008190508160005260206000209050919050565b60006020601f8301049050919050565b600082821b905092915050565b600060088302620018307fffffffffffffffffffffffffffffffffffffffffffffffffffffffffffffffff82620017f1565b6200183c8683620017f1565b95508019841693508086168417925050509392505050565b6000819050919050565b6000819050919050565b600062001889620018836200187d8462001854565b6200185e565b62001854565b9050919050565b6000819050919050565b620018a58362001868565b620018bd620018b48262001890565b848454620017fe565b825550505050565b600090565b620018d4620018c5565b620018e18184846200189a565b505050565b5b818110156200190957620018fd600082620018ca565b600181019050620018e7565b5050565b601f82111562001958576200192281620017cc565b6200192d84620017e1565b810160208510156200193d578190505b620019556200194c85620017e1565b830182620018e6565b50505b505050565b600082821c905092915050565b60006200197d600019846008026200195d565b1980831691505092915050565b60006200199883836200196a565b9150826002028217905092915050565b620019b3826200172e565b67ffffffffffffffff811115620019cf57620019ce62001739565b5b620019db825462001797565b620019e88282856200190d565b600060209050601f83116001811462001a20576000841562001a0b578287015190505b62001a1785826200198a565b86555062001a87565b601f19841662001a3086620017cc565b60005b8281101562001a5a5784890151825560018201915060208501945060208101905062001a33565b8683101562001a7a578489015162001a76601f8916826200196a565b8355505b6001600288020188555050505b505050505050565b61516d8062001a9f6000396000f3fe608060405234801561001057600080fd5b50600436106102115760003560e01c806393f4052111610125578063b04ccd8f116100ad578063ebfbdec91161007c578063ebfbdec9146106ef578063f2fa49b41461071f578063f516f88e14610755578063fa54080114610771578063fc0587f8146107a157610211565b8063b04ccd8f1461066b578063b429131914610687578063b5b5e5bb146106a3578063dd62ed3e146106bf57610211565b8063a35f8a40116100f4578063a35f8a4014610579578063a457c2d7146105a9578063a7bb5803146105d9578063a9059cbb1461060b578063abe5026a1461063b57610211565b806393f40521146104cb57806395d89b41146104fb57806397aba7f9146105195780639e26c4941461054957610211565b806339509351116101a857806370a082311161017757806370a08231146103ef5780637291a8981461041f578063789024221461044f578063890fb4b01461047f5780638fab3caa1461049b57610211565b806339509351146103545780633c09e2fd146103845780635d430d63146103a057806362533665146103bc57610211565b806318160ddd116101e457806318160ddd146102b257806323b872dd146102d0578063313ce56714610300578063374936821461031e57610211565b8063020865961461021657806306fdde0314610246578063095ea7b3146102645780630f13090e14610294575b600080fd5b610230600480360381019061022b9190613047565b6107d1565b60405161023d9190613083565b60405180910390f35b61024e6107e9565b60405161025b919061312e565b60405180910390f35b61027e600480360381019061027991906131ae565b61087b565b60405161028b9190613209565b60405180910390f35b61029c61089e565b6040516102a991906133f1565b60405180910390f35b6102ba610aa1565b6040516102c79190613083565b60405180910390f35b6102ea60048036038101906102e59190613413565b610aab565b6040516102f79190613209565b60405180910390f35b610308610ada565b6040516103159190613482565b60405180910390f35b610338600480360381019061033391906131ae565b610ae3565b60405161034b979695949392919061349d565b60405180910390f35b61036e600480360381019061036991906131ae565b610c5f565b60405161037b9190613209565b60405180910390f35b61039e600480360381019061039991906131ae565b610c96565b005b6103ba60048036038101906103b5919061371c565b610ea5565b005b6103d660048036038101906103d19190613812565b610f43565b6040516103e6949392919061384e565b60405180910390f35b61040960048036038101906104049190613812565b611028565b6040516104169190613083565b60405180910390f35b61043960048036038101906104349190613047565b611070565b6040516104469190613083565b60405180910390f35b61046960048036038101906104649190613047565b611088565b6040516104769190613949565b60405180910390f35b6104996004803603810190610494919061396b565b6110f3565b005b6104b560048036038101906104b09190613af8565b611175565b6040516104c291906133f1565b60405180910390f35b6104e560048036038101906104e09190613047565b6114e1565b6040516104f29190613209565b60405180910390f35b610503611589565b604051610510919061312e565b60405180910390f35b610533600480360381019061052e9190613b77565b61161b565b6040516105409190613bd3565b60405180910390f35b610563600480360381019061055e9190613047565b61168a565b6040516105709190613209565b60405180910390f35b610593600480360381019061058e9190613bee565b6117d9565b6040516105a09190613c80565b60405180910390f35b6105c360048036038101906105be91906131ae565b611812565b6040516105d09190613209565b60405180910390f35b6105f360048036038101906105ee9190613c9b565b611889565b60405161060293929190613ce4565b60405180910390f35b610625600480360381019061062091906131ae565b6118f1565b6040516106329190613209565b60405180910390f35b61065560048036038101906106509190613d1b565b611914565b6040516106629190613209565b60405180910390f35b6106856004803603810190610680919061396b565b611978565b005b6106a1600480360381019061069c9190613047565b6119fa565b005b6106bd60048036038101906106b89190613de0565b611b99565b005b6106d960048036038101906106d49190613f44565b6120b9565b6040516106e69190613083565b60405180910390f35b61070960048036038101906107049190613f84565b612140565b6040516107169190613083565b60405180910390f35b61073960048036038101906107349190613fc4565b612171565b60405161074c979695949392919061349d565b60405180910390f35b61076f600480360381019061076a9190613f84565b6122fa565b005b61078b60048036038101906107869190614017565b6125b5565b6040516107989190613c80565b60405180910390f35b6107bb60048036038101906107b69190613047565b6125e5565b6040516107c891906133f1565b60405180910390f35b60106020528060005260406000206000915090505481565b6060600380546107f890614073565b80601f016020809104026020016040519081016040528092919081815260200182805461082490614073565b80156108715780601f1061084657610100808354040283529160200191610871565b820191906000526020600020905b81548152906001019060200180831161085457829003601f168201915b5050505050905090565b6000806108866127be565b90506108938185856127c6565b600191505092915050565b6060600d60003373ffffffffffffffffffffffffffffffffffffffff1673ffffffffffffffffffffffffffffffffffffffff168152602001908152602001600020805480602002602001604051908101604052809291908181526020016000905b82821015610a9857838290600052602060002090600702016040518060e001604052908160008201548152602001600182015481526020016002820154815260200160038201805461095090614073565b80601f016020809104026020016040519081016040528092919081815260200182805461097c90614073565b80156109c95780601f1061099e576101008083540402835291602001916109c9565b820191906000526020600020905b8154815290600101906020018083116109ac57829003601f168201915b50505050508152602001600482015481526020016005820160009054906101000a900460ff16151515158152602001600682018054610a0790614073565b80601f0160208091040260200160405190810160405280929190818152602001828054610a3390614073565b8015610a805780601f10610a5557610100808354040283529160200191610a80565b820191906000526020600020905b815481529060010190602001808311610a6357829003601f168201915b505050505081525050815260200190600101906108ff565b50505050905090565b6000600254905090565b600080610ab66127be565b9050610ac385828561298f565b610ace858585612a1b565b60019150509392505050565b60006012905090565b600d6020528160005260406000208181548110610aff57600080fd5b906000526020600020906007020160009150915050806000015490806001015490806002015490806003018054610b3590614073565b80601f0160208091040260200160405190810160405280929190818152602001828054610b6190614073565b8015610bae5780601f10610b8357610100808354040283529160200191610bae565b820191906000526020600020905b815481529060010190602001808311610b9157829003601f168201915b5050505050908060040154908060050160009054906101000a900460ff1690806006018054610bdc90614073565b80601f0160208091040260200160405190810160405280929190818152602001828054610c0890614073565b8015610c555780601f10610c2a57610100808354040283529160200191610c55565b820191906000526020600020905b815481529060010190602001808311610c3857829003601f168201915b5050505050905087565b600080610c6a6127be565b9050610c8b818585610c7c85896120b9565b610c8691906140d3565b6127c6565b600191505092915050565b6000805b600680549050811015610d325760068181548110610cbb57610cba614107565b5b9060005260206000200160009054906101000a900473ffffffffffffffffffffffffffffffffffffffff1673ffffffffffffffffffffffffffffffffffffffff163373ffffffffffffffffffffffffffffffffffffffff1603610d215760019150610d32565b80610d2b90614136565b9050610c9a565b506001151581151514610d7a576040517f08c379a0000000000000000000000000000000000000000000000000000000008152600401610d71906141f0565b60405180910390fd5b6001821480610d895750600282145b610dc8576040517f08c379a0000000000000000000000000000000000000000000000000000000008152600401610dbf90614282565b60405180910390fd5b60018203610e34576006839080600181540180825580915050600190039060005260206000200160009091909190916101000a81548173ffffffffffffffffffffffffffffffffffffffff021916908373ffffffffffffffffffffffffffffffffffffffff1602179055505b60028203610ea0576007839080600181540180825580915050600190039060005260206000200160009091909190916101000a81548173ffffffffffffffffffffffffffffffffffffffff021916908373ffffffffffffffffffffffffffffffffffffffff1602179055505b505050565b8360ff16610eb233611028565b1015610ef3576040517f08c379a0000000000000000000000000000000000000000000000000000000008152600401610eea90614314565b60405180910390fd5b610f01868686868686611978565b7fa0a6e6dacc0ba47ad690a6e908955fdfc43a0754d9b0bd636a5ef21eee90f1888785604051610f3292919061436f565b60405180910390a150505050505050565b600c602052806000526040600020600091509050806000018054610f6690614073565b80601f0160208091040260200160405190810160405280929190818152602001828054610f9290614073565b8015610fdf5780601f10610fb457610100808354040283529160200191610fdf565b820191906000526020600020905b815481529060010190602001808311610fc257829003601f168201915b5050505050908060010154908060020160009054906101000a900460ff16908060020160019054906101000a900473ffffffffffffffffffffffffffffffffffffffff16905084565b60008060008373ffffffffffffffffffffffffffffffffffffffff1673ffffffffffffffffffffffffffffffffffffffff168152602001908152602001600020549050919050565b60116020528060005260406000206000915090505481565b6060601260008381526020019081526020016000208054806020026020016040519081016040528092919081815260200182805480156110e757602002820191906000526020600020905b8154815260200190600101908083116110d3575b50505050509050919050565b61110486868660ff16868686611914565b611143576040517f08c379a000000000000000000000000000000000000000000000000000000000815260040161113a906143eb565b60405180910390fd5b61116d85670de0b6b3a76400008660ff1661115e919061441f565b67ffffffffffffffff16612c91565b505050505050565b60606000825167ffffffffffffffff81111561119457611193613524565b5b6040519080825280602002602001820160405280156111cd57816020015b6111ba612fbe565b8152602001906001900390816111b25790505b5090506000805b84518110156114d65760005b600d60003373ffffffffffffffffffffffffffffffffffffffff1673ffffffffffffffffffffffffffffffffffffffff168152602001908152602001600020805490508110156114c257600d60003373ffffffffffffffffffffffffffffffffffffffff1673ffffffffffffffffffffffffffffffffffffffff168152602001908152602001600020818154811061127b5761127a614107565b5b9060005260206000209060070201600001548683815181106112a05761129f614107565b5b6020026020010151036114af57600d60003373ffffffffffffffffffffffffffffffffffffffff1673ffffffffffffffffffffffffffffffffffffffff16815260200190815260200160002081815481106112fe576112fd614107565b5b90600052602060002090600702016040518060e001604052908160008201548152602001600182015481526020016002820154815260200160038201805461134590614073565b80601f016020809104026020016040519081016040528092919081815260200182805461137190614073565b80156113be5780601f10611393576101008083540402835291602001916113be565b820191906000526020600020905b8154815290600101906020018083116113a157829003601f168201915b50505050508152602001600482015481526020016005820160009054906101000a900460ff161515151581526020016006820180546113fc90614073565b80601f016020809104026020016040519081016040528092919081815260200182805461142890614073565b80156114755780601f1061144a57610100808354040283529160200191611475565b820191906000526020600020905b81548152906001019060200180831161145857829003601f168201915b50505050508152505084848151811061149157611490614107565b5b602002602001018190525082806114a790614136565b9350506114c2565b80806114ba90614136565b9150506111e0565b5080806114ce90614136565b9150506111d4565b508192505050919050565b600080600090505b60098054905081101561157e576009818154811061150a57611509614107565b5b906000526020600020906002020160000154830361156b57600115156009828154811061153a57611539614107565b5b906000526020600020906002020160010160009054906101000a900460ff1615150361156a576000915050611584565b5b808061157690614136565b9150506114e9565b50600190505b919050565b60606004805461159890614073565b80601f01602080910402602001604051908101604052809291908181526020018280546115c490614073565b80156116115780601f106115e657610100808354040283529160200191611611565b820191906000526020600020905b8154815290600101906020018083116115f457829003601f168201915b5050505050905090565b60008060008061162a85611889565b92509250925060018682858560405160008152602001604052604051611653949392919061445c565b6020604051602081039080840390855afa158015611675573d6000803e3d6000fd5b50505060206040510351935050505092915050565b6000806000905060005b60068054905081101561172c57600681815481106116b5576116b4614107565b5b9060005260206000200160009054906101000a900473ffffffffffffffffffffffffffffffffffffffff1673ffffffffffffffffffffffffffffffffffffffff163373ffffffffffffffffffffffffffffffffffffffff160361171b576001915061172c565b8061172590614136565b9050611694565b506001151581151514611774576040517f08c379a000000000000000000000000000000000000000000000000000000000815260040161176b906141f0565b60405180910390fd5b60005b6009805490508110156117cd576009818154811061179857611797614107565b5b90600052602060002090600202016000015484036117ba5760009250506117d3565b80806117c590614136565b915050611777565b50600191505b50919050565b6000848484846040516020016117f29493929190614546565b604051602081830303815290604052805190602001209050949350505050565b60008061181d6127be565b9050600061182b82866120b9565b905083811015611870576040517f08c379a000000000000000000000000000000000000000000000000000000000815260040161186790614602565b60405180910390fd5b61187d82868684036127c6565b60019250505092915050565b600080600060418451146118d2576040517f08c379a00000000000000000000000000000000000000000000000000000000081526004016118c99061466e565b60405180910390fd5b6020840151925060408401519150606084015160001a90509193909250565b6000806118fc6127be565b9050611909818585612a1b565b600191505092915050565b600080611923878787876117d9565b90506000611930826125b5565b90508873ffffffffffffffffffffffffffffffffffffffff16611953828661161b565b73ffffffffffffffffffffffffffffffffffffffff1614925050509695505050505050565b61198986868660ff16868686611914565b6119c8576040517f08c379a00000000000000000000000000000000000000000000000000000000081526004016119bf906143eb565b60405180910390fd5b6119f285670de0b6b3a76400008660ff166119e3919061441f565b67ffffffffffffffff16612de7565b505050505050565b6000805b600680549050811015611a965760068181548110611a1f57611a1e614107565b5b9060005260206000200160009054906101000a900473ffffffffffffffffffffffffffffffffffffffff1673ffffffffffffffffffffffffffffffffffffffff163373ffffffffffffffffffffffffffffffffffffffff1603611a855760019150611a96565b80611a8f90614136565b90506119fe565b506001151581151514611ade576040517f08c379a0000000000000000000000000000000000000000000000000000000008152600401611ad5906141f0565b60405180910390fd5b611ae78261168a565b611b26576040517f08c379a0000000000000000000000000000000000000000000000000000000008152600401611b1d906146da565b60405180910390fd5b600960405180604001604052808481526020016000151581525090806001815401808255809150506001900390600052602060002090600202016000909190919091506000820151816000015560208201518160010160006101000a81548160ff02191690831515021790555050505050565b60005b600d60003373ffffffffffffffffffffffffffffffffffffffff1673ffffffffffffffffffffffffffffffffffffffff16815260200190815260200160002080549050811015611ffb57600d60003373ffffffffffffffffffffffffffffffffffffffff1673ffffffffffffffffffffffffffffffffffffffff1681526020019081526020016000208181548110611c3757611c36614107565b5b9060005260206000209060070201600001548b03611fe85760001515600d60003373ffffffffffffffffffffffffffffffffffffffff1673ffffffffffffffffffffffffffffffffffffffff1681526020019081526020016000208281548110611ca457611ca3614107565b5b906000526020600020906007020160050160009054906101000a900460ff16151514611d05576040517f08c379a0000000000000000000000000000000000000000000000000000000008152600401611cfc90614746565b60405180910390fd5b89600d60003373ffffffffffffffffffffffffffffffffffffffff1673ffffffffffffffffffffffffffffffffffffffff1681526020019081526020016000208281548110611d5757611d56614107565b5b90600052602060002090600702016003019081611d749190614908565b5088600d60003373ffffffffffffffffffffffffffffffffffffffff1673ffffffffffffffffffffffffffffffffffffffff1681526020019081526020016000208281548110611dc757611dc6614107565b5b9060005260206000209060070201600401819055506001600d60003373ffffffffffffffffffffffffffffffffffffffff1673ffffffffffffffffffffffffffffffffffffffff1681526020019081526020016000208281548110611e2f57611e2e614107565b5b906000526020600020906007020160050160006101000a81548160ff02191690831515021790555087600d60003373ffffffffffffffffffffffffffffffffffffffff1673ffffffffffffffffffffffffffffffffffffffff1681526020019081526020016000208281548110611ea957611ea8614107565b5b90600052602060002090600702016006019081611ec69190614908565b50601360008d8152602001908152602001600020600d60003373ffffffffffffffffffffffffffffffffffffffff1673ffffffffffffffffffffffffffffffffffffffff1681526020019081526020016000208281548110611f2b57611f2a614107565b5b9060005260206000209060070201908060018154018082558091505060019003906000526020600020906007020160009091909190915060008201548160000155600182015481600101556002820154816002015560038201816003019081611f9491906149f0565b50600482015481600401556005820160009054906101000a900460ff168160050160006101000a81548160ff02191690831515021790555060068201816006019081611fe091906149f0565b505050611ffb565b8080611ff390614136565b915050611b9c565b50601260008c8152602001908152602001600020889080600181540180825580915050600190039060005260206000200160009091909190915055601160008c8152602001908152602001600020600081548092919061205a90614136565b919050555061206d8686868686866110f3565b7f67fbf0ab29ccb48c09f17ccb11294f7d23fc8c4672259ff330cf874b75fa51768b8b8b8b8b6040516120a4959493929190614ad8565b60405180910390a15050505050505050505050565b6000600160008473ffffffffffffffffffffffffffffffffffffffff1673ffffffffffffffffffffffffffffffffffffffff16815260200190815260200160002060008373ffffffffffffffffffffffffffffffffffffffff1673ffffffffffffffffffffffffffffffffffffffff16815260200190815260200160002054905092915050565b6012602052816000526040600020818154811061215c57600080fd5b90600052602060002001600091509150505481565b600f602052826000526040600020602052816000526040600020818154811061219957600080fd5b906000526020600020906007020160009250925050508060000154908060010154908060020154908060030180546121d090614073565b80601f01602080910402602001604051908101604052809291908181526020018280546121fc90614073565b80156122495780601f1061221e57610100808354040283529160200191612249565b820191906000526020600020905b81548152906001019060200180831161222c57829003601f168201915b5050505050908060040154908060050160009054906101000a900460ff169080600601805461227790614073565b80601f01602080910402602001604051908101604052809291908181526020018280546122a390614073565b80156122f05780601f106122c5576101008083540402835291602001916122f0565b820191906000526020600020905b8154815290600101906020018083116122d357829003601f168201915b5050505050905087565b6000805b600980549050811015612400576009818154811061231f5761231e614107565b5b90600052602060002090600202016000015484036123ed576009818154811061234b5761234a614107565b5b906000526020600020906002020160010160009054906101000a900460ff16156123aa576040517f08c379a00000000000000000000000000000000000000000000000000000000081526004016123a190614b85565b60405180910390fd5b600191506001600982815481106123c4576123c3614107565b5b906000526020600020906002020160010160006101000a81548160ff0219169083151502179055505b80806123f890614136565b9150506122fe565b5060106000838152602001908152602001600020600081548092919061242590614136565b9190505550600b600081548092919061243d90614136565b9190505550600d60003373ffffffffffffffffffffffffffffffffffffffff1673ffffffffffffffffffffffffffffffffffffffff1681526020019081526020016000206040518060e00160405280600b5481526020018481526020014281526020016040518060200160405280600081525081526020016000815260200160001515815260200160405180602001604052806000815250815250908060018154018082558091505060019003906000526020600020906007020160009091909190915060008201518160000155602082015181600101556040820151816002015560608201518160030190816125349190614908565b506080820151816004015560a08201518160050160006101000a81548160ff02191690831515021790555060c08201518160060190816125749190614908565b5050507ff165997b5f1d2b5ae2f43279fc978111209309fd44e04343b1ffd71915e62ab583836040516125a8929190614ba5565b60405180910390a1505050565b6000816040516020016125c89190614c3b565b604051602081830303815290604052805190602001209050919050565b606060136000838152602001908152602001600020805480602002602001604051908101604052809291908181526020016000905b828210156127b357838290600052602060002090600702016040518060e001604052908160008201548152602001600182015481526020016002820154815260200160038201805461266b90614073565b80601f016020809104026020016040519081016040528092919081815260200182805461269790614073565b80156126e45780601f106126b9576101008083540402835291602001916126e4565b820191906000526020600020905b8154815290600101906020018083116126c757829003601f168201915b50505050508152602001600482015481526020016005820160009054906101000a900460ff1615151515815260200160068201805461272290614073565b80601f016020809104026020016040519081016040528092919081815260200182805461274e90614073565b801561279b5780601f106127705761010080835404028352916020019161279b565b820191906000526020600020905b81548152906001019060200180831161277e57829003601f168201915b5050505050815250508152602001906001019061261a565b505050509050919050565b600033905090565b600073ffffffffffffffffffffffffffffffffffffffff168373ffffffffffffffffffffffffffffffffffffffff1603612835576040517f08c379a000000000000000000000000000000000000000000000000000000000815260040161282c90614cd3565b60405180910390fd5b600073ffffffffffffffffffffffffffffffffffffffff168273ffffffffffffffffffffffffffffffffffffffff16036128a4576040517f08c379a000000000000000000000000000000000000000000000000000000000815260040161289b90614d65565b60405180910390fd5b80600160008573ffffffffffffffffffffffffffffffffffffffff1673ffffffffffffffffffffffffffffffffffffffff16815260200190815260200160002060008473ffffffffffffffffffffffffffffffffffffffff1673ffffffffffffffffffffffffffffffffffffffff168152602001908152602001600020819055508173ffffffffffffffffffffffffffffffffffffffff168373ffffffffffffffffffffffffffffffffffffffff167f8c5be1e5ebec7d5bd14f71427d1e84f3dd0314c0f7b2291e5b200ac8c7c3b925836040516129829190613083565b60405180910390a3505050565b600061299b84846120b9565b90507fffffffffffffffffffffffffffffffffffffffffffffffffffffffffffffffff8114612a155781811015612a07576040517f08c379a00000000000000000000000000000000000000000000000000000000081526004016129fe90614dd1565b60405180910390fd5b612a1484848484036127c6565b5b50505050565b600073ffffffffffffffffffffffffffffffffffffffff168373ffffffffffffffffffffffffffffffffffffffff1603612a8a576040517f08c379a0000000000000000000000000000000000000000000000000000000008152600401612a8190614e63565b60405180910390fd5b600073ffffffffffffffffffffffffffffffffffffffff168273ffffffffffffffffffffffffffffffffffffffff1603612af9576040517f08c379a0000000000000000000000000000000000000000000000000000000008152600401612af090614ef5565b60405180910390fd5b612b04838383612fb4565b60008060008573ffffffffffffffffffffffffffffffffffffffff1673ffffffffffffffffffffffffffffffffffffffff16815260200190815260200160002054905081811015612b8a576040517f08c379a0000000000000000000000000000000000000000000000000000000008152600401612b8190614f87565b60405180910390fd5b8181036000808673ffffffffffffffffffffffffffffffffffffffff1673ffffffffffffffffffffffffffffffffffffffff16815260200190815260200160002081905550816000808573ffffffffffffffffffffffffffffffffffffffff1673ffffffffffffffffffffffffffffffffffffffff168152602001908152602001600020600082825401925050819055508273ffffffffffffffffffffffffffffffffffffffff168473ffffffffffffffffffffffffffffffffffffffff167fddf252ad1be2c89b69c2b068fc378daa952ba7f163c4a11628f55a4df523b3ef84604051612c789190613083565b60405180910390a3612c8b848484612fb9565b50505050565b600073ffffffffffffffffffffffffffffffffffffffff168273ffffffffffffffffffffffffffffffffffffffff1603612d00576040517f08c379a0000000000000000000000000000000000000000000000000000000008152600401612cf790614ff3565b60405180910390fd5b612d0c60008383612fb4565b8060026000828254612d1e91906140d3565b92505081905550806000808473ffffffffffffffffffffffffffffffffffffffff1673ffffffffffffffffffffffffffffffffffffffff168152602001908152602001600020600082825401925050819055508173ffffffffffffffffffffffffffffffffffffffff16600073ffffffffffffffffffffffffffffffffffffffff167fddf252ad1be2c89b69c2b068fc378daa952ba7f163c4a11628f55a4df523b3ef83604051612dcf9190613083565b60405180910390a3612de360008383612fb9565b5050565b600073ffffffffffffffffffffffffffffffffffffffff168273ffffffffffffffffffffffffffffffffffffffff1603612e56576040517f08c379a0000000000000000000000000000000000000000000000000000000008152600401612e4d90615085565b60405180910390fd5b612e6282600083612fb4565b60008060008473ffffffffffffffffffffffffffffffffffffffff1673ffffffffffffffffffffffffffffffffffffffff16815260200190815260200160002054905081811015612ee8576040517f08c379a0000000000000000000000000000000000000000000000000000000008152600401612edf90615117565b60405180910390fd5b8181036000808573ffffffffffffffffffffffffffffffffffffffff1673ffffffffffffffffffffffffffffffffffffffff1681526020019081526020016000208190555081600260008282540392505081905550600073ffffffffffffffffffffffffffffffffffffffff168373ffffffffffffffffffffffffffffffffffffffff167fddf252ad1be2c89b69c2b068fc378daa952ba7f163c4a11628f55a4df523b3ef84604051612f9b9190613083565b60405180910390a3612faf83600084612fb9565b505050565b505050565b505050565b6040518060e001604052806000815260200160008152602001600081526020016060815260200160008152602001600015158152602001606081525090565b6000604051905090565b600080fd5b600080fd5b6000819050919050565b61302481613011565b811461302f57600080fd5b50565b6000813590506130418161301b565b92915050565b60006020828403121561305d5761305c613007565b5b600061306b84828501613032565b91505092915050565b61307d81613011565b82525050565b60006020820190506130986000830184613074565b92915050565b600081519050919050565b600082825260208201905092915050565b60005b838110156130d85780820151818401526020810190506130bd565b60008484015250505050565b6000601f19601f8301169050919050565b60006131008261309e565b61310a81856130a9565b935061311a8185602086016130ba565b613123816130e4565b840191505092915050565b6000602082019050818103600083015261314881846130f5565b905092915050565b600073ffffffffffffffffffffffffffffffffffffffff82169050919050565b600061317b82613150565b9050919050565b61318b81613170565b811461319657600080fd5b50565b6000813590506131a881613182565b92915050565b600080604083850312156131c5576131c4613007565b5b60006131d385828601613199565b92505060206131e485828601613032565b9150509250929050565b60008115159050919050565b613203816131ee565b82525050565b600060208201905061321e60008301846131fa565b92915050565b600081519050919050565b600082825260208201905092915050565b6000819050602082019050919050565b61325981613011565b82525050565b600082825260208201905092915050565b600061327b8261309e565b613285818561325f565b93506132958185602086016130ba565b61329e816130e4565b840191505092915050565b6132b2816131ee565b82525050565b600060e0830160008301516132d06000860182613250565b5060208301516132e36020860182613250565b5060408301516132f66040860182613250565b506060830151848203606086015261330e8282613270565b91505060808301516133236080860182613250565b5060a083015161333660a08601826132a9565b5060c083015184820360c086015261334e8282613270565b9150508091505092915050565b600061336783836132b8565b905092915050565b6000602082019050919050565b600061338782613224565b613391818561322f565b9350836020820285016133a385613240565b8060005b858110156133df57848403895281516133c0858261335b565b94506133cb8361336f565b925060208a019950506001810190506133a7565b50829750879550505050505092915050565b6000602082019050818103600083015261340b818461337c565b905092915050565b60008060006060848603121561342c5761342b613007565b5b600061343a86828701613199565b935050602061344b86828701613199565b925050604061345c86828701613032565b9150509250925092565b600060ff82169050919050565b61347c81613466565b82525050565b60006020820190506134976000830184613473565b92915050565b600060e0820190506134b2600083018a613074565b6134bf6020830189613074565b6134cc6040830188613074565b81810360608301526134de81876130f5565b90506134ed6080830186613074565b6134fa60a08301856131fa565b81810360c083015261350c81846130f5565b905098975050505050505050565b600080fd5b600080fd5b7f4e487b7100000000000000000000000000000000000000000000000000000000600052604160045260246000fd5b61355c826130e4565b810181811067ffffffffffffffff8211171561357b5761357a613524565b5b80604052505050565b600061358e612ffd565b905061359a8282613553565b919050565b600067ffffffffffffffff8211156135ba576135b9613524565b5b6135c3826130e4565b9050602081019050919050565b82818337600083830152505050565b60006135f26135ed8461359f565b613584565b90508281526020810184848401111561360e5761360d61351f565b5b6136198482856135d0565b509392505050565b600082601f8301126136365761363561351a565b5b81356136468482602086016135df565b91505092915050565b61365881613466565b811461366357600080fd5b50565b6000813590506136758161364f565b92915050565b600067ffffffffffffffff82111561369657613695613524565b5b61369f826130e4565b9050602081019050919050565b60006136bf6136ba8461367b565b613584565b9050828152602081018484840111156136db576136da61351f565b5b6136e68482856135d0565b509392505050565b600082601f8301126137035761370261351a565b5b81356137138482602086016136ac565b91505092915050565b600080600080600080600060e0888a03121561373b5761373a613007565b5b600088013567ffffffffffffffff8111156137595761375861300c565b5b6137658a828b01613621565b97505060206137768a828b01613199565b96505060406137878a828b01613199565b95505060606137988a828b01613666565b945050608088013567ffffffffffffffff8111156137b9576137b861300c565b5b6137c58a828b01613621565b93505060a06137d68a828b01613032565b92505060c088013567ffffffffffffffff8111156137f7576137f661300c565b5b6138038a828b016136ee565b91505092959891949750929550565b60006020828403121561382857613827613007565b5b600061383684828501613199565b91505092915050565b61384881613170565b82525050565b6000608082019050818103600083015261386881876130f5565b90506138776020830186613074565b61388460408301856131fa565b613891606083018461383f565b95945050505050565b600081519050919050565b600082825260208201905092915050565b6000819050602082019050919050565b60006138d28383613250565b60208301905092915050565b6000602082019050919050565b60006138f68261389a565b61390081856138a5565b935061390b836138b6565b8060005b8381101561393c57815161392388826138c6565b975061392e836138de565b92505060018101905061390f565b5085935050505092915050565b6000602082019050818103600083015261396381846138eb565b905092915050565b60008060008060008060c0878903121561398857613987613007565b5b600061399689828a01613199565b96505060206139a789828a01613199565b95505060406139b889828a01613666565b945050606087013567ffffffffffffffff8111156139d9576139d861300c565b5b6139e589828a01613621565b93505060806139f689828a01613032565b92505060a087013567ffffffffffffffff811115613a1757613a1661300c565b5b613a2389828a016136ee565b9150509295509295509295565b600067ffffffffffffffff821115613a4b57613a4a613524565b5b602082029050602081019050919050565b600080fd5b6000613a74613a6f84613a30565b613584565b90508083825260208201905060208402830185811115613a9757613a96613a5c565b5b835b81811015613ac05780613aac8882613032565b845260208401935050602081019050613a99565b5050509392505050565b600082601f830112613adf57613ade61351a565b5b8135613aef848260208601613a61565b91505092915050565b600060208284031215613b0e57613b0d613007565b5b600082013567ffffffffffffffff811115613b2c57613b2b61300c565b5b613b3884828501613aca565b91505092915050565b6000819050919050565b613b5481613b41565b8114613b5f57600080fd5b50565b600081359050613b7181613b4b565b92915050565b60008060408385031215613b8e57613b8d613007565b5b6000613b9c85828601613b62565b925050602083013567ffffffffffffffff811115613bbd57613bbc61300c565b5b613bc9858286016136ee565b9150509250929050565b6000602082019050613be8600083018461383f565b92915050565b60008060008060808587031215613c0857613c07613007565b5b6000613c1687828801613199565b9450506020613c2787828801613032565b935050604085013567ffffffffffffffff811115613c4857613c4761300c565b5b613c5487828801613621565b9250506060613c6587828801613032565b91505092959194509250565b613c7a81613b41565b82525050565b6000602082019050613c956000830184613c71565b92915050565b600060208284031215613cb157613cb0613007565b5b600082013567ffffffffffffffff811115613ccf57613cce61300c565b5b613cdb848285016136ee565b91505092915050565b6000606082019050613cf96000830186613c71565b613d066020830185613c71565b613d136040830184613473565b949350505050565b60008060008060008060c08789031215613d3857613d37613007565b5b6000613d4689828a01613199565b9650506020613d5789828a01613199565b9550506040613d6889828a01613032565b945050606087013567ffffffffffffffff811115613d8957613d8861300c565b5b613d9589828a01613621565b9350506080613da689828a01613032565b92505060a087013567ffffffffffffffff811115613dc757613dc661300c565b5b613dd389828a016136ee565b9150509295509295509295565b60008060008060008060008060008060006101608c8e031215613e0657613e05613007565b5b6000613e148e828f01613032565b9b50506020613e258e828f01613032565b9a505060408c013567ffffffffffffffff811115613e4657613e4561300c565b5b613e528e828f01613621565b9950506060613e638e828f01613032565b98505060808c013567ffffffffffffffff811115613e8457613e8361300c565b5b613e908e828f01613621565b97505060a0613ea18e828f01613199565b96505060c0613eb28e828f01613199565b95505060e0613ec38e828f01613666565b9450506101008c013567ffffffffffffffff811115613ee557613ee461300c565b5b613ef18e828f01613621565b935050610120613f038e828f01613032565b9250506101408c013567ffffffffffffffff811115613f2557613f2461300c565b5b613f318e828f016136ee565b9150509295989b509295989b9093969950565b60008060408385031215613f5b57613f5a613007565b5b6000613f6985828601613199565b9250506020613f7a85828601613199565b9150509250929050565b60008060408385031215613f9b57613f9a613007565b5b6000613fa985828601613032565b9250506020613fba85828601613032565b9150509250929050565b600080600060608486031215613fdd57613fdc613007565b5b6000613feb86828701613199565b9350506020613ffc86828701613032565b925050604061400d86828701613032565b9150509250925092565b60006020828403121561402d5761402c613007565b5b600061403b84828501613b62565b91505092915050565b7f4e487b7100000000000000000000000000000000000000000000000000000000600052602260045260246000fd5b6000600282049050600182168061408b57607f821691505b60208210810361409e5761409d614044565b5b50919050565b7f4e487b7100000000000000000000000000000000000000000000000000000000600052601160045260246000fd5b60006140de82613011565b91506140e983613011565b9250828201905080821115614101576141006140a4565b5b92915050565b7f4e487b7100000000000000000000000000000000000000000000000000000000600052603260045260246000fd5b600061414182613011565b91507fffffffffffffffffffffffffffffffffffffffffffffffffffffffffffffffff8203614173576141726140a4565b5b600182019050919050565b7f4f6e6c792061646d696e2063616e2063616c6c20746869732066756e6374696f60008201527f6e00000000000000000000000000000000000000000000000000000000000000602082015250565b60006141da6021836130a9565b91506141e58261417e565b604082019050919050565b60006020820190508181036000830152614209816141cd565b9050919050565b7f496e76616c696420726f6c652c206f6e6c792061646d696e206f72207365727660008201527f696365207375697461626c652e00000000000000000000000000000000000000602082015250565b600061426c602d836130a9565b915061427782614210565b604082019050919050565b6000602082019050818103600083015261429b8161425f565b9050919050565b7f596f75206e6f74206861766520656e6f756768206d6f6e657920746f2070757260008201527f6368617365000000000000000000000000000000000000000000000000000000602082015250565b60006142fe6025836130a9565b9150614309826142a2565b604082019050919050565b6000602082019050818103600083015261432d816142f1565b9050919050565b6000819050919050565b600061435961435461434f84613466565b614334565b613011565b9050919050565b6143698161433e565b82525050565b6000604082019050818103600083015261438981856130f5565b90506143986020830184614360565b9392505050565b7f496e76616c6964205369676e6174757265000000000000000000000000000000600082015250565b60006143d56011836130a9565b91506143e08261439f565b602082019050919050565b60006020820190508181036000830152614404816143c8565b9050919050565b600067ffffffffffffffff82169050919050565b600061442a8261440b565b91506144358361440b565b92508282026144438161440b565b9150808214614455576144546140a4565b5b5092915050565b60006080820190506144716000830187613c71565b61447e6020830186613473565b61448b6040830185613c71565b6144986060830184613c71565b95945050505050565b60008160601b9050919050565b60006144b9826144a1565b9050919050565b60006144cb826144ae565b9050919050565b6144e36144de82613170565b6144c0565b82525050565b6000819050919050565b6145046144ff82613011565b6144e9565b82525050565b600081905092915050565b60006145208261309e565b61452a818561450a565b935061453a8185602086016130ba565b80840191505092915050565b600061455282876144d2565b60148201915061456282866144f3565b6020820191506145728285614515565b915061457e82846144f3565b60208201915081905095945050505050565b7f45524332303a2064656372656173656420616c6c6f77616e63652062656c6f7760008201527f207a65726f000000000000000000000000000000000000000000000000000000602082015250565b60006145ec6025836130a9565b91506145f782614590565b604082019050919050565b6000602082019050818103600083015261461b816145df565b9050919050565b7f696e76616c6964207369676e6174757265206c656e6774680000000000000000600082015250565b60006146586018836130a9565b915061466382614622565b602082019050919050565b600060208201905081810360008301526146878161464b565b9050919050565b7f5468697320494420616c72656164792065786973746564000000000000000000600082015250565b60006146c46017836130a9565b91506146cf8261468e565b602082019050919050565b600060208201905081810360008301526146f3816146b7565b9050919050565b7f596f7520686164206265656e2072657669657765642074686973207472697000600082015250565b6000614730601f836130a9565b915061473b826146fa565b602082019050919050565b6000602082019050818103600083015261475f81614723565b9050919050565b60008190508160005260206000209050919050565b60006020601f8301049050919050565b600082821b905092915050565b6000600883026147c87fffffffffffffffffffffffffffffffffffffffffffffffffffffffffffffffff8261478b565b6147d2868361478b565b95508019841693508086168417925050509392505050565b60006148056148006147fb84613011565b614334565b613011565b9050919050565b6000819050919050565b61481f836147ea565b61483361482b8261480c565b848454614798565b825550505050565b600090565b61484861483b565b614853818484614816565b505050565b5b818110156148775761486c600082614840565b600181019050614859565b5050565b601f8211156148bc5761488d81614766565b6148968461477b565b810160208510156148a5578190505b6148b96148b18561477b565b830182614858565b50505b505050565b600082821c905092915050565b60006148df600019846008026148c1565b1980831691505092915050565b60006148f883836148ce565b9150826002028217905092915050565b6149118261309e565b67ffffffffffffffff81111561492a57614929613524565b5b6149348254614073565b61493f82828561487b565b600060209050601f8311600181146149725760008415614960578287015190505b61496a85826148ec565b8655506149d2565b601f19841661498086614766565b60005b828110156149a857848901518255600182019150602085019450602081019050614983565b868310156149c557848901516149c1601f8916826148ce565b8355505b6001600288020188555050505b505050505050565b6000815490506149e981614073565b9050919050565b8181036149fe575050614ad6565b614a07826149da565b67ffffffffffffffff811115614a2057614a1f613524565b5b614a2a8254614073565b614a3582828561487b565b6000601f831160018114614a645760008415614a52578287015490505b614a5c85826148ec565b865550614acf565b601f198416614a7287614766565b9650614a7d86614766565b60005b82811015614aa557848901548255600182019150600185019450602081019050614a80565b86831015614ac25784890154614abe601f8916826148ce565b8355505b6001600288020188555050505b5050505050505b565b600060a082019050614aed6000830188613074565b614afa6020830187613074565b8181036040830152614b0c81866130f5565b9050614b1b6060830185613074565b8181036080830152614b2d81846130f5565b90509695505050505050565b7f5469636b65742068617320757365640000000000000000000000000000000000600082015250565b6000614b6f600f836130a9565b9150614b7a82614b39565b602082019050919050565b60006020820190508181036000830152614b9e81614b62565b9050919050565b6000604082019050614bba6000830185613074565b614bc76020830184613074565b9392505050565b7f19457468657265756d205369676e6564204d6573736167653a0a333200000000600082015250565b6000614c04601c8361450a565b9150614c0f82614bce565b601c82019050919050565b6000819050919050565b614c35614c3082613b41565b614c1a565b82525050565b6000614c4682614bf7565b9150614c528284614c24565b60208201915081905092915050565b7f45524332303a20617070726f76652066726f6d20746865207a65726f2061646460008201527f7265737300000000000000000000000000000000000000000000000000000000602082015250565b6000614cbd6024836130a9565b9150614cc882614c61565b604082019050919050565b60006020820190508181036000830152614cec81614cb0565b9050919050565b7f45524332303a20617070726f766520746f20746865207a65726f20616464726560008201527f7373000000000000000000000000000000000000000000000000000000000000602082015250565b6000614d4f6022836130a9565b9150614d5a82614cf3565b604082019050919050565b60006020820190508181036000830152614d7e81614d42565b9050919050565b7f45524332303a20696e73756666696369656e7420616c6c6f77616e6365000000600082015250565b6000614dbb601d836130a9565b9150614dc682614d85565b602082019050919050565b60006020820190508181036000830152614dea81614dae565b9050919050565b7f45524332303a207472616e736665722066726f6d20746865207a65726f20616460008201527f6472657373000000000000000000000000000000000000000000000000000000602082015250565b6000614e4d6025836130a9565b9150614e5882614df1565b604082019050919050565b60006020820190508181036000830152614e7c81614e40565b9050919050565b7f45524332303a207472616e7366657220746f20746865207a65726f206164647260008201527f6573730000000000000000000000000000000000000000000000000000000000602082015250565b6000614edf6023836130a9565b9150614eea82614e83565b604082019050919050565b60006020820190508181036000830152614f0e81614ed2565b9050919050565b7f45524332303a207472616e7366657220616d6f756e742065786365656473206260008201527f616c616e63650000000000000000000000000000000000000000000000000000602082015250565b6000614f716026836130a9565b9150614f7c82614f15565b604082019050919050565b60006020820190508181036000830152614fa081614f64565b9050919050565b7f45524332303a206d696e7420746f20746865207a65726f206164647265737300600082015250565b6000614fdd601f836130a9565b9150614fe882614fa7565b602082019050919050565b6000602082019050818103600083015261500c81614fd0565b9050919050565b7f45524332303a206275726e2066726f6d20746865207a65726f2061646472657360008201527f7300000000000000000000000000000000000000000000000000000000000000602082015250565b600061506f6021836130a9565b915061507a82615013565b604082019050919050565b6000602082019050818103600083015261509e81615062565b9050919050565b7f45524332303a206275726e20616d6f756e7420657863656564732062616c616e60008201527f6365000000000000000000000000000000000000000000000000000000000000602082015250565b60006151016022836130a9565b915061510c826150a5565b604082019050919050565b60006020820190508181036000830152615130816150f4565b905091905056fea26469706673582212203f5c1507f1dee221fd16d21f03856f1cfd8db4d09e996b95f635b50b7e02681864736f6c63430008130033",
  "linkReferences": {},
  "deployedLinkReferences": {}
}