{
  "_format": "hh-sol-artifact-1",
  "contractName": "TouristConTract",
  "sourceName": "contracts/Tourism.sol",
  "abi": [
    {
      "inputs": [],
      "stateMutability": "nonpayable",
      "type": "constructor"
    },
    {
      "anonymous": false,
      "inputs": [
        {
          "indexed": true,
          "internalType": "address",
          "name": "owner",
          "type": "address"
        },
        {
          "indexed": true,
          "internalType": "address",
          "name": "spender",
          "type": "address"
        },
        {
          "indexed": false,
          "internalType": "uint256",
          "name": "value",
          "type": "uint256"
        }
      ],
      "name": "Approval",
      "type": "event"
    },
    {
      "anonymous": false,
      "inputs": [
        {
          "indexed": true,
          "internalType": "uint256",
          "name": "ticketId",
          "type": "uint256"
        },
        {
          "indexed": true,
          "internalType": "uint256",
          "name": "placeId",
          "type": "uint256"
        }
      ],
      "name": "CheckIn",
      "type": "event"
    },
    {
      "anonymous": false,
      "inputs": [
        {
          "indexed": true,
          "internalType": "string",
          "name": "voucherID",
          "type": "string"
        },
        {
          "indexed": true,
          "internalType": "uint256",
          "name": "amount",
          "type": "uint256"
        }
      ],
      "name": "ExchangeVoucher",
      "type": "event"
    },
    {
      "anonymous": false,
      "inputs": [
        {
          "indexed": true,
          "internalType": "uint256",
          "name": "placeId",
          "type": "uint256"
        },
        {
          "indexed": false,
          "internalType": "uint256",
          "name": "idTrip",
          "type": "uint256"
        },
        {
          "indexed": true,
          "internalType": "string",
          "name": "comment",
          "type": "string"
        },
        {
          "indexed": true,
          "internalType": "uint256",
          "name": "rate",
          "type": "uint256"
        },
        {
          "indexed": false,
          "internalType": "string",
          "name": "title",
          "type": "string"
        }
      ],
      "name": "Review",
      "type": "event"
    },
    {
      "anonymous": false,
      "inputs": [
        {
          "indexed": true,
          "internalType": "address",
          "name": "from",
          "type": "address"
        },
        {
          "indexed": true,
          "internalType": "address",
          "name": "to",
          "type": "address"
        },
        {
          "indexed": false,
          "internalType": "uint256",
          "name": "value",
          "type": "uint256"
        }
      ],
      "name": "Transfer",
      "type": "event"
    },
    {
      "inputs": [
        {
          "internalType": "address",
          "name": "_signer",
          "type": "address"
        },
        {
          "internalType": "address",
          "name": "_to",
          "type": "address"
        },
        {
          "internalType": "uint8",
          "name": "_amount",
          "type": "uint8"
        },
        {
          "internalType": "string",
          "name": "_message",
          "type": "string"
        },
        {
          "internalType": "uint256",
          "name": "_nonce",
          "type": "uint256"
        },
        {
          "internalType": "bytes",
          "name": "signature",
          "type": "bytes"
        }
      ],
      "name": "_exchangeReward",
      "outputs": [],
      "stateMutability": "nonpayable",
      "type": "function"
    },
    {
      "inputs": [
        {
          "internalType": "address",
          "name": "_signer",
          "type": "address"
        },
        {
          "internalType": "address",
          "name": "_to",
          "type": "address"
        },
        {
          "internalType": "uint8",
          "name": "_amount",
          "type": "uint8"
        },
        {
          "internalType": "string",
          "name": "_message",
          "type": "string"
        },
        {
          "internalType": "uint256",
          "name": "_nonce",
          "type": "uint256"
        },
        {
          "internalType": "bytes",
          "name": "signature",
          "type": "bytes"
        }
      ],
      "name": "_mintMinerReward",
      "outputs": [],
      "stateMutability": "nonpayable",
      "type": "function"
    },
    {
      "inputs": [
        {
          "internalType": "uint256",
          "name": "id",
          "type": "uint256"
        }
      ],
      "name": "addTicket",
      "outputs": [],
      "stateMutability": "nonpayable",
      "type": "function"
    },
    {
      "inputs": [
        {
          "internalType": "address",
          "name": "",
          "type": "address"
        },
        {
          "internalType": "uint256",
          "name": "",
          "type": "uint256"
        },
        {
          "internalType": "uint256",
          "name": "",
          "type": "uint256"
        }
      ],
      "name": "albumJourneys",
      "outputs": [
        {
          "internalType": "uint256",
          "name": "tripId",
          "type": "uint256"
        },
        {
          "internalType": "uint256",
          "name": "placeId",
          "type": "uint256"
        },
        {
          "internalType": "uint256",
          "name": "arrivalDate",
          "type": "uint256"
        },
        {
          "internalType": "string",
          "name": "review",
          "type": "string"
        },
        {
          "internalType": "uint256",
          "name": "rate",
          "type": "uint256"
        },
        {
          "internalType": "bool",
          "name": "isReview",
          "type": "bool"
        },
        {
          "internalType": "string",
          "name": "title",
          "type": "string"
        }
      ],
      "stateMutability": "view",
      "type": "function"
    },
    {
      "inputs": [
        {
          "internalType": "address",
          "name": "owner",
          "type": "address"
        },
        {
          "internalType": "address",
          "name": "spender",
          "type": "address"
        }
      ],
      "name": "allowance",
      "outputs": [
        {
          "internalType": "uint256",
          "name": "",
          "type": "uint256"
        }
      ],
      "stateMutability": "view",
      "type": "function"
    },
    {
      "inputs": [
        {
          "internalType": "address",
          "name": "spender",
          "type": "address"
        },
        {
          "internalType": "uint256",
          "name": "amount",
          "type": "uint256"
        }
      ],
      "name": "approve",
      "outputs": [
        {
          "internalType": "bool",
          "name": "",
          "type": "bool"
        }
      ],
      "stateMutability": "nonpayable",
      "type": "function"
    },
    {
      "inputs": [
        {
          "internalType": "address",
          "name": "account",
          "type": "address"
        }
      ],
      "name": "balanceOf",
      "outputs": [
        {
          "internalType": "uint256",
          "name": "",
          "type": "uint256"
        }
      ],
      "stateMutability": "view",
      "type": "function"
    },
    {
      "inputs": [
        {
          "internalType": "uint256",
          "name": "ticketID",
          "type": "uint256"
        },
        {
          "internalType": "uint256",
          "name": "placeID",
          "type": "uint256"
        }
      ],
      "name": "checkIn",
      "outputs": [],
      "stateMutability": "nonpayable",
      "type": "function"
    },
    {
      "inputs": [
        {
          "internalType": "uint256",
          "name": "ticketID",
          "type": "uint256"
        }
      ],
      "name": "checkValidTicket",
      "outputs": [
        {
          "internalType": "bool",
          "name": "",
          "type": "bool"
        }
      ],
      "stateMutability": "view",
      "type": "function"
    },
    {
      "inputs": [
        {
          "internalType": "uint256",
          "name": "",
          "type": "uint256"
        }
      ],
      "name": "checkedIn",
      "outputs": [
        {
          "internalType": "uint256",
          "name": "",
          "type": "uint256"
        }
      ],
      "stateMutability": "view",
      "type": "function"
    },
    {
      "inputs": [],
      "name": "decimals",
      "outputs": [
        {
          "internalType": "uint8",
          "name": "",
          "type": "uint8"
        }
      ],
      "stateMutability": "view",
      "type": "function"
    },
    {
      "inputs": [
        {
          "internalType": "address",
          "name": "spender",
          "type": "address"
        },
        {
          "internalType": "uint256",
          "name": "subtractedValue",
          "type": "uint256"
        }
      ],
      "name": "decreaseAllowance",
      "outputs": [
        {
          "internalType": "bool",
          "name": "",
          "type": "bool"
        }
      ],
      "stateMutability": "nonpayable",
      "type": "function"
    },
    {
      "inputs": [
        {
          "internalType": "uint256",
          "name": "",
          "type": "uint256"
        },
        {
          "internalType": "uint256",
          "name": "",
          "type": "uint256"
        }
      ],
      "name": "destinationRates",
      "outputs": [
        {
          "internalType": "uint256",
          "name": "",
          "type": "uint256"
        }
      ],
      "stateMutability": "view",
      "type": "function"
    },
    {
      "inputs": [
        {
          "internalType": "string",
          "name": "voucherID",
          "type": "string"
        },
        {
          "internalType": "address",
          "name": "_signer",
          "type": "address"
        },
        {
          "internalType": "address",
          "name": "_to",
          "type": "address"
        },
        {
          "internalType": "uint8",
          "name": "_amount",
          "type": "uint8"
        },
        {
          "internalType": "string",
          "name": "_message",
          "type": "string"
        },
        {
          "internalType": "uint256",
          "name": "_nonce",
          "type": "uint256"
        },
        {
          "internalType": "bytes",
          "name": "signature",
          "type": "bytes"
        }
      ],
      "name": "exchangeVoucher",
      "outputs": [],
      "stateMutability": "nonpayable",
      "type": "function"
    },
    {
      "inputs": [],
      "name": "getAllJourney",
      "outputs": [
        {
          "components": [
            {
              "internalType": "uint256",
              "name": "tripId",
              "type": "uint256"
            },
            {
              "internalType": "uint256",
              "name": "placeId",
              "type": "uint256"
            },
            {
              "internalType": "uint256",
              "name": "arrivalDate",
              "type": "uint256"
            },
            {
              "internalType": "string",
              "name": "review",
              "type": "string"
            },
            {
              "internalType": "uint256",
              "name": "rate",
              "type": "uint256"
            },
            {
              "internalType": "bool",
              "name": "isReview",
              "type": "bool"
            },
            {
              "internalType": "string",
              "name": "title",
              "type": "string"
            }
          ],
          "internalType": "struct TouristConTract.Journey[]",
          "name": "",
          "type": "tuple[]"
        }
      ],
      "stateMutability": "view",
      "type": "function"
    },
    {
      "inputs": [
        {
          "internalType": "uint256",
          "name": "placeid",
          "type": "uint256"
        }
      ],
      "name": "getAllRates",
      "outputs": [
        {
          "internalType": "uint256[]",
          "name": "",
          "type": "uint256[]"
        }
      ],
      "stateMutability": "view",
      "type": "function"
    },
    {
      "inputs": [
        {
          "internalType": "bytes32",
          "name": "_messageHash",
          "type": "bytes32"
        }
      ],
      "name": "getEthSignedMessageHash",
      "outputs": [
        {
          "internalType": "bytes32",
          "name": "",
          "type": "bytes32"
        }
      ],
      "stateMutability": "pure",
      "type": "function"
    },
    {
      "inputs": [
        {
          "internalType": "uint256[]",
          "name": "idTrip",
          "type": "uint256[]"
        }
      ],
      "name": "getJourneyWithID",
      "outputs": [
        {
          "components": [
            {
              "internalType": "uint256",
              "name": "tripId",
              "type": "uint256"
            },
            {
              "internalType": "uint256",
              "name": "placeId",
              "type": "uint256"
            },
            {
              "internalType": "uint256",
              "name": "arrivalDate",
              "type": "uint256"
            },
            {
              "internalType": "string",
              "name": "review",
              "type": "string"
            },
            {
              "internalType": "uint256",
              "name": "rate",
              "type": "uint256"
            },
            {
              "internalType": "bool",
              "name": "isReview",
              "type": "bool"
            },
            {
              "internalType": "string",
              "name": "title",
              "type": "string"
            }
          ],
          "internalType": "struct TouristConTract.Journey[]",
          "name": "",
          "type": "tuple[]"
        }
      ],
      "stateMutability": "view",
      "type": "function"
    },
    {
      "inputs": [
        {
          "internalType": "address",
          "name": "_to",
          "type": "address"
        },
        {
          "internalType": "uint256",
          "name": "_amount",
          "type": "uint256"
        },
        {
          "internalType": "string",
          "name": "_message",
          "type": "string"
        },
        {
          "internalType": "uint256",
          "name": "_nonce",
          "type": "uint256"
        }
      ],
      "name": "getMessageHash",
      "outputs": [
        {
          "internalType": "bytes32",
          "name": "",
          "type": "bytes32"
        }
      ],
      "stateMutability": "pure",
      "type": "function"
    },
    {
      "inputs": [
        {
          "internalType": "uint256",
          "name": "placeid",
          "type": "uint256"
        }
      ],
      "name": "getReviewsInPlace",
      "outputs": [
        {
          "components": [
            {
              "internalType": "uint256",
              "name": "tripId",
              "type": "uint256"
            },
            {
              "internalType": "uint256",
              "name": "placeId",
              "type": "uint256"
            },
            {
              "internalType": "uint256",
              "name": "arrivalDate",
              "type": "uint256"
            },
            {
              "internalType": "string",
              "name": "review",
              "type": "string"
            },
            {
              "internalType": "uint256",
              "name": "rate",
              "type": "uint256"
            },
            {
              "internalType": "bool",
              "name": "isReview",
              "type": "bool"
            },
            {
              "internalType": "string",
              "name": "title",
              "type": "string"
            }
          ],
          "internalType": "struct TouristConTract.Journey[]",
          "name": "",
          "type": "tuple[]"
        }
      ],
      "stateMutability": "view",
      "type": "function"
    },
    {
      "inputs": [
        {
          "internalType": "address",
          "name": "userAddress",
          "type": "address"
        },
        {
          "internalType": "uint256",
          "name": "role",
          "type": "uint256"
        }
      ],
      "name": "grantRole",
      "outputs": [],
      "stateMutability": "nonpayable",
      "type": "function"
    },
    {
      "inputs": [
        {
          "internalType": "address",
          "name": "spender",
          "type": "address"
        },
        {
          "internalType": "uint256",
          "name": "addedValue",
          "type": "uint256"
        }
      ],
      "name": "increaseAllowance",
      "outputs": [
        {
          "internalType": "bool",
          "name": "",
          "type": "bool"
        }
      ],
      "stateMutability": "nonpayable",
      "type": "function"
    },
    {
      "inputs": [],
      "name": "name",
      "outputs": [
        {
          "internalType": "string",
          "name": "",
          "type": "string"
        }
      ],
      "stateMutability": "view",
      "type": "function"
    },
    {
      "inputs": [
        {
          "internalType": "uint256",
          "name": "",
          "type": "uint256"
        }
      ],
      "name": "ratePeople",
      "outputs": [
        {
          "internalType": "uint256",
          "name": "",
          "type": "uint256"
        }
      ],
      "stateMutability": "view",
      "type": "function"
    },
    {
      "inputs": [
        {
          "internalType": "bytes32",
          "name": "_ethSignedMessageHash",
          "type": "bytes32"
        },
        {
          "internalType": "bytes",
          "name": "_signature",
          "type": "bytes"
        }
      ],
      "name": "recoverSigner",
      "outputs": [
        {
          "internalType": "address",
          "name": "",
          "type": "address"
        }
      ],
      "stateMutability": "pure",
      "type": "function"
    },
    {
      "inputs": [
        {
          "internalType": "uint256",
          "name": "placeId",
          "type": "uint256"
        },
        {
          "internalType": "uint256",
          "name": "idTrip",
          "type": "uint256"
        },
        {
          "internalType": "string",
          "name": "comment",
          "type": "string"
        },
        {
          "internalType": "uint256",
          "name": "rate",
          "type": "uint256"
        },
        {
          "internalType": "string",
          "name": "title",
          "type": "string"
        },
        {
          "internalType": "address",
          "name": "_signer",
          "type": "address"
        },
        {
          "internalType": "address",
          "name": "_to",
          "type": "address"
        },
        {
          "internalType": "uint8",
          "name": "_amount",
          "type": "uint8"
        },
        {
          "internalType": "string",
          "name": "_message",
          "type": "string"
        },
        {
          "internalType": "uint256",
          "name": "_nonce",
          "type": "uint256"
        },
        {
          "internalType": "bytes",
          "name": "signature",
          "type": "bytes"
        }
      ],
      "name": "review",
      "outputs": [],
      "stateMutability": "nonpayable",
      "type": "function"
    },
    {
      "inputs": [
        {
          "internalType": "bytes",
          "name": "sig",
          "type": "bytes"
        }
      ],
      "name": "splitSignature",
      "outputs": [
        {
          "internalType": "bytes32",
          "name": "r",
          "type": "bytes32"
        },
        {
          "internalType": "bytes32",
          "name": "s",
          "type": "bytes32"
        },
        {
          "internalType": "uint8",
          "name": "v",
          "type": "uint8"
        }
      ],
      "stateMutability": "pure",
      "type": "function"
    },
    {
      "inputs": [],
      "name": "symbol",
      "outputs": [
        {
          "internalType": "string",
          "name": "",
          "type": "string"
        }
      ],
      "stateMutability": "view",
      "type": "function"
    },
    {
      "inputs": [],
      "name": "totalSupply",
      "outputs": [
        {
          "internalType": "uint256",
          "name": "",
          "type": "uint256"
        }
      ],
      "stateMutability": "view",
      "type": "function"
    },
    {
      "inputs": [
        {
          "internalType": "address",
          "name": "",
          "type": "address"
        }
      ],
      "name": "touristIdentify",
      "outputs": [
        {
          "internalType": "string",
          "name": "name",
          "type": "string"
        },
        {
          "internalType": "uint256",
          "name": "age",
          "type": "uint256"
        },
        {
          "internalType": "bool",
          "name": "signup",
          "type": "bool"
        },
        {
          "internalType": "address",
          "name": "touristAddress",
          "type": "address"
        }
      ],
      "stateMutability": "view",
      "type": "function"
    },
    {
      "inputs": [
        {
          "internalType": "address",
          "name": "",
          "type": "address"
        },
        {
          "internalType": "uint256",
          "name": "",
          "type": "uint256"
        }
      ],
      "name": "touristJourneys",
      "outputs": [
        {
          "internalType": "uint256",
          "name": "tripId",
          "type": "uint256"
        },
        {
          "internalType": "uint256",
          "name": "placeId",
          "type": "uint256"
        },
        {
          "internalType": "uint256",
          "name": "arrivalDate",
          "type": "uint256"
        },
        {
          "internalType": "string",
          "name": "review",
          "type": "string"
        },
        {
          "internalType": "uint256",
          "name": "rate",
          "type": "uint256"
        },
        {
          "internalType": "bool",
          "name": "isReview",
          "type": "bool"
        },
        {
          "internalType": "string",
          "name": "title",
          "type": "string"
        }
      ],
      "stateMutability": "view",
      "type": "function"
    },
    {
      "inputs": [
        {
          "internalType": "address",
          "name": "to",
          "type": "address"
        },
        {
          "internalType": "uint256",
          "name": "amount",
          "type": "uint256"
        }
      ],
      "name": "transfer",
      "outputs": [
        {
          "internalType": "bool",
          "name": "",
          "type": "bool"
        }
      ],
      "stateMutability": "nonpayable",
      "type": "function"
    },
    {
      "inputs": [
        {
          "internalType": "address",
          "name": "from",
          "type": "address"
        },
        {
          "internalType": "address",
          "name": "to",
          "type": "address"
        },
        {
          "internalType": "uint256",
          "name": "amount",
          "type": "uint256"
        }
      ],
      "name": "transferFrom",
      "outputs": [
        {
          "internalType": "bool",
          "name": "",
          "type": "bool"
        }
      ],
      "stateMutability": "nonpayable",
      "type": "function"
    },
    {
      "inputs": [
        {
          "internalType": "uint256",
          "name": "id",
          "type": "uint256"
        }
      ],
      "name": "validAddIDTicket",
      "outputs": [
        {
          "internalType": "bool",
          "name": "",
          "type": "bool"
        }
      ],
      "stateMutability": "view",
      "type": "function"
    },
    {
      "inputs": [
        {
          "internalType": "address",
          "name": "_signer",
          "type": "address"
        },
        {
          "internalType": "address",
          "name": "_to",
          "type": "address"
        },
        {
          "internalType": "uint256",
          "name": "_amount",
          "type": "uint256"
        },
        {
          "internalType": "string",
          "name": "_message",
          "type": "string"
        },
        {
          "internalType": "uint256",
          "name": "_nonce",
          "type": "uint256"
        },
        {
          "internalType": "bytes",
          "name": "signature",
          "type": "bytes"
        }
      ],
      "name": "verify",
      "outputs": [
        {
          "internalType": "bool",
          "name": "",
          "type": "bool"
        }
      ],
      "stateMutability": "pure",
      "type": "function"
    }
  ],
  "bytecode": "0x60806040523480156200001157600080fd5b506040518060400160405280600781526020017f4443546f6b656e000000000000000000000000000000000000000000000000008152506040518060400160405280600281526020017f587500000000000000000000000000000000000000000000000000000000000081525081600390816200008f919062000c88565b508060049081620000a1919062000c88565b50505060096040518060400160405280600181526020016000151581525090806001815401808255809150506001900390600052602060002090600202016000909190919091506000820151816000015560208201518160010160006101000a81548160ff021916908315150217905550505060096040518060400160405280600281526020016000151581525090806001815401808255809150506001900390600052602060002090600202016000909190919091506000820151816000015560208201518160010160006101000a81548160ff021916908315150217905550505060096040518060400160405280600381526020016000151581525090806001815401808255809150506001900390600052602060002090600202016000909190919091506000820151816000015560208201518160010160006101000a81548160ff021916908315150217905550505060096040518060400160405280600481526020016000151581525090806001815401808255809150506001900390600052602060002090600202016000909190919091506000820151816000015560208201518160010160006101000a81548160ff021916908315150217905550505060096040518060400160405280600581526020016000151581525090806001815401808255809150506001900390600052602060002090600202016000909190919091506000820151816000015560208201518160010160006101000a81548160ff021916908315150217905550505060096040518060400160405280600681526020016000151581525090806001815401808255809150506001900390600052602060002090600202016000909190919091506000820151816000015560208201518160010160006101000a81548160ff021916908315150217905550505060096040518060400160405280600781526020016000151581525090806001815401808255809150506001900390600052602060002090600202016000909190919091506000820151816000015560208201518160010160006101000a81548160ff021916908315150217905550505060096040518060400160405280600881526020016000151581525090806001815401808255809150506001900390600052602060002090600202016000909190919091506000820151816000015560208201518160010160006101000a81548160ff021916908315150217905550505060096040518060400160405280600981526020016000151581525090806001815401808255809150506001900390600052602060002090600202016000909190919091506000820151816000015560208201518160010160006101000a81548160ff021916908315150217905550505060096040518060400160405280600a81526020016000151581525090806001815401808255809150506001900390600052602060002090600202016000909190919091506000820151816000015560208201518160010160006101000a81548160ff021916908315150217905550505060096040518060400160405280600b81526020016000151581525090806001815401808255809150506001900390600052602060002090600202016000909190919091506000820151816000015560208201518160010160006101000a81548160ff021916908315150217905550505060096040518060400160405280600c81526020016000151581525090806001815401808255809150506001900390600052602060002090600202016000909190919091506000820151816000015560208201518160010160006101000a81548160ff021916908315150217905550505060096040518060400160405280600d81526020016000151581525090806001815401808255809150506001900390600052602060002090600202016000909190919091506000820151816000015560208201518160010160006101000a81548160ff021916908315150217905550505060096040518060400160405280600e81526020016000151581525090806001815401808255809150506001900390600052602060002090600202016000909190919091506000820151816000015560208201518160010160006101000a81548160ff021916908315150217905550505060096040518060400160405280600f81526020016000151581525090806001815401808255809150506001900390600052602060002090600202016000909190919091506000820151816000015560208201518160010160006101000a81548160ff021916908315150217905550505060096040518060400160405280601081526020016000151581525090806001815401808255809150506001900390600052602060002090600202016000909190919091506000820151816000015560208201518160010160006101000a81548160ff021916908315150217905550505060096040518060400160405280601181526020016000151581525090806001815401808255809150506001900390600052602060002090600202016000909190919091506000820151816000015560208201518160010160006101000a81548160ff021916908315150217905550505060096040518060400160405280601281526020016000151581525090806001815401808255809150506001900390600052602060002090600202016000909190919091506000820151816000015560208201518160010160006101000a81548160ff021916908315150217905550505060096040518060400160405280601381526020016000151581525090806001815401808255809150506001900390600052602060002090600202016000909190919091506000820151816000015560208201518160010160006101000a81548160ff021916908315150217905550505060096040518060400160405280601481526020016000151581525090806001815401808255809150506001900390600052602060002090600202016000909190919091506000820151816000015560208201518160010160006101000a81548160ff02191690831515021790555050506006339080600181540180825580915050600190039060005260206000200160009091909190916101000a81548173ffffffffffffffffffffffffffffffffffffffff021916908373ffffffffffffffffffffffffffffffffffffffff16021790555033600560006101000a81548173ffffffffffffffffffffffffffffffffffffffff021916908373ffffffffffffffffffffffffffffffffffffffff16021790555062000d6f565b600081519050919050565b7f4e487b7100000000000000000000000000000000000000000000000000000000600052604160045260246000fd5b7f4e487b7100000000000000000000000000000000000000000000000000000000600052602260045260246000fd5b6000600282049050600182168062000a9057607f821691505b60208210810362000aa65762000aa562000a48565b5b50919050565b60008190508160005260206000209050919050565b60006020601f8301049050919050565b600082821b905092915050565b60006008830262000b107fffffffffffffffffffffffffffffffffffffffffffffffffffffffffffffffff8262000ad1565b62000b1c868362000ad1565b95508019841693508086168417925050509392505050565b6000819050919050565b6000819050919050565b600062000b6962000b6362000b5d8462000b34565b62000b3e565b62000b34565b9050919050565b6000819050919050565b62000b858362000b48565b62000b9d62000b948262000b70565b84845462000ade565b825550505050565b600090565b62000bb462000ba5565b62000bc181848462000b7a565b505050565b5b8181101562000be95762000bdd60008262000baa565b60018101905062000bc7565b5050565b601f82111562000c385762000c028162000aac565b62000c0d8462000ac1565b8101602085101562000c1d578190505b62000c3562000c2c8562000ac1565b83018262000bc6565b50505b505050565b600082821c905092915050565b600062000c5d6000198460080262000c3d565b1980831691505092915050565b600062000c78838362000c4a565b9150826002028217905092915050565b62000c938262000a0e565b67ffffffffffffffff81111562000caf5762000cae62000a19565b5b62000cbb825462000a77565b62000cc882828562000bed565b600060209050601f83116001811462000d00576000841562000ceb578287015190505b62000cf7858262000c6a565b86555062000d67565b601f19841662000d108662000aac565b60005b8281101562000d3a5784890151825560018201915060208501945060208101905062000d13565b8683101562000d5a578489015162000d56601f89168262000c4a565b8355505b6001600288020188555050505b505050505050565b6150dd8062000d7f6000396000f3fe608060405234801561001057600080fd5b50600436106102115760003560e01c806393f4052111610125578063b04ccd8f116100ad578063ebfbdec91161007c578063ebfbdec9146106ef578063f2fa49b41461071f578063f516f88e14610755578063fa54080114610771578063fc0587f8146107a157610211565b8063b04ccd8f1461066b578063b429131914610687578063b5b5e5bb146106a3578063dd62ed3e146106bf57610211565b8063a35f8a40116100f4578063a35f8a4014610579578063a457c2d7146105a9578063a7bb5803146105d9578063a9059cbb1461060b578063abe5026a1461063b57610211565b806393f40521146104cb57806395d89b41146104fb57806397aba7f9146105195780639e26c4941461054957610211565b806339509351116101a857806370a082311161017757806370a08231146103ef5780637291a8981461041f578063789024221461044f578063890fb4b01461047f5780638fab3caa1461049b57610211565b806339509351146103545780633c09e2fd146103845780635d430d63146103a057806362533665146103bc57610211565b806318160ddd116101e457806318160ddd146102b257806323b872dd146102d0578063313ce56714610300578063374936821461031e57610211565b8063020865961461021657806306fdde0314610246578063095ea7b3146102645780630f13090e14610294575b600080fd5b610230600480360381019061022b919061305b565b6107d1565b60405161023d9190613097565b60405180910390f35b61024e6107e9565b60405161025b9190613142565b60405180910390f35b61027e600480360381019061027991906131c2565b61087b565b60405161028b919061321d565b60405180910390f35b61029c61089e565b6040516102a99190613405565b60405180910390f35b6102ba610aa1565b6040516102c79190613097565b60405180910390f35b6102ea60048036038101906102e59190613427565b610aab565b6040516102f7919061321d565b60405180910390f35b610308610ada565b6040516103159190613496565b60405180910390f35b610338600480360381019061033391906131c2565b610ae3565b60405161034b97969594939291906134b1565b60405180910390f35b61036e600480360381019061036991906131c2565b610c5f565b60405161037b919061321d565b60405180910390f35b61039e600480360381019061039991906131c2565b610c96565b005b6103ba60048036038101906103b59190613730565b610ea5565b005b6103d660048036038101906103d19190613826565b610f50565b6040516103e69493929190613862565b60405180910390f35b61040960048036038101906104049190613826565b611035565b6040516104169190613097565b60405180910390f35b6104396004803603810190610434919061305b565b61107d565b6040516104469190613097565b60405180910390f35b6104696004803603810190610464919061305b565b611095565b604051610476919061395d565b60405180910390f35b6104996004803603810190610494919061397f565b611100565b005b6104b560048036038101906104b09190613b0c565b611182565b6040516104c29190613405565b60405180910390f35b6104e560048036038101906104e0919061305b565b6114ee565b6040516104f2919061321d565b60405180910390f35b610503611596565b6040516105109190613142565b60405180910390f35b610533600480360381019061052e9190613b8b565b611628565b6040516105409190613be7565b60405180910390f35b610563600480360381019061055e919061305b565b611697565b604051610570919061321d565b60405180910390f35b610593600480360381019061058e9190613c02565b6117e6565b6040516105a09190613c94565b60405180910390f35b6105c360048036038101906105be91906131c2565b61181f565b6040516105d0919061321d565b60405180910390f35b6105f360048036038101906105ee9190613caf565b611896565b60405161060293929190613cf8565b60405180910390f35b610625600480360381019061062091906131c2565b6118fe565b604051610632919061321d565b60405180910390f35b61065560048036038101906106509190613d2f565b611921565b604051610662919061321d565b60405180910390f35b6106856004803603810190610680919061397f565b611985565b005b6106a1600480360381019061069c919061305b565b611a07565b005b6106bd60048036038101906106b89190613df4565b611ba6565b005b6106d960048036038101906106d49190613f58565b6120d8565b6040516106e69190613097565b60405180910390f35b61070960048036038101906107049190613f98565b61215f565b6040516107169190613097565b60405180910390f35b61073960048036038101906107349190613fd8565b612190565b60405161074c97969594939291906134b1565b60405180910390f35b61076f600480360381019061076a9190613f98565b612319565b005b61078b6004803603810190610786919061402b565b6125c9565b6040516107989190613c94565b60405180910390f35b6107bb60048036038101906107b6919061305b565b6125f9565b6040516107c89190613405565b60405180910390f35b60106020528060005260406000206000915090505481565b6060600380546107f890614087565b80601f016020809104026020016040519081016040528092919081815260200182805461082490614087565b80156108715780601f1061084657610100808354040283529160200191610871565b820191906000526020600020905b81548152906001019060200180831161085457829003601f168201915b5050505050905090565b6000806108866127d2565b90506108938185856127da565b600191505092915050565b6060600d60003373ffffffffffffffffffffffffffffffffffffffff1673ffffffffffffffffffffffffffffffffffffffff168152602001908152602001600020805480602002602001604051908101604052809291908181526020016000905b82821015610a9857838290600052602060002090600702016040518060e001604052908160008201548152602001600182015481526020016002820154815260200160038201805461095090614087565b80601f016020809104026020016040519081016040528092919081815260200182805461097c90614087565b80156109c95780601f1061099e576101008083540402835291602001916109c9565b820191906000526020600020905b8154815290600101906020018083116109ac57829003601f168201915b50505050508152602001600482015481526020016005820160009054906101000a900460ff16151515158152602001600682018054610a0790614087565b80601f0160208091040260200160405190810160405280929190818152602001828054610a3390614087565b8015610a805780601f10610a5557610100808354040283529160200191610a80565b820191906000526020600020905b815481529060010190602001808311610a6357829003601f168201915b505050505081525050815260200190600101906108ff565b50505050905090565b6000600254905090565b600080610ab66127d2565b9050610ac38582856129a3565b610ace858585612a2f565b60019150509392505050565b60006012905090565b600d6020528160005260406000208181548110610aff57600080fd5b906000526020600020906007020160009150915050806000015490806001015490806002015490806003018054610b3590614087565b80601f0160208091040260200160405190810160405280929190818152602001828054610b6190614087565b8015610bae5780601f10610b8357610100808354040283529160200191610bae565b820191906000526020600020905b815481529060010190602001808311610b9157829003601f168201915b5050505050908060040154908060050160009054906101000a900460ff1690806006018054610bdc90614087565b80601f0160208091040260200160405190810160405280929190818152602001828054610c0890614087565b8015610c555780601f10610c2a57610100808354040283529160200191610c55565b820191906000526020600020905b815481529060010190602001808311610c3857829003601f168201915b5050505050905087565b600080610c6a6127d2565b9050610c8b818585610c7c85896120d8565b610c8691906140e7565b6127da565b600191505092915050565b6000805b600680549050811015610d325760068181548110610cbb57610cba61411b565b5b9060005260206000200160009054906101000a900473ffffffffffffffffffffffffffffffffffffffff1673ffffffffffffffffffffffffffffffffffffffff163373ffffffffffffffffffffffffffffffffffffffff1603610d215760019150610d32565b80610d2b9061414a565b9050610c9a565b506001151581151514610d7a576040517f08c379a0000000000000000000000000000000000000000000000000000000008152600401610d7190614204565b60405180910390fd5b6001821480610d895750600282145b610dc8576040517f08c379a0000000000000000000000000000000000000000000000000000000008152600401610dbf90614296565b60405180910390fd5b60018203610e34576006839080600181540180825580915050600190039060005260206000200160009091909190916101000a81548173ffffffffffffffffffffffffffffffffffffffff021916908373ffffffffffffffffffffffffffffffffffffffff1602179055505b60028203610ea0576007839080600181540180825580915050600190039060005260206000200160009091909190916101000a81548173ffffffffffffffffffffffffffffffffffffffff021916908373ffffffffffffffffffffffffffffffffffffffff1602179055505b505050565b8360ff16610eb233611035565b1015610ef3576040517f08c379a0000000000000000000000000000000000000000000000000000000008152600401610eea90614328565b60405180910390fd5b610f01868686868686611985565b8360ff1687604051610f139190614384565b60405180910390207fa0a6e6dacc0ba47ad690a6e908955fdfc43a0754d9b0bd636a5ef21eee90f18860405160405180910390a350505050505050565b600c602052806000526040600020600091509050806000018054610f7390614087565b80601f0160208091040260200160405190810160405280929190818152602001828054610f9f90614087565b8015610fec5780601f10610fc157610100808354040283529160200191610fec565b820191906000526020600020905b815481529060010190602001808311610fcf57829003601f168201915b5050505050908060010154908060020160009054906101000a900460ff16908060020160019054906101000a900473ffffffffffffffffffffffffffffffffffffffff16905084565b60008060008373ffffffffffffffffffffffffffffffffffffffff1673ffffffffffffffffffffffffffffffffffffffff168152602001908152602001600020549050919050565b60116020528060005260406000206000915090505481565b6060601260008381526020019081526020016000208054806020026020016040519081016040528092919081815260200182805480156110f457602002820191906000526020600020905b8154815260200190600101908083116110e0575b50505050509050919050565b61111186868660ff16868686611921565b611150576040517f08c379a0000000000000000000000000000000000000000000000000000000008152600401611147906143e7565b60405180910390fd5b61117a85670de0b6b3a76400008660ff1661116b919061441b565b67ffffffffffffffff16612ca5565b505050505050565b60606000825167ffffffffffffffff8111156111a1576111a0613538565b5b6040519080825280602002602001820160405280156111da57816020015b6111c7612fd2565b8152602001906001900390816111bf5790505b5090506000805b84518110156114e35760005b600d60003373ffffffffffffffffffffffffffffffffffffffff1673ffffffffffffffffffffffffffffffffffffffff168152602001908152602001600020805490508110156114cf57600d60003373ffffffffffffffffffffffffffffffffffffffff1673ffffffffffffffffffffffffffffffffffffffff16815260200190815260200160002081815481106112885761128761411b565b5b9060005260206000209060070201600001548683815181106112ad576112ac61411b565b5b6020026020010151036114bc57600d60003373ffffffffffffffffffffffffffffffffffffffff1673ffffffffffffffffffffffffffffffffffffffff168152602001908152602001600020818154811061130b5761130a61411b565b5b90600052602060002090600702016040518060e001604052908160008201548152602001600182015481526020016002820154815260200160038201805461135290614087565b80601f016020809104026020016040519081016040528092919081815260200182805461137e90614087565b80156113cb5780601f106113a0576101008083540402835291602001916113cb565b820191906000526020600020905b8154815290600101906020018083116113ae57829003601f168201915b50505050508152602001600482015481526020016005820160009054906101000a900460ff1615151515815260200160068201805461140990614087565b80601f016020809104026020016040519081016040528092919081815260200182805461143590614087565b80156114825780601f1061145757610100808354040283529160200191611482565b820191906000526020600020905b81548152906001019060200180831161146557829003601f168201915b50505050508152505084848151811061149e5761149d61411b565b5b602002602001018190525082806114b49061414a565b9350506114cf565b80806114c79061414a565b9150506111ed565b5080806114db9061414a565b9150506111e1565b508192505050919050565b600080600090505b60098054905081101561158b57600981815481106115175761151661411b565b5b90600052602060002090600202016000015483036115785760011515600982815481106115475761154661411b565b5b906000526020600020906002020160010160009054906101000a900460ff16151503611577576000915050611591565b5b80806115839061414a565b9150506114f6565b50600190505b919050565b6060600480546115a590614087565b80601f01602080910402602001604051908101604052809291908181526020018280546115d190614087565b801561161e5780601f106115f35761010080835404028352916020019161161e565b820191906000526020600020905b81548152906001019060200180831161160157829003601f168201915b5050505050905090565b60008060008061163785611896565b925092509250600186828585604051600081526020016040526040516116609493929190614458565b6020604051602081039080840390855afa158015611682573d6000803e3d6000fd5b50505060206040510351935050505092915050565b6000806000905060005b60068054905081101561173957600681815481106116c2576116c161411b565b5b9060005260206000200160009054906101000a900473ffffffffffffffffffffffffffffffffffffffff1673ffffffffffffffffffffffffffffffffffffffff163373ffffffffffffffffffffffffffffffffffffffff16036117285760019150611739565b806117329061414a565b90506116a1565b506001151581151514611781576040517f08c379a000000000000000000000000000000000000000000000000000000000815260040161177890614204565b60405180910390fd5b60005b6009805490508110156117da57600981815481106117a5576117a461411b565b5b90600052602060002090600202016000015484036117c75760009250506117e0565b80806117d29061414a565b915050611784565b50600191505b50919050565b6000848484846040516020016117ff9493929190614506565b604051602081830303815290604052805190602001209050949350505050565b60008061182a6127d2565b9050600061183882866120d8565b90508381101561187d576040517f08c379a0000000000000000000000000000000000000000000000000000000008152600401611874906145c2565b60405180910390fd5b61188a82868684036127da565b60019250505092915050565b600080600060418451146118df576040517f08c379a00000000000000000000000000000000000000000000000000000000081526004016118d69061462e565b60405180910390fd5b6020840151925060408401519150606084015160001a90509193909250565b6000806119096127d2565b9050611916818585612a2f565b600191505092915050565b600080611930878787876117e6565b9050600061193d826125c9565b90508873ffffffffffffffffffffffffffffffffffffffff166119608286611628565b73ffffffffffffffffffffffffffffffffffffffff1614925050509695505050505050565b61199686868660ff16868686611921565b6119d5576040517f08c379a00000000000000000000000000000000000000000000000000000000081526004016119cc906143e7565b60405180910390fd5b6119ff85670de0b6b3a76400008660ff166119f0919061441b565b67ffffffffffffffff16612dfb565b505050505050565b6000805b600680549050811015611aa35760068181548110611a2c57611a2b61411b565b5b9060005260206000200160009054906101000a900473ffffffffffffffffffffffffffffffffffffffff1673ffffffffffffffffffffffffffffffffffffffff163373ffffffffffffffffffffffffffffffffffffffff1603611a925760019150611aa3565b80611a9c9061414a565b9050611a0b565b506001151581151514611aeb576040517f08c379a0000000000000000000000000000000000000000000000000000000008152600401611ae290614204565b60405180910390fd5b611af482611697565b611b33576040517f08c379a0000000000000000000000000000000000000000000000000000000008152600401611b2a9061469a565b60405180910390fd5b600960405180604001604052808481526020016000151581525090806001815401808255809150506001900390600052602060002090600202016000909190919091506000820151816000015560208201518160010160006101000a81548160ff02191690831515021790555050505050565b60005b600d60003373ffffffffffffffffffffffffffffffffffffffff1673ffffffffffffffffffffffffffffffffffffffff1681526020019081526020016000208054905081101561200857600d60003373ffffffffffffffffffffffffffffffffffffffff1673ffffffffffffffffffffffffffffffffffffffff1681526020019081526020016000208181548110611c4457611c4361411b565b5b9060005260206000209060070201600001548b03611ff55760001515600d60003373ffffffffffffffffffffffffffffffffffffffff1673ffffffffffffffffffffffffffffffffffffffff1681526020019081526020016000208281548110611cb157611cb061411b565b5b906000526020600020906007020160050160009054906101000a900460ff16151514611d12576040517f08c379a0000000000000000000000000000000000000000000000000000000008152600401611d0990614706565b60405180910390fd5b89600d60003373ffffffffffffffffffffffffffffffffffffffff1673ffffffffffffffffffffffffffffffffffffffff1681526020019081526020016000208281548110611d6457611d6361411b565b5b90600052602060002090600702016003019081611d8191906148d2565b5088600d60003373ffffffffffffffffffffffffffffffffffffffff1673ffffffffffffffffffffffffffffffffffffffff1681526020019081526020016000208281548110611dd457611dd361411b565b5b9060005260206000209060070201600401819055506001600d60003373ffffffffffffffffffffffffffffffffffffffff1673ffffffffffffffffffffffffffffffffffffffff1681526020019081526020016000208281548110611e3c57611e3b61411b565b5b906000526020600020906007020160050160006101000a81548160ff02191690831515021790555087600d60003373ffffffffffffffffffffffffffffffffffffffff1673ffffffffffffffffffffffffffffffffffffffff1681526020019081526020016000208281548110611eb657611eb561411b565b5b90600052602060002090600702016006019081611ed391906148d2565b50601360008d8152602001908152602001600020600d60003373ffffffffffffffffffffffffffffffffffffffff1673ffffffffffffffffffffffffffffffffffffffff1681526020019081526020016000208281548110611f3857611f3761411b565b5b9060005260206000209060070201908060018154018082558091505060019003906000526020600020906007020160009091909190915060008201548160000155600182015481600101556002820154816002015560038201816003019081611fa191906149ba565b50600482015481600401556005820160009054906101000a900460ff168160050160006101000a81548160ff02191690831515021790555060068201816006019081611fed91906149ba565b505050612008565b80806120009061414a565b915050611ba9565b50601260008c8152602001908152602001600020889080600181540180825580915050600190039060005260206000200160009091909190915055601160008c815260200190815260200160002060008154809291906120679061414a565b919050555061207a868686868686611100565b87896040516120899190614384565b60405180910390208c7f67fbf0ab29ccb48c09f17ccb11294f7d23fc8c4672259ff330cf874b75fa51768d8b6040516120c3929190614aa2565b60405180910390a45050505050505050505050565b6000600160008473ffffffffffffffffffffffffffffffffffffffff1673ffffffffffffffffffffffffffffffffffffffff16815260200190815260200160002060008373ffffffffffffffffffffffffffffffffffffffff1673ffffffffffffffffffffffffffffffffffffffff16815260200190815260200160002054905092915050565b6012602052816000526040600020818154811061217b57600080fd5b90600052602060002001600091509150505481565b600f60205282600052604060002060205281600052604060002081815481106121b857600080fd5b906000526020600020906007020160009250925050508060000154908060010154908060020154908060030180546121ef90614087565b80601f016020809104026020016040519081016040528092919081815260200182805461221b90614087565b80156122685780601f1061223d57610100808354040283529160200191612268565b820191906000526020600020905b81548152906001019060200180831161224b57829003601f168201915b5050505050908060040154908060050160009054906101000a900460ff169080600601805461229690614087565b80601f01602080910402602001604051908101604052809291908181526020018280546122c290614087565b801561230f5780601f106122e45761010080835404028352916020019161230f565b820191906000526020600020905b8154815290600101906020018083116122f257829003601f168201915b5050505050905087565b6000805b60098054905081101561241f576009818154811061233e5761233d61411b565b5b906000526020600020906002020160000154840361240c576009818154811061236a5761236961411b565b5b906000526020600020906002020160010160009054906101000a900460ff16156123c9576040517f08c379a00000000000000000000000000000000000000000000000000000000081526004016123c090614b1e565b60405180910390fd5b600191506001600982815481106123e3576123e261411b565b5b906000526020600020906002020160010160006101000a81548160ff0219169083151502179055505b80806124179061414a565b91505061231d565b506010600083815260200190815260200160002060008154809291906124449061414a565b9190505550600b600081548092919061245c9061414a565b9190505550600d60003373ffffffffffffffffffffffffffffffffffffffff1673ffffffffffffffffffffffffffffffffffffffff1681526020019081526020016000206040518060e00160405280600b54815260200184815260200142815260200160405180602001604052806000815250815260200160008152602001600015158152602001604051806020016040528060008152508152509080600181540180825580915050600190039060005260206000209060070201600090919091909150600082015181600001556020820151816001015560408201518160020155606082015181600301908161255391906148d2565b506080820151816004015560a08201518160050160006101000a81548160ff02191690831515021790555060c082015181600601908161259391906148d2565b50505081837ff165997b5f1d2b5ae2f43279fc978111209309fd44e04343b1ffd71915e62ab560405160405180910390a3505050565b6000816040516020016125dc9190614bab565b604051602081830303815290604052805190602001209050919050565b606060136000838152602001908152602001600020805480602002602001604051908101604052809291908181526020016000905b828210156127c757838290600052602060002090600702016040518060e001604052908160008201548152602001600182015481526020016002820154815260200160038201805461267f90614087565b80601f01602080910402602001604051908101604052809291908181526020018280546126ab90614087565b80156126f85780601f106126cd576101008083540402835291602001916126f8565b820191906000526020600020905b8154815290600101906020018083116126db57829003601f168201915b50505050508152602001600482015481526020016005820160009054906101000a900460ff1615151515815260200160068201805461273690614087565b80601f016020809104026020016040519081016040528092919081815260200182805461276290614087565b80156127af5780601f10612784576101008083540402835291602001916127af565b820191906000526020600020905b81548152906001019060200180831161279257829003601f168201915b5050505050815250508152602001906001019061262e565b505050509050919050565b600033905090565b600073ffffffffffffffffffffffffffffffffffffffff168373ffffffffffffffffffffffffffffffffffffffff1603612849576040517f08c379a000000000000000000000000000000000000000000000000000000000815260040161284090614c43565b60405180910390fd5b600073ffffffffffffffffffffffffffffffffffffffff168273ffffffffffffffffffffffffffffffffffffffff16036128b8576040517f08c379a00000000000000000000000000000000000000000000000000000000081526004016128af90614cd5565b60405180910390fd5b80600160008573ffffffffffffffffffffffffffffffffffffffff1673ffffffffffffffffffffffffffffffffffffffff16815260200190815260200160002060008473ffffffffffffffffffffffffffffffffffffffff1673ffffffffffffffffffffffffffffffffffffffff168152602001908152602001600020819055508173ffffffffffffffffffffffffffffffffffffffff168373ffffffffffffffffffffffffffffffffffffffff167f8c5be1e5ebec7d5bd14f71427d1e84f3dd0314c0f7b2291e5b200ac8c7c3b925836040516129969190613097565b60405180910390a3505050565b60006129af84846120d8565b90507fffffffffffffffffffffffffffffffffffffffffffffffffffffffffffffffff8114612a295781811015612a1b576040517f08c379a0000000000000000000000000000000000000000000000000000000008152600401612a1290614d41565b60405180910390fd5b612a2884848484036127da565b5b50505050565b600073ffffffffffffffffffffffffffffffffffffffff168373ffffffffffffffffffffffffffffffffffffffff1603612a9e576040517f08c379a0000000000000000000000000000000000000000000000000000000008152600401612a9590614dd3565b60405180910390fd5b600073ffffffffffffffffffffffffffffffffffffffff168273ffffffffffffffffffffffffffffffffffffffff1603612b0d576040517f08c379a0000000000000000000000000000000000000000000000000000000008152600401612b0490614e65565b60405180910390fd5b612b18838383612fc8565b60008060008573ffffffffffffffffffffffffffffffffffffffff1673ffffffffffffffffffffffffffffffffffffffff16815260200190815260200160002054905081811015612b9e576040517f08c379a0000000000000000000000000000000000000000000000000000000008152600401612b9590614ef7565b60405180910390fd5b8181036000808673ffffffffffffffffffffffffffffffffffffffff1673ffffffffffffffffffffffffffffffffffffffff16815260200190815260200160002081905550816000808573ffffffffffffffffffffffffffffffffffffffff1673ffffffffffffffffffffffffffffffffffffffff168152602001908152602001600020600082825401925050819055508273ffffffffffffffffffffffffffffffffffffffff168473ffffffffffffffffffffffffffffffffffffffff167fddf252ad1be2c89b69c2b068fc378daa952ba7f163c4a11628f55a4df523b3ef84604051612c8c9190613097565b60405180910390a3612c9f848484612fcd565b50505050565b600073ffffffffffffffffffffffffffffffffffffffff168273ffffffffffffffffffffffffffffffffffffffff1603612d14576040517f08c379a0000000000000000000000000000000000000000000000000000000008152600401612d0b90614f63565b60405180910390fd5b612d2060008383612fc8565b8060026000828254612d3291906140e7565b92505081905550806000808473ffffffffffffffffffffffffffffffffffffffff1673ffffffffffffffffffffffffffffffffffffffff168152602001908152602001600020600082825401925050819055508173ffffffffffffffffffffffffffffffffffffffff16600073ffffffffffffffffffffffffffffffffffffffff167fddf252ad1be2c89b69c2b068fc378daa952ba7f163c4a11628f55a4df523b3ef83604051612de39190613097565b60405180910390a3612df760008383612fcd565b5050565b600073ffffffffffffffffffffffffffffffffffffffff168273ffffffffffffffffffffffffffffffffffffffff1603612e6a576040517f08c379a0000000000000000000000000000000000000000000000000000000008152600401612e6190614ff5565b60405180910390fd5b612e7682600083612fc8565b60008060008473ffffffffffffffffffffffffffffffffffffffff1673ffffffffffffffffffffffffffffffffffffffff16815260200190815260200160002054905081811015612efc576040517f08c379a0000000000000000000000000000000000000000000000000000000008152600401612ef390615087565b60405180910390fd5b8181036000808573ffffffffffffffffffffffffffffffffffffffff1673ffffffffffffffffffffffffffffffffffffffff1681526020019081526020016000208190555081600260008282540392505081905550600073ffffffffffffffffffffffffffffffffffffffff168373ffffffffffffffffffffffffffffffffffffffff167fddf252ad1be2c89b69c2b068fc378daa952ba7f163c4a11628f55a4df523b3ef84604051612faf9190613097565b60405180910390a3612fc383600084612fcd565b505050565b505050565b505050565b6040518060e001604052806000815260200160008152602001600081526020016060815260200160008152602001600015158152602001606081525090565b6000604051905090565b600080fd5b600080fd5b6000819050919050565b61303881613025565b811461304357600080fd5b50565b6000813590506130558161302f565b92915050565b6000602082840312156130715761307061301b565b5b600061307f84828501613046565b91505092915050565b61309181613025565b82525050565b60006020820190506130ac6000830184613088565b92915050565b600081519050919050565b600082825260208201905092915050565b60005b838110156130ec5780820151818401526020810190506130d1565b60008484015250505050565b6000601f19601f8301169050919050565b6000613114826130b2565b61311e81856130bd565b935061312e8185602086016130ce565b613137816130f8565b840191505092915050565b6000602082019050818103600083015261315c8184613109565b905092915050565b600073ffffffffffffffffffffffffffffffffffffffff82169050919050565b600061318f82613164565b9050919050565b61319f81613184565b81146131aa57600080fd5b50565b6000813590506131bc81613196565b92915050565b600080604083850312156131d9576131d861301b565b5b60006131e7858286016131ad565b92505060206131f885828601613046565b9150509250929050565b60008115159050919050565b61321781613202565b82525050565b6000602082019050613232600083018461320e565b92915050565b600081519050919050565b600082825260208201905092915050565b6000819050602082019050919050565b61326d81613025565b82525050565b600082825260208201905092915050565b600061328f826130b2565b6132998185613273565b93506132a98185602086016130ce565b6132b2816130f8565b840191505092915050565b6132c681613202565b82525050565b600060e0830160008301516132e46000860182613264565b5060208301516132f76020860182613264565b50604083015161330a6040860182613264565b50606083015184820360608601526133228282613284565b91505060808301516133376080860182613264565b5060a083015161334a60a08601826132bd565b5060c083015184820360c08601526133628282613284565b9150508091505092915050565b600061337b83836132cc565b905092915050565b6000602082019050919050565b600061339b82613238565b6133a58185613243565b9350836020820285016133b785613254565b8060005b858110156133f357848403895281516133d4858261336f565b94506133df83613383565b925060208a019950506001810190506133bb565b50829750879550505050505092915050565b6000602082019050818103600083015261341f8184613390565b905092915050565b6000806000606084860312156134405761343f61301b565b5b600061344e868287016131ad565b935050602061345f868287016131ad565b925050604061347086828701613046565b9150509250925092565b600060ff82169050919050565b6134908161347a565b82525050565b60006020820190506134ab6000830184613487565b92915050565b600060e0820190506134c6600083018a613088565b6134d36020830189613088565b6134e06040830188613088565b81810360608301526134f28187613109565b90506135016080830186613088565b61350e60a083018561320e565b81810360c08301526135208184613109565b905098975050505050505050565b600080fd5b600080fd5b7f4e487b7100000000000000000000000000000000000000000000000000000000600052604160045260246000fd5b613570826130f8565b810181811067ffffffffffffffff8211171561358f5761358e613538565b5b80604052505050565b60006135a2613011565b90506135ae8282613567565b919050565b600067ffffffffffffffff8211156135ce576135cd613538565b5b6135d7826130f8565b9050602081019050919050565b82818337600083830152505050565b6000613606613601846135b3565b613598565b90508281526020810184848401111561362257613621613533565b5b61362d8482856135e4565b509392505050565b600082601f83011261364a5761364961352e565b5b813561365a8482602086016135f3565b91505092915050565b61366c8161347a565b811461367757600080fd5b50565b60008135905061368981613663565b92915050565b600067ffffffffffffffff8211156136aa576136a9613538565b5b6136b3826130f8565b9050602081019050919050565b60006136d36136ce8461368f565b613598565b9050828152602081018484840111156136ef576136ee613533565b5b6136fa8482856135e4565b509392505050565b600082601f8301126137175761371661352e565b5b81356137278482602086016136c0565b91505092915050565b600080600080600080600060e0888a03121561374f5761374e61301b565b5b600088013567ffffffffffffffff81111561376d5761376c613020565b5b6137798a828b01613635565b975050602061378a8a828b016131ad565b965050604061379b8a828b016131ad565b95505060606137ac8a828b0161367a565b945050608088013567ffffffffffffffff8111156137cd576137cc613020565b5b6137d98a828b01613635565b93505060a06137ea8a828b01613046565b92505060c088013567ffffffffffffffff81111561380b5761380a613020565b5b6138178a828b01613702565b91505092959891949750929550565b60006020828403121561383c5761383b61301b565b5b600061384a848285016131ad565b91505092915050565b61385c81613184565b82525050565b6000608082019050818103600083015261387c8187613109565b905061388b6020830186613088565b613898604083018561320e565b6138a56060830184613853565b95945050505050565b600081519050919050565b600082825260208201905092915050565b6000819050602082019050919050565b60006138e68383613264565b60208301905092915050565b6000602082019050919050565b600061390a826138ae565b61391481856138b9565b935061391f836138ca565b8060005b8381101561395057815161393788826138da565b9750613942836138f2565b925050600181019050613923565b5085935050505092915050565b6000602082019050818103600083015261397781846138ff565b905092915050565b60008060008060008060c0878903121561399c5761399b61301b565b5b60006139aa89828a016131ad565b96505060206139bb89828a016131ad565b95505060406139cc89828a0161367a565b945050606087013567ffffffffffffffff8111156139ed576139ec613020565b5b6139f989828a01613635565b9350506080613a0a89828a01613046565b92505060a087013567ffffffffffffffff811115613a2b57613a2a613020565b5b613a3789828a01613702565b9150509295509295509295565b600067ffffffffffffffff821115613a5f57613a5e613538565b5b602082029050602081019050919050565b600080fd5b6000613a88613a8384613a44565b613598565b90508083825260208201905060208402830185811115613aab57613aaa613a70565b5b835b81811015613ad45780613ac08882613046565b845260208401935050602081019050613aad565b5050509392505050565b600082601f830112613af357613af261352e565b5b8135613b03848260208601613a75565b91505092915050565b600060208284031215613b2257613b2161301b565b5b600082013567ffffffffffffffff811115613b4057613b3f613020565b5b613b4c84828501613ade565b91505092915050565b6000819050919050565b613b6881613b55565b8114613b7357600080fd5b50565b600081359050613b8581613b5f565b92915050565b60008060408385031215613ba257613ba161301b565b5b6000613bb085828601613b76565b925050602083013567ffffffffffffffff811115613bd157613bd0613020565b5b613bdd85828601613702565b9150509250929050565b6000602082019050613bfc6000830184613853565b92915050565b60008060008060808587031215613c1c57613c1b61301b565b5b6000613c2a878288016131ad565b9450506020613c3b87828801613046565b935050604085013567ffffffffffffffff811115613c5c57613c5b613020565b5b613c6887828801613635565b9250506060613c7987828801613046565b91505092959194509250565b613c8e81613b55565b82525050565b6000602082019050613ca96000830184613c85565b92915050565b600060208284031215613cc557613cc461301b565b5b600082013567ffffffffffffffff811115613ce357613ce2613020565b5b613cef84828501613702565b91505092915050565b6000606082019050613d0d6000830186613c85565b613d1a6020830185613c85565b613d276040830184613487565b949350505050565b60008060008060008060c08789031215613d4c57613d4b61301b565b5b6000613d5a89828a016131ad565b9650506020613d6b89828a016131ad565b9550506040613d7c89828a01613046565b945050606087013567ffffffffffffffff811115613d9d57613d9c613020565b5b613da989828a01613635565b9350506080613dba89828a01613046565b92505060a087013567ffffffffffffffff811115613ddb57613dda613020565b5b613de789828a01613702565b9150509295509295509295565b60008060008060008060008060008060006101608c8e031215613e1a57613e1961301b565b5b6000613e288e828f01613046565b9b50506020613e398e828f01613046565b9a505060408c013567ffffffffffffffff811115613e5a57613e59613020565b5b613e668e828f01613635565b9950506060613e778e828f01613046565b98505060808c013567ffffffffffffffff811115613e9857613e97613020565b5b613ea48e828f01613635565b97505060a0613eb58e828f016131ad565b96505060c0613ec68e828f016131ad565b95505060e0613ed78e828f0161367a565b9450506101008c013567ffffffffffffffff811115613ef957613ef8613020565b5b613f058e828f01613635565b935050610120613f178e828f01613046565b9250506101408c013567ffffffffffffffff811115613f3957613f38613020565b5b613f458e828f01613702565b9150509295989b509295989b9093969950565b60008060408385031215613f6f57613f6e61301b565b5b6000613f7d858286016131ad565b9250506020613f8e858286016131ad565b9150509250929050565b60008060408385031215613faf57613fae61301b565b5b6000613fbd85828601613046565b9250506020613fce85828601613046565b9150509250929050565b600080600060608486031215613ff157613ff061301b565b5b6000613fff868287016131ad565b935050602061401086828701613046565b925050604061402186828701613046565b9150509250925092565b6000602082840312156140415761404061301b565b5b600061404f84828501613b76565b91505092915050565b7f4e487b7100000000000000000000000000000000000000000000000000000000600052602260045260246000fd5b6000600282049050600182168061409f57607f821691505b6020821081036140b2576140b1614058565b5b50919050565b7f4e487b7100000000000000000000000000000000000000000000000000000000600052601160045260246000fd5b60006140f282613025565b91506140fd83613025565b9250828201905080821115614115576141146140b8565b5b92915050565b7f4e487b7100000000000000000000000000000000000000000000000000000000600052603260045260246000fd5b600061415582613025565b91507fffffffffffffffffffffffffffffffffffffffffffffffffffffffffffffffff8203614187576141866140b8565b5b600182019050919050565b7f4f6e6c792061646d696e2063616e2063616c6c20746869732066756e6374696f60008201527f6e00000000000000000000000000000000000000000000000000000000000000602082015250565b60006141ee6021836130bd565b91506141f982614192565b604082019050919050565b6000602082019050818103600083015261421d816141e1565b9050919050565b7f496e76616c696420726f6c652c206f6e6c792061646d696e206f72207365727660008201527f696365207375697461626c652e00000000000000000000000000000000000000602082015250565b6000614280602d836130bd565b915061428b82614224565b604082019050919050565b600060208201905081810360008301526142af81614273565b9050919050565b7f596f75206e6f74206861766520656e6f756768206d6f6e657920746f2070757260008201527f6368617365000000000000000000000000000000000000000000000000000000602082015250565b60006143126025836130bd565b915061431d826142b6565b604082019050919050565b6000602082019050818103600083015261434181614305565b9050919050565b600081905092915050565b600061435e826130b2565b6143688185614348565b93506143788185602086016130ce565b80840191505092915050565b60006143908284614353565b915081905092915050565b7f496e76616c6964205369676e6174757265000000000000000000000000000000600082015250565b60006143d16011836130bd565b91506143dc8261439b565b602082019050919050565b60006020820190508181036000830152614400816143c4565b9050919050565b600067ffffffffffffffff82169050919050565b600061442682614407565b915061443183614407565b925082820261443f81614407565b9150808214614451576144506140b8565b5b5092915050565b600060808201905061446d6000830187613c85565b61447a6020830186613487565b6144876040830185613c85565b6144946060830184613c85565b95945050505050565b60008160601b9050919050565b60006144b58261449d565b9050919050565b60006144c7826144aa565b9050919050565b6144df6144da82613184565b6144bc565b82525050565b6000819050919050565b6145006144fb82613025565b6144e5565b82525050565b600061451282876144ce565b60148201915061452282866144ef565b6020820191506145328285614353565b915061453e82846144ef565b60208201915081905095945050505050565b7f45524332303a2064656372656173656420616c6c6f77616e63652062656c6f7760008201527f207a65726f000000000000000000000000000000000000000000000000000000602082015250565b60006145ac6025836130bd565b91506145b782614550565b604082019050919050565b600060208201905081810360008301526145db8161459f565b9050919050565b7f696e76616c6964207369676e6174757265206c656e6774680000000000000000600082015250565b60006146186018836130bd565b9150614623826145e2565b602082019050919050565b600060208201905081810360008301526146478161460b565b9050919050565b7f5468697320494420616c72656164792065786973746564000000000000000000600082015250565b60006146846017836130bd565b915061468f8261464e565b602082019050919050565b600060208201905081810360008301526146b381614677565b9050919050565b7f596f7520686164206265656e2072657669657765642074686973207472697000600082015250565b60006146f0601f836130bd565b91506146fb826146ba565b602082019050919050565b6000602082019050818103600083015261471f816146e3565b9050919050565b60008190508160005260206000209050919050565b60006020601f8301049050919050565b600082821b905092915050565b6000600883026147887fffffffffffffffffffffffffffffffffffffffffffffffffffffffffffffffff8261474b565b614792868361474b565b95508019841693508086168417925050509392505050565b6000819050919050565b60006147cf6147ca6147c584613025565b6147aa565b613025565b9050919050565b6000819050919050565b6147e9836147b4565b6147fd6147f5826147d6565b848454614758565b825550505050565b600090565b614812614805565b61481d8184846147e0565b505050565b5b818110156148415761483660008261480a565b600181019050614823565b5050565b601f8211156148865761485781614726565b6148608461473b565b8101602085101561486f578190505b61488361487b8561473b565b830182614822565b50505b505050565b600082821c905092915050565b60006148a96000198460080261488b565b1980831691505092915050565b60006148c28383614898565b9150826002028217905092915050565b6148db826130b2565b67ffffffffffffffff8111156148f4576148f3613538565b5b6148fe8254614087565b614909828285614845565b600060209050601f83116001811461493c576000841561492a578287015190505b61493485826148b6565b86555061499c565b601f19841661494a86614726565b60005b828110156149725784890151825560018201915060208501945060208101905061494d565b8683101561498f578489015161498b601f891682614898565b8355505b6001600288020188555050505b505050505050565b6000815490506149b381614087565b9050919050565b8181036149c8575050614aa0565b6149d1826149a4565b67ffffffffffffffff8111156149ea576149e9613538565b5b6149f48254614087565b6149ff828285614845565b6000601f831160018114614a2e5760008415614a1c578287015490505b614a2685826148b6565b865550614a99565b601f198416614a3c87614726565b9650614a4786614726565b60005b82811015614a6f57848901548255600182019150600185019450602081019050614a4a565b86831015614a8c5784890154614a88601f891682614898565b8355505b6001600288020188555050505b5050505050505b565b6000604082019050614ab76000830185613088565b8181036020830152614ac98184613109565b90509392505050565b7f5469636b65742068617320757365640000000000000000000000000000000000600082015250565b6000614b08600f836130bd565b9150614b1382614ad2565b602082019050919050565b60006020820190508181036000830152614b3781614afb565b9050919050565b7f19457468657265756d205369676e6564204d6573736167653a0a333200000000600082015250565b6000614b74601c83614348565b9150614b7f82614b3e565b601c82019050919050565b6000819050919050565b614ba5614ba082613b55565b614b8a565b82525050565b6000614bb682614b67565b9150614bc28284614b94565b60208201915081905092915050565b7f45524332303a20617070726f76652066726f6d20746865207a65726f2061646460008201527f7265737300000000000000000000000000000000000000000000000000000000602082015250565b6000614c2d6024836130bd565b9150614c3882614bd1565b604082019050919050565b60006020820190508181036000830152614c5c81614c20565b9050919050565b7f45524332303a20617070726f766520746f20746865207a65726f20616464726560008201527f7373000000000000000000000000000000000000000000000000000000000000602082015250565b6000614cbf6022836130bd565b9150614cca82614c63565b604082019050919050565b60006020820190508181036000830152614cee81614cb2565b9050919050565b7f45524332303a20696e73756666696369656e7420616c6c6f77616e6365000000600082015250565b6000614d2b601d836130bd565b9150614d3682614cf5565b602082019050919050565b60006020820190508181036000830152614d5a81614d1e565b9050919050565b7f45524332303a207472616e736665722066726f6d20746865207a65726f20616460008201527f6472657373000000000000000000000000000000000000000000000000000000602082015250565b6000614dbd6025836130bd565b9150614dc882614d61565b604082019050919050565b60006020820190508181036000830152614dec81614db0565b9050919050565b7f45524332303a207472616e7366657220746f20746865207a65726f206164647260008201527f6573730000000000000000000000000000000000000000000000000000000000602082015250565b6000614e4f6023836130bd565b9150614e5a82614df3565b604082019050919050565b60006020820190508181036000830152614e7e81614e42565b9050919050565b7f45524332303a207472616e7366657220616d6f756e742065786365656473206260008201527f616c616e63650000000000000000000000000000000000000000000000000000602082015250565b6000614ee16026836130bd565b9150614eec82614e85565b604082019050919050565b60006020820190508181036000830152614f1081614ed4565b9050919050565b7f45524332303a206d696e7420746f20746865207a65726f206164647265737300600082015250565b6000614f4d601f836130bd565b9150614f5882614f17565b602082019050919050565b60006020820190508181036000830152614f7c81614f40565b9050919050565b7f45524332303a206275726e2066726f6d20746865207a65726f2061646472657360008201527f7300000000000000000000000000000000000000000000000000000000000000602082015250565b6000614fdf6021836130bd565b9150614fea82614f83565b604082019050919050565b6000602082019050818103600083015261500e81614fd2565b9050919050565b7f45524332303a206275726e20616d6f756e7420657863656564732062616c616e60008201527f6365000000000000000000000000000000000000000000000000000000000000602082015250565b60006150716022836130bd565b915061507c82615015565b604082019050919050565b600060208201905081810360008301526150a081615064565b905091905056fea26469706673582212208101722123f0bcedd674470d4e7385087ceaf520bdbcaf0a6aadf13476e4a89564736f6c63430008130033",
  "linkReferences": {},
  "deployedLinkReferences": {}
}