{
  "_format": "hh-sol-artifact-1",
  "contractName": "TouristConTract",
  "sourceName": "contracts/Tourism.sol",
  "abi": [
    {
      "inputs": [],
      "stateMutability": "nonpayable",
      "type": "constructor"
    },
    {
      "anonymous": false,
      "inputs": [
        {
          "indexed": false,
          "internalType": "string",
          "name": "AlbumName",
          "type": "string"
        },
        {
          "components": [
            {
              "internalType": "uint256",
              "name": "tripId",
              "type": "uint256"
            },
            {
              "internalType": "uint256",
              "name": "placeId",
              "type": "uint256"
            },
            {
              "internalType": "uint256",
              "name": "arrivalDate",
              "type": "uint256"
            },
            {
              "internalType": "string",
              "name": "review",
              "type": "string"
            },
            {
              "internalType": "uint256",
              "name": "rate",
              "type": "uint256"
            },
            {
              "internalType": "bool",
              "name": "isReview",
              "type": "bool"
            },
            {
              "internalType": "string",
              "name": "title",
              "type": "string"
            }
          ],
          "indexed": false,
          "internalType": "struct TouristConTract.Journey",
          "name": "journey",
          "type": "tuple"
        }
      ],
      "name": "AddJourneyInAlbum",
      "type": "event"
    },
    {
      "anonymous": false,
      "inputs": [
        {
          "indexed": false,
          "internalType": "string",
          "name": "name",
          "type": "string"
        },
        {
          "indexed": false,
          "internalType": "uint256",
          "name": "age",
          "type": "uint256"
        }
      ],
      "name": "AddTourist",
      "type": "event"
    },
    {
      "anonymous": false,
      "inputs": [
        {
          "indexed": true,
          "internalType": "address",
          "name": "owner",
          "type": "address"
        },
        {
          "indexed": true,
          "internalType": "address",
          "name": "spender",
          "type": "address"
        },
        {
          "indexed": false,
          "internalType": "uint256",
          "name": "value",
          "type": "uint256"
        }
      ],
      "name": "Approval",
      "type": "event"
    },
    {
      "anonymous": false,
      "inputs": [
        {
          "indexed": false,
          "internalType": "uint256",
          "name": "ticketId",
          "type": "uint256"
        },
        {
          "indexed": false,
          "internalType": "uint256",
          "name": "placeId",
          "type": "uint256"
        }
      ],
      "name": "CheckIn",
      "type": "event"
    },
    {
      "anonymous": false,
      "inputs": [
        {
          "indexed": false,
          "internalType": "uint256",
          "name": "_id",
          "type": "uint256"
        },
        {
          "indexed": false,
          "internalType": "string",
          "name": "_name",
          "type": "string"
        }
      ],
      "name": "CreateAlbum",
      "type": "event"
    },
    {
      "anonymous": false,
      "inputs": [
        {
          "indexed": true,
          "internalType": "address",
          "name": "from",
          "type": "address"
        },
        {
          "indexed": true,
          "internalType": "address",
          "name": "to",
          "type": "address"
        },
        {
          "indexed": false,
          "internalType": "uint256",
          "name": "value",
          "type": "uint256"
        }
      ],
      "name": "Transfer",
      "type": "event"
    },
    {
      "inputs": [
        {
          "internalType": "address",
          "name": "_signer",
          "type": "address"
        },
        {
          "internalType": "address",
          "name": "_to",
          "type": "address"
        },
        {
          "internalType": "uint256",
          "name": "_amount",
          "type": "uint256"
        },
        {
          "internalType": "string",
          "name": "_message",
          "type": "string"
        },
        {
          "internalType": "uint256",
          "name": "_nonce",
          "type": "uint256"
        },
        {
          "internalType": "bytes",
          "name": "signature",
          "type": "bytes"
        }
      ],
      "name": "_mintMinerReward",
      "outputs": [],
      "stateMutability": "nonpayable",
      "type": "function"
    },
    {
      "inputs": [
        {
          "internalType": "uint256",
          "name": "placeId",
          "type": "uint256"
        },
        {
          "internalType": "uint256",
          "name": "albumId",
          "type": "uint256"
        },
        {
          "internalType": "uint256",
          "name": "date",
          "type": "uint256"
        }
      ],
      "name": "addAlbumJourney",
      "outputs": [],
      "stateMutability": "nonpayable",
      "type": "function"
    },
    {
      "inputs": [
        {
          "internalType": "uint256",
          "name": "id",
          "type": "uint256"
        }
      ],
      "name": "addTicket",
      "outputs": [],
      "stateMutability": "nonpayable",
      "type": "function"
    },
    {
      "inputs": [
        {
          "internalType": "address",
          "name": "",
          "type": "address"
        },
        {
          "internalType": "uint256",
          "name": "",
          "type": "uint256"
        },
        {
          "internalType": "uint256",
          "name": "",
          "type": "uint256"
        }
      ],
      "name": "albumJourneys",
      "outputs": [
        {
          "internalType": "uint256",
          "name": "tripId",
          "type": "uint256"
        },
        {
          "internalType": "uint256",
          "name": "placeId",
          "type": "uint256"
        },
        {
          "internalType": "uint256",
          "name": "arrivalDate",
          "type": "uint256"
        },
        {
          "internalType": "string",
          "name": "review",
          "type": "string"
        },
        {
          "internalType": "uint256",
          "name": "rate",
          "type": "uint256"
        },
        {
          "internalType": "bool",
          "name": "isReview",
          "type": "bool"
        },
        {
          "internalType": "string",
          "name": "title",
          "type": "string"
        }
      ],
      "stateMutability": "view",
      "type": "function"
    },
    {
      "inputs": [
        {
          "internalType": "address",
          "name": "owner",
          "type": "address"
        },
        {
          "internalType": "address",
          "name": "spender",
          "type": "address"
        }
      ],
      "name": "allowance",
      "outputs": [
        {
          "internalType": "uint256",
          "name": "",
          "type": "uint256"
        }
      ],
      "stateMutability": "view",
      "type": "function"
    },
    {
      "inputs": [
        {
          "internalType": "address",
          "name": "spender",
          "type": "address"
        },
        {
          "internalType": "uint256",
          "name": "amount",
          "type": "uint256"
        }
      ],
      "name": "approve",
      "outputs": [
        {
          "internalType": "bool",
          "name": "",
          "type": "bool"
        }
      ],
      "stateMutability": "nonpayable",
      "type": "function"
    },
    {
      "inputs": [
        {
          "internalType": "address",
          "name": "account",
          "type": "address"
        }
      ],
      "name": "balanceOf",
      "outputs": [
        {
          "internalType": "uint256",
          "name": "",
          "type": "uint256"
        }
      ],
      "stateMutability": "view",
      "type": "function"
    },
    {
      "inputs": [
        {
          "internalType": "uint256",
          "name": "ticketID",
          "type": "uint256"
        },
        {
          "internalType": "uint256",
          "name": "placeID",
          "type": "uint256"
        }
      ],
      "name": "checkIn",
      "outputs": [],
      "stateMutability": "nonpayable",
      "type": "function"
    },
    {
      "inputs": [
        {
          "internalType": "uint256",
          "name": "ticketID",
          "type": "uint256"
        }
      ],
      "name": "checkValidTicket",
      "outputs": [
        {
          "internalType": "bool",
          "name": "",
          "type": "bool"
        }
      ],
      "stateMutability": "view",
      "type": "function"
    },
    {
      "inputs": [
        {
          "internalType": "bytes32",
          "name": "_hashedMessage",
          "type": "bytes32"
        },
        {
          "internalType": "uint8",
          "name": "_v",
          "type": "uint8"
        },
        {
          "internalType": "bytes32",
          "name": "_r",
          "type": "bytes32"
        },
        {
          "internalType": "bytes32",
          "name": "_s",
          "type": "bytes32"
        }
      ],
      "name": "claimPrize",
      "outputs": [
        {
          "internalType": "bool",
          "name": "",
          "type": "bool"
        }
      ],
      "stateMutability": "view",
      "type": "function"
    },
    {
      "inputs": [
        {
          "internalType": "uint256",
          "name": "_id",
          "type": "uint256"
        },
        {
          "internalType": "string",
          "name": "_name",
          "type": "string"
        }
      ],
      "name": "createAlbum",
      "outputs": [],
      "stateMutability": "nonpayable",
      "type": "function"
    },
    {
      "inputs": [],
      "name": "decimals",
      "outputs": [
        {
          "internalType": "uint8",
          "name": "",
          "type": "uint8"
        }
      ],
      "stateMutability": "view",
      "type": "function"
    },
    {
      "inputs": [
        {
          "internalType": "address",
          "name": "spender",
          "type": "address"
        },
        {
          "internalType": "uint256",
          "name": "subtractedValue",
          "type": "uint256"
        }
      ],
      "name": "decreaseAllowance",
      "outputs": [
        {
          "internalType": "bool",
          "name": "",
          "type": "bool"
        }
      ],
      "stateMutability": "nonpayable",
      "type": "function"
    },
    {
      "inputs": [
        {
          "internalType": "uint256",
          "name": "",
          "type": "uint256"
        },
        {
          "internalType": "uint256",
          "name": "",
          "type": "uint256"
        }
      ],
      "name": "destinationRates",
      "outputs": [
        {
          "internalType": "uint256",
          "name": "",
          "type": "uint256"
        }
      ],
      "stateMutability": "view",
      "type": "function"
    },
    {
      "inputs": [
        {
          "internalType": "uint256",
          "name": "id",
          "type": "uint256"
        }
      ],
      "name": "getAlbumCheckIn",
      "outputs": [
        {
          "components": [
            {
              "internalType": "uint256",
              "name": "tripId",
              "type": "uint256"
            },
            {
              "internalType": "uint256",
              "name": "placeId",
              "type": "uint256"
            },
            {
              "internalType": "uint256",
              "name": "arrivalDate",
              "type": "uint256"
            },
            {
              "internalType": "string",
              "name": "review",
              "type": "string"
            },
            {
              "internalType": "uint256",
              "name": "rate",
              "type": "uint256"
            },
            {
              "internalType": "bool",
              "name": "isReview",
              "type": "bool"
            },
            {
              "internalType": "string",
              "name": "title",
              "type": "string"
            }
          ],
          "internalType": "struct TouristConTract.Journey[]",
          "name": "",
          "type": "tuple[]"
        }
      ],
      "stateMutability": "view",
      "type": "function"
    },
    {
      "inputs": [],
      "name": "getAllJourney",
      "outputs": [
        {
          "components": [
            {
              "internalType": "uint256",
              "name": "tripId",
              "type": "uint256"
            },
            {
              "internalType": "uint256",
              "name": "placeId",
              "type": "uint256"
            },
            {
              "internalType": "uint256",
              "name": "arrivalDate",
              "type": "uint256"
            },
            {
              "internalType": "string",
              "name": "review",
              "type": "string"
            },
            {
              "internalType": "uint256",
              "name": "rate",
              "type": "uint256"
            },
            {
              "internalType": "bool",
              "name": "isReview",
              "type": "bool"
            },
            {
              "internalType": "string",
              "name": "title",
              "type": "string"
            }
          ],
          "internalType": "struct TouristConTract.Journey[]",
          "name": "",
          "type": "tuple[]"
        }
      ],
      "stateMutability": "view",
      "type": "function"
    },
    {
      "inputs": [
        {
          "internalType": "uint256",
          "name": "placeid",
          "type": "uint256"
        }
      ],
      "name": "getAllRates",
      "outputs": [
        {
          "internalType": "uint256[]",
          "name": "",
          "type": "uint256[]"
        }
      ],
      "stateMutability": "view",
      "type": "function"
    },
    {
      "inputs": [
        {
          "internalType": "address",
          "name": "add",
          "type": "address"
        }
      ],
      "name": "getBalance",
      "outputs": [
        {
          "internalType": "uint256",
          "name": "",
          "type": "uint256"
        }
      ],
      "stateMutability": "view",
      "type": "function"
    },
    {
      "inputs": [
        {
          "internalType": "bytes32",
          "name": "_messageHash",
          "type": "bytes32"
        }
      ],
      "name": "getEthSignedMessageHash",
      "outputs": [
        {
          "internalType": "bytes32",
          "name": "",
          "type": "bytes32"
        }
      ],
      "stateMutability": "pure",
      "type": "function"
    },
    {
      "inputs": [
        {
          "internalType": "uint256[]",
          "name": "timestamp",
          "type": "uint256[]"
        }
      ],
      "name": "getJourneyWithTime",
      "outputs": [
        {
          "components": [
            {
              "internalType": "uint256",
              "name": "tripId",
              "type": "uint256"
            },
            {
              "internalType": "uint256",
              "name": "placeId",
              "type": "uint256"
            },
            {
              "internalType": "uint256",
              "name": "arrivalDate",
              "type": "uint256"
            },
            {
              "internalType": "string",
              "name": "review",
              "type": "string"
            },
            {
              "internalType": "uint256",
              "name": "rate",
              "type": "uint256"
            },
            {
              "internalType": "bool",
              "name": "isReview",
              "type": "bool"
            },
            {
              "internalType": "string",
              "name": "title",
              "type": "string"
            }
          ],
          "internalType": "struct TouristConTract.Journey[]",
          "name": "",
          "type": "tuple[]"
        }
      ],
      "stateMutability": "view",
      "type": "function"
    },
    {
      "inputs": [
        {
          "internalType": "address",
          "name": "_to",
          "type": "address"
        },
        {
          "internalType": "uint256",
          "name": "_amount",
          "type": "uint256"
        },
        {
          "internalType": "string",
          "name": "_message",
          "type": "string"
        },
        {
          "internalType": "uint256",
          "name": "_nonce",
          "type": "uint256"
        }
      ],
      "name": "getMessageHash",
      "outputs": [
        {
          "internalType": "bytes32",
          "name": "",
          "type": "bytes32"
        }
      ],
      "stateMutability": "pure",
      "type": "function"
    },
    {
      "inputs": [
        {
          "internalType": "uint256",
          "name": "placeid",
          "type": "uint256"
        }
      ],
      "name": "getReviewsInPlace",
      "outputs": [
        {
          "components": [
            {
              "internalType": "uint256",
              "name": "tripId",
              "type": "uint256"
            },
            {
              "internalType": "uint256",
              "name": "placeId",
              "type": "uint256"
            },
            {
              "internalType": "uint256",
              "name": "arrivalDate",
              "type": "uint256"
            },
            {
              "internalType": "string",
              "name": "review",
              "type": "string"
            },
            {
              "internalType": "uint256",
              "name": "rate",
              "type": "uint256"
            },
            {
              "internalType": "bool",
              "name": "isReview",
              "type": "bool"
            },
            {
              "internalType": "string",
              "name": "title",
              "type": "string"
            }
          ],
          "internalType": "struct TouristConTract.Journey[]",
          "name": "",
          "type": "tuple[]"
        }
      ],
      "stateMutability": "view",
      "type": "function"
    },
    {
      "inputs": [
        {
          "internalType": "address",
          "name": "userAddress",
          "type": "address"
        },
        {
          "internalType": "uint256",
          "name": "role",
          "type": "uint256"
        }
      ],
      "name": "grantRole",
      "outputs": [],
      "stateMutability": "nonpayable",
      "type": "function"
    },
    {
      "inputs": [
        {
          "internalType": "address",
          "name": "spender",
          "type": "address"
        },
        {
          "internalType": "uint256",
          "name": "addedValue",
          "type": "uint256"
        }
      ],
      "name": "increaseAllowance",
      "outputs": [
        {
          "internalType": "bool",
          "name": "",
          "type": "bool"
        }
      ],
      "stateMutability": "nonpayable",
      "type": "function"
    },
    {
      "inputs": [],
      "name": "name",
      "outputs": [
        {
          "internalType": "string",
          "name": "",
          "type": "string"
        }
      ],
      "stateMutability": "view",
      "type": "function"
    },
    {
      "inputs": [
        {
          "internalType": "uint256",
          "name": "",
          "type": "uint256"
        }
      ],
      "name": "noPeopleCheckIn",
      "outputs": [
        {
          "internalType": "uint256",
          "name": "",
          "type": "uint256"
        }
      ],
      "stateMutability": "view",
      "type": "function"
    },
    {
      "inputs": [
        {
          "internalType": "uint256",
          "name": "",
          "type": "uint256"
        }
      ],
      "name": "noPeopleRate",
      "outputs": [
        {
          "internalType": "uint256",
          "name": "",
          "type": "uint256"
        }
      ],
      "stateMutability": "view",
      "type": "function"
    },
    {
      "inputs": [
        {
          "internalType": "bytes32",
          "name": "_ethSignedMessageHash",
          "type": "bytes32"
        },
        {
          "internalType": "bytes",
          "name": "_signature",
          "type": "bytes"
        }
      ],
      "name": "recoverSigner",
      "outputs": [
        {
          "internalType": "address",
          "name": "",
          "type": "address"
        }
      ],
      "stateMutability": "pure",
      "type": "function"
    },
    {
      "inputs": [
        {
          "internalType": "string",
          "name": "name",
          "type": "string"
        },
        {
          "internalType": "uint256",
          "name": "age",
          "type": "uint256"
        }
      ],
      "name": "register",
      "outputs": [],
      "stateMutability": "nonpayable",
      "type": "function"
    },
    {
      "inputs": [
        {
          "internalType": "uint256",
          "name": "placeId",
          "type": "uint256"
        },
        {
          "internalType": "uint256",
          "name": "idTrip",
          "type": "uint256"
        },
        {
          "internalType": "string",
          "name": "comment",
          "type": "string"
        },
        {
          "internalType": "uint256",
          "name": "rate",
          "type": "uint256"
        },
        {
          "internalType": "string",
          "name": "title",
          "type": "string"
        }
      ],
      "name": "review",
      "outputs": [],
      "stateMutability": "nonpayable",
      "type": "function"
    },
    {
      "inputs": [
        {
          "internalType": "bytes",
          "name": "sig",
          "type": "bytes"
        }
      ],
      "name": "splitSignature",
      "outputs": [
        {
          "internalType": "bytes32",
          "name": "r",
          "type": "bytes32"
        },
        {
          "internalType": "bytes32",
          "name": "s",
          "type": "bytes32"
        },
        {
          "internalType": "uint8",
          "name": "v",
          "type": "uint8"
        }
      ],
      "stateMutability": "pure",
      "type": "function"
    },
    {
      "inputs": [],
      "name": "symbol",
      "outputs": [
        {
          "internalType": "string",
          "name": "",
          "type": "string"
        }
      ],
      "stateMutability": "view",
      "type": "function"
    },
    {
      "inputs": [],
      "name": "totalSupply",
      "outputs": [
        {
          "internalType": "uint256",
          "name": "",
          "type": "uint256"
        }
      ],
      "stateMutability": "view",
      "type": "function"
    },
    {
      "inputs": [
        {
          "internalType": "address",
          "name": "",
          "type": "address"
        },
        {
          "internalType": "uint256",
          "name": "",
          "type": "uint256"
        }
      ],
      "name": "touristAlbums",
      "outputs": [
        {
          "internalType": "uint256",
          "name": "id",
          "type": "uint256"
        },
        {
          "internalType": "string",
          "name": "name",
          "type": "string"
        }
      ],
      "stateMutability": "view",
      "type": "function"
    },
    {
      "inputs": [
        {
          "internalType": "address",
          "name": "",
          "type": "address"
        }
      ],
      "name": "touristIdentify",
      "outputs": [
        {
          "internalType": "string",
          "name": "name",
          "type": "string"
        },
        {
          "internalType": "uint256",
          "name": "age",
          "type": "uint256"
        },
        {
          "internalType": "bool",
          "name": "signup",
          "type": "bool"
        },
        {
          "internalType": "address",
          "name": "touristAddress",
          "type": "address"
        }
      ],
      "stateMutability": "view",
      "type": "function"
    },
    {
      "inputs": [
        {
          "internalType": "address",
          "name": "",
          "type": "address"
        },
        {
          "internalType": "uint256",
          "name": "",
          "type": "uint256"
        }
      ],
      "name": "touristJourneys",
      "outputs": [
        {
          "internalType": "uint256",
          "name": "tripId",
          "type": "uint256"
        },
        {
          "internalType": "uint256",
          "name": "placeId",
          "type": "uint256"
        },
        {
          "internalType": "uint256",
          "name": "arrivalDate",
          "type": "uint256"
        },
        {
          "internalType": "string",
          "name": "review",
          "type": "string"
        },
        {
          "internalType": "uint256",
          "name": "rate",
          "type": "uint256"
        },
        {
          "internalType": "bool",
          "name": "isReview",
          "type": "bool"
        },
        {
          "internalType": "string",
          "name": "title",
          "type": "string"
        }
      ],
      "stateMutability": "view",
      "type": "function"
    },
    {
      "inputs": [
        {
          "internalType": "address",
          "name": "to",
          "type": "address"
        },
        {
          "internalType": "uint256",
          "name": "amount",
          "type": "uint256"
        }
      ],
      "name": "transfer",
      "outputs": [
        {
          "internalType": "bool",
          "name": "",
          "type": "bool"
        }
      ],
      "stateMutability": "nonpayable",
      "type": "function"
    },
    {
      "inputs": [
        {
          "internalType": "address",
          "name": "from",
          "type": "address"
        },
        {
          "internalType": "address",
          "name": "to",
          "type": "address"
        },
        {
          "internalType": "uint256",
          "name": "amount",
          "type": "uint256"
        }
      ],
      "name": "transferFrom",
      "outputs": [
        {
          "internalType": "bool",
          "name": "",
          "type": "bool"
        }
      ],
      "stateMutability": "nonpayable",
      "type": "function"
    },
    {
      "inputs": [
        {
          "internalType": "uint256",
          "name": "id",
          "type": "uint256"
        }
      ],
      "name": "validAddIDTicket",
      "outputs": [
        {
          "internalType": "bool",
          "name": "",
          "type": "bool"
        }
      ],
      "stateMutability": "view",
      "type": "function"
    },
    {
      "inputs": [
        {
          "internalType": "address",
          "name": "_signer",
          "type": "address"
        },
        {
          "internalType": "address",
          "name": "_to",
          "type": "address"
        },
        {
          "internalType": "uint256",
          "name": "_amount",
          "type": "uint256"
        },
        {
          "internalType": "string",
          "name": "_message",
          "type": "string"
        },
        {
          "internalType": "uint256",
          "name": "_nonce",
          "type": "uint256"
        },
        {
          "internalType": "bytes",
          "name": "signature",
          "type": "bytes"
        }
      ],
      "name": "verify",
      "outputs": [
        {
          "internalType": "bool",
          "name": "",
          "type": "bool"
        }
      ],
      "stateMutability": "pure",
      "type": "function"
    }
  ],
  "bytecode": "0x60806040523480156200001157600080fd5b506040518060400160405280600781526020017f4443546f6b656e000000000000000000000000000000000000000000000000008152506040518060400160405280600281526020017f587500000000000000000000000000000000000000000000000000000000000081525081600390816200008f919062000c88565b508060049081620000a1919062000c88565b50505060096040518060400160405280600181526020016000151581525090806001815401808255809150506001900390600052602060002090600202016000909190919091506000820151816000015560208201518160010160006101000a81548160ff021916908315150217905550505060096040518060400160405280600281526020016000151581525090806001815401808255809150506001900390600052602060002090600202016000909190919091506000820151816000015560208201518160010160006101000a81548160ff021916908315150217905550505060096040518060400160405280600381526020016000151581525090806001815401808255809150506001900390600052602060002090600202016000909190919091506000820151816000015560208201518160010160006101000a81548160ff021916908315150217905550505060096040518060400160405280600481526020016000151581525090806001815401808255809150506001900390600052602060002090600202016000909190919091506000820151816000015560208201518160010160006101000a81548160ff021916908315150217905550505060096040518060400160405280600581526020016000151581525090806001815401808255809150506001900390600052602060002090600202016000909190919091506000820151816000015560208201518160010160006101000a81548160ff021916908315150217905550505060096040518060400160405280600681526020016000151581525090806001815401808255809150506001900390600052602060002090600202016000909190919091506000820151816000015560208201518160010160006101000a81548160ff021916908315150217905550505060096040518060400160405280600781526020016000151581525090806001815401808255809150506001900390600052602060002090600202016000909190919091506000820151816000015560208201518160010160006101000a81548160ff021916908315150217905550505060096040518060400160405280600881526020016000151581525090806001815401808255809150506001900390600052602060002090600202016000909190919091506000820151816000015560208201518160010160006101000a81548160ff021916908315150217905550505060096040518060400160405280600981526020016000151581525090806001815401808255809150506001900390600052602060002090600202016000909190919091506000820151816000015560208201518160010160006101000a81548160ff021916908315150217905550505060096040518060400160405280600a81526020016000151581525090806001815401808255809150506001900390600052602060002090600202016000909190919091506000820151816000015560208201518160010160006101000a81548160ff021916908315150217905550505060096040518060400160405280600b81526020016000151581525090806001815401808255809150506001900390600052602060002090600202016000909190919091506000820151816000015560208201518160010160006101000a81548160ff021916908315150217905550505060096040518060400160405280600c81526020016000151581525090806001815401808255809150506001900390600052602060002090600202016000909190919091506000820151816000015560208201518160010160006101000a81548160ff021916908315150217905550505060096040518060400160405280600d81526020016000151581525090806001815401808255809150506001900390600052602060002090600202016000909190919091506000820151816000015560208201518160010160006101000a81548160ff021916908315150217905550505060096040518060400160405280600e81526020016000151581525090806001815401808255809150506001900390600052602060002090600202016000909190919091506000820151816000015560208201518160010160006101000a81548160ff021916908315150217905550505060096040518060400160405280600f81526020016000151581525090806001815401808255809150506001900390600052602060002090600202016000909190919091506000820151816000015560208201518160010160006101000a81548160ff021916908315150217905550505060096040518060400160405280601081526020016000151581525090806001815401808255809150506001900390600052602060002090600202016000909190919091506000820151816000015560208201518160010160006101000a81548160ff021916908315150217905550505060096040518060400160405280601181526020016000151581525090806001815401808255809150506001900390600052602060002090600202016000909190919091506000820151816000015560208201518160010160006101000a81548160ff021916908315150217905550505060096040518060400160405280601281526020016000151581525090806001815401808255809150506001900390600052602060002090600202016000909190919091506000820151816000015560208201518160010160006101000a81548160ff021916908315150217905550505060096040518060400160405280601381526020016000151581525090806001815401808255809150506001900390600052602060002090600202016000909190919091506000820151816000015560208201518160010160006101000a81548160ff021916908315150217905550505060096040518060400160405280601481526020016000151581525090806001815401808255809150506001900390600052602060002090600202016000909190919091506000820151816000015560208201518160010160006101000a81548160ff02191690831515021790555050506006339080600181540180825580915050600190039060005260206000200160009091909190916101000a81548173ffffffffffffffffffffffffffffffffffffffff021916908373ffffffffffffffffffffffffffffffffffffffff16021790555033600560006101000a81548173ffffffffffffffffffffffffffffffffffffffff021916908373ffffffffffffffffffffffffffffffffffffffff16021790555062000d6f565b600081519050919050565b7f4e487b7100000000000000000000000000000000000000000000000000000000600052604160045260246000fd5b7f4e487b7100000000000000000000000000000000000000000000000000000000600052602260045260246000fd5b6000600282049050600182168062000a9057607f821691505b60208210810362000aa65762000aa562000a48565b5b50919050565b60008190508160005260206000209050919050565b60006020601f8301049050919050565b600082821b905092915050565b60006008830262000b107fffffffffffffffffffffffffffffffffffffffffffffffffffffffffffffffff8262000ad1565b62000b1c868362000ad1565b95508019841693508086168417925050509392505050565b6000819050919050565b6000819050919050565b600062000b6962000b6362000b5d8462000b34565b62000b3e565b62000b34565b9050919050565b6000819050919050565b62000b858362000b48565b62000b9d62000b948262000b70565b84845462000ade565b825550505050565b600090565b62000bb462000ba5565b62000bc181848462000b7a565b505050565b5b8181101562000be95762000bdd60008262000baa565b60018101905062000bc7565b5050565b601f82111562000c385762000c028162000aac565b62000c0d8462000ac1565b8101602085101562000c1d578190505b62000c3562000c2c8562000ac1565b83018262000bc6565b50505b505050565b600082821c905092915050565b600062000c5d6000198460080262000c3d565b1980831691505092915050565b600062000c78838362000c4a565b9150826002028217905092915050565b62000c938262000a0e565b67ffffffffffffffff81111562000caf5762000cae62000a19565b5b62000cbb825462000a77565b62000cc882828562000bed565b600060209050601f83116001811462000d00576000841562000ceb578287015190505b62000cf7858262000c6a565b86555062000d67565b601f19841662000d108662000aac565b60005b8281101562000d3a5784890151825560018201915060208501945060208101905062000d13565b8683101562000d5a578489015162000d56601f89168262000c4a565b8355505b6001600288020188555050505b505050505050565b615b2f8062000d7f6000396000f3fe608060405234801561001057600080fd5b50600436106102485760003560e01c806397aba7f91161013b578063b9c3b1b9116100b8578063f2fa49b41161007c578063f2fa49b414610803578063f516f88e14610839578063f8b2cb4f14610855578063fa54080114610885578063fc0587f8146108b557610248565b8063b9c3b1b91461073b578063dd62ed3e1461076b578063ddb0225e1461079b578063ea87152b146107b7578063ebfbdec9146107d357610248565b8063a7bb5803116100ff578063a7bb580314610671578063a9059cbb146106a3578063abe5026a146106d3578063b216241514610703578063b42913191461071f57610248565b806397aba7f9146105815780639e26c494146105b15780639f7bdca1146105e1578063a35f8a4014610611578063a457c2d71461064157610248565b80633c09e2fd116101c957806370a082311161018d57806370a08231146104b7578063732a7c25146104e7578063789024221461050357806393f405211461053357806395d89b411461056357610248565b80633c09e2fd146103eb5780635cab0d00146104075780636012f3be146104375780636253366514610468578063701a0e0d1461049b57610248565b806323b872dd1161021057806323b872dd14610307578063285f293b14610337578063313ce56714610367578063374936821461038557806339509351146103bb57610248565b80630614dace1461024d57806306fdde031461027d578063095ea7b31461029b5780630f13090e146102cb57806318160ddd146102e9575b600080fd5b61026760048036038101906102629190613d7c565b6108e5565b6040516102749190613fd3565b60405180910390f35b610285610c4d565b604051610292919061403f565b60405180910390f35b6102b560048036038101906102b091906140bf565b610cdf565b6040516102c2919061410e565b60405180910390f35b6102d3610d02565b6040516102e09190613fd3565b60405180910390f35b6102f1610f05565b6040516102fe9190614138565b60405180910390f35b610321600480360381019061031c9190614153565b610f0f565b60405161032e919061410e565b60405180910390f35b610351600480360381019061034c91906141a6565b610f3e565b60405161035e9190613fd3565b60405180910390f35b61036f611154565b60405161037c91906141ef565b60405180910390f35b61039f600480360381019061039a91906140bf565b61115d565b6040516103b2979695949392919061420a565b60405180910390f35b6103d560048036038101906103d091906140bf565b6112d9565b6040516103e2919061410e565b60405180910390f35b610405600480360381019061040091906140bf565b611310565b005b610421600480360381019061041c91906141a6565b61151f565b60405161042e9190614138565b60405180910390f35b610451600480360381019061044c91906140bf565b611537565b60405161045f929190614287565b60405180910390f35b610482600480360381019061047d91906142b7565b611600565b60405161049294939291906142f3565b60405180910390f35b6104b560048036038101906104b0919061433f565b6116e5565b005b6104d160048036038101906104cc91906142b7565b611c0b565b6040516104de9190614138565b60405180910390f35b61050160048036038101906104fc9190614447565b611c53565b005b61051d600480360381019061051891906141a6565b611d2f565b60405161052a9190614552565b60405180910390f35b61054d600480360381019061054891906141a6565b611d9a565b60405161055a919061410e565b60405180910390f35b61056b611e42565b604051610578919061403f565b60405180910390f35b61059b6004803603810190610596919061464b565b611ed4565b6040516105a891906146a7565b60405180910390f35b6105cb60048036038101906105c691906141a6565b611f43565b6040516105d8919061410e565b60405180910390f35b6105fb60048036038101906105f691906141a6565b611fac565b6040516106089190614138565b60405180910390f35b61062b600480360381019061062691906146c2565b611fc4565b6040516106389190614754565b60405180910390f35b61065b600480360381019061065691906140bf565b611ffd565b604051610668919061410e565b60405180910390f35b61068b6004803603810190610686919061476f565b612074565b60405161069a939291906147b8565b60405180910390f35b6106bd60048036038101906106b891906140bf565b6120dc565b6040516106ca919061410e565b60405180910390f35b6106ed60048036038101906106e891906147ef565b6120ff565b6040516106fa919061410e565b60405180910390f35b61071d600480360381019061071891906148b4565b612163565b005b610739600480360381019061073491906141a6565b612630565b005b61075560048036038101906107509190614993565b6127cf565b604051610762919061410e565b60405180910390f35b610785600480360381019061078091906149fa565b6128fb565b6040516107929190614138565b60405180910390f35b6107b560048036038101906107b091906147ef565b612982565b005b6107d160048036038101906107cc9190614a3a565b6129aa565b005b6107ed60048036038101906107e89190614a96565b612ca3565b6040516107fa9190614138565b60405180910390f35b61081d60048036038101906108189190614ad6565b612cd4565b604051610830979695949392919061420a565b60405180910390f35b610853600480360381019061084e9190614a96565b612e5d565b005b61086f600480360381019061086a91906142b7565b613192565b60405161087c9190614138565b60405180910390f35b61089f600480360381019061089a9190614b29565b613199565b6040516108ac9190614754565b60405180910390f35b6108cf60048036038101906108ca91906141a6565b6131c9565b6040516108dc9190613fd3565b60405180910390f35b60606000825167ffffffffffffffff81111561090457610903613c03565b5b60405190808252806020026020018201604052801561093d57816020015b61092a613b9a565b8152602001906001900390816109225790505b5090506000805b8451811015610c425760005b600d60003373ffffffffffffffffffffffffffffffffffffffff1673ffffffffffffffffffffffffffffffffffffffff16815260200190815260200160002080549050811015610c2e57600d60003373ffffffffffffffffffffffffffffffffffffffff1673ffffffffffffffffffffffffffffffffffffffff16815260200190815260200160002081815481106109eb576109ea614b56565b5b906000526020600020906007020160020154868381518110610a1057610a0f614b56565b5b602002602001015103610c1b57600d60003373ffffffffffffffffffffffffffffffffffffffff1673ffffffffffffffffffffffffffffffffffffffff1681526020019081526020016000208181548110610a6e57610a6d614b56565b5b90600052602060002090600702016040518060e0016040529081600082015481526020016001820154815260200160028201548152602001600382018054610ab590614bb4565b80601f0160208091040260200160405190810160405280929190818152602001828054610ae190614bb4565b8015610b2e5780601f10610b0357610100808354040283529160200191610b2e565b820191906000526020600020905b815481529060010190602001808311610b1157829003601f168201915b50505050508152602001600482015481526020016005820160009054906101000a900460ff16151515158152602001600682018054610b6c90614bb4565b80601f0160208091040260200160405190810160405280929190818152602001828054610b9890614bb4565b8015610be55780601f10610bba57610100808354040283529160200191610be5565b820191906000526020600020905b815481529060010190602001808311610bc857829003601f168201915b505050505081525050848481518110610c0157610c00614b56565b5b60200260200101819052508280610c1790614c14565b9350505b8080610c2690614c14565b915050610950565b508080610c3a90614c14565b915050610944565b508192505050919050565b606060038054610c5c90614bb4565b80601f0160208091040260200160405190810160405280929190818152602001828054610c8890614bb4565b8015610cd55780601f10610caa57610100808354040283529160200191610cd5565b820191906000526020600020905b815481529060010190602001808311610cb857829003601f168201915b5050505050905090565b600080610cea6133a2565b9050610cf78185856133aa565b600191505092915050565b6060600d60003373ffffffffffffffffffffffffffffffffffffffff1673ffffffffffffffffffffffffffffffffffffffff168152602001908152602001600020805480602002602001604051908101604052809291908181526020016000905b82821015610efc57838290600052602060002090600702016040518060e0016040529081600082015481526020016001820154815260200160028201548152602001600382018054610db490614bb4565b80601f0160208091040260200160405190810160405280929190818152602001828054610de090614bb4565b8015610e2d5780601f10610e0257610100808354040283529160200191610e2d565b820191906000526020600020905b815481529060010190602001808311610e1057829003601f168201915b50505050508152602001600482015481526020016005820160009054906101000a900460ff16151515158152602001600682018054610e6b90614bb4565b80601f0160208091040260200160405190810160405280929190818152602001828054610e9790614bb4565b8015610ee45780601f10610eb957610100808354040283529160200191610ee4565b820191906000526020600020905b815481529060010190602001808311610ec757829003601f168201915b50505050508152505081526020019060010190610d63565b50505050905090565b6000600254905090565b600080610f1a6133a2565b9050610f27858285613573565b610f328585856135ff565b60019150509392505050565b6060601060003373ffffffffffffffffffffffffffffffffffffffff1673ffffffffffffffffffffffffffffffffffffffff1681526020019081526020016000206000838152602001908152602001600020805480602002602001604051908101604052809291908181526020016000905b8282101561114957838290600052602060002090600702016040518060e001604052908160008201548152602001600182015481526020016002820154815260200160038201805461100190614bb4565b80601f016020809104026020016040519081016040528092919081815260200182805461102d90614bb4565b801561107a5780601f1061104f5761010080835404028352916020019161107a565b820191906000526020600020905b81548152906001019060200180831161105d57829003601f168201915b50505050508152602001600482015481526020016005820160009054906101000a900460ff161515151581526020016006820180546110b890614bb4565b80601f01602080910402602001604051908101604052809291908181526020018280546110e490614bb4565b80156111315780601f1061110657610100808354040283529160200191611131565b820191906000526020600020905b81548152906001019060200180831161111457829003601f168201915b50505050508152505081526020019060010190610fb0565b505050509050919050565b60006012905090565b600d602052816000526040600020818154811061117957600080fd5b9060005260206000209060070201600091509150508060000154908060010154908060020154908060030180546111af90614bb4565b80601f01602080910402602001604051908101604052809291908181526020018280546111db90614bb4565b80156112285780601f106111fd57610100808354040283529160200191611228565b820191906000526020600020905b81548152906001019060200180831161120b57829003601f168201915b5050505050908060040154908060050160009054906101000a900460ff169080600601805461125690614bb4565b80601f016020809104026020016040519081016040528092919081815260200182805461128290614bb4565b80156112cf5780601f106112a4576101008083540402835291602001916112cf565b820191906000526020600020905b8154815290600101906020018083116112b257829003601f168201915b5050505050905087565b6000806112e46133a2565b90506113058185856112f685896128fb565b6113009190614c5c565b6133aa565b600191505092915050565b6000805b6006805490508110156113ac576006818154811061133557611334614b56565b5b9060005260206000200160009054906101000a900473ffffffffffffffffffffffffffffffffffffffff1673ffffffffffffffffffffffffffffffffffffffff163373ffffffffffffffffffffffffffffffffffffffff160361139b57600191506113ac565b806113a590614c14565b9050611314565b5060011515811515146113f4576040517f08c379a00000000000000000000000000000000000000000000000000000000081526004016113eb90614d02565b60405180910390fd5b60018214806114035750600282145b611442576040517f08c379a000000000000000000000000000000000000000000000000000000000815260040161143990614d94565b60405180910390fd5b600182036114ae576006839080600181540180825580915050600190039060005260206000200160009091909190916101000a81548173ffffffffffffffffffffffffffffffffffffffff021916908373ffffffffffffffffffffffffffffffffffffffff1602179055505b6002820361151a576007839080600181540180825580915050600190039060005260206000200160009091909190916101000a81548173ffffffffffffffffffffffffffffffffffffffff021916908373ffffffffffffffffffffffffffffffffffffffff1602179055505b505050565b60116020528060005260406000206000915090505481565b600f602052816000526040600020818154811061155357600080fd5b90600052602060002090600202016000915091505080600001549080600101805461157d90614bb4565b80601f01602080910402602001604051908101604052809291908181526020018280546115a990614bb4565b80156115f65780601f106115cb576101008083540402835291602001916115f6565b820191906000526020600020905b8154815290600101906020018083116115d957829003601f168201915b5050505050905082565b600c60205280600052604060002060009150905080600001805461162390614bb4565b80601f016020809104026020016040519081016040528092919081815260200182805461164f90614bb4565b801561169c5780601f106116715761010080835404028352916020019161169c565b820191906000526020600020905b81548152906001019060200180831161167f57829003601f168201915b5050505050908060010154908060020160009054906101000a900460ff16908060020160019054906101000a900473ffffffffffffffffffffffffffffffffffffffff16905084565b60006116ef613b9a565b60005b600d60003373ffffffffffffffffffffffffffffffffffffffff1673ffffffffffffffffffffffffffffffffffffffff16815260200190815260200160002080549050811015611b8257600d60003373ffffffffffffffffffffffffffffffffffffffff1673ffffffffffffffffffffffffffffffffffffffff168152602001908152602001600020818154811061178d5761178c614b56565b5b9060005260206000209060070201600101548614801561180e575083600d60003373ffffffffffffffffffffffffffffffffffffffff1673ffffffffffffffffffffffffffffffffffffffff16815260200190815260200160002082815481106117fa576117f9614b56565b5b906000526020600020906007020160020154145b15611b6f576040518060e00160405280600d60003373ffffffffffffffffffffffffffffffffffffffff1673ffffffffffffffffffffffffffffffffffffffff168152602001908152602001600020838154811061186f5761186e614b56565b5b9060005260206000209060070201600001548152602001878152602001858152602001600d60003373ffffffffffffffffffffffffffffffffffffffff1673ffffffffffffffffffffffffffffffffffffffff16815260200190815260200160002083815481106118e3576118e2614b56565b5b906000526020600020906007020160030180546118ff90614bb4565b80601f016020809104026020016040519081016040528092919081815260200182805461192b90614bb4565b80156119785780601f1061194d57610100808354040283529160200191611978565b820191906000526020600020905b81548152906001019060200180831161195b57829003601f168201915b50505050508152602001600d60003373ffffffffffffffffffffffffffffffffffffffff1673ffffffffffffffffffffffffffffffffffffffff16815260200190815260200160002083815481106119d3576119d2614b56565b5b9060005260206000209060070201600401548152602001600d60003373ffffffffffffffffffffffffffffffffffffffff1673ffffffffffffffffffffffffffffffffffffffff1681526020019081526020016000208381548110611a3b57611a3a614b56565b5b906000526020600020906007020160050160009054906101000a900460ff1615158152602001604051806020016040528060008152508152509150601060003373ffffffffffffffffffffffffffffffffffffffff1673ffffffffffffffffffffffffffffffffffffffff16815260200190815260200160002060008681526020019081526020016000208290806001815401808255809150506001900390600052602060002090600702016000909190919091506000820151816000015560208201518160010155604082015181600201556060820151816003019081611b239190614f60565b506080820151816004015560a08201518160050160006101000a81548160ff02191690831515021790555060c0820151816006019081611b639190614f60565b50505060019250611b82565b8080611b7a90614c14565b9150506116f2565b5081611bc3576040517f08c379a0000000000000000000000000000000000000000000000000000000008152600401611bba9061507e565b60405180910390fd5b7f4c5175a13509e65592a5ddf9fa5c69a99ad3bd3ade62b85c4027673e6f64ec82611bed85613875565b82604051611bfc929190615141565b60405180910390a15050505050565b60008060008373ffffffffffffffffffffffffffffffffffffffff1673ffffffffffffffffffffffffffffffffffffffff168152602001908152602001600020549050919050565b600f60003373ffffffffffffffffffffffffffffffffffffffff1673ffffffffffffffffffffffffffffffffffffffff1681526020019081526020016000206040518060400160405280848152602001838152509080600181540180825580915050600190039060005260206000209060020201600090919091909150600082015181600001556020820151816001019081611cef9190614f60565b5050507ff538047aa51f8b732c1850d69564ec0d033aca661921dba9871bf8feff7a435f8282604051611d23929190614287565b60405180910390a15050565b606060136000838152602001908152602001600020805480602002602001604051908101604052809291908181526020018280548015611d8e57602002820191906000526020600020905b815481526020019060010190808311611d7a575b50505050509050919050565b600080600090505b600980549050811015611e375760098181548110611dc357611dc2614b56565b5b9060005260206000209060020201600001548303611e24576001151560098281548110611df357611df2614b56565b5b906000526020600020906002020160010160009054906101000a900460ff16151503611e23576000915050611e3d565b5b8080611e2f90614c14565b915050611da2565b50600190505b919050565b606060048054611e5190614bb4565b80601f0160208091040260200160405190810160405280929190818152602001828054611e7d90614bb4565b8015611eca5780601f10611e9f57610100808354040283529160200191611eca565b820191906000526020600020905b815481529060010190602001808311611ead57829003601f168201915b5050505050905090565b600080600080611ee385612074565b92509250925060018682858560405160008152602001604052604051611f0c9493929190615178565b6020604051602081039080840390855afa158015611f2e573d6000803e3d6000fd5b50505060206040510351935050505092915050565b600080600090505b600980549050811015611fa15760098181548110611f6c57611f6b614b56565b5b9060005260206000209060020201600001548303611f8e576000915050611fa7565b8080611f9990614c14565b915050611f4b565b50600190505b919050565b60126020528060005260406000206000915090505481565b600084848484604051602001611fdd9493929190615262565b604051602081830303815290604052805190602001209050949350505050565b6000806120086133a2565b9050600061201682866128fb565b90508381101561205b576040517f08c379a00000000000000000000000000000000000000000000000000000000081526004016120529061531e565b60405180910390fd5b61206882868684036133aa565b60019250505092915050565b600080600060418451146120bd576040517f08c379a00000000000000000000000000000000000000000000000000000000081526004016120b49061538a565b60405180910390fd5b6020840151925060408401519150606084015160001a90509193909250565b6000806120e76133a2565b90506120f48185856135ff565b600191505092915050565b60008061210e87878787611fc4565b9050600061211b82613199565b90508873ffffffffffffffffffffffffffffffffffffffff1661213e8286611ed4565b73ffffffffffffffffffffffffffffffffffffffff1614925050509695505050505050565b60005b600d60003373ffffffffffffffffffffffffffffffffffffffff1673ffffffffffffffffffffffffffffffffffffffff168152602001908152602001600020805490508110156125c557600d60003373ffffffffffffffffffffffffffffffffffffffff1673ffffffffffffffffffffffffffffffffffffffff168152602001908152602001600020818154811061220157612200614b56565b5b90600052602060002090600702016000015485036125b25760001515600d60003373ffffffffffffffffffffffffffffffffffffffff1673ffffffffffffffffffffffffffffffffffffffff168152602001908152602001600020828154811061226e5761226d614b56565b5b906000526020600020906007020160050160009054906101000a900460ff161515146122cf576040517f08c379a00000000000000000000000000000000000000000000000000000000081526004016122c6906153f6565b60405180910390fd5b83600d60003373ffffffffffffffffffffffffffffffffffffffff1673ffffffffffffffffffffffffffffffffffffffff168152602001908152602001600020828154811061232157612320614b56565b5b9060005260206000209060070201600301908161233e9190614f60565b5082600d60003373ffffffffffffffffffffffffffffffffffffffff1673ffffffffffffffffffffffffffffffffffffffff168152602001908152602001600020828154811061239157612390614b56565b5b9060005260206000209060070201600401819055506001600d60003373ffffffffffffffffffffffffffffffffffffffff1673ffffffffffffffffffffffffffffffffffffffff16815260200190815260200160002082815481106123f9576123f8614b56565b5b906000526020600020906007020160050160006101000a81548160ff02191690831515021790555081600d60003373ffffffffffffffffffffffffffffffffffffffff1673ffffffffffffffffffffffffffffffffffffffff168152602001908152602001600020828154811061247357612472614b56565b5b906000526020600020906007020160060190816124909190614f60565b5060146000878152602001908152602001600020600d60003373ffffffffffffffffffffffffffffffffffffffff1673ffffffffffffffffffffffffffffffffffffffff16815260200190815260200160002082815481106124f5576124f4614b56565b5b906000526020600020906007020190806001815401808255809150506001900390600052602060002090600702016000909190919091506000820154816000015560018201548160010155600282015481600201556003820181600301908161255e919061542c565b50600482015481600401556005820160009054906101000a900460ff168160050160006101000a81548160ff021916908315150217905550600682018160060190816125aa919061542c565b5050506125c5565b80806125bd90614c14565b915050612166565b506013600086815260200190815260200160002082908060018154018082558091505060019003906000526020600020016000909190919091505560126000868152602001908152602001600020600081548092919061262490614c14565b91905055505050505050565b6000805b6006805490508110156126cc576006818154811061265557612654614b56565b5b9060005260206000200160009054906101000a900473ffffffffffffffffffffffffffffffffffffffff1673ffffffffffffffffffffffffffffffffffffffff163373ffffffffffffffffffffffffffffffffffffffff16036126bb57600191506126cc565b806126c590614c14565b9050612634565b506001151581151514612714576040517f08c379a000000000000000000000000000000000000000000000000000000000815260040161270b90614d02565b60405180910390fd5b61271d82611f43565b61275c576040517f08c379a000000000000000000000000000000000000000000000000000000000815260040161275390615560565b60405180910390fd5b600960405180604001604052808481526020016000151581525090806001815401808255809150506001900390600052602060002090600202016000909190919091506000820151816000015560208201518160010160006101000a81548160ff02191690831515021790555050505050565b6000806040518060400160405280601c81526020017f19457468657265756d205369676e6564204d6573736167653a0a33320000000081525090506000818760405160200161281f9291906155e8565b60405160208183030381529060405280519060200120905060006001828888886040516000815260200160405260405161285c9493929190615178565b6020604051602081039080840390855afa15801561287e573d6000803e3d6000fd5b505050602060405103519050600560009054906101000a900473ffffffffffffffffffffffffffffffffffffffff1673ffffffffffffffffffffffffffffffffffffffff168173ffffffffffffffffffffffffffffffffffffffff16036128eb57600193505050506128f3565b600093505050505b949350505050565b6000600160008473ffffffffffffffffffffffffffffffffffffffff1673ffffffffffffffffffffffffffffffffffffffff16815260200190815260200160002060008373ffffffffffffffffffffffffffffffffffffffff1673ffffffffffffffffffffffffffffffffffffffff16815260200190815260200160002054905092915050565b6129908686868686866120ff565b156129a2576129a1856103e8613a3a565b5b505050505050565b600060405180608001604052808481526020018381526020016001151581526020013373ffffffffffffffffffffffffffffffffffffffff16815250905082600c60003373ffffffffffffffffffffffffffffffffffffffff1673ffffffffffffffffffffffffffffffffffffffff1681526020019081526020016000206000019081612a379190614f60565b5081600c60003373ffffffffffffffffffffffffffffffffffffffff1673ffffffffffffffffffffffffffffffffffffffff1681526020019081526020016000206001018190555033600c60003373ffffffffffffffffffffffffffffffffffffffff1673ffffffffffffffffffffffffffffffffffffffff16815260200190815260200160002060020160016101000a81548173ffffffffffffffffffffffffffffffffffffffff021916908373ffffffffffffffffffffffffffffffffffffffff160217905550600c60003373ffffffffffffffffffffffffffffffffffffffff1673ffffffffffffffffffffffffffffffffffffffff16815260200190815260200160002060020160009054906101000a900460ff16612c6557600a8190806001815401808255809150506001900390600052602060002090600302016000909190919091506000820151816000019081612b959190614f60565b506020820151816001015560408201518160020160006101000a81548160ff02191690831515021790555060608201518160020160016101000a81548173ffffffffffffffffffffffffffffffffffffffff021916908373ffffffffffffffffffffffffffffffffffffffff16021790555050506001600c60003373ffffffffffffffffffffffffffffffffffffffff1673ffffffffffffffffffffffffffffffffffffffff16815260200190815260200160002060020160006101000a81548160ff0219169083151502179055505b7ff9aabaa28b0c7b9b6a80283c8b8fd6983df8e2c5703e65ee433dbbd7373062688383604051612c96929190615610565b60405180910390a1505050565b60136020528160005260406000208181548110612cbf57600080fd5b90600052602060002001600091509150505481565b60106020528260005260406000206020528160005260406000208181548110612cfc57600080fd5b90600052602060002090600702016000925092505050806000015490806001015490806002015490806003018054612d3390614bb4565b80601f0160208091040260200160405190810160405280929190818152602001828054612d5f90614bb4565b8015612dac5780601f10612d8157610100808354040283529160200191612dac565b820191906000526020600020905b815481529060010190602001808311612d8f57829003601f168201915b5050505050908060040154908060050160009054906101000a900460ff1690806006018054612dda90614bb4565b80601f0160208091040260200160405190810160405280929190818152602001828054612e0690614bb4565b8015612e535780601f10612e2857610100808354040283529160200191612e53565b820191906000526020600020905b815481529060010190602001808311612e3657829003601f168201915b5050505050905087565b6000805b600980549050811015612f635760098181548110612e8257612e81614b56565b5b9060005260206000209060020201600001548403612f505760098181548110612eae57612ead614b56565b5b906000526020600020906002020160010160009054906101000a900460ff1615612f0d576040517f08c379a0000000000000000000000000000000000000000000000000000000008152600401612f049061568c565b60405180910390fd5b60019150600160098281548110612f2757612f26614b56565b5b906000526020600020906002020160010160006101000a81548160ff0219169083151502179055505b8080612f5b90614c14565b915050612e61565b50601160008381526020019081526020016000206000815480929190612f8890614c14565b9190505550600b60003373ffffffffffffffffffffffffffffffffffffffff1673ffffffffffffffffffffffffffffffffffffffff1681526020019081526020016000206000815480929190612fdd90614c14565b9190505550600d60003373ffffffffffffffffffffffffffffffffffffffff1673ffffffffffffffffffffffffffffffffffffffff1681526020019081526020016000206040518060e00160405280600b60003373ffffffffffffffffffffffffffffffffffffffff1673ffffffffffffffffffffffffffffffffffffffff1681526020019081526020016000205481526020018481526020014281526020016040518060200160405280600081525081526020016000815260200160001515815260200160405180602001604052806000815250815250908060018154018082558091505060019003906000526020600020906007020160009091909190915060008201518160000155602082015181600101556040820151816002015560608201518160030190816131119190614f60565b506080820151816004015560a08201518160050160006101000a81548160ff02191690831515021790555060c08201518160060190816131519190614f60565b5050507ff165997b5f1d2b5ae2f43279fc978111209309fd44e04343b1ffd71915e62ab583836040516131859291906156ac565b60405180910390a1505050565b6000919050565b6000816040516020016131ac9190615721565b604051602081830303815290604052805190602001209050919050565b606060146000838152602001908152602001600020805480602002602001604051908101604052809291908181526020016000905b8282101561339757838290600052602060002090600702016040518060e001604052908160008201548152602001600182015481526020016002820154815260200160038201805461324f90614bb4565b80601f016020809104026020016040519081016040528092919081815260200182805461327b90614bb4565b80156132c85780601f1061329d576101008083540402835291602001916132c8565b820191906000526020600020905b8154815290600101906020018083116132ab57829003601f168201915b50505050508152602001600482015481526020016005820160009054906101000a900460ff1615151515815260200160068201805461330690614bb4565b80601f016020809104026020016040519081016040528092919081815260200182805461333290614bb4565b801561337f5780601f106133545761010080835404028352916020019161337f565b820191906000526020600020905b81548152906001019060200180831161336257829003601f168201915b505050505081525050815260200190600101906131fe565b505050509050919050565b600033905090565b600073ffffffffffffffffffffffffffffffffffffffff168373ffffffffffffffffffffffffffffffffffffffff1603613419576040517f08c379a0000000000000000000000000000000000000000000000000000000008152600401613410906157b9565b60405180910390fd5b600073ffffffffffffffffffffffffffffffffffffffff168273ffffffffffffffffffffffffffffffffffffffff1603613488576040517f08c379a000000000000000000000000000000000000000000000000000000000815260040161347f9061584b565b60405180910390fd5b80600160008573ffffffffffffffffffffffffffffffffffffffff1673ffffffffffffffffffffffffffffffffffffffff16815260200190815260200160002060008473ffffffffffffffffffffffffffffffffffffffff1673ffffffffffffffffffffffffffffffffffffffff168152602001908152602001600020819055508173ffffffffffffffffffffffffffffffffffffffff168373ffffffffffffffffffffffffffffffffffffffff167f8c5be1e5ebec7d5bd14f71427d1e84f3dd0314c0f7b2291e5b200ac8c7c3b925836040516135669190614138565b60405180910390a3505050565b600061357f84846128fb565b90507fffffffffffffffffffffffffffffffffffffffffffffffffffffffffffffffff81146135f957818110156135eb576040517f08c379a00000000000000000000000000000000000000000000000000000000081526004016135e2906158b7565b60405180910390fd5b6135f884848484036133aa565b5b50505050565b600073ffffffffffffffffffffffffffffffffffffffff168373ffffffffffffffffffffffffffffffffffffffff160361366e576040517f08c379a000000000000000000000000000000000000000000000000000000000815260040161366590615949565b60405180910390fd5b600073ffffffffffffffffffffffffffffffffffffffff168273ffffffffffffffffffffffffffffffffffffffff16036136dd576040517f08c379a00000000000000000000000000000000000000000000000000000000081526004016136d4906159db565b60405180910390fd5b6136e8838383613b90565b60008060008573ffffffffffffffffffffffffffffffffffffffff1673ffffffffffffffffffffffffffffffffffffffff1681526020019081526020016000205490508181101561376e576040517f08c379a000000000000000000000000000000000000000000000000000000000815260040161376590615a6d565b60405180910390fd5b8181036000808673ffffffffffffffffffffffffffffffffffffffff1673ffffffffffffffffffffffffffffffffffffffff16815260200190815260200160002081905550816000808573ffffffffffffffffffffffffffffffffffffffff1673ffffffffffffffffffffffffffffffffffffffff168152602001908152602001600020600082825401925050819055508273ffffffffffffffffffffffffffffffffffffffff168473ffffffffffffffffffffffffffffffffffffffff167fddf252ad1be2c89b69c2b068fc378daa952ba7f163c4a11628f55a4df523b3ef8460405161385c9190614138565b60405180910390a361386f848484613b95565b50505050565b606060005b600f60003373ffffffffffffffffffffffffffffffffffffffff1673ffffffffffffffffffffffffffffffffffffffff16815260200190815260200160002080549050811015613a3357600f60003373ffffffffffffffffffffffffffffffffffffffff1673ffffffffffffffffffffffffffffffffffffffff168152602001908152602001600020818154811061391557613914614b56565b5b9060005260206000209060020201600001548303613a2057600f60003373ffffffffffffffffffffffffffffffffffffffff1673ffffffffffffffffffffffffffffffffffffffff168152602001908152602001600020818154811061397e5761397d614b56565b5b9060005260206000209060020201600101805461399a90614bb4565b80601f01602080910402602001604051908101604052809291908181526020018280546139c690614bb4565b8015613a135780601f106139e857610100808354040283529160200191613a13565b820191906000526020600020905b8154815290600101906020018083116139f657829003601f168201915b5050505050915050613a35565b8080613a2b90614c14565b91505061387a565b505b919050565b600073ffffffffffffffffffffffffffffffffffffffff168273ffffffffffffffffffffffffffffffffffffffff1603613aa9576040517f08c379a0000000000000000000000000000000000000000000000000000000008152600401613aa090615ad9565b60405180910390fd5b613ab560008383613b90565b8060026000828254613ac79190614c5c565b92505081905550806000808473ffffffffffffffffffffffffffffffffffffffff1673ffffffffffffffffffffffffffffffffffffffff168152602001908152602001600020600082825401925050819055508173ffffffffffffffffffffffffffffffffffffffff16600073ffffffffffffffffffffffffffffffffffffffff167fddf252ad1be2c89b69c2b068fc378daa952ba7f163c4a11628f55a4df523b3ef83604051613b789190614138565b60405180910390a3613b8c60008383613b95565b5050565b505050565b505050565b6040518060e001604052806000815260200160008152602001600081526020016060815260200160008152602001600015158152602001606081525090565b6000604051905090565b600080fd5b600080fd5b600080fd5b6000601f19601f8301169050919050565b7f4e487b7100000000000000000000000000000000000000000000000000000000600052604160045260246000fd5b613c3b82613bf2565b810181811067ffffffffffffffff82111715613c5a57613c59613c03565b5b80604052505050565b6000613c6d613bd9565b9050613c798282613c32565b919050565b600067ffffffffffffffff821115613c9957613c98613c03565b5b602082029050602081019050919050565b600080fd5b6000819050919050565b613cc281613caf565b8114613ccd57600080fd5b50565b600081359050613cdf81613cb9565b92915050565b6000613cf8613cf384613c7e565b613c63565b90508083825260208201905060208402830185811115613d1b57613d1a613caa565b5b835b81811015613d445780613d308882613cd0565b845260208401935050602081019050613d1d565b5050509392505050565b600082601f830112613d6357613d62613bed565b5b8135613d73848260208601613ce5565b91505092915050565b600060208284031215613d9257613d91613be3565b5b600082013567ffffffffffffffff811115613db057613daf613be8565b5b613dbc84828501613d4e565b91505092915050565b600081519050919050565b600082825260208201905092915050565b6000819050602082019050919050565b613dfa81613caf565b82525050565b600081519050919050565b600082825260208201905092915050565b60005b83811015613e3a578082015181840152602081019050613e1f565b60008484015250505050565b6000613e5182613e00565b613e5b8185613e0b565b9350613e6b818560208601613e1c565b613e7481613bf2565b840191505092915050565b60008115159050919050565b613e9481613e7f565b82525050565b600060e083016000830151613eb26000860182613df1565b506020830151613ec56020860182613df1565b506040830151613ed86040860182613df1565b5060608301518482036060860152613ef08282613e46565b9150506080830151613f056080860182613df1565b5060a0830151613f1860a0860182613e8b565b5060c083015184820360c0860152613f308282613e46565b9150508091505092915050565b6000613f498383613e9a565b905092915050565b6000602082019050919050565b6000613f6982613dc5565b613f738185613dd0565b935083602082028501613f8585613de1565b8060005b85811015613fc15784840389528151613fa28582613f3d565b9450613fad83613f51565b925060208a01995050600181019050613f89565b50829750879550505050505092915050565b60006020820190508181036000830152613fed8184613f5e565b905092915050565b600082825260208201905092915050565b600061401182613e00565b61401b8185613ff5565b935061402b818560208601613e1c565b61403481613bf2565b840191505092915050565b600060208201905081810360008301526140598184614006565b905092915050565b600073ffffffffffffffffffffffffffffffffffffffff82169050919050565b600061408c82614061565b9050919050565b61409c81614081565b81146140a757600080fd5b50565b6000813590506140b981614093565b92915050565b600080604083850312156140d6576140d5613be3565b5b60006140e4858286016140aa565b92505060206140f585828601613cd0565b9150509250929050565b61410881613e7f565b82525050565b600060208201905061412360008301846140ff565b92915050565b61413281613caf565b82525050565b600060208201905061414d6000830184614129565b92915050565b60008060006060848603121561416c5761416b613be3565b5b600061417a868287016140aa565b935050602061418b868287016140aa565b925050604061419c86828701613cd0565b9150509250925092565b6000602082840312156141bc576141bb613be3565b5b60006141ca84828501613cd0565b91505092915050565b600060ff82169050919050565b6141e9816141d3565b82525050565b600060208201905061420460008301846141e0565b92915050565b600060e08201905061421f600083018a614129565b61422c6020830189614129565b6142396040830188614129565b818103606083015261424b8187614006565b905061425a6080830186614129565b61426760a08301856140ff565b81810360c08301526142798184614006565b905098975050505050505050565b600060408201905061429c6000830185614129565b81810360208301526142ae8184614006565b90509392505050565b6000602082840312156142cd576142cc613be3565b5b60006142db848285016140aa565b91505092915050565b6142ed81614081565b82525050565b6000608082019050818103600083015261430d8187614006565b905061431c6020830186614129565b61432960408301856140ff565b61433660608301846142e4565b95945050505050565b60008060006060848603121561435857614357613be3565b5b600061436686828701613cd0565b935050602061437786828701613cd0565b925050604061438886828701613cd0565b9150509250925092565b600080fd5b600067ffffffffffffffff8211156143b2576143b1613c03565b5b6143bb82613bf2565b9050602081019050919050565b82818337600083830152505050565b60006143ea6143e584614397565b613c63565b90508281526020810184848401111561440657614405614392565b5b6144118482856143c8565b509392505050565b600082601f83011261442e5761442d613bed565b5b813561443e8482602086016143d7565b91505092915050565b6000806040838503121561445e5761445d613be3565b5b600061446c85828601613cd0565b925050602083013567ffffffffffffffff81111561448d5761448c613be8565b5b61449985828601614419565b9150509250929050565b600081519050919050565b600082825260208201905092915050565b6000819050602082019050919050565b60006144db8383613df1565b60208301905092915050565b6000602082019050919050565b60006144ff826144a3565b61450981856144ae565b9350614514836144bf565b8060005b8381101561454557815161452c88826144cf565b9750614537836144e7565b925050600181019050614518565b5085935050505092915050565b6000602082019050818103600083015261456c81846144f4565b905092915050565b6000819050919050565b61458781614574565b811461459257600080fd5b50565b6000813590506145a48161457e565b92915050565b600067ffffffffffffffff8211156145c5576145c4613c03565b5b6145ce82613bf2565b9050602081019050919050565b60006145ee6145e9846145aa565b613c63565b90508281526020810184848401111561460a57614609614392565b5b6146158482856143c8565b509392505050565b600082601f83011261463257614631613bed565b5b81356146428482602086016145db565b91505092915050565b6000806040838503121561466257614661613be3565b5b600061467085828601614595565b925050602083013567ffffffffffffffff81111561469157614690613be8565b5b61469d8582860161461d565b9150509250929050565b60006020820190506146bc60008301846142e4565b92915050565b600080600080608085870312156146dc576146db613be3565b5b60006146ea878288016140aa565b94505060206146fb87828801613cd0565b935050604085013567ffffffffffffffff81111561471c5761471b613be8565b5b61472887828801614419565b925050606061473987828801613cd0565b91505092959194509250565b61474e81614574565b82525050565b60006020820190506147696000830184614745565b92915050565b60006020828403121561478557614784613be3565b5b600082013567ffffffffffffffff8111156147a3576147a2613be8565b5b6147af8482850161461d565b91505092915050565b60006060820190506147cd6000830186614745565b6147da6020830185614745565b6147e760408301846141e0565b949350505050565b60008060008060008060c0878903121561480c5761480b613be3565b5b600061481a89828a016140aa565b965050602061482b89828a016140aa565b955050604061483c89828a01613cd0565b945050606087013567ffffffffffffffff81111561485d5761485c613be8565b5b61486989828a01614419565b935050608061487a89828a01613cd0565b92505060a087013567ffffffffffffffff81111561489b5761489a613be8565b5b6148a789828a0161461d565b9150509295509295509295565b600080600080600060a086880312156148d0576148cf613be3565b5b60006148de88828901613cd0565b95505060206148ef88828901613cd0565b945050604086013567ffffffffffffffff8111156149105761490f613be8565b5b61491c88828901614419565b935050606061492d88828901613cd0565b925050608086013567ffffffffffffffff81111561494e5761494d613be8565b5b61495a88828901614419565b9150509295509295909350565b614970816141d3565b811461497b57600080fd5b50565b60008135905061498d81614967565b92915050565b600080600080608085870312156149ad576149ac613be3565b5b60006149bb87828801614595565b94505060206149cc8782880161497e565b93505060406149dd87828801614595565b92505060606149ee87828801614595565b91505092959194509250565b60008060408385031215614a1157614a10613be3565b5b6000614a1f858286016140aa565b9250506020614a30858286016140aa565b9150509250929050565b60008060408385031215614a5157614a50613be3565b5b600083013567ffffffffffffffff811115614a6f57614a6e613be8565b5b614a7b85828601614419565b9250506020614a8c85828601613cd0565b9150509250929050565b60008060408385031215614aad57614aac613be3565b5b6000614abb85828601613cd0565b9250506020614acc85828601613cd0565b9150509250929050565b600080600060608486031215614aef57614aee613be3565b5b6000614afd868287016140aa565b9350506020614b0e86828701613cd0565b9250506040614b1f86828701613cd0565b9150509250925092565b600060208284031215614b3f57614b3e613be3565b5b6000614b4d84828501614595565b91505092915050565b7f4e487b7100000000000000000000000000000000000000000000000000000000600052603260045260246000fd5b7f4e487b7100000000000000000000000000000000000000000000000000000000600052602260045260246000fd5b60006002820490506001821680614bcc57607f821691505b602082108103614bdf57614bde614b85565b5b50919050565b7f4e487b7100000000000000000000000000000000000000000000000000000000600052601160045260246000fd5b6000614c1f82613caf565b91507fffffffffffffffffffffffffffffffffffffffffffffffffffffffffffffffff8203614c5157614c50614be5565b5b600182019050919050565b6000614c6782613caf565b9150614c7283613caf565b9250828201905080821115614c8a57614c89614be5565b5b92915050565b7f4f6e6c792061646d696e2063616e2063616c6c20746869732066756e6374696f60008201527f6e00000000000000000000000000000000000000000000000000000000000000602082015250565b6000614cec602183613ff5565b9150614cf782614c90565b604082019050919050565b60006020820190508181036000830152614d1b81614cdf565b9050919050565b7f496e76616c696420726f6c652c206f6e6c792061646d696e206f72207365727660008201527f696365207375697461626c652e00000000000000000000000000000000000000602082015250565b6000614d7e602d83613ff5565b9150614d8982614d22565b604082019050919050565b60006020820190508181036000830152614dad81614d71565b9050919050565b60008190508160005260206000209050919050565b60006020601f8301049050919050565b600082821b905092915050565b600060088302614e167fffffffffffffffffffffffffffffffffffffffffffffffffffffffffffffffff82614dd9565b614e208683614dd9565b95508019841693508086168417925050509392505050565b6000819050919050565b6000614e5d614e58614e5384613caf565b614e38565b613caf565b9050919050565b6000819050919050565b614e7783614e42565b614e8b614e8382614e64565b848454614de6565b825550505050565b600090565b614ea0614e93565b614eab818484614e6e565b505050565b5b81811015614ecf57614ec4600082614e98565b600181019050614eb1565b5050565b601f821115614f1457614ee581614db4565b614eee84614dc9565b81016020851015614efd578190505b614f11614f0985614dc9565b830182614eb0565b50505b505050565b600082821c905092915050565b6000614f3760001984600802614f19565b1980831691505092915050565b6000614f508383614f26565b9150826002028217905092915050565b614f6982613e00565b67ffffffffffffffff811115614f8257614f81613c03565b5b614f8c8254614bb4565b614f97828285614ed3565b600060209050601f831160018114614fca5760008415614fb8578287015190505b614fc28582614f44565b86555061502a565b601f198416614fd886614db4565b60005b8281101561500057848901518255600182019150602085019450602081019050614fdb565b8683101561501d5784890151615019601f891682614f26565b8355505b6001600288020188555050505b505050505050565b7f546869732044657374696e6174696f6e20776173206e6f7420636865636b696e600082015250565b6000615068602083613ff5565b915061507382615032565b602082019050919050565b600060208201905081810360008301526150978161505b565b9050919050565b600060e0830160008301516150b66000860182613df1565b5060208301516150c96020860182613df1565b5060408301516150dc6040860182613df1565b50606083015184820360608601526150f48282613e46565b91505060808301516151096080860182613df1565b5060a083015161511c60a0860182613e8b565b5060c083015184820360c08601526151348282613e46565b9150508091505092915050565b6000604082019050818103600083015261515b8185614006565b9050818103602083015261516f818461509e565b90509392505050565b600060808201905061518d6000830187614745565b61519a60208301866141e0565b6151a76040830185614745565b6151b46060830184614745565b95945050505050565b60008160601b9050919050565b60006151d5826151bd565b9050919050565b60006151e7826151ca565b9050919050565b6151ff6151fa82614081565b6151dc565b82525050565b6000819050919050565b61522061521b82613caf565b615205565b82525050565b600081905092915050565b600061523c82613e00565b6152468185615226565b9350615256818560208601613e1c565b80840191505092915050565b600061526e82876151ee565b60148201915061527e828661520f565b60208201915061528e8285615231565b915061529a828461520f565b60208201915081905095945050505050565b7f45524332303a2064656372656173656420616c6c6f77616e63652062656c6f7760008201527f207a65726f000000000000000000000000000000000000000000000000000000602082015250565b6000615308602583613ff5565b9150615313826152ac565b604082019050919050565b60006020820190508181036000830152615337816152fb565b9050919050565b7f696e76616c6964207369676e6174757265206c656e6774680000000000000000600082015250565b6000615374601883613ff5565b915061537f8261533e565b602082019050919050565b600060208201905081810360008301526153a381615367565b9050919050565b7f596f7520686164206265656e2072657669657765642074686973207472697000600082015250565b60006153e0601f83613ff5565b91506153eb826153aa565b602082019050919050565b6000602082019050818103600083015261540f816153d3565b9050919050565b60008154905061542581614bb4565b9050919050565b81810361543a575050615512565b61544382615416565b67ffffffffffffffff81111561545c5761545b613c03565b5b6154668254614bb4565b615471828285614ed3565b6000601f8311600181146154a0576000841561548e578287015490505b6154988582614f44565b86555061550b565b601f1984166154ae87614db4565b96506154b986614db4565b60005b828110156154e1578489015482556001820191506001850194506020810190506154bc565b868310156154fe57848901546154fa601f891682614f26565b8355505b6001600288020188555050505b5050505050505b565b7f5468697320494420616c72656164792065786973746564000000000000000000600082015250565b600061554a601783613ff5565b915061555582615514565b602082019050919050565b600060208201905081810360008301526155798161553d565b9050919050565b600081519050919050565b600081905092915050565b60006155a182615580565b6155ab818561558b565b93506155bb818560208601613e1c565b80840191505092915050565b6000819050919050565b6155e26155dd82614574565b6155c7565b82525050565b60006155f48285615596565b915061560082846155d1565b6020820191508190509392505050565b6000604082019050818103600083015261562a8185614006565b90506156396020830184614129565b9392505050565b7f5469636b65742068617320757365640000000000000000000000000000000000600082015250565b6000615676600f83613ff5565b915061568182615640565b602082019050919050565b600060208201905081810360008301526156a581615669565b9050919050565b60006040820190506156c16000830185614129565b6156ce6020830184614129565b9392505050565b7f19457468657265756d205369676e6564204d6573736167653a0a333200000000600082015250565b600061570b601c83615226565b9150615716826156d5565b601c82019050919050565b600061572c826156fe565b915061573882846155d1565b60208201915081905092915050565b7f45524332303a20617070726f76652066726f6d20746865207a65726f2061646460008201527f7265737300000000000000000000000000000000000000000000000000000000602082015250565b60006157a3602483613ff5565b91506157ae82615747565b604082019050919050565b600060208201905081810360008301526157d281615796565b9050919050565b7f45524332303a20617070726f766520746f20746865207a65726f20616464726560008201527f7373000000000000000000000000000000000000000000000000000000000000602082015250565b6000615835602283613ff5565b9150615840826157d9565b604082019050919050565b6000602082019050818103600083015261586481615828565b9050919050565b7f45524332303a20696e73756666696369656e7420616c6c6f77616e6365000000600082015250565b60006158a1601d83613ff5565b91506158ac8261586b565b602082019050919050565b600060208201905081810360008301526158d081615894565b9050919050565b7f45524332303a207472616e736665722066726f6d20746865207a65726f20616460008201527f6472657373000000000000000000000000000000000000000000000000000000602082015250565b6000615933602583613ff5565b915061593e826158d7565b604082019050919050565b6000602082019050818103600083015261596281615926565b9050919050565b7f45524332303a207472616e7366657220746f20746865207a65726f206164647260008201527f6573730000000000000000000000000000000000000000000000000000000000602082015250565b60006159c5602383613ff5565b91506159d082615969565b604082019050919050565b600060208201905081810360008301526159f4816159b8565b9050919050565b7f45524332303a207472616e7366657220616d6f756e742065786365656473206260008201527f616c616e63650000000000000000000000000000000000000000000000000000602082015250565b6000615a57602683613ff5565b9150615a62826159fb565b604082019050919050565b60006020820190508181036000830152615a8681615a4a565b9050919050565b7f45524332303a206d696e7420746f20746865207a65726f206164647265737300600082015250565b6000615ac3601f83613ff5565b9150615ace82615a8d565b602082019050919050565b60006020820190508181036000830152615af281615ab6565b905091905056fea2646970667358221220168ffa7e5299dfdf6ca9db7590a95697929526d584812ca71e814b34d929634064736f6c63430008130033",
  "linkReferences": {},
  "deployedLinkReferences": {}
}