{
  "_format": "hh-sol-artifact-1",
  "contractName": "TouristConTract",
  "sourceName": "contracts/Tourism.sol",
  "abi": [
    {
      "inputs": [],
      "stateMutability": "nonpayable",
      "type": "constructor"
    },
    {
      "anonymous": false,
      "inputs": [
        {
          "indexed": false,
          "internalType": "string",
          "name": "nameDestination",
          "type": "string"
        },
        {
          "indexed": false,
          "internalType": "string",
          "name": "nameAlbum",
          "type": "string"
        }
      ],
      "name": "AddDestinationInAlbum",
      "type": "event"
    },
    {
      "anonymous": false,
      "inputs": [
        {
          "indexed": false,
          "internalType": "string",
          "name": "AlbumName",
          "type": "string"
        },
        {
          "components": [
            {
              "internalType": "uint256",
              "name": "placeId",
              "type": "uint256"
            },
            {
              "internalType": "uint256",
              "name": "arrivalDate",
              "type": "uint256"
            },
            {
              "internalType": "string",
              "name": "review",
              "type": "string"
            },
            {
              "internalType": "uint256",
              "name": "rate",
              "type": "uint256"
            },
            {
              "internalType": "bool",
              "name": "isReview",
              "type": "bool"
            },
            {
              "internalType": "string",
              "name": "title",
              "type": "string"
            }
          ],
          "indexed": false,
          "internalType": "struct TouristConTract.Journey",
          "name": "journey",
          "type": "tuple"
        }
      ],
      "name": "AddJourneyInAlbum",
      "type": "event"
    },
    {
      "anonymous": false,
      "inputs": [
        {
          "indexed": false,
          "internalType": "string",
          "name": "name",
          "type": "string"
        },
        {
          "indexed": false,
          "internalType": "uint256",
          "name": "age",
          "type": "uint256"
        }
      ],
      "name": "AddTourist",
      "type": "event"
    },
    {
      "anonymous": false,
      "inputs": [
        {
          "indexed": true,
          "internalType": "address",
          "name": "owner",
          "type": "address"
        },
        {
          "indexed": true,
          "internalType": "address",
          "name": "spender",
          "type": "address"
        },
        {
          "indexed": false,
          "internalType": "uint256",
          "name": "value",
          "type": "uint256"
        }
      ],
      "name": "Approval",
      "type": "event"
    },
    {
      "anonymous": false,
      "inputs": [
        {
          "indexed": false,
          "internalType": "uint256",
          "name": "ticketId",
          "type": "uint256"
        },
        {
          "indexed": false,
          "internalType": "uint256",
          "name": "placeId",
          "type": "uint256"
        }
      ],
      "name": "CheckIn",
      "type": "event"
    },
    {
      "anonymous": false,
      "inputs": [
        {
          "indexed": false,
          "internalType": "uint256",
          "name": "_id",
          "type": "uint256"
        },
        {
          "indexed": false,
          "internalType": "string",
          "name": "_name",
          "type": "string"
        }
      ],
      "name": "CreateAlbum",
      "type": "event"
    },
    {
      "anonymous": false,
      "inputs": [
        {
          "indexed": true,
          "internalType": "address",
          "name": "from",
          "type": "address"
        },
        {
          "indexed": true,
          "internalType": "address",
          "name": "to",
          "type": "address"
        },
        {
          "indexed": false,
          "internalType": "uint256",
          "name": "value",
          "type": "uint256"
        }
      ],
      "name": "Transfer",
      "type": "event"
    },
    {
      "inputs": [
        {
          "internalType": "address",
          "name": "_signer",
          "type": "address"
        },
        {
          "internalType": "address",
          "name": "_to",
          "type": "address"
        },
        {
          "internalType": "uint256",
          "name": "_amount",
          "type": "uint256"
        },
        {
          "internalType": "string",
          "name": "_message",
          "type": "string"
        },
        {
          "internalType": "uint256",
          "name": "_nonce",
          "type": "uint256"
        },
        {
          "internalType": "bytes",
          "name": "signature",
          "type": "bytes"
        }
      ],
      "name": "_mintMinerReward",
      "outputs": [],
      "stateMutability": "nonpayable",
      "type": "function"
    },
    {
      "inputs": [
        {
          "internalType": "uint256",
          "name": "placeId",
          "type": "uint256"
        },
        {
          "internalType": "uint256",
          "name": "albumId",
          "type": "uint256"
        },
        {
          "internalType": "uint256",
          "name": "date",
          "type": "uint256"
        }
      ],
      "name": "addAlbumJourney",
      "outputs": [],
      "stateMutability": "nonpayable",
      "type": "function"
    },
    {
      "inputs": [
        {
          "internalType": "uint256",
          "name": "index",
          "type": "uint256"
        },
        {
          "internalType": "string",
          "name": "name",
          "type": "string"
        }
      ],
      "name": "addDestination",
      "outputs": [],
      "stateMutability": "nonpayable",
      "type": "function"
    },
    {
      "inputs": [
        {
          "internalType": "uint256",
          "name": "desIndex",
          "type": "uint256"
        },
        {
          "internalType": "uint256",
          "name": "albumId",
          "type": "uint256"
        }
      ],
      "name": "addDestinationInAlbum",
      "outputs": [],
      "stateMutability": "nonpayable",
      "type": "function"
    },
    {
      "inputs": [
        {
          "internalType": "uint256",
          "name": "id",
          "type": "uint256"
        }
      ],
      "name": "addTicket",
      "outputs": [],
      "stateMutability": "nonpayable",
      "type": "function"
    },
    {
      "inputs": [
        {
          "internalType": "address",
          "name": "",
          "type": "address"
        },
        {
          "internalType": "uint256",
          "name": "",
          "type": "uint256"
        },
        {
          "internalType": "uint256",
          "name": "",
          "type": "uint256"
        }
      ],
      "name": "albumDestination",
      "outputs": [
        {
          "internalType": "uint256",
          "name": "index",
          "type": "uint256"
        },
        {
          "internalType": "string",
          "name": "desName",
          "type": "string"
        }
      ],
      "stateMutability": "view",
      "type": "function"
    },
    {
      "inputs": [
        {
          "internalType": "address",
          "name": "",
          "type": "address"
        },
        {
          "internalType": "uint256",
          "name": "",
          "type": "uint256"
        },
        {
          "internalType": "uint256",
          "name": "",
          "type": "uint256"
        }
      ],
      "name": "albumJourneys",
      "outputs": [
        {
          "internalType": "uint256",
          "name": "placeId",
          "type": "uint256"
        },
        {
          "internalType": "uint256",
          "name": "arrivalDate",
          "type": "uint256"
        },
        {
          "internalType": "string",
          "name": "review",
          "type": "string"
        },
        {
          "internalType": "uint256",
          "name": "rate",
          "type": "uint256"
        },
        {
          "internalType": "bool",
          "name": "isReview",
          "type": "bool"
        },
        {
          "internalType": "string",
          "name": "title",
          "type": "string"
        }
      ],
      "stateMutability": "view",
      "type": "function"
    },
    {
      "inputs": [
        {
          "internalType": "address",
          "name": "owner",
          "type": "address"
        },
        {
          "internalType": "address",
          "name": "spender",
          "type": "address"
        }
      ],
      "name": "allowance",
      "outputs": [
        {
          "internalType": "uint256",
          "name": "",
          "type": "uint256"
        }
      ],
      "stateMutability": "view",
      "type": "function"
    },
    {
      "inputs": [
        {
          "internalType": "address",
          "name": "spender",
          "type": "address"
        },
        {
          "internalType": "uint256",
          "name": "amount",
          "type": "uint256"
        }
      ],
      "name": "approve",
      "outputs": [
        {
          "internalType": "bool",
          "name": "",
          "type": "bool"
        }
      ],
      "stateMutability": "nonpayable",
      "type": "function"
    },
    {
      "inputs": [
        {
          "internalType": "address",
          "name": "account",
          "type": "address"
        }
      ],
      "name": "balanceOf",
      "outputs": [
        {
          "internalType": "uint256",
          "name": "",
          "type": "uint256"
        }
      ],
      "stateMutability": "view",
      "type": "function"
    },
    {
      "inputs": [
        {
          "internalType": "uint256",
          "name": "ticketID",
          "type": "uint256"
        },
        {
          "internalType": "uint256",
          "name": "placeID",
          "type": "uint256"
        }
      ],
      "name": "checkIn",
      "outputs": [],
      "stateMutability": "nonpayable",
      "type": "function"
    },
    {
      "inputs": [
        {
          "internalType": "uint256",
          "name": "ticketID",
          "type": "uint256"
        }
      ],
      "name": "checkValidTicket",
      "outputs": [
        {
          "internalType": "bool",
          "name": "",
          "type": "bool"
        }
      ],
      "stateMutability": "view",
      "type": "function"
    },
    {
      "inputs": [
        {
          "internalType": "bytes32",
          "name": "_hashedMessage",
          "type": "bytes32"
        },
        {
          "internalType": "uint8",
          "name": "_v",
          "type": "uint8"
        },
        {
          "internalType": "bytes32",
          "name": "_r",
          "type": "bytes32"
        },
        {
          "internalType": "bytes32",
          "name": "_s",
          "type": "bytes32"
        }
      ],
      "name": "claimPrize",
      "outputs": [
        {
          "internalType": "bool",
          "name": "",
          "type": "bool"
        }
      ],
      "stateMutability": "view",
      "type": "function"
    },
    {
      "inputs": [
        {
          "internalType": "uint256",
          "name": "_id",
          "type": "uint256"
        },
        {
          "internalType": "string",
          "name": "_name",
          "type": "string"
        }
      ],
      "name": "createAlbum",
      "outputs": [],
      "stateMutability": "nonpayable",
      "type": "function"
    },
    {
      "inputs": [],
      "name": "decimals",
      "outputs": [
        {
          "internalType": "uint8",
          "name": "",
          "type": "uint8"
        }
      ],
      "stateMutability": "view",
      "type": "function"
    },
    {
      "inputs": [
        {
          "internalType": "address",
          "name": "spender",
          "type": "address"
        },
        {
          "internalType": "uint256",
          "name": "subtractedValue",
          "type": "uint256"
        }
      ],
      "name": "decreaseAllowance",
      "outputs": [
        {
          "internalType": "bool",
          "name": "",
          "type": "bool"
        }
      ],
      "stateMutability": "nonpayable",
      "type": "function"
    },
    {
      "inputs": [
        {
          "internalType": "uint256",
          "name": "",
          "type": "uint256"
        },
        {
          "internalType": "uint256",
          "name": "",
          "type": "uint256"
        }
      ],
      "name": "destinationRates",
      "outputs": [
        {
          "internalType": "uint256",
          "name": "",
          "type": "uint256"
        }
      ],
      "stateMutability": "view",
      "type": "function"
    },
    {
      "inputs": [
        {
          "internalType": "uint256",
          "name": "",
          "type": "uint256"
        },
        {
          "internalType": "uint256",
          "name": "",
          "type": "uint256"
        }
      ],
      "name": "destinationReviews",
      "outputs": [
        {
          "internalType": "string",
          "name": "",
          "type": "string"
        }
      ],
      "stateMutability": "view",
      "type": "function"
    },
    {
      "inputs": [
        {
          "internalType": "uint256",
          "name": "id",
          "type": "uint256"
        }
      ],
      "name": "getAlbumCheckIn",
      "outputs": [
        {
          "components": [
            {
              "internalType": "uint256",
              "name": "placeId",
              "type": "uint256"
            },
            {
              "internalType": "uint256",
              "name": "arrivalDate",
              "type": "uint256"
            },
            {
              "internalType": "string",
              "name": "review",
              "type": "string"
            },
            {
              "internalType": "uint256",
              "name": "rate",
              "type": "uint256"
            },
            {
              "internalType": "bool",
              "name": "isReview",
              "type": "bool"
            },
            {
              "internalType": "string",
              "name": "title",
              "type": "string"
            }
          ],
          "internalType": "struct TouristConTract.Journey[]",
          "name": "",
          "type": "tuple[]"
        }
      ],
      "stateMutability": "view",
      "type": "function"
    },
    {
      "inputs": [
        {
          "internalType": "uint256",
          "name": "id",
          "type": "uint256"
        }
      ],
      "name": "getAlbumNotCheckIn",
      "outputs": [
        {
          "components": [
            {
              "internalType": "uint256",
              "name": "index",
              "type": "uint256"
            },
            {
              "internalType": "string",
              "name": "desName",
              "type": "string"
            }
          ],
          "internalType": "struct TouristConTract.Destination[]",
          "name": "",
          "type": "tuple[]"
        }
      ],
      "stateMutability": "view",
      "type": "function"
    },
    {
      "inputs": [],
      "name": "getAllDestination",
      "outputs": [
        {
          "components": [
            {
              "internalType": "uint256",
              "name": "index",
              "type": "uint256"
            },
            {
              "internalType": "string",
              "name": "desName",
              "type": "string"
            }
          ],
          "internalType": "struct TouristConTract.Destination[]",
          "name": "",
          "type": "tuple[]"
        }
      ],
      "stateMutability": "view",
      "type": "function"
    },
    {
      "inputs": [],
      "name": "getAllJourney",
      "outputs": [
        {
          "components": [
            {
              "internalType": "uint256",
              "name": "placeId",
              "type": "uint256"
            },
            {
              "internalType": "uint256",
              "name": "arrivalDate",
              "type": "uint256"
            },
            {
              "internalType": "string",
              "name": "review",
              "type": "string"
            },
            {
              "internalType": "uint256",
              "name": "rate",
              "type": "uint256"
            },
            {
              "internalType": "bool",
              "name": "isReview",
              "type": "bool"
            },
            {
              "internalType": "string",
              "name": "title",
              "type": "string"
            }
          ],
          "internalType": "struct TouristConTract.Journey[]",
          "name": "",
          "type": "tuple[]"
        }
      ],
      "stateMutability": "view",
      "type": "function"
    },
    {
      "inputs": [
        {
          "internalType": "address",
          "name": "add",
          "type": "address"
        }
      ],
      "name": "getBalance",
      "outputs": [
        {
          "internalType": "uint256",
          "name": "",
          "type": "uint256"
        }
      ],
      "stateMutability": "view",
      "type": "function"
    },
    {
      "inputs": [
        {
          "internalType": "bytes32",
          "name": "_messageHash",
          "type": "bytes32"
        }
      ],
      "name": "getEthSignedMessageHash",
      "outputs": [
        {
          "internalType": "bytes32",
          "name": "",
          "type": "bytes32"
        }
      ],
      "stateMutability": "pure",
      "type": "function"
    },
    {
      "inputs": [
        {
          "internalType": "address",
          "name": "_to",
          "type": "address"
        },
        {
          "internalType": "uint256",
          "name": "_amount",
          "type": "uint256"
        },
        {
          "internalType": "string",
          "name": "_message",
          "type": "string"
        },
        {
          "internalType": "uint256",
          "name": "_nonce",
          "type": "uint256"
        }
      ],
      "name": "getMessageHash",
      "outputs": [
        {
          "internalType": "bytes32",
          "name": "",
          "type": "bytes32"
        }
      ],
      "stateMutability": "pure",
      "type": "function"
    },
    {
      "inputs": [
        {
          "internalType": "address",
          "name": "userAddress",
          "type": "address"
        },
        {
          "internalType": "uint256",
          "name": "role",
          "type": "uint256"
        }
      ],
      "name": "grantRole",
      "outputs": [],
      "stateMutability": "nonpayable",
      "type": "function"
    },
    {
      "inputs": [
        {
          "internalType": "address",
          "name": "spender",
          "type": "address"
        },
        {
          "internalType": "uint256",
          "name": "addedValue",
          "type": "uint256"
        }
      ],
      "name": "increaseAllowance",
      "outputs": [
        {
          "internalType": "bool",
          "name": "",
          "type": "bool"
        }
      ],
      "stateMutability": "nonpayable",
      "type": "function"
    },
    {
      "inputs": [],
      "name": "name",
      "outputs": [
        {
          "internalType": "string",
          "name": "",
          "type": "string"
        }
      ],
      "stateMutability": "view",
      "type": "function"
    },
    {
      "inputs": [
        {
          "internalType": "uint256",
          "name": "",
          "type": "uint256"
        }
      ],
      "name": "noPeopleCheckIn",
      "outputs": [
        {
          "internalType": "uint256",
          "name": "",
          "type": "uint256"
        }
      ],
      "stateMutability": "view",
      "type": "function"
    },
    {
      "inputs": [
        {
          "internalType": "uint256",
          "name": "",
          "type": "uint256"
        }
      ],
      "name": "noPeopleRate",
      "outputs": [
        {
          "internalType": "uint256",
          "name": "",
          "type": "uint256"
        }
      ],
      "stateMutability": "view",
      "type": "function"
    },
    {
      "inputs": [
        {
          "internalType": "bytes32",
          "name": "_ethSignedMessageHash",
          "type": "bytes32"
        },
        {
          "internalType": "bytes",
          "name": "_signature",
          "type": "bytes"
        }
      ],
      "name": "recoverSigner",
      "outputs": [
        {
          "internalType": "address",
          "name": "",
          "type": "address"
        }
      ],
      "stateMutability": "pure",
      "type": "function"
    },
    {
      "inputs": [
        {
          "internalType": "string",
          "name": "name",
          "type": "string"
        },
        {
          "internalType": "uint256",
          "name": "age",
          "type": "uint256"
        }
      ],
      "name": "register",
      "outputs": [],
      "stateMutability": "nonpayable",
      "type": "function"
    },
    {
      "inputs": [
        {
          "internalType": "uint256",
          "name": "placeId",
          "type": "uint256"
        },
        {
          "internalType": "uint256",
          "name": "arrDate",
          "type": "uint256"
        },
        {
          "internalType": "string",
          "name": "comment",
          "type": "string"
        },
        {
          "internalType": "uint256",
          "name": "rate",
          "type": "uint256"
        },
        {
          "internalType": "string",
          "name": "title",
          "type": "string"
        }
      ],
      "name": "review",
      "outputs": [],
      "stateMutability": "nonpayable",
      "type": "function"
    },
    {
      "inputs": [
        {
          "internalType": "bytes",
          "name": "sig",
          "type": "bytes"
        }
      ],
      "name": "splitSignature",
      "outputs": [
        {
          "internalType": "bytes32",
          "name": "r",
          "type": "bytes32"
        },
        {
          "internalType": "bytes32",
          "name": "s",
          "type": "bytes32"
        },
        {
          "internalType": "uint8",
          "name": "v",
          "type": "uint8"
        }
      ],
      "stateMutability": "pure",
      "type": "function"
    },
    {
      "inputs": [],
      "name": "symbol",
      "outputs": [
        {
          "internalType": "string",
          "name": "",
          "type": "string"
        }
      ],
      "stateMutability": "view",
      "type": "function"
    },
    {
      "inputs": [],
      "name": "totalSupply",
      "outputs": [
        {
          "internalType": "uint256",
          "name": "",
          "type": "uint256"
        }
      ],
      "stateMutability": "view",
      "type": "function"
    },
    {
      "inputs": [
        {
          "internalType": "address",
          "name": "",
          "type": "address"
        },
        {
          "internalType": "uint256",
          "name": "",
          "type": "uint256"
        }
      ],
      "name": "touristAlbums",
      "outputs": [
        {
          "internalType": "uint256",
          "name": "id",
          "type": "uint256"
        },
        {
          "internalType": "string",
          "name": "name",
          "type": "string"
        }
      ],
      "stateMutability": "view",
      "type": "function"
    },
    {
      "inputs": [
        {
          "internalType": "address",
          "name": "",
          "type": "address"
        }
      ],
      "name": "touristIdentify",
      "outputs": [
        {
          "internalType": "string",
          "name": "name",
          "type": "string"
        },
        {
          "internalType": "uint256",
          "name": "age",
          "type": "uint256"
        },
        {
          "internalType": "bool",
          "name": "signup",
          "type": "bool"
        },
        {
          "internalType": "address",
          "name": "touristAddress",
          "type": "address"
        }
      ],
      "stateMutability": "view",
      "type": "function"
    },
    {
      "inputs": [
        {
          "internalType": "address",
          "name": "",
          "type": "address"
        },
        {
          "internalType": "uint256",
          "name": "",
          "type": "uint256"
        }
      ],
      "name": "touristJourneys",
      "outputs": [
        {
          "internalType": "uint256",
          "name": "placeId",
          "type": "uint256"
        },
        {
          "internalType": "uint256",
          "name": "arrivalDate",
          "type": "uint256"
        },
        {
          "internalType": "string",
          "name": "review",
          "type": "string"
        },
        {
          "internalType": "uint256",
          "name": "rate",
          "type": "uint256"
        },
        {
          "internalType": "bool",
          "name": "isReview",
          "type": "bool"
        },
        {
          "internalType": "string",
          "name": "title",
          "type": "string"
        }
      ],
      "stateMutability": "view",
      "type": "function"
    },
    {
      "inputs": [
        {
          "internalType": "address",
          "name": "to",
          "type": "address"
        },
        {
          "internalType": "uint256",
          "name": "amount",
          "type": "uint256"
        }
      ],
      "name": "transfer",
      "outputs": [
        {
          "internalType": "bool",
          "name": "",
          "type": "bool"
        }
      ],
      "stateMutability": "nonpayable",
      "type": "function"
    },
    {
      "inputs": [
        {
          "internalType": "address",
          "name": "from",
          "type": "address"
        },
        {
          "internalType": "address",
          "name": "to",
          "type": "address"
        },
        {
          "internalType": "uint256",
          "name": "amount",
          "type": "uint256"
        }
      ],
      "name": "transferFrom",
      "outputs": [
        {
          "internalType": "bool",
          "name": "",
          "type": "bool"
        }
      ],
      "stateMutability": "nonpayable",
      "type": "function"
    },
    {
      "inputs": [
        {
          "internalType": "uint256",
          "name": "id",
          "type": "uint256"
        }
      ],
      "name": "validAddIDTicket",
      "outputs": [
        {
          "internalType": "bool",
          "name": "",
          "type": "bool"
        }
      ],
      "stateMutability": "view",
      "type": "function"
    },
    {
      "inputs": [
        {
          "internalType": "address",
          "name": "_signer",
          "type": "address"
        },
        {
          "internalType": "address",
          "name": "_to",
          "type": "address"
        },
        {
          "internalType": "uint256",
          "name": "_amount",
          "type": "uint256"
        },
        {
          "internalType": "string",
          "name": "_message",
          "type": "string"
        },
        {
          "internalType": "uint256",
          "name": "_nonce",
          "type": "uint256"
        },
        {
          "internalType": "bytes",
          "name": "signature",
          "type": "bytes"
        }
      ],
      "name": "verify",
      "outputs": [
        {
          "internalType": "bool",
          "name": "",
          "type": "bool"
        }
      ],
      "stateMutability": "pure",
      "type": "function"
    }
  ],
  "bytecode": "0x60806040523480156200001157600080fd5b506040518060400160405280600781526020017f4443546f6b656e000000000000000000000000000000000000000000000000008152506040518060400160405280600281526020017f587500000000000000000000000000000000000000000000000000000000000081525081600390816200008f9190620017cc565b508060049081620000a19190620017cc565b505050600a6040518060400160405280600181526020016040518060400160405280601581526020017f52e1bbab6e67205472c3a06d205472c3a02053c6b0000000000000000000000081525081525090806001815401808255809150506001900390600052602060002090600202016000909190919091506000820151816000015560208201518160010190816200013b9190620017cc565b505050600a6040518060400160405280600281526020016040518060400160405280601581526020017f48e1bb932026204368c3b9612054c3a02050e1baa100000000000000000000008152508152509080600181540180825580915050600190039060005260206000209060020201600090919091909150600082015181600001556020820151816001019081620001d59190620017cc565b505050600a6040518060400160405280600381526020016040518060400160405280600b81526020017f48e1bb93204c6174696e6100000000000000000000000000000000000000000081525081525090806001815401808255809150506001900390600052602060002090600202016000909190919091506000820151816000015560208201518160010190816200026f9190620017cc565b505050600a6040518060400160405280600481526020016040518060400160405280600d81526020017f4368c3b961204b6f68204b6173000000000000000000000000000000000000008152508152509080600181540180825580915050600190039060005260206000209060020201600090919091909150600082015181600001556020820151816001019081620003099190620017cc565b505050600a6040518060400160405280600681526020016040518060400160405280601781526020017f42c3ba6e2063c3a1204869e1babf7520546875e1baad6e0000000000000000008152508152509080600181540180825580915050600190039060005260206000209060020201600090919091909150600082015181600001556020820151816001019081620003a39190620017cc565b505050600a6040518060400160405280600581526020016040518060400160405280601e81526020017f4d69e1babf752042c3a0204368c3ba612058e1bba9204ec3ba692053616d000081525081525090806001815401808255809150506001900390600052602060002090600202016000909190919091506000820151816000015560208201518160010190816200043d9190620017cc565b505050600a6040518060400160405280600781526020016040518060600160405280602d815260200162007470602d91398152509080600181540180825580915050600190039060005260206000209060020201600090919091909150600082015181600001556020820151816001019081620004bb9190620017cc565b505050600a604051806040016040528060088152602001604051806060016040528060348152602001620074f0603491398152509080600181540180825580915050600190039060005260206000209060020201600090919091909150600082015181600001556020820151816001019081620005399190620017cc565b505050600a60405180604001604052806009815260200160405180606001604052806031815260200162007547603191398152509080600181540180825580915050600190039060005260206000209060020201600090919091909150600082015181600001556020820151816001019081620005b79190620017cc565b505050600a6040518060400160405280600a81526020016040518060600160405280602581526020016200749d602591398152509080600181540180825580915050600190039060005260206000209060020201600090919091909150600082015181600001556020820151816001019081620006359190620017cc565b505050600a6040518060400160405280600b81526020016040518060600160405280602e8152602001620074c2602e91398152509080600181540180825580915050600190039060005260206000209060020201600090919091909150600082015181600001556020820151816001019081620006b39190620017cc565b505050600a6040518060400160405280600c81526020016040518060400160405280601481526020017f53414e47204e4855204e474f43205245534f525400000000000000000000000081525081525090806001815401808255809150506001900390600052602060002090600202016000909190919091506000820151816000015560208201518160010190816200074d9190620017cc565b505050600a6040518060400160405280600d81526020016040518060400160405280601981526020017f4b68c3a163682073e1baa16e206368c3a275207469e1babf6e000000000000008152508152509080600181540180825580915050600190039060005260206000209060020201600090919091909150600082015181600001556020820151816001019081620007e79190620017cc565b505050600a6040518060400160405280600e81526020016040518060600160405280603c815260200162007434603c91398152509080600181540180825580915050600190039060005260206000209060020201600090919091909150600082015181600001556020820151816001019081620008659190620017cc565b505050600a6040518060400160405280600f81526020016040518060400160405280601781526020017f446f6e672042616f20486f74656c20416e204769616e670000000000000000008152508152509080600181540180825580915050600190039060005260206000209060020201600090919091909150600082015181600001556020820151816001019081620008ff9190620017cc565b505050600a6040518060400160405280601081526020016040518060400160405280601c81526020017f5472e1baa1692043c3a12053e1baa575204c6f6e6720587579c3aa6e000000008152508152509080600181540180825580915050600190039060005260206000209060020201600090919091909150600082015181600001556020820151816001019081620009999190620017cc565b505050600a6040518060400160405280601181526020016040518060400160405280601f81526020017f466c7968696768205472616d706f6c696e65205061726b20566965746e616d00815250815250908060018154018082558091505060019003906000526020600020906002020160009091909190915060008201518160000155602082015181600101908162000a339190620017cc565b505050600a6040518060400160405280601281526020016040518060400160405280601581526020017f5468616e68204c6f6e67205761746572205061726b0000000000000000000000815250815250908060018154018082558091505060019003906000526020600020906002020160009091909190915060008201518160000155602082015181600101908162000acd9190620017cc565b505050600a6040518060400160405280601381526020016040518060600160405280602381526020016200752460239139815250908060018154018082558091505060019003906000526020600020906002020160009091909190915060008201518160000155602082015181600101908162000b4b9190620017cc565b505050600a6040518060400160405280601481526020016040518060400160405280601781526020017f43c3b46e67207669c3aa6e204de1bbb9205468e1bb9b69000000000000000000815250815250908060018154018082558091505060019003906000526020600020906002020160009091909190915060008201518160000155602082015181600101908162000be59190620017cc565b50505060096040518060400160405280600181526020016000151581525090806001815401808255809150506001900390600052602060002090600202016000909190919091506000820151816000015560208201518160010160006101000a81548160ff021916908315150217905550505060096040518060400160405280600281526020016000151581525090806001815401808255809150506001900390600052602060002090600202016000909190919091506000820151816000015560208201518160010160006101000a81548160ff021916908315150217905550505060096040518060400160405280600381526020016000151581525090806001815401808255809150506001900390600052602060002090600202016000909190919091506000820151816000015560208201518160010160006101000a81548160ff021916908315150217905550505060096040518060400160405280600481526020016000151581525090806001815401808255809150506001900390600052602060002090600202016000909190919091506000820151816000015560208201518160010160006101000a81548160ff021916908315150217905550505060096040518060400160405280600581526020016000151581525090806001815401808255809150506001900390600052602060002090600202016000909190919091506000820151816000015560208201518160010160006101000a81548160ff021916908315150217905550505060096040518060400160405280600681526020016000151581525090806001815401808255809150506001900390600052602060002090600202016000909190919091506000820151816000015560208201518160010160006101000a81548160ff021916908315150217905550505060096040518060400160405280600781526020016000151581525090806001815401808255809150506001900390600052602060002090600202016000909190919091506000820151816000015560208201518160010160006101000a81548160ff021916908315150217905550505060096040518060400160405280600881526020016000151581525090806001815401808255809150506001900390600052602060002090600202016000909190919091506000820151816000015560208201518160010160006101000a81548160ff021916908315150217905550505060096040518060400160405280600981526020016000151581525090806001815401808255809150506001900390600052602060002090600202016000909190919091506000820151816000015560208201518160010160006101000a81548160ff021916908315150217905550505060096040518060400160405280600a81526020016000151581525090806001815401808255809150506001900390600052602060002090600202016000909190919091506000820151816000015560208201518160010160006101000a81548160ff021916908315150217905550505060096040518060400160405280600b81526020016000151581525090806001815401808255809150506001900390600052602060002090600202016000909190919091506000820151816000015560208201518160010160006101000a81548160ff021916908315150217905550505060096040518060400160405280600c81526020016000151581525090806001815401808255809150506001900390600052602060002090600202016000909190919091506000820151816000015560208201518160010160006101000a81548160ff021916908315150217905550505060096040518060400160405280600d81526020016000151581525090806001815401808255809150506001900390600052602060002090600202016000909190919091506000820151816000015560208201518160010160006101000a81548160ff021916908315150217905550505060096040518060400160405280600e81526020016000151581525090806001815401808255809150506001900390600052602060002090600202016000909190919091506000820151816000015560208201518160010160006101000a81548160ff021916908315150217905550505060096040518060400160405280600f81526020016000151581525090806001815401808255809150506001900390600052602060002090600202016000909190919091506000820151816000015560208201518160010160006101000a81548160ff021916908315150217905550505060096040518060400160405280601081526020016000151581525090806001815401808255809150506001900390600052602060002090600202016000909190919091506000820151816000015560208201518160010160006101000a81548160ff021916908315150217905550505060096040518060400160405280601181526020016000151581525090806001815401808255809150506001900390600052602060002090600202016000909190919091506000820151816000015560208201518160010160006101000a81548160ff021916908315150217905550505060096040518060400160405280601281526020016000151581525090806001815401808255809150506001900390600052602060002090600202016000909190919091506000820151816000015560208201518160010160006101000a81548160ff021916908315150217905550505060096040518060400160405280601381526020016000151581525090806001815401808255809150506001900390600052602060002090600202016000909190919091506000820151816000015560208201518160010160006101000a81548160ff021916908315150217905550505060096040518060400160405280601481526020016000151581525090806001815401808255809150506001900390600052602060002090600202016000909190919091506000820151816000015560208201518160010160006101000a81548160ff02191690831515021790555050506006339080600181540180825580915050600190039060005260206000200160009091909190916101000a81548173ffffffffffffffffffffffffffffffffffffffff021916908373ffffffffffffffffffffffffffffffffffffffff16021790555033600560006101000a81548173ffffffffffffffffffffffffffffffffffffffff021916908373ffffffffffffffffffffffffffffffffffffffff160217905550620018b3565b600081519050919050565b7f4e487b7100000000000000000000000000000000000000000000000000000000600052604160045260246000fd5b7f4e487b7100000000000000000000000000000000000000000000000000000000600052602260045260246000fd5b60006002820490506001821680620015d457607f821691505b602082108103620015ea57620015e96200158c565b5b50919050565b60008190508160005260206000209050919050565b60006020601f8301049050919050565b600082821b905092915050565b600060088302620016547fffffffffffffffffffffffffffffffffffffffffffffffffffffffffffffffff8262001615565b62001660868362001615565b95508019841693508086168417925050509392505050565b6000819050919050565b6000819050919050565b6000620016ad620016a7620016a18462001678565b62001682565b62001678565b9050919050565b6000819050919050565b620016c9836200168c565b620016e1620016d882620016b4565b84845462001622565b825550505050565b600090565b620016f8620016e9565b62001705818484620016be565b505050565b5b818110156200172d5762001721600082620016ee565b6001810190506200170b565b5050565b601f8211156200177c576200174681620015f0565b620017518462001605565b8101602085101562001761578190505b62001779620017708562001605565b8301826200170a565b50505b505050565b600082821c905092915050565b6000620017a16000198460080262001781565b1980831691505092915050565b6000620017bc83836200178e565b9150826002028217905092915050565b620017d78262001552565b67ffffffffffffffff811115620017f357620017f26200155d565b5b620017ff8254620015bb565b6200180c82828562001731565b600060209050601f8311600181146200184457600084156200182f578287015190505b6200183b8582620017ae565b865550620018ab565b601f1984166200185486620015f0565b60005b828110156200187e5784890151825560018201915060208501945060208101905062001857565b868310156200189e57848901516200189a601f8916826200178e565b8355505b6001600288020188555050505b505050505050565b615b7180620018c36000396000f3fe608060405234801561001057600080fd5b50600436106102695760003560e01c806393f4052111610151578063b4291319116100c3578063ea87152b11610087578063ea87152b1461085e578063ebfbdec91461087a578063f2fa49b4146108aa578063f516f88e146108df578063f8b2cb4f146108fb578063fa5408011461092b57610269565b8063b429131914610796578063b9c3b1b9146107b2578063be4755a1146107e2578063dd62ed3e14610812578063ddb0225e1461084257610269565b8063a35f8a4011610115578063a35f8a4014610688578063a457c2d7146106b8578063a7bb5803146106e8578063a9059cbb1461071a578063abe5026a1461074a578063b21624151461077a57610269565b806393f40521146105aa57806395d89b41146105da57806397aba7f9146105f85780639e26c494146106285780639f7bdca11461065857610269565b80635cab0d00116101ea578063701a0e0d116101ae578063701a0e0d146104d757806370a08231146104f3578063732a7c2514610523578063788521591461053f57806388fbd65b1461057057806390db6a201461058c57610269565b80635cab0d00146103f75780636012f3be14610427578063625336651461045857806363f8f2131461048b5780636787d244146104a757610269565b8063285f293b11610231578063285f293b14610328578063313ce56714610358578063374936821461037657806339509351146103ab5780633c09e2fd146103db57610269565b806306fdde031461026e578063095ea7b31461028c5780630f13090e146102bc57806318160ddd146102da57806323b872dd146102f8575b600080fd5b61027661095b565b6040516102839190613cfd565b60405180910390f35b6102a660048036038101906102a19190613dc7565b6109ed565b6040516102b39190613e22565b60405180910390f35b6102c4610a10565b6040516102d19190613ff7565b60405180910390f35b6102e2610c09565b6040516102ef9190614028565b60405180910390f35b610312600480360381019061030d9190614043565b610c13565b60405161031f9190613e22565b60405180910390f35b610342600480360381019061033d9190614096565b610c42565b60405161034f9190613ff7565b60405180910390f35b610360610e4e565b60405161036d91906140df565b60405180910390f35b610390600480360381019061038b9190613dc7565b610e57565b6040516103a2969594939291906140fa565b60405180910390f35b6103c560048036038101906103c09190613dc7565b610fcd565b6040516103d29190613e22565b60405180910390f35b6103f560048036038101906103f09190613dc7565b611004565b005b610411600480360381019061040c9190614096565b611213565b60405161041e9190614028565b60405180910390f35b610441600480360381019061043c9190613dc7565b61122b565b60405161044f929190614169565b60405180910390f35b610472600480360381019061046d9190614199565b6112f4565b60405161048294939291906141d5565b60405180910390f35b6104a560048036038101906104a09190614356565b6113d9565b005b6104c160048036038101906104bc91906143b2565b611573565b6040516104ce9190613cfd565b60405180910390f35b6104f160048036038101906104ec91906143f2565b61162c565b005b61050d60048036038101906105089190614199565b611ae0565b60405161051a9190614028565b60405180910390f35b61053d60048036038101906105389190614356565b611b28565b005b61055960048036038101906105549190614445565b611c04565b604051610567929190614169565b60405180910390f35b61058a600480360381019061058591906143b2565b611cda565b005b610594611ee1565b6040516105a19190614597565b60405180910390f35b6105c460048036038101906105bf9190614096565b611fdc565b6040516105d19190613e22565b60405180910390f35b6105e2612084565b6040516105ef9190613cfd565b60405180910390f35b610612600480360381019061060d9190614690565b612116565b60405161061f91906146ec565b60405180910390f35b610642600480360381019061063d9190614096565b612185565b60405161064f9190613e22565b60405180910390f35b610672600480360381019061066d9190614096565b6121ee565b60405161067f9190614028565b60405180910390f35b6106a2600480360381019061069d9190614707565b612206565b6040516106af9190614799565b60405180910390f35b6106d260048036038101906106cd9190613dc7565b61223f565b6040516106df9190613e22565b60405180910390f35b61070260048036038101906106fd91906147b4565b6122b6565b604051610711939291906147fd565b60405180910390f35b610734600480360381019061072f9190613dc7565b61231e565b6040516107419190613e22565b60405180910390f35b610764600480360381019061075f9190614834565b612341565b6040516107719190613e22565b60405180910390f35b610794600480360381019061078f91906148f9565b6123a5565b005b6107b060048036038101906107ab9190614096565b61279c565b005b6107cc60048036038101906107c791906149d8565b61293b565b6040516107d99190613e22565b60405180910390f35b6107fc60048036038101906107f79190614096565b612a67565b6040516108099190614597565b60405180910390f35b61082c60048036038101906108279190614a3f565b612bb2565b6040516108399190614028565b60405180910390f35b61085c60048036038101906108579190614834565b612c39565b005b61087860048036038101906108739190614a7f565b612c61565b005b610894600480360381019061088f91906143b2565b612f5a565b6040516108a19190614028565b60405180910390f35b6108c460048036038101906108bf9190614445565b612f8b565b6040516108d6969594939291906140fa565b60405180910390f35b6108f960048036038101906108f491906143b2565b61310e565b005b61091560048036038101906109109190614199565b61339f565b6040516109229190614028565b60405180910390f35b61094560048036038101906109409190614adb565b6133a6565b6040516109529190614799565b60405180910390f35b60606003805461096a90614b37565b80601f016020809104026020016040519081016040528092919081815260200182805461099690614b37565b80156109e35780601f106109b8576101008083540402835291602001916109e3565b820191906000526020600020905b8154815290600101906020018083116109c657829003601f168201915b5050505050905090565b6000806109f86133d6565b9050610a058185856133de565b600191505092915050565b6060600d60003373ffffffffffffffffffffffffffffffffffffffff1673ffffffffffffffffffffffffffffffffffffffff168152602001908152602001600020805480602002602001604051908101604052809291908181526020016000905b82821015610c0057838290600052602060002090600602016040518060c00160405290816000820154815260200160018201548152602001600282018054610ab890614b37565b80601f0160208091040260200160405190810160405280929190818152602001828054610ae490614b37565b8015610b315780601f10610b0657610100808354040283529160200191610b31565b820191906000526020600020905b815481529060010190602001808311610b1457829003601f168201915b50505050508152602001600382015481526020016004820160009054906101000a900460ff16151515158152602001600582018054610b6f90614b37565b80601f0160208091040260200160405190810160405280929190818152602001828054610b9b90614b37565b8015610be85780601f10610bbd57610100808354040283529160200191610be8565b820191906000526020600020905b815481529060010190602001808311610bcb57829003601f168201915b50505050508152505081526020019060010190610a71565b50505050905090565b6000600254905090565b600080610c1e6133d6565b9050610c2b8582856135a7565b610c36858585613633565b60019150509392505050565b6060601060003373ffffffffffffffffffffffffffffffffffffffff1673ffffffffffffffffffffffffffffffffffffffff1681526020019081526020016000206000838152602001908152602001600020805480602002602001604051908101604052809291908181526020016000905b82821015610e4357838290600052602060002090600602016040518060c00160405290816000820154815260200160018201548152602001600282018054610cfb90614b37565b80601f0160208091040260200160405190810160405280929190818152602001828054610d2790614b37565b8015610d745780601f10610d4957610100808354040283529160200191610d74565b820191906000526020600020905b815481529060010190602001808311610d5757829003601f168201915b50505050508152602001600382015481526020016004820160009054906101000a900460ff16151515158152602001600582018054610db290614b37565b80601f0160208091040260200160405190810160405280929190818152602001828054610dde90614b37565b8015610e2b5780601f10610e0057610100808354040283529160200191610e2b565b820191906000526020600020905b815481529060010190602001808311610e0e57829003601f168201915b50505050508152505081526020019060010190610cb4565b505050509050919050565b60006012905090565b600d6020528160005260406000208181548110610e7357600080fd5b906000526020600020906006020160009150915050806000015490806001015490806002018054610ea390614b37565b80601f0160208091040260200160405190810160405280929190818152602001828054610ecf90614b37565b8015610f1c5780601f10610ef157610100808354040283529160200191610f1c565b820191906000526020600020905b815481529060010190602001808311610eff57829003601f168201915b5050505050908060030154908060040160009054906101000a900460ff1690806005018054610f4a90614b37565b80601f0160208091040260200160405190810160405280929190818152602001828054610f7690614b37565b8015610fc35780601f10610f9857610100808354040283529160200191610fc3565b820191906000526020600020905b815481529060010190602001808311610fa657829003601f168201915b5050505050905086565b600080610fd86133d6565b9050610ff9818585610fea8589612bb2565b610ff49190614b97565b6133de565b600191505092915050565b6000805b6006805490508110156110a0576006818154811061102957611028614bcb565b5b9060005260206000200160009054906101000a900473ffffffffffffffffffffffffffffffffffffffff1673ffffffffffffffffffffffffffffffffffffffff163373ffffffffffffffffffffffffffffffffffffffff160361108f57600191506110a0565b8061109990614bfa565b9050611008565b5060011515811515146110e8576040517f08c379a00000000000000000000000000000000000000000000000000000000081526004016110df90614cb4565b60405180910390fd5b60018214806110f75750600282145b611136576040517f08c379a000000000000000000000000000000000000000000000000000000000815260040161112d90614d46565b60405180910390fd5b600182036111a2576006839080600181540180825580915050600190039060005260206000200160009091909190916101000a81548173ffffffffffffffffffffffffffffffffffffffff021916908373ffffffffffffffffffffffffffffffffffffffff1602179055505b6002820361120e576007839080600181540180825580915050600190039060005260206000200160009091909190916101000a81548173ffffffffffffffffffffffffffffffffffffffff021916908373ffffffffffffffffffffffffffffffffffffffff1602179055505b505050565b60126020528060005260406000206000915090505481565b600f602052816000526040600020818154811061124757600080fd5b90600052602060002090600202016000915091505080600001549080600101805461127190614b37565b80601f016020809104026020016040519081016040528092919081815260200182805461129d90614b37565b80156112ea5780601f106112bf576101008083540402835291602001916112ea565b820191906000526020600020905b8154815290600101906020018083116112cd57829003601f168201915b5050505050905082565b600c60205280600052604060002060009150905080600001805461131790614b37565b80601f016020809104026020016040519081016040528092919081815260200182805461134390614b37565b80156113905780601f1061136557610100808354040283529160200191611390565b820191906000526020600020905b81548152906001019060200180831161137357829003601f168201915b5050505050908060010154908060020160009054906101000a900460ff16908060020160019054906101000a900473ffffffffffffffffffffffffffffffffffffffff16905084565b6000805b60068054905081101561147557600681815481106113fe576113fd614bcb565b5b9060005260206000200160009054906101000a900473ffffffffffffffffffffffffffffffffffffffff1673ffffffffffffffffffffffffffffffffffffffff163373ffffffffffffffffffffffffffffffffffffffff16036114645760019150611475565b8061146e90614bfa565b90506113dd565b5060011515811515146114bd576040517f08c379a00000000000000000000000000000000000000000000000000000000081526004016114b490614cb4565b60405180910390fd5b600115156114ca846138a9565b15151461150c576040517f08c379a000000000000000000000000000000000000000000000000000000000815260040161150390614db2565b60405180910390fd5b600a604051806040016040528085815260200184815250908060018154018082558091505060019003906000526020600020906002020160009091909190915060008201518160000155602082015181600101908161156b9190614f7e565b505050505050565b6015602052816000526040600020818154811061158f57600080fd5b906000526020600020016000915091505080546115ab90614b37565b80601f01602080910402602001604051908101604052809291908181526020018280546115d790614b37565b80156116245780601f106115f957610100808354040283529160200191611624565b820191906000526020600020905b81548152906001019060200180831161160757829003601f168201915b505050505081565b6000611636613c35565b60005b600d60003373ffffffffffffffffffffffffffffffffffffffff1673ffffffffffffffffffffffffffffffffffffffff16815260200190815260200160002080549050811015611a5757600d60003373ffffffffffffffffffffffffffffffffffffffff1673ffffffffffffffffffffffffffffffffffffffff16815260200190815260200160002081815481106116d4576116d3614bcb565b5b90600052602060002090600602016000015486148015611755575083600d60003373ffffffffffffffffffffffffffffffffffffffff1673ffffffffffffffffffffffffffffffffffffffff168152602001908152602001600020828154811061174157611740614bcb565b5b906000526020600020906006020160010154145b15611a44576040518060c00160405280878152602001858152602001600d60003373ffffffffffffffffffffffffffffffffffffffff1673ffffffffffffffffffffffffffffffffffffffff16815260200190815260200160002083815481106117c2576117c1614bcb565b5b906000526020600020906006020160020180546117de90614b37565b80601f016020809104026020016040519081016040528092919081815260200182805461180a90614b37565b80156118575780601f1061182c57610100808354040283529160200191611857565b820191906000526020600020905b81548152906001019060200180831161183a57829003601f168201915b50505050508152602001600d60003373ffffffffffffffffffffffffffffffffffffffff1673ffffffffffffffffffffffffffffffffffffffff16815260200190815260200160002083815481106118b2576118b1614bcb565b5b9060005260206000209060060201600301548152602001600d60003373ffffffffffffffffffffffffffffffffffffffff1673ffffffffffffffffffffffffffffffffffffffff168152602001908152602001600020838154811061191a57611919614bcb565b5b906000526020600020906006020160040160009054906101000a900460ff1615158152602001604051806020016040528060008152508152509150601060003373ffffffffffffffffffffffffffffffffffffffff1673ffffffffffffffffffffffffffffffffffffffff1681526020019081526020016000206000868152602001908152602001600020829080600181540180825580915050600190039060005260206000209060060201600090919091909150600082015181600001556020820151816001015560408201518160020190816119f89190614f7e565b506060820151816003015560808201518160040160006101000a81548160ff02191690831515021790555060a0820151816005019081611a389190614f7e565b50505060019250611a57565b8080611a4f90614bfa565b915050611639565b5081611a98576040517f08c379a0000000000000000000000000000000000000000000000000000000008152600401611a8f9061509c565b60405180910390fd5b7f6d832360504eb9202946c19cf927d8fd388a9e567a3f7d4bae3077f56ab6c1a1611ac285613910565b82604051611ad192919061514c565b60405180910390a15050505050565b60008060008373ffffffffffffffffffffffffffffffffffffffff1673ffffffffffffffffffffffffffffffffffffffff168152602001908152602001600020549050919050565b600f60003373ffffffffffffffffffffffffffffffffffffffff1673ffffffffffffffffffffffffffffffffffffffff1681526020019081526020016000206040518060400160405280848152602001838152509080600181540180825580915050600190039060005260206000209060020201600090919091909150600082015181600001556020820151816001019081611bc49190614f7e565b5050507ff538047aa51f8b732c1850d69564ec0d033aca661921dba9871bf8feff7a435f8282604051611bf8929190614169565b60405180910390a15050565b60116020528260005260406000206020528160005260406000208181548110611c2c57600080fd5b90600052602060002090600202016000925092505050806000015490806001018054611c5790614b37565b80601f0160208091040260200160405190810160405280929190818152602001828054611c8390614b37565b8015611cd05780601f10611ca557610100808354040283529160200191611cd0565b820191906000526020600020905b815481529060010190602001808311611cb357829003601f168201915b5050505050905082565b606060005b600a80549050811015611e9a57600a8181548110611d0057611cff614bcb565b5b9060005260206000209060020201600001548403611e8957600a8181548110611d2c57611d2b614bcb565b5b90600052602060002090600202016001018054611d4890614b37565b80601f0160208091040260200160405190810160405280929190818152602001828054611d7490614b37565b8015611dc15780601f10611d9657610100808354040283529160200191611dc1565b820191906000526020600020905b815481529060010190602001808311611da457829003601f168201915b50505050509150601160003373ffffffffffffffffffffffffffffffffffffffff1673ffffffffffffffffffffffffffffffffffffffff1681526020019081526020016000206000848152602001908152602001600020600a8281548110611e2c57611e2b614bcb565b5b906000526020600020906002020190806001815401808255809150506001900390600052602060002090600202016000909190919091506000820154816000015560018201816001019081611e819190615199565b505050611e9a565b80611e9390614bfa565b9050611cdf565b507fd7946cbb0489e47c8c2faf56dc8b80b813314d02e6b57537c75f27e3706b76c481611ec685613910565b604051611ed4929190615281565b60405180910390a1505050565b6060600a805480602002602001604051908101604052809291908181526020016000905b82821015611fd3578382906000526020600020906002020160405180604001604052908160008201548152602001600182018054611f4290614b37565b80601f0160208091040260200160405190810160405280929190818152602001828054611f6e90614b37565b8015611fbb5780601f10611f9057610100808354040283529160200191611fbb565b820191906000526020600020905b815481529060010190602001808311611f9e57829003601f168201915b50505050508152505081526020019060010190611f05565b50505050905090565b600080600090505b600980549050811015612079576009818154811061200557612004614bcb565b5b906000526020600020906002020160000154830361206657600115156009828154811061203557612034614bcb565b5b906000526020600020906002020160010160009054906101000a900460ff1615150361206557600091505061207f565b5b808061207190614bfa565b915050611fe4565b50600190505b919050565b60606004805461209390614b37565b80601f01602080910402602001604051908101604052809291908181526020018280546120bf90614b37565b801561210c5780601f106120e15761010080835404028352916020019161210c565b820191906000526020600020905b8154815290600101906020018083116120ef57829003601f168201915b5050505050905090565b600080600080612125856122b6565b9250925092506001868285856040516000815260200160405260405161214e94939291906152b8565b6020604051602081039080840390855afa158015612170573d6000803e3d6000fd5b50505060206040510351935050505092915050565b600080600090505b6009805490508110156121e357600981815481106121ae576121ad614bcb565b5b90600052602060002090600202016000015483036121d05760009150506121e9565b80806121db90614bfa565b91505061218d565b50600190505b919050565b60136020528060005260406000206000915090505481565b60008484848460405160200161221f94939291906153a2565b604051602081830303815290604052805190602001209050949350505050565b60008061224a6133d6565b905060006122588286612bb2565b90508381101561229d576040517f08c379a00000000000000000000000000000000000000000000000000000000081526004016122949061545e565b60405180910390fd5b6122aa82868684036133de565b60019250505092915050565b600080600060418451146122ff576040517f08c379a00000000000000000000000000000000000000000000000000000000081526004016122f6906154ca565b60405180910390fd5b6020840151925060408401519150606084015160001a90509193909250565b6000806123296133d6565b9050612336818585613633565b600191505092915050565b60008061235087878787612206565b9050600061235d826133a6565b90508873ffffffffffffffffffffffffffffffffffffffff166123808286612116565b73ffffffffffffffffffffffffffffffffffffffff1614925050509695505050505050565b60005b600d60003373ffffffffffffffffffffffffffffffffffffffff1673ffffffffffffffffffffffffffffffffffffffff168152602001908152602001600020805490508110156126eb57600d60003373ffffffffffffffffffffffffffffffffffffffff1673ffffffffffffffffffffffffffffffffffffffff168152602001908152602001600020818154811061244357612442614bcb565b5b90600052602060002090600602016001015485036126d85760001515600d60003373ffffffffffffffffffffffffffffffffffffffff1673ffffffffffffffffffffffffffffffffffffffff16815260200190815260200160002082815481106124b0576124af614bcb565b5b906000526020600020906006020160040160009054906101000a900460ff16151514612511576040517f08c379a000000000000000000000000000000000000000000000000000000000815260040161250890615536565b60405180910390fd5b83600d60003373ffffffffffffffffffffffffffffffffffffffff1673ffffffffffffffffffffffffffffffffffffffff168152602001908152602001600020828154811061256357612562614bcb565b5b906000526020600020906006020160020190816125809190614f7e565b5082600d60003373ffffffffffffffffffffffffffffffffffffffff1673ffffffffffffffffffffffffffffffffffffffff16815260200190815260200160002082815481106125d3576125d2614bcb565b5b9060005260206000209060060201600301819055506001600d60003373ffffffffffffffffffffffffffffffffffffffff1673ffffffffffffffffffffffffffffffffffffffff168152602001908152602001600020828154811061263b5761263a614bcb565b5b906000526020600020906006020160040160006101000a81548160ff02191690831515021790555081600d60003373ffffffffffffffffffffffffffffffffffffffff1673ffffffffffffffffffffffffffffffffffffffff16815260200190815260200160002082815481106126b5576126b4614bcb565b5b906000526020600020906006020160050190816126d29190614f7e565b506126eb565b80806126e390614bfa565b9150506123a8565b5060156000868152602001908152602001600020839080600181540180825580915050600190039060005260206000200160009091909190915090816127319190614f7e565b506014600086815260200190815260200160002082908060018154018082558091505060019003906000526020600020016000909190919091505560136000868152602001908152602001600020600081548092919061279090614bfa565b91905055505050505050565b6000805b60068054905081101561283857600681815481106127c1576127c0614bcb565b5b9060005260206000200160009054906101000a900473ffffffffffffffffffffffffffffffffffffffff1673ffffffffffffffffffffffffffffffffffffffff163373ffffffffffffffffffffffffffffffffffffffff16036128275760019150612838565b8061283190614bfa565b90506127a0565b506001151581151514612880576040517f08c379a000000000000000000000000000000000000000000000000000000000815260040161287790614cb4565b60405180910390fd5b61288982612185565b6128c8576040517f08c379a00000000000000000000000000000000000000000000000000000000081526004016128bf906155a2565b60405180910390fd5b600960405180604001604052808481526020016000151581525090806001815401808255809150506001900390600052602060002090600202016000909190919091506000820151816000015560208201518160010160006101000a81548160ff02191690831515021790555050505050565b6000806040518060400160405280601c81526020017f19457468657265756d205369676e6564204d6573736167653a0a33320000000081525090506000818760405160200161298b92919061562a565b6040516020818303038152906040528051906020012090506000600182888888604051600081526020016040526040516129c894939291906152b8565b6020604051602081039080840390855afa1580156129ea573d6000803e3d6000fd5b505050602060405103519050600560009054906101000a900473ffffffffffffffffffffffffffffffffffffffff1673ffffffffffffffffffffffffffffffffffffffff168173ffffffffffffffffffffffffffffffffffffffff1603612a575760019350505050612a5f565b600093505050505b949350505050565b6060601160003373ffffffffffffffffffffffffffffffffffffffff1673ffffffffffffffffffffffffffffffffffffffff1681526020019081526020016000206000838152602001908152602001600020805480602002602001604051908101604052809291908181526020016000905b82821015612ba7578382906000526020600020906002020160405180604001604052908160008201548152602001600182018054612b1690614b37565b80601f0160208091040260200160405190810160405280929190818152602001828054612b4290614b37565b8015612b8f5780601f10612b6457610100808354040283529160200191612b8f565b820191906000526020600020905b815481529060010190602001808311612b7257829003601f168201915b50505050508152505081526020019060010190612ad9565b505050509050919050565b6000600160008473ffffffffffffffffffffffffffffffffffffffff1673ffffffffffffffffffffffffffffffffffffffff16815260200190815260200160002060008373ffffffffffffffffffffffffffffffffffffffff1673ffffffffffffffffffffffffffffffffffffffff16815260200190815260200160002054905092915050565b612c47868686868686612341565b15612c5957612c58856103e8613ad5565b5b505050505050565b600060405180608001604052808481526020018381526020016001151581526020013373ffffffffffffffffffffffffffffffffffffffff16815250905082600c60003373ffffffffffffffffffffffffffffffffffffffff1673ffffffffffffffffffffffffffffffffffffffff1681526020019081526020016000206000019081612cee9190614f7e565b5081600c60003373ffffffffffffffffffffffffffffffffffffffff1673ffffffffffffffffffffffffffffffffffffffff1681526020019081526020016000206001018190555033600c60003373ffffffffffffffffffffffffffffffffffffffff1673ffffffffffffffffffffffffffffffffffffffff16815260200190815260200160002060020160016101000a81548173ffffffffffffffffffffffffffffffffffffffff021916908373ffffffffffffffffffffffffffffffffffffffff160217905550600c60003373ffffffffffffffffffffffffffffffffffffffff1673ffffffffffffffffffffffffffffffffffffffff16815260200190815260200160002060020160009054906101000a900460ff16612f1c57600b8190806001815401808255809150506001900390600052602060002090600302016000909190919091506000820151816000019081612e4c9190614f7e565b506020820151816001015560408201518160020160006101000a81548160ff02191690831515021790555060608201518160020160016101000a81548173ffffffffffffffffffffffffffffffffffffffff021916908373ffffffffffffffffffffffffffffffffffffffff16021790555050506001600c60003373ffffffffffffffffffffffffffffffffffffffff1673ffffffffffffffffffffffffffffffffffffffff16815260200190815260200160002060020160006101000a81548160ff0219169083151502179055505b7ff9aabaa28b0c7b9b6a80283c8b8fd6983df8e2c5703e65ee433dbbd7373062688383604051612f4d929190615652565b60405180910390a1505050565b60146020528160005260406000208181548110612f7657600080fd5b90600052602060002001600091509150505481565b60106020528260005260406000206020528160005260406000208181548110612fb357600080fd5b90600052602060002090600602016000925092505050806000015490806001015490806002018054612fe490614b37565b80601f016020809104026020016040519081016040528092919081815260200182805461301090614b37565b801561305d5780601f106130325761010080835404028352916020019161305d565b820191906000526020600020905b81548152906001019060200180831161304057829003601f168201915b5050505050908060030154908060040160009054906101000a900460ff169080600501805461308b90614b37565b80601f01602080910402602001604051908101604052809291908181526020018280546130b790614b37565b80156131045780601f106130d957610100808354040283529160200191613104565b820191906000526020600020905b8154815290600101906020018083116130e757829003601f168201915b5050505050905086565b6000805b600980549050811015613214576009818154811061313357613132614bcb565b5b9060005260206000209060020201600001548403613201576009818154811061315f5761315e614bcb565b5b906000526020600020906002020160010160009054906101000a900460ff16156131be576040517f08c379a00000000000000000000000000000000000000000000000000000000081526004016131b5906156ce565b60405180910390fd5b600191506001600982815481106131d8576131d7614bcb565b5b906000526020600020906002020160010160006101000a81548160ff0219169083151502179055505b808061320c90614bfa565b915050613112565b5060126000838152602001908152602001600020600081548092919061323990614bfa565b9190505550600d60003373ffffffffffffffffffffffffffffffffffffffff1673ffffffffffffffffffffffffffffffffffffffff1681526020019081526020016000206040518060c00160405280848152602001428152602001604051806020016040528060008152508152602001600081526020016000151581526020016040518060200160405280600081525081525090806001815401808255809150506001900390600052602060002090600602016000909190919091506000820151816000015560208201518160010155604082015181600201908161331e9190614f7e565b506060820151816003015560808201518160040160006101000a81548160ff02191690831515021790555060a082015181600501908161335e9190614f7e565b5050507ff165997b5f1d2b5ae2f43279fc978111209309fd44e04343b1ffd71915e62ab583836040516133929291906156ee565b60405180910390a1505050565b6000919050565b6000816040516020016133b99190615763565b604051602081830303815290604052805190602001209050919050565b600033905090565b600073ffffffffffffffffffffffffffffffffffffffff168373ffffffffffffffffffffffffffffffffffffffff160361344d576040517f08c379a0000000000000000000000000000000000000000000000000000000008152600401613444906157fb565b60405180910390fd5b600073ffffffffffffffffffffffffffffffffffffffff168273ffffffffffffffffffffffffffffffffffffffff16036134bc576040517f08c379a00000000000000000000000000000000000000000000000000000000081526004016134b39061588d565b60405180910390fd5b80600160008573ffffffffffffffffffffffffffffffffffffffff1673ffffffffffffffffffffffffffffffffffffffff16815260200190815260200160002060008473ffffffffffffffffffffffffffffffffffffffff1673ffffffffffffffffffffffffffffffffffffffff168152602001908152602001600020819055508173ffffffffffffffffffffffffffffffffffffffff168373ffffffffffffffffffffffffffffffffffffffff167f8c5be1e5ebec7d5bd14f71427d1e84f3dd0314c0f7b2291e5b200ac8c7c3b9258360405161359a9190614028565b60405180910390a3505050565b60006135b38484612bb2565b90507fffffffffffffffffffffffffffffffffffffffffffffffffffffffffffffffff811461362d578181101561361f576040517f08c379a0000000000000000000000000000000000000000000000000000000008152600401613616906158f9565b60405180910390fd5b61362c84848484036133de565b5b50505050565b600073ffffffffffffffffffffffffffffffffffffffff168373ffffffffffffffffffffffffffffffffffffffff16036136a2576040517f08c379a00000000000000000000000000000000000000000000000000000000081526004016136999061598b565b60405180910390fd5b600073ffffffffffffffffffffffffffffffffffffffff168273ffffffffffffffffffffffffffffffffffffffff1603613711576040517f08c379a000000000000000000000000000000000000000000000000000000000815260040161370890615a1d565b60405180910390fd5b61371c838383613c2b565b60008060008573ffffffffffffffffffffffffffffffffffffffff1673ffffffffffffffffffffffffffffffffffffffff168152602001908152602001600020549050818110156137a2576040517f08c379a000000000000000000000000000000000000000000000000000000000815260040161379990615aaf565b60405180910390fd5b8181036000808673ffffffffffffffffffffffffffffffffffffffff1673ffffffffffffffffffffffffffffffffffffffff16815260200190815260200160002081905550816000808573ffffffffffffffffffffffffffffffffffffffff1673ffffffffffffffffffffffffffffffffffffffff168152602001908152602001600020600082825401925050819055508273ffffffffffffffffffffffffffffffffffffffff168473ffffffffffffffffffffffffffffffffffffffff167fddf252ad1be2c89b69c2b068fc378daa952ba7f163c4a11628f55a4df523b3ef846040516138909190614028565b60405180910390a36138a3848484613c30565b50505050565b600080600090505b600a8054905081101561390557600a81815481106138d2576138d1614bcb565b5b90600052602060002090600202016000015483036138f457600091505061390b565b806138fe90614bfa565b90506138b1565b50600190505b919050565b606060005b600f60003373ffffffffffffffffffffffffffffffffffffffff1673ffffffffffffffffffffffffffffffffffffffff16815260200190815260200160002080549050811015613ace57600f60003373ffffffffffffffffffffffffffffffffffffffff1673ffffffffffffffffffffffffffffffffffffffff16815260200190815260200160002081815481106139b0576139af614bcb565b5b9060005260206000209060020201600001548303613abb57600f60003373ffffffffffffffffffffffffffffffffffffffff1673ffffffffffffffffffffffffffffffffffffffff1681526020019081526020016000208181548110613a1957613a18614bcb565b5b90600052602060002090600202016001018054613a3590614b37565b80601f0160208091040260200160405190810160405280929190818152602001828054613a6190614b37565b8015613aae5780601f10613a8357610100808354040283529160200191613aae565b820191906000526020600020905b815481529060010190602001808311613a9157829003601f168201915b5050505050915050613ad0565b8080613ac690614bfa565b915050613915565b505b919050565b600073ffffffffffffffffffffffffffffffffffffffff168273ffffffffffffffffffffffffffffffffffffffff1603613b44576040517f08c379a0000000000000000000000000000000000000000000000000000000008152600401613b3b90615b1b565b60405180910390fd5b613b5060008383613c2b565b8060026000828254613b629190614b97565b92505081905550806000808473ffffffffffffffffffffffffffffffffffffffff1673ffffffffffffffffffffffffffffffffffffffff168152602001908152602001600020600082825401925050819055508173ffffffffffffffffffffffffffffffffffffffff16600073ffffffffffffffffffffffffffffffffffffffff167fddf252ad1be2c89b69c2b068fc378daa952ba7f163c4a11628f55a4df523b3ef83604051613c139190614028565b60405180910390a3613c2760008383613c30565b5050565b505050565b505050565b6040518060c0016040528060008152602001600081526020016060815260200160008152602001600015158152602001606081525090565b600081519050919050565b600082825260208201905092915050565b60005b83811015613ca7578082015181840152602081019050613c8c565b60008484015250505050565b6000601f19601f8301169050919050565b6000613ccf82613c6d565b613cd98185613c78565b9350613ce9818560208601613c89565b613cf281613cb3565b840191505092915050565b60006020820190508181036000830152613d178184613cc4565b905092915050565b6000604051905090565b600080fd5b600080fd5b600073ffffffffffffffffffffffffffffffffffffffff82169050919050565b6000613d5e82613d33565b9050919050565b613d6e81613d53565b8114613d7957600080fd5b50565b600081359050613d8b81613d65565b92915050565b6000819050919050565b613da481613d91565b8114613daf57600080fd5b50565b600081359050613dc181613d9b565b92915050565b60008060408385031215613dde57613ddd613d29565b5b6000613dec85828601613d7c565b9250506020613dfd85828601613db2565b9150509250929050565b60008115159050919050565b613e1c81613e07565b82525050565b6000602082019050613e376000830184613e13565b92915050565b600081519050919050565b600082825260208201905092915050565b6000819050602082019050919050565b613e7281613d91565b82525050565b600082825260208201905092915050565b6000613e9482613c6d565b613e9e8185613e78565b9350613eae818560208601613c89565b613eb781613cb3565b840191505092915050565b613ecb81613e07565b82525050565b600060c083016000830151613ee96000860182613e69565b506020830151613efc6020860182613e69565b5060408301518482036040860152613f148282613e89565b9150506060830151613f296060860182613e69565b506080830151613f3c6080860182613ec2565b5060a083015184820360a0860152613f548282613e89565b9150508091505092915050565b6000613f6d8383613ed1565b905092915050565b6000602082019050919050565b6000613f8d82613e3d565b613f978185613e48565b935083602082028501613fa985613e59565b8060005b85811015613fe55784840389528151613fc68582613f61565b9450613fd183613f75565b925060208a01995050600181019050613fad565b50829750879550505050505092915050565b600060208201905081810360008301526140118184613f82565b905092915050565b61402281613d91565b82525050565b600060208201905061403d6000830184614019565b92915050565b60008060006060848603121561405c5761405b613d29565b5b600061406a86828701613d7c565b935050602061407b86828701613d7c565b925050604061408c86828701613db2565b9150509250925092565b6000602082840312156140ac576140ab613d29565b5b60006140ba84828501613db2565b91505092915050565b600060ff82169050919050565b6140d9816140c3565b82525050565b60006020820190506140f460008301846140d0565b92915050565b600060c08201905061410f6000830189614019565b61411c6020830188614019565b818103604083015261412e8187613cc4565b905061413d6060830186614019565b61414a6080830185613e13565b81810360a083015261415c8184613cc4565b9050979650505050505050565b600060408201905061417e6000830185614019565b81810360208301526141908184613cc4565b90509392505050565b6000602082840312156141af576141ae613d29565b5b60006141bd84828501613d7c565b91505092915050565b6141cf81613d53565b82525050565b600060808201905081810360008301526141ef8187613cc4565b90506141fe6020830186614019565b61420b6040830185613e13565b61421860608301846141c6565b95945050505050565b600080fd5b600080fd5b7f4e487b7100000000000000000000000000000000000000000000000000000000600052604160045260246000fd5b61426382613cb3565b810181811067ffffffffffffffff821117156142825761428161422b565b5b80604052505050565b6000614295613d1f565b90506142a1828261425a565b919050565b600067ffffffffffffffff8211156142c1576142c061422b565b5b6142ca82613cb3565b9050602081019050919050565b82818337600083830152505050565b60006142f96142f4846142a6565b61428b565b90508281526020810184848401111561431557614314614226565b5b6143208482856142d7565b509392505050565b600082601f83011261433d5761433c614221565b5b813561434d8482602086016142e6565b91505092915050565b6000806040838503121561436d5761436c613d29565b5b600061437b85828601613db2565b925050602083013567ffffffffffffffff81111561439c5761439b613d2e565b5b6143a885828601614328565b9150509250929050565b600080604083850312156143c9576143c8613d29565b5b60006143d785828601613db2565b92505060206143e885828601613db2565b9150509250929050565b60008060006060848603121561440b5761440a613d29565b5b600061441986828701613db2565b935050602061442a86828701613db2565b925050604061443b86828701613db2565b9150509250925092565b60008060006060848603121561445e5761445d613d29565b5b600061446c86828701613d7c565b935050602061447d86828701613db2565b925050604061448e86828701613db2565b9150509250925092565b600081519050919050565b600082825260208201905092915050565b6000819050602082019050919050565b60006040830160008301516144dc6000860182613e69565b50602083015184820360208601526144f48282613e89565b9150508091505092915050565b600061450d83836144c4565b905092915050565b6000602082019050919050565b600061452d82614498565b61453781856144a3565b935083602082028501614549856144b4565b8060005b8581101561458557848403895281516145668582614501565b945061457183614515565b925060208a0199505060018101905061454d565b50829750879550505050505092915050565b600060208201905081810360008301526145b18184614522565b905092915050565b6000819050919050565b6145cc816145b9565b81146145d757600080fd5b50565b6000813590506145e9816145c3565b92915050565b600067ffffffffffffffff82111561460a5761460961422b565b5b61461382613cb3565b9050602081019050919050565b600061463361462e846145ef565b61428b565b90508281526020810184848401111561464f5761464e614226565b5b61465a8482856142d7565b509392505050565b600082601f83011261467757614676614221565b5b8135614687848260208601614620565b91505092915050565b600080604083850312156146a7576146a6613d29565b5b60006146b5858286016145da565b925050602083013567ffffffffffffffff8111156146d6576146d5613d2e565b5b6146e285828601614662565b9150509250929050565b600060208201905061470160008301846141c6565b92915050565b6000806000806080858703121561472157614720613d29565b5b600061472f87828801613d7c565b945050602061474087828801613db2565b935050604085013567ffffffffffffffff81111561476157614760613d2e565b5b61476d87828801614328565b925050606061477e87828801613db2565b91505092959194509250565b614793816145b9565b82525050565b60006020820190506147ae600083018461478a565b92915050565b6000602082840312156147ca576147c9613d29565b5b600082013567ffffffffffffffff8111156147e8576147e7613d2e565b5b6147f484828501614662565b91505092915050565b6000606082019050614812600083018661478a565b61481f602083018561478a565b61482c60408301846140d0565b949350505050565b60008060008060008060c0878903121561485157614850613d29565b5b600061485f89828a01613d7c565b965050602061487089828a01613d7c565b955050604061488189828a01613db2565b945050606087013567ffffffffffffffff8111156148a2576148a1613d2e565b5b6148ae89828a01614328565b93505060806148bf89828a01613db2565b92505060a087013567ffffffffffffffff8111156148e0576148df613d2e565b5b6148ec89828a01614662565b9150509295509295509295565b600080600080600060a0868803121561491557614914613d29565b5b600061492388828901613db2565b955050602061493488828901613db2565b945050604086013567ffffffffffffffff81111561495557614954613d2e565b5b61496188828901614328565b935050606061497288828901613db2565b925050608086013567ffffffffffffffff81111561499357614992613d2e565b5b61499f88828901614328565b9150509295509295909350565b6149b5816140c3565b81146149c057600080fd5b50565b6000813590506149d2816149ac565b92915050565b600080600080608085870312156149f2576149f1613d29565b5b6000614a00878288016145da565b9450506020614a11878288016149c3565b9350506040614a22878288016145da565b9250506060614a33878288016145da565b91505092959194509250565b60008060408385031215614a5657614a55613d29565b5b6000614a6485828601613d7c565b9250506020614a7585828601613d7c565b9150509250929050565b60008060408385031215614a9657614a95613d29565b5b600083013567ffffffffffffffff811115614ab457614ab3613d2e565b5b614ac085828601614328565b9250506020614ad185828601613db2565b9150509250929050565b600060208284031215614af157614af0613d29565b5b6000614aff848285016145da565b91505092915050565b7f4e487b7100000000000000000000000000000000000000000000000000000000600052602260045260246000fd5b60006002820490506001821680614b4f57607f821691505b602082108103614b6257614b61614b08565b5b50919050565b7f4e487b7100000000000000000000000000000000000000000000000000000000600052601160045260246000fd5b6000614ba282613d91565b9150614bad83613d91565b9250828201905080821115614bc557614bc4614b68565b5b92915050565b7f4e487b7100000000000000000000000000000000000000000000000000000000600052603260045260246000fd5b6000614c0582613d91565b91507fffffffffffffffffffffffffffffffffffffffffffffffffffffffffffffffff8203614c3757614c36614b68565b5b600182019050919050565b7f4f6e6c792061646d696e2063616e2063616c6c20746869732066756e6374696f60008201527f6e00000000000000000000000000000000000000000000000000000000000000602082015250565b6000614c9e602183613c78565b9150614ca982614c42565b604082019050919050565b60006020820190508181036000830152614ccd81614c91565b9050919050565b7f496e76616c696420726f6c652c206f6e6c792061646d696e206f72207365727660008201527f696365207375697461626c652e00000000000000000000000000000000000000602082015250565b6000614d30602d83613c78565b9150614d3b82614cd4565b604082019050919050565b60006020820190508181036000830152614d5f81614d23565b9050919050565b7f496e64657820686173206265656e20616c726561647920657869737465640000600082015250565b6000614d9c601e83613c78565b9150614da782614d66565b602082019050919050565b60006020820190508181036000830152614dcb81614d8f565b9050919050565b60008190508160005260206000209050919050565b60006020601f8301049050919050565b600082821b905092915050565b600060088302614e347fffffffffffffffffffffffffffffffffffffffffffffffffffffffffffffffff82614df7565b614e3e8683614df7565b95508019841693508086168417925050509392505050565b6000819050919050565b6000614e7b614e76614e7184613d91565b614e56565b613d91565b9050919050565b6000819050919050565b614e9583614e60565b614ea9614ea182614e82565b848454614e04565b825550505050565b600090565b614ebe614eb1565b614ec9818484614e8c565b505050565b5b81811015614eed57614ee2600082614eb6565b600181019050614ecf565b5050565b601f821115614f3257614f0381614dd2565b614f0c84614de7565b81016020851015614f1b578190505b614f2f614f2785614de7565b830182614ece565b50505b505050565b600082821c905092915050565b6000614f5560001984600802614f37565b1980831691505092915050565b6000614f6e8383614f44565b9150826002028217905092915050565b614f8782613c6d565b67ffffffffffffffff811115614fa057614f9f61422b565b5b614faa8254614b37565b614fb5828285614ef1565b600060209050601f831160018114614fe85760008415614fd6578287015190505b614fe08582614f62565b865550615048565b601f198416614ff686614dd2565b60005b8281101561501e57848901518255600182019150602085019450602081019050614ff9565b8683101561503b5784890151615037601f891682614f44565b8355505b6001600288020188555050505b505050505050565b7f546869732044657374696e6174696f6e20776173206e6f7420636865636b696e600082015250565b6000615086602083613c78565b915061509182615050565b602082019050919050565b600060208201905081810360008301526150b581615079565b9050919050565b600060c0830160008301516150d46000860182613e69565b5060208301516150e76020860182613e69565b50604083015184820360408601526150ff8282613e89565b91505060608301516151146060860182613e69565b5060808301516151276080860182613ec2565b5060a083015184820360a086015261513f8282613e89565b9150508091505092915050565b600060408201905081810360008301526151668185613cc4565b9050818103602083015261517a81846150bc565b90509392505050565b60008154905061519281614b37565b9050919050565b8181036151a757505061527f565b6151b082615183565b67ffffffffffffffff8111156151c9576151c861422b565b5b6151d38254614b37565b6151de828285614ef1565b6000601f83116001811461520d57600084156151fb578287015490505b6152058582614f62565b865550615278565b601f19841661521b87614dd2565b965061522686614dd2565b60005b8281101561524e57848901548255600182019150600185019450602081019050615229565b8683101561526b5784890154615267601f891682614f44565b8355505b6001600288020188555050505b5050505050505b565b6000604082019050818103600083015261529b8185613cc4565b905081810360208301526152af8184613cc4565b90509392505050565b60006080820190506152cd600083018761478a565b6152da60208301866140d0565b6152e7604083018561478a565b6152f4606083018461478a565b95945050505050565b60008160601b9050919050565b6000615315826152fd565b9050919050565b60006153278261530a565b9050919050565b61533f61533a82613d53565b61531c565b82525050565b6000819050919050565b61536061535b82613d91565b615345565b82525050565b600081905092915050565b600061537c82613c6d565b6153868185615366565b9350615396818560208601613c89565b80840191505092915050565b60006153ae828761532e565b6014820191506153be828661534f565b6020820191506153ce8285615371565b91506153da828461534f565b60208201915081905095945050505050565b7f45524332303a2064656372656173656420616c6c6f77616e63652062656c6f7760008201527f207a65726f000000000000000000000000000000000000000000000000000000602082015250565b6000615448602583613c78565b9150615453826153ec565b604082019050919050565b600060208201905081810360008301526154778161543b565b9050919050565b7f696e76616c6964207369676e6174757265206c656e6774680000000000000000600082015250565b60006154b4601883613c78565b91506154bf8261547e565b602082019050919050565b600060208201905081810360008301526154e3816154a7565b9050919050565b7f596f7520686164206265656e2072657669657765642074686973207472697000600082015250565b6000615520601f83613c78565b915061552b826154ea565b602082019050919050565b6000602082019050818103600083015261554f81615513565b9050919050565b7f5468697320494420616c72656164792065786973746564000000000000000000600082015250565b600061558c601783613c78565b915061559782615556565b602082019050919050565b600060208201905081810360008301526155bb8161557f565b9050919050565b600081519050919050565b600081905092915050565b60006155e3826155c2565b6155ed81856155cd565b93506155fd818560208601613c89565b80840191505092915050565b6000819050919050565b61562461561f826145b9565b615609565b82525050565b600061563682856155d8565b91506156428284615613565b6020820191508190509392505050565b6000604082019050818103600083015261566c8185613cc4565b905061567b6020830184614019565b9392505050565b7f5469636b65742068617320757365640000000000000000000000000000000000600082015250565b60006156b8600f83613c78565b91506156c382615682565b602082019050919050565b600060208201905081810360008301526156e7816156ab565b9050919050565b60006040820190506157036000830185614019565b6157106020830184614019565b9392505050565b7f19457468657265756d205369676e6564204d6573736167653a0a333200000000600082015250565b600061574d601c83615366565b915061575882615717565b601c82019050919050565b600061576e82615740565b915061577a8284615613565b60208201915081905092915050565b7f45524332303a20617070726f76652066726f6d20746865207a65726f2061646460008201527f7265737300000000000000000000000000000000000000000000000000000000602082015250565b60006157e5602483613c78565b91506157f082615789565b604082019050919050565b60006020820190508181036000830152615814816157d8565b9050919050565b7f45524332303a20617070726f766520746f20746865207a65726f20616464726560008201527f7373000000000000000000000000000000000000000000000000000000000000602082015250565b6000615877602283613c78565b91506158828261581b565b604082019050919050565b600060208201905081810360008301526158a68161586a565b9050919050565b7f45524332303a20696e73756666696369656e7420616c6c6f77616e6365000000600082015250565b60006158e3601d83613c78565b91506158ee826158ad565b602082019050919050565b60006020820190508181036000830152615912816158d6565b9050919050565b7f45524332303a207472616e736665722066726f6d20746865207a65726f20616460008201527f6472657373000000000000000000000000000000000000000000000000000000602082015250565b6000615975602583613c78565b915061598082615919565b604082019050919050565b600060208201905081810360008301526159a481615968565b9050919050565b7f45524332303a207472616e7366657220746f20746865207a65726f206164647260008201527f6573730000000000000000000000000000000000000000000000000000000000602082015250565b6000615a07602383613c78565b9150615a12826159ab565b604082019050919050565b60006020820190508181036000830152615a36816159fa565b9050919050565b7f45524332303a207472616e7366657220616d6f756e742065786365656473206260008201527f616c616e63650000000000000000000000000000000000000000000000000000602082015250565b6000615a99602683613c78565b9150615aa482615a3d565b604082019050919050565b60006020820190508181036000830152615ac881615a8c565b9050919050565b7f45524332303a206d696e7420746f20746865207a65726f206164647265737300600082015250565b6000615b05601f83613c78565b9150615b1082615acf565b602082019050919050565b60006020820190508181036000830152615b3481615af8565b905091905056fea2646970667358221220dc8cf0a35288e3b5423638903a31c96c20606a55c6e505e0919d7398c0c6c15e64736f6c634300081300334b68c3a163682053e1baa16e20546865204c757865204368c3a27520c490e1bb91632028546865204c75786520486f74656c204368617520446f63295175c3a16e206ec6b0e1bb9b6e672033363820285468c3a06e68207068e1bb91204c6f6e6720587579c3aa6e2942c3a16e682062c3b220c39a742044e1bba9742028487579e1bb876e20416e205068c3ba294c6974746c652053c3a0692047c3b26e20486f7374656c20284c6974746c6520536169676f6e20486f7374656c294ce1baa975206de1baaf6d204869e1babf75204d69c3aa6e6e20285468c3a06e68207068e1bb91204c6f6e6720587579c3aa6e294c6f7474652043696e656d61204de1bbb92042c3ac6e68204c6f6e6720587579c3aa6e5175c3a16e2062c3b22054c6b020546869c3aa6e6720285468c3a06e68207068e1bb91204368c3a27520c490e1bb916329",
  "linkReferences": {},
  "deployedLinkReferences": {}
}