{
  "_format": "hh-sol-artifact-1",
  "contractName": "TouristConTract",
  "sourceName": "contracts/Tourism.sol",
  "abi": [
    {
      "inputs": [],
      "stateMutability": "nonpayable",
      "type": "constructor"
    },
    {
      "anonymous": false,
      "inputs": [
        {
          "indexed": false,
          "internalType": "string",
          "name": "AlbumName",
          "type": "string"
        },
        {
          "components": [
            {
              "internalType": "uint256",
              "name": "tripId",
              "type": "uint256"
            },
            {
              "internalType": "uint256",
              "name": "placeId",
              "type": "uint256"
            },
            {
              "internalType": "uint256",
              "name": "arrivalDate",
              "type": "uint256"
            },
            {
              "internalType": "string",
              "name": "review",
              "type": "string"
            },
            {
              "internalType": "uint256",
              "name": "rate",
              "type": "uint256"
            },
            {
              "internalType": "bool",
              "name": "isReview",
              "type": "bool"
            },
            {
              "internalType": "string",
              "name": "title",
              "type": "string"
            }
          ],
          "indexed": false,
          "internalType": "struct TouristConTract.Journey",
          "name": "journey",
          "type": "tuple"
        }
      ],
      "name": "AddJourneyInAlbum",
      "type": "event"
    },
    {
      "anonymous": false,
      "inputs": [
        {
          "indexed": false,
          "internalType": "string",
          "name": "name",
          "type": "string"
        },
        {
          "indexed": false,
          "internalType": "uint256",
          "name": "age",
          "type": "uint256"
        }
      ],
      "name": "AddTourist",
      "type": "event"
    },
    {
      "anonymous": false,
      "inputs": [
        {
          "indexed": true,
          "internalType": "address",
          "name": "owner",
          "type": "address"
        },
        {
          "indexed": true,
          "internalType": "address",
          "name": "spender",
          "type": "address"
        },
        {
          "indexed": false,
          "internalType": "uint256",
          "name": "value",
          "type": "uint256"
        }
      ],
      "name": "Approval",
      "type": "event"
    },
    {
      "anonymous": false,
      "inputs": [
        {
          "indexed": false,
          "internalType": "uint256",
          "name": "ticketId",
          "type": "uint256"
        },
        {
          "indexed": false,
          "internalType": "uint256",
          "name": "placeId",
          "type": "uint256"
        }
      ],
      "name": "CheckIn",
      "type": "event"
    },
    {
      "anonymous": false,
      "inputs": [
        {
          "indexed": false,
          "internalType": "uint256",
          "name": "_id",
          "type": "uint256"
        },
        {
          "indexed": false,
          "internalType": "string",
          "name": "_name",
          "type": "string"
        }
      ],
      "name": "CreateAlbum",
      "type": "event"
    },
    {
      "anonymous": false,
      "inputs": [
        {
          "indexed": true,
          "internalType": "address",
          "name": "from",
          "type": "address"
        },
        {
          "indexed": true,
          "internalType": "address",
          "name": "to",
          "type": "address"
        },
        {
          "indexed": false,
          "internalType": "uint256",
          "name": "value",
          "type": "uint256"
        }
      ],
      "name": "Transfer",
      "type": "event"
    },
    {
      "inputs": [
        {
          "internalType": "address",
          "name": "_signer",
          "type": "address"
        },
        {
          "internalType": "address",
          "name": "_to",
          "type": "address"
        },
        {
          "internalType": "uint256",
          "name": "_amount",
          "type": "uint256"
        },
        {
          "internalType": "string",
          "name": "_message",
          "type": "string"
        },
        {
          "internalType": "uint256",
          "name": "_nonce",
          "type": "uint256"
        },
        {
          "internalType": "bytes",
          "name": "signature",
          "type": "bytes"
        }
      ],
      "name": "_mintMinerReward",
      "outputs": [],
      "stateMutability": "nonpayable",
      "type": "function"
    },
    {
      "inputs": [
        {
          "internalType": "uint256",
          "name": "placeId",
          "type": "uint256"
        },
        {
          "internalType": "uint256",
          "name": "albumId",
          "type": "uint256"
        },
        {
          "internalType": "uint256",
          "name": "date",
          "type": "uint256"
        }
      ],
      "name": "addAlbumJourney",
      "outputs": [],
      "stateMutability": "nonpayable",
      "type": "function"
    },
    {
      "inputs": [
        {
          "internalType": "uint256",
          "name": "id",
          "type": "uint256"
        }
      ],
      "name": "addTicket",
      "outputs": [],
      "stateMutability": "nonpayable",
      "type": "function"
    },
    {
      "inputs": [
        {
          "internalType": "address",
          "name": "",
          "type": "address"
        },
        {
          "internalType": "uint256",
          "name": "",
          "type": "uint256"
        },
        {
          "internalType": "uint256",
          "name": "",
          "type": "uint256"
        }
      ],
      "name": "albumJourneys",
      "outputs": [
        {
          "internalType": "uint256",
          "name": "tripId",
          "type": "uint256"
        },
        {
          "internalType": "uint256",
          "name": "placeId",
          "type": "uint256"
        },
        {
          "internalType": "uint256",
          "name": "arrivalDate",
          "type": "uint256"
        },
        {
          "internalType": "string",
          "name": "review",
          "type": "string"
        },
        {
          "internalType": "uint256",
          "name": "rate",
          "type": "uint256"
        },
        {
          "internalType": "bool",
          "name": "isReview",
          "type": "bool"
        },
        {
          "internalType": "string",
          "name": "title",
          "type": "string"
        }
      ],
      "stateMutability": "view",
      "type": "function"
    },
    {
      "inputs": [
        {
          "internalType": "address",
          "name": "owner",
          "type": "address"
        },
        {
          "internalType": "address",
          "name": "spender",
          "type": "address"
        }
      ],
      "name": "allowance",
      "outputs": [
        {
          "internalType": "uint256",
          "name": "",
          "type": "uint256"
        }
      ],
      "stateMutability": "view",
      "type": "function"
    },
    {
      "inputs": [
        {
          "internalType": "address",
          "name": "spender",
          "type": "address"
        },
        {
          "internalType": "uint256",
          "name": "amount",
          "type": "uint256"
        }
      ],
      "name": "approve",
      "outputs": [
        {
          "internalType": "bool",
          "name": "",
          "type": "bool"
        }
      ],
      "stateMutability": "nonpayable",
      "type": "function"
    },
    {
      "inputs": [
        {
          "internalType": "address",
          "name": "account",
          "type": "address"
        }
      ],
      "name": "balanceOf",
      "outputs": [
        {
          "internalType": "uint256",
          "name": "",
          "type": "uint256"
        }
      ],
      "stateMutability": "view",
      "type": "function"
    },
    {
      "inputs": [
        {
          "internalType": "uint256",
          "name": "ticketID",
          "type": "uint256"
        },
        {
          "internalType": "uint256",
          "name": "placeID",
          "type": "uint256"
        }
      ],
      "name": "checkIn",
      "outputs": [],
      "stateMutability": "nonpayable",
      "type": "function"
    },
    {
      "inputs": [
        {
          "internalType": "uint256",
          "name": "ticketID",
          "type": "uint256"
        }
      ],
      "name": "checkValidTicket",
      "outputs": [
        {
          "internalType": "bool",
          "name": "",
          "type": "bool"
        }
      ],
      "stateMutability": "view",
      "type": "function"
    },
    {
      "inputs": [
        {
          "internalType": "bytes32",
          "name": "_hashedMessage",
          "type": "bytes32"
        },
        {
          "internalType": "uint8",
          "name": "_v",
          "type": "uint8"
        },
        {
          "internalType": "bytes32",
          "name": "_r",
          "type": "bytes32"
        },
        {
          "internalType": "bytes32",
          "name": "_s",
          "type": "bytes32"
        }
      ],
      "name": "claimPrize",
      "outputs": [
        {
          "internalType": "bool",
          "name": "",
          "type": "bool"
        }
      ],
      "stateMutability": "view",
      "type": "function"
    },
    {
      "inputs": [
        {
          "internalType": "uint256",
          "name": "_id",
          "type": "uint256"
        },
        {
          "internalType": "string",
          "name": "_name",
          "type": "string"
        }
      ],
      "name": "createAlbum",
      "outputs": [],
      "stateMutability": "nonpayable",
      "type": "function"
    },
    {
      "inputs": [],
      "name": "decimals",
      "outputs": [
        {
          "internalType": "uint8",
          "name": "",
          "type": "uint8"
        }
      ],
      "stateMutability": "view",
      "type": "function"
    },
    {
      "inputs": [
        {
          "internalType": "address",
          "name": "spender",
          "type": "address"
        },
        {
          "internalType": "uint256",
          "name": "subtractedValue",
          "type": "uint256"
        }
      ],
      "name": "decreaseAllowance",
      "outputs": [
        {
          "internalType": "bool",
          "name": "",
          "type": "bool"
        }
      ],
      "stateMutability": "nonpayable",
      "type": "function"
    },
    {
      "inputs": [
        {
          "internalType": "uint256",
          "name": "",
          "type": "uint256"
        },
        {
          "internalType": "uint256",
          "name": "",
          "type": "uint256"
        }
      ],
      "name": "destinationRates",
      "outputs": [
        {
          "internalType": "uint256",
          "name": "",
          "type": "uint256"
        }
      ],
      "stateMutability": "view",
      "type": "function"
    },
    {
      "inputs": [
        {
          "internalType": "uint256",
          "name": "id",
          "type": "uint256"
        }
      ],
      "name": "getAlbumCheckIn",
      "outputs": [
        {
          "components": [
            {
              "internalType": "uint256",
              "name": "tripId",
              "type": "uint256"
            },
            {
              "internalType": "uint256",
              "name": "placeId",
              "type": "uint256"
            },
            {
              "internalType": "uint256",
              "name": "arrivalDate",
              "type": "uint256"
            },
            {
              "internalType": "string",
              "name": "review",
              "type": "string"
            },
            {
              "internalType": "uint256",
              "name": "rate",
              "type": "uint256"
            },
            {
              "internalType": "bool",
              "name": "isReview",
              "type": "bool"
            },
            {
              "internalType": "string",
              "name": "title",
              "type": "string"
            }
          ],
          "internalType": "struct TouristConTract.Journey[]",
          "name": "",
          "type": "tuple[]"
        }
      ],
      "stateMutability": "view",
      "type": "function"
    },
    {
      "inputs": [],
      "name": "getAllJourney",
      "outputs": [
        {
          "components": [
            {
              "internalType": "uint256",
              "name": "tripId",
              "type": "uint256"
            },
            {
              "internalType": "uint256",
              "name": "placeId",
              "type": "uint256"
            },
            {
              "internalType": "uint256",
              "name": "arrivalDate",
              "type": "uint256"
            },
            {
              "internalType": "string",
              "name": "review",
              "type": "string"
            },
            {
              "internalType": "uint256",
              "name": "rate",
              "type": "uint256"
            },
            {
              "internalType": "bool",
              "name": "isReview",
              "type": "bool"
            },
            {
              "internalType": "string",
              "name": "title",
              "type": "string"
            }
          ],
          "internalType": "struct TouristConTract.Journey[]",
          "name": "",
          "type": "tuple[]"
        }
      ],
      "stateMutability": "view",
      "type": "function"
    },
    {
      "inputs": [
        {
          "internalType": "uint256",
          "name": "placeid",
          "type": "uint256"
        }
      ],
      "name": "getAllRates",
      "outputs": [
        {
          "internalType": "uint256[]",
          "name": "",
          "type": "uint256[]"
        }
      ],
      "stateMutability": "view",
      "type": "function"
    },
    {
      "inputs": [
        {
          "internalType": "address",
          "name": "add",
          "type": "address"
        }
      ],
      "name": "getBalance",
      "outputs": [
        {
          "internalType": "uint256",
          "name": "",
          "type": "uint256"
        }
      ],
      "stateMutability": "view",
      "type": "function"
    },
    {
      "inputs": [
        {
          "internalType": "bytes32",
          "name": "_messageHash",
          "type": "bytes32"
        }
      ],
      "name": "getEthSignedMessageHash",
      "outputs": [
        {
          "internalType": "bytes32",
          "name": "",
          "type": "bytes32"
        }
      ],
      "stateMutability": "pure",
      "type": "function"
    },
    {
      "inputs": [
        {
          "internalType": "uint256[]",
          "name": "idTrip",
          "type": "uint256[]"
        }
      ],
      "name": "getJourneyWithID",
      "outputs": [
        {
          "components": [
            {
              "internalType": "uint256",
              "name": "tripId",
              "type": "uint256"
            },
            {
              "internalType": "uint256",
              "name": "placeId",
              "type": "uint256"
            },
            {
              "internalType": "uint256",
              "name": "arrivalDate",
              "type": "uint256"
            },
            {
              "internalType": "string",
              "name": "review",
              "type": "string"
            },
            {
              "internalType": "uint256",
              "name": "rate",
              "type": "uint256"
            },
            {
              "internalType": "bool",
              "name": "isReview",
              "type": "bool"
            },
            {
              "internalType": "string",
              "name": "title",
              "type": "string"
            }
          ],
          "internalType": "struct TouristConTract.Journey[]",
          "name": "",
          "type": "tuple[]"
        }
      ],
      "stateMutability": "view",
      "type": "function"
    },
    {
      "inputs": [
        {
          "internalType": "address",
          "name": "_to",
          "type": "address"
        },
        {
          "internalType": "uint256",
          "name": "_amount",
          "type": "uint256"
        },
        {
          "internalType": "string",
          "name": "_message",
          "type": "string"
        },
        {
          "internalType": "uint256",
          "name": "_nonce",
          "type": "uint256"
        }
      ],
      "name": "getMessageHash",
      "outputs": [
        {
          "internalType": "bytes32",
          "name": "",
          "type": "bytes32"
        }
      ],
      "stateMutability": "pure",
      "type": "function"
    },
    {
      "inputs": [
        {
          "internalType": "uint256",
          "name": "placeid",
          "type": "uint256"
        }
      ],
      "name": "getReviewsInPlace",
      "outputs": [
        {
          "components": [
            {
              "internalType": "uint256",
              "name": "tripId",
              "type": "uint256"
            },
            {
              "internalType": "uint256",
              "name": "placeId",
              "type": "uint256"
            },
            {
              "internalType": "uint256",
              "name": "arrivalDate",
              "type": "uint256"
            },
            {
              "internalType": "string",
              "name": "review",
              "type": "string"
            },
            {
              "internalType": "uint256",
              "name": "rate",
              "type": "uint256"
            },
            {
              "internalType": "bool",
              "name": "isReview",
              "type": "bool"
            },
            {
              "internalType": "string",
              "name": "title",
              "type": "string"
            }
          ],
          "internalType": "struct TouristConTract.Journey[]",
          "name": "",
          "type": "tuple[]"
        }
      ],
      "stateMutability": "view",
      "type": "function"
    },
    {
      "inputs": [
        {
          "internalType": "address",
          "name": "userAddress",
          "type": "address"
        },
        {
          "internalType": "uint256",
          "name": "role",
          "type": "uint256"
        }
      ],
      "name": "grantRole",
      "outputs": [],
      "stateMutability": "nonpayable",
      "type": "function"
    },
    {
      "inputs": [
        {
          "internalType": "address",
          "name": "spender",
          "type": "address"
        },
        {
          "internalType": "uint256",
          "name": "addedValue",
          "type": "uint256"
        }
      ],
      "name": "increaseAllowance",
      "outputs": [
        {
          "internalType": "bool",
          "name": "",
          "type": "bool"
        }
      ],
      "stateMutability": "nonpayable",
      "type": "function"
    },
    {
      "inputs": [],
      "name": "name",
      "outputs": [
        {
          "internalType": "string",
          "name": "",
          "type": "string"
        }
      ],
      "stateMutability": "view",
      "type": "function"
    },
    {
      "inputs": [
        {
          "internalType": "uint256",
          "name": "",
          "type": "uint256"
        }
      ],
      "name": "noPeopleCheckIn",
      "outputs": [
        {
          "internalType": "uint256",
          "name": "",
          "type": "uint256"
        }
      ],
      "stateMutability": "view",
      "type": "function"
    },
    {
      "inputs": [
        {
          "internalType": "uint256",
          "name": "",
          "type": "uint256"
        }
      ],
      "name": "noPeopleRate",
      "outputs": [
        {
          "internalType": "uint256",
          "name": "",
          "type": "uint256"
        }
      ],
      "stateMutability": "view",
      "type": "function"
    },
    {
      "inputs": [
        {
          "internalType": "bytes32",
          "name": "_ethSignedMessageHash",
          "type": "bytes32"
        },
        {
          "internalType": "bytes",
          "name": "_signature",
          "type": "bytes"
        }
      ],
      "name": "recoverSigner",
      "outputs": [
        {
          "internalType": "address",
          "name": "",
          "type": "address"
        }
      ],
      "stateMutability": "pure",
      "type": "function"
    },
    {
      "inputs": [
        {
          "internalType": "string",
          "name": "name",
          "type": "string"
        },
        {
          "internalType": "uint256",
          "name": "age",
          "type": "uint256"
        }
      ],
      "name": "register",
      "outputs": [],
      "stateMutability": "nonpayable",
      "type": "function"
    },
    {
      "inputs": [
        {
          "internalType": "uint256",
          "name": "placeId",
          "type": "uint256"
        },
        {
          "internalType": "uint256",
          "name": "idTrip",
          "type": "uint256"
        },
        {
          "internalType": "string",
          "name": "comment",
          "type": "string"
        },
        {
          "internalType": "uint256",
          "name": "rate",
          "type": "uint256"
        },
        {
          "internalType": "string",
          "name": "title",
          "type": "string"
        }
      ],
      "name": "review",
      "outputs": [],
      "stateMutability": "nonpayable",
      "type": "function"
    },
    {
      "inputs": [
        {
          "internalType": "bytes",
          "name": "sig",
          "type": "bytes"
        }
      ],
      "name": "splitSignature",
      "outputs": [
        {
          "internalType": "bytes32",
          "name": "r",
          "type": "bytes32"
        },
        {
          "internalType": "bytes32",
          "name": "s",
          "type": "bytes32"
        },
        {
          "internalType": "uint8",
          "name": "v",
          "type": "uint8"
        }
      ],
      "stateMutability": "pure",
      "type": "function"
    },
    {
      "inputs": [],
      "name": "symbol",
      "outputs": [
        {
          "internalType": "string",
          "name": "",
          "type": "string"
        }
      ],
      "stateMutability": "view",
      "type": "function"
    },
    {
      "inputs": [],
      "name": "totalSupply",
      "outputs": [
        {
          "internalType": "uint256",
          "name": "",
          "type": "uint256"
        }
      ],
      "stateMutability": "view",
      "type": "function"
    },
    {
      "inputs": [
        {
          "internalType": "address",
          "name": "",
          "type": "address"
        },
        {
          "internalType": "uint256",
          "name": "",
          "type": "uint256"
        }
      ],
      "name": "touristAlbums",
      "outputs": [
        {
          "internalType": "uint256",
          "name": "id",
          "type": "uint256"
        },
        {
          "internalType": "string",
          "name": "name",
          "type": "string"
        }
      ],
      "stateMutability": "view",
      "type": "function"
    },
    {
      "inputs": [
        {
          "internalType": "address",
          "name": "",
          "type": "address"
        }
      ],
      "name": "touristIdentify",
      "outputs": [
        {
          "internalType": "string",
          "name": "name",
          "type": "string"
        },
        {
          "internalType": "uint256",
          "name": "age",
          "type": "uint256"
        },
        {
          "internalType": "bool",
          "name": "signup",
          "type": "bool"
        },
        {
          "internalType": "address",
          "name": "touristAddress",
          "type": "address"
        }
      ],
      "stateMutability": "view",
      "type": "function"
    },
    {
      "inputs": [
        {
          "internalType": "address",
          "name": "",
          "type": "address"
        },
        {
          "internalType": "uint256",
          "name": "",
          "type": "uint256"
        }
      ],
      "name": "touristJourneys",
      "outputs": [
        {
          "internalType": "uint256",
          "name": "tripId",
          "type": "uint256"
        },
        {
          "internalType": "uint256",
          "name": "placeId",
          "type": "uint256"
        },
        {
          "internalType": "uint256",
          "name": "arrivalDate",
          "type": "uint256"
        },
        {
          "internalType": "string",
          "name": "review",
          "type": "string"
        },
        {
          "internalType": "uint256",
          "name": "rate",
          "type": "uint256"
        },
        {
          "internalType": "bool",
          "name": "isReview",
          "type": "bool"
        },
        {
          "internalType": "string",
          "name": "title",
          "type": "string"
        }
      ],
      "stateMutability": "view",
      "type": "function"
    },
    {
      "inputs": [
        {
          "internalType": "address",
          "name": "to",
          "type": "address"
        },
        {
          "internalType": "uint256",
          "name": "amount",
          "type": "uint256"
        }
      ],
      "name": "transfer",
      "outputs": [
        {
          "internalType": "bool",
          "name": "",
          "type": "bool"
        }
      ],
      "stateMutability": "nonpayable",
      "type": "function"
    },
    {
      "inputs": [
        {
          "internalType": "address",
          "name": "from",
          "type": "address"
        },
        {
          "internalType": "address",
          "name": "to",
          "type": "address"
        },
        {
          "internalType": "uint256",
          "name": "amount",
          "type": "uint256"
        }
      ],
      "name": "transferFrom",
      "outputs": [
        {
          "internalType": "bool",
          "name": "",
          "type": "bool"
        }
      ],
      "stateMutability": "nonpayable",
      "type": "function"
    },
    {
      "inputs": [
        {
          "internalType": "uint256",
          "name": "id",
          "type": "uint256"
        }
      ],
      "name": "validAddIDTicket",
      "outputs": [
        {
          "internalType": "bool",
          "name": "",
          "type": "bool"
        }
      ],
      "stateMutability": "view",
      "type": "function"
    },
    {
      "inputs": [
        {
          "internalType": "address",
          "name": "_signer",
          "type": "address"
        },
        {
          "internalType": "address",
          "name": "_to",
          "type": "address"
        },
        {
          "internalType": "uint256",
          "name": "_amount",
          "type": "uint256"
        },
        {
          "internalType": "string",
          "name": "_message",
          "type": "string"
        },
        {
          "internalType": "uint256",
          "name": "_nonce",
          "type": "uint256"
        },
        {
          "internalType": "bytes",
          "name": "signature",
          "type": "bytes"
        }
      ],
      "name": "verify",
      "outputs": [
        {
          "internalType": "bool",
          "name": "",
          "type": "bool"
        }
      ],
      "stateMutability": "pure",
      "type": "function"
    }
  ],
  "bytecode": "0x60806040523480156200001157600080fd5b506040518060400160405280600781526020017f4443546f6b656e000000000000000000000000000000000000000000000000008152506040518060400160405280600281526020017f587500000000000000000000000000000000000000000000000000000000000081525081600390816200008f919062000c88565b508060049081620000a1919062000c88565b50505060096040518060400160405280600181526020016000151581525090806001815401808255809150506001900390600052602060002090600202016000909190919091506000820151816000015560208201518160010160006101000a81548160ff021916908315150217905550505060096040518060400160405280600281526020016000151581525090806001815401808255809150506001900390600052602060002090600202016000909190919091506000820151816000015560208201518160010160006101000a81548160ff021916908315150217905550505060096040518060400160405280600381526020016000151581525090806001815401808255809150506001900390600052602060002090600202016000909190919091506000820151816000015560208201518160010160006101000a81548160ff021916908315150217905550505060096040518060400160405280600481526020016000151581525090806001815401808255809150506001900390600052602060002090600202016000909190919091506000820151816000015560208201518160010160006101000a81548160ff021916908315150217905550505060096040518060400160405280600581526020016000151581525090806001815401808255809150506001900390600052602060002090600202016000909190919091506000820151816000015560208201518160010160006101000a81548160ff021916908315150217905550505060096040518060400160405280600681526020016000151581525090806001815401808255809150506001900390600052602060002090600202016000909190919091506000820151816000015560208201518160010160006101000a81548160ff021916908315150217905550505060096040518060400160405280600781526020016000151581525090806001815401808255809150506001900390600052602060002090600202016000909190919091506000820151816000015560208201518160010160006101000a81548160ff021916908315150217905550505060096040518060400160405280600881526020016000151581525090806001815401808255809150506001900390600052602060002090600202016000909190919091506000820151816000015560208201518160010160006101000a81548160ff021916908315150217905550505060096040518060400160405280600981526020016000151581525090806001815401808255809150506001900390600052602060002090600202016000909190919091506000820151816000015560208201518160010160006101000a81548160ff021916908315150217905550505060096040518060400160405280600a81526020016000151581525090806001815401808255809150506001900390600052602060002090600202016000909190919091506000820151816000015560208201518160010160006101000a81548160ff021916908315150217905550505060096040518060400160405280600b81526020016000151581525090806001815401808255809150506001900390600052602060002090600202016000909190919091506000820151816000015560208201518160010160006101000a81548160ff021916908315150217905550505060096040518060400160405280600c81526020016000151581525090806001815401808255809150506001900390600052602060002090600202016000909190919091506000820151816000015560208201518160010160006101000a81548160ff021916908315150217905550505060096040518060400160405280600d81526020016000151581525090806001815401808255809150506001900390600052602060002090600202016000909190919091506000820151816000015560208201518160010160006101000a81548160ff021916908315150217905550505060096040518060400160405280600e81526020016000151581525090806001815401808255809150506001900390600052602060002090600202016000909190919091506000820151816000015560208201518160010160006101000a81548160ff021916908315150217905550505060096040518060400160405280600f81526020016000151581525090806001815401808255809150506001900390600052602060002090600202016000909190919091506000820151816000015560208201518160010160006101000a81548160ff021916908315150217905550505060096040518060400160405280601081526020016000151581525090806001815401808255809150506001900390600052602060002090600202016000909190919091506000820151816000015560208201518160010160006101000a81548160ff021916908315150217905550505060096040518060400160405280601181526020016000151581525090806001815401808255809150506001900390600052602060002090600202016000909190919091506000820151816000015560208201518160010160006101000a81548160ff021916908315150217905550505060096040518060400160405280601281526020016000151581525090806001815401808255809150506001900390600052602060002090600202016000909190919091506000820151816000015560208201518160010160006101000a81548160ff021916908315150217905550505060096040518060400160405280601381526020016000151581525090806001815401808255809150506001900390600052602060002090600202016000909190919091506000820151816000015560208201518160010160006101000a81548160ff021916908315150217905550505060096040518060400160405280601481526020016000151581525090806001815401808255809150506001900390600052602060002090600202016000909190919091506000820151816000015560208201518160010160006101000a81548160ff02191690831515021790555050506006339080600181540180825580915050600190039060005260206000200160009091909190916101000a81548173ffffffffffffffffffffffffffffffffffffffff021916908373ffffffffffffffffffffffffffffffffffffffff16021790555033600560006101000a81548173ffffffffffffffffffffffffffffffffffffffff021916908373ffffffffffffffffffffffffffffffffffffffff16021790555062000d6f565b600081519050919050565b7f4e487b7100000000000000000000000000000000000000000000000000000000600052604160045260246000fd5b7f4e487b7100000000000000000000000000000000000000000000000000000000600052602260045260246000fd5b6000600282049050600182168062000a9057607f821691505b60208210810362000aa65762000aa562000a48565b5b50919050565b60008190508160005260206000209050919050565b60006020601f8301049050919050565b600082821b905092915050565b60006008830262000b107fffffffffffffffffffffffffffffffffffffffffffffffffffffffffffffffff8262000ad1565b62000b1c868362000ad1565b95508019841693508086168417925050509392505050565b6000819050919050565b6000819050919050565b600062000b6962000b6362000b5d8462000b34565b62000b3e565b62000b34565b9050919050565b6000819050919050565b62000b858362000b48565b62000b9d62000b948262000b70565b84845462000ade565b825550505050565b600090565b62000bb462000ba5565b62000bc181848462000b7a565b505050565b5b8181101562000be95762000bdd60008262000baa565b60018101905062000bc7565b5050565b601f82111562000c385762000c028162000aac565b62000c0d8462000ac1565b8101602085101562000c1d578190505b62000c3562000c2c8562000ac1565b83018262000bc6565b50505b505050565b600082821c905092915050565b600062000c5d6000198460080262000c3d565b1980831691505092915050565b600062000c78838362000c4a565b9150826002028217905092915050565b62000c938262000a0e565b67ffffffffffffffff81111562000caf5762000cae62000a19565b5b62000cbb825462000a77565b62000cc882828562000bed565b600060209050601f83116001811462000d00576000841562000ceb578287015190505b62000cf7858262000c6a565b86555062000d67565b601f19841662000d108662000aac565b60005b8281101562000d3a5784890151825560018201915060208501945060208101905062000d13565b8683101562000d5a578489015162000d56601f89168262000c4a565b8355505b6001600288020188555050505b505050505050565b615ab98062000d7f6000396000f3fe608060405234801561001057600080fd5b50600436106102485760003560e01c806397aba7f91161013b578063b9c3b1b9116100b8578063f2fa49b41161007c578063f2fa49b414610803578063f516f88e14610839578063f8b2cb4f14610855578063fa54080114610885578063fc0587f8146108b557610248565b8063b9c3b1b91461073b578063dd62ed3e1461076b578063ddb0225e1461079b578063ea87152b146107b7578063ebfbdec9146107d357610248565b8063a7bb5803116100ff578063a7bb580314610671578063a9059cbb146106a3578063abe5026a146106d3578063b216241514610703578063b42913191461071f57610248565b806397aba7f9146105815780639e26c494146105b15780639f7bdca1146105e1578063a35f8a4014610611578063a457c2d71461064157610248565b80635cab0d00116101c9578063732a7c251161018d578063732a7c25146104b757806378902422146104d35780638fab3caa1461050357806393f405211461053357806395d89b411461056357610248565b80635cab0d00146103d75780636012f3be146104075780636253366514610438578063701a0e0d1461046b57806370a082311461048757610248565b8063285f293b11610210578063285f293b14610307578063313ce567146103375780633749368214610355578063395093511461038b5780633c09e2fd146103bb57610248565b806306fdde031461024d578063095ea7b31461026b5780630f13090e1461029b57806318160ddd146102b957806323b872dd146102d7575b600080fd5b6102556108e5565b6040516102629190613bf3565b60405180910390f35b61028560048036038101906102809190613cbd565b610977565b6040516102929190613d18565b60405180910390f35b6102a361099a565b6040516102b09190613f00565b60405180910390f35b6102c1610b9d565b6040516102ce9190613f31565b60405180910390f35b6102f160048036038101906102ec9190613f4c565b610ba7565b6040516102fe9190613d18565b60405180910390f35b610321600480360381019061031c9190613f9f565b610bd6565b60405161032e9190613f00565b60405180910390f35b61033f610dec565b60405161034c9190613fe8565b60405180910390f35b61036f600480360381019061036a9190613cbd565b610df5565b6040516103829796959493929190614003565b60405180910390f35b6103a560048036038101906103a09190613cbd565b610f71565b6040516103b29190613d18565b60405180910390f35b6103d560048036038101906103d09190613cbd565b610fa8565b005b6103f160048036038101906103ec9190613f9f565b6111b7565b6040516103fe9190613f31565b60405180910390f35b610421600480360381019061041c9190613cbd565b6111cf565b60405161042f929190614080565b60405180910390f35b610452600480360381019061044d91906140b0565b611298565b60405161046294939291906140ec565b60405180910390f35b61048560048036038101906104809190614138565b61137d565b005b6104a1600480360381019061049c91906140b0565b6118a3565b6040516104ae9190613f31565b60405180910390f35b6104d160048036038101906104cc91906142c0565b6118eb565b005b6104ed60048036038101906104e89190613f9f565b6119c7565b6040516104fa91906143cb565b60405180910390f35b61051d600480360381019061051891906144b5565b611a32565b60405161052a9190613f00565b60405180910390f35b61054d60048036038101906105489190613f9f565b611d9e565b60405161055a9190613d18565b60405180910390f35b61056b611e46565b6040516105789190613bf3565b60405180910390f35b61059b600480360381019061059691906145d5565b611ed8565b6040516105a89190614631565b60405180910390f35b6105cb60048036038101906105c69190613f9f565b611f47565b6040516105d89190613d18565b60405180910390f35b6105fb60048036038101906105f69190613f9f565b611fb0565b6040516106089190613f31565b60405180910390f35b61062b6004803603810190610626919061464c565b611fc8565b60405161063891906146de565b60405180910390f35b61065b60048036038101906106569190613cbd565b612001565b6040516106689190613d18565b60405180910390f35b61068b600480360381019061068691906146f9565b612078565b60405161069a93929190614742565b60405180910390f35b6106bd60048036038101906106b89190613cbd565b6120e0565b6040516106ca9190613d18565b60405180910390f35b6106ed60048036038101906106e89190614779565b612103565b6040516106fa9190613d18565b60405180910390f35b61071d6004803603810190610718919061483e565b612167565b005b61073960048036038101906107349190613f9f565b612634565b005b6107556004803603810190610750919061491d565b6127d3565b6040516107629190613d18565b60405180910390f35b61078560048036038101906107809190614984565b6128ff565b6040516107929190613f31565b60405180910390f35b6107b560048036038101906107b09190614779565b612986565b005b6107d160048036038101906107cc91906149c4565b6129ae565b005b6107ed60048036038101906107e89190614a20565b612ca7565b6040516107fa9190613f31565b60405180910390f35b61081d60048036038101906108189190614a60565b612cd8565b6040516108309796959493929190614003565b60405180910390f35b610853600480360381019061084e9190614a20565b612e61565b005b61086f600480360381019061086a91906140b0565b61311c565b60405161087c9190613f31565b60405180910390f35b61089f600480360381019061089a9190614ab3565b613123565b6040516108ac91906146de565b60405180910390f35b6108cf60048036038101906108ca9190613f9f565b613153565b6040516108dc9190613f00565b60405180910390f35b6060600380546108f490614b0f565b80601f016020809104026020016040519081016040528092919081815260200182805461092090614b0f565b801561096d5780601f106109425761010080835404028352916020019161096d565b820191906000526020600020905b81548152906001019060200180831161095057829003601f168201915b5050505050905090565b60008061098261332c565b905061098f818585613334565b600191505092915050565b6060600d60003373ffffffffffffffffffffffffffffffffffffffff1673ffffffffffffffffffffffffffffffffffffffff168152602001908152602001600020805480602002602001604051908101604052809291908181526020016000905b82821015610b9457838290600052602060002090600702016040518060e0016040529081600082015481526020016001820154815260200160028201548152602001600382018054610a4c90614b0f565b80601f0160208091040260200160405190810160405280929190818152602001828054610a7890614b0f565b8015610ac55780601f10610a9a57610100808354040283529160200191610ac5565b820191906000526020600020905b815481529060010190602001808311610aa857829003601f168201915b50505050508152602001600482015481526020016005820160009054906101000a900460ff16151515158152602001600682018054610b0390614b0f565b80601f0160208091040260200160405190810160405280929190818152602001828054610b2f90614b0f565b8015610b7c5780601f10610b5157610100808354040283529160200191610b7c565b820191906000526020600020905b815481529060010190602001808311610b5f57829003601f168201915b505050505081525050815260200190600101906109fb565b50505050905090565b6000600254905090565b600080610bb261332c565b9050610bbf8582856134fd565b610bca858585613589565b60019150509392505050565b6060601060003373ffffffffffffffffffffffffffffffffffffffff1673ffffffffffffffffffffffffffffffffffffffff1681526020019081526020016000206000838152602001908152602001600020805480602002602001604051908101604052809291908181526020016000905b82821015610de157838290600052602060002090600702016040518060e0016040529081600082015481526020016001820154815260200160028201548152602001600382018054610c9990614b0f565b80601f0160208091040260200160405190810160405280929190818152602001828054610cc590614b0f565b8015610d125780601f10610ce757610100808354040283529160200191610d12565b820191906000526020600020905b815481529060010190602001808311610cf557829003601f168201915b50505050508152602001600482015481526020016005820160009054906101000a900460ff16151515158152602001600682018054610d5090614b0f565b80601f0160208091040260200160405190810160405280929190818152602001828054610d7c90614b0f565b8015610dc95780601f10610d9e57610100808354040283529160200191610dc9565b820191906000526020600020905b815481529060010190602001808311610dac57829003601f168201915b50505050508152505081526020019060010190610c48565b505050509050919050565b60006012905090565b600d6020528160005260406000208181548110610e1157600080fd5b906000526020600020906007020160009150915050806000015490806001015490806002015490806003018054610e4790614b0f565b80601f0160208091040260200160405190810160405280929190818152602001828054610e7390614b0f565b8015610ec05780601f10610e9557610100808354040283529160200191610ec0565b820191906000526020600020905b815481529060010190602001808311610ea357829003601f168201915b5050505050908060040154908060050160009054906101000a900460ff1690806006018054610eee90614b0f565b80601f0160208091040260200160405190810160405280929190818152602001828054610f1a90614b0f565b8015610f675780601f10610f3c57610100808354040283529160200191610f67565b820191906000526020600020905b815481529060010190602001808311610f4a57829003601f168201915b5050505050905087565b600080610f7c61332c565b9050610f9d818585610f8e85896128ff565b610f989190614b6f565b613334565b600191505092915050565b6000805b6006805490508110156110445760068181548110610fcd57610fcc614ba3565b5b9060005260206000200160009054906101000a900473ffffffffffffffffffffffffffffffffffffffff1673ffffffffffffffffffffffffffffffffffffffff163373ffffffffffffffffffffffffffffffffffffffff16036110335760019150611044565b8061103d90614bd2565b9050610fac565b50600115158115151461108c576040517f08c379a000000000000000000000000000000000000000000000000000000000815260040161108390614c8c565b60405180910390fd5b600182148061109b5750600282145b6110da576040517f08c379a00000000000000000000000000000000000000000000000000000000081526004016110d190614d1e565b60405180910390fd5b60018203611146576006839080600181540180825580915050600190039060005260206000200160009091909190916101000a81548173ffffffffffffffffffffffffffffffffffffffff021916908373ffffffffffffffffffffffffffffffffffffffff1602179055505b600282036111b2576007839080600181540180825580915050600190039060005260206000200160009091909190916101000a81548173ffffffffffffffffffffffffffffffffffffffff021916908373ffffffffffffffffffffffffffffffffffffffff1602179055505b505050565b60116020528060005260406000206000915090505481565b600f60205281600052604060002081815481106111eb57600080fd5b90600052602060002090600202016000915091505080600001549080600101805461121590614b0f565b80601f016020809104026020016040519081016040528092919081815260200182805461124190614b0f565b801561128e5780601f106112635761010080835404028352916020019161128e565b820191906000526020600020905b81548152906001019060200180831161127157829003601f168201915b5050505050905082565b600c6020528060005260406000206000915090508060000180546112bb90614b0f565b80601f01602080910402602001604051908101604052809291908181526020018280546112e790614b0f565b80156113345780601f1061130957610100808354040283529160200191611334565b820191906000526020600020905b81548152906001019060200180831161131757829003601f168201915b5050505050908060010154908060020160009054906101000a900460ff16908060020160019054906101000a900473ffffffffffffffffffffffffffffffffffffffff16905084565b6000611387613b24565b60005b600d60003373ffffffffffffffffffffffffffffffffffffffff1673ffffffffffffffffffffffffffffffffffffffff1681526020019081526020016000208054905081101561181a57600d60003373ffffffffffffffffffffffffffffffffffffffff1673ffffffffffffffffffffffffffffffffffffffff168152602001908152602001600020818154811061142557611424614ba3565b5b906000526020600020906007020160010154861480156114a6575083600d60003373ffffffffffffffffffffffffffffffffffffffff1673ffffffffffffffffffffffffffffffffffffffff168152602001908152602001600020828154811061149257611491614ba3565b5b906000526020600020906007020160020154145b15611807576040518060e00160405280600d60003373ffffffffffffffffffffffffffffffffffffffff1673ffffffffffffffffffffffffffffffffffffffff168152602001908152602001600020838154811061150757611506614ba3565b5b9060005260206000209060070201600001548152602001878152602001858152602001600d60003373ffffffffffffffffffffffffffffffffffffffff1673ffffffffffffffffffffffffffffffffffffffff168152602001908152602001600020838154811061157b5761157a614ba3565b5b9060005260206000209060070201600301805461159790614b0f565b80601f01602080910402602001604051908101604052809291908181526020018280546115c390614b0f565b80156116105780601f106115e557610100808354040283529160200191611610565b820191906000526020600020905b8154815290600101906020018083116115f357829003601f168201915b50505050508152602001600d60003373ffffffffffffffffffffffffffffffffffffffff1673ffffffffffffffffffffffffffffffffffffffff168152602001908152602001600020838154811061166b5761166a614ba3565b5b9060005260206000209060070201600401548152602001600d60003373ffffffffffffffffffffffffffffffffffffffff1673ffffffffffffffffffffffffffffffffffffffff16815260200190815260200160002083815481106116d3576116d2614ba3565b5b906000526020600020906007020160050160009054906101000a900460ff1615158152602001604051806020016040528060008152508152509150601060003373ffffffffffffffffffffffffffffffffffffffff1673ffffffffffffffffffffffffffffffffffffffff168152602001908152602001600020600086815260200190815260200160002082908060018154018082558091505060019003906000526020600020906007020160009091909190915060008201518160000155602082015181600101556040820151816002015560608201518160030190816117bb9190614eea565b506080820151816004015560a08201518160050160006101000a81548160ff02191690831515021790555060c08201518160060190816117fb9190614eea565b5050506001925061181a565b808061181290614bd2565b91505061138a565b508161185b576040517f08c379a000000000000000000000000000000000000000000000000000000000815260040161185290615008565b60405180910390fd5b7f4c5175a13509e65592a5ddf9fa5c69a99ad3bd3ade62b85c4027673e6f64ec82611885856137ff565b826040516118949291906150cb565b60405180910390a15050505050565b60008060008373ffffffffffffffffffffffffffffffffffffffff1673ffffffffffffffffffffffffffffffffffffffff168152602001908152602001600020549050919050565b600f60003373ffffffffffffffffffffffffffffffffffffffff1673ffffffffffffffffffffffffffffffffffffffff16815260200190815260200160002060405180604001604052808481526020018381525090806001815401808255809150506001900390600052602060002090600202016000909190919091506000820151816000015560208201518160010190816119879190614eea565b5050507ff538047aa51f8b732c1850d69564ec0d033aca661921dba9871bf8feff7a435f82826040516119bb929190614080565b60405180910390a15050565b606060136000838152602001908152602001600020805480602002602001604051908101604052809291908181526020018280548015611a2657602002820191906000526020600020905b815481526020019060010190808311611a12575b50505050509050919050565b60606000825167ffffffffffffffff811115611a5157611a50614195565b5b604051908082528060200260200182016040528015611a8a57816020015b611a77613b24565b815260200190600190039081611a6f5790505b5090506000805b8451811015611d935760005b600d60003373ffffffffffffffffffffffffffffffffffffffff1673ffffffffffffffffffffffffffffffffffffffff16815260200190815260200160002080549050811015611d7f57600d60003373ffffffffffffffffffffffffffffffffffffffff1673ffffffffffffffffffffffffffffffffffffffff1681526020019081526020016000208181548110611b3857611b37614ba3565b5b906000526020600020906007020160000154868381518110611b5d57611b5c614ba3565b5b602002602001015103611d6c57600d60003373ffffffffffffffffffffffffffffffffffffffff1673ffffffffffffffffffffffffffffffffffffffff1681526020019081526020016000208181548110611bbb57611bba614ba3565b5b90600052602060002090600702016040518060e0016040529081600082015481526020016001820154815260200160028201548152602001600382018054611c0290614b0f565b80601f0160208091040260200160405190810160405280929190818152602001828054611c2e90614b0f565b8015611c7b5780601f10611c5057610100808354040283529160200191611c7b565b820191906000526020600020905b815481529060010190602001808311611c5e57829003601f168201915b50505050508152602001600482015481526020016005820160009054906101000a900460ff16151515158152602001600682018054611cb990614b0f565b80601f0160208091040260200160405190810160405280929190818152602001828054611ce590614b0f565b8015611d325780601f10611d0757610100808354040283529160200191611d32565b820191906000526020600020905b815481529060010190602001808311611d1557829003601f168201915b505050505081525050848481518110611d4e57611d4d614ba3565b5b60200260200101819052508280611d6490614bd2565b935050611d7f565b8080611d7790614bd2565b915050611a9d565b508080611d8b90614bd2565b915050611a91565b508192505050919050565b600080600090505b600980549050811015611e3b5760098181548110611dc757611dc6614ba3565b5b9060005260206000209060020201600001548303611e28576001151560098281548110611df757611df6614ba3565b5b906000526020600020906002020160010160009054906101000a900460ff16151503611e27576000915050611e41565b5b8080611e3390614bd2565b915050611da6565b50600190505b919050565b606060048054611e5590614b0f565b80601f0160208091040260200160405190810160405280929190818152602001828054611e8190614b0f565b8015611ece5780601f10611ea357610100808354040283529160200191611ece565b820191906000526020600020905b815481529060010190602001808311611eb157829003601f168201915b5050505050905090565b600080600080611ee785612078565b92509250925060018682858560405160008152602001604052604051611f109493929190615102565b6020604051602081039080840390855afa158015611f32573d6000803e3d6000fd5b50505060206040510351935050505092915050565b600080600090505b600980549050811015611fa55760098181548110611f7057611f6f614ba3565b5b9060005260206000209060020201600001548303611f92576000915050611fab565b8080611f9d90614bd2565b915050611f4f565b50600190505b919050565b60126020528060005260406000206000915090505481565b600084848484604051602001611fe194939291906151ec565b604051602081830303815290604052805190602001209050949350505050565b60008061200c61332c565b9050600061201a82866128ff565b90508381101561205f576040517f08c379a0000000000000000000000000000000000000000000000000000000008152600401612056906152a8565b60405180910390fd5b61206c8286868403613334565b60019250505092915050565b600080600060418451146120c1576040517f08c379a00000000000000000000000000000000000000000000000000000000081526004016120b890615314565b60405180910390fd5b6020840151925060408401519150606084015160001a90509193909250565b6000806120eb61332c565b90506120f8818585613589565b600191505092915050565b60008061211287878787611fc8565b9050600061211f82613123565b90508873ffffffffffffffffffffffffffffffffffffffff166121428286611ed8565b73ffffffffffffffffffffffffffffffffffffffff1614925050509695505050505050565b60005b600d60003373ffffffffffffffffffffffffffffffffffffffff1673ffffffffffffffffffffffffffffffffffffffff168152602001908152602001600020805490508110156125c957600d60003373ffffffffffffffffffffffffffffffffffffffff1673ffffffffffffffffffffffffffffffffffffffff168152602001908152602001600020818154811061220557612204614ba3565b5b90600052602060002090600702016000015485036125b65760001515600d60003373ffffffffffffffffffffffffffffffffffffffff1673ffffffffffffffffffffffffffffffffffffffff168152602001908152602001600020828154811061227257612271614ba3565b5b906000526020600020906007020160050160009054906101000a900460ff161515146122d3576040517f08c379a00000000000000000000000000000000000000000000000000000000081526004016122ca90615380565b60405180910390fd5b83600d60003373ffffffffffffffffffffffffffffffffffffffff1673ffffffffffffffffffffffffffffffffffffffff168152602001908152602001600020828154811061232557612324614ba3565b5b906000526020600020906007020160030190816123429190614eea565b5082600d60003373ffffffffffffffffffffffffffffffffffffffff1673ffffffffffffffffffffffffffffffffffffffff168152602001908152602001600020828154811061239557612394614ba3565b5b9060005260206000209060070201600401819055506001600d60003373ffffffffffffffffffffffffffffffffffffffff1673ffffffffffffffffffffffffffffffffffffffff16815260200190815260200160002082815481106123fd576123fc614ba3565b5b906000526020600020906007020160050160006101000a81548160ff02191690831515021790555081600d60003373ffffffffffffffffffffffffffffffffffffffff1673ffffffffffffffffffffffffffffffffffffffff168152602001908152602001600020828154811061247757612476614ba3565b5b906000526020600020906007020160060190816124949190614eea565b5060146000878152602001908152602001600020600d60003373ffffffffffffffffffffffffffffffffffffffff1673ffffffffffffffffffffffffffffffffffffffff16815260200190815260200160002082815481106124f9576124f8614ba3565b5b906000526020600020906007020190806001815401808255809150506001900390600052602060002090600702016000909190919091506000820154816000015560018201548160010155600282015481600201556003820181600301908161256291906153b6565b50600482015481600401556005820160009054906101000a900460ff168160050160006101000a81548160ff021916908315150217905550600682018160060190816125ae91906153b6565b5050506125c9565b80806125c190614bd2565b91505061216a565b506013600086815260200190815260200160002082908060018154018082558091505060019003906000526020600020016000909190919091505560126000868152602001908152602001600020600081548092919061262890614bd2565b91905055505050505050565b6000805b6006805490508110156126d0576006818154811061265957612658614ba3565b5b9060005260206000200160009054906101000a900473ffffffffffffffffffffffffffffffffffffffff1673ffffffffffffffffffffffffffffffffffffffff163373ffffffffffffffffffffffffffffffffffffffff16036126bf57600191506126d0565b806126c990614bd2565b9050612638565b506001151581151514612718576040517f08c379a000000000000000000000000000000000000000000000000000000000815260040161270f90614c8c565b60405180910390fd5b61272182611f47565b612760576040517f08c379a0000000000000000000000000000000000000000000000000000000008152600401612757906154ea565b60405180910390fd5b600960405180604001604052808481526020016000151581525090806001815401808255809150506001900390600052602060002090600202016000909190919091506000820151816000015560208201518160010160006101000a81548160ff02191690831515021790555050505050565b6000806040518060400160405280601c81526020017f19457468657265756d205369676e6564204d6573736167653a0a333200000000815250905060008187604051602001612823929190615572565b6040516020818303038152906040528051906020012090506000600182888888604051600081526020016040526040516128609493929190615102565b6020604051602081039080840390855afa158015612882573d6000803e3d6000fd5b505050602060405103519050600560009054906101000a900473ffffffffffffffffffffffffffffffffffffffff1673ffffffffffffffffffffffffffffffffffffffff168173ffffffffffffffffffffffffffffffffffffffff16036128ef57600193505050506128f7565b600093505050505b949350505050565b6000600160008473ffffffffffffffffffffffffffffffffffffffff1673ffffffffffffffffffffffffffffffffffffffff16815260200190815260200160002060008373ffffffffffffffffffffffffffffffffffffffff1673ffffffffffffffffffffffffffffffffffffffff16815260200190815260200160002054905092915050565b612994868686868686612103565b156129a6576129a5856103e86139c4565b5b505050505050565b600060405180608001604052808481526020018381526020016001151581526020013373ffffffffffffffffffffffffffffffffffffffff16815250905082600c60003373ffffffffffffffffffffffffffffffffffffffff1673ffffffffffffffffffffffffffffffffffffffff1681526020019081526020016000206000019081612a3b9190614eea565b5081600c60003373ffffffffffffffffffffffffffffffffffffffff1673ffffffffffffffffffffffffffffffffffffffff1681526020019081526020016000206001018190555033600c60003373ffffffffffffffffffffffffffffffffffffffff1673ffffffffffffffffffffffffffffffffffffffff16815260200190815260200160002060020160016101000a81548173ffffffffffffffffffffffffffffffffffffffff021916908373ffffffffffffffffffffffffffffffffffffffff160217905550600c60003373ffffffffffffffffffffffffffffffffffffffff1673ffffffffffffffffffffffffffffffffffffffff16815260200190815260200160002060020160009054906101000a900460ff16612c6957600a8190806001815401808255809150506001900390600052602060002090600302016000909190919091506000820151816000019081612b999190614eea565b506020820151816001015560408201518160020160006101000a81548160ff02191690831515021790555060608201518160020160016101000a81548173ffffffffffffffffffffffffffffffffffffffff021916908373ffffffffffffffffffffffffffffffffffffffff16021790555050506001600c60003373ffffffffffffffffffffffffffffffffffffffff1673ffffffffffffffffffffffffffffffffffffffff16815260200190815260200160002060020160006101000a81548160ff0219169083151502179055505b7ff9aabaa28b0c7b9b6a80283c8b8fd6983df8e2c5703e65ee433dbbd7373062688383604051612c9a92919061559a565b60405180910390a1505050565b60136020528160005260406000208181548110612cc357600080fd5b90600052602060002001600091509150505481565b60106020528260005260406000206020528160005260406000208181548110612d0057600080fd5b90600052602060002090600702016000925092505050806000015490806001015490806002015490806003018054612d3790614b0f565b80601f0160208091040260200160405190810160405280929190818152602001828054612d6390614b0f565b8015612db05780601f10612d8557610100808354040283529160200191612db0565b820191906000526020600020905b815481529060010190602001808311612d9357829003601f168201915b5050505050908060040154908060050160009054906101000a900460ff1690806006018054612dde90614b0f565b80601f0160208091040260200160405190810160405280929190818152602001828054612e0a90614b0f565b8015612e575780601f10612e2c57610100808354040283529160200191612e57565b820191906000526020600020905b815481529060010190602001808311612e3a57829003601f168201915b5050505050905087565b6000805b600980549050811015612f675760098181548110612e8657612e85614ba3565b5b9060005260206000209060020201600001548403612f545760098181548110612eb257612eb1614ba3565b5b906000526020600020906002020160010160009054906101000a900460ff1615612f11576040517f08c379a0000000000000000000000000000000000000000000000000000000008152600401612f0890615616565b60405180910390fd5b60019150600160098281548110612f2b57612f2a614ba3565b5b906000526020600020906002020160010160006101000a81548160ff0219169083151502179055505b8080612f5f90614bd2565b915050612e65565b50601160008381526020019081526020016000206000815480929190612f8c90614bd2565b9190505550600b6000815480929190612fa490614bd2565b9190505550600d60003373ffffffffffffffffffffffffffffffffffffffff1673ffffffffffffffffffffffffffffffffffffffff1681526020019081526020016000206040518060e00160405280600b54815260200184815260200142815260200160405180602001604052806000815250815260200160008152602001600015158152602001604051806020016040528060008152508152509080600181540180825580915050600190039060005260206000209060070201600090919091909150600082015181600001556020820151816001015560408201518160020155606082015181600301908161309b9190614eea565b506080820151816004015560a08201518160050160006101000a81548160ff02191690831515021790555060c08201518160060190816130db9190614eea565b5050507ff165997b5f1d2b5ae2f43279fc978111209309fd44e04343b1ffd71915e62ab5838360405161310f929190615636565b60405180910390a1505050565b6000919050565b60008160405160200161313691906156ab565b604051602081830303815290604052805190602001209050919050565b606060146000838152602001908152602001600020805480602002602001604051908101604052809291908181526020016000905b8282101561332157838290600052602060002090600702016040518060e00160405290816000820154815260200160018201548152602001600282015481526020016003820180546131d990614b0f565b80601f016020809104026020016040519081016040528092919081815260200182805461320590614b0f565b80156132525780601f1061322757610100808354040283529160200191613252565b820191906000526020600020905b81548152906001019060200180831161323557829003601f168201915b50505050508152602001600482015481526020016005820160009054906101000a900460ff1615151515815260200160068201805461329090614b0f565b80601f01602080910402602001604051908101604052809291908181526020018280546132bc90614b0f565b80156133095780601f106132de57610100808354040283529160200191613309565b820191906000526020600020905b8154815290600101906020018083116132ec57829003601f168201915b50505050508152505081526020019060010190613188565b505050509050919050565b600033905090565b600073ffffffffffffffffffffffffffffffffffffffff168373ffffffffffffffffffffffffffffffffffffffff16036133a3576040517f08c379a000000000000000000000000000000000000000000000000000000000815260040161339a90615743565b60405180910390fd5b600073ffffffffffffffffffffffffffffffffffffffff168273ffffffffffffffffffffffffffffffffffffffff1603613412576040517f08c379a0000000000000000000000000000000000000000000000000000000008152600401613409906157d5565b60405180910390fd5b80600160008573ffffffffffffffffffffffffffffffffffffffff1673ffffffffffffffffffffffffffffffffffffffff16815260200190815260200160002060008473ffffffffffffffffffffffffffffffffffffffff1673ffffffffffffffffffffffffffffffffffffffff168152602001908152602001600020819055508173ffffffffffffffffffffffffffffffffffffffff168373ffffffffffffffffffffffffffffffffffffffff167f8c5be1e5ebec7d5bd14f71427d1e84f3dd0314c0f7b2291e5b200ac8c7c3b925836040516134f09190613f31565b60405180910390a3505050565b600061350984846128ff565b90507fffffffffffffffffffffffffffffffffffffffffffffffffffffffffffffffff81146135835781811015613575576040517f08c379a000000000000000000000000000000000000000000000000000000000815260040161356c90615841565b60405180910390fd5b6135828484848403613334565b5b50505050565b600073ffffffffffffffffffffffffffffffffffffffff168373ffffffffffffffffffffffffffffffffffffffff16036135f8576040517f08c379a00000000000000000000000000000000000000000000000000000000081526004016135ef906158d3565b60405180910390fd5b600073ffffffffffffffffffffffffffffffffffffffff168273ffffffffffffffffffffffffffffffffffffffff1603613667576040517f08c379a000000000000000000000000000000000000000000000000000000000815260040161365e90615965565b60405180910390fd5b613672838383613b1a565b60008060008573ffffffffffffffffffffffffffffffffffffffff1673ffffffffffffffffffffffffffffffffffffffff168152602001908152602001600020549050818110156136f8576040517f08c379a00000000000000000000000000000000000000000000000000000000081526004016136ef906159f7565b60405180910390fd5b8181036000808673ffffffffffffffffffffffffffffffffffffffff1673ffffffffffffffffffffffffffffffffffffffff16815260200190815260200160002081905550816000808573ffffffffffffffffffffffffffffffffffffffff1673ffffffffffffffffffffffffffffffffffffffff168152602001908152602001600020600082825401925050819055508273ffffffffffffffffffffffffffffffffffffffff168473ffffffffffffffffffffffffffffffffffffffff167fddf252ad1be2c89b69c2b068fc378daa952ba7f163c4a11628f55a4df523b3ef846040516137e69190613f31565b60405180910390a36137f9848484613b1f565b50505050565b606060005b600f60003373ffffffffffffffffffffffffffffffffffffffff1673ffffffffffffffffffffffffffffffffffffffff168152602001908152602001600020805490508110156139bd57600f60003373ffffffffffffffffffffffffffffffffffffffff1673ffffffffffffffffffffffffffffffffffffffff168152602001908152602001600020818154811061389f5761389e614ba3565b5b90600052602060002090600202016000015483036139aa57600f60003373ffffffffffffffffffffffffffffffffffffffff1673ffffffffffffffffffffffffffffffffffffffff168152602001908152602001600020818154811061390857613907614ba3565b5b9060005260206000209060020201600101805461392490614b0f565b80601f016020809104026020016040519081016040528092919081815260200182805461395090614b0f565b801561399d5780601f106139725761010080835404028352916020019161399d565b820191906000526020600020905b81548152906001019060200180831161398057829003601f168201915b50505050509150506139bf565b80806139b590614bd2565b915050613804565b505b919050565b600073ffffffffffffffffffffffffffffffffffffffff168273ffffffffffffffffffffffffffffffffffffffff1603613a33576040517f08c379a0000000000000000000000000000000000000000000000000000000008152600401613a2a90615a63565b60405180910390fd5b613a3f60008383613b1a565b8060026000828254613a519190614b6f565b92505081905550806000808473ffffffffffffffffffffffffffffffffffffffff1673ffffffffffffffffffffffffffffffffffffffff168152602001908152602001600020600082825401925050819055508173ffffffffffffffffffffffffffffffffffffffff16600073ffffffffffffffffffffffffffffffffffffffff167fddf252ad1be2c89b69c2b068fc378daa952ba7f163c4a11628f55a4df523b3ef83604051613b029190613f31565b60405180910390a3613b1660008383613b1f565b5050565b505050565b505050565b6040518060e001604052806000815260200160008152602001600081526020016060815260200160008152602001600015158152602001606081525090565b600081519050919050565b600082825260208201905092915050565b60005b83811015613b9d578082015181840152602081019050613b82565b60008484015250505050565b6000601f19601f8301169050919050565b6000613bc582613b63565b613bcf8185613b6e565b9350613bdf818560208601613b7f565b613be881613ba9565b840191505092915050565b60006020820190508181036000830152613c0d8184613bba565b905092915050565b6000604051905090565b600080fd5b600080fd5b600073ffffffffffffffffffffffffffffffffffffffff82169050919050565b6000613c5482613c29565b9050919050565b613c6481613c49565b8114613c6f57600080fd5b50565b600081359050613c8181613c5b565b92915050565b6000819050919050565b613c9a81613c87565b8114613ca557600080fd5b50565b600081359050613cb781613c91565b92915050565b60008060408385031215613cd457613cd3613c1f565b5b6000613ce285828601613c72565b9250506020613cf385828601613ca8565b9150509250929050565b60008115159050919050565b613d1281613cfd565b82525050565b6000602082019050613d2d6000830184613d09565b92915050565b600081519050919050565b600082825260208201905092915050565b6000819050602082019050919050565b613d6881613c87565b82525050565b600082825260208201905092915050565b6000613d8a82613b63565b613d948185613d6e565b9350613da4818560208601613b7f565b613dad81613ba9565b840191505092915050565b613dc181613cfd565b82525050565b600060e083016000830151613ddf6000860182613d5f565b506020830151613df26020860182613d5f565b506040830151613e056040860182613d5f565b5060608301518482036060860152613e1d8282613d7f565b9150506080830151613e326080860182613d5f565b5060a0830151613e4560a0860182613db8565b5060c083015184820360c0860152613e5d8282613d7f565b9150508091505092915050565b6000613e768383613dc7565b905092915050565b6000602082019050919050565b6000613e9682613d33565b613ea08185613d3e565b935083602082028501613eb285613d4f565b8060005b85811015613eee5784840389528151613ecf8582613e6a565b9450613eda83613e7e565b925060208a01995050600181019050613eb6565b50829750879550505050505092915050565b60006020820190508181036000830152613f1a8184613e8b565b905092915050565b613f2b81613c87565b82525050565b6000602082019050613f466000830184613f22565b92915050565b600080600060608486031215613f6557613f64613c1f565b5b6000613f7386828701613c72565b9350506020613f8486828701613c72565b9250506040613f9586828701613ca8565b9150509250925092565b600060208284031215613fb557613fb4613c1f565b5b6000613fc384828501613ca8565b91505092915050565b600060ff82169050919050565b613fe281613fcc565b82525050565b6000602082019050613ffd6000830184613fd9565b92915050565b600060e082019050614018600083018a613f22565b6140256020830189613f22565b6140326040830188613f22565b81810360608301526140448187613bba565b90506140536080830186613f22565b61406060a0830185613d09565b81810360c08301526140728184613bba565b905098975050505050505050565b60006040820190506140956000830185613f22565b81810360208301526140a78184613bba565b90509392505050565b6000602082840312156140c6576140c5613c1f565b5b60006140d484828501613c72565b91505092915050565b6140e681613c49565b82525050565b600060808201905081810360008301526141068187613bba565b90506141156020830186613f22565b6141226040830185613d09565b61412f60608301846140dd565b95945050505050565b60008060006060848603121561415157614150613c1f565b5b600061415f86828701613ca8565b935050602061417086828701613ca8565b925050604061418186828701613ca8565b9150509250925092565b600080fd5b600080fd5b7f4e487b7100000000000000000000000000000000000000000000000000000000600052604160045260246000fd5b6141cd82613ba9565b810181811067ffffffffffffffff821117156141ec576141eb614195565b5b80604052505050565b60006141ff613c15565b905061420b82826141c4565b919050565b600067ffffffffffffffff82111561422b5761422a614195565b5b61423482613ba9565b9050602081019050919050565b82818337600083830152505050565b600061426361425e84614210565b6141f5565b90508281526020810184848401111561427f5761427e614190565b5b61428a848285614241565b509392505050565b600082601f8301126142a7576142a661418b565b5b81356142b7848260208601614250565b91505092915050565b600080604083850312156142d7576142d6613c1f565b5b60006142e585828601613ca8565b925050602083013567ffffffffffffffff81111561430657614305613c24565b5b61431285828601614292565b9150509250929050565b600081519050919050565b600082825260208201905092915050565b6000819050602082019050919050565b60006143548383613d5f565b60208301905092915050565b6000602082019050919050565b60006143788261431c565b6143828185614327565b935061438d83614338565b8060005b838110156143be5781516143a58882614348565b97506143b083614360565b925050600181019050614391565b5085935050505092915050565b600060208201905081810360008301526143e5818461436d565b905092915050565b600067ffffffffffffffff82111561440857614407614195565b5b602082029050602081019050919050565b600080fd5b600061443161442c846143ed565b6141f5565b9050808382526020820190506020840283018581111561445457614453614419565b5b835b8181101561447d57806144698882613ca8565b845260208401935050602081019050614456565b5050509392505050565b600082601f83011261449c5761449b61418b565b5b81356144ac84826020860161441e565b91505092915050565b6000602082840312156144cb576144ca613c1f565b5b600082013567ffffffffffffffff8111156144e9576144e8613c24565b5b6144f584828501614487565b91505092915050565b6000819050919050565b614511816144fe565b811461451c57600080fd5b50565b60008135905061452e81614508565b92915050565b600067ffffffffffffffff82111561454f5761454e614195565b5b61455882613ba9565b9050602081019050919050565b600061457861457384614534565b6141f5565b90508281526020810184848401111561459457614593614190565b5b61459f848285614241565b509392505050565b600082601f8301126145bc576145bb61418b565b5b81356145cc848260208601614565565b91505092915050565b600080604083850312156145ec576145eb613c1f565b5b60006145fa8582860161451f565b925050602083013567ffffffffffffffff81111561461b5761461a613c24565b5b614627858286016145a7565b9150509250929050565b600060208201905061464660008301846140dd565b92915050565b6000806000806080858703121561466657614665613c1f565b5b600061467487828801613c72565b945050602061468587828801613ca8565b935050604085013567ffffffffffffffff8111156146a6576146a5613c24565b5b6146b287828801614292565b92505060606146c387828801613ca8565b91505092959194509250565b6146d8816144fe565b82525050565b60006020820190506146f360008301846146cf565b92915050565b60006020828403121561470f5761470e613c1f565b5b600082013567ffffffffffffffff81111561472d5761472c613c24565b5b614739848285016145a7565b91505092915050565b600060608201905061475760008301866146cf565b61476460208301856146cf565b6147716040830184613fd9565b949350505050565b60008060008060008060c0878903121561479657614795613c1f565b5b60006147a489828a01613c72565b96505060206147b589828a01613c72565b95505060406147c689828a01613ca8565b945050606087013567ffffffffffffffff8111156147e7576147e6613c24565b5b6147f389828a01614292565b935050608061480489828a01613ca8565b92505060a087013567ffffffffffffffff81111561482557614824613c24565b5b61483189828a016145a7565b9150509295509295509295565b600080600080600060a0868803121561485a57614859613c1f565b5b600061486888828901613ca8565b955050602061487988828901613ca8565b945050604086013567ffffffffffffffff81111561489a57614899613c24565b5b6148a688828901614292565b93505060606148b788828901613ca8565b925050608086013567ffffffffffffffff8111156148d8576148d7613c24565b5b6148e488828901614292565b9150509295509295909350565b6148fa81613fcc565b811461490557600080fd5b50565b600081359050614917816148f1565b92915050565b6000806000806080858703121561493757614936613c1f565b5b60006149458782880161451f565b945050602061495687828801614908565b93505060406149678782880161451f565b92505060606149788782880161451f565b91505092959194509250565b6000806040838503121561499b5761499a613c1f565b5b60006149a985828601613c72565b92505060206149ba85828601613c72565b9150509250929050565b600080604083850312156149db576149da613c1f565b5b600083013567ffffffffffffffff8111156149f9576149f8613c24565b5b614a0585828601614292565b9250506020614a1685828601613ca8565b9150509250929050565b60008060408385031215614a3757614a36613c1f565b5b6000614a4585828601613ca8565b9250506020614a5685828601613ca8565b9150509250929050565b600080600060608486031215614a7957614a78613c1f565b5b6000614a8786828701613c72565b9350506020614a9886828701613ca8565b9250506040614aa986828701613ca8565b9150509250925092565b600060208284031215614ac957614ac8613c1f565b5b6000614ad78482850161451f565b91505092915050565b7f4e487b7100000000000000000000000000000000000000000000000000000000600052602260045260246000fd5b60006002820490506001821680614b2757607f821691505b602082108103614b3a57614b39614ae0565b5b50919050565b7f4e487b7100000000000000000000000000000000000000000000000000000000600052601160045260246000fd5b6000614b7a82613c87565b9150614b8583613c87565b9250828201905080821115614b9d57614b9c614b40565b5b92915050565b7f4e487b7100000000000000000000000000000000000000000000000000000000600052603260045260246000fd5b6000614bdd82613c87565b91507fffffffffffffffffffffffffffffffffffffffffffffffffffffffffffffffff8203614c0f57614c0e614b40565b5b600182019050919050565b7f4f6e6c792061646d696e2063616e2063616c6c20746869732066756e6374696f60008201527f6e00000000000000000000000000000000000000000000000000000000000000602082015250565b6000614c76602183613b6e565b9150614c8182614c1a565b604082019050919050565b60006020820190508181036000830152614ca581614c69565b9050919050565b7f496e76616c696420726f6c652c206f6e6c792061646d696e206f72207365727660008201527f696365207375697461626c652e00000000000000000000000000000000000000602082015250565b6000614d08602d83613b6e565b9150614d1382614cac565b604082019050919050565b60006020820190508181036000830152614d3781614cfb565b9050919050565b60008190508160005260206000209050919050565b60006020601f8301049050919050565b600082821b905092915050565b600060088302614da07fffffffffffffffffffffffffffffffffffffffffffffffffffffffffffffffff82614d63565b614daa8683614d63565b95508019841693508086168417925050509392505050565b6000819050919050565b6000614de7614de2614ddd84613c87565b614dc2565b613c87565b9050919050565b6000819050919050565b614e0183614dcc565b614e15614e0d82614dee565b848454614d70565b825550505050565b600090565b614e2a614e1d565b614e35818484614df8565b505050565b5b81811015614e5957614e4e600082614e22565b600181019050614e3b565b5050565b601f821115614e9e57614e6f81614d3e565b614e7884614d53565b81016020851015614e87578190505b614e9b614e9385614d53565b830182614e3a565b50505b505050565b600082821c905092915050565b6000614ec160001984600802614ea3565b1980831691505092915050565b6000614eda8383614eb0565b9150826002028217905092915050565b614ef382613b63565b67ffffffffffffffff811115614f0c57614f0b614195565b5b614f168254614b0f565b614f21828285614e5d565b600060209050601f831160018114614f545760008415614f42578287015190505b614f4c8582614ece565b865550614fb4565b601f198416614f6286614d3e565b60005b82811015614f8a57848901518255600182019150602085019450602081019050614f65565b86831015614fa75784890151614fa3601f891682614eb0565b8355505b6001600288020188555050505b505050505050565b7f546869732044657374696e6174696f6e20776173206e6f7420636865636b696e600082015250565b6000614ff2602083613b6e565b9150614ffd82614fbc565b602082019050919050565b6000602082019050818103600083015261502181614fe5565b9050919050565b600060e0830160008301516150406000860182613d5f565b5060208301516150536020860182613d5f565b5060408301516150666040860182613d5f565b506060830151848203606086015261507e8282613d7f565b91505060808301516150936080860182613d5f565b5060a08301516150a660a0860182613db8565b5060c083015184820360c08601526150be8282613d7f565b9150508091505092915050565b600060408201905081810360008301526150e58185613bba565b905081810360208301526150f98184615028565b90509392505050565b600060808201905061511760008301876146cf565b6151246020830186613fd9565b61513160408301856146cf565b61513e60608301846146cf565b95945050505050565b60008160601b9050919050565b600061515f82615147565b9050919050565b600061517182615154565b9050919050565b61518961518482613c49565b615166565b82525050565b6000819050919050565b6151aa6151a582613c87565b61518f565b82525050565b600081905092915050565b60006151c682613b63565b6151d081856151b0565b93506151e0818560208601613b7f565b80840191505092915050565b60006151f88287615178565b6014820191506152088286615199565b60208201915061521882856151bb565b91506152248284615199565b60208201915081905095945050505050565b7f45524332303a2064656372656173656420616c6c6f77616e63652062656c6f7760008201527f207a65726f000000000000000000000000000000000000000000000000000000602082015250565b6000615292602583613b6e565b915061529d82615236565b604082019050919050565b600060208201905081810360008301526152c181615285565b9050919050565b7f696e76616c6964207369676e6174757265206c656e6774680000000000000000600082015250565b60006152fe601883613b6e565b9150615309826152c8565b602082019050919050565b6000602082019050818103600083015261532d816152f1565b9050919050565b7f596f7520686164206265656e2072657669657765642074686973207472697000600082015250565b600061536a601f83613b6e565b915061537582615334565b602082019050919050565b600060208201905081810360008301526153998161535d565b9050919050565b6000815490506153af81614b0f565b9050919050565b8181036153c457505061549c565b6153cd826153a0565b67ffffffffffffffff8111156153e6576153e5614195565b5b6153f08254614b0f565b6153fb828285614e5d565b6000601f83116001811461542a5760008415615418578287015490505b6154228582614ece565b865550615495565b601f19841661543887614d3e565b965061544386614d3e565b60005b8281101561546b57848901548255600182019150600185019450602081019050615446565b868310156154885784890154615484601f891682614eb0565b8355505b6001600288020188555050505b5050505050505b565b7f5468697320494420616c72656164792065786973746564000000000000000000600082015250565b60006154d4601783613b6e565b91506154df8261549e565b602082019050919050565b60006020820190508181036000830152615503816154c7565b9050919050565b600081519050919050565b600081905092915050565b600061552b8261550a565b6155358185615515565b9350615545818560208601613b7f565b80840191505092915050565b6000819050919050565b61556c615567826144fe565b615551565b82525050565b600061557e8285615520565b915061558a828461555b565b6020820191508190509392505050565b600060408201905081810360008301526155b48185613bba565b90506155c36020830184613f22565b9392505050565b7f5469636b65742068617320757365640000000000000000000000000000000000600082015250565b6000615600600f83613b6e565b915061560b826155ca565b602082019050919050565b6000602082019050818103600083015261562f816155f3565b9050919050565b600060408201905061564b6000830185613f22565b6156586020830184613f22565b9392505050565b7f19457468657265756d205369676e6564204d6573736167653a0a333200000000600082015250565b6000615695601c836151b0565b91506156a08261565f565b601c82019050919050565b60006156b682615688565b91506156c2828461555b565b60208201915081905092915050565b7f45524332303a20617070726f76652066726f6d20746865207a65726f2061646460008201527f7265737300000000000000000000000000000000000000000000000000000000602082015250565b600061572d602483613b6e565b9150615738826156d1565b604082019050919050565b6000602082019050818103600083015261575c81615720565b9050919050565b7f45524332303a20617070726f766520746f20746865207a65726f20616464726560008201527f7373000000000000000000000000000000000000000000000000000000000000602082015250565b60006157bf602283613b6e565b91506157ca82615763565b604082019050919050565b600060208201905081810360008301526157ee816157b2565b9050919050565b7f45524332303a20696e73756666696369656e7420616c6c6f77616e6365000000600082015250565b600061582b601d83613b6e565b9150615836826157f5565b602082019050919050565b6000602082019050818103600083015261585a8161581e565b9050919050565b7f45524332303a207472616e736665722066726f6d20746865207a65726f20616460008201527f6472657373000000000000000000000000000000000000000000000000000000602082015250565b60006158bd602583613b6e565b91506158c882615861565b604082019050919050565b600060208201905081810360008301526158ec816158b0565b9050919050565b7f45524332303a207472616e7366657220746f20746865207a65726f206164647260008201527f6573730000000000000000000000000000000000000000000000000000000000602082015250565b600061594f602383613b6e565b915061595a826158f3565b604082019050919050565b6000602082019050818103600083015261597e81615942565b9050919050565b7f45524332303a207472616e7366657220616d6f756e742065786365656473206260008201527f616c616e63650000000000000000000000000000000000000000000000000000602082015250565b60006159e1602683613b6e565b91506159ec82615985565b604082019050919050565b60006020820190508181036000830152615a10816159d4565b9050919050565b7f45524332303a206d696e7420746f20746865207a65726f206164647265737300600082015250565b6000615a4d601f83613b6e565b9150615a5882615a17565b602082019050919050565b60006020820190508181036000830152615a7c81615a40565b905091905056fea26469706673582212203344f0466beedaeddc58a84f2dc71d54701afe542078b9ba7351804034cdc37464736f6c63430008130033",
  "linkReferences": {},
  "deployedLinkReferences": {}
}