{
  "_format": "hh-sol-artifact-1",
  "contractName": "TouristConTract",
  "sourceName": "contracts/Tourism.sol",
  "abi": [
    {
      "inputs": [],
      "stateMutability": "nonpayable",
      "type": "constructor"
    },
    {
      "anonymous": false,
      "inputs": [
        {
          "indexed": false,
          "internalType": "string",
          "name": "AlbumName",
          "type": "string"
        },
        {
          "components": [
            {
              "internalType": "uint256",
              "name": "tripId",
              "type": "uint256"
            },
            {
              "internalType": "uint256",
              "name": "placeId",
              "type": "uint256"
            },
            {
              "internalType": "uint256",
              "name": "arrivalDate",
              "type": "uint256"
            },
            {
              "internalType": "string",
              "name": "review",
              "type": "string"
            },
            {
              "internalType": "uint256",
              "name": "rate",
              "type": "uint256"
            },
            {
              "internalType": "bool",
              "name": "isReview",
              "type": "bool"
            },
            {
              "internalType": "string",
              "name": "title",
              "type": "string"
            }
          ],
          "indexed": false,
          "internalType": "struct TouristConTract.Journey",
          "name": "journey",
          "type": "tuple"
        }
      ],
      "name": "AddJourneyInAlbum",
      "type": "event"
    },
    {
      "anonymous": false,
      "inputs": [
        {
          "indexed": false,
          "internalType": "string",
          "name": "name",
          "type": "string"
        },
        {
          "indexed": false,
          "internalType": "uint256",
          "name": "age",
          "type": "uint256"
        }
      ],
      "name": "AddTourist",
      "type": "event"
    },
    {
      "anonymous": false,
      "inputs": [
        {
          "indexed": true,
          "internalType": "address",
          "name": "owner",
          "type": "address"
        },
        {
          "indexed": true,
          "internalType": "address",
          "name": "spender",
          "type": "address"
        },
        {
          "indexed": false,
          "internalType": "uint256",
          "name": "value",
          "type": "uint256"
        }
      ],
      "name": "Approval",
      "type": "event"
    },
    {
      "anonymous": false,
      "inputs": [
        {
          "indexed": false,
          "internalType": "uint256",
          "name": "ticketId",
          "type": "uint256"
        },
        {
          "indexed": false,
          "internalType": "uint256",
          "name": "placeId",
          "type": "uint256"
        }
      ],
      "name": "CheckIn",
      "type": "event"
    },
    {
      "anonymous": false,
      "inputs": [
        {
          "indexed": false,
          "internalType": "uint256",
          "name": "_id",
          "type": "uint256"
        },
        {
          "indexed": false,
          "internalType": "string",
          "name": "_name",
          "type": "string"
        }
      ],
      "name": "CreateAlbum",
      "type": "event"
    },
    {
      "anonymous": false,
      "inputs": [
        {
          "indexed": false,
          "internalType": "uint256",
          "name": "voucherID",
          "type": "uint256"
        },
        {
          "indexed": false,
          "internalType": "uint256",
          "name": "amount",
          "type": "uint256"
        }
      ],
      "name": "ExchangeVoucher",
      "type": "event"
    },
    {
      "anonymous": false,
      "inputs": [
        {
          "indexed": false,
          "internalType": "uint256",
          "name": "placeId",
          "type": "uint256"
        },
        {
          "indexed": false,
          "internalType": "uint256",
          "name": "idTrip",
          "type": "uint256"
        },
        {
          "indexed": false,
          "internalType": "string",
          "name": "comment",
          "type": "string"
        },
        {
          "indexed": false,
          "internalType": "uint256",
          "name": "rate",
          "type": "uint256"
        },
        {
          "indexed": false,
          "internalType": "string",
          "name": "title",
          "type": "string"
        }
      ],
      "name": "Review",
      "type": "event"
    },
    {
      "anonymous": false,
      "inputs": [
        {
          "indexed": true,
          "internalType": "address",
          "name": "from",
          "type": "address"
        },
        {
          "indexed": true,
          "internalType": "address",
          "name": "to",
          "type": "address"
        },
        {
          "indexed": false,
          "internalType": "uint256",
          "name": "value",
          "type": "uint256"
        }
      ],
      "name": "Transfer",
      "type": "event"
    },
    {
      "inputs": [
        {
          "internalType": "address",
          "name": "_signer",
          "type": "address"
        },
        {
          "internalType": "address",
          "name": "_to",
          "type": "address"
        },
        {
          "internalType": "uint256",
          "name": "_amount",
          "type": "uint256"
        },
        {
          "internalType": "string",
          "name": "_message",
          "type": "string"
        },
        {
          "internalType": "uint256",
          "name": "_nonce",
          "type": "uint256"
        },
        {
          "internalType": "bytes",
          "name": "signature",
          "type": "bytes"
        }
      ],
      "name": "_exchangeReward",
      "outputs": [],
      "stateMutability": "nonpayable",
      "type": "function"
    },
    {
      "inputs": [
        {
          "internalType": "address",
          "name": "_signer",
          "type": "address"
        },
        {
          "internalType": "address",
          "name": "_to",
          "type": "address"
        },
        {
          "internalType": "uint256",
          "name": "_amount",
          "type": "uint256"
        },
        {
          "internalType": "string",
          "name": "_message",
          "type": "string"
        },
        {
          "internalType": "uint256",
          "name": "_nonce",
          "type": "uint256"
        },
        {
          "internalType": "bytes",
          "name": "signature",
          "type": "bytes"
        }
      ],
      "name": "_mintMinerReward",
      "outputs": [],
      "stateMutability": "nonpayable",
      "type": "function"
    },
    {
      "inputs": [
        {
          "internalType": "uint256",
          "name": "placeId",
          "type": "uint256"
        },
        {
          "internalType": "uint256",
          "name": "albumId",
          "type": "uint256"
        },
        {
          "internalType": "uint256",
          "name": "date",
          "type": "uint256"
        }
      ],
      "name": "addAlbumJourney",
      "outputs": [],
      "stateMutability": "nonpayable",
      "type": "function"
    },
    {
      "inputs": [
        {
          "internalType": "uint256",
          "name": "id",
          "type": "uint256"
        }
      ],
      "name": "addTicket",
      "outputs": [],
      "stateMutability": "nonpayable",
      "type": "function"
    },
    {
      "inputs": [
        {
          "internalType": "address",
          "name": "",
          "type": "address"
        },
        {
          "internalType": "uint256",
          "name": "",
          "type": "uint256"
        },
        {
          "internalType": "uint256",
          "name": "",
          "type": "uint256"
        }
      ],
      "name": "albumJourneys",
      "outputs": [
        {
          "internalType": "uint256",
          "name": "tripId",
          "type": "uint256"
        },
        {
          "internalType": "uint256",
          "name": "placeId",
          "type": "uint256"
        },
        {
          "internalType": "uint256",
          "name": "arrivalDate",
          "type": "uint256"
        },
        {
          "internalType": "string",
          "name": "review",
          "type": "string"
        },
        {
          "internalType": "uint256",
          "name": "rate",
          "type": "uint256"
        },
        {
          "internalType": "bool",
          "name": "isReview",
          "type": "bool"
        },
        {
          "internalType": "string",
          "name": "title",
          "type": "string"
        }
      ],
      "stateMutability": "view",
      "type": "function"
    },
    {
      "inputs": [
        {
          "internalType": "address",
          "name": "owner",
          "type": "address"
        },
        {
          "internalType": "address",
          "name": "spender",
          "type": "address"
        }
      ],
      "name": "allowance",
      "outputs": [
        {
          "internalType": "uint256",
          "name": "",
          "type": "uint256"
        }
      ],
      "stateMutability": "view",
      "type": "function"
    },
    {
      "inputs": [
        {
          "internalType": "address",
          "name": "spender",
          "type": "address"
        },
        {
          "internalType": "uint256",
          "name": "amount",
          "type": "uint256"
        }
      ],
      "name": "approve",
      "outputs": [
        {
          "internalType": "bool",
          "name": "",
          "type": "bool"
        }
      ],
      "stateMutability": "nonpayable",
      "type": "function"
    },
    {
      "inputs": [
        {
          "internalType": "address",
          "name": "account",
          "type": "address"
        }
      ],
      "name": "balanceOf",
      "outputs": [
        {
          "internalType": "uint256",
          "name": "",
          "type": "uint256"
        }
      ],
      "stateMutability": "view",
      "type": "function"
    },
    {
      "inputs": [
        {
          "internalType": "uint256",
          "name": "ticketID",
          "type": "uint256"
        },
        {
          "internalType": "uint256",
          "name": "placeID",
          "type": "uint256"
        }
      ],
      "name": "checkIn",
      "outputs": [],
      "stateMutability": "nonpayable",
      "type": "function"
    },
    {
      "inputs": [
        {
          "internalType": "uint256",
          "name": "ticketID",
          "type": "uint256"
        }
      ],
      "name": "checkValidTicket",
      "outputs": [
        {
          "internalType": "bool",
          "name": "",
          "type": "bool"
        }
      ],
      "stateMutability": "view",
      "type": "function"
    },
    {
      "inputs": [
        {
          "internalType": "uint256",
          "name": "_id",
          "type": "uint256"
        },
        {
          "internalType": "string",
          "name": "_name",
          "type": "string"
        }
      ],
      "name": "createAlbum",
      "outputs": [],
      "stateMutability": "nonpayable",
      "type": "function"
    },
    {
      "inputs": [],
      "name": "decimals",
      "outputs": [
        {
          "internalType": "uint8",
          "name": "",
          "type": "uint8"
        }
      ],
      "stateMutability": "view",
      "type": "function"
    },
    {
      "inputs": [
        {
          "internalType": "address",
          "name": "spender",
          "type": "address"
        },
        {
          "internalType": "uint256",
          "name": "subtractedValue",
          "type": "uint256"
        }
      ],
      "name": "decreaseAllowance",
      "outputs": [
        {
          "internalType": "bool",
          "name": "",
          "type": "bool"
        }
      ],
      "stateMutability": "nonpayable",
      "type": "function"
    },
    {
      "inputs": [
        {
          "internalType": "uint256",
          "name": "",
          "type": "uint256"
        },
        {
          "internalType": "uint256",
          "name": "",
          "type": "uint256"
        }
      ],
      "name": "destinationRates",
      "outputs": [
        {
          "internalType": "uint256",
          "name": "",
          "type": "uint256"
        }
      ],
      "stateMutability": "view",
      "type": "function"
    },
    {
      "inputs": [
        {
          "internalType": "uint256",
          "name": "voucherID",
          "type": "uint256"
        },
        {
          "internalType": "address",
          "name": "_signer",
          "type": "address"
        },
        {
          "internalType": "address",
          "name": "_to",
          "type": "address"
        },
        {
          "internalType": "uint256",
          "name": "_amount",
          "type": "uint256"
        },
        {
          "internalType": "string",
          "name": "_message",
          "type": "string"
        },
        {
          "internalType": "uint256",
          "name": "_nonce",
          "type": "uint256"
        },
        {
          "internalType": "bytes",
          "name": "signature",
          "type": "bytes"
        }
      ],
      "name": "exchangeVoucher",
      "outputs": [],
      "stateMutability": "nonpayable",
      "type": "function"
    },
    {
      "inputs": [
        {
          "internalType": "uint256",
          "name": "id",
          "type": "uint256"
        }
      ],
      "name": "getAlbumCheckIn",
      "outputs": [
        {
          "components": [
            {
              "internalType": "uint256",
              "name": "tripId",
              "type": "uint256"
            },
            {
              "internalType": "uint256",
              "name": "placeId",
              "type": "uint256"
            },
            {
              "internalType": "uint256",
              "name": "arrivalDate",
              "type": "uint256"
            },
            {
              "internalType": "string",
              "name": "review",
              "type": "string"
            },
            {
              "internalType": "uint256",
              "name": "rate",
              "type": "uint256"
            },
            {
              "internalType": "bool",
              "name": "isReview",
              "type": "bool"
            },
            {
              "internalType": "string",
              "name": "title",
              "type": "string"
            }
          ],
          "internalType": "struct TouristConTract.Journey[]",
          "name": "",
          "type": "tuple[]"
        }
      ],
      "stateMutability": "view",
      "type": "function"
    },
    {
      "inputs": [],
      "name": "getAllJourney",
      "outputs": [
        {
          "components": [
            {
              "internalType": "uint256",
              "name": "tripId",
              "type": "uint256"
            },
            {
              "internalType": "uint256",
              "name": "placeId",
              "type": "uint256"
            },
            {
              "internalType": "uint256",
              "name": "arrivalDate",
              "type": "uint256"
            },
            {
              "internalType": "string",
              "name": "review",
              "type": "string"
            },
            {
              "internalType": "uint256",
              "name": "rate",
              "type": "uint256"
            },
            {
              "internalType": "bool",
              "name": "isReview",
              "type": "bool"
            },
            {
              "internalType": "string",
              "name": "title",
              "type": "string"
            }
          ],
          "internalType": "struct TouristConTract.Journey[]",
          "name": "",
          "type": "tuple[]"
        }
      ],
      "stateMutability": "view",
      "type": "function"
    },
    {
      "inputs": [
        {
          "internalType": "uint256",
          "name": "placeid",
          "type": "uint256"
        }
      ],
      "name": "getAllRates",
      "outputs": [
        {
          "internalType": "uint256[]",
          "name": "",
          "type": "uint256[]"
        }
      ],
      "stateMutability": "view",
      "type": "function"
    },
    {
      "inputs": [
        {
          "internalType": "address",
          "name": "add",
          "type": "address"
        }
      ],
      "name": "getBalance",
      "outputs": [
        {
          "internalType": "uint256",
          "name": "",
          "type": "uint256"
        }
      ],
      "stateMutability": "view",
      "type": "function"
    },
    {
      "inputs": [
        {
          "internalType": "bytes32",
          "name": "_messageHash",
          "type": "bytes32"
        }
      ],
      "name": "getEthSignedMessageHash",
      "outputs": [
        {
          "internalType": "bytes32",
          "name": "",
          "type": "bytes32"
        }
      ],
      "stateMutability": "pure",
      "type": "function"
    },
    {
      "inputs": [
        {
          "internalType": "uint256[]",
          "name": "idTrip",
          "type": "uint256[]"
        }
      ],
      "name": "getJourneyWithID",
      "outputs": [
        {
          "components": [
            {
              "internalType": "uint256",
              "name": "tripId",
              "type": "uint256"
            },
            {
              "internalType": "uint256",
              "name": "placeId",
              "type": "uint256"
            },
            {
              "internalType": "uint256",
              "name": "arrivalDate",
              "type": "uint256"
            },
            {
              "internalType": "string",
              "name": "review",
              "type": "string"
            },
            {
              "internalType": "uint256",
              "name": "rate",
              "type": "uint256"
            },
            {
              "internalType": "bool",
              "name": "isReview",
              "type": "bool"
            },
            {
              "internalType": "string",
              "name": "title",
              "type": "string"
            }
          ],
          "internalType": "struct TouristConTract.Journey[]",
          "name": "",
          "type": "tuple[]"
        }
      ],
      "stateMutability": "view",
      "type": "function"
    },
    {
      "inputs": [
        {
          "internalType": "address",
          "name": "_to",
          "type": "address"
        },
        {
          "internalType": "uint256",
          "name": "_amount",
          "type": "uint256"
        },
        {
          "internalType": "string",
          "name": "_message",
          "type": "string"
        },
        {
          "internalType": "uint256",
          "name": "_nonce",
          "type": "uint256"
        }
      ],
      "name": "getMessageHash",
      "outputs": [
        {
          "internalType": "bytes32",
          "name": "",
          "type": "bytes32"
        }
      ],
      "stateMutability": "pure",
      "type": "function"
    },
    {
      "inputs": [
        {
          "internalType": "uint256",
          "name": "placeid",
          "type": "uint256"
        }
      ],
      "name": "getReviewsInPlace",
      "outputs": [
        {
          "components": [
            {
              "internalType": "uint256",
              "name": "tripId",
              "type": "uint256"
            },
            {
              "internalType": "uint256",
              "name": "placeId",
              "type": "uint256"
            },
            {
              "internalType": "uint256",
              "name": "arrivalDate",
              "type": "uint256"
            },
            {
              "internalType": "string",
              "name": "review",
              "type": "string"
            },
            {
              "internalType": "uint256",
              "name": "rate",
              "type": "uint256"
            },
            {
              "internalType": "bool",
              "name": "isReview",
              "type": "bool"
            },
            {
              "internalType": "string",
              "name": "title",
              "type": "string"
            }
          ],
          "internalType": "struct TouristConTract.Journey[]",
          "name": "",
          "type": "tuple[]"
        }
      ],
      "stateMutability": "view",
      "type": "function"
    },
    {
      "inputs": [
        {
          "internalType": "address",
          "name": "userAddress",
          "type": "address"
        },
        {
          "internalType": "uint256",
          "name": "role",
          "type": "uint256"
        }
      ],
      "name": "grantRole",
      "outputs": [],
      "stateMutability": "nonpayable",
      "type": "function"
    },
    {
      "inputs": [
        {
          "internalType": "address",
          "name": "spender",
          "type": "address"
        },
        {
          "internalType": "uint256",
          "name": "addedValue",
          "type": "uint256"
        }
      ],
      "name": "increaseAllowance",
      "outputs": [
        {
          "internalType": "bool",
          "name": "",
          "type": "bool"
        }
      ],
      "stateMutability": "nonpayable",
      "type": "function"
    },
    {
      "inputs": [],
      "name": "name",
      "outputs": [
        {
          "internalType": "string",
          "name": "",
          "type": "string"
        }
      ],
      "stateMutability": "view",
      "type": "function"
    },
    {
      "inputs": [
        {
          "internalType": "uint256",
          "name": "",
          "type": "uint256"
        }
      ],
      "name": "noPeopleCheckIn",
      "outputs": [
        {
          "internalType": "uint256",
          "name": "",
          "type": "uint256"
        }
      ],
      "stateMutability": "view",
      "type": "function"
    },
    {
      "inputs": [
        {
          "internalType": "uint256",
          "name": "",
          "type": "uint256"
        }
      ],
      "name": "noPeopleRate",
      "outputs": [
        {
          "internalType": "uint256",
          "name": "",
          "type": "uint256"
        }
      ],
      "stateMutability": "view",
      "type": "function"
    },
    {
      "inputs": [
        {
          "internalType": "bytes32",
          "name": "_ethSignedMessageHash",
          "type": "bytes32"
        },
        {
          "internalType": "bytes",
          "name": "_signature",
          "type": "bytes"
        }
      ],
      "name": "recoverSigner",
      "outputs": [
        {
          "internalType": "address",
          "name": "",
          "type": "address"
        }
      ],
      "stateMutability": "pure",
      "type": "function"
    },
    {
      "inputs": [
        {
          "internalType": "string",
          "name": "name",
          "type": "string"
        },
        {
          "internalType": "uint256",
          "name": "age",
          "type": "uint256"
        }
      ],
      "name": "register",
      "outputs": [],
      "stateMutability": "nonpayable",
      "type": "function"
    },
    {
      "inputs": [
        {
          "internalType": "uint256",
          "name": "placeId",
          "type": "uint256"
        },
        {
          "internalType": "uint256",
          "name": "idTrip",
          "type": "uint256"
        },
        {
          "internalType": "string",
          "name": "comment",
          "type": "string"
        },
        {
          "internalType": "uint256",
          "name": "rate",
          "type": "uint256"
        },
        {
          "internalType": "string",
          "name": "title",
          "type": "string"
        }
      ],
      "name": "review",
      "outputs": [],
      "stateMutability": "nonpayable",
      "type": "function"
    },
    {
      "inputs": [
        {
          "internalType": "bytes",
          "name": "sig",
          "type": "bytes"
        }
      ],
      "name": "splitSignature",
      "outputs": [
        {
          "internalType": "bytes32",
          "name": "r",
          "type": "bytes32"
        },
        {
          "internalType": "bytes32",
          "name": "s",
          "type": "bytes32"
        },
        {
          "internalType": "uint8",
          "name": "v",
          "type": "uint8"
        }
      ],
      "stateMutability": "pure",
      "type": "function"
    },
    {
      "inputs": [],
      "name": "symbol",
      "outputs": [
        {
          "internalType": "string",
          "name": "",
          "type": "string"
        }
      ],
      "stateMutability": "view",
      "type": "function"
    },
    {
      "inputs": [],
      "name": "totalSupply",
      "outputs": [
        {
          "internalType": "uint256",
          "name": "",
          "type": "uint256"
        }
      ],
      "stateMutability": "view",
      "type": "function"
    },
    {
      "inputs": [
        {
          "internalType": "address",
          "name": "",
          "type": "address"
        },
        {
          "internalType": "uint256",
          "name": "",
          "type": "uint256"
        }
      ],
      "name": "touristAlbums",
      "outputs": [
        {
          "internalType": "uint256",
          "name": "id",
          "type": "uint256"
        },
        {
          "internalType": "string",
          "name": "name",
          "type": "string"
        }
      ],
      "stateMutability": "view",
      "type": "function"
    },
    {
      "inputs": [
        {
          "internalType": "address",
          "name": "",
          "type": "address"
        }
      ],
      "name": "touristIdentify",
      "outputs": [
        {
          "internalType": "string",
          "name": "name",
          "type": "string"
        },
        {
          "internalType": "uint256",
          "name": "age",
          "type": "uint256"
        },
        {
          "internalType": "bool",
          "name": "signup",
          "type": "bool"
        },
        {
          "internalType": "address",
          "name": "touristAddress",
          "type": "address"
        }
      ],
      "stateMutability": "view",
      "type": "function"
    },
    {
      "inputs": [
        {
          "internalType": "address",
          "name": "",
          "type": "address"
        },
        {
          "internalType": "uint256",
          "name": "",
          "type": "uint256"
        }
      ],
      "name": "touristJourneys",
      "outputs": [
        {
          "internalType": "uint256",
          "name": "tripId",
          "type": "uint256"
        },
        {
          "internalType": "uint256",
          "name": "placeId",
          "type": "uint256"
        },
        {
          "internalType": "uint256",
          "name": "arrivalDate",
          "type": "uint256"
        },
        {
          "internalType": "string",
          "name": "review",
          "type": "string"
        },
        {
          "internalType": "uint256",
          "name": "rate",
          "type": "uint256"
        },
        {
          "internalType": "bool",
          "name": "isReview",
          "type": "bool"
        },
        {
          "internalType": "string",
          "name": "title",
          "type": "string"
        }
      ],
      "stateMutability": "view",
      "type": "function"
    },
    {
      "inputs": [
        {
          "internalType": "address",
          "name": "to",
          "type": "address"
        },
        {
          "internalType": "uint256",
          "name": "amount",
          "type": "uint256"
        }
      ],
      "name": "transfer",
      "outputs": [
        {
          "internalType": "bool",
          "name": "",
          "type": "bool"
        }
      ],
      "stateMutability": "nonpayable",
      "type": "function"
    },
    {
      "inputs": [
        {
          "internalType": "address",
          "name": "from",
          "type": "address"
        },
        {
          "internalType": "address",
          "name": "to",
          "type": "address"
        },
        {
          "internalType": "uint256",
          "name": "amount",
          "type": "uint256"
        }
      ],
      "name": "transferFrom",
      "outputs": [
        {
          "internalType": "bool",
          "name": "",
          "type": "bool"
        }
      ],
      "stateMutability": "nonpayable",
      "type": "function"
    },
    {
      "inputs": [
        {
          "internalType": "uint256",
          "name": "id",
          "type": "uint256"
        }
      ],
      "name": "validAddIDTicket",
      "outputs": [
        {
          "internalType": "bool",
          "name": "",
          "type": "bool"
        }
      ],
      "stateMutability": "view",
      "type": "function"
    },
    {
      "inputs": [
        {
          "internalType": "address",
          "name": "_signer",
          "type": "address"
        },
        {
          "internalType": "address",
          "name": "_to",
          "type": "address"
        },
        {
          "internalType": "uint256",
          "name": "_amount",
          "type": "uint256"
        },
        {
          "internalType": "string",
          "name": "_message",
          "type": "string"
        },
        {
          "internalType": "uint256",
          "name": "_nonce",
          "type": "uint256"
        },
        {
          "internalType": "bytes",
          "name": "signature",
          "type": "bytes"
        }
      ],
      "name": "verify",
      "outputs": [
        {
          "internalType": "bool",
          "name": "",
          "type": "bool"
        }
      ],
      "stateMutability": "pure",
      "type": "function"
    }
  ],
  "bytecode": "0x60806040523480156200001157600080fd5b506040518060400160405280600781526020017f4443546f6b656e000000000000000000000000000000000000000000000000008152506040518060400160405280600281526020017f587500000000000000000000000000000000000000000000000000000000000081525081600390816200008f919062000c88565b508060049081620000a1919062000c88565b50505060096040518060400160405280600181526020016000151581525090806001815401808255809150506001900390600052602060002090600202016000909190919091506000820151816000015560208201518160010160006101000a81548160ff021916908315150217905550505060096040518060400160405280600281526020016000151581525090806001815401808255809150506001900390600052602060002090600202016000909190919091506000820151816000015560208201518160010160006101000a81548160ff021916908315150217905550505060096040518060400160405280600381526020016000151581525090806001815401808255809150506001900390600052602060002090600202016000909190919091506000820151816000015560208201518160010160006101000a81548160ff021916908315150217905550505060096040518060400160405280600481526020016000151581525090806001815401808255809150506001900390600052602060002090600202016000909190919091506000820151816000015560208201518160010160006101000a81548160ff021916908315150217905550505060096040518060400160405280600581526020016000151581525090806001815401808255809150506001900390600052602060002090600202016000909190919091506000820151816000015560208201518160010160006101000a81548160ff021916908315150217905550505060096040518060400160405280600681526020016000151581525090806001815401808255809150506001900390600052602060002090600202016000909190919091506000820151816000015560208201518160010160006101000a81548160ff021916908315150217905550505060096040518060400160405280600781526020016000151581525090806001815401808255809150506001900390600052602060002090600202016000909190919091506000820151816000015560208201518160010160006101000a81548160ff021916908315150217905550505060096040518060400160405280600881526020016000151581525090806001815401808255809150506001900390600052602060002090600202016000909190919091506000820151816000015560208201518160010160006101000a81548160ff021916908315150217905550505060096040518060400160405280600981526020016000151581525090806001815401808255809150506001900390600052602060002090600202016000909190919091506000820151816000015560208201518160010160006101000a81548160ff021916908315150217905550505060096040518060400160405280600a81526020016000151581525090806001815401808255809150506001900390600052602060002090600202016000909190919091506000820151816000015560208201518160010160006101000a81548160ff021916908315150217905550505060096040518060400160405280600b81526020016000151581525090806001815401808255809150506001900390600052602060002090600202016000909190919091506000820151816000015560208201518160010160006101000a81548160ff021916908315150217905550505060096040518060400160405280600c81526020016000151581525090806001815401808255809150506001900390600052602060002090600202016000909190919091506000820151816000015560208201518160010160006101000a81548160ff021916908315150217905550505060096040518060400160405280600d81526020016000151581525090806001815401808255809150506001900390600052602060002090600202016000909190919091506000820151816000015560208201518160010160006101000a81548160ff021916908315150217905550505060096040518060400160405280600e81526020016000151581525090806001815401808255809150506001900390600052602060002090600202016000909190919091506000820151816000015560208201518160010160006101000a81548160ff021916908315150217905550505060096040518060400160405280600f81526020016000151581525090806001815401808255809150506001900390600052602060002090600202016000909190919091506000820151816000015560208201518160010160006101000a81548160ff021916908315150217905550505060096040518060400160405280601081526020016000151581525090806001815401808255809150506001900390600052602060002090600202016000909190919091506000820151816000015560208201518160010160006101000a81548160ff021916908315150217905550505060096040518060400160405280601181526020016000151581525090806001815401808255809150506001900390600052602060002090600202016000909190919091506000820151816000015560208201518160010160006101000a81548160ff021916908315150217905550505060096040518060400160405280601281526020016000151581525090806001815401808255809150506001900390600052602060002090600202016000909190919091506000820151816000015560208201518160010160006101000a81548160ff021916908315150217905550505060096040518060400160405280601381526020016000151581525090806001815401808255809150506001900390600052602060002090600202016000909190919091506000820151816000015560208201518160010160006101000a81548160ff021916908315150217905550505060096040518060400160405280601481526020016000151581525090806001815401808255809150506001900390600052602060002090600202016000909190919091506000820151816000015560208201518160010160006101000a81548160ff02191690831515021790555050506006339080600181540180825580915050600190039060005260206000200160009091909190916101000a81548173ffffffffffffffffffffffffffffffffffffffff021916908373ffffffffffffffffffffffffffffffffffffffff16021790555033600560006101000a81548173ffffffffffffffffffffffffffffffffffffffff021916908373ffffffffffffffffffffffffffffffffffffffff16021790555062000d6f565b600081519050919050565b7f4e487b7100000000000000000000000000000000000000000000000000000000600052604160045260246000fd5b7f4e487b7100000000000000000000000000000000000000000000000000000000600052602260045260246000fd5b6000600282049050600182168062000a9057607f821691505b60208210810362000aa65762000aa562000a48565b5b50919050565b60008190508160005260206000209050919050565b60006020601f8301049050919050565b600082821b905092915050565b60006008830262000b107fffffffffffffffffffffffffffffffffffffffffffffffffffffffffffffffff8262000ad1565b62000b1c868362000ad1565b95508019841693508086168417925050509392505050565b6000819050919050565b6000819050919050565b600062000b6962000b6362000b5d8462000b34565b62000b3e565b62000b34565b9050919050565b6000819050919050565b62000b858362000b48565b62000b9d62000b948262000b70565b84845462000ade565b825550505050565b600090565b62000bb462000ba5565b62000bc181848462000b7a565b505050565b5b8181101562000be95762000bdd60008262000baa565b60018101905062000bc7565b5050565b601f82111562000c385762000c028162000aac565b62000c0d8462000ac1565b8101602085101562000c1d578190505b62000c3562000c2c8562000ac1565b83018262000bc6565b50505b505050565b600082821c905092915050565b600062000c5d6000198460080262000c3d565b1980831691505092915050565b600062000c78838362000c4a565b9150826002028217905092915050565b62000c938262000a0e565b67ffffffffffffffff81111562000caf5762000cae62000a19565b5b62000cbb825462000a77565b62000cc882828562000bed565b600060209050601f83116001811462000d00576000841562000ceb578287015190505b62000cf7858262000c6a565b86555062000d67565b601f19841662000d108662000aac565b60005b8281101562000d3a5784890151825560018201915060208501945060208101905062000d13565b8683101562000d5a578489015162000d56601f89168262000c4a565b8355505b6001600288020188555050505b505050505050565b615fa98062000d7f6000396000f3fe608060405234801561001057600080fd5b50600436106102535760003560e01c806395d89b4111610146578063b4291319116100c3578063ebfbdec911610087578063ebfbdec9146107e6578063f2fa49b414610816578063f516f88e1461084c578063f8b2cb4f14610868578063fa54080114610898578063fc0587f8146108c857610253565b8063b429131914610746578063cd10d3d614610762578063dd62ed3e1461077e578063ddb0225e146107ae578063ea87152b146107ca57610253565b8063a457c2d71161010a578063a457c2d714610668578063a7bb580314610698578063a9059cbb146106ca578063abe5026a146106fa578063b21624151461072a57610253565b806395d89b411461058a57806397aba7f9146105a85780639e26c494146105d85780639f7bdca114610608578063a35f8a401461063857610253565b80633c09e2fd116101d457806370a082311161019857806370a08231146104ae578063732a7c25146104de57806378902422146104fa5780638fab3caa1461052a57806393f405211461055a57610253565b80633c09e2fd146103e25780635cab0d00146103fe5780636012f3be1461042e578063625336651461045f578063701a0e0d1461049257610253565b8063285f293b1161021b578063285f293b146103125780632ba0faa914610342578063313ce5671461035e578063374936821461037c57806339509351146103b257610253565b806306fdde0314610258578063095ea7b3146102765780630f13090e146102a657806318160ddd146102c457806323b872dd146102e2575b600080fd5b6102606108f8565b60405161026d9190613ed8565b60405180910390f35b610290600480360381019061028b9190613fa2565b61098a565b60405161029d9190613ffd565b60405180910390f35b6102ae6109ad565b6040516102bb91906141e5565b60405180910390f35b6102cc610bb0565b6040516102d99190614216565b60405180910390f35b6102fc60048036038101906102f79190614231565b610bba565b6040516103099190613ffd565b60405180910390f35b61032c60048036038101906103279190614284565b610be9565b60405161033991906141e5565b60405180910390f35b61035c60048036038101906103579190614487565b610dff565b005b610366610e4f565b604051610373919061457d565b60405180910390f35b61039660048036038101906103919190613fa2565b610e58565b6040516103a99796959493929190614598565b60405180910390f35b6103cc60048036038101906103c79190613fa2565b610fd4565b6040516103d99190613ffd565b60405180910390f35b6103fc60048036038101906103f79190613fa2565b61100b565b005b61041860048036038101906104139190614284565b61121a565b6040516104259190614216565b60405180910390f35b61044860048036038101906104439190613fa2565b611232565b604051610456929190614615565b60405180910390f35b61047960048036038101906104749190614645565b6112fb565b6040516104899493929190614681565b60405180910390f35b6104ac60048036038101906104a791906146cd565b6113e0565b005b6104c860048036038101906104c39190614645565b611906565b6040516104d59190614216565b60405180910390f35b6104f860048036038101906104f39190614720565b61194e565b005b610514600480360381019061050f9190614284565b611a2a565b604051610521919061482b565b60405180910390f35b610544600480360381019061053f9190614915565b611a95565b60405161055191906141e5565b60405180910390f35b610574600480360381019061056f9190614284565b611e01565b6040516105819190613ffd565b60405180910390f35b610592611ea9565b60405161059f9190613ed8565b60405180910390f35b6105c260048036038101906105bd9190614994565b611f3b565b6040516105cf91906149f0565b60405180910390f35b6105f260048036038101906105ed9190614284565b611faa565b6040516105ff9190613ffd565b60405180910390f35b610622600480360381019061061d9190614284565b6120f9565b60405161062f9190614216565b60405180910390f35b610652600480360381019061064d9190614a0b565b612111565b60405161065f9190614a9d565b60405180910390f35b610682600480360381019061067d9190613fa2565b61214a565b60405161068f9190613ffd565b60405180910390f35b6106b260048036038101906106ad9190614ab8565b6121c1565b6040516106c193929190614b01565b60405180910390f35b6106e460048036038101906106df9190613fa2565b612229565b6040516106f19190613ffd565b60405180910390f35b610714600480360381019061070f9190614b38565b61224c565b6040516107219190613ffd565b60405180910390f35b610744600480360381019061073f9190614bfd565b6122b0565b005b610760600480360381019061075b9190614284565b6127bc565b005b61077c60048036038101906107779190614b38565b61295b565b005b61079860048036038101906107939190614cb0565b6129cd565b6040516107a59190614216565b60405180910390f35b6107c860048036038101906107c39190614b38565b612a54565b005b6107e460048036038101906107df9190614cf0565b612ac6565b005b61080060048036038101906107fb9190614d4c565b612dbf565b60405161080d9190614216565b60405180910390f35b610830600480360381019061082b9190614d8c565b612df0565b6040516108439796959493929190614598565b60405180910390f35b61086660048036038101906108619190614d4c565b612f79565b005b610882600480360381019061087d9190614645565b613234565b60405161088f9190614216565b60405180910390f35b6108b260048036038101906108ad9190614ddf565b61323b565b6040516108bf9190614a9d565b60405180910390f35b6108e260048036038101906108dd9190614284565b61326b565b6040516108ef91906141e5565b60405180910390f35b60606003805461090790614e3b565b80601f016020809104026020016040519081016040528092919081815260200182805461093390614e3b565b80156109805780601f1061095557610100808354040283529160200191610980565b820191906000526020600020905b81548152906001019060200180831161096357829003601f168201915b5050505050905090565b600080610995613444565b90506109a281858561344c565b600191505092915050565b6060600d60003373ffffffffffffffffffffffffffffffffffffffff1673ffffffffffffffffffffffffffffffffffffffff168152602001908152602001600020805480602002602001604051908101604052809291908181526020016000905b82821015610ba757838290600052602060002090600702016040518060e0016040529081600082015481526020016001820154815260200160028201548152602001600382018054610a5f90614e3b565b80601f0160208091040260200160405190810160405280929190818152602001828054610a8b90614e3b565b8015610ad85780601f10610aad57610100808354040283529160200191610ad8565b820191906000526020600020905b815481529060010190602001808311610abb57829003601f168201915b50505050508152602001600482015481526020016005820160009054906101000a900460ff16151515158152602001600682018054610b1690614e3b565b80601f0160208091040260200160405190810160405280929190818152602001828054610b4290614e3b565b8015610b8f5780601f10610b6457610100808354040283529160200191610b8f565b820191906000526020600020905b815481529060010190602001808311610b7257829003601f168201915b50505050508152505081526020019060010190610a0e565b50505050905090565b6000600254905090565b600080610bc5613444565b9050610bd2858285613615565b610bdd8585856136a1565b60019150509392505050565b6060601060003373ffffffffffffffffffffffffffffffffffffffff1673ffffffffffffffffffffffffffffffffffffffff1681526020019081526020016000206000838152602001908152602001600020805480602002602001604051908101604052809291908181526020016000905b82821015610df457838290600052602060002090600702016040518060e0016040529081600082015481526020016001820154815260200160028201548152602001600382018054610cac90614e3b565b80601f0160208091040260200160405190810160405280929190818152602001828054610cd890614e3b565b8015610d255780601f10610cfa57610100808354040283529160200191610d25565b820191906000526020600020905b815481529060010190602001808311610d0857829003601f168201915b50505050508152602001600482015481526020016005820160009054906101000a900460ff16151515158152602001600682018054610d6390614e3b565b80601f0160208091040260200160405190810160405280929190818152602001828054610d8f90614e3b565b8015610ddc5780601f10610db157610100808354040283529160200191610ddc565b820191906000526020600020905b815481529060010190602001808311610dbf57829003601f168201915b50505050508152505081526020019060010190610c5b565b505050509050919050565b610e0d86868686868661295b565b7f6357cc72c91af3fdcaed89f3947b1715bab2247c24f764116f941127d814921e8785604051610e3e929190614e6c565b60405180910390a150505050505050565b60006012905090565b600d6020528160005260406000208181548110610e7457600080fd5b906000526020600020906007020160009150915050806000015490806001015490806002015490806003018054610eaa90614e3b565b80601f0160208091040260200160405190810160405280929190818152602001828054610ed690614e3b565b8015610f235780601f10610ef857610100808354040283529160200191610f23565b820191906000526020600020905b815481529060010190602001808311610f0657829003601f168201915b5050505050908060040154908060050160009054906101000a900460ff1690806006018054610f5190614e3b565b80601f0160208091040260200160405190810160405280929190818152602001828054610f7d90614e3b565b8015610fca5780601f10610f9f57610100808354040283529160200191610fca565b820191906000526020600020905b815481529060010190602001808311610fad57829003601f168201915b5050505050905087565b600080610fdf613444565b9050611000818585610ff185896129cd565b610ffb9190614ec4565b61344c565b600191505092915050565b6000805b6006805490508110156110a757600681815481106110305761102f614ef8565b5b9060005260206000200160009054906101000a900473ffffffffffffffffffffffffffffffffffffffff1673ffffffffffffffffffffffffffffffffffffffff163373ffffffffffffffffffffffffffffffffffffffff160361109657600191506110a7565b806110a090614f27565b905061100f565b5060011515811515146110ef576040517f08c379a00000000000000000000000000000000000000000000000000000000081526004016110e690614fe1565b60405180910390fd5b60018214806110fe5750600282145b61113d576040517f08c379a000000000000000000000000000000000000000000000000000000000815260040161113490615073565b60405180910390fd5b600182036111a9576006839080600181540180825580915050600190039060005260206000200160009091909190916101000a81548173ffffffffffffffffffffffffffffffffffffffff021916908373ffffffffffffffffffffffffffffffffffffffff1602179055505b60028203611215576007839080600181540180825580915050600190039060005260206000200160009091909190916101000a81548173ffffffffffffffffffffffffffffffffffffffff021916908373ffffffffffffffffffffffffffffffffffffffff1602179055505b505050565b60116020528060005260406000206000915090505481565b600f602052816000526040600020818154811061124e57600080fd5b90600052602060002090600202016000915091505080600001549080600101805461127890614e3b565b80601f01602080910402602001604051908101604052809291908181526020018280546112a490614e3b565b80156112f15780601f106112c6576101008083540402835291602001916112f1565b820191906000526020600020905b8154815290600101906020018083116112d457829003601f168201915b5050505050905082565b600c60205280600052604060002060009150905080600001805461131e90614e3b565b80601f016020809104026020016040519081016040528092919081815260200182805461134a90614e3b565b80156113975780601f1061136c57610100808354040283529160200191611397565b820191906000526020600020905b81548152906001019060200180831161137a57829003601f168201915b5050505050908060010154908060020160009054906101000a900460ff16908060020160019054906101000a900473ffffffffffffffffffffffffffffffffffffffff16905084565b60006113ea613e09565b60005b600d60003373ffffffffffffffffffffffffffffffffffffffff1673ffffffffffffffffffffffffffffffffffffffff1681526020019081526020016000208054905081101561187d57600d60003373ffffffffffffffffffffffffffffffffffffffff1673ffffffffffffffffffffffffffffffffffffffff168152602001908152602001600020818154811061148857611487614ef8565b5b90600052602060002090600702016001015486148015611509575083600d60003373ffffffffffffffffffffffffffffffffffffffff1673ffffffffffffffffffffffffffffffffffffffff16815260200190815260200160002082815481106114f5576114f4614ef8565b5b906000526020600020906007020160020154145b1561186a576040518060e00160405280600d60003373ffffffffffffffffffffffffffffffffffffffff1673ffffffffffffffffffffffffffffffffffffffff168152602001908152602001600020838154811061156a57611569614ef8565b5b9060005260206000209060070201600001548152602001878152602001858152602001600d60003373ffffffffffffffffffffffffffffffffffffffff1673ffffffffffffffffffffffffffffffffffffffff16815260200190815260200160002083815481106115de576115dd614ef8565b5b906000526020600020906007020160030180546115fa90614e3b565b80601f016020809104026020016040519081016040528092919081815260200182805461162690614e3b565b80156116735780601f1061164857610100808354040283529160200191611673565b820191906000526020600020905b81548152906001019060200180831161165657829003601f168201915b50505050508152602001600d60003373ffffffffffffffffffffffffffffffffffffffff1673ffffffffffffffffffffffffffffffffffffffff16815260200190815260200160002083815481106116ce576116cd614ef8565b5b9060005260206000209060070201600401548152602001600d60003373ffffffffffffffffffffffffffffffffffffffff1673ffffffffffffffffffffffffffffffffffffffff168152602001908152602001600020838154811061173657611735614ef8565b5b906000526020600020906007020160050160009054906101000a900460ff1615158152602001604051806020016040528060008152508152509150601060003373ffffffffffffffffffffffffffffffffffffffff1673ffffffffffffffffffffffffffffffffffffffff1681526020019081526020016000206000868152602001908152602001600020829080600181540180825580915050600190039060005260206000209060070201600090919091909150600082015181600001556020820151816001015560408201518160020155606082015181600301908161181e919061523f565b506080820151816004015560a08201518160050160006101000a81548160ff02191690831515021790555060c082015181600601908161185e919061523f565b5050506001925061187d565b808061187590614f27565b9150506113ed565b50816118be576040517f08c379a00000000000000000000000000000000000000000000000000000000081526004016118b59061535d565b60405180910390fd5b7f4c5175a13509e65592a5ddf9fa5c69a99ad3bd3ade62b85c4027673e6f64ec826118e885613917565b826040516118f7929190615420565b60405180910390a15050505050565b60008060008373ffffffffffffffffffffffffffffffffffffffff1673ffffffffffffffffffffffffffffffffffffffff168152602001908152602001600020549050919050565b600f60003373ffffffffffffffffffffffffffffffffffffffff1673ffffffffffffffffffffffffffffffffffffffff16815260200190815260200160002060405180604001604052808481526020018381525090806001815401808255809150506001900390600052602060002090600202016000909190919091506000820151816000015560208201518160010190816119ea919061523f565b5050507ff538047aa51f8b732c1850d69564ec0d033aca661921dba9871bf8feff7a435f8282604051611a1e929190614615565b60405180910390a15050565b606060136000838152602001908152602001600020805480602002602001604051908101604052809291908181526020018280548015611a8957602002820191906000526020600020905b815481526020019060010190808311611a75575b50505050509050919050565b60606000825167ffffffffffffffff811115611ab457611ab36142bb565b5b604051908082528060200260200182016040528015611aed57816020015b611ada613e09565b815260200190600190039081611ad25790505b5090506000805b8451811015611df65760005b600d60003373ffffffffffffffffffffffffffffffffffffffff1673ffffffffffffffffffffffffffffffffffffffff16815260200190815260200160002080549050811015611de257600d60003373ffffffffffffffffffffffffffffffffffffffff1673ffffffffffffffffffffffffffffffffffffffff1681526020019081526020016000208181548110611b9b57611b9a614ef8565b5b906000526020600020906007020160000154868381518110611bc057611bbf614ef8565b5b602002602001015103611dcf57600d60003373ffffffffffffffffffffffffffffffffffffffff1673ffffffffffffffffffffffffffffffffffffffff1681526020019081526020016000208181548110611c1e57611c1d614ef8565b5b90600052602060002090600702016040518060e0016040529081600082015481526020016001820154815260200160028201548152602001600382018054611c6590614e3b565b80601f0160208091040260200160405190810160405280929190818152602001828054611c9190614e3b565b8015611cde5780601f10611cb357610100808354040283529160200191611cde565b820191906000526020600020905b815481529060010190602001808311611cc157829003601f168201915b50505050508152602001600482015481526020016005820160009054906101000a900460ff16151515158152602001600682018054611d1c90614e3b565b80601f0160208091040260200160405190810160405280929190818152602001828054611d4890614e3b565b8015611d955780601f10611d6a57610100808354040283529160200191611d95565b820191906000526020600020905b815481529060010190602001808311611d7857829003601f168201915b505050505081525050848481518110611db157611db0614ef8565b5b60200260200101819052508280611dc790614f27565b935050611de2565b8080611dda90614f27565b915050611b00565b508080611dee90614f27565b915050611af4565b508192505050919050565b600080600090505b600980549050811015611e9e5760098181548110611e2a57611e29614ef8565b5b9060005260206000209060020201600001548303611e8b576001151560098281548110611e5a57611e59614ef8565b5b906000526020600020906002020160010160009054906101000a900460ff16151503611e8a576000915050611ea4565b5b8080611e9690614f27565b915050611e09565b50600190505b919050565b606060048054611eb890614e3b565b80601f0160208091040260200160405190810160405280929190818152602001828054611ee490614e3b565b8015611f315780601f10611f0657610100808354040283529160200191611f31565b820191906000526020600020905b815481529060010190602001808311611f1457829003601f168201915b5050505050905090565b600080600080611f4a856121c1565b92509250925060018682858560405160008152602001604052604051611f739493929190615457565b6020604051602081039080840390855afa158015611f95573d6000803e3d6000fd5b50505060206040510351935050505092915050565b6000806000905060005b60068054905081101561204c5760068181548110611fd557611fd4614ef8565b5b9060005260206000200160009054906101000a900473ffffffffffffffffffffffffffffffffffffffff1673ffffffffffffffffffffffffffffffffffffffff163373ffffffffffffffffffffffffffffffffffffffff160361203b576001915061204c565b8061204590614f27565b9050611fb4565b506001151581151514612094576040517f08c379a000000000000000000000000000000000000000000000000000000000815260040161208b90614fe1565b60405180910390fd5b60005b6009805490508110156120ed57600981815481106120b8576120b7614ef8565b5b90600052602060002090600202016000015484036120da5760009250506120f3565b80806120e590614f27565b915050612097565b50600191505b50919050565b60126020528060005260406000206000915090505481565b60008484848460405160200161212a9493929190615541565b604051602081830303815290604052805190602001209050949350505050565b600080612155613444565b9050600061216382866129cd565b9050838110156121a8576040517f08c379a000000000000000000000000000000000000000000000000000000000815260040161219f906155fd565b60405180910390fd5b6121b5828686840361344c565b60019250505092915050565b6000806000604184511461220a576040517f08c379a000000000000000000000000000000000000000000000000000000000815260040161220190615669565b60405180910390fd5b6020840151925060408401519150606084015160001a90509193909250565b600080612234613444565b90506122418185856136a1565b600191505092915050565b60008061225b87878787612111565b905060006122688261323b565b90508873ffffffffffffffffffffffffffffffffffffffff1661228b8286611f3b565b73ffffffffffffffffffffffffffffffffffffffff1614925050509695505050505050565b60005b600d60003373ffffffffffffffffffffffffffffffffffffffff1673ffffffffffffffffffffffffffffffffffffffff1681526020019081526020016000208054905081101561271257600d60003373ffffffffffffffffffffffffffffffffffffffff1673ffffffffffffffffffffffffffffffffffffffff168152602001908152602001600020818154811061234e5761234d614ef8565b5b90600052602060002090600702016000015485036126ff5760001515600d60003373ffffffffffffffffffffffffffffffffffffffff1673ffffffffffffffffffffffffffffffffffffffff16815260200190815260200160002082815481106123bb576123ba614ef8565b5b906000526020600020906007020160050160009054906101000a900460ff1615151461241c576040517f08c379a0000000000000000000000000000000000000000000000000000000008152600401612413906156d5565b60405180910390fd5b83600d60003373ffffffffffffffffffffffffffffffffffffffff1673ffffffffffffffffffffffffffffffffffffffff168152602001908152602001600020828154811061246e5761246d614ef8565b5b9060005260206000209060070201600301908161248b919061523f565b5082600d60003373ffffffffffffffffffffffffffffffffffffffff1673ffffffffffffffffffffffffffffffffffffffff16815260200190815260200160002082815481106124de576124dd614ef8565b5b9060005260206000209060070201600401819055506001600d60003373ffffffffffffffffffffffffffffffffffffffff1673ffffffffffffffffffffffffffffffffffffffff168152602001908152602001600020828154811061254657612545614ef8565b5b906000526020600020906007020160050160006101000a81548160ff02191690831515021790555081600d60003373ffffffffffffffffffffffffffffffffffffffff1673ffffffffffffffffffffffffffffffffffffffff16815260200190815260200160002082815481106125c0576125bf614ef8565b5b906000526020600020906007020160060190816125dd919061523f565b5060146000878152602001908152602001600020600d60003373ffffffffffffffffffffffffffffffffffffffff1673ffffffffffffffffffffffffffffffffffffffff168152602001908152602001600020828154811061264257612641614ef8565b5b90600052602060002090600702019080600181540180825580915050600190039060005260206000209060070201600090919091909150600082015481600001556001820154816001015560028201548160020155600382018160030190816126ab919061570b565b50600482015481600401556005820160009054906101000a900460ff168160050160006101000a81548160ff021916908315150217905550600682018160060190816126f7919061570b565b505050612712565b808061270a90614f27565b9150506122b3565b506013600086815260200190815260200160002082908060018154018082558091505060019003906000526020600020016000909190919091505560126000868152602001908152602001600020600081548092919061277190614f27565b91905055507f67fbf0ab29ccb48c09f17ccb11294f7d23fc8c4672259ff330cf874b75fa517685858585856040516127ad9594939291906157f3565b60405180910390a15050505050565b6000805b60068054905081101561285857600681815481106127e1576127e0614ef8565b5b9060005260206000200160009054906101000a900473ffffffffffffffffffffffffffffffffffffffff1673ffffffffffffffffffffffffffffffffffffffff163373ffffffffffffffffffffffffffffffffffffffff16036128475760019150612858565b8061285190614f27565b90506127c0565b5060011515811515146128a0576040517f08c379a000000000000000000000000000000000000000000000000000000000815260040161289790614fe1565b60405180910390fd5b6128a982611faa565b6128e8576040517f08c379a00000000000000000000000000000000000000000000000000000000081526004016128df906158a0565b60405180910390fd5b600960405180604001604052808481526020016000151581525090806001815401808255809150506001900390600052602060002090600202016000909190919091506000820151816000015560208201518160010160006101000a81548160ff02191690831515021790555050505050565b61296986868686868661224c565b6129a8576040517f08c379a000000000000000000000000000000000000000000000000000000000815260040161299f9061590c565b60405180910390fd5b6129c585670de0b6b3a7640000866129c0919061592c565b613adc565b505050505050565b6000600160008473ffffffffffffffffffffffffffffffffffffffff1673ffffffffffffffffffffffffffffffffffffffff16815260200190815260200160002060008373ffffffffffffffffffffffffffffffffffffffff1673ffffffffffffffffffffffffffffffffffffffff16815260200190815260200160002054905092915050565b612a6286868686868661224c565b612aa1576040517f08c379a0000000000000000000000000000000000000000000000000000000008152600401612a989061590c565b60405180910390fd5b612abe85670de0b6b3a764000086612ab9919061592c565b613ca9565b505050505050565b600060405180608001604052808481526020018381526020016001151581526020013373ffffffffffffffffffffffffffffffffffffffff16815250905082600c60003373ffffffffffffffffffffffffffffffffffffffff1673ffffffffffffffffffffffffffffffffffffffff1681526020019081526020016000206000019081612b53919061523f565b5081600c60003373ffffffffffffffffffffffffffffffffffffffff1673ffffffffffffffffffffffffffffffffffffffff1681526020019081526020016000206001018190555033600c60003373ffffffffffffffffffffffffffffffffffffffff1673ffffffffffffffffffffffffffffffffffffffff16815260200190815260200160002060020160016101000a81548173ffffffffffffffffffffffffffffffffffffffff021916908373ffffffffffffffffffffffffffffffffffffffff160217905550600c60003373ffffffffffffffffffffffffffffffffffffffff1673ffffffffffffffffffffffffffffffffffffffff16815260200190815260200160002060020160009054906101000a900460ff16612d8157600a8190806001815401808255809150506001900390600052602060002090600302016000909190919091506000820151816000019081612cb1919061523f565b506020820151816001015560408201518160020160006101000a81548160ff02191690831515021790555060608201518160020160016101000a81548173ffffffffffffffffffffffffffffffffffffffff021916908373ffffffffffffffffffffffffffffffffffffffff16021790555050506001600c60003373ffffffffffffffffffffffffffffffffffffffff1673ffffffffffffffffffffffffffffffffffffffff16815260200190815260200160002060020160006101000a81548160ff0219169083151502179055505b7ff9aabaa28b0c7b9b6a80283c8b8fd6983df8e2c5703e65ee433dbbd7373062688383604051612db292919061596e565b60405180910390a1505050565b60136020528160005260406000208181548110612ddb57600080fd5b90600052602060002001600091509150505481565b60106020528260005260406000206020528160005260406000208181548110612e1857600080fd5b90600052602060002090600702016000925092505050806000015490806001015490806002015490806003018054612e4f90614e3b565b80601f0160208091040260200160405190810160405280929190818152602001828054612e7b90614e3b565b8015612ec85780601f10612e9d57610100808354040283529160200191612ec8565b820191906000526020600020905b815481529060010190602001808311612eab57829003601f168201915b5050505050908060040154908060050160009054906101000a900460ff1690806006018054612ef690614e3b565b80601f0160208091040260200160405190810160405280929190818152602001828054612f2290614e3b565b8015612f6f5780601f10612f4457610100808354040283529160200191612f6f565b820191906000526020600020905b815481529060010190602001808311612f5257829003601f168201915b5050505050905087565b6000805b60098054905081101561307f5760098181548110612f9e57612f9d614ef8565b5b906000526020600020906002020160000154840361306c5760098181548110612fca57612fc9614ef8565b5b906000526020600020906002020160010160009054906101000a900460ff1615613029576040517f08c379a0000000000000000000000000000000000000000000000000000000008152600401613020906159ea565b60405180910390fd5b6001915060016009828154811061304357613042614ef8565b5b906000526020600020906002020160010160006101000a81548160ff0219169083151502179055505b808061307790614f27565b915050612f7d565b506011600083815260200190815260200160002060008154809291906130a490614f27565b9190505550600b60008154809291906130bc90614f27565b9190505550600d60003373ffffffffffffffffffffffffffffffffffffffff1673ffffffffffffffffffffffffffffffffffffffff1681526020019081526020016000206040518060e00160405280600b5481526020018481526020014281526020016040518060200160405280600081525081526020016000815260200160001515815260200160405180602001604052806000815250815250908060018154018082558091505060019003906000526020600020906007020160009091909190915060008201518160000155602082015181600101556040820151816002015560608201518160030190816131b3919061523f565b506080820151816004015560a08201518160050160006101000a81548160ff02191690831515021790555060c08201518160060190816131f3919061523f565b5050507ff165997b5f1d2b5ae2f43279fc978111209309fd44e04343b1ffd71915e62ab58383604051613227929190614e6c565b60405180910390a1505050565b6000919050565b60008160405160200161324e9190615a77565b604051602081830303815290604052805190602001209050919050565b606060146000838152602001908152602001600020805480602002602001604051908101604052809291908181526020016000905b8282101561343957838290600052602060002090600702016040518060e00160405290816000820154815260200160018201548152602001600282015481526020016003820180546132f190614e3b565b80601f016020809104026020016040519081016040528092919081815260200182805461331d90614e3b565b801561336a5780601f1061333f5761010080835404028352916020019161336a565b820191906000526020600020905b81548152906001019060200180831161334d57829003601f168201915b50505050508152602001600482015481526020016005820160009054906101000a900460ff161515151581526020016006820180546133a890614e3b565b80601f01602080910402602001604051908101604052809291908181526020018280546133d490614e3b565b80156134215780601f106133f657610100808354040283529160200191613421565b820191906000526020600020905b81548152906001019060200180831161340457829003601f168201915b505050505081525050815260200190600101906132a0565b505050509050919050565b600033905090565b600073ffffffffffffffffffffffffffffffffffffffff168373ffffffffffffffffffffffffffffffffffffffff16036134bb576040517f08c379a00000000000000000000000000000000000000000000000000000000081526004016134b290615b0f565b60405180910390fd5b600073ffffffffffffffffffffffffffffffffffffffff168273ffffffffffffffffffffffffffffffffffffffff160361352a576040517f08c379a000000000000000000000000000000000000000000000000000000000815260040161352190615ba1565b60405180910390fd5b80600160008573ffffffffffffffffffffffffffffffffffffffff1673ffffffffffffffffffffffffffffffffffffffff16815260200190815260200160002060008473ffffffffffffffffffffffffffffffffffffffff1673ffffffffffffffffffffffffffffffffffffffff168152602001908152602001600020819055508173ffffffffffffffffffffffffffffffffffffffff168373ffffffffffffffffffffffffffffffffffffffff167f8c5be1e5ebec7d5bd14f71427d1e84f3dd0314c0f7b2291e5b200ac8c7c3b925836040516136089190614216565b60405180910390a3505050565b600061362184846129cd565b90507fffffffffffffffffffffffffffffffffffffffffffffffffffffffffffffffff811461369b578181101561368d576040517f08c379a000000000000000000000000000000000000000000000000000000000815260040161368490615c0d565b60405180910390fd5b61369a848484840361344c565b5b50505050565b600073ffffffffffffffffffffffffffffffffffffffff168373ffffffffffffffffffffffffffffffffffffffff1603613710576040517f08c379a000000000000000000000000000000000000000000000000000000000815260040161370790615c9f565b60405180910390fd5b600073ffffffffffffffffffffffffffffffffffffffff168273ffffffffffffffffffffffffffffffffffffffff160361377f576040517f08c379a000000000000000000000000000000000000000000000000000000000815260040161377690615d31565b60405180910390fd5b61378a838383613dff565b60008060008573ffffffffffffffffffffffffffffffffffffffff1673ffffffffffffffffffffffffffffffffffffffff16815260200190815260200160002054905081811015613810576040517f08c379a000000000000000000000000000000000000000000000000000000000815260040161380790615dc3565b60405180910390fd5b8181036000808673ffffffffffffffffffffffffffffffffffffffff1673ffffffffffffffffffffffffffffffffffffffff16815260200190815260200160002081905550816000808573ffffffffffffffffffffffffffffffffffffffff1673ffffffffffffffffffffffffffffffffffffffff168152602001908152602001600020600082825401925050819055508273ffffffffffffffffffffffffffffffffffffffff168473ffffffffffffffffffffffffffffffffffffffff167fddf252ad1be2c89b69c2b068fc378daa952ba7f163c4a11628f55a4df523b3ef846040516138fe9190614216565b60405180910390a3613911848484613e04565b50505050565b606060005b600f60003373ffffffffffffffffffffffffffffffffffffffff1673ffffffffffffffffffffffffffffffffffffffff16815260200190815260200160002080549050811015613ad557600f60003373ffffffffffffffffffffffffffffffffffffffff1673ffffffffffffffffffffffffffffffffffffffff16815260200190815260200160002081815481106139b7576139b6614ef8565b5b9060005260206000209060020201600001548303613ac257600f60003373ffffffffffffffffffffffffffffffffffffffff1673ffffffffffffffffffffffffffffffffffffffff1681526020019081526020016000208181548110613a2057613a1f614ef8565b5b90600052602060002090600202016001018054613a3c90614e3b565b80601f0160208091040260200160405190810160405280929190818152602001828054613a6890614e3b565b8015613ab55780601f10613a8a57610100808354040283529160200191613ab5565b820191906000526020600020905b815481529060010190602001808311613a9857829003601f168201915b5050505050915050613ad7565b8080613acd90614f27565b91505061391c565b505b919050565b600073ffffffffffffffffffffffffffffffffffffffff168273ffffffffffffffffffffffffffffffffffffffff1603613b4b576040517f08c379a0000000000000000000000000000000000000000000000000000000008152600401613b4290615e55565b60405180910390fd5b613b5782600083613dff565b60008060008473ffffffffffffffffffffffffffffffffffffffff1673ffffffffffffffffffffffffffffffffffffffff16815260200190815260200160002054905081811015613bdd576040517f08c379a0000000000000000000000000000000000000000000000000000000008152600401613bd490615ee7565b60405180910390fd5b8181036000808573ffffffffffffffffffffffffffffffffffffffff1673ffffffffffffffffffffffffffffffffffffffff1681526020019081526020016000208190555081600260008282540392505081905550600073ffffffffffffffffffffffffffffffffffffffff168373ffffffffffffffffffffffffffffffffffffffff167fddf252ad1be2c89b69c2b068fc378daa952ba7f163c4a11628f55a4df523b3ef84604051613c909190614216565b60405180910390a3613ca483600084613e04565b505050565b600073ffffffffffffffffffffffffffffffffffffffff168273ffffffffffffffffffffffffffffffffffffffff1603613d18576040517f08c379a0000000000000000000000000000000000000000000000000000000008152600401613d0f90615f53565b60405180910390fd5b613d2460008383613dff565b8060026000828254613d369190614ec4565b92505081905550806000808473ffffffffffffffffffffffffffffffffffffffff1673ffffffffffffffffffffffffffffffffffffffff168152602001908152602001600020600082825401925050819055508173ffffffffffffffffffffffffffffffffffffffff16600073ffffffffffffffffffffffffffffffffffffffff167fddf252ad1be2c89b69c2b068fc378daa952ba7f163c4a11628f55a4df523b3ef83604051613de79190614216565b60405180910390a3613dfb60008383613e04565b5050565b505050565b505050565b6040518060e001604052806000815260200160008152602001600081526020016060815260200160008152602001600015158152602001606081525090565b600081519050919050565b600082825260208201905092915050565b60005b83811015613e82578082015181840152602081019050613e67565b60008484015250505050565b6000601f19601f8301169050919050565b6000613eaa82613e48565b613eb48185613e53565b9350613ec4818560208601613e64565b613ecd81613e8e565b840191505092915050565b60006020820190508181036000830152613ef28184613e9f565b905092915050565b6000604051905090565b600080fd5b600080fd5b600073ffffffffffffffffffffffffffffffffffffffff82169050919050565b6000613f3982613f0e565b9050919050565b613f4981613f2e565b8114613f5457600080fd5b50565b600081359050613f6681613f40565b92915050565b6000819050919050565b613f7f81613f6c565b8114613f8a57600080fd5b50565b600081359050613f9c81613f76565b92915050565b60008060408385031215613fb957613fb8613f04565b5b6000613fc785828601613f57565b9250506020613fd885828601613f8d565b9150509250929050565b60008115159050919050565b613ff781613fe2565b82525050565b60006020820190506140126000830184613fee565b92915050565b600081519050919050565b600082825260208201905092915050565b6000819050602082019050919050565b61404d81613f6c565b82525050565b600082825260208201905092915050565b600061406f82613e48565b6140798185614053565b9350614089818560208601613e64565b61409281613e8e565b840191505092915050565b6140a681613fe2565b82525050565b600060e0830160008301516140c46000860182614044565b5060208301516140d76020860182614044565b5060408301516140ea6040860182614044565b50606083015184820360608601526141028282614064565b91505060808301516141176080860182614044565b5060a083015161412a60a086018261409d565b5060c083015184820360c08601526141428282614064565b9150508091505092915050565b600061415b83836140ac565b905092915050565b6000602082019050919050565b600061417b82614018565b6141858185614023565b93508360208202850161419785614034565b8060005b858110156141d357848403895281516141b4858261414f565b94506141bf83614163565b925060208a0199505060018101905061419b565b50829750879550505050505092915050565b600060208201905081810360008301526141ff8184614170565b905092915050565b61421081613f6c565b82525050565b600060208201905061422b6000830184614207565b92915050565b60008060006060848603121561424a57614249613f04565b5b600061425886828701613f57565b935050602061426986828701613f57565b925050604061427a86828701613f8d565b9150509250925092565b60006020828403121561429a57614299613f04565b5b60006142a884828501613f8d565b91505092915050565b600080fd5b600080fd5b7f4e487b7100000000000000000000000000000000000000000000000000000000600052604160045260246000fd5b6142f382613e8e565b810181811067ffffffffffffffff82111715614312576143116142bb565b5b80604052505050565b6000614325613efa565b905061433182826142ea565b919050565b600067ffffffffffffffff821115614351576143506142bb565b5b61435a82613e8e565b9050602081019050919050565b82818337600083830152505050565b600061438961438484614336565b61431b565b9050828152602081018484840111156143a5576143a46142b6565b5b6143b0848285614367565b509392505050565b600082601f8301126143cd576143cc6142b1565b5b81356143dd848260208601614376565b91505092915050565b600067ffffffffffffffff821115614401576144006142bb565b5b61440a82613e8e565b9050602081019050919050565b600061442a614425846143e6565b61431b565b905082815260208101848484011115614446576144456142b6565b5b614451848285614367565b509392505050565b600082601f83011261446e5761446d6142b1565b5b813561447e848260208601614417565b91505092915050565b600080600080600080600060e0888a0312156144a6576144a5613f04565b5b60006144b48a828b01613f8d565b97505060206144c58a828b01613f57565b96505060406144d68a828b01613f57565b95505060606144e78a828b01613f8d565b945050608088013567ffffffffffffffff81111561450857614507613f09565b5b6145148a828b016143b8565b93505060a06145258a828b01613f8d565b92505060c088013567ffffffffffffffff81111561454657614545613f09565b5b6145528a828b01614459565b91505092959891949750929550565b600060ff82169050919050565b61457781614561565b82525050565b6000602082019050614592600083018461456e565b92915050565b600060e0820190506145ad600083018a614207565b6145ba6020830189614207565b6145c76040830188614207565b81810360608301526145d98187613e9f565b90506145e86080830186614207565b6145f560a0830185613fee565b81810360c08301526146078184613e9f565b905098975050505050505050565b600060408201905061462a6000830185614207565b818103602083015261463c8184613e9f565b90509392505050565b60006020828403121561465b5761465a613f04565b5b600061466984828501613f57565b91505092915050565b61467b81613f2e565b82525050565b6000608082019050818103600083015261469b8187613e9f565b90506146aa6020830186614207565b6146b76040830185613fee565b6146c46060830184614672565b95945050505050565b6000806000606084860312156146e6576146e5613f04565b5b60006146f486828701613f8d565b935050602061470586828701613f8d565b925050604061471686828701613f8d565b9150509250925092565b6000806040838503121561473757614736613f04565b5b600061474585828601613f8d565b925050602083013567ffffffffffffffff81111561476657614765613f09565b5b614772858286016143b8565b9150509250929050565b600081519050919050565b600082825260208201905092915050565b6000819050602082019050919050565b60006147b48383614044565b60208301905092915050565b6000602082019050919050565b60006147d88261477c565b6147e28185614787565b93506147ed83614798565b8060005b8381101561481e57815161480588826147a8565b9750614810836147c0565b9250506001810190506147f1565b5085935050505092915050565b6000602082019050818103600083015261484581846147cd565b905092915050565b600067ffffffffffffffff821115614868576148676142bb565b5b602082029050602081019050919050565b600080fd5b600061489161488c8461484d565b61431b565b905080838252602082019050602084028301858111156148b4576148b3614879565b5b835b818110156148dd57806148c98882613f8d565b8452602084019350506020810190506148b6565b5050509392505050565b600082601f8301126148fc576148fb6142b1565b5b813561490c84826020860161487e565b91505092915050565b60006020828403121561492b5761492a613f04565b5b600082013567ffffffffffffffff81111561494957614948613f09565b5b614955848285016148e7565b91505092915050565b6000819050919050565b6149718161495e565b811461497c57600080fd5b50565b60008135905061498e81614968565b92915050565b600080604083850312156149ab576149aa613f04565b5b60006149b98582860161497f565b925050602083013567ffffffffffffffff8111156149da576149d9613f09565b5b6149e685828601614459565b9150509250929050565b6000602082019050614a056000830184614672565b92915050565b60008060008060808587031215614a2557614a24613f04565b5b6000614a3387828801613f57565b9450506020614a4487828801613f8d565b935050604085013567ffffffffffffffff811115614a6557614a64613f09565b5b614a71878288016143b8565b9250506060614a8287828801613f8d565b91505092959194509250565b614a978161495e565b82525050565b6000602082019050614ab26000830184614a8e565b92915050565b600060208284031215614ace57614acd613f04565b5b600082013567ffffffffffffffff811115614aec57614aeb613f09565b5b614af884828501614459565b91505092915050565b6000606082019050614b166000830186614a8e565b614b236020830185614a8e565b614b30604083018461456e565b949350505050565b60008060008060008060c08789031215614b5557614b54613f04565b5b6000614b6389828a01613f57565b9650506020614b7489828a01613f57565b9550506040614b8589828a01613f8d565b945050606087013567ffffffffffffffff811115614ba657614ba5613f09565b5b614bb289828a016143b8565b9350506080614bc389828a01613f8d565b92505060a087013567ffffffffffffffff811115614be457614be3613f09565b5b614bf089828a01614459565b9150509295509295509295565b600080600080600060a08688031215614c1957614c18613f04565b5b6000614c2788828901613f8d565b9550506020614c3888828901613f8d565b945050604086013567ffffffffffffffff811115614c5957614c58613f09565b5b614c65888289016143b8565b9350506060614c7688828901613f8d565b925050608086013567ffffffffffffffff811115614c9757614c96613f09565b5b614ca3888289016143b8565b9150509295509295909350565b60008060408385031215614cc757614cc6613f04565b5b6000614cd585828601613f57565b9250506020614ce685828601613f57565b9150509250929050565b60008060408385031215614d0757614d06613f04565b5b600083013567ffffffffffffffff811115614d2557614d24613f09565b5b614d31858286016143b8565b9250506020614d4285828601613f8d565b9150509250929050565b60008060408385031215614d6357614d62613f04565b5b6000614d7185828601613f8d565b9250506020614d8285828601613f8d565b9150509250929050565b600080600060608486031215614da557614da4613f04565b5b6000614db386828701613f57565b9350506020614dc486828701613f8d565b9250506040614dd586828701613f8d565b9150509250925092565b600060208284031215614df557614df4613f04565b5b6000614e038482850161497f565b91505092915050565b7f4e487b7100000000000000000000000000000000000000000000000000000000600052602260045260246000fd5b60006002820490506001821680614e5357607f821691505b602082108103614e6657614e65614e0c565b5b50919050565b6000604082019050614e816000830185614207565b614e8e6020830184614207565b9392505050565b7f4e487b7100000000000000000000000000000000000000000000000000000000600052601160045260246000fd5b6000614ecf82613f6c565b9150614eda83613f6c565b9250828201905080821115614ef257614ef1614e95565b5b92915050565b7f4e487b7100000000000000000000000000000000000000000000000000000000600052603260045260246000fd5b6000614f3282613f6c565b91507fffffffffffffffffffffffffffffffffffffffffffffffffffffffffffffffff8203614f6457614f63614e95565b5b600182019050919050565b7f4f6e6c792061646d696e2063616e2063616c6c20746869732066756e6374696f60008201527f6e00000000000000000000000000000000000000000000000000000000000000602082015250565b6000614fcb602183613e53565b9150614fd682614f6f565b604082019050919050565b60006020820190508181036000830152614ffa81614fbe565b9050919050565b7f496e76616c696420726f6c652c206f6e6c792061646d696e206f72207365727660008201527f696365207375697461626c652e00000000000000000000000000000000000000602082015250565b600061505d602d83613e53565b915061506882615001565b604082019050919050565b6000602082019050818103600083015261508c81615050565b9050919050565b60008190508160005260206000209050919050565b60006020601f8301049050919050565b600082821b905092915050565b6000600883026150f57fffffffffffffffffffffffffffffffffffffffffffffffffffffffffffffffff826150b8565b6150ff86836150b8565b95508019841693508086168417925050509392505050565b6000819050919050565b600061513c61513761513284613f6c565b615117565b613f6c565b9050919050565b6000819050919050565b61515683615121565b61516a61516282615143565b8484546150c5565b825550505050565b600090565b61517f615172565b61518a81848461514d565b505050565b5b818110156151ae576151a3600082615177565b600181019050615190565b5050565b601f8211156151f3576151c481615093565b6151cd846150a8565b810160208510156151dc578190505b6151f06151e8856150a8565b83018261518f565b50505b505050565b600082821c905092915050565b6000615216600019846008026151f8565b1980831691505092915050565b600061522f8383615205565b9150826002028217905092915050565b61524882613e48565b67ffffffffffffffff811115615261576152606142bb565b5b61526b8254614e3b565b6152768282856151b2565b600060209050601f8311600181146152a95760008415615297578287015190505b6152a18582615223565b865550615309565b601f1984166152b786615093565b60005b828110156152df578489015182556001820191506020850194506020810190506152ba565b868310156152fc57848901516152f8601f891682615205565b8355505b6001600288020188555050505b505050505050565b7f546869732044657374696e6174696f6e20776173206e6f7420636865636b696e600082015250565b6000615347602083613e53565b915061535282615311565b602082019050919050565b600060208201905081810360008301526153768161533a565b9050919050565b600060e0830160008301516153956000860182614044565b5060208301516153a86020860182614044565b5060408301516153bb6040860182614044565b50606083015184820360608601526153d38282614064565b91505060808301516153e86080860182614044565b5060a08301516153fb60a086018261409d565b5060c083015184820360c08601526154138282614064565b9150508091505092915050565b6000604082019050818103600083015261543a8185613e9f565b9050818103602083015261544e818461537d565b90509392505050565b600060808201905061546c6000830187614a8e565b615479602083018661456e565b6154866040830185614a8e565b6154936060830184614a8e565b95945050505050565b60008160601b9050919050565b60006154b48261549c565b9050919050565b60006154c6826154a9565b9050919050565b6154de6154d982613f2e565b6154bb565b82525050565b6000819050919050565b6154ff6154fa82613f6c565b6154e4565b82525050565b600081905092915050565b600061551b82613e48565b6155258185615505565b9350615535818560208601613e64565b80840191505092915050565b600061554d82876154cd565b60148201915061555d82866154ee565b60208201915061556d8285615510565b915061557982846154ee565b60208201915081905095945050505050565b7f45524332303a2064656372656173656420616c6c6f77616e63652062656c6f7760008201527f207a65726f000000000000000000000000000000000000000000000000000000602082015250565b60006155e7602583613e53565b91506155f28261558b565b604082019050919050565b60006020820190508181036000830152615616816155da565b9050919050565b7f696e76616c6964207369676e6174757265206c656e6774680000000000000000600082015250565b6000615653601883613e53565b915061565e8261561d565b602082019050919050565b6000602082019050818103600083015261568281615646565b9050919050565b7f596f7520686164206265656e2072657669657765642074686973207472697000600082015250565b60006156bf601f83613e53565b91506156ca82615689565b602082019050919050565b600060208201905081810360008301526156ee816156b2565b9050919050565b60008154905061570481614e3b565b9050919050565b8181036157195750506157f1565b615722826156f5565b67ffffffffffffffff81111561573b5761573a6142bb565b5b6157458254614e3b565b6157508282856151b2565b6000601f83116001811461577f576000841561576d578287015490505b6157778582615223565b8655506157ea565b601f19841661578d87615093565b965061579886615093565b60005b828110156157c05784890154825560018201915060018501945060208101905061579b565b868310156157dd57848901546157d9601f891682615205565b8355505b6001600288020188555050505b5050505050505b565b600060a0820190506158086000830188614207565b6158156020830187614207565b81810360408301526158278186613e9f565b90506158366060830185614207565b81810360808301526158488184613e9f565b90509695505050505050565b7f5468697320494420616c72656164792065786973746564000000000000000000600082015250565b600061588a601783613e53565b915061589582615854565b602082019050919050565b600060208201905081810360008301526158b98161587d565b9050919050565b7f496e76616c6964205369676e6174757265000000000000000000000000000000600082015250565b60006158f6601183613e53565b9150615901826158c0565b602082019050919050565b60006020820190508181036000830152615925816158e9565b9050919050565b600061593782613f6c565b915061594283613f6c565b925082820261595081613f6c565b9150828204841483151761596757615966614e95565b5b5092915050565b600060408201905081810360008301526159888185613e9f565b90506159976020830184614207565b9392505050565b7f5469636b65742068617320757365640000000000000000000000000000000000600082015250565b60006159d4600f83613e53565b91506159df8261599e565b602082019050919050565b60006020820190508181036000830152615a03816159c7565b9050919050565b7f19457468657265756d205369676e6564204d6573736167653a0a333200000000600082015250565b6000615a40601c83615505565b9150615a4b82615a0a565b601c82019050919050565b6000819050919050565b615a71615a6c8261495e565b615a56565b82525050565b6000615a8282615a33565b9150615a8e8284615a60565b60208201915081905092915050565b7f45524332303a20617070726f76652066726f6d20746865207a65726f2061646460008201527f7265737300000000000000000000000000000000000000000000000000000000602082015250565b6000615af9602483613e53565b9150615b0482615a9d565b604082019050919050565b60006020820190508181036000830152615b2881615aec565b9050919050565b7f45524332303a20617070726f766520746f20746865207a65726f20616464726560008201527f7373000000000000000000000000000000000000000000000000000000000000602082015250565b6000615b8b602283613e53565b9150615b9682615b2f565b604082019050919050565b60006020820190508181036000830152615bba81615b7e565b9050919050565b7f45524332303a20696e73756666696369656e7420616c6c6f77616e6365000000600082015250565b6000615bf7601d83613e53565b9150615c0282615bc1565b602082019050919050565b60006020820190508181036000830152615c2681615bea565b9050919050565b7f45524332303a207472616e736665722066726f6d20746865207a65726f20616460008201527f6472657373000000000000000000000000000000000000000000000000000000602082015250565b6000615c89602583613e53565b9150615c9482615c2d565b604082019050919050565b60006020820190508181036000830152615cb881615c7c565b9050919050565b7f45524332303a207472616e7366657220746f20746865207a65726f206164647260008201527f6573730000000000000000000000000000000000000000000000000000000000602082015250565b6000615d1b602383613e53565b9150615d2682615cbf565b604082019050919050565b60006020820190508181036000830152615d4a81615d0e565b9050919050565b7f45524332303a207472616e7366657220616d6f756e742065786365656473206260008201527f616c616e63650000000000000000000000000000000000000000000000000000602082015250565b6000615dad602683613e53565b9150615db882615d51565b604082019050919050565b60006020820190508181036000830152615ddc81615da0565b9050919050565b7f45524332303a206275726e2066726f6d20746865207a65726f2061646472657360008201527f7300000000000000000000000000000000000000000000000000000000000000602082015250565b6000615e3f602183613e53565b9150615e4a82615de3565b604082019050919050565b60006020820190508181036000830152615e6e81615e32565b9050919050565b7f45524332303a206275726e20616d6f756e7420657863656564732062616c616e60008201527f6365000000000000000000000000000000000000000000000000000000000000602082015250565b6000615ed1602283613e53565b9150615edc82615e75565b604082019050919050565b60006020820190508181036000830152615f0081615ec4565b9050919050565b7f45524332303a206d696e7420746f20746865207a65726f206164647265737300600082015250565b6000615f3d601f83613e53565b9150615f4882615f07565b602082019050919050565b60006020820190508181036000830152615f6c81615f30565b905091905056fea2646970667358221220270fcec33899b801cf5ac954591b48bb08b8bdcfc30d4edc5fd90cd1cf2c0a8364736f6c63430008130033",
  "linkReferences": {},
  "deployedLinkReferences": {}
}