{
  "_format": "hh-sol-artifact-1",
  "contractName": "TouristConTract",
  "sourceName": "contracts/Tourism.sol",
  "abi": [
    {
      "inputs": [],
      "stateMutability": "nonpayable",
      "type": "constructor"
    },
    {
      "anonymous": false,
      "inputs": [
        {
          "indexed": false,
          "internalType": "string",
          "name": "AlbumName",
          "type": "string"
        },
        {
          "components": [
            {
              "internalType": "uint256",
              "name": "placeId",
              "type": "uint256"
            },
            {
              "internalType": "uint256",
              "name": "arrivalDate",
              "type": "uint256"
            },
            {
              "internalType": "string",
              "name": "review",
              "type": "string"
            },
            {
              "internalType": "uint256",
              "name": "rate",
              "type": "uint256"
            },
            {
              "internalType": "bool",
              "name": "isReview",
              "type": "bool"
            },
            {
              "internalType": "string",
              "name": "title",
              "type": "string"
            }
          ],
          "indexed": false,
          "internalType": "struct TouristConTract.Journey",
          "name": "journey",
          "type": "tuple"
        }
      ],
      "name": "AddJourneyInAlbum",
      "type": "event"
    },
    {
      "anonymous": false,
      "inputs": [
        {
          "indexed": false,
          "internalType": "string",
          "name": "name",
          "type": "string"
        },
        {
          "indexed": false,
          "internalType": "uint256",
          "name": "age",
          "type": "uint256"
        }
      ],
      "name": "AddTourist",
      "type": "event"
    },
    {
      "anonymous": false,
      "inputs": [
        {
          "indexed": true,
          "internalType": "address",
          "name": "owner",
          "type": "address"
        },
        {
          "indexed": true,
          "internalType": "address",
          "name": "spender",
          "type": "address"
        },
        {
          "indexed": false,
          "internalType": "uint256",
          "name": "value",
          "type": "uint256"
        }
      ],
      "name": "Approval",
      "type": "event"
    },
    {
      "anonymous": false,
      "inputs": [
        {
          "indexed": false,
          "internalType": "uint256",
          "name": "ticketId",
          "type": "uint256"
        },
        {
          "indexed": false,
          "internalType": "uint256",
          "name": "placeId",
          "type": "uint256"
        }
      ],
      "name": "CheckIn",
      "type": "event"
    },
    {
      "anonymous": false,
      "inputs": [
        {
          "indexed": false,
          "internalType": "uint256",
          "name": "_id",
          "type": "uint256"
        },
        {
          "indexed": false,
          "internalType": "string",
          "name": "_name",
          "type": "string"
        }
      ],
      "name": "CreateAlbum",
      "type": "event"
    },
    {
      "anonymous": false,
      "inputs": [
        {
          "indexed": true,
          "internalType": "address",
          "name": "from",
          "type": "address"
        },
        {
          "indexed": true,
          "internalType": "address",
          "name": "to",
          "type": "address"
        },
        {
          "indexed": false,
          "internalType": "uint256",
          "name": "value",
          "type": "uint256"
        }
      ],
      "name": "Transfer",
      "type": "event"
    },
    {
      "inputs": [
        {
          "internalType": "address",
          "name": "_signer",
          "type": "address"
        },
        {
          "internalType": "address",
          "name": "_to",
          "type": "address"
        },
        {
          "internalType": "uint256",
          "name": "_amount",
          "type": "uint256"
        },
        {
          "internalType": "string",
          "name": "_message",
          "type": "string"
        },
        {
          "internalType": "uint256",
          "name": "_nonce",
          "type": "uint256"
        },
        {
          "internalType": "bytes",
          "name": "signature",
          "type": "bytes"
        }
      ],
      "name": "_mintMinerReward",
      "outputs": [],
      "stateMutability": "nonpayable",
      "type": "function"
    },
    {
      "inputs": [
        {
          "internalType": "uint256",
          "name": "placeId",
          "type": "uint256"
        },
        {
          "internalType": "uint256",
          "name": "albumId",
          "type": "uint256"
        },
        {
          "internalType": "uint256",
          "name": "date",
          "type": "uint256"
        }
      ],
      "name": "addAlbumJourney",
      "outputs": [],
      "stateMutability": "nonpayable",
      "type": "function"
    },
    {
      "inputs": [
        {
          "internalType": "uint256",
          "name": "id",
          "type": "uint256"
        }
      ],
      "name": "addTicket",
      "outputs": [],
      "stateMutability": "nonpayable",
      "type": "function"
    },
    {
      "inputs": [
        {
          "internalType": "address",
          "name": "",
          "type": "address"
        },
        {
          "internalType": "uint256",
          "name": "",
          "type": "uint256"
        },
        {
          "internalType": "uint256",
          "name": "",
          "type": "uint256"
        }
      ],
      "name": "albumJourneys",
      "outputs": [
        {
          "internalType": "uint256",
          "name": "placeId",
          "type": "uint256"
        },
        {
          "internalType": "uint256",
          "name": "arrivalDate",
          "type": "uint256"
        },
        {
          "internalType": "string",
          "name": "review",
          "type": "string"
        },
        {
          "internalType": "uint256",
          "name": "rate",
          "type": "uint256"
        },
        {
          "internalType": "bool",
          "name": "isReview",
          "type": "bool"
        },
        {
          "internalType": "string",
          "name": "title",
          "type": "string"
        }
      ],
      "stateMutability": "view",
      "type": "function"
    },
    {
      "inputs": [
        {
          "internalType": "address",
          "name": "owner",
          "type": "address"
        },
        {
          "internalType": "address",
          "name": "spender",
          "type": "address"
        }
      ],
      "name": "allowance",
      "outputs": [
        {
          "internalType": "uint256",
          "name": "",
          "type": "uint256"
        }
      ],
      "stateMutability": "view",
      "type": "function"
    },
    {
      "inputs": [
        {
          "internalType": "address",
          "name": "spender",
          "type": "address"
        },
        {
          "internalType": "uint256",
          "name": "amount",
          "type": "uint256"
        }
      ],
      "name": "approve",
      "outputs": [
        {
          "internalType": "bool",
          "name": "",
          "type": "bool"
        }
      ],
      "stateMutability": "nonpayable",
      "type": "function"
    },
    {
      "inputs": [
        {
          "internalType": "address",
          "name": "account",
          "type": "address"
        }
      ],
      "name": "balanceOf",
      "outputs": [
        {
          "internalType": "uint256",
          "name": "",
          "type": "uint256"
        }
      ],
      "stateMutability": "view",
      "type": "function"
    },
    {
      "inputs": [
        {
          "internalType": "uint256",
          "name": "ticketID",
          "type": "uint256"
        },
        {
          "internalType": "uint256",
          "name": "placeID",
          "type": "uint256"
        }
      ],
      "name": "checkIn",
      "outputs": [],
      "stateMutability": "nonpayable",
      "type": "function"
    },
    {
      "inputs": [
        {
          "internalType": "uint256",
          "name": "ticketID",
          "type": "uint256"
        }
      ],
      "name": "checkValidTicket",
      "outputs": [
        {
          "internalType": "bool",
          "name": "",
          "type": "bool"
        }
      ],
      "stateMutability": "view",
      "type": "function"
    },
    {
      "inputs": [
        {
          "internalType": "bytes32",
          "name": "_hashedMessage",
          "type": "bytes32"
        },
        {
          "internalType": "uint8",
          "name": "_v",
          "type": "uint8"
        },
        {
          "internalType": "bytes32",
          "name": "_r",
          "type": "bytes32"
        },
        {
          "internalType": "bytes32",
          "name": "_s",
          "type": "bytes32"
        }
      ],
      "name": "claimPrize",
      "outputs": [
        {
          "internalType": "bool",
          "name": "",
          "type": "bool"
        }
      ],
      "stateMutability": "view",
      "type": "function"
    },
    {
      "inputs": [
        {
          "internalType": "uint256",
          "name": "_id",
          "type": "uint256"
        },
        {
          "internalType": "string",
          "name": "_name",
          "type": "string"
        }
      ],
      "name": "createAlbum",
      "outputs": [],
      "stateMutability": "nonpayable",
      "type": "function"
    },
    {
      "inputs": [],
      "name": "decimals",
      "outputs": [
        {
          "internalType": "uint8",
          "name": "",
          "type": "uint8"
        }
      ],
      "stateMutability": "view",
      "type": "function"
    },
    {
      "inputs": [
        {
          "internalType": "address",
          "name": "spender",
          "type": "address"
        },
        {
          "internalType": "uint256",
          "name": "subtractedValue",
          "type": "uint256"
        }
      ],
      "name": "decreaseAllowance",
      "outputs": [
        {
          "internalType": "bool",
          "name": "",
          "type": "bool"
        }
      ],
      "stateMutability": "nonpayable",
      "type": "function"
    },
    {
      "inputs": [
        {
          "internalType": "uint256",
          "name": "",
          "type": "uint256"
        },
        {
          "internalType": "uint256",
          "name": "",
          "type": "uint256"
        }
      ],
      "name": "destinationRates",
      "outputs": [
        {
          "internalType": "uint256",
          "name": "",
          "type": "uint256"
        }
      ],
      "stateMutability": "view",
      "type": "function"
    },
    {
      "inputs": [
        {
          "internalType": "uint256",
          "name": "id",
          "type": "uint256"
        }
      ],
      "name": "getAlbumCheckIn",
      "outputs": [
        {
          "components": [
            {
              "internalType": "uint256",
              "name": "placeId",
              "type": "uint256"
            },
            {
              "internalType": "uint256",
              "name": "arrivalDate",
              "type": "uint256"
            },
            {
              "internalType": "string",
              "name": "review",
              "type": "string"
            },
            {
              "internalType": "uint256",
              "name": "rate",
              "type": "uint256"
            },
            {
              "internalType": "bool",
              "name": "isReview",
              "type": "bool"
            },
            {
              "internalType": "string",
              "name": "title",
              "type": "string"
            }
          ],
          "internalType": "struct TouristConTract.Journey[]",
          "name": "",
          "type": "tuple[]"
        }
      ],
      "stateMutability": "view",
      "type": "function"
    },
    {
      "inputs": [],
      "name": "getAllJourney",
      "outputs": [
        {
          "components": [
            {
              "internalType": "uint256",
              "name": "placeId",
              "type": "uint256"
            },
            {
              "internalType": "uint256",
              "name": "arrivalDate",
              "type": "uint256"
            },
            {
              "internalType": "string",
              "name": "review",
              "type": "string"
            },
            {
              "internalType": "uint256",
              "name": "rate",
              "type": "uint256"
            },
            {
              "internalType": "bool",
              "name": "isReview",
              "type": "bool"
            },
            {
              "internalType": "string",
              "name": "title",
              "type": "string"
            }
          ],
          "internalType": "struct TouristConTract.Journey[]",
          "name": "",
          "type": "tuple[]"
        }
      ],
      "stateMutability": "view",
      "type": "function"
    },
    {
      "inputs": [
        {
          "internalType": "uint256",
          "name": "placeid",
          "type": "uint256"
        }
      ],
      "name": "getAllRates",
      "outputs": [
        {
          "internalType": "uint256[]",
          "name": "",
          "type": "uint256[]"
        }
      ],
      "stateMutability": "view",
      "type": "function"
    },
    {
      "inputs": [
        {
          "internalType": "address",
          "name": "add",
          "type": "address"
        }
      ],
      "name": "getBalance",
      "outputs": [
        {
          "internalType": "uint256",
          "name": "",
          "type": "uint256"
        }
      ],
      "stateMutability": "view",
      "type": "function"
    },
    {
      "inputs": [
        {
          "internalType": "bytes32",
          "name": "_messageHash",
          "type": "bytes32"
        }
      ],
      "name": "getEthSignedMessageHash",
      "outputs": [
        {
          "internalType": "bytes32",
          "name": "",
          "type": "bytes32"
        }
      ],
      "stateMutability": "pure",
      "type": "function"
    },
    {
      "inputs": [
        {
          "internalType": "address",
          "name": "_to",
          "type": "address"
        },
        {
          "internalType": "uint256",
          "name": "_amount",
          "type": "uint256"
        },
        {
          "internalType": "string",
          "name": "_message",
          "type": "string"
        },
        {
          "internalType": "uint256",
          "name": "_nonce",
          "type": "uint256"
        }
      ],
      "name": "getMessageHash",
      "outputs": [
        {
          "internalType": "bytes32",
          "name": "",
          "type": "bytes32"
        }
      ],
      "stateMutability": "pure",
      "type": "function"
    },
    {
      "inputs": [
        {
          "internalType": "uint256",
          "name": "placeid",
          "type": "uint256"
        }
      ],
      "name": "getReviewsInPlace",
      "outputs": [
        {
          "components": [
            {
              "internalType": "uint256",
              "name": "placeId",
              "type": "uint256"
            },
            {
              "internalType": "uint256",
              "name": "arrivalDate",
              "type": "uint256"
            },
            {
              "internalType": "string",
              "name": "review",
              "type": "string"
            },
            {
              "internalType": "uint256",
              "name": "rate",
              "type": "uint256"
            },
            {
              "internalType": "bool",
              "name": "isReview",
              "type": "bool"
            },
            {
              "internalType": "string",
              "name": "title",
              "type": "string"
            }
          ],
          "internalType": "struct TouristConTract.Journey[]",
          "name": "",
          "type": "tuple[]"
        }
      ],
      "stateMutability": "view",
      "type": "function"
    },
    {
      "inputs": [
        {
          "internalType": "address",
          "name": "userAddress",
          "type": "address"
        },
        {
          "internalType": "uint256",
          "name": "role",
          "type": "uint256"
        }
      ],
      "name": "grantRole",
      "outputs": [],
      "stateMutability": "nonpayable",
      "type": "function"
    },
    {
      "inputs": [
        {
          "internalType": "address",
          "name": "spender",
          "type": "address"
        },
        {
          "internalType": "uint256",
          "name": "addedValue",
          "type": "uint256"
        }
      ],
      "name": "increaseAllowance",
      "outputs": [
        {
          "internalType": "bool",
          "name": "",
          "type": "bool"
        }
      ],
      "stateMutability": "nonpayable",
      "type": "function"
    },
    {
      "inputs": [],
      "name": "name",
      "outputs": [
        {
          "internalType": "string",
          "name": "",
          "type": "string"
        }
      ],
      "stateMutability": "view",
      "type": "function"
    },
    {
      "inputs": [
        {
          "internalType": "uint256",
          "name": "",
          "type": "uint256"
        }
      ],
      "name": "noPeopleCheckIn",
      "outputs": [
        {
          "internalType": "uint256",
          "name": "",
          "type": "uint256"
        }
      ],
      "stateMutability": "view",
      "type": "function"
    },
    {
      "inputs": [
        {
          "internalType": "uint256",
          "name": "",
          "type": "uint256"
        }
      ],
      "name": "noPeopleRate",
      "outputs": [
        {
          "internalType": "uint256",
          "name": "",
          "type": "uint256"
        }
      ],
      "stateMutability": "view",
      "type": "function"
    },
    {
      "inputs": [
        {
          "internalType": "bytes32",
          "name": "_ethSignedMessageHash",
          "type": "bytes32"
        },
        {
          "internalType": "bytes",
          "name": "_signature",
          "type": "bytes"
        }
      ],
      "name": "recoverSigner",
      "outputs": [
        {
          "internalType": "address",
          "name": "",
          "type": "address"
        }
      ],
      "stateMutability": "pure",
      "type": "function"
    },
    {
      "inputs": [
        {
          "internalType": "string",
          "name": "name",
          "type": "string"
        },
        {
          "internalType": "uint256",
          "name": "age",
          "type": "uint256"
        }
      ],
      "name": "register",
      "outputs": [],
      "stateMutability": "nonpayable",
      "type": "function"
    },
    {
      "inputs": [
        {
          "internalType": "uint256",
          "name": "placeId",
          "type": "uint256"
        },
        {
          "internalType": "uint256",
          "name": "arrDate",
          "type": "uint256"
        },
        {
          "internalType": "string",
          "name": "comment",
          "type": "string"
        },
        {
          "internalType": "uint256",
          "name": "rate",
          "type": "uint256"
        },
        {
          "internalType": "string",
          "name": "title",
          "type": "string"
        }
      ],
      "name": "review",
      "outputs": [],
      "stateMutability": "nonpayable",
      "type": "function"
    },
    {
      "inputs": [
        {
          "internalType": "bytes",
          "name": "sig",
          "type": "bytes"
        }
      ],
      "name": "splitSignature",
      "outputs": [
        {
          "internalType": "bytes32",
          "name": "r",
          "type": "bytes32"
        },
        {
          "internalType": "bytes32",
          "name": "s",
          "type": "bytes32"
        },
        {
          "internalType": "uint8",
          "name": "v",
          "type": "uint8"
        }
      ],
      "stateMutability": "pure",
      "type": "function"
    },
    {
      "inputs": [],
      "name": "symbol",
      "outputs": [
        {
          "internalType": "string",
          "name": "",
          "type": "string"
        }
      ],
      "stateMutability": "view",
      "type": "function"
    },
    {
      "inputs": [],
      "name": "totalSupply",
      "outputs": [
        {
          "internalType": "uint256",
          "name": "",
          "type": "uint256"
        }
      ],
      "stateMutability": "view",
      "type": "function"
    },
    {
      "inputs": [
        {
          "internalType": "address",
          "name": "",
          "type": "address"
        },
        {
          "internalType": "uint256",
          "name": "",
          "type": "uint256"
        }
      ],
      "name": "touristAlbums",
      "outputs": [
        {
          "internalType": "uint256",
          "name": "id",
          "type": "uint256"
        },
        {
          "internalType": "string",
          "name": "name",
          "type": "string"
        }
      ],
      "stateMutability": "view",
      "type": "function"
    },
    {
      "inputs": [
        {
          "internalType": "address",
          "name": "",
          "type": "address"
        }
      ],
      "name": "touristIdentify",
      "outputs": [
        {
          "internalType": "string",
          "name": "name",
          "type": "string"
        },
        {
          "internalType": "uint256",
          "name": "age",
          "type": "uint256"
        },
        {
          "internalType": "bool",
          "name": "signup",
          "type": "bool"
        },
        {
          "internalType": "address",
          "name": "touristAddress",
          "type": "address"
        }
      ],
      "stateMutability": "view",
      "type": "function"
    },
    {
      "inputs": [
        {
          "internalType": "address",
          "name": "",
          "type": "address"
        },
        {
          "internalType": "uint256",
          "name": "",
          "type": "uint256"
        }
      ],
      "name": "touristJourneys",
      "outputs": [
        {
          "internalType": "uint256",
          "name": "placeId",
          "type": "uint256"
        },
        {
          "internalType": "uint256",
          "name": "arrivalDate",
          "type": "uint256"
        },
        {
          "internalType": "string",
          "name": "review",
          "type": "string"
        },
        {
          "internalType": "uint256",
          "name": "rate",
          "type": "uint256"
        },
        {
          "internalType": "bool",
          "name": "isReview",
          "type": "bool"
        },
        {
          "internalType": "string",
          "name": "title",
          "type": "string"
        }
      ],
      "stateMutability": "view",
      "type": "function"
    },
    {
      "inputs": [
        {
          "internalType": "address",
          "name": "to",
          "type": "address"
        },
        {
          "internalType": "uint256",
          "name": "amount",
          "type": "uint256"
        }
      ],
      "name": "transfer",
      "outputs": [
        {
          "internalType": "bool",
          "name": "",
          "type": "bool"
        }
      ],
      "stateMutability": "nonpayable",
      "type": "function"
    },
    {
      "inputs": [
        {
          "internalType": "address",
          "name": "from",
          "type": "address"
        },
        {
          "internalType": "address",
          "name": "to",
          "type": "address"
        },
        {
          "internalType": "uint256",
          "name": "amount",
          "type": "uint256"
        }
      ],
      "name": "transferFrom",
      "outputs": [
        {
          "internalType": "bool",
          "name": "",
          "type": "bool"
        }
      ],
      "stateMutability": "nonpayable",
      "type": "function"
    },
    {
      "inputs": [
        {
          "internalType": "uint256",
          "name": "id",
          "type": "uint256"
        }
      ],
      "name": "validAddIDTicket",
      "outputs": [
        {
          "internalType": "bool",
          "name": "",
          "type": "bool"
        }
      ],
      "stateMutability": "view",
      "type": "function"
    },
    {
      "inputs": [
        {
          "internalType": "address",
          "name": "_signer",
          "type": "address"
        },
        {
          "internalType": "address",
          "name": "_to",
          "type": "address"
        },
        {
          "internalType": "uint256",
          "name": "_amount",
          "type": "uint256"
        },
        {
          "internalType": "string",
          "name": "_message",
          "type": "string"
        },
        {
          "internalType": "uint256",
          "name": "_nonce",
          "type": "uint256"
        },
        {
          "internalType": "bytes",
          "name": "signature",
          "type": "bytes"
        }
      ],
      "name": "verify",
      "outputs": [
        {
          "internalType": "bool",
          "name": "",
          "type": "bool"
        }
      ],
      "stateMutability": "pure",
      "type": "function"
    }
  ],
  "bytecode": "0x60806040523480156200001157600080fd5b506040518060400160405280600781526020017f4443546f6b656e000000000000000000000000000000000000000000000000008152506040518060400160405280600281526020017f587500000000000000000000000000000000000000000000000000000000000081525081600390816200008f919062000c88565b508060049081620000a1919062000c88565b50505060096040518060400160405280600181526020016000151581525090806001815401808255809150506001900390600052602060002090600202016000909190919091506000820151816000015560208201518160010160006101000a81548160ff021916908315150217905550505060096040518060400160405280600281526020016000151581525090806001815401808255809150506001900390600052602060002090600202016000909190919091506000820151816000015560208201518160010160006101000a81548160ff021916908315150217905550505060096040518060400160405280600381526020016000151581525090806001815401808255809150506001900390600052602060002090600202016000909190919091506000820151816000015560208201518160010160006101000a81548160ff021916908315150217905550505060096040518060400160405280600481526020016000151581525090806001815401808255809150506001900390600052602060002090600202016000909190919091506000820151816000015560208201518160010160006101000a81548160ff021916908315150217905550505060096040518060400160405280600581526020016000151581525090806001815401808255809150506001900390600052602060002090600202016000909190919091506000820151816000015560208201518160010160006101000a81548160ff021916908315150217905550505060096040518060400160405280600681526020016000151581525090806001815401808255809150506001900390600052602060002090600202016000909190919091506000820151816000015560208201518160010160006101000a81548160ff021916908315150217905550505060096040518060400160405280600781526020016000151581525090806001815401808255809150506001900390600052602060002090600202016000909190919091506000820151816000015560208201518160010160006101000a81548160ff021916908315150217905550505060096040518060400160405280600881526020016000151581525090806001815401808255809150506001900390600052602060002090600202016000909190919091506000820151816000015560208201518160010160006101000a81548160ff021916908315150217905550505060096040518060400160405280600981526020016000151581525090806001815401808255809150506001900390600052602060002090600202016000909190919091506000820151816000015560208201518160010160006101000a81548160ff021916908315150217905550505060096040518060400160405280600a81526020016000151581525090806001815401808255809150506001900390600052602060002090600202016000909190919091506000820151816000015560208201518160010160006101000a81548160ff021916908315150217905550505060096040518060400160405280600b81526020016000151581525090806001815401808255809150506001900390600052602060002090600202016000909190919091506000820151816000015560208201518160010160006101000a81548160ff021916908315150217905550505060096040518060400160405280600c81526020016000151581525090806001815401808255809150506001900390600052602060002090600202016000909190919091506000820151816000015560208201518160010160006101000a81548160ff021916908315150217905550505060096040518060400160405280600d81526020016000151581525090806001815401808255809150506001900390600052602060002090600202016000909190919091506000820151816000015560208201518160010160006101000a81548160ff021916908315150217905550505060096040518060400160405280600e81526020016000151581525090806001815401808255809150506001900390600052602060002090600202016000909190919091506000820151816000015560208201518160010160006101000a81548160ff021916908315150217905550505060096040518060400160405280600f81526020016000151581525090806001815401808255809150506001900390600052602060002090600202016000909190919091506000820151816000015560208201518160010160006101000a81548160ff021916908315150217905550505060096040518060400160405280601081526020016000151581525090806001815401808255809150506001900390600052602060002090600202016000909190919091506000820151816000015560208201518160010160006101000a81548160ff021916908315150217905550505060096040518060400160405280601181526020016000151581525090806001815401808255809150506001900390600052602060002090600202016000909190919091506000820151816000015560208201518160010160006101000a81548160ff021916908315150217905550505060096040518060400160405280601281526020016000151581525090806001815401808255809150506001900390600052602060002090600202016000909190919091506000820151816000015560208201518160010160006101000a81548160ff021916908315150217905550505060096040518060400160405280601381526020016000151581525090806001815401808255809150506001900390600052602060002090600202016000909190919091506000820151816000015560208201518160010160006101000a81548160ff021916908315150217905550505060096040518060400160405280601481526020016000151581525090806001815401808255809150506001900390600052602060002090600202016000909190919091506000820151816000015560208201518160010160006101000a81548160ff02191690831515021790555050506006339080600181540180825580915050600190039060005260206000200160009091909190916101000a81548173ffffffffffffffffffffffffffffffffffffffff021916908373ffffffffffffffffffffffffffffffffffffffff16021790555033600560006101000a81548173ffffffffffffffffffffffffffffffffffffffff021916908373ffffffffffffffffffffffffffffffffffffffff16021790555062000d6f565b600081519050919050565b7f4e487b7100000000000000000000000000000000000000000000000000000000600052604160045260246000fd5b7f4e487b7100000000000000000000000000000000000000000000000000000000600052602260045260246000fd5b6000600282049050600182168062000a9057607f821691505b60208210810362000aa65762000aa562000a48565b5b50919050565b60008190508160005260206000209050919050565b60006020601f8301049050919050565b600082821b905092915050565b60006008830262000b107fffffffffffffffffffffffffffffffffffffffffffffffffffffffffffffffff8262000ad1565b62000b1c868362000ad1565b95508019841693508086168417925050509392505050565b6000819050919050565b6000819050919050565b600062000b6962000b6362000b5d8462000b34565b62000b3e565b62000b34565b9050919050565b6000819050919050565b62000b858362000b48565b62000b9d62000b948262000b70565b84845462000ade565b825550505050565b600090565b62000bb462000ba5565b62000bc181848462000b7a565b505050565b5b8181101562000be95762000bdd60008262000baa565b60018101905062000bc7565b5050565b601f82111562000c385762000c028162000aac565b62000c0d8462000ac1565b8101602085101562000c1d578190505b62000c3562000c2c8562000ac1565b83018262000bc6565b50505b505050565b600082821c905092915050565b600062000c5d6000198460080262000c3d565b1980831691505092915050565b600062000c78838362000c4a565b9150826002028217905092915050565b62000c938262000a0e565b67ffffffffffffffff81111562000caf5762000cae62000a19565b5b62000cbb825462000a77565b62000cc882828562000bed565b600060209050601f83116001811462000d00576000841562000ceb578287015190505b62000cf7858262000c6a565b86555062000d67565b601f19841662000d108662000aac565b60005b8281101562000d3a5784890151825560018201915060208501945060208101905062000d13565b8683101562000d5a578489015162000d56601f89168262000c4a565b8355505b6001600288020188555050505b505050505050565b6154f48062000d7f6000396000f3fe608060405234801561001057600080fd5b506004361061023d5760003560e01c806397aba7f91161013b578063b9c3b1b9116100b8578063f2fa49b41161007c578063f2fa49b4146107c7578063f516f88e146107fc578063f8b2cb4f14610818578063fa54080114610848578063fc0587f8146108785761023d565b8063b9c3b1b9146106ff578063dd62ed3e1461072f578063ddb0225e1461075f578063ea87152b1461077b578063ebfbdec9146107975761023d565b8063a7bb5803116100ff578063a7bb580314610635578063a9059cbb14610667578063abe5026a14610697578063b2162415146106c7578063b4291319146106e35761023d565b806397aba7f9146105455780639e26c494146105755780639f7bdca1146105a5578063a35f8a40146105d5578063a457c2d7146106055761023d565b80633c09e2fd116101c957806370a082311161018d57806370a082311461047b578063732a7c25146104ab57806378902422146104c757806393f40521146104f757806395d89b41146105275761023d565b80633c09e2fd146103af5780635cab0d00146103cb5780636012f3be146103fb578063625336651461042c578063701a0e0d1461045f5761023d565b806323b872dd1161021057806323b872dd146102cc578063285f293b146102fc578063313ce5671461032c578063374936821461034a578063395093511461037f5761023d565b806306fdde0314610242578063095ea7b3146102605780630f13090e1461029057806318160ddd146102ae575b600080fd5b61024a6108a8565b6040516102579190613773565b60405180910390f35b61027a6004803603810190610275919061383d565b61093a565b6040516102879190613898565b60405180910390f35b61029861095d565b6040516102a59190613a6d565b60405180910390f35b6102b6610b56565b6040516102c39190613a9e565b60405180910390f35b6102e660048036038101906102e19190613ab9565b610b60565b6040516102f39190613898565b60405180910390f35b61031660048036038101906103119190613b0c565b610b8f565b6040516103239190613a6d565b60405180910390f35b610334610d9b565b6040516103419190613b55565b60405180910390f35b610364600480360381019061035f919061383d565b610da4565b60405161037696959493929190613b70565b60405180910390f35b6103996004803603810190610394919061383d565b610f1a565b6040516103a69190613898565b60405180910390f35b6103c960048036038101906103c4919061383d565b610f51565b005b6103e560048036038101906103e09190613b0c565b611160565b6040516103f29190613a9e565b60405180910390f35b6104156004803603810190610410919061383d565b611178565b604051610423929190613bdf565b60405180910390f35b61044660048036038101906104419190613c0f565b611241565b6040516104569493929190613c4b565b60405180910390f35b61047960048036038101906104749190613c97565b611326565b005b61049560048036038101906104909190613c0f565b6117da565b6040516104a29190613a9e565b60405180910390f35b6104c560048036038101906104c09190613e1f565b611822565b005b6104e160048036038101906104dc9190613b0c565b6118fe565b6040516104ee9190613f2a565b60405180910390f35b610511600480360381019061050c9190613b0c565b611969565b60405161051e9190613898565b60405180910390f35b61052f611a11565b60405161053c9190613773565b60405180910390f35b61055f600480360381019061055a9190614023565b611aa3565b60405161056c919061407f565b60405180910390f35b61058f600480360381019061058a9190613b0c565b611b12565b60405161059c9190613898565b60405180910390f35b6105bf60048036038101906105ba9190613b0c565b611b7b565b6040516105cc9190613a9e565b60405180910390f35b6105ef60048036038101906105ea919061409a565b611b93565b6040516105fc919061412c565b60405180910390f35b61061f600480360381019061061a919061383d565b611bcc565b60405161062c9190613898565b60405180910390f35b61064f600480360381019061064a9190614147565b611c43565b60405161065e93929190614190565b60405180910390f35b610681600480360381019061067c919061383d565b611cab565b60405161068e9190613898565b60405180910390f35b6106b160048036038101906106ac91906141c7565b611cce565b6040516106be9190613898565b60405180910390f35b6106e160048036038101906106dc919061428c565b611d32565b005b6106fd60048036038101906106f89190613b0c565b6121f5565b005b6107196004803603810190610714919061436b565b612394565b6040516107269190613898565b60405180910390f35b610749600480360381019061074491906143d2565b6124c0565b6040516107569190613a9e565b60405180910390f35b610779600480360381019061077491906141c7565b612547565b005b61079560048036038101906107909190614412565b61256f565b005b6107b160048036038101906107ac919061446e565b612868565b6040516107be9190613a9e565b60405180910390f35b6107e160048036038101906107dc91906144ae565b612899565b6040516107f396959493929190613b70565b60405180910390f35b6108166004803603810190610811919061446e565b612a1c565b005b610832600480360381019061082d9190613c0f565b612cad565b60405161083f9190613a9e565b60405180910390f35b610862600480360381019061085d9190614501565b612cb4565b60405161086f919061412c565b60405180910390f35b610892600480360381019061088d9190613b0c565b612ce4565b60405161089f9190613a6d565b60405180910390f35b6060600380546108b79061455d565b80601f01602080910402602001604051908101604052809291908181526020018280546108e39061455d565b80156109305780601f1061090557610100808354040283529160200191610930565b820191906000526020600020905b81548152906001019060200180831161091357829003601f168201915b5050505050905090565b600080610945612eb3565b9050610952818585612ebb565b600191505092915050565b6060600c60003373ffffffffffffffffffffffffffffffffffffffff1673ffffffffffffffffffffffffffffffffffffffff168152602001908152602001600020805480602002602001604051908101604052809291908181526020016000905b82821015610b4d57838290600052602060002090600602016040518060c00160405290816000820154815260200160018201548152602001600282018054610a059061455d565b80601f0160208091040260200160405190810160405280929190818152602001828054610a319061455d565b8015610a7e5780601f10610a5357610100808354040283529160200191610a7e565b820191906000526020600020905b815481529060010190602001808311610a6157829003601f168201915b50505050508152602001600382015481526020016004820160009054906101000a900460ff16151515158152602001600582018054610abc9061455d565b80601f0160208091040260200160405190810160405280929190818152602001828054610ae89061455d565b8015610b355780601f10610b0a57610100808354040283529160200191610b35565b820191906000526020600020905b815481529060010190602001808311610b1857829003601f168201915b505050505081525050815260200190600101906109be565b50505050905090565b6000600254905090565b600080610b6b612eb3565b9050610b78858285613084565b610b83858585613110565b60019150509392505050565b6060600f60003373ffffffffffffffffffffffffffffffffffffffff1673ffffffffffffffffffffffffffffffffffffffff1681526020019081526020016000206000838152602001908152602001600020805480602002602001604051908101604052809291908181526020016000905b82821015610d9057838290600052602060002090600602016040518060c00160405290816000820154815260200160018201548152602001600282018054610c489061455d565b80601f0160208091040260200160405190810160405280929190818152602001828054610c749061455d565b8015610cc15780601f10610c9657610100808354040283529160200191610cc1565b820191906000526020600020905b815481529060010190602001808311610ca457829003601f168201915b50505050508152602001600382015481526020016004820160009054906101000a900460ff16151515158152602001600582018054610cff9061455d565b80601f0160208091040260200160405190810160405280929190818152602001828054610d2b9061455d565b8015610d785780601f10610d4d57610100808354040283529160200191610d78565b820191906000526020600020905b815481529060010190602001808311610d5b57829003601f168201915b50505050508152505081526020019060010190610c01565b505050509050919050565b60006012905090565b600c6020528160005260406000208181548110610dc057600080fd5b906000526020600020906006020160009150915050806000015490806001015490806002018054610df09061455d565b80601f0160208091040260200160405190810160405280929190818152602001828054610e1c9061455d565b8015610e695780601f10610e3e57610100808354040283529160200191610e69565b820191906000526020600020905b815481529060010190602001808311610e4c57829003601f168201915b5050505050908060030154908060040160009054906101000a900460ff1690806005018054610e979061455d565b80601f0160208091040260200160405190810160405280929190818152602001828054610ec39061455d565b8015610f105780601f10610ee557610100808354040283529160200191610f10565b820191906000526020600020905b815481529060010190602001808311610ef357829003601f168201915b5050505050905086565b600080610f25612eb3565b9050610f46818585610f3785896124c0565b610f4191906145bd565b612ebb565b600191505092915050565b6000805b600680549050811015610fed5760068181548110610f7657610f756145f1565b5b9060005260206000200160009054906101000a900473ffffffffffffffffffffffffffffffffffffffff1673ffffffffffffffffffffffffffffffffffffffff163373ffffffffffffffffffffffffffffffffffffffff1603610fdc5760019150610fed565b80610fe690614620565b9050610f55565b506001151581151514611035576040517f08c379a000000000000000000000000000000000000000000000000000000000815260040161102c906146da565b60405180910390fd5b60018214806110445750600282145b611083576040517f08c379a000000000000000000000000000000000000000000000000000000000815260040161107a9061476c565b60405180910390fd5b600182036110ef576006839080600181540180825580915050600190039060005260206000200160009091909190916101000a81548173ffffffffffffffffffffffffffffffffffffffff021916908373ffffffffffffffffffffffffffffffffffffffff1602179055505b6002820361115b576007839080600181540180825580915050600190039060005260206000200160009091909190916101000a81548173ffffffffffffffffffffffffffffffffffffffff021916908373ffffffffffffffffffffffffffffffffffffffff1602179055505b505050565b60106020528060005260406000206000915090505481565b600e602052816000526040600020818154811061119457600080fd5b9060005260206000209060020201600091509150508060000154908060010180546111be9061455d565b80601f01602080910402602001604051908101604052809291908181526020018280546111ea9061455d565b80156112375780601f1061120c57610100808354040283529160200191611237565b820191906000526020600020905b81548152906001019060200180831161121a57829003601f168201915b5050505050905082565b600b6020528060005260406000206000915090508060000180546112649061455d565b80601f01602080910402602001604051908101604052809291908181526020018280546112909061455d565b80156112dd5780601f106112b2576101008083540402835291602001916112dd565b820191906000526020600020905b8154815290600101906020018083116112c057829003601f168201915b5050505050908060010154908060020160009054906101000a900460ff16908060020160019054906101000a900473ffffffffffffffffffffffffffffffffffffffff16905084565b60006113306136ab565b60005b600c60003373ffffffffffffffffffffffffffffffffffffffff1673ffffffffffffffffffffffffffffffffffffffff1681526020019081526020016000208054905081101561175157600c60003373ffffffffffffffffffffffffffffffffffffffff1673ffffffffffffffffffffffffffffffffffffffff16815260200190815260200160002081815481106113ce576113cd6145f1565b5b9060005260206000209060060201600001548614801561144f575083600c60003373ffffffffffffffffffffffffffffffffffffffff1673ffffffffffffffffffffffffffffffffffffffff168152602001908152602001600020828154811061143b5761143a6145f1565b5b906000526020600020906006020160010154145b1561173e576040518060c00160405280878152602001858152602001600c60003373ffffffffffffffffffffffffffffffffffffffff1673ffffffffffffffffffffffffffffffffffffffff16815260200190815260200160002083815481106114bc576114bb6145f1565b5b906000526020600020906006020160020180546114d89061455d565b80601f01602080910402602001604051908101604052809291908181526020018280546115049061455d565b80156115515780601f1061152657610100808354040283529160200191611551565b820191906000526020600020905b81548152906001019060200180831161153457829003601f168201915b50505050508152602001600c60003373ffffffffffffffffffffffffffffffffffffffff1673ffffffffffffffffffffffffffffffffffffffff16815260200190815260200160002083815481106115ac576115ab6145f1565b5b9060005260206000209060060201600301548152602001600c60003373ffffffffffffffffffffffffffffffffffffffff1673ffffffffffffffffffffffffffffffffffffffff1681526020019081526020016000208381548110611614576116136145f1565b5b906000526020600020906006020160040160009054906101000a900460ff1615158152602001604051806020016040528060008152508152509150600f60003373ffffffffffffffffffffffffffffffffffffffff1673ffffffffffffffffffffffffffffffffffffffff1681526020019081526020016000206000868152602001908152602001600020829080600181540180825580915050600190039060005260206000209060060201600090919091909150600082015181600001556020820151816001015560408201518160020190816116f29190614938565b506060820151816003015560808201518160040160006101000a81548160ff02191690831515021790555060a08201518160050190816117329190614938565b50505060019250611751565b808061174990614620565b915050611333565b5081611792576040517f08c379a000000000000000000000000000000000000000000000000000000000815260040161178990614a56565b60405180910390fd5b7f6d832360504eb9202946c19cf927d8fd388a9e567a3f7d4bae3077f56ab6c1a16117bc85613386565b826040516117cb929190614b06565b60405180910390a15050505050565b60008060008373ffffffffffffffffffffffffffffffffffffffff1673ffffffffffffffffffffffffffffffffffffffff168152602001908152602001600020549050919050565b600e60003373ffffffffffffffffffffffffffffffffffffffff1673ffffffffffffffffffffffffffffffffffffffff16815260200190815260200160002060405180604001604052808481526020018381525090806001815401808255809150506001900390600052602060002090600202016000909190919091506000820151816000015560208201518160010190816118be9190614938565b5050507ff538047aa51f8b732c1850d69564ec0d033aca661921dba9871bf8feff7a435f82826040516118f2929190613bdf565b60405180910390a15050565b60606012600083815260200190815260200160002080548060200260200160405190810160405280929190818152602001828054801561195d57602002820191906000526020600020905b815481526020019060010190808311611949575b50505050509050919050565b600080600090505b600980549050811015611a065760098181548110611992576119916145f1565b5b90600052602060002090600202016000015483036119f35760011515600982815481106119c2576119c16145f1565b5b906000526020600020906002020160010160009054906101000a900460ff161515036119f2576000915050611a0c565b5b80806119fe90614620565b915050611971565b50600190505b919050565b606060048054611a209061455d565b80601f0160208091040260200160405190810160405280929190818152602001828054611a4c9061455d565b8015611a995780601f10611a6e57610100808354040283529160200191611a99565b820191906000526020600020905b815481529060010190602001808311611a7c57829003601f168201915b5050505050905090565b600080600080611ab285611c43565b92509250925060018682858560405160008152602001604052604051611adb9493929190614b3d565b6020604051602081039080840390855afa158015611afd573d6000803e3d6000fd5b50505060206040510351935050505092915050565b600080600090505b600980549050811015611b705760098181548110611b3b57611b3a6145f1565b5b9060005260206000209060020201600001548303611b5d576000915050611b76565b8080611b6890614620565b915050611b1a565b50600190505b919050565b60116020528060005260406000206000915090505481565b600084848484604051602001611bac9493929190614c27565b604051602081830303815290604052805190602001209050949350505050565b600080611bd7612eb3565b90506000611be582866124c0565b905083811015611c2a576040517f08c379a0000000000000000000000000000000000000000000000000000000008152600401611c2190614ce3565b60405180910390fd5b611c378286868403612ebb565b60019250505092915050565b60008060006041845114611c8c576040517f08c379a0000000000000000000000000000000000000000000000000000000008152600401611c8390614d4f565b60405180910390fd5b6020840151925060408401519150606084015160001a90509193909250565b600080611cb6612eb3565b9050611cc3818585613110565b600191505092915050565b600080611cdd87878787611b93565b90506000611cea82612cb4565b90508873ffffffffffffffffffffffffffffffffffffffff16611d0d8286611aa3565b73ffffffffffffffffffffffffffffffffffffffff1614925050509695505050505050565b60005b600c60003373ffffffffffffffffffffffffffffffffffffffff1673ffffffffffffffffffffffffffffffffffffffff1681526020019081526020016000208054905081101561218a57600c60003373ffffffffffffffffffffffffffffffffffffffff1673ffffffffffffffffffffffffffffffffffffffff1681526020019081526020016000208181548110611dd057611dcf6145f1565b5b90600052602060002090600602016001015485036121775760001515600c60003373ffffffffffffffffffffffffffffffffffffffff1673ffffffffffffffffffffffffffffffffffffffff1681526020019081526020016000208281548110611e3d57611e3c6145f1565b5b906000526020600020906006020160040160009054906101000a900460ff16151514611e9e576040517f08c379a0000000000000000000000000000000000000000000000000000000008152600401611e9590614dbb565b60405180910390fd5b83600c60003373ffffffffffffffffffffffffffffffffffffffff1673ffffffffffffffffffffffffffffffffffffffff1681526020019081526020016000208281548110611ef057611eef6145f1565b5b90600052602060002090600602016002019081611f0d9190614938565b5082600c60003373ffffffffffffffffffffffffffffffffffffffff1673ffffffffffffffffffffffffffffffffffffffff1681526020019081526020016000208281548110611f6057611f5f6145f1565b5b9060005260206000209060060201600301819055506001600c60003373ffffffffffffffffffffffffffffffffffffffff1673ffffffffffffffffffffffffffffffffffffffff1681526020019081526020016000208281548110611fc857611fc76145f1565b5b906000526020600020906006020160040160006101000a81548160ff02191690831515021790555081600c60003373ffffffffffffffffffffffffffffffffffffffff1673ffffffffffffffffffffffffffffffffffffffff1681526020019081526020016000208281548110612042576120416145f1565b5b9060005260206000209060060201600501908161205f9190614938565b5060136000878152602001908152602001600020600c60003373ffffffffffffffffffffffffffffffffffffffff1673ffffffffffffffffffffffffffffffffffffffff16815260200190815260200160002082815481106120c4576120c36145f1565b5b906000526020600020906006020190806001815401808255809150506001900390600052602060002090600602016000909190919091506000820154816000015560018201548160010155600282018160020190816121239190614df1565b50600382015481600301556004820160009054906101000a900460ff168160040160006101000a81548160ff0219169083151502179055506005820181600501908161216f9190614df1565b50505061218a565b808061218290614620565b915050611d35565b50601260008681526020019081526020016000208290806001815401808255809150506001900390600052602060002001600090919091909150556011600086815260200190815260200160002060008154809291906121e990614620565b91905055505050505050565b6000805b600680549050811015612291576006818154811061221a576122196145f1565b5b9060005260206000200160009054906101000a900473ffffffffffffffffffffffffffffffffffffffff1673ffffffffffffffffffffffffffffffffffffffff163373ffffffffffffffffffffffffffffffffffffffff16036122805760019150612291565b8061228a90614620565b90506121f9565b5060011515811515146122d9576040517f08c379a00000000000000000000000000000000000000000000000000000000081526004016122d0906146da565b60405180910390fd5b6122e282611b12565b612321576040517f08c379a000000000000000000000000000000000000000000000000000000000815260040161231890614f25565b60405180910390fd5b600960405180604001604052808481526020016000151581525090806001815401808255809150506001900390600052602060002090600202016000909190919091506000820151816000015560208201518160010160006101000a81548160ff02191690831515021790555050505050565b6000806040518060400160405280601c81526020017f19457468657265756d205369676e6564204d6573736167653a0a3332000000008152509050600081876040516020016123e4929190614fad565b6040516020818303038152906040528051906020012090506000600182888888604051600081526020016040526040516124219493929190614b3d565b6020604051602081039080840390855afa158015612443573d6000803e3d6000fd5b505050602060405103519050600560009054906101000a900473ffffffffffffffffffffffffffffffffffffffff1673ffffffffffffffffffffffffffffffffffffffff168173ffffffffffffffffffffffffffffffffffffffff16036124b057600193505050506124b8565b600093505050505b949350505050565b6000600160008473ffffffffffffffffffffffffffffffffffffffff1673ffffffffffffffffffffffffffffffffffffffff16815260200190815260200160002060008373ffffffffffffffffffffffffffffffffffffffff1673ffffffffffffffffffffffffffffffffffffffff16815260200190815260200160002054905092915050565b612555868686868686611cce565b1561256757612566856103e861354b565b5b505050505050565b600060405180608001604052808481526020018381526020016001151581526020013373ffffffffffffffffffffffffffffffffffffffff16815250905082600b60003373ffffffffffffffffffffffffffffffffffffffff1673ffffffffffffffffffffffffffffffffffffffff16815260200190815260200160002060000190816125fc9190614938565b5081600b60003373ffffffffffffffffffffffffffffffffffffffff1673ffffffffffffffffffffffffffffffffffffffff1681526020019081526020016000206001018190555033600b60003373ffffffffffffffffffffffffffffffffffffffff1673ffffffffffffffffffffffffffffffffffffffff16815260200190815260200160002060020160016101000a81548173ffffffffffffffffffffffffffffffffffffffff021916908373ffffffffffffffffffffffffffffffffffffffff160217905550600b60003373ffffffffffffffffffffffffffffffffffffffff1673ffffffffffffffffffffffffffffffffffffffff16815260200190815260200160002060020160009054906101000a900460ff1661282a57600a819080600181540180825580915050600190039060005260206000209060030201600090919091909150600082015181600001908161275a9190614938565b506020820151816001015560408201518160020160006101000a81548160ff02191690831515021790555060608201518160020160016101000a81548173ffffffffffffffffffffffffffffffffffffffff021916908373ffffffffffffffffffffffffffffffffffffffff16021790555050506001600b60003373ffffffffffffffffffffffffffffffffffffffff1673ffffffffffffffffffffffffffffffffffffffff16815260200190815260200160002060020160006101000a81548160ff0219169083151502179055505b7ff9aabaa28b0c7b9b6a80283c8b8fd6983df8e2c5703e65ee433dbbd737306268838360405161285b929190614fd5565b60405180910390a1505050565b6012602052816000526040600020818154811061288457600080fd5b90600052602060002001600091509150505481565b600f60205282600052604060002060205281600052604060002081815481106128c157600080fd5b906000526020600020906006020160009250925050508060000154908060010154908060020180546128f29061455d565b80601f016020809104026020016040519081016040528092919081815260200182805461291e9061455d565b801561296b5780601f106129405761010080835404028352916020019161296b565b820191906000526020600020905b81548152906001019060200180831161294e57829003601f168201915b5050505050908060030154908060040160009054906101000a900460ff16908060050180546129999061455d565b80601f01602080910402602001604051908101604052809291908181526020018280546129c59061455d565b8015612a125780601f106129e757610100808354040283529160200191612a12565b820191906000526020600020905b8154815290600101906020018083116129f557829003601f168201915b5050505050905086565b6000805b600980549050811015612b225760098181548110612a4157612a406145f1565b5b9060005260206000209060020201600001548403612b0f5760098181548110612a6d57612a6c6145f1565b5b906000526020600020906002020160010160009054906101000a900460ff1615612acc576040517f08c379a0000000000000000000000000000000000000000000000000000000008152600401612ac390615051565b60405180910390fd5b60019150600160098281548110612ae657612ae56145f1565b5b906000526020600020906002020160010160006101000a81548160ff0219169083151502179055505b8080612b1a90614620565b915050612a20565b50601060008381526020019081526020016000206000815480929190612b4790614620565b9190505550600c60003373ffffffffffffffffffffffffffffffffffffffff1673ffffffffffffffffffffffffffffffffffffffff1681526020019081526020016000206040518060c001604052808481526020014281526020016040518060200160405280600081525081526020016000815260200160001515815260200160405180602001604052806000815250815250908060018154018082558091505060019003906000526020600020906006020160009091909190915060008201518160000155602082015181600101556040820151816002019081612c2c9190614938565b506060820151816003015560808201518160040160006101000a81548160ff02191690831515021790555060a0820151816005019081612c6c9190614938565b5050507ff165997b5f1d2b5ae2f43279fc978111209309fd44e04343b1ffd71915e62ab58383604051612ca0929190615071565b60405180910390a1505050565b6000919050565b600081604051602001612cc791906150e6565b604051602081830303815290604052805190602001209050919050565b606060136000838152602001908152602001600020805480602002602001604051908101604052809291908181526020016000905b82821015612ea857838290600052602060002090600602016040518060c00160405290816000820154815260200160018201548152602001600282018054612d609061455d565b80601f0160208091040260200160405190810160405280929190818152602001828054612d8c9061455d565b8015612dd95780601f10612dae57610100808354040283529160200191612dd9565b820191906000526020600020905b815481529060010190602001808311612dbc57829003601f168201915b50505050508152602001600382015481526020016004820160009054906101000a900460ff16151515158152602001600582018054612e179061455d565b80601f0160208091040260200160405190810160405280929190818152602001828054612e439061455d565b8015612e905780601f10612e6557610100808354040283529160200191612e90565b820191906000526020600020905b815481529060010190602001808311612e7357829003601f168201915b50505050508152505081526020019060010190612d19565b505050509050919050565b600033905090565b600073ffffffffffffffffffffffffffffffffffffffff168373ffffffffffffffffffffffffffffffffffffffff1603612f2a576040517f08c379a0000000000000000000000000000000000000000000000000000000008152600401612f219061517e565b60405180910390fd5b600073ffffffffffffffffffffffffffffffffffffffff168273ffffffffffffffffffffffffffffffffffffffff1603612f99576040517f08c379a0000000000000000000000000000000000000000000000000000000008152600401612f9090615210565b60405180910390fd5b80600160008573ffffffffffffffffffffffffffffffffffffffff1673ffffffffffffffffffffffffffffffffffffffff16815260200190815260200160002060008473ffffffffffffffffffffffffffffffffffffffff1673ffffffffffffffffffffffffffffffffffffffff168152602001908152602001600020819055508173ffffffffffffffffffffffffffffffffffffffff168373ffffffffffffffffffffffffffffffffffffffff167f8c5be1e5ebec7d5bd14f71427d1e84f3dd0314c0f7b2291e5b200ac8c7c3b925836040516130779190613a9e565b60405180910390a3505050565b600061309084846124c0565b90507fffffffffffffffffffffffffffffffffffffffffffffffffffffffffffffffff811461310a57818110156130fc576040517f08c379a00000000000000000000000000000000000000000000000000000000081526004016130f39061527c565b60405180910390fd5b6131098484848403612ebb565b5b50505050565b600073ffffffffffffffffffffffffffffffffffffffff168373ffffffffffffffffffffffffffffffffffffffff160361317f576040517f08c379a00000000000000000000000000000000000000000000000000000000081526004016131769061530e565b60405180910390fd5b600073ffffffffffffffffffffffffffffffffffffffff168273ffffffffffffffffffffffffffffffffffffffff16036131ee576040517f08c379a00000000000000000000000000000000000000000000000000000000081526004016131e5906153a0565b60405180910390fd5b6131f98383836136a1565b60008060008573ffffffffffffffffffffffffffffffffffffffff1673ffffffffffffffffffffffffffffffffffffffff1681526020019081526020016000205490508181101561327f576040517f08c379a000000000000000000000000000000000000000000000000000000000815260040161327690615432565b60405180910390fd5b8181036000808673ffffffffffffffffffffffffffffffffffffffff1673ffffffffffffffffffffffffffffffffffffffff16815260200190815260200160002081905550816000808573ffffffffffffffffffffffffffffffffffffffff1673ffffffffffffffffffffffffffffffffffffffff168152602001908152602001600020600082825401925050819055508273ffffffffffffffffffffffffffffffffffffffff168473ffffffffffffffffffffffffffffffffffffffff167fddf252ad1be2c89b69c2b068fc378daa952ba7f163c4a11628f55a4df523b3ef8460405161336d9190613a9e565b60405180910390a36133808484846136a6565b50505050565b606060005b600e60003373ffffffffffffffffffffffffffffffffffffffff1673ffffffffffffffffffffffffffffffffffffffff1681526020019081526020016000208054905081101561354457600e60003373ffffffffffffffffffffffffffffffffffffffff1673ffffffffffffffffffffffffffffffffffffffff1681526020019081526020016000208181548110613426576134256145f1565b5b906000526020600020906002020160000154830361353157600e60003373ffffffffffffffffffffffffffffffffffffffff1673ffffffffffffffffffffffffffffffffffffffff168152602001908152602001600020818154811061348f5761348e6145f1565b5b906000526020600020906002020160010180546134ab9061455d565b80601f01602080910402602001604051908101604052809291908181526020018280546134d79061455d565b80156135245780601f106134f957610100808354040283529160200191613524565b820191906000526020600020905b81548152906001019060200180831161350757829003601f168201915b5050505050915050613546565b808061353c90614620565b91505061338b565b505b919050565b600073ffffffffffffffffffffffffffffffffffffffff168273ffffffffffffffffffffffffffffffffffffffff16036135ba576040517f08c379a00000000000000000000000000000000000000000000000000000000081526004016135b19061549e565b60405180910390fd5b6135c6600083836136a1565b80600260008282546135d891906145bd565b92505081905550806000808473ffffffffffffffffffffffffffffffffffffffff1673ffffffffffffffffffffffffffffffffffffffff168152602001908152602001600020600082825401925050819055508173ffffffffffffffffffffffffffffffffffffffff16600073ffffffffffffffffffffffffffffffffffffffff167fddf252ad1be2c89b69c2b068fc378daa952ba7f163c4a11628f55a4df523b3ef836040516136899190613a9e565b60405180910390a361369d600083836136a6565b5050565b505050565b505050565b6040518060c0016040528060008152602001600081526020016060815260200160008152602001600015158152602001606081525090565b600081519050919050565b600082825260208201905092915050565b60005b8381101561371d578082015181840152602081019050613702565b60008484015250505050565b6000601f19601f8301169050919050565b6000613745826136e3565b61374f81856136ee565b935061375f8185602086016136ff565b61376881613729565b840191505092915050565b6000602082019050818103600083015261378d818461373a565b905092915050565b6000604051905090565b600080fd5b600080fd5b600073ffffffffffffffffffffffffffffffffffffffff82169050919050565b60006137d4826137a9565b9050919050565b6137e4816137c9565b81146137ef57600080fd5b50565b600081359050613801816137db565b92915050565b6000819050919050565b61381a81613807565b811461382557600080fd5b50565b60008135905061383781613811565b92915050565b600080604083850312156138545761385361379f565b5b6000613862858286016137f2565b925050602061387385828601613828565b9150509250929050565b60008115159050919050565b6138928161387d565b82525050565b60006020820190506138ad6000830184613889565b92915050565b600081519050919050565b600082825260208201905092915050565b6000819050602082019050919050565b6138e881613807565b82525050565b600082825260208201905092915050565b600061390a826136e3565b61391481856138ee565b93506139248185602086016136ff565b61392d81613729565b840191505092915050565b6139418161387d565b82525050565b600060c08301600083015161395f60008601826138df565b50602083015161397260208601826138df565b506040830151848203604086015261398a82826138ff565b915050606083015161399f60608601826138df565b5060808301516139b26080860182613938565b5060a083015184820360a08601526139ca82826138ff565b9150508091505092915050565b60006139e38383613947565b905092915050565b6000602082019050919050565b6000613a03826138b3565b613a0d81856138be565b935083602082028501613a1f856138cf565b8060005b85811015613a5b5784840389528151613a3c85826139d7565b9450613a47836139eb565b925060208a01995050600181019050613a23565b50829750879550505050505092915050565b60006020820190508181036000830152613a8781846139f8565b905092915050565b613a9881613807565b82525050565b6000602082019050613ab36000830184613a8f565b92915050565b600080600060608486031215613ad257613ad161379f565b5b6000613ae0868287016137f2565b9350506020613af1868287016137f2565b9250506040613b0286828701613828565b9150509250925092565b600060208284031215613b2257613b2161379f565b5b6000613b3084828501613828565b91505092915050565b600060ff82169050919050565b613b4f81613b39565b82525050565b6000602082019050613b6a6000830184613b46565b92915050565b600060c082019050613b856000830189613a8f565b613b926020830188613a8f565b8181036040830152613ba4818761373a565b9050613bb36060830186613a8f565b613bc06080830185613889565b81810360a0830152613bd2818461373a565b9050979650505050505050565b6000604082019050613bf46000830185613a8f565b8181036020830152613c06818461373a565b90509392505050565b600060208284031215613c2557613c2461379f565b5b6000613c33848285016137f2565b91505092915050565b613c45816137c9565b82525050565b60006080820190508181036000830152613c65818761373a565b9050613c746020830186613a8f565b613c816040830185613889565b613c8e6060830184613c3c565b95945050505050565b600080600060608486031215613cb057613caf61379f565b5b6000613cbe86828701613828565b9350506020613ccf86828701613828565b9250506040613ce086828701613828565b9150509250925092565b600080fd5b600080fd5b7f4e487b7100000000000000000000000000000000000000000000000000000000600052604160045260246000fd5b613d2c82613729565b810181811067ffffffffffffffff82111715613d4b57613d4a613cf4565b5b80604052505050565b6000613d5e613795565b9050613d6a8282613d23565b919050565b600067ffffffffffffffff821115613d8a57613d89613cf4565b5b613d9382613729565b9050602081019050919050565b82818337600083830152505050565b6000613dc2613dbd84613d6f565b613d54565b905082815260208101848484011115613dde57613ddd613cef565b5b613de9848285613da0565b509392505050565b600082601f830112613e0657613e05613cea565b5b8135613e16848260208601613daf565b91505092915050565b60008060408385031215613e3657613e3561379f565b5b6000613e4485828601613828565b925050602083013567ffffffffffffffff811115613e6557613e646137a4565b5b613e7185828601613df1565b9150509250929050565b600081519050919050565b600082825260208201905092915050565b6000819050602082019050919050565b6000613eb383836138df565b60208301905092915050565b6000602082019050919050565b6000613ed782613e7b565b613ee18185613e86565b9350613eec83613e97565b8060005b83811015613f1d578151613f048882613ea7565b9750613f0f83613ebf565b925050600181019050613ef0565b5085935050505092915050565b60006020820190508181036000830152613f448184613ecc565b905092915050565b6000819050919050565b613f5f81613f4c565b8114613f6a57600080fd5b50565b600081359050613f7c81613f56565b92915050565b600067ffffffffffffffff821115613f9d57613f9c613cf4565b5b613fa682613729565b9050602081019050919050565b6000613fc6613fc184613f82565b613d54565b905082815260208101848484011115613fe257613fe1613cef565b5b613fed848285613da0565b509392505050565b600082601f83011261400a57614009613cea565b5b813561401a848260208601613fb3565b91505092915050565b6000806040838503121561403a5761403961379f565b5b600061404885828601613f6d565b925050602083013567ffffffffffffffff811115614069576140686137a4565b5b61407585828601613ff5565b9150509250929050565b60006020820190506140946000830184613c3c565b92915050565b600080600080608085870312156140b4576140b361379f565b5b60006140c2878288016137f2565b94505060206140d387828801613828565b935050604085013567ffffffffffffffff8111156140f4576140f36137a4565b5b61410087828801613df1565b925050606061411187828801613828565b91505092959194509250565b61412681613f4c565b82525050565b6000602082019050614141600083018461411d565b92915050565b60006020828403121561415d5761415c61379f565b5b600082013567ffffffffffffffff81111561417b5761417a6137a4565b5b61418784828501613ff5565b91505092915050565b60006060820190506141a5600083018661411d565b6141b2602083018561411d565b6141bf6040830184613b46565b949350505050565b60008060008060008060c087890312156141e4576141e361379f565b5b60006141f289828a016137f2565b965050602061420389828a016137f2565b955050604061421489828a01613828565b945050606087013567ffffffffffffffff811115614235576142346137a4565b5b61424189828a01613df1565b935050608061425289828a01613828565b92505060a087013567ffffffffffffffff811115614273576142726137a4565b5b61427f89828a01613ff5565b9150509295509295509295565b600080600080600060a086880312156142a8576142a761379f565b5b60006142b688828901613828565b95505060206142c788828901613828565b945050604086013567ffffffffffffffff8111156142e8576142e76137a4565b5b6142f488828901613df1565b935050606061430588828901613828565b925050608086013567ffffffffffffffff811115614326576143256137a4565b5b61433288828901613df1565b9150509295509295909350565b61434881613b39565b811461435357600080fd5b50565b6000813590506143658161433f565b92915050565b600080600080608085870312156143855761438461379f565b5b600061439387828801613f6d565b94505060206143a487828801614356565b93505060406143b587828801613f6d565b92505060606143c687828801613f6d565b91505092959194509250565b600080604083850312156143e9576143e861379f565b5b60006143f7858286016137f2565b9250506020614408858286016137f2565b9150509250929050565b600080604083850312156144295761442861379f565b5b600083013567ffffffffffffffff811115614447576144466137a4565b5b61445385828601613df1565b925050602061446485828601613828565b9150509250929050565b600080604083850312156144855761448461379f565b5b600061449385828601613828565b92505060206144a485828601613828565b9150509250929050565b6000806000606084860312156144c7576144c661379f565b5b60006144d5868287016137f2565b93505060206144e686828701613828565b92505060406144f786828701613828565b9150509250925092565b6000602082840312156145175761451661379f565b5b600061452584828501613f6d565b91505092915050565b7f4e487b7100000000000000000000000000000000000000000000000000000000600052602260045260246000fd5b6000600282049050600182168061457557607f821691505b6020821081036145885761458761452e565b5b50919050565b7f4e487b7100000000000000000000000000000000000000000000000000000000600052601160045260246000fd5b60006145c882613807565b91506145d383613807565b92508282019050808211156145eb576145ea61458e565b5b92915050565b7f4e487b7100000000000000000000000000000000000000000000000000000000600052603260045260246000fd5b600061462b82613807565b91507fffffffffffffffffffffffffffffffffffffffffffffffffffffffffffffffff820361465d5761465c61458e565b5b600182019050919050565b7f4f6e6c792061646d696e2063616e2063616c6c20746869732066756e6374696f60008201527f6e00000000000000000000000000000000000000000000000000000000000000602082015250565b60006146c46021836136ee565b91506146cf82614668565b604082019050919050565b600060208201905081810360008301526146f3816146b7565b9050919050565b7f496e76616c696420726f6c652c206f6e6c792061646d696e206f72207365727660008201527f696365207375697461626c652e00000000000000000000000000000000000000602082015250565b6000614756602d836136ee565b9150614761826146fa565b604082019050919050565b6000602082019050818103600083015261478581614749565b9050919050565b60008190508160005260206000209050919050565b60006020601f8301049050919050565b600082821b905092915050565b6000600883026147ee7fffffffffffffffffffffffffffffffffffffffffffffffffffffffffffffffff826147b1565b6147f886836147b1565b95508019841693508086168417925050509392505050565b6000819050919050565b600061483561483061482b84613807565b614810565b613807565b9050919050565b6000819050919050565b61484f8361481a565b61486361485b8261483c565b8484546147be565b825550505050565b600090565b61487861486b565b614883818484614846565b505050565b5b818110156148a75761489c600082614870565b600181019050614889565b5050565b601f8211156148ec576148bd8161478c565b6148c6846147a1565b810160208510156148d5578190505b6148e96148e1856147a1565b830182614888565b50505b505050565b600082821c905092915050565b600061490f600019846008026148f1565b1980831691505092915050565b600061492883836148fe565b9150826002028217905092915050565b614941826136e3565b67ffffffffffffffff81111561495a57614959613cf4565b5b614964825461455d565b61496f8282856148ab565b600060209050601f8311600181146149a25760008415614990578287015190505b61499a858261491c565b865550614a02565b601f1984166149b08661478c565b60005b828110156149d8578489015182556001820191506020850194506020810190506149b3565b868310156149f557848901516149f1601f8916826148fe565b8355505b6001600288020188555050505b505050505050565b7f546869732044657374696e6174696f6e20776173206e6f7420636865636b696e600082015250565b6000614a406020836136ee565b9150614a4b82614a0a565b602082019050919050565b60006020820190508181036000830152614a6f81614a33565b9050919050565b600060c083016000830151614a8e60008601826138df565b506020830151614aa160208601826138df565b5060408301518482036040860152614ab982826138ff565b9150506060830151614ace60608601826138df565b506080830151614ae16080860182613938565b5060a083015184820360a0860152614af982826138ff565b9150508091505092915050565b60006040820190508181036000830152614b20818561373a565b90508181036020830152614b348184614a76565b90509392505050565b6000608082019050614b52600083018761411d565b614b5f6020830186613b46565b614b6c604083018561411d565b614b79606083018461411d565b95945050505050565b60008160601b9050919050565b6000614b9a82614b82565b9050919050565b6000614bac82614b8f565b9050919050565b614bc4614bbf826137c9565b614ba1565b82525050565b6000819050919050565b614be5614be082613807565b614bca565b82525050565b600081905092915050565b6000614c01826136e3565b614c0b8185614beb565b9350614c1b8185602086016136ff565b80840191505092915050565b6000614c338287614bb3565b601482019150614c438286614bd4565b602082019150614c538285614bf6565b9150614c5f8284614bd4565b60208201915081905095945050505050565b7f45524332303a2064656372656173656420616c6c6f77616e63652062656c6f7760008201527f207a65726f000000000000000000000000000000000000000000000000000000602082015250565b6000614ccd6025836136ee565b9150614cd882614c71565b604082019050919050565b60006020820190508181036000830152614cfc81614cc0565b9050919050565b7f696e76616c6964207369676e6174757265206c656e6774680000000000000000600082015250565b6000614d396018836136ee565b9150614d4482614d03565b602082019050919050565b60006020820190508181036000830152614d6881614d2c565b9050919050565b7f596f7520686164206265656e2072657669657765642074686973207472697000600082015250565b6000614da5601f836136ee565b9150614db082614d6f565b602082019050919050565b60006020820190508181036000830152614dd481614d98565b9050919050565b600081549050614dea8161455d565b9050919050565b818103614dff575050614ed7565b614e0882614ddb565b67ffffffffffffffff811115614e2157614e20613cf4565b5b614e2b825461455d565b614e368282856148ab565b6000601f831160018114614e655760008415614e53578287015490505b614e5d858261491c565b865550614ed0565b601f198416614e738761478c565b9650614e7e8661478c565b60005b82811015614ea657848901548255600182019150600185019450602081019050614e81565b86831015614ec35784890154614ebf601f8916826148fe565b8355505b6001600288020188555050505b5050505050505b565b7f5468697320494420616c72656164792065786973746564000000000000000000600082015250565b6000614f0f6017836136ee565b9150614f1a82614ed9565b602082019050919050565b60006020820190508181036000830152614f3e81614f02565b9050919050565b600081519050919050565b600081905092915050565b6000614f6682614f45565b614f708185614f50565b9350614f808185602086016136ff565b80840191505092915050565b6000819050919050565b614fa7614fa282613f4c565b614f8c565b82525050565b6000614fb98285614f5b565b9150614fc58284614f96565b6020820191508190509392505050565b60006040820190508181036000830152614fef818561373a565b9050614ffe6020830184613a8f565b9392505050565b7f5469636b65742068617320757365640000000000000000000000000000000000600082015250565b600061503b600f836136ee565b915061504682615005565b602082019050919050565b6000602082019050818103600083015261506a8161502e565b9050919050565b60006040820190506150866000830185613a8f565b6150936020830184613a8f565b9392505050565b7f19457468657265756d205369676e6564204d6573736167653a0a333200000000600082015250565b60006150d0601c83614beb565b91506150db8261509a565b601c82019050919050565b60006150f1826150c3565b91506150fd8284614f96565b60208201915081905092915050565b7f45524332303a20617070726f76652066726f6d20746865207a65726f2061646460008201527f7265737300000000000000000000000000000000000000000000000000000000602082015250565b60006151686024836136ee565b91506151738261510c565b604082019050919050565b600060208201905081810360008301526151978161515b565b9050919050565b7f45524332303a20617070726f766520746f20746865207a65726f20616464726560008201527f7373000000000000000000000000000000000000000000000000000000000000602082015250565b60006151fa6022836136ee565b91506152058261519e565b604082019050919050565b60006020820190508181036000830152615229816151ed565b9050919050565b7f45524332303a20696e73756666696369656e7420616c6c6f77616e6365000000600082015250565b6000615266601d836136ee565b915061527182615230565b602082019050919050565b6000602082019050818103600083015261529581615259565b9050919050565b7f45524332303a207472616e736665722066726f6d20746865207a65726f20616460008201527f6472657373000000000000000000000000000000000000000000000000000000602082015250565b60006152f86025836136ee565b91506153038261529c565b604082019050919050565b60006020820190508181036000830152615327816152eb565b9050919050565b7f45524332303a207472616e7366657220746f20746865207a65726f206164647260008201527f6573730000000000000000000000000000000000000000000000000000000000602082015250565b600061538a6023836136ee565b91506153958261532e565b604082019050919050565b600060208201905081810360008301526153b98161537d565b9050919050565b7f45524332303a207472616e7366657220616d6f756e742065786365656473206260008201527f616c616e63650000000000000000000000000000000000000000000000000000602082015250565b600061541c6026836136ee565b9150615427826153c0565b604082019050919050565b6000602082019050818103600083015261544b8161540f565b9050919050565b7f45524332303a206d696e7420746f20746865207a65726f206164647265737300600082015250565b6000615488601f836136ee565b915061549382615452565b602082019050919050565b600060208201905081810360008301526154b78161547b565b905091905056fea26469706673582212206daadb004c5170557cbf083d737bd6ae1a1f5b2ee7bc1930351bb26ad0bc283764736f6c63430008130033",
  "linkReferences": {},
  "deployedLinkReferences": {}
}