{
  "_format": "hh-sol-artifact-1",
  "contractName": "TouristConTract",
  "sourceName": "contracts/Tourism.sol",
  "abi": [
    {
      "inputs": [],
      "stateMutability": "nonpayable",
      "type": "constructor"
    },
    {
      "anonymous": false,
      "inputs": [
        {
          "indexed": true,
          "internalType": "address",
          "name": "owner",
          "type": "address"
        },
        {
          "indexed": true,
          "internalType": "address",
          "name": "spender",
          "type": "address"
        },
        {
          "indexed": false,
          "internalType": "uint256",
          "name": "value",
          "type": "uint256"
        }
      ],
      "name": "Approval",
      "type": "event"
    },
    {
      "anonymous": false,
      "inputs": [
        {
          "indexed": false,
          "internalType": "uint256",
          "name": "ticketId",
          "type": "uint256"
        },
        {
          "indexed": false,
          "internalType": "uint256",
          "name": "placeId",
          "type": "uint256"
        }
      ],
      "name": "CheckIn",
      "type": "event"
    },
    {
      "anonymous": false,
      "inputs": [
        {
          "indexed": false,
          "internalType": "uint256",
          "name": "_id",
          "type": "uint256"
        },
        {
          "indexed": false,
          "internalType": "string",
          "name": "_name",
          "type": "string"
        }
      ],
      "name": "CreateAlbum",
      "type": "event"
    },
    {
      "anonymous": false,
      "inputs": [
        {
          "indexed": false,
          "internalType": "string",
          "name": "voucherID",
          "type": "string"
        },
        {
          "indexed": false,
          "internalType": "uint256",
          "name": "amount",
          "type": "uint256"
        }
      ],
      "name": "ExchangeVoucher",
      "type": "event"
    },
    {
      "anonymous": false,
      "inputs": [
        {
          "indexed": false,
          "internalType": "uint256",
          "name": "placeId",
          "type": "uint256"
        },
        {
          "indexed": false,
          "internalType": "uint256",
          "name": "idTrip",
          "type": "uint256"
        },
        {
          "indexed": false,
          "internalType": "string",
          "name": "comment",
          "type": "string"
        },
        {
          "indexed": false,
          "internalType": "uint256",
          "name": "rate",
          "type": "uint256"
        },
        {
          "indexed": false,
          "internalType": "string",
          "name": "title",
          "type": "string"
        }
      ],
      "name": "Review",
      "type": "event"
    },
    {
      "anonymous": false,
      "inputs": [
        {
          "indexed": true,
          "internalType": "address",
          "name": "from",
          "type": "address"
        },
        {
          "indexed": true,
          "internalType": "address",
          "name": "to",
          "type": "address"
        },
        {
          "indexed": false,
          "internalType": "uint256",
          "name": "value",
          "type": "uint256"
        }
      ],
      "name": "Transfer",
      "type": "event"
    },
    {
      "inputs": [
        {
          "internalType": "address",
          "name": "_signer",
          "type": "address"
        },
        {
          "internalType": "address",
          "name": "_to",
          "type": "address"
        },
        {
          "internalType": "uint256",
          "name": "_amount",
          "type": "uint256"
        },
        {
          "internalType": "string",
          "name": "_message",
          "type": "string"
        },
        {
          "internalType": "uint256",
          "name": "_nonce",
          "type": "uint256"
        },
        {
          "internalType": "bytes",
          "name": "signature",
          "type": "bytes"
        }
      ],
      "name": "_exchangeReward",
      "outputs": [],
      "stateMutability": "nonpayable",
      "type": "function"
    },
    {
      "inputs": [
        {
          "internalType": "address",
          "name": "_signer",
          "type": "address"
        },
        {
          "internalType": "address",
          "name": "_to",
          "type": "address"
        },
        {
          "internalType": "uint256",
          "name": "_amount",
          "type": "uint256"
        },
        {
          "internalType": "string",
          "name": "_message",
          "type": "string"
        },
        {
          "internalType": "uint256",
          "name": "_nonce",
          "type": "uint256"
        },
        {
          "internalType": "bytes",
          "name": "signature",
          "type": "bytes"
        }
      ],
      "name": "_mintMinerReward",
      "outputs": [],
      "stateMutability": "nonpayable",
      "type": "function"
    },
    {
      "inputs": [
        {
          "internalType": "uint256",
          "name": "id",
          "type": "uint256"
        }
      ],
      "name": "addTicket",
      "outputs": [],
      "stateMutability": "nonpayable",
      "type": "function"
    },
    {
      "inputs": [
        {
          "internalType": "address",
          "name": "",
          "type": "address"
        },
        {
          "internalType": "uint256",
          "name": "",
          "type": "uint256"
        },
        {
          "internalType": "uint256",
          "name": "",
          "type": "uint256"
        }
      ],
      "name": "albumJourneys",
      "outputs": [
        {
          "internalType": "uint256",
          "name": "tripId",
          "type": "uint256"
        },
        {
          "internalType": "uint256",
          "name": "placeId",
          "type": "uint256"
        },
        {
          "internalType": "uint256",
          "name": "arrivalDate",
          "type": "uint256"
        },
        {
          "internalType": "string",
          "name": "review",
          "type": "string"
        },
        {
          "internalType": "uint256",
          "name": "rate",
          "type": "uint256"
        },
        {
          "internalType": "bool",
          "name": "isReview",
          "type": "bool"
        },
        {
          "internalType": "string",
          "name": "title",
          "type": "string"
        }
      ],
      "stateMutability": "view",
      "type": "function"
    },
    {
      "inputs": [
        {
          "internalType": "address",
          "name": "owner",
          "type": "address"
        },
        {
          "internalType": "address",
          "name": "spender",
          "type": "address"
        }
      ],
      "name": "allowance",
      "outputs": [
        {
          "internalType": "uint256",
          "name": "",
          "type": "uint256"
        }
      ],
      "stateMutability": "view",
      "type": "function"
    },
    {
      "inputs": [
        {
          "internalType": "address",
          "name": "spender",
          "type": "address"
        },
        {
          "internalType": "uint256",
          "name": "amount",
          "type": "uint256"
        }
      ],
      "name": "approve",
      "outputs": [
        {
          "internalType": "bool",
          "name": "",
          "type": "bool"
        }
      ],
      "stateMutability": "nonpayable",
      "type": "function"
    },
    {
      "inputs": [
        {
          "internalType": "address",
          "name": "account",
          "type": "address"
        }
      ],
      "name": "balanceOf",
      "outputs": [
        {
          "internalType": "uint256",
          "name": "",
          "type": "uint256"
        }
      ],
      "stateMutability": "view",
      "type": "function"
    },
    {
      "inputs": [
        {
          "internalType": "uint256",
          "name": "ticketID",
          "type": "uint256"
        },
        {
          "internalType": "uint256",
          "name": "placeID",
          "type": "uint256"
        }
      ],
      "name": "checkIn",
      "outputs": [],
      "stateMutability": "nonpayable",
      "type": "function"
    },
    {
      "inputs": [
        {
          "internalType": "uint256",
          "name": "ticketID",
          "type": "uint256"
        }
      ],
      "name": "checkValidTicket",
      "outputs": [
        {
          "internalType": "bool",
          "name": "",
          "type": "bool"
        }
      ],
      "stateMutability": "view",
      "type": "function"
    },
    {
      "inputs": [
        {
          "internalType": "uint256",
          "name": "_id",
          "type": "uint256"
        },
        {
          "internalType": "string",
          "name": "_name",
          "type": "string"
        }
      ],
      "name": "createAlbum",
      "outputs": [],
      "stateMutability": "nonpayable",
      "type": "function"
    },
    {
      "inputs": [],
      "name": "decimals",
      "outputs": [
        {
          "internalType": "uint8",
          "name": "",
          "type": "uint8"
        }
      ],
      "stateMutability": "view",
      "type": "function"
    },
    {
      "inputs": [
        {
          "internalType": "address",
          "name": "spender",
          "type": "address"
        },
        {
          "internalType": "uint256",
          "name": "subtractedValue",
          "type": "uint256"
        }
      ],
      "name": "decreaseAllowance",
      "outputs": [
        {
          "internalType": "bool",
          "name": "",
          "type": "bool"
        }
      ],
      "stateMutability": "nonpayable",
      "type": "function"
    },
    {
      "inputs": [
        {
          "internalType": "uint256",
          "name": "",
          "type": "uint256"
        },
        {
          "internalType": "uint256",
          "name": "",
          "type": "uint256"
        }
      ],
      "name": "destinationRates",
      "outputs": [
        {
          "internalType": "uint256",
          "name": "",
          "type": "uint256"
        }
      ],
      "stateMutability": "view",
      "type": "function"
    },
    {
      "inputs": [
        {
          "internalType": "string",
          "name": "voucherID",
          "type": "string"
        },
        {
          "internalType": "address",
          "name": "_signer",
          "type": "address"
        },
        {
          "internalType": "address",
          "name": "_to",
          "type": "address"
        },
        {
          "internalType": "uint256",
          "name": "_amount",
          "type": "uint256"
        },
        {
          "internalType": "string",
          "name": "_message",
          "type": "string"
        },
        {
          "internalType": "uint256",
          "name": "_nonce",
          "type": "uint256"
        },
        {
          "internalType": "bytes",
          "name": "signature",
          "type": "bytes"
        }
      ],
      "name": "exchangeVoucher",
      "outputs": [],
      "stateMutability": "nonpayable",
      "type": "function"
    },
    {
      "inputs": [],
      "name": "getAllJourney",
      "outputs": [
        {
          "components": [
            {
              "internalType": "uint256",
              "name": "tripId",
              "type": "uint256"
            },
            {
              "internalType": "uint256",
              "name": "placeId",
              "type": "uint256"
            },
            {
              "internalType": "uint256",
              "name": "arrivalDate",
              "type": "uint256"
            },
            {
              "internalType": "string",
              "name": "review",
              "type": "string"
            },
            {
              "internalType": "uint256",
              "name": "rate",
              "type": "uint256"
            },
            {
              "internalType": "bool",
              "name": "isReview",
              "type": "bool"
            },
            {
              "internalType": "string",
              "name": "title",
              "type": "string"
            }
          ],
          "internalType": "struct TouristConTract.Journey[]",
          "name": "",
          "type": "tuple[]"
        }
      ],
      "stateMutability": "view",
      "type": "function"
    },
    {
      "inputs": [
        {
          "internalType": "uint256",
          "name": "placeid",
          "type": "uint256"
        }
      ],
      "name": "getAllRates",
      "outputs": [
        {
          "internalType": "uint256[]",
          "name": "",
          "type": "uint256[]"
        }
      ],
      "stateMutability": "view",
      "type": "function"
    },
    {
      "inputs": [
        {
          "internalType": "address",
          "name": "add",
          "type": "address"
        }
      ],
      "name": "getBalance",
      "outputs": [
        {
          "internalType": "uint256",
          "name": "",
          "type": "uint256"
        }
      ],
      "stateMutability": "view",
      "type": "function"
    },
    {
      "inputs": [
        {
          "internalType": "bytes32",
          "name": "_messageHash",
          "type": "bytes32"
        }
      ],
      "name": "getEthSignedMessageHash",
      "outputs": [
        {
          "internalType": "bytes32",
          "name": "",
          "type": "bytes32"
        }
      ],
      "stateMutability": "pure",
      "type": "function"
    },
    {
      "inputs": [
        {
          "internalType": "uint256[]",
          "name": "idTrip",
          "type": "uint256[]"
        }
      ],
      "name": "getJourneyWithID",
      "outputs": [
        {
          "components": [
            {
              "internalType": "uint256",
              "name": "tripId",
              "type": "uint256"
            },
            {
              "internalType": "uint256",
              "name": "placeId",
              "type": "uint256"
            },
            {
              "internalType": "uint256",
              "name": "arrivalDate",
              "type": "uint256"
            },
            {
              "internalType": "string",
              "name": "review",
              "type": "string"
            },
            {
              "internalType": "uint256",
              "name": "rate",
              "type": "uint256"
            },
            {
              "internalType": "bool",
              "name": "isReview",
              "type": "bool"
            },
            {
              "internalType": "string",
              "name": "title",
              "type": "string"
            }
          ],
          "internalType": "struct TouristConTract.Journey[]",
          "name": "",
          "type": "tuple[]"
        }
      ],
      "stateMutability": "view",
      "type": "function"
    },
    {
      "inputs": [
        {
          "internalType": "address",
          "name": "_to",
          "type": "address"
        },
        {
          "internalType": "uint256",
          "name": "_amount",
          "type": "uint256"
        },
        {
          "internalType": "string",
          "name": "_message",
          "type": "string"
        },
        {
          "internalType": "uint256",
          "name": "_nonce",
          "type": "uint256"
        }
      ],
      "name": "getMessageHash",
      "outputs": [
        {
          "internalType": "bytes32",
          "name": "",
          "type": "bytes32"
        }
      ],
      "stateMutability": "pure",
      "type": "function"
    },
    {
      "inputs": [
        {
          "internalType": "uint256",
          "name": "placeid",
          "type": "uint256"
        }
      ],
      "name": "getReviewsInPlace",
      "outputs": [
        {
          "components": [
            {
              "internalType": "uint256",
              "name": "tripId",
              "type": "uint256"
            },
            {
              "internalType": "uint256",
              "name": "placeId",
              "type": "uint256"
            },
            {
              "internalType": "uint256",
              "name": "arrivalDate",
              "type": "uint256"
            },
            {
              "internalType": "string",
              "name": "review",
              "type": "string"
            },
            {
              "internalType": "uint256",
              "name": "rate",
              "type": "uint256"
            },
            {
              "internalType": "bool",
              "name": "isReview",
              "type": "bool"
            },
            {
              "internalType": "string",
              "name": "title",
              "type": "string"
            }
          ],
          "internalType": "struct TouristConTract.Journey[]",
          "name": "",
          "type": "tuple[]"
        }
      ],
      "stateMutability": "view",
      "type": "function"
    },
    {
      "inputs": [
        {
          "internalType": "address",
          "name": "userAddress",
          "type": "address"
        },
        {
          "internalType": "uint256",
          "name": "role",
          "type": "uint256"
        }
      ],
      "name": "grantRole",
      "outputs": [],
      "stateMutability": "nonpayable",
      "type": "function"
    },
    {
      "inputs": [
        {
          "internalType": "address",
          "name": "spender",
          "type": "address"
        },
        {
          "internalType": "uint256",
          "name": "addedValue",
          "type": "uint256"
        }
      ],
      "name": "increaseAllowance",
      "outputs": [
        {
          "internalType": "bool",
          "name": "",
          "type": "bool"
        }
      ],
      "stateMutability": "nonpayable",
      "type": "function"
    },
    {
      "inputs": [],
      "name": "name",
      "outputs": [
        {
          "internalType": "string",
          "name": "",
          "type": "string"
        }
      ],
      "stateMutability": "view",
      "type": "function"
    },
    {
      "inputs": [
        {
          "internalType": "uint256",
          "name": "",
          "type": "uint256"
        }
      ],
      "name": "noPeopleCheckIn",
      "outputs": [
        {
          "internalType": "uint256",
          "name": "",
          "type": "uint256"
        }
      ],
      "stateMutability": "view",
      "type": "function"
    },
    {
      "inputs": [
        {
          "internalType": "uint256",
          "name": "",
          "type": "uint256"
        }
      ],
      "name": "noPeopleRate",
      "outputs": [
        {
          "internalType": "uint256",
          "name": "",
          "type": "uint256"
        }
      ],
      "stateMutability": "view",
      "type": "function"
    },
    {
      "inputs": [
        {
          "internalType": "bytes32",
          "name": "_ethSignedMessageHash",
          "type": "bytes32"
        },
        {
          "internalType": "bytes",
          "name": "_signature",
          "type": "bytes"
        }
      ],
      "name": "recoverSigner",
      "outputs": [
        {
          "internalType": "address",
          "name": "",
          "type": "address"
        }
      ],
      "stateMutability": "pure",
      "type": "function"
    },
    {
      "inputs": [
        {
          "internalType": "uint256",
          "name": "placeId",
          "type": "uint256"
        },
        {
          "internalType": "uint256",
          "name": "idTrip",
          "type": "uint256"
        },
        {
          "internalType": "string",
          "name": "comment",
          "type": "string"
        },
        {
          "internalType": "uint256",
          "name": "rate",
          "type": "uint256"
        },
        {
          "internalType": "string",
          "name": "title",
          "type": "string"
        }
      ],
      "name": "review",
      "outputs": [],
      "stateMutability": "nonpayable",
      "type": "function"
    },
    {
      "inputs": [
        {
          "internalType": "bytes",
          "name": "sig",
          "type": "bytes"
        }
      ],
      "name": "splitSignature",
      "outputs": [
        {
          "internalType": "bytes32",
          "name": "r",
          "type": "bytes32"
        },
        {
          "internalType": "bytes32",
          "name": "s",
          "type": "bytes32"
        },
        {
          "internalType": "uint8",
          "name": "v",
          "type": "uint8"
        }
      ],
      "stateMutability": "pure",
      "type": "function"
    },
    {
      "inputs": [],
      "name": "symbol",
      "outputs": [
        {
          "internalType": "string",
          "name": "",
          "type": "string"
        }
      ],
      "stateMutability": "view",
      "type": "function"
    },
    {
      "inputs": [],
      "name": "totalSupply",
      "outputs": [
        {
          "internalType": "uint256",
          "name": "",
          "type": "uint256"
        }
      ],
      "stateMutability": "view",
      "type": "function"
    },
    {
      "inputs": [
        {
          "internalType": "address",
          "name": "",
          "type": "address"
        },
        {
          "internalType": "uint256",
          "name": "",
          "type": "uint256"
        }
      ],
      "name": "touristAlbums",
      "outputs": [
        {
          "internalType": "uint256",
          "name": "id",
          "type": "uint256"
        },
        {
          "internalType": "string",
          "name": "name",
          "type": "string"
        }
      ],
      "stateMutability": "view",
      "type": "function"
    },
    {
      "inputs": [
        {
          "internalType": "address",
          "name": "",
          "type": "address"
        }
      ],
      "name": "touristIdentify",
      "outputs": [
        {
          "internalType": "string",
          "name": "name",
          "type": "string"
        },
        {
          "internalType": "uint256",
          "name": "age",
          "type": "uint256"
        },
        {
          "internalType": "bool",
          "name": "signup",
          "type": "bool"
        },
        {
          "internalType": "address",
          "name": "touristAddress",
          "type": "address"
        }
      ],
      "stateMutability": "view",
      "type": "function"
    },
    {
      "inputs": [
        {
          "internalType": "address",
          "name": "",
          "type": "address"
        },
        {
          "internalType": "uint256",
          "name": "",
          "type": "uint256"
        }
      ],
      "name": "touristJourneys",
      "outputs": [
        {
          "internalType": "uint256",
          "name": "tripId",
          "type": "uint256"
        },
        {
          "internalType": "uint256",
          "name": "placeId",
          "type": "uint256"
        },
        {
          "internalType": "uint256",
          "name": "arrivalDate",
          "type": "uint256"
        },
        {
          "internalType": "string",
          "name": "review",
          "type": "string"
        },
        {
          "internalType": "uint256",
          "name": "rate",
          "type": "uint256"
        },
        {
          "internalType": "bool",
          "name": "isReview",
          "type": "bool"
        },
        {
          "internalType": "string",
          "name": "title",
          "type": "string"
        }
      ],
      "stateMutability": "view",
      "type": "function"
    },
    {
      "inputs": [
        {
          "internalType": "address",
          "name": "to",
          "type": "address"
        },
        {
          "internalType": "uint256",
          "name": "amount",
          "type": "uint256"
        }
      ],
      "name": "transfer",
      "outputs": [
        {
          "internalType": "bool",
          "name": "",
          "type": "bool"
        }
      ],
      "stateMutability": "nonpayable",
      "type": "function"
    },
    {
      "inputs": [
        {
          "internalType": "address",
          "name": "from",
          "type": "address"
        },
        {
          "internalType": "address",
          "name": "to",
          "type": "address"
        },
        {
          "internalType": "uint256",
          "name": "amount",
          "type": "uint256"
        }
      ],
      "name": "transferFrom",
      "outputs": [
        {
          "internalType": "bool",
          "name": "",
          "type": "bool"
        }
      ],
      "stateMutability": "nonpayable",
      "type": "function"
    },
    {
      "inputs": [
        {
          "internalType": "uint256",
          "name": "id",
          "type": "uint256"
        }
      ],
      "name": "validAddIDTicket",
      "outputs": [
        {
          "internalType": "bool",
          "name": "",
          "type": "bool"
        }
      ],
      "stateMutability": "view",
      "type": "function"
    },
    {
      "inputs": [
        {
          "internalType": "address",
          "name": "_signer",
          "type": "address"
        },
        {
          "internalType": "address",
          "name": "_to",
          "type": "address"
        },
        {
          "internalType": "uint256",
          "name": "_amount",
          "type": "uint256"
        },
        {
          "internalType": "string",
          "name": "_message",
          "type": "string"
        },
        {
          "internalType": "uint256",
          "name": "_nonce",
          "type": "uint256"
        },
        {
          "internalType": "bytes",
          "name": "signature",
          "type": "bytes"
        }
      ],
      "name": "verify",
      "outputs": [
        {
          "internalType": "bool",
          "name": "",
          "type": "bool"
        }
      ],
      "stateMutability": "pure",
      "type": "function"
    }
  ],
  "bytecode": "0x60806040523480156200001157600080fd5b506040518060400160405280600781526020017f4443546f6b656e000000000000000000000000000000000000000000000000008152506040518060400160405280600281526020017f587500000000000000000000000000000000000000000000000000000000000081525081600390816200008f919062000c88565b508060049081620000a1919062000c88565b50505060096040518060400160405280600181526020016000151581525090806001815401808255809150506001900390600052602060002090600202016000909190919091506000820151816000015560208201518160010160006101000a81548160ff021916908315150217905550505060096040518060400160405280600281526020016000151581525090806001815401808255809150506001900390600052602060002090600202016000909190919091506000820151816000015560208201518160010160006101000a81548160ff021916908315150217905550505060096040518060400160405280600381526020016000151581525090806001815401808255809150506001900390600052602060002090600202016000909190919091506000820151816000015560208201518160010160006101000a81548160ff021916908315150217905550505060096040518060400160405280600481526020016000151581525090806001815401808255809150506001900390600052602060002090600202016000909190919091506000820151816000015560208201518160010160006101000a81548160ff021916908315150217905550505060096040518060400160405280600581526020016000151581525090806001815401808255809150506001900390600052602060002090600202016000909190919091506000820151816000015560208201518160010160006101000a81548160ff021916908315150217905550505060096040518060400160405280600681526020016000151581525090806001815401808255809150506001900390600052602060002090600202016000909190919091506000820151816000015560208201518160010160006101000a81548160ff021916908315150217905550505060096040518060400160405280600781526020016000151581525090806001815401808255809150506001900390600052602060002090600202016000909190919091506000820151816000015560208201518160010160006101000a81548160ff021916908315150217905550505060096040518060400160405280600881526020016000151581525090806001815401808255809150506001900390600052602060002090600202016000909190919091506000820151816000015560208201518160010160006101000a81548160ff021916908315150217905550505060096040518060400160405280600981526020016000151581525090806001815401808255809150506001900390600052602060002090600202016000909190919091506000820151816000015560208201518160010160006101000a81548160ff021916908315150217905550505060096040518060400160405280600a81526020016000151581525090806001815401808255809150506001900390600052602060002090600202016000909190919091506000820151816000015560208201518160010160006101000a81548160ff021916908315150217905550505060096040518060400160405280600b81526020016000151581525090806001815401808255809150506001900390600052602060002090600202016000909190919091506000820151816000015560208201518160010160006101000a81548160ff021916908315150217905550505060096040518060400160405280600c81526020016000151581525090806001815401808255809150506001900390600052602060002090600202016000909190919091506000820151816000015560208201518160010160006101000a81548160ff021916908315150217905550505060096040518060400160405280600d81526020016000151581525090806001815401808255809150506001900390600052602060002090600202016000909190919091506000820151816000015560208201518160010160006101000a81548160ff021916908315150217905550505060096040518060400160405280600e81526020016000151581525090806001815401808255809150506001900390600052602060002090600202016000909190919091506000820151816000015560208201518160010160006101000a81548160ff021916908315150217905550505060096040518060400160405280600f81526020016000151581525090806001815401808255809150506001900390600052602060002090600202016000909190919091506000820151816000015560208201518160010160006101000a81548160ff021916908315150217905550505060096040518060400160405280601081526020016000151581525090806001815401808255809150506001900390600052602060002090600202016000909190919091506000820151816000015560208201518160010160006101000a81548160ff021916908315150217905550505060096040518060400160405280601181526020016000151581525090806001815401808255809150506001900390600052602060002090600202016000909190919091506000820151816000015560208201518160010160006101000a81548160ff021916908315150217905550505060096040518060400160405280601281526020016000151581525090806001815401808255809150506001900390600052602060002090600202016000909190919091506000820151816000015560208201518160010160006101000a81548160ff021916908315150217905550505060096040518060400160405280601381526020016000151581525090806001815401808255809150506001900390600052602060002090600202016000909190919091506000820151816000015560208201518160010160006101000a81548160ff021916908315150217905550505060096040518060400160405280601481526020016000151581525090806001815401808255809150506001900390600052602060002090600202016000909190919091506000820151816000015560208201518160010160006101000a81548160ff02191690831515021790555050506006339080600181540180825580915050600190039060005260206000200160009091909190916101000a81548173ffffffffffffffffffffffffffffffffffffffff021916908373ffffffffffffffffffffffffffffffffffffffff16021790555033600560006101000a81548173ffffffffffffffffffffffffffffffffffffffff021916908373ffffffffffffffffffffffffffffffffffffffff16021790555062000d6f565b600081519050919050565b7f4e487b7100000000000000000000000000000000000000000000000000000000600052604160045260246000fd5b7f4e487b7100000000000000000000000000000000000000000000000000000000600052602260045260246000fd5b6000600282049050600182168062000a9057607f821691505b60208210810362000aa65762000aa562000a48565b5b50919050565b60008190508160005260206000209050919050565b60006020601f8301049050919050565b600082821b905092915050565b60006008830262000b107fffffffffffffffffffffffffffffffffffffffffffffffffffffffffffffffff8262000ad1565b62000b1c868362000ad1565b95508019841693508086168417925050509392505050565b6000819050919050565b6000819050919050565b600062000b6962000b6362000b5d8462000b34565b62000b3e565b62000b34565b9050919050565b6000819050919050565b62000b858362000b48565b62000b9d62000b948262000b70565b84845462000ade565b825550505050565b600090565b62000bb462000ba5565b62000bc181848462000b7a565b505050565b5b8181101562000be95762000bdd60008262000baa565b60018101905062000bc7565b5050565b601f82111562000c385762000c028162000aac565b62000c0d8462000ac1565b8101602085101562000c1d578190505b62000c3562000c2c8562000ac1565b83018262000bc6565b50505b505050565b600082821c905092915050565b600062000c5d6000198460080262000c3d565b1980831691505092915050565b600062000c78838362000c4a565b9150826002028217905092915050565b62000c938262000a0e565b67ffffffffffffffff81111562000caf5762000cae62000a19565b5b62000cbb825462000a77565b62000cc882828562000bed565b600060209050601f83116001811462000d00576000841562000ceb578287015190505b62000cf7858262000c6a565b86555062000d67565b601f19841662000d108662000aac565b60005b8281101562000d3a5784890151825560018201915060208501945060208101905062000d13565b8683101562000d5a578489015162000d56601f89168262000c4a565b8355505b6001600288020188555050505b505050505050565b61522a8062000d7f6000396000f3fe608060405234801561001057600080fd5b50600436106102325760003560e01c806397aba7f911610130578063b4291319116100b8578063f2fa49b41161007c578063f2fa49b41461078d578063f516f88e146107c3578063f8b2cb4f146107df578063fa5408011461080f578063fc0587f81461083f57610232565b8063b4291319146106d9578063cd10d3d6146106f5578063dd62ed3e14610711578063ddb0225e14610741578063ebfbdec91461075d57610232565b8063a457c2d7116100ff578063a457c2d7146105fb578063a7bb58031461062b578063a9059cbb1461065d578063abe5026a1461068d578063b2162415146106bd57610232565b806397aba7f91461053b5780639e26c4941461056b5780639f7bdca11461059b578063a35f8a40146105cb57610232565b80634add2e7f116101be578063732a7c2511610182578063732a7c2514610471578063789024221461048d5780638fab3caa146104bd57806393f40521146104ed57806395d89b411461051d57610232565b80634add2e7f146103915780635cab0d00146103ad5780636012f3be146103dd578063625336651461040e57806370a082311461044157610232565b806323b872dd1161020557806323b872dd146102c1578063313ce567146102f1578063374936821461030f57806339509351146103455780633c09e2fd1461037557610232565b806306fdde0314610237578063095ea7b3146102555780630f13090e1461028557806318160ddd146102a3575b600080fd5b61023f61086f565b60405161024c91906132a0565b60405180910390f35b61026f600480360381019061026a919061336a565b610901565b60405161027c91906133c5565b60405180910390f35b61028d610924565b60405161029a91906135ad565b60405180910390f35b6102ab610b27565b6040516102b891906135de565b60405180910390f35b6102db60048036038101906102d691906135f9565b610b31565b6040516102e891906133c5565b60405180910390f35b6102f9610b60565b6040516103069190613668565b60405180910390f35b6103296004803603810190610324919061336a565b610b69565b60405161033c9796959493929190613683565b60405180910390f35b61035f600480360381019061035a919061336a565b610ce5565b60405161036c91906133c5565b60405180910390f35b61038f600480360381019061038a919061336a565b610d1c565b005b6103ab60048036038101906103a691906138d6565b610f2b565b005b6103c760048036038101906103c291906139cc565b610fc6565b6040516103d491906135de565b60405180910390f35b6103f760048036038101906103f2919061336a565b610fde565b6040516104059291906139f9565b60405180910390f35b61042860048036038101906104239190613a29565b6110a7565b6040516104389493929190613a65565b60405180910390f35b61045b60048036038101906104569190613a29565b61118c565b60405161046891906135de565b60405180910390f35b61048b60048036038101906104869190613ab1565b6111d4565b005b6104a760048036038101906104a291906139cc565b6112b0565b6040516104b49190613bbc565b60405180910390f35b6104d760048036038101906104d29190613ca6565b61131b565b6040516104e491906135ad565b60405180910390f35b610507600480360381019061050291906139cc565b611687565b60405161051491906133c5565b60405180910390f35b61052561172f565b60405161053291906132a0565b60405180910390f35b61055560048036038101906105509190613d25565b6117c1565b6040516105629190613d81565b60405180910390f35b610585600480360381019061058091906139cc565b611830565b60405161059291906133c5565b60405180910390f35b6105b560048036038101906105b091906139cc565b61197f565b6040516105c291906135de565b60405180910390f35b6105e560048036038101906105e09190613d9c565b611997565b6040516105f29190613e2e565b60405180910390f35b6106156004803603810190610610919061336a565b6119d0565b60405161062291906133c5565b60405180910390f35b61064560048036038101906106409190613e49565b611a47565b60405161065493929190613e92565b60405180910390f35b6106776004803603810190610672919061336a565b611aaf565b60405161068491906133c5565b60405180910390f35b6106a760048036038101906106a29190613ec9565b611ad2565b6040516106b491906133c5565b60405180910390f35b6106d760048036038101906106d29190613f8e565b611b36565b005b6106f360048036038101906106ee91906139cc565b612042565b005b61070f600480360381019061070a9190613ec9565b6121e1565b005b61072b60048036038101906107269190614041565b612253565b60405161073891906135de565b60405180910390f35b61075b60048036038101906107569190613ec9565b6122da565b005b61077760048036038101906107729190614081565b61234c565b60405161078491906135de565b60405180910390f35b6107a760048036038101906107a291906140c1565b61237d565b6040516107ba9796959493929190613683565b60405180910390f35b6107dd60048036038101906107d89190614081565b612506565b005b6107f960048036038101906107f49190613a29565b6127c1565b60405161080691906135de565b60405180910390f35b61082960048036038101906108249190614114565b6127c8565b6040516108369190613e2e565b60405180910390f35b610859600480360381019061085491906139cc565b6127f8565b60405161086691906135ad565b60405180910390f35b60606003805461087e90614170565b80601f01602080910402602001604051908101604052809291908181526020018280546108aa90614170565b80156108f75780601f106108cc576101008083540402835291602001916108f7565b820191906000526020600020905b8154815290600101906020018083116108da57829003601f168201915b5050505050905090565b60008061090c6129d1565b90506109198185856129d9565b600191505092915050565b6060600d60003373ffffffffffffffffffffffffffffffffffffffff1673ffffffffffffffffffffffffffffffffffffffff168152602001908152602001600020805480602002602001604051908101604052809291908181526020016000905b82821015610b1e57838290600052602060002090600702016040518060e00160405290816000820154815260200160018201548152602001600282015481526020016003820180546109d690614170565b80601f0160208091040260200160405190810160405280929190818152602001828054610a0290614170565b8015610a4f5780601f10610a2457610100808354040283529160200191610a4f565b820191906000526020600020905b815481529060010190602001808311610a3257829003601f168201915b50505050508152602001600482015481526020016005820160009054906101000a900460ff16151515158152602001600682018054610a8d90614170565b80601f0160208091040260200160405190810160405280929190818152602001828054610ab990614170565b8015610b065780601f10610adb57610100808354040283529160200191610b06565b820191906000526020600020905b815481529060010190602001808311610ae957829003601f168201915b50505050508152505081526020019060010190610985565b50505050905090565b6000600254905090565b600080610b3c6129d1565b9050610b49858285612ba2565b610b54858585612c2e565b60019150509392505050565b60006012905090565b600d6020528160005260406000208181548110610b8557600080fd5b906000526020600020906007020160009150915050806000015490806001015490806002015490806003018054610bbb90614170565b80601f0160208091040260200160405190810160405280929190818152602001828054610be790614170565b8015610c345780601f10610c0957610100808354040283529160200191610c34565b820191906000526020600020905b815481529060010190602001808311610c1757829003601f168201915b5050505050908060040154908060050160009054906101000a900460ff1690806006018054610c6290614170565b80601f0160208091040260200160405190810160405280929190818152602001828054610c8e90614170565b8015610cdb5780601f10610cb057610100808354040283529160200191610cdb565b820191906000526020600020905b815481529060010190602001808311610cbe57829003601f168201915b5050505050905087565b600080610cf06129d1565b9050610d11818585610d028589612253565b610d0c91906141d0565b6129d9565b600191505092915050565b6000805b600680549050811015610db85760068181548110610d4157610d40614204565b5b9060005260206000200160009054906101000a900473ffffffffffffffffffffffffffffffffffffffff1673ffffffffffffffffffffffffffffffffffffffff163373ffffffffffffffffffffffffffffffffffffffff1603610da75760019150610db8565b80610db190614233565b9050610d20565b506001151581151514610e00576040517f08c379a0000000000000000000000000000000000000000000000000000000008152600401610df7906142ed565b60405180910390fd5b6001821480610e0f5750600282145b610e4e576040517f08c379a0000000000000000000000000000000000000000000000000000000008152600401610e459061437f565b60405180910390fd5b60018203610eba576006839080600181540180825580915050600190039060005260206000200160009091909190916101000a81548173ffffffffffffffffffffffffffffffffffffffff021916908373ffffffffffffffffffffffffffffffffffffffff1602179055505b60028203610f26576007839080600181540180825580915050600190039060005260206000200160009091909190916101000a81548173ffffffffffffffffffffffffffffffffffffffff021916908373ffffffffffffffffffffffffffffffffffffffff1602179055505b505050565b83610f353361118c565b1015610f76576040517f08c379a0000000000000000000000000000000000000000000000000000000008152600401610f6d90614411565b60405180910390fd5b610f848686868686866121e1565b7fa0a6e6dacc0ba47ad690a6e908955fdfc43a0754d9b0bd636a5ef21eee90f1888785604051610fb5929190614431565b60405180910390a150505050505050565b60116020528060005260406000206000915090505481565b600f6020528160005260406000208181548110610ffa57600080fd5b90600052602060002090600202016000915091505080600001549080600101805461102490614170565b80601f016020809104026020016040519081016040528092919081815260200182805461105090614170565b801561109d5780601f106110725761010080835404028352916020019161109d565b820191906000526020600020905b81548152906001019060200180831161108057829003601f168201915b5050505050905082565b600c6020528060005260406000206000915090508060000180546110ca90614170565b80601f01602080910402602001604051908101604052809291908181526020018280546110f690614170565b80156111435780601f1061111857610100808354040283529160200191611143565b820191906000526020600020905b81548152906001019060200180831161112657829003601f168201915b5050505050908060010154908060020160009054906101000a900460ff16908060020160019054906101000a900473ffffffffffffffffffffffffffffffffffffffff16905084565b60008060008373ffffffffffffffffffffffffffffffffffffffff1673ffffffffffffffffffffffffffffffffffffffff168152602001908152602001600020549050919050565b600f60003373ffffffffffffffffffffffffffffffffffffffff1673ffffffffffffffffffffffffffffffffffffffff1681526020019081526020016000206040518060400160405280848152602001838152509080600181540180825580915050600190039060005260206000209060020201600090919091909150600082015181600001556020820151816001019081611270919061460d565b5050507ff538047aa51f8b732c1850d69564ec0d033aca661921dba9871bf8feff7a435f82826040516112a49291906139f9565b60405180910390a15050565b60606013600083815260200190815260200160002080548060200260200160405190810160405280929190818152602001828054801561130f57602002820191906000526020600020905b8154815260200190600101908083116112fb575b50505050509050919050565b60606000825167ffffffffffffffff81111561133a5761133961370a565b5b60405190808252806020026020018201604052801561137357816020015b6113606131d1565b8152602001906001900390816113585790505b5090506000805b845181101561167c5760005b600d60003373ffffffffffffffffffffffffffffffffffffffff1673ffffffffffffffffffffffffffffffffffffffff1681526020019081526020016000208054905081101561166857600d60003373ffffffffffffffffffffffffffffffffffffffff1673ffffffffffffffffffffffffffffffffffffffff168152602001908152602001600020818154811061142157611420614204565b5b90600052602060002090600702016000015486838151811061144657611445614204565b5b60200260200101510361165557600d60003373ffffffffffffffffffffffffffffffffffffffff1673ffffffffffffffffffffffffffffffffffffffff16815260200190815260200160002081815481106114a4576114a3614204565b5b90600052602060002090600702016040518060e00160405290816000820154815260200160018201548152602001600282015481526020016003820180546114eb90614170565b80601f016020809104026020016040519081016040528092919081815260200182805461151790614170565b80156115645780601f1061153957610100808354040283529160200191611564565b820191906000526020600020905b81548152906001019060200180831161154757829003601f168201915b50505050508152602001600482015481526020016005820160009054906101000a900460ff161515151581526020016006820180546115a290614170565b80601f01602080910402602001604051908101604052809291908181526020018280546115ce90614170565b801561161b5780601f106115f05761010080835404028352916020019161161b565b820191906000526020600020905b8154815290600101906020018083116115fe57829003601f168201915b50505050508152505084848151811061163757611636614204565b5b6020026020010181905250828061164d90614233565b935050611668565b808061166090614233565b915050611386565b50808061167490614233565b91505061137a565b508192505050919050565b600080600090505b60098054905081101561172457600981815481106116b0576116af614204565b5b90600052602060002090600202016000015483036117115760011515600982815481106116e0576116df614204565b5b906000526020600020906002020160010160009054906101000a900460ff1615150361171057600091505061172a565b5b808061171c90614233565b91505061168f565b50600190505b919050565b60606004805461173e90614170565b80601f016020809104026020016040519081016040528092919081815260200182805461176a90614170565b80156117b75780601f1061178c576101008083540402835291602001916117b7565b820191906000526020600020905b81548152906001019060200180831161179a57829003601f168201915b5050505050905090565b6000806000806117d085611a47565b925092509250600186828585604051600081526020016040526040516117f994939291906146df565b6020604051602081039080840390855afa15801561181b573d6000803e3d6000fd5b50505060206040510351935050505092915050565b6000806000905060005b6006805490508110156118d2576006818154811061185b5761185a614204565b5b9060005260206000200160009054906101000a900473ffffffffffffffffffffffffffffffffffffffff1673ffffffffffffffffffffffffffffffffffffffff163373ffffffffffffffffffffffffffffffffffffffff16036118c157600191506118d2565b806118cb90614233565b905061183a565b50600115158115151461191a576040517f08c379a0000000000000000000000000000000000000000000000000000000008152600401611911906142ed565b60405180910390fd5b60005b600980549050811015611973576009818154811061193e5761193d614204565b5b9060005260206000209060020201600001548403611960576000925050611979565b808061196b90614233565b91505061191d565b50600191505b50919050565b60126020528060005260406000206000915090505481565b6000848484846040516020016119b094939291906147c9565b604051602081830303815290604052805190602001209050949350505050565b6000806119db6129d1565b905060006119e98286612253565b905083811015611a2e576040517f08c379a0000000000000000000000000000000000000000000000000000000008152600401611a2590614885565b60405180910390fd5b611a3b82868684036129d9565b60019250505092915050565b60008060006041845114611a90576040517f08c379a0000000000000000000000000000000000000000000000000000000008152600401611a87906148f1565b60405180910390fd5b6020840151925060408401519150606084015160001a90509193909250565b600080611aba6129d1565b9050611ac7818585612c2e565b600191505092915050565b600080611ae187878787611997565b90506000611aee826127c8565b90508873ffffffffffffffffffffffffffffffffffffffff16611b1182866117c1565b73ffffffffffffffffffffffffffffffffffffffff1614925050509695505050505050565b60005b600d60003373ffffffffffffffffffffffffffffffffffffffff1673ffffffffffffffffffffffffffffffffffffffff16815260200190815260200160002080549050811015611f9857600d60003373ffffffffffffffffffffffffffffffffffffffff1673ffffffffffffffffffffffffffffffffffffffff1681526020019081526020016000208181548110611bd457611bd3614204565b5b9060005260206000209060070201600001548503611f855760001515600d60003373ffffffffffffffffffffffffffffffffffffffff1673ffffffffffffffffffffffffffffffffffffffff1681526020019081526020016000208281548110611c4157611c40614204565b5b906000526020600020906007020160050160009054906101000a900460ff16151514611ca2576040517f08c379a0000000000000000000000000000000000000000000000000000000008152600401611c999061495d565b60405180910390fd5b83600d60003373ffffffffffffffffffffffffffffffffffffffff1673ffffffffffffffffffffffffffffffffffffffff1681526020019081526020016000208281548110611cf457611cf3614204565b5b90600052602060002090600702016003019081611d11919061460d565b5082600d60003373ffffffffffffffffffffffffffffffffffffffff1673ffffffffffffffffffffffffffffffffffffffff1681526020019081526020016000208281548110611d6457611d63614204565b5b9060005260206000209060070201600401819055506001600d60003373ffffffffffffffffffffffffffffffffffffffff1673ffffffffffffffffffffffffffffffffffffffff1681526020019081526020016000208281548110611dcc57611dcb614204565b5b906000526020600020906007020160050160006101000a81548160ff02191690831515021790555081600d60003373ffffffffffffffffffffffffffffffffffffffff1673ffffffffffffffffffffffffffffffffffffffff1681526020019081526020016000208281548110611e4657611e45614204565b5b90600052602060002090600702016006019081611e63919061460d565b5060146000878152602001908152602001600020600d60003373ffffffffffffffffffffffffffffffffffffffff1673ffffffffffffffffffffffffffffffffffffffff1681526020019081526020016000208281548110611ec857611ec7614204565b5b9060005260206000209060070201908060018154018082558091505060019003906000526020600020906007020160009091909190915060008201548160000155600182015481600101556002820154816002015560038201816003019081611f319190614993565b50600482015481600401556005820160009054906101000a900460ff168160050160006101000a81548160ff02191690831515021790555060068201816006019081611f7d9190614993565b505050611f98565b8080611f9090614233565b915050611b39565b5060136000868152602001908152602001600020829080600181540180825580915050600190039060005260206000200160009091909190915055601260008681526020019081526020016000206000815480929190611ff790614233565b91905055507f67fbf0ab29ccb48c09f17ccb11294f7d23fc8c4672259ff330cf874b75fa51768585858585604051612033959493929190614a7b565b60405180910390a15050505050565b6000805b6006805490508110156120de576006818154811061206757612066614204565b5b9060005260206000200160009054906101000a900473ffffffffffffffffffffffffffffffffffffffff1673ffffffffffffffffffffffffffffffffffffffff163373ffffffffffffffffffffffffffffffffffffffff16036120cd57600191506120de565b806120d790614233565b9050612046565b506001151581151514612126576040517f08c379a000000000000000000000000000000000000000000000000000000000815260040161211d906142ed565b60405180910390fd5b61212f82611830565b61216e576040517f08c379a000000000000000000000000000000000000000000000000000000000815260040161216590614b28565b60405180910390fd5b600960405180604001604052808481526020016000151581525090806001815401808255809150506001900390600052602060002090600202016000909190919091506000820151816000015560208201518160010160006101000a81548160ff02191690831515021790555050505050565b6121ef868686868686611ad2565b61222e576040517f08c379a000000000000000000000000000000000000000000000000000000000815260040161222590614b94565b60405180910390fd5b61224b85670de0b6b3a7640000866122469190614bb4565b612ea4565b505050505050565b6000600160008473ffffffffffffffffffffffffffffffffffffffff1673ffffffffffffffffffffffffffffffffffffffff16815260200190815260200160002060008373ffffffffffffffffffffffffffffffffffffffff1673ffffffffffffffffffffffffffffffffffffffff16815260200190815260200160002054905092915050565b6122e8868686868686611ad2565b612327576040517f08c379a000000000000000000000000000000000000000000000000000000000815260040161231e90614b94565b60405180910390fd5b61234485670de0b6b3a76400008661233f9190614bb4565b613071565b505050505050565b6013602052816000526040600020818154811061236857600080fd5b90600052602060002001600091509150505481565b601060205282600052604060002060205281600052604060002081815481106123a557600080fd5b906000526020600020906007020160009250925050508060000154908060010154908060020154908060030180546123dc90614170565b80601f016020809104026020016040519081016040528092919081815260200182805461240890614170565b80156124555780601f1061242a57610100808354040283529160200191612455565b820191906000526020600020905b81548152906001019060200180831161243857829003601f168201915b5050505050908060040154908060050160009054906101000a900460ff169080600601805461248390614170565b80601f01602080910402602001604051908101604052809291908181526020018280546124af90614170565b80156124fc5780601f106124d1576101008083540402835291602001916124fc565b820191906000526020600020905b8154815290600101906020018083116124df57829003601f168201915b5050505050905087565b6000805b60098054905081101561260c576009818154811061252b5761252a614204565b5b90600052602060002090600202016000015484036125f9576009818154811061255757612556614204565b5b906000526020600020906002020160010160009054906101000a900460ff16156125b6576040517f08c379a00000000000000000000000000000000000000000000000000000000081526004016125ad90614c42565b60405180910390fd5b600191506001600982815481106125d0576125cf614204565b5b906000526020600020906002020160010160006101000a81548160ff0219169083151502179055505b808061260490614233565b91505061250a565b5060116000838152602001908152602001600020600081548092919061263190614233565b9190505550600b600081548092919061264990614233565b9190505550600d60003373ffffffffffffffffffffffffffffffffffffffff1673ffffffffffffffffffffffffffffffffffffffff1681526020019081526020016000206040518060e00160405280600b548152602001848152602001428152602001604051806020016040528060008152508152602001600081526020016000151581526020016040518060200160405280600081525081525090806001815401808255809150506001900390600052602060002090600702016000909190919091506000820151816000015560208201518160010155604082015181600201556060820151816003019081612740919061460d565b506080820151816004015560a08201518160050160006101000a81548160ff02191690831515021790555060c0820151816006019081612780919061460d565b5050507ff165997b5f1d2b5ae2f43279fc978111209309fd44e04343b1ffd71915e62ab583836040516127b4929190614c62565b60405180910390a1505050565b6000919050565b6000816040516020016127db9190614cf8565b604051602081830303815290604052805190602001209050919050565b606060146000838152602001908152602001600020805480602002602001604051908101604052809291908181526020016000905b828210156129c657838290600052602060002090600702016040518060e001604052908160008201548152602001600182015481526020016002820154815260200160038201805461287e90614170565b80601f01602080910402602001604051908101604052809291908181526020018280546128aa90614170565b80156128f75780601f106128cc576101008083540402835291602001916128f7565b820191906000526020600020905b8154815290600101906020018083116128da57829003601f168201915b50505050508152602001600482015481526020016005820160009054906101000a900460ff1615151515815260200160068201805461293590614170565b80601f016020809104026020016040519081016040528092919081815260200182805461296190614170565b80156129ae5780601f10612983576101008083540402835291602001916129ae565b820191906000526020600020905b81548152906001019060200180831161299157829003601f168201915b5050505050815250508152602001906001019061282d565b505050509050919050565b600033905090565b600073ffffffffffffffffffffffffffffffffffffffff168373ffffffffffffffffffffffffffffffffffffffff1603612a48576040517f08c379a0000000000000000000000000000000000000000000000000000000008152600401612a3f90614d90565b60405180910390fd5b600073ffffffffffffffffffffffffffffffffffffffff168273ffffffffffffffffffffffffffffffffffffffff1603612ab7576040517f08c379a0000000000000000000000000000000000000000000000000000000008152600401612aae90614e22565b60405180910390fd5b80600160008573ffffffffffffffffffffffffffffffffffffffff1673ffffffffffffffffffffffffffffffffffffffff16815260200190815260200160002060008473ffffffffffffffffffffffffffffffffffffffff1673ffffffffffffffffffffffffffffffffffffffff168152602001908152602001600020819055508173ffffffffffffffffffffffffffffffffffffffff168373ffffffffffffffffffffffffffffffffffffffff167f8c5be1e5ebec7d5bd14f71427d1e84f3dd0314c0f7b2291e5b200ac8c7c3b92583604051612b9591906135de565b60405180910390a3505050565b6000612bae8484612253565b90507fffffffffffffffffffffffffffffffffffffffffffffffffffffffffffffffff8114612c285781811015612c1a576040517f08c379a0000000000000000000000000000000000000000000000000000000008152600401612c1190614e8e565b60405180910390fd5b612c2784848484036129d9565b5b50505050565b600073ffffffffffffffffffffffffffffffffffffffff168373ffffffffffffffffffffffffffffffffffffffff1603612c9d576040517f08c379a0000000000000000000000000000000000000000000000000000000008152600401612c9490614f20565b60405180910390fd5b600073ffffffffffffffffffffffffffffffffffffffff168273ffffffffffffffffffffffffffffffffffffffff1603612d0c576040517f08c379a0000000000000000000000000000000000000000000000000000000008152600401612d0390614fb2565b60405180910390fd5b612d178383836131c7565b60008060008573ffffffffffffffffffffffffffffffffffffffff1673ffffffffffffffffffffffffffffffffffffffff16815260200190815260200160002054905081811015612d9d576040517f08c379a0000000000000000000000000000000000000000000000000000000008152600401612d9490615044565b60405180910390fd5b8181036000808673ffffffffffffffffffffffffffffffffffffffff1673ffffffffffffffffffffffffffffffffffffffff16815260200190815260200160002081905550816000808573ffffffffffffffffffffffffffffffffffffffff1673ffffffffffffffffffffffffffffffffffffffff168152602001908152602001600020600082825401925050819055508273ffffffffffffffffffffffffffffffffffffffff168473ffffffffffffffffffffffffffffffffffffffff167fddf252ad1be2c89b69c2b068fc378daa952ba7f163c4a11628f55a4df523b3ef84604051612e8b91906135de565b60405180910390a3612e9e8484846131cc565b50505050565b600073ffffffffffffffffffffffffffffffffffffffff168273ffffffffffffffffffffffffffffffffffffffff1603612f13576040517f08c379a0000000000000000000000000000000000000000000000000000000008152600401612f0a906150d6565b60405180910390fd5b612f1f826000836131c7565b60008060008473ffffffffffffffffffffffffffffffffffffffff1673ffffffffffffffffffffffffffffffffffffffff16815260200190815260200160002054905081811015612fa5576040517f08c379a0000000000000000000000000000000000000000000000000000000008152600401612f9c90615168565b60405180910390fd5b8181036000808573ffffffffffffffffffffffffffffffffffffffff1673ffffffffffffffffffffffffffffffffffffffff1681526020019081526020016000208190555081600260008282540392505081905550600073ffffffffffffffffffffffffffffffffffffffff168373ffffffffffffffffffffffffffffffffffffffff167fddf252ad1be2c89b69c2b068fc378daa952ba7f163c4a11628f55a4df523b3ef8460405161305891906135de565b60405180910390a361306c836000846131cc565b505050565b600073ffffffffffffffffffffffffffffffffffffffff168273ffffffffffffffffffffffffffffffffffffffff16036130e0576040517f08c379a00000000000000000000000000000000000000000000000000000000081526004016130d7906151d4565b60405180910390fd5b6130ec600083836131c7565b80600260008282546130fe91906141d0565b92505081905550806000808473ffffffffffffffffffffffffffffffffffffffff1673ffffffffffffffffffffffffffffffffffffffff168152602001908152602001600020600082825401925050819055508173ffffffffffffffffffffffffffffffffffffffff16600073ffffffffffffffffffffffffffffffffffffffff167fddf252ad1be2c89b69c2b068fc378daa952ba7f163c4a11628f55a4df523b3ef836040516131af91906135de565b60405180910390a36131c3600083836131cc565b5050565b505050565b505050565b6040518060e001604052806000815260200160008152602001600081526020016060815260200160008152602001600015158152602001606081525090565b600081519050919050565b600082825260208201905092915050565b60005b8381101561324a57808201518184015260208101905061322f565b60008484015250505050565b6000601f19601f8301169050919050565b600061327282613210565b61327c818561321b565b935061328c81856020860161322c565b61329581613256565b840191505092915050565b600060208201905081810360008301526132ba8184613267565b905092915050565b6000604051905090565b600080fd5b600080fd5b600073ffffffffffffffffffffffffffffffffffffffff82169050919050565b6000613301826132d6565b9050919050565b613311816132f6565b811461331c57600080fd5b50565b60008135905061332e81613308565b92915050565b6000819050919050565b61334781613334565b811461335257600080fd5b50565b6000813590506133648161333e565b92915050565b60008060408385031215613381576133806132cc565b5b600061338f8582860161331f565b92505060206133a085828601613355565b9150509250929050565b60008115159050919050565b6133bf816133aa565b82525050565b60006020820190506133da60008301846133b6565b92915050565b600081519050919050565b600082825260208201905092915050565b6000819050602082019050919050565b61341581613334565b82525050565b600082825260208201905092915050565b600061343782613210565b613441818561341b565b935061345181856020860161322c565b61345a81613256565b840191505092915050565b61346e816133aa565b82525050565b600060e08301600083015161348c600086018261340c565b50602083015161349f602086018261340c565b5060408301516134b2604086018261340c565b50606083015184820360608601526134ca828261342c565b91505060808301516134df608086018261340c565b5060a08301516134f260a0860182613465565b5060c083015184820360c086015261350a828261342c565b9150508091505092915050565b60006135238383613474565b905092915050565b6000602082019050919050565b6000613543826133e0565b61354d81856133eb565b93508360208202850161355f856133fc565b8060005b8581101561359b578484038952815161357c8582613517565b94506135878361352b565b925060208a01995050600181019050613563565b50829750879550505050505092915050565b600060208201905081810360008301526135c78184613538565b905092915050565b6135d881613334565b82525050565b60006020820190506135f360008301846135cf565b92915050565b600080600060608486031215613612576136116132cc565b5b60006136208682870161331f565b93505060206136318682870161331f565b925050604061364286828701613355565b9150509250925092565b600060ff82169050919050565b6136628161364c565b82525050565b600060208201905061367d6000830184613659565b92915050565b600060e082019050613698600083018a6135cf565b6136a560208301896135cf565b6136b260408301886135cf565b81810360608301526136c48187613267565b90506136d360808301866135cf565b6136e060a08301856133b6565b81810360c08301526136f28184613267565b905098975050505050505050565b600080fd5b600080fd5b7f4e487b7100000000000000000000000000000000000000000000000000000000600052604160045260246000fd5b61374282613256565b810181811067ffffffffffffffff821117156137615761376061370a565b5b80604052505050565b60006137746132c2565b90506137808282613739565b919050565b600067ffffffffffffffff8211156137a05761379f61370a565b5b6137a982613256565b9050602081019050919050565b82818337600083830152505050565b60006137d86137d384613785565b61376a565b9050828152602081018484840111156137f4576137f3613705565b5b6137ff8482856137b6565b509392505050565b600082601f83011261381c5761381b613700565b5b813561382c8482602086016137c5565b91505092915050565b600067ffffffffffffffff8211156138505761384f61370a565b5b61385982613256565b9050602081019050919050565b600061387961387484613835565b61376a565b90508281526020810184848401111561389557613894613705565b5b6138a08482856137b6565b509392505050565b600082601f8301126138bd576138bc613700565b5b81356138cd848260208601613866565b91505092915050565b600080600080600080600060e0888a0312156138f5576138f46132cc565b5b600088013567ffffffffffffffff811115613913576139126132d1565b5b61391f8a828b01613807565b97505060206139308a828b0161331f565b96505060406139418a828b0161331f565b95505060606139528a828b01613355565b945050608088013567ffffffffffffffff811115613973576139726132d1565b5b61397f8a828b01613807565b93505060a06139908a828b01613355565b92505060c088013567ffffffffffffffff8111156139b1576139b06132d1565b5b6139bd8a828b016138a8565b91505092959891949750929550565b6000602082840312156139e2576139e16132cc565b5b60006139f084828501613355565b91505092915050565b6000604082019050613a0e60008301856135cf565b8181036020830152613a208184613267565b90509392505050565b600060208284031215613a3f57613a3e6132cc565b5b6000613a4d8482850161331f565b91505092915050565b613a5f816132f6565b82525050565b60006080820190508181036000830152613a7f8187613267565b9050613a8e60208301866135cf565b613a9b60408301856133b6565b613aa86060830184613a56565b95945050505050565b60008060408385031215613ac857613ac76132cc565b5b6000613ad685828601613355565b925050602083013567ffffffffffffffff811115613af757613af66132d1565b5b613b0385828601613807565b9150509250929050565b600081519050919050565b600082825260208201905092915050565b6000819050602082019050919050565b6000613b45838361340c565b60208301905092915050565b6000602082019050919050565b6000613b6982613b0d565b613b738185613b18565b9350613b7e83613b29565b8060005b83811015613baf578151613b968882613b39565b9750613ba183613b51565b925050600181019050613b82565b5085935050505092915050565b60006020820190508181036000830152613bd68184613b5e565b905092915050565b600067ffffffffffffffff821115613bf957613bf861370a565b5b602082029050602081019050919050565b600080fd5b6000613c22613c1d84613bde565b61376a565b90508083825260208201905060208402830185811115613c4557613c44613c0a565b5b835b81811015613c6e5780613c5a8882613355565b845260208401935050602081019050613c47565b5050509392505050565b600082601f830112613c8d57613c8c613700565b5b8135613c9d848260208601613c0f565b91505092915050565b600060208284031215613cbc57613cbb6132cc565b5b600082013567ffffffffffffffff811115613cda57613cd96132d1565b5b613ce684828501613c78565b91505092915050565b6000819050919050565b613d0281613cef565b8114613d0d57600080fd5b50565b600081359050613d1f81613cf9565b92915050565b60008060408385031215613d3c57613d3b6132cc565b5b6000613d4a85828601613d10565b925050602083013567ffffffffffffffff811115613d6b57613d6a6132d1565b5b613d77858286016138a8565b9150509250929050565b6000602082019050613d966000830184613a56565b92915050565b60008060008060808587031215613db657613db56132cc565b5b6000613dc48782880161331f565b9450506020613dd587828801613355565b935050604085013567ffffffffffffffff811115613df657613df56132d1565b5b613e0287828801613807565b9250506060613e1387828801613355565b91505092959194509250565b613e2881613cef565b82525050565b6000602082019050613e436000830184613e1f565b92915050565b600060208284031215613e5f57613e5e6132cc565b5b600082013567ffffffffffffffff811115613e7d57613e7c6132d1565b5b613e89848285016138a8565b91505092915050565b6000606082019050613ea76000830186613e1f565b613eb46020830185613e1f565b613ec16040830184613659565b949350505050565b60008060008060008060c08789031215613ee657613ee56132cc565b5b6000613ef489828a0161331f565b9650506020613f0589828a0161331f565b9550506040613f1689828a01613355565b945050606087013567ffffffffffffffff811115613f3757613f366132d1565b5b613f4389828a01613807565b9350506080613f5489828a01613355565b92505060a087013567ffffffffffffffff811115613f7557613f746132d1565b5b613f8189828a016138a8565b9150509295509295509295565b600080600080600060a08688031215613faa57613fa96132cc565b5b6000613fb888828901613355565b9550506020613fc988828901613355565b945050604086013567ffffffffffffffff811115613fea57613fe96132d1565b5b613ff688828901613807565b935050606061400788828901613355565b925050608086013567ffffffffffffffff811115614028576140276132d1565b5b61403488828901613807565b9150509295509295909350565b60008060408385031215614058576140576132cc565b5b60006140668582860161331f565b92505060206140778582860161331f565b9150509250929050565b60008060408385031215614098576140976132cc565b5b60006140a685828601613355565b92505060206140b785828601613355565b9150509250929050565b6000806000606084860312156140da576140d96132cc565b5b60006140e88682870161331f565b93505060206140f986828701613355565b925050604061410a86828701613355565b9150509250925092565b60006020828403121561412a576141296132cc565b5b600061413884828501613d10565b91505092915050565b7f4e487b7100000000000000000000000000000000000000000000000000000000600052602260045260246000fd5b6000600282049050600182168061418857607f821691505b60208210810361419b5761419a614141565b5b50919050565b7f4e487b7100000000000000000000000000000000000000000000000000000000600052601160045260246000fd5b60006141db82613334565b91506141e683613334565b92508282019050808211156141fe576141fd6141a1565b5b92915050565b7f4e487b7100000000000000000000000000000000000000000000000000000000600052603260045260246000fd5b600061423e82613334565b91507fffffffffffffffffffffffffffffffffffffffffffffffffffffffffffffffff82036142705761426f6141a1565b5b600182019050919050565b7f4f6e6c792061646d696e2063616e2063616c6c20746869732066756e6374696f60008201527f6e00000000000000000000000000000000000000000000000000000000000000602082015250565b60006142d760218361321b565b91506142e28261427b565b604082019050919050565b60006020820190508181036000830152614306816142ca565b9050919050565b7f496e76616c696420726f6c652c206f6e6c792061646d696e206f72207365727660008201527f696365207375697461626c652e00000000000000000000000000000000000000602082015250565b6000614369602d8361321b565b91506143748261430d565b604082019050919050565b600060208201905081810360008301526143988161435c565b9050919050565b7f596f75206e6f74206861766520656e6f756768206d6f6e657920746f2070757260008201527f6368617365000000000000000000000000000000000000000000000000000000602082015250565b60006143fb60258361321b565b91506144068261439f565b604082019050919050565b6000602082019050818103600083015261442a816143ee565b9050919050565b6000604082019050818103600083015261444b8185613267565b905061445a60208301846135cf565b9392505050565b60008190508160005260206000209050919050565b60006020601f8301049050919050565b600082821b905092915050565b6000600883026144c37fffffffffffffffffffffffffffffffffffffffffffffffffffffffffffffffff82614486565b6144cd8683614486565b95508019841693508086168417925050509392505050565b6000819050919050565b600061450a61450561450084613334565b6144e5565b613334565b9050919050565b6000819050919050565b614524836144ef565b61453861453082614511565b848454614493565b825550505050565b600090565b61454d614540565b61455881848461451b565b505050565b5b8181101561457c57614571600082614545565b60018101905061455e565b5050565b601f8211156145c15761459281614461565b61459b84614476565b810160208510156145aa578190505b6145be6145b685614476565b83018261455d565b50505b505050565b600082821c905092915050565b60006145e4600019846008026145c6565b1980831691505092915050565b60006145fd83836145d3565b9150826002028217905092915050565b61461682613210565b67ffffffffffffffff81111561462f5761462e61370a565b5b6146398254614170565b614644828285614580565b600060209050601f8311600181146146775760008415614665578287015190505b61466f85826145f1565b8655506146d7565b601f19841661468586614461565b60005b828110156146ad57848901518255600182019150602085019450602081019050614688565b868310156146ca57848901516146c6601f8916826145d3565b8355505b6001600288020188555050505b505050505050565b60006080820190506146f46000830187613e1f565b6147016020830186613659565b61470e6040830185613e1f565b61471b6060830184613e1f565b95945050505050565b60008160601b9050919050565b600061473c82614724565b9050919050565b600061474e82614731565b9050919050565b614766614761826132f6565b614743565b82525050565b6000819050919050565b61478761478282613334565b61476c565b82525050565b600081905092915050565b60006147a382613210565b6147ad818561478d565b93506147bd81856020860161322c565b80840191505092915050565b60006147d58287614755565b6014820191506147e58286614776565b6020820191506147f58285614798565b91506148018284614776565b60208201915081905095945050505050565b7f45524332303a2064656372656173656420616c6c6f77616e63652062656c6f7760008201527f207a65726f000000000000000000000000000000000000000000000000000000602082015250565b600061486f60258361321b565b915061487a82614813565b604082019050919050565b6000602082019050818103600083015261489e81614862565b9050919050565b7f696e76616c6964207369676e6174757265206c656e6774680000000000000000600082015250565b60006148db60188361321b565b91506148e6826148a5565b602082019050919050565b6000602082019050818103600083015261490a816148ce565b9050919050565b7f596f7520686164206265656e2072657669657765642074686973207472697000600082015250565b6000614947601f8361321b565b915061495282614911565b602082019050919050565b600060208201905081810360008301526149768161493a565b9050919050565b60008154905061498c81614170565b9050919050565b8181036149a1575050614a79565b6149aa8261497d565b67ffffffffffffffff8111156149c3576149c261370a565b5b6149cd8254614170565b6149d8828285614580565b6000601f831160018114614a0757600084156149f5578287015490505b6149ff85826145f1565b865550614a72565b601f198416614a1587614461565b9650614a2086614461565b60005b82811015614a4857848901548255600182019150600185019450602081019050614a23565b86831015614a655784890154614a61601f8916826145d3565b8355505b6001600288020188555050505b5050505050505b565b600060a082019050614a9060008301886135cf565b614a9d60208301876135cf565b8181036040830152614aaf8186613267565b9050614abe60608301856135cf565b8181036080830152614ad08184613267565b90509695505050505050565b7f5468697320494420616c72656164792065786973746564000000000000000000600082015250565b6000614b1260178361321b565b9150614b1d82614adc565b602082019050919050565b60006020820190508181036000830152614b4181614b05565b9050919050565b7f496e76616c6964205369676e6174757265000000000000000000000000000000600082015250565b6000614b7e60118361321b565b9150614b8982614b48565b602082019050919050565b60006020820190508181036000830152614bad81614b71565b9050919050565b6000614bbf82613334565b9150614bca83613334565b9250828202614bd881613334565b91508282048414831517614bef57614bee6141a1565b5b5092915050565b7f5469636b65742068617320757365640000000000000000000000000000000000600082015250565b6000614c2c600f8361321b565b9150614c3782614bf6565b602082019050919050565b60006020820190508181036000830152614c5b81614c1f565b9050919050565b6000604082019050614c7760008301856135cf565b614c8460208301846135cf565b9392505050565b7f19457468657265756d205369676e6564204d6573736167653a0a333200000000600082015250565b6000614cc1601c8361478d565b9150614ccc82614c8b565b601c82019050919050565b6000819050919050565b614cf2614ced82613cef565b614cd7565b82525050565b6000614d0382614cb4565b9150614d0f8284614ce1565b60208201915081905092915050565b7f45524332303a20617070726f76652066726f6d20746865207a65726f2061646460008201527f7265737300000000000000000000000000000000000000000000000000000000602082015250565b6000614d7a60248361321b565b9150614d8582614d1e565b604082019050919050565b60006020820190508181036000830152614da981614d6d565b9050919050565b7f45524332303a20617070726f766520746f20746865207a65726f20616464726560008201527f7373000000000000000000000000000000000000000000000000000000000000602082015250565b6000614e0c60228361321b565b9150614e1782614db0565b604082019050919050565b60006020820190508181036000830152614e3b81614dff565b9050919050565b7f45524332303a20696e73756666696369656e7420616c6c6f77616e6365000000600082015250565b6000614e78601d8361321b565b9150614e8382614e42565b602082019050919050565b60006020820190508181036000830152614ea781614e6b565b9050919050565b7f45524332303a207472616e736665722066726f6d20746865207a65726f20616460008201527f6472657373000000000000000000000000000000000000000000000000000000602082015250565b6000614f0a60258361321b565b9150614f1582614eae565b604082019050919050565b60006020820190508181036000830152614f3981614efd565b9050919050565b7f45524332303a207472616e7366657220746f20746865207a65726f206164647260008201527f6573730000000000000000000000000000000000000000000000000000000000602082015250565b6000614f9c60238361321b565b9150614fa782614f40565b604082019050919050565b60006020820190508181036000830152614fcb81614f8f565b9050919050565b7f45524332303a207472616e7366657220616d6f756e742065786365656473206260008201527f616c616e63650000000000000000000000000000000000000000000000000000602082015250565b600061502e60268361321b565b915061503982614fd2565b604082019050919050565b6000602082019050818103600083015261505d81615021565b9050919050565b7f45524332303a206275726e2066726f6d20746865207a65726f2061646472657360008201527f7300000000000000000000000000000000000000000000000000000000000000602082015250565b60006150c060218361321b565b91506150cb82615064565b604082019050919050565b600060208201905081810360008301526150ef816150b3565b9050919050565b7f45524332303a206275726e20616d6f756e7420657863656564732062616c616e60008201527f6365000000000000000000000000000000000000000000000000000000000000602082015250565b600061515260228361321b565b915061515d826150f6565b604082019050919050565b6000602082019050818103600083015261518181615145565b9050919050565b7f45524332303a206d696e7420746f20746865207a65726f206164647265737300600082015250565b60006151be601f8361321b565b91506151c982615188565b602082019050919050565b600060208201905081810360008301526151ed816151b1565b905091905056fea26469706673582212204d37dfb0f0dd7bd7351a938ed2f377d2f31739348f856ccfb88b4b4b1a88f38a64736f6c63430008130033",
  "linkReferences": {},
  "deployedLinkReferences": {}
}