{
  "_format": "hh-sol-artifact-1",
  "contractName": "TouristConTract",
  "sourceName": "contracts/Tourism.sol",
  "abi": [
    {
      "inputs": [],
      "stateMutability": "nonpayable",
      "type": "constructor"
    },
    {
      "anonymous": false,
      "inputs": [
        {
          "indexed": false,
          "internalType": "string",
          "name": "AlbumName",
          "type": "string"
        },
        {
          "components": [
            {
              "internalType": "uint256",
              "name": "placeId",
              "type": "uint256"
            },
            {
              "internalType": "uint256",
              "name": "arrivalDate",
              "type": "uint256"
            },
            {
              "internalType": "string",
              "name": "review",
              "type": "string"
            },
            {
              "internalType": "uint256",
              "name": "rate",
              "type": "uint256"
            },
            {
              "internalType": "bool",
              "name": "isReview",
              "type": "bool"
            },
            {
              "internalType": "string",
              "name": "title",
              "type": "string"
            }
          ],
          "indexed": false,
          "internalType": "struct TouristConTract.Journey",
          "name": "journey",
          "type": "tuple"
        }
      ],
      "name": "AddJourneyInAlbum",
      "type": "event"
    },
    {
      "anonymous": false,
      "inputs": [
        {
          "indexed": false,
          "internalType": "string",
          "name": "name",
          "type": "string"
        },
        {
          "indexed": false,
          "internalType": "uint256",
          "name": "age",
          "type": "uint256"
        }
      ],
      "name": "AddTourist",
      "type": "event"
    },
    {
      "anonymous": false,
      "inputs": [
        {
          "indexed": true,
          "internalType": "address",
          "name": "owner",
          "type": "address"
        },
        {
          "indexed": true,
          "internalType": "address",
          "name": "spender",
          "type": "address"
        },
        {
          "indexed": false,
          "internalType": "uint256",
          "name": "value",
          "type": "uint256"
        }
      ],
      "name": "Approval",
      "type": "event"
    },
    {
      "anonymous": false,
      "inputs": [
        {
          "indexed": false,
          "internalType": "uint256",
          "name": "ticketId",
          "type": "uint256"
        },
        {
          "indexed": false,
          "internalType": "uint256",
          "name": "placeId",
          "type": "uint256"
        }
      ],
      "name": "CheckIn",
      "type": "event"
    },
    {
      "anonymous": false,
      "inputs": [
        {
          "indexed": false,
          "internalType": "uint256",
          "name": "_id",
          "type": "uint256"
        },
        {
          "indexed": false,
          "internalType": "string",
          "name": "_name",
          "type": "string"
        }
      ],
      "name": "CreateAlbum",
      "type": "event"
    },
    {
      "anonymous": false,
      "inputs": [
        {
          "indexed": true,
          "internalType": "address",
          "name": "from",
          "type": "address"
        },
        {
          "indexed": true,
          "internalType": "address",
          "name": "to",
          "type": "address"
        },
        {
          "indexed": false,
          "internalType": "uint256",
          "name": "value",
          "type": "uint256"
        }
      ],
      "name": "Transfer",
      "type": "event"
    },
    {
      "inputs": [
        {
          "internalType": "address",
          "name": "_signer",
          "type": "address"
        },
        {
          "internalType": "address",
          "name": "_to",
          "type": "address"
        },
        {
          "internalType": "uint256",
          "name": "_amount",
          "type": "uint256"
        },
        {
          "internalType": "string",
          "name": "_message",
          "type": "string"
        },
        {
          "internalType": "uint256",
          "name": "_nonce",
          "type": "uint256"
        },
        {
          "internalType": "bytes",
          "name": "signature",
          "type": "bytes"
        }
      ],
      "name": "_mintMinerReward",
      "outputs": [],
      "stateMutability": "nonpayable",
      "type": "function"
    },
    {
      "inputs": [
        {
          "internalType": "uint256",
          "name": "placeId",
          "type": "uint256"
        },
        {
          "internalType": "uint256",
          "name": "albumId",
          "type": "uint256"
        },
        {
          "internalType": "uint256",
          "name": "date",
          "type": "uint256"
        }
      ],
      "name": "addAlbumJourney",
      "outputs": [],
      "stateMutability": "nonpayable",
      "type": "function"
    },
    {
      "inputs": [
        {
          "internalType": "uint256",
          "name": "id",
          "type": "uint256"
        }
      ],
      "name": "addTicket",
      "outputs": [],
      "stateMutability": "nonpayable",
      "type": "function"
    },
    {
      "inputs": [
        {
          "internalType": "address",
          "name": "",
          "type": "address"
        },
        {
          "internalType": "uint256",
          "name": "",
          "type": "uint256"
        },
        {
          "internalType": "uint256",
          "name": "",
          "type": "uint256"
        }
      ],
      "name": "albumJourneys",
      "outputs": [
        {
          "internalType": "uint256",
          "name": "placeId",
          "type": "uint256"
        },
        {
          "internalType": "uint256",
          "name": "arrivalDate",
          "type": "uint256"
        },
        {
          "internalType": "string",
          "name": "review",
          "type": "string"
        },
        {
          "internalType": "uint256",
          "name": "rate",
          "type": "uint256"
        },
        {
          "internalType": "bool",
          "name": "isReview",
          "type": "bool"
        },
        {
          "internalType": "string",
          "name": "title",
          "type": "string"
        }
      ],
      "stateMutability": "view",
      "type": "function"
    },
    {
      "inputs": [
        {
          "internalType": "address",
          "name": "owner",
          "type": "address"
        },
        {
          "internalType": "address",
          "name": "spender",
          "type": "address"
        }
      ],
      "name": "allowance",
      "outputs": [
        {
          "internalType": "uint256",
          "name": "",
          "type": "uint256"
        }
      ],
      "stateMutability": "view",
      "type": "function"
    },
    {
      "inputs": [
        {
          "internalType": "address",
          "name": "spender",
          "type": "address"
        },
        {
          "internalType": "uint256",
          "name": "amount",
          "type": "uint256"
        }
      ],
      "name": "approve",
      "outputs": [
        {
          "internalType": "bool",
          "name": "",
          "type": "bool"
        }
      ],
      "stateMutability": "nonpayable",
      "type": "function"
    },
    {
      "inputs": [
        {
          "internalType": "address",
          "name": "account",
          "type": "address"
        }
      ],
      "name": "balanceOf",
      "outputs": [
        {
          "internalType": "uint256",
          "name": "",
          "type": "uint256"
        }
      ],
      "stateMutability": "view",
      "type": "function"
    },
    {
      "inputs": [
        {
          "internalType": "uint256",
          "name": "ticketID",
          "type": "uint256"
        },
        {
          "internalType": "uint256",
          "name": "placeID",
          "type": "uint256"
        }
      ],
      "name": "checkIn",
      "outputs": [],
      "stateMutability": "nonpayable",
      "type": "function"
    },
    {
      "inputs": [
        {
          "internalType": "uint256",
          "name": "ticketID",
          "type": "uint256"
        }
      ],
      "name": "checkValidTicket",
      "outputs": [
        {
          "internalType": "bool",
          "name": "",
          "type": "bool"
        }
      ],
      "stateMutability": "view",
      "type": "function"
    },
    {
      "inputs": [
        {
          "internalType": "bytes32",
          "name": "_hashedMessage",
          "type": "bytes32"
        },
        {
          "internalType": "uint8",
          "name": "_v",
          "type": "uint8"
        },
        {
          "internalType": "bytes32",
          "name": "_r",
          "type": "bytes32"
        },
        {
          "internalType": "bytes32",
          "name": "_s",
          "type": "bytes32"
        }
      ],
      "name": "claimPrize",
      "outputs": [
        {
          "internalType": "bool",
          "name": "",
          "type": "bool"
        }
      ],
      "stateMutability": "view",
      "type": "function"
    },
    {
      "inputs": [
        {
          "internalType": "uint256",
          "name": "_id",
          "type": "uint256"
        },
        {
          "internalType": "string",
          "name": "_name",
          "type": "string"
        }
      ],
      "name": "createAlbum",
      "outputs": [],
      "stateMutability": "nonpayable",
      "type": "function"
    },
    {
      "inputs": [],
      "name": "decimals",
      "outputs": [
        {
          "internalType": "uint8",
          "name": "",
          "type": "uint8"
        }
      ],
      "stateMutability": "view",
      "type": "function"
    },
    {
      "inputs": [
        {
          "internalType": "address",
          "name": "spender",
          "type": "address"
        },
        {
          "internalType": "uint256",
          "name": "subtractedValue",
          "type": "uint256"
        }
      ],
      "name": "decreaseAllowance",
      "outputs": [
        {
          "internalType": "bool",
          "name": "",
          "type": "bool"
        }
      ],
      "stateMutability": "nonpayable",
      "type": "function"
    },
    {
      "inputs": [
        {
          "internalType": "uint256",
          "name": "",
          "type": "uint256"
        },
        {
          "internalType": "uint256",
          "name": "",
          "type": "uint256"
        }
      ],
      "name": "destinationRates",
      "outputs": [
        {
          "internalType": "uint256",
          "name": "",
          "type": "uint256"
        }
      ],
      "stateMutability": "view",
      "type": "function"
    },
    {
      "inputs": [
        {
          "internalType": "uint256",
          "name": "",
          "type": "uint256"
        },
        {
          "internalType": "uint256",
          "name": "",
          "type": "uint256"
        }
      ],
      "name": "destinationReviews",
      "outputs": [
        {
          "internalType": "string",
          "name": "",
          "type": "string"
        }
      ],
      "stateMutability": "view",
      "type": "function"
    },
    {
      "inputs": [
        {
          "internalType": "uint256",
          "name": "id",
          "type": "uint256"
        }
      ],
      "name": "getAlbumCheckIn",
      "outputs": [
        {
          "components": [
            {
              "internalType": "uint256",
              "name": "placeId",
              "type": "uint256"
            },
            {
              "internalType": "uint256",
              "name": "arrivalDate",
              "type": "uint256"
            },
            {
              "internalType": "string",
              "name": "review",
              "type": "string"
            },
            {
              "internalType": "uint256",
              "name": "rate",
              "type": "uint256"
            },
            {
              "internalType": "bool",
              "name": "isReview",
              "type": "bool"
            },
            {
              "internalType": "string",
              "name": "title",
              "type": "string"
            }
          ],
          "internalType": "struct TouristConTract.Journey[]",
          "name": "",
          "type": "tuple[]"
        }
      ],
      "stateMutability": "view",
      "type": "function"
    },
    {
      "inputs": [],
      "name": "getAllJourney",
      "outputs": [
        {
          "components": [
            {
              "internalType": "uint256",
              "name": "placeId",
              "type": "uint256"
            },
            {
              "internalType": "uint256",
              "name": "arrivalDate",
              "type": "uint256"
            },
            {
              "internalType": "string",
              "name": "review",
              "type": "string"
            },
            {
              "internalType": "uint256",
              "name": "rate",
              "type": "uint256"
            },
            {
              "internalType": "bool",
              "name": "isReview",
              "type": "bool"
            },
            {
              "internalType": "string",
              "name": "title",
              "type": "string"
            }
          ],
          "internalType": "struct TouristConTract.Journey[]",
          "name": "",
          "type": "tuple[]"
        }
      ],
      "stateMutability": "view",
      "type": "function"
    },
    {
      "inputs": [
        {
          "internalType": "uint256",
          "name": "placeid",
          "type": "uint256"
        }
      ],
      "name": "getAllRates",
      "outputs": [
        {
          "internalType": "uint256[]",
          "name": "",
          "type": "uint256[]"
        }
      ],
      "stateMutability": "view",
      "type": "function"
    },
    {
      "inputs": [
        {
          "internalType": "uint256",
          "name": "placeid",
          "type": "uint256"
        }
      ],
      "name": "getAllReviews",
      "outputs": [
        {
          "internalType": "string[]",
          "name": "",
          "type": "string[]"
        }
      ],
      "stateMutability": "view",
      "type": "function"
    },
    {
      "inputs": [
        {
          "internalType": "address",
          "name": "add",
          "type": "address"
        }
      ],
      "name": "getBalance",
      "outputs": [
        {
          "internalType": "uint256",
          "name": "",
          "type": "uint256"
        }
      ],
      "stateMutability": "view",
      "type": "function"
    },
    {
      "inputs": [
        {
          "internalType": "bytes32",
          "name": "_messageHash",
          "type": "bytes32"
        }
      ],
      "name": "getEthSignedMessageHash",
      "outputs": [
        {
          "internalType": "bytes32",
          "name": "",
          "type": "bytes32"
        }
      ],
      "stateMutability": "pure",
      "type": "function"
    },
    {
      "inputs": [
        {
          "internalType": "address",
          "name": "_to",
          "type": "address"
        },
        {
          "internalType": "uint256",
          "name": "_amount",
          "type": "uint256"
        },
        {
          "internalType": "string",
          "name": "_message",
          "type": "string"
        },
        {
          "internalType": "uint256",
          "name": "_nonce",
          "type": "uint256"
        }
      ],
      "name": "getMessageHash",
      "outputs": [
        {
          "internalType": "bytes32",
          "name": "",
          "type": "bytes32"
        }
      ],
      "stateMutability": "pure",
      "type": "function"
    },
    {
      "inputs": [
        {
          "internalType": "uint256",
          "name": "placeid",
          "type": "uint256"
        }
      ],
      "name": "getTimeReview",
      "outputs": [
        {
          "internalType": "uint256[]",
          "name": "",
          "type": "uint256[]"
        }
      ],
      "stateMutability": "view",
      "type": "function"
    },
    {
      "inputs": [
        {
          "internalType": "uint256",
          "name": "placeid",
          "type": "uint256"
        }
      ],
      "name": "getTouristReview",
      "outputs": [
        {
          "internalType": "address[]",
          "name": "",
          "type": "address[]"
        }
      ],
      "stateMutability": "view",
      "type": "function"
    },
    {
      "inputs": [
        {
          "internalType": "address",
          "name": "userAddress",
          "type": "address"
        },
        {
          "internalType": "uint256",
          "name": "role",
          "type": "uint256"
        }
      ],
      "name": "grantRole",
      "outputs": [],
      "stateMutability": "nonpayable",
      "type": "function"
    },
    {
      "inputs": [
        {
          "internalType": "address",
          "name": "spender",
          "type": "address"
        },
        {
          "internalType": "uint256",
          "name": "addedValue",
          "type": "uint256"
        }
      ],
      "name": "increaseAllowance",
      "outputs": [
        {
          "internalType": "bool",
          "name": "",
          "type": "bool"
        }
      ],
      "stateMutability": "nonpayable",
      "type": "function"
    },
    {
      "inputs": [],
      "name": "name",
      "outputs": [
        {
          "internalType": "string",
          "name": "",
          "type": "string"
        }
      ],
      "stateMutability": "view",
      "type": "function"
    },
    {
      "inputs": [
        {
          "internalType": "uint256",
          "name": "",
          "type": "uint256"
        }
      ],
      "name": "noPeopleCheckIn",
      "outputs": [
        {
          "internalType": "uint256",
          "name": "",
          "type": "uint256"
        }
      ],
      "stateMutability": "view",
      "type": "function"
    },
    {
      "inputs": [
        {
          "internalType": "uint256",
          "name": "",
          "type": "uint256"
        }
      ],
      "name": "noPeopleRate",
      "outputs": [
        {
          "internalType": "uint256",
          "name": "",
          "type": "uint256"
        }
      ],
      "stateMutability": "view",
      "type": "function"
    },
    {
      "inputs": [
        {
          "internalType": "bytes32",
          "name": "_ethSignedMessageHash",
          "type": "bytes32"
        },
        {
          "internalType": "bytes",
          "name": "_signature",
          "type": "bytes"
        }
      ],
      "name": "recoverSigner",
      "outputs": [
        {
          "internalType": "address",
          "name": "",
          "type": "address"
        }
      ],
      "stateMutability": "pure",
      "type": "function"
    },
    {
      "inputs": [
        {
          "internalType": "string",
          "name": "name",
          "type": "string"
        },
        {
          "internalType": "uint256",
          "name": "age",
          "type": "uint256"
        }
      ],
      "name": "register",
      "outputs": [],
      "stateMutability": "nonpayable",
      "type": "function"
    },
    {
      "inputs": [
        {
          "internalType": "uint256",
          "name": "placeId",
          "type": "uint256"
        },
        {
          "internalType": "uint256",
          "name": "arrDate",
          "type": "uint256"
        },
        {
          "internalType": "string",
          "name": "comment",
          "type": "string"
        },
        {
          "internalType": "uint256",
          "name": "rate",
          "type": "uint256"
        },
        {
          "internalType": "string",
          "name": "title",
          "type": "string"
        }
      ],
      "name": "review",
      "outputs": [],
      "stateMutability": "nonpayable",
      "type": "function"
    },
    {
      "inputs": [
        {
          "internalType": "bytes",
          "name": "sig",
          "type": "bytes"
        }
      ],
      "name": "splitSignature",
      "outputs": [
        {
          "internalType": "bytes32",
          "name": "r",
          "type": "bytes32"
        },
        {
          "internalType": "bytes32",
          "name": "s",
          "type": "bytes32"
        },
        {
          "internalType": "uint8",
          "name": "v",
          "type": "uint8"
        }
      ],
      "stateMutability": "pure",
      "type": "function"
    },
    {
      "inputs": [],
      "name": "symbol",
      "outputs": [
        {
          "internalType": "string",
          "name": "",
          "type": "string"
        }
      ],
      "stateMutability": "view",
      "type": "function"
    },
    {
      "inputs": [
        {
          "internalType": "uint256",
          "name": "",
          "type": "uint256"
        },
        {
          "internalType": "uint256",
          "name": "",
          "type": "uint256"
        }
      ],
      "name": "timeReview",
      "outputs": [
        {
          "internalType": "uint256",
          "name": "",
          "type": "uint256"
        }
      ],
      "stateMutability": "view",
      "type": "function"
    },
    {
      "inputs": [],
      "name": "totalSupply",
      "outputs": [
        {
          "internalType": "uint256",
          "name": "",
          "type": "uint256"
        }
      ],
      "stateMutability": "view",
      "type": "function"
    },
    {
      "inputs": [
        {
          "internalType": "address",
          "name": "",
          "type": "address"
        },
        {
          "internalType": "uint256",
          "name": "",
          "type": "uint256"
        }
      ],
      "name": "touristAlbums",
      "outputs": [
        {
          "internalType": "uint256",
          "name": "id",
          "type": "uint256"
        },
        {
          "internalType": "string",
          "name": "name",
          "type": "string"
        }
      ],
      "stateMutability": "view",
      "type": "function"
    },
    {
      "inputs": [
        {
          "internalType": "address",
          "name": "",
          "type": "address"
        }
      ],
      "name": "touristIdentify",
      "outputs": [
        {
          "internalType": "string",
          "name": "name",
          "type": "string"
        },
        {
          "internalType": "uint256",
          "name": "age",
          "type": "uint256"
        },
        {
          "internalType": "bool",
          "name": "signup",
          "type": "bool"
        },
        {
          "internalType": "address",
          "name": "touristAddress",
          "type": "address"
        }
      ],
      "stateMutability": "view",
      "type": "function"
    },
    {
      "inputs": [
        {
          "internalType": "address",
          "name": "",
          "type": "address"
        },
        {
          "internalType": "uint256",
          "name": "",
          "type": "uint256"
        }
      ],
      "name": "touristJourneys",
      "outputs": [
        {
          "internalType": "uint256",
          "name": "placeId",
          "type": "uint256"
        },
        {
          "internalType": "uint256",
          "name": "arrivalDate",
          "type": "uint256"
        },
        {
          "internalType": "string",
          "name": "review",
          "type": "string"
        },
        {
          "internalType": "uint256",
          "name": "rate",
          "type": "uint256"
        },
        {
          "internalType": "bool",
          "name": "isReview",
          "type": "bool"
        },
        {
          "internalType": "string",
          "name": "title",
          "type": "string"
        }
      ],
      "stateMutability": "view",
      "type": "function"
    },
    {
      "inputs": [
        {
          "internalType": "uint256",
          "name": "",
          "type": "uint256"
        },
        {
          "internalType": "uint256",
          "name": "",
          "type": "uint256"
        }
      ],
      "name": "touristReview",
      "outputs": [
        {
          "internalType": "address",
          "name": "",
          "type": "address"
        }
      ],
      "stateMutability": "view",
      "type": "function"
    },
    {
      "inputs": [
        {
          "internalType": "address",
          "name": "to",
          "type": "address"
        },
        {
          "internalType": "uint256",
          "name": "amount",
          "type": "uint256"
        }
      ],
      "name": "transfer",
      "outputs": [
        {
          "internalType": "bool",
          "name": "",
          "type": "bool"
        }
      ],
      "stateMutability": "nonpayable",
      "type": "function"
    },
    {
      "inputs": [
        {
          "internalType": "address",
          "name": "from",
          "type": "address"
        },
        {
          "internalType": "address",
          "name": "to",
          "type": "address"
        },
        {
          "internalType": "uint256",
          "name": "amount",
          "type": "uint256"
        }
      ],
      "name": "transferFrom",
      "outputs": [
        {
          "internalType": "bool",
          "name": "",
          "type": "bool"
        }
      ],
      "stateMutability": "nonpayable",
      "type": "function"
    },
    {
      "inputs": [
        {
          "internalType": "uint256",
          "name": "id",
          "type": "uint256"
        }
      ],
      "name": "validAddIDTicket",
      "outputs": [
        {
          "internalType": "bool",
          "name": "",
          "type": "bool"
        }
      ],
      "stateMutability": "view",
      "type": "function"
    },
    {
      "inputs": [
        {
          "internalType": "address",
          "name": "_signer",
          "type": "address"
        },
        {
          "internalType": "address",
          "name": "_to",
          "type": "address"
        },
        {
          "internalType": "uint256",
          "name": "_amount",
          "type": "uint256"
        },
        {
          "internalType": "string",
          "name": "_message",
          "type": "string"
        },
        {
          "internalType": "uint256",
          "name": "_nonce",
          "type": "uint256"
        },
        {
          "internalType": "bytes",
          "name": "signature",
          "type": "bytes"
        }
      ],
      "name": "verify",
      "outputs": [
        {
          "internalType": "bool",
          "name": "",
          "type": "bool"
        }
      ],
      "stateMutability": "pure",
      "type": "function"
    }
  ],
  "bytecode": "0x60806040523480156200001157600080fd5b506040518060400160405280600781526020017f4443546f6b656e000000000000000000000000000000000000000000000000008152506040518060400160405280600281526020017f587500000000000000000000000000000000000000000000000000000000000081525081600390816200008f919062000c88565b508060049081620000a1919062000c88565b50505060096040518060400160405280600181526020016000151581525090806001815401808255809150506001900390600052602060002090600202016000909190919091506000820151816000015560208201518160010160006101000a81548160ff021916908315150217905550505060096040518060400160405280600281526020016000151581525090806001815401808255809150506001900390600052602060002090600202016000909190919091506000820151816000015560208201518160010160006101000a81548160ff021916908315150217905550505060096040518060400160405280600381526020016000151581525090806001815401808255809150506001900390600052602060002090600202016000909190919091506000820151816000015560208201518160010160006101000a81548160ff021916908315150217905550505060096040518060400160405280600481526020016000151581525090806001815401808255809150506001900390600052602060002090600202016000909190919091506000820151816000015560208201518160010160006101000a81548160ff021916908315150217905550505060096040518060400160405280600581526020016000151581525090806001815401808255809150506001900390600052602060002090600202016000909190919091506000820151816000015560208201518160010160006101000a81548160ff021916908315150217905550505060096040518060400160405280600681526020016000151581525090806001815401808255809150506001900390600052602060002090600202016000909190919091506000820151816000015560208201518160010160006101000a81548160ff021916908315150217905550505060096040518060400160405280600781526020016000151581525090806001815401808255809150506001900390600052602060002090600202016000909190919091506000820151816000015560208201518160010160006101000a81548160ff021916908315150217905550505060096040518060400160405280600881526020016000151581525090806001815401808255809150506001900390600052602060002090600202016000909190919091506000820151816000015560208201518160010160006101000a81548160ff021916908315150217905550505060096040518060400160405280600981526020016000151581525090806001815401808255809150506001900390600052602060002090600202016000909190919091506000820151816000015560208201518160010160006101000a81548160ff021916908315150217905550505060096040518060400160405280600a81526020016000151581525090806001815401808255809150506001900390600052602060002090600202016000909190919091506000820151816000015560208201518160010160006101000a81548160ff021916908315150217905550505060096040518060400160405280600b81526020016000151581525090806001815401808255809150506001900390600052602060002090600202016000909190919091506000820151816000015560208201518160010160006101000a81548160ff021916908315150217905550505060096040518060400160405280600c81526020016000151581525090806001815401808255809150506001900390600052602060002090600202016000909190919091506000820151816000015560208201518160010160006101000a81548160ff021916908315150217905550505060096040518060400160405280600d81526020016000151581525090806001815401808255809150506001900390600052602060002090600202016000909190919091506000820151816000015560208201518160010160006101000a81548160ff021916908315150217905550505060096040518060400160405280600e81526020016000151581525090806001815401808255809150506001900390600052602060002090600202016000909190919091506000820151816000015560208201518160010160006101000a81548160ff021916908315150217905550505060096040518060400160405280600f81526020016000151581525090806001815401808255809150506001900390600052602060002090600202016000909190919091506000820151816000015560208201518160010160006101000a81548160ff021916908315150217905550505060096040518060400160405280601081526020016000151581525090806001815401808255809150506001900390600052602060002090600202016000909190919091506000820151816000015560208201518160010160006101000a81548160ff021916908315150217905550505060096040518060400160405280601181526020016000151581525090806001815401808255809150506001900390600052602060002090600202016000909190919091506000820151816000015560208201518160010160006101000a81548160ff021916908315150217905550505060096040518060400160405280601281526020016000151581525090806001815401808255809150506001900390600052602060002090600202016000909190919091506000820151816000015560208201518160010160006101000a81548160ff021916908315150217905550505060096040518060400160405280601381526020016000151581525090806001815401808255809150506001900390600052602060002090600202016000909190919091506000820151816000015560208201518160010160006101000a81548160ff021916908315150217905550505060096040518060400160405280601481526020016000151581525090806001815401808255809150506001900390600052602060002090600202016000909190919091506000820151816000015560208201518160010160006101000a81548160ff02191690831515021790555050506006339080600181540180825580915050600190039060005260206000200160009091909190916101000a81548173ffffffffffffffffffffffffffffffffffffffff021916908373ffffffffffffffffffffffffffffffffffffffff16021790555033600560006101000a81548173ffffffffffffffffffffffffffffffffffffffff021916908373ffffffffffffffffffffffffffffffffffffffff16021790555062000d6f565b600081519050919050565b7f4e487b7100000000000000000000000000000000000000000000000000000000600052604160045260246000fd5b7f4e487b7100000000000000000000000000000000000000000000000000000000600052602260045260246000fd5b6000600282049050600182168062000a9057607f821691505b60208210810362000aa65762000aa562000a48565b5b50919050565b60008190508160005260206000209050919050565b60006020601f8301049050919050565b600082821b905092915050565b60006008830262000b107fffffffffffffffffffffffffffffffffffffffffffffffffffffffffffffffff8262000ad1565b62000b1c868362000ad1565b95508019841693508086168417925050509392505050565b6000819050919050565b6000819050919050565b600062000b6962000b6362000b5d8462000b34565b62000b3e565b62000b34565b9050919050565b6000819050919050565b62000b858362000b48565b62000b9d62000b948262000b70565b84845462000ade565b825550505050565b600090565b62000bb462000ba5565b62000bc181848462000b7a565b505050565b5b8181101562000be95762000bdd60008262000baa565b60018101905062000bc7565b5050565b601f82111562000c385762000c028162000aac565b62000c0d8462000ac1565b8101602085101562000c1d578190505b62000c3562000c2c8562000ac1565b83018262000bc6565b50505b505050565b600082821c905092915050565b600062000c5d6000198460080262000c3d565b1980831691505092915050565b600062000c78838362000c4a565b9150826002028217905092915050565b62000c938262000a0e565b67ffffffffffffffff81111562000caf5762000cae62000a19565b5b62000cbb825462000a77565b62000cc882828562000bed565b600060209050601f83116001811462000d00576000841562000ceb578287015190505b62000cf7858262000c6a565b86555062000d67565b601f19841662000d108662000aac565b60005b8281101562000d3a5784890151825560018201915060208501945060208101905062000d13565b8683101562000d5a578489015162000d56601f89168262000c4a565b8355505b6001600288020188555050505b505050505050565b6158248062000d7f6000396000f3fe608060405234801561001057600080fd5b50600436106102745760003560e01c806395d89b4111610151578063b4291319116100c3578063ebfbdec911610087578063ebfbdec9146108be578063f2fa49b4146108ee578063f516f88e14610923578063f8b2cb4f1461093f578063fa5408011461096f578063facc2f091461099f57610274565b8063b42913191461080a578063b9c3b1b914610826578063dd62ed3e14610856578063ddb0225e14610886578063ea87152b146108a257610274565b8063a457c2d711610115578063a457c2d7146106fc578063a7bb58031461072c578063a9059cbb1461075e578063abe5026a1461078e578063b2162415146107be578063b2745930146107da57610274565b806395d89b411461061e57806397aba7f91461063c5780639e26c4941461066c5780639f7bdca11461069c578063a35f8a40146106cc57610274565b80635cab0d00116101ea57806370a08231116101ae57806370a0823114610512578063732a7c2514610542578063789024221461055e5780637cecfbcf1461058e5780638aca6c9c146105be57806393f40521146105ee57610274565b80635cab0d00146104325780636012f3be1461046257806362533665146104935780636787d244146104c6578063701a0e0d146104f657610274565b8063285f293b1161023c578063285f293b14610333578063313ce56714610363578063374936821461038157806339509351146103b65780633c09e2fd146103e65780635780cadf1461040257610274565b806306fdde0314610279578063095ea7b3146102975780630f13090e146102c757806318160ddd146102e557806323b872dd14610303575b600080fd5b6102816109cf565b60405161028e91906139dd565b60405180910390f35b6102b160048036038101906102ac9190613aa7565b610a61565b6040516102be9190613b02565b60405180910390f35b6102cf610a84565b6040516102dc9190613cd7565b60405180910390f35b6102ed610c7d565b6040516102fa9190613d08565b60405180910390f35b61031d60048036038101906103189190613d23565b610c87565b60405161032a9190613b02565b60405180910390f35b61034d60048036038101906103489190613d76565b610cb6565b60405161035a9190613cd7565b60405180910390f35b61036b610ec2565b6040516103789190613dbf565b60405180910390f35b61039b60048036038101906103969190613aa7565b610ecb565b6040516103ad96959493929190613dda565b60405180910390f35b6103d060048036038101906103cb9190613aa7565b611041565b6040516103dd9190613b02565b60405180910390f35b61040060048036038101906103fb9190613aa7565b611078565b005b61041c60048036038101906104179190613d76565b611287565b6040516104299190613ef8565b60405180910390f35b61044c60048036038101906104479190613d76565b6112f2565b6040516104599190613d08565b60405180910390f35b61047c60048036038101906104779190613aa7565b61130a565b60405161048a929190613f1a565b60405180910390f35b6104ad60048036038101906104a89190613f4a565b6113d3565b6040516104bd9493929190613f86565b60405180910390f35b6104e060048036038101906104db9190613fd2565b6114b8565b6040516104ed91906139dd565b60405180910390f35b610510600480360381019061050b9190614012565b611571565b005b61052c60048036038101906105279190613f4a565b611a25565b6040516105399190613d08565b60405180910390f35b61055c6004803603810190610557919061419a565b611a6d565b005b61057860048036038101906105739190613d76565b611b49565b6040516105859190613ef8565b60405180910390f35b6105a860048036038101906105a39190613fd2565b611bb4565b6040516105b591906141f6565b60405180910390f35b6105d860048036038101906105d39190613d76565b611c02565b6040516105e591906142cf565b60405180910390f35b61060860048036038101906106039190613d76565b611ca3565b6040516106159190613b02565b60405180910390f35b610626611d4b565b60405161063391906139dd565b60405180910390f35b610656600480360381019061065191906143c8565b611ddd565b60405161066391906141f6565b60405180910390f35b61068660048036038101906106819190613d76565b611e4c565b6040516106939190613b02565b60405180910390f35b6106b660048036038101906106b19190613d76565b611eb5565b6040516106c39190613d08565b60405180910390f35b6106e660048036038101906106e19190614424565b611ecd565b6040516106f391906144b6565b60405180910390f35b61071660048036038101906107119190613aa7565b611f06565b6040516107239190613b02565b60405180910390f35b610746600480360381019061074191906144d1565b611f7d565b6040516107559392919061451a565b60405180910390f35b61077860048036038101906107739190613aa7565b611fe5565b6040516107859190613b02565b60405180910390f35b6107a860048036038101906107a39190614551565b612008565b6040516107b59190613b02565b60405180910390f35b6107d860048036038101906107d39190614616565b61206c565b005b6107f460048036038101906107ef9190613d76565b612511565b604051610801919061478b565b60405180910390f35b610824600480360381019061081f9190613d76565b6125fd565b005b610840600480360381019061083b91906147d9565b61279c565b60405161084d9190613b02565b60405180910390f35b610870600480360381019061086b9190614840565b6128c8565b60405161087d9190613d08565b60405180910390f35b6108a0600480360381019061089b9190614551565b61294f565b005b6108bc60048036038101906108b79190614880565b612977565b005b6108d860048036038101906108d39190613fd2565b612c70565b6040516108e59190613d08565b60405180910390f35b610908600480360381019061090391906148dc565b612ca1565b60405161091a96959493929190613dda565b60405180910390f35b61093d60048036038101906109389190613fd2565b612e24565b005b61095960048036038101906109549190613f4a565b6130b5565b6040516109669190613d08565b60405180910390f35b6109896004803603810190610984919061492f565b6130bc565b60405161099691906144b6565b60405180910390f35b6109b960048036038101906109b49190613fd2565b6130ec565b6040516109c69190613d08565b60405180910390f35b6060600380546109de9061498b565b80601f0160208091040260200160405190810160405280929190818152602001828054610a0a9061498b565b8015610a575780601f10610a2c57610100808354040283529160200191610a57565b820191906000526020600020905b815481529060010190602001808311610a3a57829003601f168201915b5050505050905090565b600080610a6c61311d565b9050610a79818585613125565b600191505092915050565b6060600c60003373ffffffffffffffffffffffffffffffffffffffff1673ffffffffffffffffffffffffffffffffffffffff168152602001908152602001600020805480602002602001604051908101604052809291908181526020016000905b82821015610c7457838290600052602060002090600602016040518060c00160405290816000820154815260200160018201548152602001600282018054610b2c9061498b565b80601f0160208091040260200160405190810160405280929190818152602001828054610b589061498b565b8015610ba55780601f10610b7a57610100808354040283529160200191610ba5565b820191906000526020600020905b815481529060010190602001808311610b8857829003601f168201915b50505050508152602001600382015481526020016004820160009054906101000a900460ff16151515158152602001600582018054610be39061498b565b80601f0160208091040260200160405190810160405280929190818152602001828054610c0f9061498b565b8015610c5c5780601f10610c3157610100808354040283529160200191610c5c565b820191906000526020600020905b815481529060010190602001808311610c3f57829003601f168201915b50505050508152505081526020019060010190610ae5565b50505050905090565b6000600254905090565b600080610c9261311d565b9050610c9f8582856132ee565b610caa85858561337a565b60019150509392505050565b6060600f60003373ffffffffffffffffffffffffffffffffffffffff1673ffffffffffffffffffffffffffffffffffffffff1681526020019081526020016000206000838152602001908152602001600020805480602002602001604051908101604052809291908181526020016000905b82821015610eb757838290600052602060002090600602016040518060c00160405290816000820154815260200160018201548152602001600282018054610d6f9061498b565b80601f0160208091040260200160405190810160405280929190818152602001828054610d9b9061498b565b8015610de85780601f10610dbd57610100808354040283529160200191610de8565b820191906000526020600020905b815481529060010190602001808311610dcb57829003601f168201915b50505050508152602001600382015481526020016004820160009054906101000a900460ff16151515158152602001600582018054610e269061498b565b80601f0160208091040260200160405190810160405280929190818152602001828054610e529061498b565b8015610e9f5780601f10610e7457610100808354040283529160200191610e9f565b820191906000526020600020905b815481529060010190602001808311610e8257829003601f168201915b50505050508152505081526020019060010190610d28565b505050509050919050565b60006012905090565b600c6020528160005260406000208181548110610ee757600080fd5b906000526020600020906006020160009150915050806000015490806001015490806002018054610f179061498b565b80601f0160208091040260200160405190810160405280929190818152602001828054610f439061498b565b8015610f905780601f10610f6557610100808354040283529160200191610f90565b820191906000526020600020905b815481529060010190602001808311610f7357829003601f168201915b5050505050908060030154908060040160009054906101000a900460ff1690806005018054610fbe9061498b565b80601f0160208091040260200160405190810160405280929190818152602001828054610fea9061498b565b80156110375780601f1061100c57610100808354040283529160200191611037565b820191906000526020600020905b81548152906001019060200180831161101a57829003601f168201915b5050505050905086565b60008061104c61311d565b905061106d81858561105e85896128c8565b61106891906149eb565b613125565b600191505092915050565b6000805b600680549050811015611114576006818154811061109d5761109c614a1f565b5b9060005260206000200160009054906101000a900473ffffffffffffffffffffffffffffffffffffffff1673ffffffffffffffffffffffffffffffffffffffff163373ffffffffffffffffffffffffffffffffffffffff16036111035760019150611114565b8061110d90614a4e565b905061107c565b50600115158115151461115c576040517f08c379a000000000000000000000000000000000000000000000000000000000815260040161115390614b08565b60405180910390fd5b600182148061116b5750600282145b6111aa576040517f08c379a00000000000000000000000000000000000000000000000000000000081526004016111a190614b9a565b60405180910390fd5b60018203611216576006839080600181540180825580915050600190039060005260206000200160009091909190916101000a81548173ffffffffffffffffffffffffffffffffffffffff021916908373ffffffffffffffffffffffffffffffffffffffff1602179055505b60028203611282576007839080600181540180825580915050600190039060005260206000200160009091909190916101000a81548173ffffffffffffffffffffffffffffffffffffffff021916908373ffffffffffffffffffffffffffffffffffffffff1602179055505b505050565b6060601560008381526020019081526020016000208054806020026020016040519081016040528092919081815260200182805480156112e657602002820191906000526020600020905b8154815260200190600101908083116112d2575b50505050509050919050565b60106020528060005260406000206000915090505481565b600e602052816000526040600020818154811061132657600080fd5b9060005260206000209060020201600091509150508060000154908060010180546113509061498b565b80601f016020809104026020016040519081016040528092919081815260200182805461137c9061498b565b80156113c95780601f1061139e576101008083540402835291602001916113c9565b820191906000526020600020905b8154815290600101906020018083116113ac57829003601f168201915b5050505050905082565b600b6020528060005260406000206000915090508060000180546113f69061498b565b80601f01602080910402602001604051908101604052809291908181526020018280546114229061498b565b801561146f5780601f106114445761010080835404028352916020019161146f565b820191906000526020600020905b81548152906001019060200180831161145257829003601f168201915b5050505050908060010154908060020160009054906101000a900460ff16908060020160019054906101000a900473ffffffffffffffffffffffffffffffffffffffff16905084565b601360205281600052604060002081815481106114d457600080fd5b906000526020600020016000915091505080546114f09061498b565b80601f016020809104026020016040519081016040528092919081815260200182805461151c9061498b565b80156115695780601f1061153e57610100808354040283529160200191611569565b820191906000526020600020905b81548152906001019060200180831161154c57829003601f168201915b505050505081565b600061157b613915565b60005b600c60003373ffffffffffffffffffffffffffffffffffffffff1673ffffffffffffffffffffffffffffffffffffffff1681526020019081526020016000208054905081101561199c57600c60003373ffffffffffffffffffffffffffffffffffffffff1673ffffffffffffffffffffffffffffffffffffffff168152602001908152602001600020818154811061161957611618614a1f565b5b9060005260206000209060060201600001548614801561169a575083600c60003373ffffffffffffffffffffffffffffffffffffffff1673ffffffffffffffffffffffffffffffffffffffff168152602001908152602001600020828154811061168657611685614a1f565b5b906000526020600020906006020160010154145b15611989576040518060c00160405280878152602001858152602001600c60003373ffffffffffffffffffffffffffffffffffffffff1673ffffffffffffffffffffffffffffffffffffffff168152602001908152602001600020838154811061170757611706614a1f565b5b906000526020600020906006020160020180546117239061498b565b80601f016020809104026020016040519081016040528092919081815260200182805461174f9061498b565b801561179c5780601f106117715761010080835404028352916020019161179c565b820191906000526020600020905b81548152906001019060200180831161177f57829003601f168201915b50505050508152602001600c60003373ffffffffffffffffffffffffffffffffffffffff1673ffffffffffffffffffffffffffffffffffffffff16815260200190815260200160002083815481106117f7576117f6614a1f565b5b9060005260206000209060060201600301548152602001600c60003373ffffffffffffffffffffffffffffffffffffffff1673ffffffffffffffffffffffffffffffffffffffff168152602001908152602001600020838154811061185f5761185e614a1f565b5b906000526020600020906006020160040160009054906101000a900460ff1615158152602001604051806020016040528060008152508152509150600f60003373ffffffffffffffffffffffffffffffffffffffff1673ffffffffffffffffffffffffffffffffffffffff16815260200190815260200160002060008681526020019081526020016000208290806001815401808255809150506001900390600052602060002090600602016000909190919091506000820151816000015560208201518160010155604082015181600201908161193d9190614d66565b506060820151816003015560808201518160040160006101000a81548160ff02191690831515021790555060a082015181600501908161197d9190614d66565b5050506001925061199c565b808061199490614a4e565b91505061157e565b50816119dd576040517f08c379a00000000000000000000000000000000000000000000000000000000081526004016119d490614e84565b60405180910390fd5b7f6d832360504eb9202946c19cf927d8fd388a9e567a3f7d4bae3077f56ab6c1a1611a07856135f0565b82604051611a16929190614f34565b60405180910390a15050505050565b60008060008373ffffffffffffffffffffffffffffffffffffffff1673ffffffffffffffffffffffffffffffffffffffff168152602001908152602001600020549050919050565b600e60003373ffffffffffffffffffffffffffffffffffffffff1673ffffffffffffffffffffffffffffffffffffffff1681526020019081526020016000206040518060400160405280848152602001838152509080600181540180825580915050600190039060005260206000209060020201600090919091909150600082015181600001556020820151816001019081611b099190614d66565b5050507ff538047aa51f8b732c1850d69564ec0d033aca661921dba9871bf8feff7a435f8282604051611b3d929190613f1a565b60405180910390a15050565b606060126000838152602001908152602001600020805480602002602001604051908101604052809291908181526020018280548015611ba857602002820191906000526020600020905b815481526020019060010190808311611b94575b50505050509050919050565b60146020528160005260406000208181548110611bd057600080fd5b906000526020600020016000915091509054906101000a900473ffffffffffffffffffffffffffffffffffffffff1681565b606060146000838152602001908152602001600020805480602002602001604051908101604052809291908181526020018280548015611c9757602002820191906000526020600020905b8160009054906101000a900473ffffffffffffffffffffffffffffffffffffffff1673ffffffffffffffffffffffffffffffffffffffff1681526020019060010190808311611c4d575b50505050509050919050565b600080600090505b600980549050811015611d405760098181548110611ccc57611ccb614a1f565b5b9060005260206000209060020201600001548303611d2d576001151560098281548110611cfc57611cfb614a1f565b5b906000526020600020906002020160010160009054906101000a900460ff16151503611d2c576000915050611d46565b5b8080611d3890614a4e565b915050611cab565b50600190505b919050565b606060048054611d5a9061498b565b80601f0160208091040260200160405190810160405280929190818152602001828054611d869061498b565b8015611dd35780601f10611da857610100808354040283529160200191611dd3565b820191906000526020600020905b815481529060010190602001808311611db657829003601f168201915b5050505050905090565b600080600080611dec85611f7d565b92509250925060018682858560405160008152602001604052604051611e159493929190614f6b565b6020604051602081039080840390855afa158015611e37573d6000803e3d6000fd5b50505060206040510351935050505092915050565b600080600090505b600980549050811015611eaa5760098181548110611e7557611e74614a1f565b5b9060005260206000209060020201600001548303611e97576000915050611eb0565b8080611ea290614a4e565b915050611e54565b50600190505b919050565b60116020528060005260406000206000915090505481565b600084848484604051602001611ee69493929190615055565b604051602081830303815290604052805190602001209050949350505050565b600080611f1161311d565b90506000611f1f82866128c8565b905083811015611f64576040517f08c379a0000000000000000000000000000000000000000000000000000000008152600401611f5b90615111565b60405180910390fd5b611f718286868403613125565b60019250505092915050565b60008060006041845114611fc6576040517f08c379a0000000000000000000000000000000000000000000000000000000008152600401611fbd9061517d565b60405180910390fd5b6020840151925060408401519150606084015160001a90509193909250565b600080611ff061311d565b9050611ffd81858561337a565b600191505092915050565b60008061201787878787611ecd565b90506000612024826130bc565b90508873ffffffffffffffffffffffffffffffffffffffff166120478286611ddd565b73ffffffffffffffffffffffffffffffffffffffff1614925050509695505050505050565b60005b600c60003373ffffffffffffffffffffffffffffffffffffffff1673ffffffffffffffffffffffffffffffffffffffff168152602001908152602001600020805490508110156123b257600c60003373ffffffffffffffffffffffffffffffffffffffff1673ffffffffffffffffffffffffffffffffffffffff168152602001908152602001600020818154811061210a57612109614a1f565b5b906000526020600020906006020160010154850361239f5760001515600c60003373ffffffffffffffffffffffffffffffffffffffff1673ffffffffffffffffffffffffffffffffffffffff168152602001908152602001600020828154811061217757612176614a1f565b5b906000526020600020906006020160040160009054906101000a900460ff161515146121d8576040517f08c379a00000000000000000000000000000000000000000000000000000000081526004016121cf906151e9565b60405180910390fd5b83600c60003373ffffffffffffffffffffffffffffffffffffffff1673ffffffffffffffffffffffffffffffffffffffff168152602001908152602001600020828154811061222a57612229614a1f565b5b906000526020600020906006020160020190816122479190614d66565b5082600c60003373ffffffffffffffffffffffffffffffffffffffff1673ffffffffffffffffffffffffffffffffffffffff168152602001908152602001600020828154811061229a57612299614a1f565b5b9060005260206000209060060201600301819055506001600c60003373ffffffffffffffffffffffffffffffffffffffff1673ffffffffffffffffffffffffffffffffffffffff168152602001908152602001600020828154811061230257612301614a1f565b5b906000526020600020906006020160040160006101000a81548160ff02191690831515021790555081600c60003373ffffffffffffffffffffffffffffffffffffffff1673ffffffffffffffffffffffffffffffffffffffff168152602001908152602001600020828154811061237c5761237b614a1f565b5b906000526020600020906006020160050190816123999190614d66565b506123b2565b80806123aa90614a4e565b91505061206f565b5060136000868152602001908152602001600020839080600181540180825580915050600190039060005260206000200160009091909190915090816123f89190614d66565b506012600086815260200190815260200160002082908060018154018082558091505060019003906000526020600020016000909190919091505560146000868152602001908152602001600020339080600181540180825580915050600190039060005260206000200160009091909190916101000a81548173ffffffffffffffffffffffffffffffffffffffff021916908373ffffffffffffffffffffffffffffffffffffffff1602179055506015600086815260200190815260200160002042908060018154018082558091505060019003906000526020600020016000909190919091505560116000868152602001908152602001600020600081548092919061250590614a4e565b91905055505050505050565b606060136000838152602001908152602001600020805480602002602001604051908101604052809291908181526020016000905b828210156125f25783829060005260206000200180546125659061498b565b80601f01602080910402602001604051908101604052809291908181526020018280546125919061498b565b80156125de5780601f106125b3576101008083540402835291602001916125de565b820191906000526020600020905b8154815290600101906020018083116125c157829003601f168201915b505050505081526020019060010190612546565b505050509050919050565b6000805b600680549050811015612699576006818154811061262257612621614a1f565b5b9060005260206000200160009054906101000a900473ffffffffffffffffffffffffffffffffffffffff1673ffffffffffffffffffffffffffffffffffffffff163373ffffffffffffffffffffffffffffffffffffffff16036126885760019150612699565b8061269290614a4e565b9050612601565b5060011515811515146126e1576040517f08c379a00000000000000000000000000000000000000000000000000000000081526004016126d890614b08565b60405180910390fd5b6126ea82611e4c565b612729576040517f08c379a000000000000000000000000000000000000000000000000000000000815260040161272090615255565b60405180910390fd5b600960405180604001604052808481526020016000151581525090806001815401808255809150506001900390600052602060002090600202016000909190919091506000820151816000015560208201518160010160006101000a81548160ff02191690831515021790555050505050565b6000806040518060400160405280601c81526020017f19457468657265756d205369676e6564204d6573736167653a0a3332000000008152509050600081876040516020016127ec9291906152dd565b6040516020818303038152906040528051906020012090506000600182888888604051600081526020016040526040516128299493929190614f6b565b6020604051602081039080840390855afa15801561284b573d6000803e3d6000fd5b505050602060405103519050600560009054906101000a900473ffffffffffffffffffffffffffffffffffffffff1673ffffffffffffffffffffffffffffffffffffffff168173ffffffffffffffffffffffffffffffffffffffff16036128b857600193505050506128c0565b600093505050505b949350505050565b6000600160008473ffffffffffffffffffffffffffffffffffffffff1673ffffffffffffffffffffffffffffffffffffffff16815260200190815260200160002060008373ffffffffffffffffffffffffffffffffffffffff1673ffffffffffffffffffffffffffffffffffffffff16815260200190815260200160002054905092915050565b61295d868686868686612008565b1561296f5761296e856103e86137b5565b5b505050505050565b600060405180608001604052808481526020018381526020016001151581526020013373ffffffffffffffffffffffffffffffffffffffff16815250905082600b60003373ffffffffffffffffffffffffffffffffffffffff1673ffffffffffffffffffffffffffffffffffffffff1681526020019081526020016000206000019081612a049190614d66565b5081600b60003373ffffffffffffffffffffffffffffffffffffffff1673ffffffffffffffffffffffffffffffffffffffff1681526020019081526020016000206001018190555033600b60003373ffffffffffffffffffffffffffffffffffffffff1673ffffffffffffffffffffffffffffffffffffffff16815260200190815260200160002060020160016101000a81548173ffffffffffffffffffffffffffffffffffffffff021916908373ffffffffffffffffffffffffffffffffffffffff160217905550600b60003373ffffffffffffffffffffffffffffffffffffffff1673ffffffffffffffffffffffffffffffffffffffff16815260200190815260200160002060020160009054906101000a900460ff16612c3257600a8190806001815401808255809150506001900390600052602060002090600302016000909190919091506000820151816000019081612b629190614d66565b506020820151816001015560408201518160020160006101000a81548160ff02191690831515021790555060608201518160020160016101000a81548173ffffffffffffffffffffffffffffffffffffffff021916908373ffffffffffffffffffffffffffffffffffffffff16021790555050506001600b60003373ffffffffffffffffffffffffffffffffffffffff1673ffffffffffffffffffffffffffffffffffffffff16815260200190815260200160002060020160006101000a81548160ff0219169083151502179055505b7ff9aabaa28b0c7b9b6a80283c8b8fd6983df8e2c5703e65ee433dbbd7373062688383604051612c63929190615305565b60405180910390a1505050565b60126020528160005260406000208181548110612c8c57600080fd5b90600052602060002001600091509150505481565b600f6020528260005260406000206020528160005260406000208181548110612cc957600080fd5b90600052602060002090600602016000925092505050806000015490806001015490806002018054612cfa9061498b565b80601f0160208091040260200160405190810160405280929190818152602001828054612d269061498b565b8015612d735780601f10612d4857610100808354040283529160200191612d73565b820191906000526020600020905b815481529060010190602001808311612d5657829003601f168201915b5050505050908060030154908060040160009054906101000a900460ff1690806005018054612da19061498b565b80601f0160208091040260200160405190810160405280929190818152602001828054612dcd9061498b565b8015612e1a5780601f10612def57610100808354040283529160200191612e1a565b820191906000526020600020905b815481529060010190602001808311612dfd57829003601f168201915b5050505050905086565b6000805b600980549050811015612f2a5760098181548110612e4957612e48614a1f565b5b9060005260206000209060020201600001548403612f175760098181548110612e7557612e74614a1f565b5b906000526020600020906002020160010160009054906101000a900460ff1615612ed4576040517f08c379a0000000000000000000000000000000000000000000000000000000008152600401612ecb90615381565b60405180910390fd5b60019150600160098281548110612eee57612eed614a1f565b5b906000526020600020906002020160010160006101000a81548160ff0219169083151502179055505b8080612f2290614a4e565b915050612e28565b50601060008381526020019081526020016000206000815480929190612f4f90614a4e565b9190505550600c60003373ffffffffffffffffffffffffffffffffffffffff1673ffffffffffffffffffffffffffffffffffffffff1681526020019081526020016000206040518060c0016040528084815260200142815260200160405180602001604052806000815250815260200160008152602001600015158152602001604051806020016040528060008152508152509080600181540180825580915050600190039060005260206000209060060201600090919091909150600082015181600001556020820151816001015560408201518160020190816130349190614d66565b506060820151816003015560808201518160040160006101000a81548160ff02191690831515021790555060a08201518160050190816130749190614d66565b5050507ff165997b5f1d2b5ae2f43279fc978111209309fd44e04343b1ffd71915e62ab583836040516130a89291906153a1565b60405180910390a1505050565b6000919050565b6000816040516020016130cf9190615416565b604051602081830303815290604052805190602001209050919050565b6015602052816000526040600020818154811061310857600080fd5b90600052602060002001600091509150505481565b600033905090565b600073ffffffffffffffffffffffffffffffffffffffff168373ffffffffffffffffffffffffffffffffffffffff1603613194576040517f08c379a000000000000000000000000000000000000000000000000000000000815260040161318b906154ae565b60405180910390fd5b600073ffffffffffffffffffffffffffffffffffffffff168273ffffffffffffffffffffffffffffffffffffffff1603613203576040517f08c379a00000000000000000000000000000000000000000000000000000000081526004016131fa90615540565b60405180910390fd5b80600160008573ffffffffffffffffffffffffffffffffffffffff1673ffffffffffffffffffffffffffffffffffffffff16815260200190815260200160002060008473ffffffffffffffffffffffffffffffffffffffff1673ffffffffffffffffffffffffffffffffffffffff168152602001908152602001600020819055508173ffffffffffffffffffffffffffffffffffffffff168373ffffffffffffffffffffffffffffffffffffffff167f8c5be1e5ebec7d5bd14f71427d1e84f3dd0314c0f7b2291e5b200ac8c7c3b925836040516132e19190613d08565b60405180910390a3505050565b60006132fa84846128c8565b90507fffffffffffffffffffffffffffffffffffffffffffffffffffffffffffffffff81146133745781811015613366576040517f08c379a000000000000000000000000000000000000000000000000000000000815260040161335d906155ac565b60405180910390fd5b6133738484848403613125565b5b50505050565b600073ffffffffffffffffffffffffffffffffffffffff168373ffffffffffffffffffffffffffffffffffffffff16036133e9576040517f08c379a00000000000000000000000000000000000000000000000000000000081526004016133e09061563e565b60405180910390fd5b600073ffffffffffffffffffffffffffffffffffffffff168273ffffffffffffffffffffffffffffffffffffffff1603613458576040517f08c379a000000000000000000000000000000000000000000000000000000000815260040161344f906156d0565b60405180910390fd5b61346383838361390b565b60008060008573ffffffffffffffffffffffffffffffffffffffff1673ffffffffffffffffffffffffffffffffffffffff168152602001908152602001600020549050818110156134e9576040517f08c379a00000000000000000000000000000000000000000000000000000000081526004016134e090615762565b60405180910390fd5b8181036000808673ffffffffffffffffffffffffffffffffffffffff1673ffffffffffffffffffffffffffffffffffffffff16815260200190815260200160002081905550816000808573ffffffffffffffffffffffffffffffffffffffff1673ffffffffffffffffffffffffffffffffffffffff168152602001908152602001600020600082825401925050819055508273ffffffffffffffffffffffffffffffffffffffff168473ffffffffffffffffffffffffffffffffffffffff167fddf252ad1be2c89b69c2b068fc378daa952ba7f163c4a11628f55a4df523b3ef846040516135d79190613d08565b60405180910390a36135ea848484613910565b50505050565b606060005b600e60003373ffffffffffffffffffffffffffffffffffffffff1673ffffffffffffffffffffffffffffffffffffffff168152602001908152602001600020805490508110156137ae57600e60003373ffffffffffffffffffffffffffffffffffffffff1673ffffffffffffffffffffffffffffffffffffffff16815260200190815260200160002081815481106136905761368f614a1f565b5b906000526020600020906002020160000154830361379b57600e60003373ffffffffffffffffffffffffffffffffffffffff1673ffffffffffffffffffffffffffffffffffffffff16815260200190815260200160002081815481106136f9576136f8614a1f565b5b906000526020600020906002020160010180546137159061498b565b80601f01602080910402602001604051908101604052809291908181526020018280546137419061498b565b801561378e5780601f106137635761010080835404028352916020019161378e565b820191906000526020600020905b81548152906001019060200180831161377157829003601f168201915b50505050509150506137b0565b80806137a690614a4e565b9150506135f5565b505b919050565b600073ffffffffffffffffffffffffffffffffffffffff168273ffffffffffffffffffffffffffffffffffffffff1603613824576040517f08c379a000000000000000000000000000000000000000000000000000000000815260040161381b906157ce565b60405180910390fd5b6138306000838361390b565b806002600082825461384291906149eb565b92505081905550806000808473ffffffffffffffffffffffffffffffffffffffff1673ffffffffffffffffffffffffffffffffffffffff168152602001908152602001600020600082825401925050819055508173ffffffffffffffffffffffffffffffffffffffff16600073ffffffffffffffffffffffffffffffffffffffff167fddf252ad1be2c89b69c2b068fc378daa952ba7f163c4a11628f55a4df523b3ef836040516138f39190613d08565b60405180910390a361390760008383613910565b5050565b505050565b505050565b6040518060c0016040528060008152602001600081526020016060815260200160008152602001600015158152602001606081525090565b600081519050919050565b600082825260208201905092915050565b60005b8381101561398757808201518184015260208101905061396c565b60008484015250505050565b6000601f19601f8301169050919050565b60006139af8261394d565b6139b98185613958565b93506139c9818560208601613969565b6139d281613993565b840191505092915050565b600060208201905081810360008301526139f781846139a4565b905092915050565b6000604051905090565b600080fd5b600080fd5b600073ffffffffffffffffffffffffffffffffffffffff82169050919050565b6000613a3e82613a13565b9050919050565b613a4e81613a33565b8114613a5957600080fd5b50565b600081359050613a6b81613a45565b92915050565b6000819050919050565b613a8481613a71565b8114613a8f57600080fd5b50565b600081359050613aa181613a7b565b92915050565b60008060408385031215613abe57613abd613a09565b5b6000613acc85828601613a5c565b9250506020613add85828601613a92565b9150509250929050565b60008115159050919050565b613afc81613ae7565b82525050565b6000602082019050613b176000830184613af3565b92915050565b600081519050919050565b600082825260208201905092915050565b6000819050602082019050919050565b613b5281613a71565b82525050565b600082825260208201905092915050565b6000613b748261394d565b613b7e8185613b58565b9350613b8e818560208601613969565b613b9781613993565b840191505092915050565b613bab81613ae7565b82525050565b600060c083016000830151613bc96000860182613b49565b506020830151613bdc6020860182613b49565b5060408301518482036040860152613bf48282613b69565b9150506060830151613c096060860182613b49565b506080830151613c1c6080860182613ba2565b5060a083015184820360a0860152613c348282613b69565b9150508091505092915050565b6000613c4d8383613bb1565b905092915050565b6000602082019050919050565b6000613c6d82613b1d565b613c778185613b28565b935083602082028501613c8985613b39565b8060005b85811015613cc55784840389528151613ca68582613c41565b9450613cb183613c55565b925060208a01995050600181019050613c8d565b50829750879550505050505092915050565b60006020820190508181036000830152613cf18184613c62565b905092915050565b613d0281613a71565b82525050565b6000602082019050613d1d6000830184613cf9565b92915050565b600080600060608486031215613d3c57613d3b613a09565b5b6000613d4a86828701613a5c565b9350506020613d5b86828701613a5c565b9250506040613d6c86828701613a92565b9150509250925092565b600060208284031215613d8c57613d8b613a09565b5b6000613d9a84828501613a92565b91505092915050565b600060ff82169050919050565b613db981613da3565b82525050565b6000602082019050613dd46000830184613db0565b92915050565b600060c082019050613def6000830189613cf9565b613dfc6020830188613cf9565b8181036040830152613e0e81876139a4565b9050613e1d6060830186613cf9565b613e2a6080830185613af3565b81810360a0830152613e3c81846139a4565b9050979650505050505050565b600081519050919050565b600082825260208201905092915050565b6000819050602082019050919050565b6000613e818383613b49565b60208301905092915050565b6000602082019050919050565b6000613ea582613e49565b613eaf8185613e54565b9350613eba83613e65565b8060005b83811015613eeb578151613ed28882613e75565b9750613edd83613e8d565b925050600181019050613ebe565b5085935050505092915050565b60006020820190508181036000830152613f128184613e9a565b905092915050565b6000604082019050613f2f6000830185613cf9565b8181036020830152613f4181846139a4565b90509392505050565b600060208284031215613f6057613f5f613a09565b5b6000613f6e84828501613a5c565b91505092915050565b613f8081613a33565b82525050565b60006080820190508181036000830152613fa081876139a4565b9050613faf6020830186613cf9565b613fbc6040830185613af3565b613fc96060830184613f77565b95945050505050565b60008060408385031215613fe957613fe8613a09565b5b6000613ff785828601613a92565b925050602061400885828601613a92565b9150509250929050565b60008060006060848603121561402b5761402a613a09565b5b600061403986828701613a92565b935050602061404a86828701613a92565b925050604061405b86828701613a92565b9150509250925092565b600080fd5b600080fd5b7f4e487b7100000000000000000000000000000000000000000000000000000000600052604160045260246000fd5b6140a782613993565b810181811067ffffffffffffffff821117156140c6576140c561406f565b5b80604052505050565b60006140d96139ff565b90506140e5828261409e565b919050565b600067ffffffffffffffff8211156141055761410461406f565b5b61410e82613993565b9050602081019050919050565b82818337600083830152505050565b600061413d614138846140ea565b6140cf565b9050828152602081018484840111156141595761415861406a565b5b61416484828561411b565b509392505050565b600082601f83011261418157614180614065565b5b813561419184826020860161412a565b91505092915050565b600080604083850312156141b1576141b0613a09565b5b60006141bf85828601613a92565b925050602083013567ffffffffffffffff8111156141e0576141df613a0e565b5b6141ec8582860161416c565b9150509250929050565b600060208201905061420b6000830184613f77565b92915050565b600081519050919050565b600082825260208201905092915050565b6000819050602082019050919050565b61424681613a33565b82525050565b6000614258838361423d565b60208301905092915050565b6000602082019050919050565b600061427c82614211565b614286818561421c565b93506142918361422d565b8060005b838110156142c25781516142a9888261424c565b97506142b483614264565b925050600181019050614295565b5085935050505092915050565b600060208201905081810360008301526142e98184614271565b905092915050565b6000819050919050565b614304816142f1565b811461430f57600080fd5b50565b600081359050614321816142fb565b92915050565b600067ffffffffffffffff8211156143425761434161406f565b5b61434b82613993565b9050602081019050919050565b600061436b61436684614327565b6140cf565b9050828152602081018484840111156143875761438661406a565b5b61439284828561411b565b509392505050565b600082601f8301126143af576143ae614065565b5b81356143bf848260208601614358565b91505092915050565b600080604083850312156143df576143de613a09565b5b60006143ed85828601614312565b925050602083013567ffffffffffffffff81111561440e5761440d613a0e565b5b61441a8582860161439a565b9150509250929050565b6000806000806080858703121561443e5761443d613a09565b5b600061444c87828801613a5c565b945050602061445d87828801613a92565b935050604085013567ffffffffffffffff81111561447e5761447d613a0e565b5b61448a8782880161416c565b925050606061449b87828801613a92565b91505092959194509250565b6144b0816142f1565b82525050565b60006020820190506144cb60008301846144a7565b92915050565b6000602082840312156144e7576144e6613a09565b5b600082013567ffffffffffffffff81111561450557614504613a0e565b5b6145118482850161439a565b91505092915050565b600060608201905061452f60008301866144a7565b61453c60208301856144a7565b6145496040830184613db0565b949350505050565b60008060008060008060c0878903121561456e5761456d613a09565b5b600061457c89828a01613a5c565b965050602061458d89828a01613a5c565b955050604061459e89828a01613a92565b945050606087013567ffffffffffffffff8111156145bf576145be613a0e565b5b6145cb89828a0161416c565b93505060806145dc89828a01613a92565b92505060a087013567ffffffffffffffff8111156145fd576145fc613a0e565b5b61460989828a0161439a565b9150509295509295509295565b600080600080600060a0868803121561463257614631613a09565b5b600061464088828901613a92565b955050602061465188828901613a92565b945050604086013567ffffffffffffffff81111561467257614671613a0e565b5b61467e8882890161416c565b935050606061468f88828901613a92565b925050608086013567ffffffffffffffff8111156146b0576146af613a0e565b5b6146bc8882890161416c565b9150509295509295909350565b600081519050919050565b600082825260208201905092915050565b6000819050602082019050919050565b60006147018383613b69565b905092915050565b6000602082019050919050565b6000614721826146c9565b61472b81856146d4565b93508360208202850161473d856146e5565b8060005b85811015614779578484038952815161475a85826146f5565b945061476583614709565b925060208a01995050600181019050614741565b50829750879550505050505092915050565b600060208201905081810360008301526147a58184614716565b905092915050565b6147b681613da3565b81146147c157600080fd5b50565b6000813590506147d3816147ad565b92915050565b600080600080608085870312156147f3576147f2613a09565b5b600061480187828801614312565b9450506020614812878288016147c4565b935050604061482387828801614312565b925050606061483487828801614312565b91505092959194509250565b6000806040838503121561485757614856613a09565b5b600061486585828601613a5c565b925050602061487685828601613a5c565b9150509250929050565b6000806040838503121561489757614896613a09565b5b600083013567ffffffffffffffff8111156148b5576148b4613a0e565b5b6148c18582860161416c565b92505060206148d285828601613a92565b9150509250929050565b6000806000606084860312156148f5576148f4613a09565b5b600061490386828701613a5c565b935050602061491486828701613a92565b925050604061492586828701613a92565b9150509250925092565b60006020828403121561494557614944613a09565b5b600061495384828501614312565b91505092915050565b7f4e487b7100000000000000000000000000000000000000000000000000000000600052602260045260246000fd5b600060028204905060018216806149a357607f821691505b6020821081036149b6576149b561495c565b5b50919050565b7f4e487b7100000000000000000000000000000000000000000000000000000000600052601160045260246000fd5b60006149f682613a71565b9150614a0183613a71565b9250828201905080821115614a1957614a186149bc565b5b92915050565b7f4e487b7100000000000000000000000000000000000000000000000000000000600052603260045260246000fd5b6000614a5982613a71565b91507fffffffffffffffffffffffffffffffffffffffffffffffffffffffffffffffff8203614a8b57614a8a6149bc565b5b600182019050919050565b7f4f6e6c792061646d696e2063616e2063616c6c20746869732066756e6374696f60008201527f6e00000000000000000000000000000000000000000000000000000000000000602082015250565b6000614af2602183613958565b9150614afd82614a96565b604082019050919050565b60006020820190508181036000830152614b2181614ae5565b9050919050565b7f496e76616c696420726f6c652c206f6e6c792061646d696e206f72207365727660008201527f696365207375697461626c652e00000000000000000000000000000000000000602082015250565b6000614b84602d83613958565b9150614b8f82614b28565b604082019050919050565b60006020820190508181036000830152614bb381614b77565b9050919050565b60008190508160005260206000209050919050565b60006020601f8301049050919050565b600082821b905092915050565b600060088302614c1c7fffffffffffffffffffffffffffffffffffffffffffffffffffffffffffffffff82614bdf565b614c268683614bdf565b95508019841693508086168417925050509392505050565b6000819050919050565b6000614c63614c5e614c5984613a71565b614c3e565b613a71565b9050919050565b6000819050919050565b614c7d83614c48565b614c91614c8982614c6a565b848454614bec565b825550505050565b600090565b614ca6614c99565b614cb1818484614c74565b505050565b5b81811015614cd557614cca600082614c9e565b600181019050614cb7565b5050565b601f821115614d1a57614ceb81614bba565b614cf484614bcf565b81016020851015614d03578190505b614d17614d0f85614bcf565b830182614cb6565b50505b505050565b600082821c905092915050565b6000614d3d60001984600802614d1f565b1980831691505092915050565b6000614d568383614d2c565b9150826002028217905092915050565b614d6f8261394d565b67ffffffffffffffff811115614d8857614d8761406f565b5b614d92825461498b565b614d9d828285614cd9565b600060209050601f831160018114614dd05760008415614dbe578287015190505b614dc88582614d4a565b865550614e30565b601f198416614dde86614bba565b60005b82811015614e0657848901518255600182019150602085019450602081019050614de1565b86831015614e235784890151614e1f601f891682614d2c565b8355505b6001600288020188555050505b505050505050565b7f546869732044657374696e6174696f6e20776173206e6f7420636865636b696e600082015250565b6000614e6e602083613958565b9150614e7982614e38565b602082019050919050565b60006020820190508181036000830152614e9d81614e61565b9050919050565b600060c083016000830151614ebc6000860182613b49565b506020830151614ecf6020860182613b49565b5060408301518482036040860152614ee78282613b69565b9150506060830151614efc6060860182613b49565b506080830151614f0f6080860182613ba2565b5060a083015184820360a0860152614f278282613b69565b9150508091505092915050565b60006040820190508181036000830152614f4e81856139a4565b90508181036020830152614f628184614ea4565b90509392505050565b6000608082019050614f8060008301876144a7565b614f8d6020830186613db0565b614f9a60408301856144a7565b614fa760608301846144a7565b95945050505050565b60008160601b9050919050565b6000614fc882614fb0565b9050919050565b6000614fda82614fbd565b9050919050565b614ff2614fed82613a33565b614fcf565b82525050565b6000819050919050565b61501361500e82613a71565b614ff8565b82525050565b600081905092915050565b600061502f8261394d565b6150398185615019565b9350615049818560208601613969565b80840191505092915050565b60006150618287614fe1565b6014820191506150718286615002565b6020820191506150818285615024565b915061508d8284615002565b60208201915081905095945050505050565b7f45524332303a2064656372656173656420616c6c6f77616e63652062656c6f7760008201527f207a65726f000000000000000000000000000000000000000000000000000000602082015250565b60006150fb602583613958565b91506151068261509f565b604082019050919050565b6000602082019050818103600083015261512a816150ee565b9050919050565b7f696e76616c6964207369676e6174757265206c656e6774680000000000000000600082015250565b6000615167601883613958565b915061517282615131565b602082019050919050565b600060208201905081810360008301526151968161515a565b9050919050565b7f596f7520686164206265656e2072657669657765642074686973207472697000600082015250565b60006151d3601f83613958565b91506151de8261519d565b602082019050919050565b60006020820190508181036000830152615202816151c6565b9050919050565b7f5468697320494420616c72656164792065786973746564000000000000000000600082015250565b600061523f601783613958565b915061524a82615209565b602082019050919050565b6000602082019050818103600083015261526e81615232565b9050919050565b600081519050919050565b600081905092915050565b600061529682615275565b6152a08185615280565b93506152b0818560208601613969565b80840191505092915050565b6000819050919050565b6152d76152d2826142f1565b6152bc565b82525050565b60006152e9828561528b565b91506152f582846152c6565b6020820191508190509392505050565b6000604082019050818103600083015261531f81856139a4565b905061532e6020830184613cf9565b9392505050565b7f5469636b65742068617320757365640000000000000000000000000000000000600082015250565b600061536b600f83613958565b915061537682615335565b602082019050919050565b6000602082019050818103600083015261539a8161535e565b9050919050565b60006040820190506153b66000830185613cf9565b6153c36020830184613cf9565b9392505050565b7f19457468657265756d205369676e6564204d6573736167653a0a333200000000600082015250565b6000615400601c83615019565b915061540b826153ca565b601c82019050919050565b6000615421826153f3565b915061542d82846152c6565b60208201915081905092915050565b7f45524332303a20617070726f76652066726f6d20746865207a65726f2061646460008201527f7265737300000000000000000000000000000000000000000000000000000000602082015250565b6000615498602483613958565b91506154a38261543c565b604082019050919050565b600060208201905081810360008301526154c78161548b565b9050919050565b7f45524332303a20617070726f766520746f20746865207a65726f20616464726560008201527f7373000000000000000000000000000000000000000000000000000000000000602082015250565b600061552a602283613958565b9150615535826154ce565b604082019050919050565b600060208201905081810360008301526155598161551d565b9050919050565b7f45524332303a20696e73756666696369656e7420616c6c6f77616e6365000000600082015250565b6000615596601d83613958565b91506155a182615560565b602082019050919050565b600060208201905081810360008301526155c581615589565b9050919050565b7f45524332303a207472616e736665722066726f6d20746865207a65726f20616460008201527f6472657373000000000000000000000000000000000000000000000000000000602082015250565b6000615628602583613958565b9150615633826155cc565b604082019050919050565b600060208201905081810360008301526156578161561b565b9050919050565b7f45524332303a207472616e7366657220746f20746865207a65726f206164647260008201527f6573730000000000000000000000000000000000000000000000000000000000602082015250565b60006156ba602383613958565b91506156c58261565e565b604082019050919050565b600060208201905081810360008301526156e9816156ad565b9050919050565b7f45524332303a207472616e7366657220616d6f756e742065786365656473206260008201527f616c616e63650000000000000000000000000000000000000000000000000000602082015250565b600061574c602683613958565b9150615757826156f0565b604082019050919050565b6000602082019050818103600083015261577b8161573f565b9050919050565b7f45524332303a206d696e7420746f20746865207a65726f206164647265737300600082015250565b60006157b8601f83613958565b91506157c382615782565b602082019050919050565b600060208201905081810360008301526157e7816157ab565b905091905056fea2646970667358221220e550e73f6dea03ff128854703842a09a6bbac646559c9c23cbb118fdabdc9fb664736f6c63430008130033",
  "linkReferences": {},
  "deployedLinkReferences": {}
}